{
  "address": "0x58D9d2Ef14Cb8B8388e11075c52Ace6B1AF064f6",
  "abi": [
    {
      "inputs": [],
      "stateMutability": "nonpayable",
      "type": "constructor"
    },
    {
      "anonymous": false,
      "inputs": [
        {
          "indexed": true,
          "internalType": "address",
          "name": "owner",
          "type": "address"
        },
        {
          "indexed": true,
          "internalType": "address",
          "name": "approved",
          "type": "address"
        },
        {
          "indexed": true,
          "internalType": "uint256",
          "name": "tokenId",
          "type": "uint256"
        }
      ],
      "name": "Approval",
      "type": "event"
    },
    {
      "anonymous": false,
      "inputs": [
        {
          "indexed": true,
          "internalType": "address",
          "name": "owner",
          "type": "address"
        },
        {
          "indexed": true,
          "internalType": "address",
          "name": "operator",
          "type": "address"
        },
        {
          "indexed": false,
          "internalType": "bool",
          "name": "approved",
          "type": "bool"
        }
      ],
      "name": "ApprovalForAll",
      "type": "event"
    },
    {
      "anonymous": false,
      "inputs": [
        {
          "indexed": false,
          "internalType": "address",
          "name": "",
          "type": "address"
        },
        {
          "indexed": false,
          "internalType": "uint256",
          "name": "",
          "type": "uint256"
        }
      ],
      "name": "TokenMinted",
      "type": "event"
    },
    {
      "anonymous": false,
      "inputs": [
        {
          "indexed": false,
          "internalType": "address",
          "name": "",
          "type": "address"
        },
        {
          "indexed": false,
          "internalType": "address",
          "name": "",
          "type": "address"
        },
        {
          "indexed": false,
          "internalType": "uint256",
          "name": "",
          "type": "uint256"
        }
      ],
      "name": "TokenTransfered",
      "type": "event"
    },
    {
      "anonymous": false,
      "inputs": [
        {
          "indexed": true,
          "internalType": "address",
          "name": "from",
          "type": "address"
        },
        {
          "indexed": true,
          "internalType": "address",
          "name": "to",
          "type": "address"
        },
        {
          "indexed": true,
          "internalType": "uint256",
          "name": "tokenId",
          "type": "uint256"
        }
      ],
      "name": "Transfer",
      "type": "event"
    },
    {
      "inputs": [
        {
          "internalType": "address",
          "name": "to",
          "type": "address"
        },
        {
          "internalType": "uint256",
          "name": "tokenId",
          "type": "uint256"
        }
      ],
      "name": "approve",
      "outputs": [],
      "stateMutability": "nonpayable",
      "type": "function"
    },
    {
      "inputs": [
        {
          "internalType": "address",
          "name": "owner",
          "type": "address"
        }
      ],
      "name": "balanceOf",
      "outputs": [
        {
          "internalType": "uint256",
          "name": "",
          "type": "uint256"
        }
      ],
      "stateMutability": "view",
      "type": "function"
    },
    {
      "inputs": [
        {
          "internalType": "string",
          "name": "name",
          "type": "string"
        },
        {
          "internalType": "string",
          "name": "description",
          "type": "string"
        },
        {
          "internalType": "string",
          "name": "jsoninfo",
          "type": "string"
        },
        {
          "internalType": "string",
          "name": "image",
          "type": "string"
        }
      ],
      "name": "createDao",
      "outputs": [],
      "stateMutability": "nonpayable",
      "type": "function"
    },
    {
      "inputs": [
        {
          "internalType": "string",
          "name": "tokenURI",
          "type": "string"
        },
        {
          "internalType": "uint256",
          "name": "_daoId",
          "type": "uint256"
        },
        {
          "internalType": "string",
          "name": "_metadata",
          "type": "string"
        },
        {
          "internalType": "string",
          "name": "_image",
          "type": "string"
        }
      ],
      "name": "createUserNft",
      "outputs": [
        {
          "internalType": "uint256",
          "name": "",
          "type": "uint256"
        }
      ],
      "stateMutability": "nonpayable",
      "type": "function"
    },
    {
      "inputs": [],
      "name": "getAllDaos",
      "outputs": [
        {
          "components": [
            {
              "internalType": "uint256",
              "name": "daoId",
              "type": "uint256"
            },
            {
              "internalType": "string",
              "name": "name",
              "type": "string"
            },
            {
              "internalType": "string",
              "name": "description",
              "type": "string"
            },
            {
              "internalType": "string",
              "name": "jsoninfo",
              "type": "string"
            },
            {
              "internalType": "string",
              "name": "image",
              "type": "string"
            }
          ],
          "internalType": "struct STCDao.Dao[]",
          "name": "",
          "type": "tuple[]"
        }
      ],
      "stateMutability": "view",
      "type": "function"
    },
    {
      "inputs": [
        {
          "internalType": "uint256",
          "name": "tokenId",
          "type": "uint256"
        }
      ],
      "name": "getApproved",
      "outputs": [
        {
          "internalType": "address",
          "name": "",
          "type": "address"
        }
      ],
      "stateMutability": "view",
      "type": "function"
    },
    {
      "inputs": [
        {
          "internalType": "uint256",
          "name": "daoId",
          "type": "uint256"
        }
      ],
      "name": "getDao",
      "outputs": [
        {
          "components": [
            {
              "internalType": "uint256",
              "name": "daoId",
              "type": "uint256"
            },
            {
              "internalType": "string",
              "name": "name",
              "type": "string"
            },
            {
              "internalType": "string",
              "name": "description",
              "type": "string"
            },
            {
              "internalType": "string",
              "name": "jsoninfo",
              "type": "string"
            },
            {
              "internalType": "string",
              "name": "image",
              "type": "string"
            }
          ],
          "internalType": "struct STCDao.Dao",
          "name": "",
          "type": "tuple"
        }
      ],
      "stateMutability": "view",
      "type": "function"
    },
    {
      "inputs": [
        {
          "internalType": "uint256",
          "name": "daoId",
          "type": "uint256"
        }
      ],
      "name": "getUserNft",
      "outputs": [
        {
          "components": [
            {
              "internalType": "uint256",
              "name": "tokenId",
              "type": "uint256"
            },
            {
              "internalType": "uint256",
              "name": "daoId",
              "type": "uint256"
            },
            {
              "internalType": "address",
              "name": "user",
              "type": "address"
            },
            {
              "internalType": "string",
              "name": "metadata",
              "type": "string"
            },
            {
              "internalType": "string",
              "name": "image",
              "type": "string"
            }
          ],
          "internalType": "struct STCDao.Soul",
          "name": "",
          "type": "tuple"
        },
        {
          "internalType": "bool",
          "name": "",
          "type": "bool"
        }
      ],
      "stateMutability": "view",
      "type": "function"
    },
    {
      "inputs": [
        {
          "internalType": "uint256",
          "name": "",
          "type": "uint256"
        }
      ],
      "name": "idToDao",
      "outputs": [
        {
          "internalType": "uint256",
          "name": "daoId",
          "type": "uint256"
        },
        {
          "internalType": "string",
          "name": "name",
          "type": "string"
        },
        {
          "internalType": "string",
          "name": "description",
          "type": "string"
        },
        {
          "internalType": "string",
          "name": "jsoninfo",
          "type": "string"
        },
        {
          "internalType": "string",
          "name": "image",
          "type": "string"
        }
      ],
      "stateMutability": "view",
      "type": "function"
    },
    {
      "inputs": [
        {
          "internalType": "address",
          "name": "owner",
          "type": "address"
        },
        {
          "internalType": "address",
          "name": "operator",
          "type": "address"
        }
      ],
      "name": "isApprovedForAll",
      "outputs": [
        {
          "internalType": "bool",
          "name": "",
          "type": "bool"
        }
      ],
      "stateMutability": "view",
      "type": "function"
    },
    {
      "inputs": [],
      "name": "name",
      "outputs": [
        {
          "internalType": "string",
          "name": "",
          "type": "string"
        }
      ],
      "stateMutability": "view",
      "type": "function"
    },
    {
      "inputs": [
        {
          "internalType": "uint256",
          "name": "tokenId",
          "type": "uint256"
        }
      ],
      "name": "ownerOf",
      "outputs": [
        {
          "internalType": "address",
          "name": "",
          "type": "address"
        }
      ],
      "stateMutability": "view",
      "type": "function"
    },
    {
      "inputs": [
        {
          "internalType": "address",
          "name": "from",
          "type": "address"
        },
        {
          "internalType": "address",
          "name": "to",
          "type": "address"
        },
        {
          "internalType": "uint256",
          "name": "tokenId",
          "type": "uint256"
        }
      ],
      "name": "safeTransferFrom",
      "outputs": [],
      "stateMutability": "nonpayable",
      "type": "function"
    },
    {
      "inputs": [
        {
          "internalType": "address",
          "name": "from",
          "type": "address"
        },
        {
          "internalType": "address",
          "name": "to",
          "type": "address"
        },
        {
          "internalType": "uint256",
          "name": "tokenId",
          "type": "uint256"
        },
        {
          "internalType": "bytes",
          "name": "data",
          "type": "bytes"
        }
      ],
      "name": "safeTransferFrom",
      "outputs": [],
      "stateMutability": "nonpayable",
      "type": "function"
    },
    {
      "inputs": [
        {
          "internalType": "address",
          "name": "operator",
          "type": "address"
        },
        {
          "internalType": "bool",
          "name": "approved",
          "type": "bool"
        }
      ],
      "name": "setApprovalForAll",
      "outputs": [],
      "stateMutability": "nonpayable",
      "type": "function"
    },
    {
      "inputs": [
        {
          "internalType": "bytes4",
          "name": "interfaceId",
          "type": "bytes4"
        }
      ],
      "name": "supportsInterface",
      "outputs": [
        {
          "internalType": "bool",
          "name": "",
          "type": "bool"
        }
      ],
      "stateMutability": "view",
      "type": "function"
    },
    {
      "inputs": [],
      "name": "symbol",
      "outputs": [
        {
          "internalType": "string",
          "name": "",
          "type": "string"
        }
      ],
      "stateMutability": "view",
      "type": "function"
    },
    {
      "inputs": [
        {
          "internalType": "uint256",
          "name": "tokenId",
          "type": "uint256"
        }
      ],
      "name": "tokenURI",
      "outputs": [
        {
          "internalType": "string",
          "name": "",
          "type": "string"
        }
      ],
      "stateMutability": "view",
      "type": "function"
    },
    {
      "inputs": [
        {
          "internalType": "address",
          "name": "from",
          "type": "address"
        },
        {
          "internalType": "address",
          "name": "to",
          "type": "address"
        },
        {
          "internalType": "uint256",
          "name": "tokenId",
          "type": "uint256"
        }
      ],
      "name": "transferFrom",
      "outputs": [],
      "stateMutability": "nonpayable",
      "type": "function"
    },
    {
      "inputs": [
        {
          "internalType": "address",
          "name": "",
          "type": "address"
        }
      ],
      "name": "userSoulCount",
      "outputs": [
        {
          "internalType": "uint256",
          "name": "",
          "type": "uint256"
        }
      ],
      "stateMutability": "view",
      "type": "function"
    },
    {
      "inputs": [
        {
          "internalType": "address",
          "name": "",
          "type": "address"
        },
        {
          "internalType": "uint256",
          "name": "",
          "type": "uint256"
        }
      ],
      "name": "userSoulIds",
      "outputs": [
        {
          "internalType": "uint256",
          "name": "",
          "type": "uint256"
        }
      ],
      "stateMutability": "view",
      "type": "function"
    }
  ],
  "transactionHash": "0x7ceb6d475faabad31a9e5920b867140e568a20e5ca552db2ade8be2b18983428",
  "args": [],
  "numDeployments": 1,
  "solcInputHash": "1d0f1b9b07421d2fa5fb93c9de5f0a21",
  "bytecode": "0x60806040523480156200001157600080fd5b506040518060400160405280600681526020017f53544344616f00000000000000000000000000000000000000000000000000008152506040518060400160405280600481526020017f5354434e0000000000000000000000000000000000000000000000000000000081525081600090816200008f919062000324565b508060019081620000a1919062000324565b5050506200040b565b600081519050919050565b7f4e487b7100000000000000000000000000000000000000000000000000000000600052604160045260246000fd5b7f4e487b7100000000000000000000000000000000000000000000000000000000600052602260045260246000fd5b600060028204905060018216806200012c57607f821691505b602082108103620001425762000141620000e4565b5b50919050565b60008190508160005260206000209050919050565b60006020601f8301049050919050565b600082821b905092915050565b600060088302620001ac7fffffffffffffffffffffffffffffffffffffffffffffffffffffffffffffffff826200016d565b620001b886836200016d565b95508019841693508086168417925050509392505050565b6000819050919050565b6000819050919050565b600062000205620001ff620001f984620001d0565b620001da565b620001d0565b9050919050565b6000819050919050565b6200022183620001e4565b6200023962000230826200020c565b8484546200017a565b825550505050565b600090565b6200025062000241565b6200025d81848462000216565b505050565b5b8181101562000285576200027960008262000246565b60018101905062000263565b5050565b601f821115620002d4576200029e8162000148565b620002a9846200015d565b81016020851015620002b9578190505b620002d1620002c8856200015d565b83018262000262565b50505b505050565b600082821c905092915050565b6000620002f960001984600802620002d9565b1980831691505092915050565b6000620003148383620002e6565b9150826002028217905092915050565b6200032f82620000aa565b67ffffffffffffffff8111156200034b576200034a620000b5565b5b62000357825462000113565b6200036482828562000289565b600060209050601f8311600181146200039c576000841562000387578287015190505b62000393858262000306565b86555062000403565b601f198416620003ac8662000148565b60005b82811015620003d657848901518255600182019150602085019450602081019050620003af565b86831015620003f65784890151620003f2601f891682620002e6565b8355505b6001600288020188555050505b505050505050565b614082806200041b6000396000f3fe608060405234801561001057600080fd5b50600436106101375760003560e01c806370a08231116100b8578063aa5b6d4c1161007c578063aa5b6d4c14610385578063aceb6d5e146103a3578063b88d4fde146103d7578063c87b56dd146103f3578063e985e9c514610423578063ea8a10cf1461045357610137565b806370a08231146102bb57806395d89b41146102eb578063a07b57f614610309578063a22cb46514610339578063a36c530e1461035557610137565b806323b872dd116100ff57806323b872dd146101f257806342842e0e1461020e578063520dc7451461022a5780635e92fe921461025b5780636352211e1461028b57610137565b806301ffc9a71461013c57806306fdde031461016c578063081812fc1461018a578063095ea7b3146101ba5780631b44c40e146101d6575b600080fd5b610156600480360381019061015191906129c1565b610483565b6040516101639190612a09565b60405180910390f35b610174610565565b6040516101819190612ab4565b60405180910390f35b6101a4600480360381019061019f9190612b0c565b6105f7565b6040516101b19190612b7a565b60405180910390f35b6101d460048036038101906101cf9190612bc1565b61063d565b005b6101f060048036038101906101eb9190612d36565b610754565b005b61020c60048036038101906102079190612e0d565b6108c8565b005b61022860048036038101906102239190612e0d565b610928565b005b610244600480360381019061023f9190612b0c565b610948565b604051610252929190612f45565b60405180910390f35b61027560048036038101906102709190612f75565b610c58565b6040516102829190612fb1565b60405180910390f35b6102a560048036038101906102a09190612b0c565b610c70565b6040516102b29190612b7a565b60405180910390f35b6102d560048036038101906102d09190612f75565b610cf6565b6040516102e29190612fb1565b60405180910390f35b6102f3610dad565b6040516103009190612ab4565b60405180910390f35b610323600480360381019061031e9190612b0c565b610e3f565b6040516103309190613057565b60405180910390f35b610353600480360381019061034e91906130a5565b6110be565b005b61036f600480360381019061036a91906130e5565b6110d4565b60405161037c9190612fb1565b60405180910390f35b61038d6112dc565b60405161039a91906132ed565b60405180910390f35b6103bd60048036038101906103b89190612b0c565b611604565b6040516103ce95949392919061330f565b60405180910390f35b6103f160048036038101906103ec919061341f565b61185a565b005b61040d60048036038101906104089190612b0c565b6118bc565b60405161041a9190612ab4565b60405180910390f35b61043d600480360381019061043891906134a2565b6119ce565b60405161044a9190612a09565b60405180910390f35b61046d60048036038101906104689190612bc1565b611a62565b60405161047a9190612fb1565b60405180910390f35b60007f80ac58cd000000000000000000000000000000000000000000000000000000007bffffffffffffffffffffffffffffffffffffffffffffffffffffffff1916827bffffffffffffffffffffffffffffffffffffffffffffffffffffffff1916148061054e57507f5b5e139f000000000000000000000000000000000000000000000000000000007bffffffffffffffffffffffffffffffffffffffffffffffffffffffff1916827bffffffffffffffffffffffffffffffffffffffffffffffffffffffff1916145b8061055e575061055d82611a93565b5b9050919050565b60606000805461057490613511565b80601f01602080910402602001604051908101604052809291908181526020018280546105a090613511565b80156105ed5780601f106105c2576101008083540402835291602001916105ed565b820191906000526020600020905b8154815290600101906020018083116105d057829003601f168201915b5050505050905090565b600061060282611afd565b6004600083815260200190815260200160002060009054906101000a900473ffffffffffffffffffffffffffffffffffffffff169050919050565b600061064882610c70565b90508073ffffffffffffffffffffffffffffffffffffffff168373ffffffffffffffffffffffffffffffffffffffff16036106b8576040517f08c379a00000000000000000000000000000000000000000000000000000000081526004016106af906135b4565b60405180910390fd5b8073ffffffffffffffffffffffffffffffffffffffff166106d7611b48565b73ffffffffffffffffffffffffffffffffffffffff161480610706575061070581610700611b48565b6119ce565b5b610745576040517f08c379a000000000000000000000000000000000000000000000000000000000815260040161073c90613646565b60405180910390fd5b61074f8383611b50565b505050565b60006107606007611c09565b905061076c6007611c17565b60096040518060a001604052808381526020018781526020018681526020018581526020018481525090806001815401808255809150506001900390600052602060002090600502016000909190919091506000820151816000015560208201518160010190816107dd9190613812565b5060408201518160020190816107f39190613812565b5060608201518160030190816108099190613812565b50608082015181600401908161081f9190613812565b5050506040518060a0016040528082815260200186815260200185815260200184815260200183815250600a600083815260200190815260200160002060008201518160000155602082015181600101908161087b9190613812565b5060408201518160020190816108919190613812565b5060608201518160030190816108a79190613812565b5060808201518160040190816108bd9190613812565b509050505050505050565b6108d96108d3611b48565b82611c2d565b610918576040517f08c379a000000000000000000000000000000000000000000000000000000000815260040161090f90613956565b60405180910390fd5b610923838383611cc2565b505050565b6109438383836040518060200160405280600081525061185a565b505050565b6109506128e1565b600061095a6128e1565b60005b600c60003373ffffffffffffffffffffffffffffffffffffffff1673ffffffffffffffffffffffffffffffffffffffff16815260200190815260200160002080549050811015610c495784600b6000600c60003373ffffffffffffffffffffffffffffffffffffffff1673ffffffffffffffffffffffffffffffffffffffff16815260200190815260200160002084815481106109fd576109fc613976565b5b906000526020600020015481526020019081526020016000206001015403610c3657600b6000600c60003373ffffffffffffffffffffffffffffffffffffffff1673ffffffffffffffffffffffffffffffffffffffff1681526020019081526020016000208381548110610a7457610a73613976565b5b906000526020600020015481526020019081526020016000206001816040518060a001604052908160008201548152602001600182015481526020016002820160009054906101000a900473ffffffffffffffffffffffffffffffffffffffff1673ffffffffffffffffffffffffffffffffffffffff1673ffffffffffffffffffffffffffffffffffffffff168152602001600382018054610b1590613511565b80601f0160208091040260200160405190810160405280929190818152602001828054610b4190613511565b8015610b8e5780601f10610b6357610100808354040283529160200191610b8e565b820191906000526020600020905b815481529060010190602001808311610b7157829003601f168201915b50505050508152602001600482018054610ba790613511565b80601f0160208091040260200160405190810160405280929190818152602001828054610bd390613511565b8015610c205780601f10610bf557610100808354040283529160200191610c20565b820191906000526020600020905b815481529060010190602001808311610c0357829003601f168201915b5050505050815250509150935093505050610c53565b8080610c41906139d4565b91505061095d565b5080600092509250505b915091565b600d6020528060005260406000206000915090505481565b600080610c7c83611fbb565b9050600073ffffffffffffffffffffffffffffffffffffffff168173ffffffffffffffffffffffffffffffffffffffff1603610ced576040517f08c379a0000000000000000000000000000000000000000000000000000000008152600401610ce490613a68565b60405180910390fd5b80915050919050565b60008073ffffffffffffffffffffffffffffffffffffffff168273ffffffffffffffffffffffffffffffffffffffff1603610d66576040517f08c379a0000000000000000000000000000000000000000000000000000000008152600401610d5d90613afa565b60405180910390fd5b600360008373ffffffffffffffffffffffffffffffffffffffff1673ffffffffffffffffffffffffffffffffffffffff168152602001908152602001600020549050919050565b606060018054610dbc90613511565b80601f0160208091040260200160405190810160405280929190818152602001828054610de890613511565b8015610e355780601f10610e0a57610100808354040283529160200191610e35565b820191906000526020600020905b815481529060010190602001808311610e1857829003601f168201915b5050505050905090565b610e47612926565b600a60008381526020019081526020016000206040518060a001604052908160008201548152602001600182018054610e7f90613511565b80601f0160208091040260200160405190810160405280929190818152602001828054610eab90613511565b8015610ef85780601f10610ecd57610100808354040283529160200191610ef8565b820191906000526020600020905b815481529060010190602001808311610edb57829003601f168201915b50505050508152602001600282018054610f1190613511565b80601f0160208091040260200160405190810160405280929190818152602001828054610f3d90613511565b8015610f8a5780601f10610f5f57610100808354040283529160200191610f8a565b820191906000526020600020905b815481529060010190602001808311610f6d57829003601f168201915b50505050508152602001600382018054610fa390613511565b80601f0160208091040260200160405190810160405280929190818152602001828054610fcf90613511565b801561101c5780601f10610ff15761010080835404028352916020019161101c565b820191906000526020600020905b815481529060010190602001808311610fff57829003601f168201915b5050505050815260200160048201805461103590613511565b80601f016020809104026020016040519081016040528092919081815260200182805461106190613511565b80156110ae5780601f10611083576101008083540402835291602001916110ae565b820191906000526020600020905b81548152906001019060200180831161109157829003601f168201915b5050505050815250509050919050565b6110d06110c9611b48565b8383611ff8565b5050565b6000806110e16008611c09565b90506110ed6008611c17565b6110f73382612164565b6111018187612381565b6040518060a001604052808281526020018681526020013373ffffffffffffffffffffffffffffffffffffffff16815260200185815260200184815250600b6000838152602001908152602001600020600082015181600001556020820151816001015560408201518160020160006101000a81548173ffffffffffffffffffffffffffffffffffffffff021916908373ffffffffffffffffffffffffffffffffffffffff16021790555060608201518160030190816111c19190613812565b5060808201518160040190816111d79190613812565b50905050600c60003373ffffffffffffffffffffffffffffffffffffffff1673ffffffffffffffffffffffffffffffffffffffff1681526020019081526020016000208190806001815401808255809150506001900390600052602060002001600090919091909150556001600d60003373ffffffffffffffffffffffffffffffffffffffff1673ffffffffffffffffffffffffffffffffffffffff1681526020019081526020016000205461128d9190613b1a565b600d60003373ffffffffffffffffffffffffffffffffffffffff1673ffffffffffffffffffffffffffffffffffffffff1681526020019081526020016000208190555080915050949350505050565b606060006112ea6007611c09565b905060006001826112fb9190613b1a565b67ffffffffffffffff81111561131457611313612c0b565b5b60405190808252806020026020018201604052801561134d57816020015b61133a612926565b8152602001906001900390816113325790505b50905060005b8281116115fb57600a60008281526020019081526020016000206040518060a00160405290816000820154815260200160018201805461139290613511565b80601f01602080910402602001604051908101604052809291908181526020018280546113be90613511565b801561140b5780601f106113e05761010080835404028352916020019161140b565b820191906000526020600020905b8154815290600101906020018083116113ee57829003601f168201915b5050505050815260200160028201805461142490613511565b80601f016020809104026020016040519081016040528092919081815260200182805461145090613511565b801561149d5780601f106114725761010080835404028352916020019161149d565b820191906000526020600020905b81548152906001019060200180831161148057829003601f168201915b505050505081526020016003820180546114b690613511565b80601f01602080910402602001604051908101604052809291908181526020018280546114e290613511565b801561152f5780601f106115045761010080835404028352916020019161152f565b820191906000526020600020905b81548152906001019060200180831161151257829003601f168201915b5050505050815260200160048201805461154890613511565b80601f016020809104026020016040519081016040528092919081815260200182805461157490613511565b80156115c15780601f10611596576101008083540402835291602001916115c1565b820191906000526020600020905b8154815290600101906020018083116115a457829003601f168201915b5050505050815250508282815181106115dd576115dc613976565b5b602002602001018190525080806115f3906139d4565b915050611353565b50809250505090565b600a60205280600052604060002060009150905080600001549080600101805461162d90613511565b80601f016020809104026020016040519081016040528092919081815260200182805461165990613511565b80156116a65780601f1061167b576101008083540402835291602001916116a6565b820191906000526020600020905b81548152906001019060200180831161168957829003601f168201915b5050505050908060020180546116bb90613511565b80601f01602080910402602001604051908101604052809291908181526020018280546116e790613511565b80156117345780601f1061170957610100808354040283529160200191611734565b820191906000526020600020905b81548152906001019060200180831161171757829003601f168201915b50505050509080600301805461174990613511565b80601f016020809104026020016040519081016040528092919081815260200182805461177590613511565b80156117c25780601f10611797576101008083540402835291602001916117c2565b820191906000526020600020905b8154815290600101906020018083116117a557829003601f168201915b5050505050908060040180546117d790613511565b80601f016020809104026020016040519081016040528092919081815260200182805461180390613511565b80156118505780601f1061182557610100808354040283529160200191611850565b820191906000526020600020905b81548152906001019060200180831161183357829003601f168201915b5050505050905085565b61186b611865611b48565b83611c2d565b6118aa576040517f08c379a00000000000000000000000000000000000000000000000000000000081526004016118a190613956565b60405180910390fd5b6118b6848484846123ee565b50505050565b60606118c782611afd565b60006006600084815260200190815260200160002080546118e790613511565b80601f016020809104026020016040519081016040528092919081815260200182805461191390613511565b80156119605780601f1061193557610100808354040283529160200191611960565b820191906000526020600020905b81548152906001019060200180831161194357829003601f168201915b50505050509050600061197161244a565b905060008151036119865781925050506119c9565b6000825111156119bb5780826040516020016119a3929190613b8a565b604051602081830303815290604052925050506119c9565b6119c484612461565b925050505b919050565b6000600560008473ffffffffffffffffffffffffffffffffffffffff1673ffffffffffffffffffffffffffffffffffffffff16815260200190815260200160002060008373ffffffffffffffffffffffffffffffffffffffff1673ffffffffffffffffffffffffffffffffffffffff16815260200190815260200160002060009054906101000a900460ff16905092915050565b600c6020528160005260406000208181548110611a7e57600080fd5b90600052602060002001600091509150505481565b60007f01ffc9a7000000000000000000000000000000000000000000000000000000007bffffffffffffffffffffffffffffffffffffffffffffffffffffffff1916827bffffffffffffffffffffffffffffffffffffffffffffffffffffffff1916149050919050565b611b06816124c9565b611b45576040517f08c379a0000000000000000000000000000000000000000000000000000000008152600401611b3c90613a68565b60405180910390fd5b50565b600033905090565b816004600083815260200190815260200160002060006101000a81548173ffffffffffffffffffffffffffffffffffffffff021916908373ffffffffffffffffffffffffffffffffffffffff160217905550808273ffffffffffffffffffffffffffffffffffffffff16611bc383610c70565b73ffffffffffffffffffffffffffffffffffffffff167f8c5be1e5ebec7d5bd14f71427d1e84f3dd0314c0f7b2291e5b200ac8c7c3b92560405160405180910390a45050565b600081600001549050919050565b6001816000016000828254019250508190555050565b600080611c3983610c70565b90508073ffffffffffffffffffffffffffffffffffffffff168473ffffffffffffffffffffffffffffffffffffffff161480611c7b5750611c7a81856119ce565b5b80611cb957508373ffffffffffffffffffffffffffffffffffffffff16611ca1846105f7565b73ffffffffffffffffffffffffffffffffffffffff16145b91505092915050565b8273ffffffffffffffffffffffffffffffffffffffff16611ce282610c70565b73ffffffffffffffffffffffffffffffffffffffff1614611d38576040517f08c379a0000000000000000000000000000000000000000000000000000000008152600401611d2f90613c20565b60405180910390fd5b600073ffffffffffffffffffffffffffffffffffffffff168273ffffffffffffffffffffffffffffffffffffffff1603611da7576040517f08c379a0000000000000000000000000000000000000000000000000000000008152600401611d9e90613cb2565b60405180910390fd5b611db4838383600161250a565b8273ffffffffffffffffffffffffffffffffffffffff16611dd482610c70565b73ffffffffffffffffffffffffffffffffffffffff1614611e2a576040517f08c379a0000000000000000000000000000000000000000000000000000000008152600401611e2190613c20565b60405180910390fd5b6004600082815260200190815260200160002060006101000a81549073ffffffffffffffffffffffffffffffffffffffff02191690556001600360008573ffffffffffffffffffffffffffffffffffffffff1673ffffffffffffffffffffffffffffffffffffffff168152602001908152602001600020600082825403925050819055506001600360008473ffffffffffffffffffffffffffffffffffffffff1673ffffffffffffffffffffffffffffffffffffffff16815260200190815260200160002060008282540192505081905550816002600083815260200190815260200160002060006101000a81548173ffffffffffffffffffffffffffffffffffffffff021916908373ffffffffffffffffffffffffffffffffffffffff160217905550808273ffffffffffffffffffffffffffffffffffffffff168473ffffffffffffffffffffffffffffffffffffffff167fddf252ad1be2c89b69c2b068fc378daa952ba7f163c4a11628f55a4df523b3ef60405160405180910390a4611fb68383836001612510565b505050565b60006002600083815260200190815260200160002060009054906101000a900473ffffffffffffffffffffffffffffffffffffffff169050919050565b8173ffffffffffffffffffffffffffffffffffffffff168373ffffffffffffffffffffffffffffffffffffffff1603612066576040517f08c379a000000000000000000000000000000000000000000000000000000000815260040161205d90613d1e565b60405180910390fd5b80600560008573ffffffffffffffffffffffffffffffffffffffff1673ffffffffffffffffffffffffffffffffffffffff16815260200190815260200160002060008473ffffffffffffffffffffffffffffffffffffffff1673ffffffffffffffffffffffffffffffffffffffff16815260200190815260200160002060006101000a81548160ff0219169083151502179055508173ffffffffffffffffffffffffffffffffffffffff168373ffffffffffffffffffffffffffffffffffffffff167f17307eab39ab6107e8899845ad3d59bd9653f200f220920489ca2b5937696c31836040516121579190612a09565b60405180910390a3505050565b600073ffffffffffffffffffffffffffffffffffffffff168273ffffffffffffffffffffffffffffffffffffffff16036121d3576040517f08c379a00000000000000000000000000000000000000000000000000000000081526004016121ca90613d8a565b60405180910390fd5b6121dc816124c9565b1561221c576040517f08c379a000000000000000000000000000000000000000000000000000000000815260040161221390613df6565b60405180910390fd5b61222a60008383600161250a565b612233816124c9565b15612273576040517f08c379a000000000000000000000000000000000000000000000000000000000815260040161226a90613df6565b60405180910390fd5b6001600360008473ffffffffffffffffffffffffffffffffffffffff1673ffffffffffffffffffffffffffffffffffffffff16815260200190815260200160002060008282540192505081905550816002600083815260200190815260200160002060006101000a81548173ffffffffffffffffffffffffffffffffffffffff021916908373ffffffffffffffffffffffffffffffffffffffff160217905550808273ffffffffffffffffffffffffffffffffffffffff16600073ffffffffffffffffffffffffffffffffffffffff167fddf252ad1be2c89b69c2b068fc378daa952ba7f163c4a11628f55a4df523b3ef60405160405180910390a461237d600083836001612510565b5050565b61238a826124c9565b6123c9576040517f08c379a00000000000000000000000000000000000000000000000000000000081526004016123c090613e88565b60405180910390fd5b806006600084815260200190815260200160002090816123e99190613812565b505050565b6123f9848484611cc2565b61240584848484612516565b612444576040517f08c379a000000000000000000000000000000000000000000000000000000000815260040161243b90613f1a565b60405180910390fd5b50505050565b606060405180602001604052806000815250905090565b606061246c82611afd565b600061247661244a565b9050600081511161249657604051806020016040528060008152506124c1565b806124a08461269d565b6040516020016124b1929190613b8a565b6040516020818303038152906040525b915050919050565b60008073ffffffffffffffffffffffffffffffffffffffff166124eb83611fbb565b73ffffffffffffffffffffffffffffffffffffffff1614159050919050565b50505050565b50505050565b60006125378473ffffffffffffffffffffffffffffffffffffffff1661276b565b15612690578373ffffffffffffffffffffffffffffffffffffffff1663150b7a02612560611b48565b8786866040518563ffffffff1660e01b81526004016125829493929190613f8f565b6020604051808303816000875af19250505080156125be57506040513d601f19601f820116820180604052508101906125bb9190613ff0565b60015b612640573d80600081146125ee576040519150601f19603f3d011682016040523d82523d6000602084013e6125f3565b606091505b506000815103612638576040517f08c379a000000000000000000000000000000000000000000000000000000000815260040161262f90613f1a565b60405180910390fd5b805181602001fd5b63150b7a0260e01b7bffffffffffffffffffffffffffffffffffffffffffffffffffffffff1916817bffffffffffffffffffffffffffffffffffffffffffffffffffffffff191614915050612695565b600190505b949350505050565b6060600060016126ac8461278e565b01905060008167ffffffffffffffff8111156126cb576126ca612c0b565b5b6040519080825280601f01601f1916602001820160405280156126fd5781602001600182028036833780820191505090505b509050600082602001820190505b600115612760578080600190039150507f3031323334353637383961626364656600000000000000000000000000000000600a86061a8153600a85816127545761275361401d565b5b0494506000850361270b575b819350505050919050565b6000808273ffffffffffffffffffffffffffffffffffffffff163b119050919050565b600080600090507a184f03e93ff9f4daa797ed6e38ed64bf6a1f01000000000000000083106127ec577a184f03e93ff9f4daa797ed6e38ed64bf6a1f01000000000000000083816127e2576127e161401d565b5b0492506040810190505b6d04ee2d6d415b85acef81000000008310612829576d04ee2d6d415b85acef8100000000838161281f5761281e61401d565b5b0492506020810190505b662386f26fc10000831061285857662386f26fc10000838161284e5761284d61401d565b5b0492506010810190505b6305f5e1008310612881576305f5e10083816128775761287661401d565b5b0492506008810190505b61271083106128a657612710838161289c5761289b61401d565b5b0492506004810190505b606483106128c957606483816128bf576128be61401d565b5b0492506002810190505b600a83106128d8576001810190505b80915050919050565b6040518060a001604052806000815260200160008152602001600073ffffffffffffffffffffffffffffffffffffffff16815260200160608152602001606081525090565b6040518060a0016040528060008152602001606081526020016060815260200160608152602001606081525090565b6000604051905090565b600080fd5b600080fd5b60007fffffffff0000000000000000000000000000000000000000000000000000000082169050919050565b61299e81612969565b81146129a957600080fd5b50565b6000813590506129bb81612995565b92915050565b6000602082840312156129d7576129d661295f565b5b60006129e5848285016129ac565b91505092915050565b60008115159050919050565b612a03816129ee565b82525050565b6000602082019050612a1e60008301846129fa565b92915050565b600081519050919050565b600082825260208201905092915050565b60005b83811015612a5e578082015181840152602081019050612a43565b60008484015250505050565b6000601f19601f8301169050919050565b6000612a8682612a24565b612a908185612a2f565b9350612aa0818560208601612a40565b612aa981612a6a565b840191505092915050565b60006020820190508181036000830152612ace8184612a7b565b905092915050565b6000819050919050565b612ae981612ad6565b8114612af457600080fd5b50565b600081359050612b0681612ae0565b92915050565b600060208284031215612b2257612b2161295f565b5b6000612b3084828501612af7565b91505092915050565b600073ffffffffffffffffffffffffffffffffffffffff82169050919050565b6000612b6482612b39565b9050919050565b612b7481612b59565b82525050565b6000602082019050612b8f6000830184612b6b565b92915050565b612b9e81612b59565b8114612ba957600080fd5b50565b600081359050612bbb81612b95565b92915050565b60008060408385031215612bd857612bd761295f565b5b6000612be685828601612bac565b9250506020612bf785828601612af7565b9150509250929050565b600080fd5b600080fd5b7f4e487b7100000000000000000000000000000000000000000000000000000000600052604160045260246000fd5b612c4382612a6a565b810181811067ffffffffffffffff82111715612c6257612c61612c0b565b5b80604052505050565b6000612c75612955565b9050612c818282612c3a565b919050565b600067ffffffffffffffff821115612ca157612ca0612c0b565b5b612caa82612a6a565b9050602081019050919050565b82818337600083830152505050565b6000612cd9612cd484612c86565b612c6b565b905082815260208101848484011115612cf557612cf4612c06565b5b612d00848285612cb7565b509392505050565b600082601f830112612d1d57612d1c612c01565b5b8135612d2d848260208601612cc6565b91505092915050565b60008060008060808587031215612d5057612d4f61295f565b5b600085013567ffffffffffffffff811115612d6e57612d6d612964565b5b612d7a87828801612d08565b945050602085013567ffffffffffffffff811115612d9b57612d9a612964565b5b612da787828801612d08565b935050604085013567ffffffffffffffff811115612dc857612dc7612964565b5b612dd487828801612d08565b925050606085013567ffffffffffffffff811115612df557612df4612964565b5b612e0187828801612d08565b91505092959194509250565b600080600060608486031215612e2657612e2561295f565b5b6000612e3486828701612bac565b9350506020612e4586828701612bac565b9250506040612e5686828701612af7565b9150509250925092565b612e6981612ad6565b82525050565b612e7881612b59565b82525050565b600082825260208201905092915050565b6000612e9a82612a24565b612ea48185612e7e565b9350612eb4818560208601612a40565b612ebd81612a6a565b840191505092915050565b600060a083016000830151612ee06000860182612e60565b506020830151612ef36020860182612e60565b506040830151612f066040860182612e6f565b5060608301518482036060860152612f1e8282612e8f565b91505060808301518482036080860152612f388282612e8f565b9150508091505092915050565b60006040820190508181036000830152612f5f8185612ec8565b9050612f6e60208301846129fa565b9392505050565b600060208284031215612f8b57612f8a61295f565b5b6000612f9984828501612bac565b91505092915050565b612fab81612ad6565b82525050565b6000602082019050612fc66000830184612fa2565b92915050565b600060a083016000830151612fe46000860182612e60565b5060208301518482036020860152612ffc8282612e8f565b915050604083015184820360408601526130168282612e8f565b915050606083015184820360608601526130308282612e8f565b9150506080830151848203608086015261304a8282612e8f565b9150508091505092915050565b600060208201905081810360008301526130718184612fcc565b905092915050565b613082816129ee565b811461308d57600080fd5b50565b60008135905061309f81613079565b92915050565b600080604083850312156130bc576130bb61295f565b5b60006130ca85828601612bac565b92505060206130db85828601613090565b9150509250929050565b600080600080608085870312156130ff576130fe61295f565b5b600085013567ffffffffffffffff81111561311d5761311c612964565b5b61312987828801612d08565b945050602061313a87828801612af7565b935050604085013567ffffffffffffffff81111561315b5761315a612964565b5b61316787828801612d08565b925050606085013567ffffffffffffffff81111561318857613187612964565b5b61319487828801612d08565b91505092959194509250565b600081519050919050565b600082825260208201905092915050565b6000819050602082019050919050565b600060a0830160008301516131e46000860182612e60565b50602083015184820360208601526131fc8282612e8f565b915050604083015184820360408601526132168282612e8f565b915050606083015184820360608601526132308282612e8f565b9150506080830151848203608086015261324a8282612e8f565b9150508091505092915050565b600061326383836131cc565b905092915050565b6000602082019050919050565b6000613283826131a0565b61328d81856131ab565b93508360208202850161329f856131bc565b8060005b858110156132db57848403895281516132bc8582613257565b94506132c78361326b565b925060208a019950506001810190506132a3565b50829750879550505050505092915050565b600060208201905081810360008301526133078184613278565b905092915050565b600060a0820190506133246000830188612fa2565b81810360208301526133368187612a7b565b9050818103604083015261334a8186612a7b565b9050818103606083015261335e8185612a7b565b905081810360808301526133728184612a7b565b90509695505050505050565b600067ffffffffffffffff82111561339957613398612c0b565b5b6133a282612a6a565b9050602081019050919050565b60006133c26133bd8461337e565b612c6b565b9050828152602081018484840111156133de576133dd612c06565b5b6133e9848285612cb7565b509392505050565b600082601f83011261340657613405612c01565b5b81356134168482602086016133af565b91505092915050565b600080600080608085870312156134395761343861295f565b5b600061344787828801612bac565b945050602061345887828801612bac565b935050604061346987828801612af7565b925050606085013567ffffffffffffffff81111561348a57613489612964565b5b613496878288016133f1565b91505092959194509250565b600080604083850312156134b9576134b861295f565b5b60006134c785828601612bac565b92505060206134d885828601612bac565b9150509250929050565b7f4e487b7100000000000000000000000000000000000000000000000000000000600052602260045260246000fd5b6000600282049050600182168061352957607f821691505b60208210810361353c5761353b6134e2565b5b50919050565b7f4552433732313a20617070726f76616c20746f2063757272656e74206f776e6560008201527f7200000000000000000000000000000000000000000000000000000000000000602082015250565b600061359e602183612a2f565b91506135a982613542565b604082019050919050565b600060208201905081810360008301526135cd81613591565b9050919050565b7f4552433732313a20617070726f76652063616c6c6572206973206e6f7420746f60008201527f6b656e206f776e6572206f7220617070726f76656420666f7220616c6c000000602082015250565b6000613630603d83612a2f565b915061363b826135d4565b604082019050919050565b6000602082019050818103600083015261365f81613623565b9050919050565b60008190508160005260206000209050919050565b60006020601f8301049050919050565b600082821b905092915050565b6000600883026136c87fffffffffffffffffffffffffffffffffffffffffffffffffffffffffffffffff8261368b565b6136d2868361368b565b95508019841693508086168417925050509392505050565b6000819050919050565b600061370f61370a61370584612ad6565b6136ea565b612ad6565b9050919050565b6000819050919050565b613729836136f4565b61373d61373582613716565b848454613698565b825550505050565b600090565b613752613745565b61375d818484613720565b505050565b5b818110156137815761377660008261374a565b600181019050613763565b5050565b601f8211156137c65761379781613666565b6137a08461367b565b810160208510156137af578190505b6137c36137bb8561367b565b830182613762565b50505b505050565b600082821c905092915050565b60006137e9600019846008026137cb565b1980831691505092915050565b600061380283836137d8565b9150826002028217905092915050565b61381b82612a24565b67ffffffffffffffff81111561383457613833612c0b565b5b61383e8254613511565b613849828285613785565b600060209050601f83116001811461387c576000841561386a578287015190505b61387485826137f6565b8655506138dc565b601f19841661388a86613666565b60005b828110156138b25784890151825560018201915060208501945060208101905061388d565b868310156138cf57848901516138cb601f8916826137d8565b8355505b6001600288020188555050505b505050505050565b7f4552433732313a2063616c6c6572206973206e6f7420746f6b656e206f776e6560008201527f72206f7220617070726f76656400000000000000000000000000000000000000602082015250565b6000613940602d83612a2f565b915061394b826138e4565b604082019050919050565b6000602082019050818103600083015261396f81613933565b9050919050565b7f4e487b7100000000000000000000000000000000000000000000000000000000600052603260045260246000fd5b7f4e487b7100000000000000000000000000000000000000000000000000000000600052601160045260246000fd5b60006139df82612ad6565b91507fffffffffffffffffffffffffffffffffffffffffffffffffffffffffffffffff8203613a1157613a106139a5565b5b600182019050919050565b7f4552433732313a20696e76616c696420746f6b656e2049440000000000000000600082015250565b6000613a52601883612a2f565b9150613a5d82613a1c565b602082019050919050565b60006020820190508181036000830152613a8181613a45565b9050919050565b7f4552433732313a2061646472657373207a65726f206973206e6f74206120766160008201527f6c6964206f776e65720000000000000000000000000000000000000000000000602082015250565b6000613ae4602983612a2f565b9150613aef82613a88565b604082019050919050565b60006020820190508181036000830152613b1381613ad7565b9050919050565b6000613b2582612ad6565b9150613b3083612ad6565b9250828201905080821115613b4857613b476139a5565b5b92915050565b600081905092915050565b6000613b6482612a24565b613b6e8185613b4e565b9350613b7e818560208601612a40565b80840191505092915050565b6000613b968285613b59565b9150613ba28284613b59565b91508190509392505050565b7f4552433732313a207472616e736665722066726f6d20696e636f72726563742060008201527f6f776e6572000000000000000000000000000000000000000000000000000000602082015250565b6000613c0a602583612a2f565b9150613c1582613bae565b604082019050919050565b60006020820190508181036000830152613c3981613bfd565b9050919050565b7f4552433732313a207472616e7366657220746f20746865207a65726f2061646460008201527f7265737300000000000000000000000000000000000000000000000000000000602082015250565b6000613c9c602483612a2f565b9150613ca782613c40565b604082019050919050565b60006020820190508181036000830152613ccb81613c8f565b9050919050565b7f4552433732313a20617070726f766520746f2063616c6c657200000000000000600082015250565b6000613d08601983612a2f565b9150613d1382613cd2565b602082019050919050565b60006020820190508181036000830152613d3781613cfb565b9050919050565b7f4552433732313a206d696e7420746f20746865207a65726f2061646472657373600082015250565b6000613d74602083612a2f565b9150613d7f82613d3e565b602082019050919050565b60006020820190508181036000830152613da381613d67565b9050919050565b7f4552433732313a20746f6b656e20616c7265616479206d696e74656400000000600082015250565b6000613de0601c83612a2f565b9150613deb82613daa565b602082019050919050565b60006020820190508181036000830152613e0f81613dd3565b9050919050565b7f45524337323155524953746f726167653a2055524920736574206f66206e6f6e60008201527f6578697374656e7420746f6b656e000000000000000000000000000000000000602082015250565b6000613e72602e83612a2f565b9150613e7d82613e16565b604082019050919050565b60006020820190508181036000830152613ea181613e65565b9050919050565b7f4552433732313a207472616e7366657220746f206e6f6e20455243373231526560008201527f63656976657220696d706c656d656e7465720000000000000000000000000000602082015250565b6000613f04603283612a2f565b9150613f0f82613ea8565b604082019050919050565b60006020820190508181036000830152613f3381613ef7565b9050919050565b600081519050919050565b600082825260208201905092915050565b6000613f6182613f3a565b613f6b8185613f45565b9350613f7b818560208601612a40565b613f8481612a6a565b840191505092915050565b6000608082019050613fa46000830187612b6b565b613fb16020830186612b6b565b613fbe6040830185612fa2565b8181036060830152613fd08184613f56565b905095945050505050565b600081519050613fea81612995565b92915050565b6000602082840312156140065761400561295f565b5b600061401484828501613fdb565b91505092915050565b7f4e487b7100000000000000000000000000000000000000000000000000000000600052601260045260246000fdfea2646970667358221220977e161cfacaf17f2adabdbf15e3084f486aac95a9f3e7166eff25de39e60e8064736f6c63430008110033",
  "devdoc": {
    "kind": "dev",
    "methods": {
      "approve(address,uint256)": {
        "details": "See {IERC721-approve}."
      },
      "balanceOf(address)": {
        "details": "See {IERC721-balanceOf}."
      },
      "getApproved(uint256)": {
        "details": "See {IERC721-getApproved}."
      },
      "isApprovedForAll(address,address)": {
        "details": "See {IERC721-isApprovedForAll}."
      },
      "name()": {
        "details": "See {IERC721Metadata-name}."
      },
      "ownerOf(uint256)": {
        "details": "See {IERC721-ownerOf}."
      },
      "safeTransferFrom(address,address,uint256)": {
        "details": "See {IERC721-safeTransferFrom}."
      },
      "safeTransferFrom(address,address,uint256,bytes)": {
        "details": "See {IERC721-safeTransferFrom}."
      },
      "setApprovalForAll(address,bool)": {
        "details": "See {IERC721-setApprovalForAll}."
      },
      "supportsInterface(bytes4)": {
        "details": "See {IERC165-supportsInterface}."
      },
      "symbol()": {
        "details": "See {IERC721Metadata-symbol}."
      },
      "tokenURI(uint256)": {
        "details": "See {IERC721Metadata-tokenURI}."
      },
      "transferFrom(address,address,uint256)": {
        "details": "See {IERC721-transferFrom}."
      }
    },
    "version": 1
  },
  "userdoc": {
    "kind": "user",
    "methods": {},
    "version": 1
  },
  "storageLayout": {
    "storage": [
      {
        "astId": 79,
        "contract": "contracts/STCDao.sol:STCDao",
        "label": "_name",
        "offset": 0,
        "slot": "0",
        "type": "t_string_storage"
      },
      {
        "astId": 81,
        "contract": "contracts/STCDao.sol:STCDao",
        "label": "_symbol",
        "offset": 0,
        "slot": "1",
        "type": "t_string_storage"
      },
      {
        "astId": 85,
        "contract": "contracts/STCDao.sol:STCDao",
        "label": "_owners",
        "offset": 0,
        "slot": "2",
        "type": "t_mapping(t_uint256,t_address)"
      },
      {
        "astId": 89,
        "contract": "contracts/STCDao.sol:STCDao",
        "label": "_balances",
        "offset": 0,
        "slot": "3",
        "type": "t_mapping(t_address,t_uint256)"
      },
      {
        "astId": 93,
        "contract": "contracts/STCDao.sol:STCDao",
        "label": "_tokenApprovals",
        "offset": 0,
        "slot": "4",
        "type": "t_mapping(t_uint256,t_address)"
      },
      {
        "astId": 99,
        "contract": "contracts/STCDao.sol:STCDao",
        "label": "_operatorApprovals",
        "offset": 0,
        "slot": "5",
        "type": "t_mapping(t_address,t_mapping(t_address,t_bool))"
      },
      {
        "astId": 1127,
        "contract": "contracts/STCDao.sol:STCDao",
        "label": "_tokenURIs",
        "offset": 0,
        "slot": "6",
        "type": "t_mapping(t_uint256,t_string_storage)"
      },
      {
        "astId": 2784,
        "contract": "contracts/STCDao.sol:STCDao",
        "label": "_daoIdCounter",
        "offset": 0,
        "slot": "7",
        "type": "t_struct(Counter)1624_storage"
      },
      {
        "astId": 2787,
        "contract": "contracts/STCDao.sol:STCDao",
        "label": "_tokenIdCounter",
        "offset": 0,
        "slot": "8",
        "type": "t_struct(Counter)1624_storage"
      },
      {
        "astId": 2813,
        "contract": "contracts/STCDao.sol:STCDao",
        "label": "daoArr",
        "offset": 0,
        "slot": "9",
        "type": "t_array(t_struct(Dao)2809_storage)dyn_storage"
      },
      {
        "astId": 2818,
        "contract": "contracts/STCDao.sol:STCDao",
        "label": "idToDao",
        "offset": 0,
        "slot": "10",
        "type": "t_mapping(t_uint256,t_struct(Dao)2809_storage)"
      },
      {
        "astId": 2823,
        "contract": "contracts/STCDao.sol:STCDao",
        "label": "idToUserSoul",
        "offset": 0,
        "slot": "11",
        "type": "t_mapping(t_uint256,t_struct(Soul)2798_storage)"
      },
      {
        "astId": 2828,
        "contract": "contracts/STCDao.sol:STCDao",
        "label": "userSoulIds",
        "offset": 0,
        "slot": "12",
        "type": "t_mapping(t_address,t_array(t_uint256)dyn_storage)"
      },
      {
        "astId": 2832,
        "contract": "contracts/STCDao.sol:STCDao",
        "label": "userSoulCount",
        "offset": 0,
        "slot": "13",
        "type": "t_mapping(t_address,t_uint256)"
      }
    ],
    "types": {
      "t_address": {
        "encoding": "inplace",
        "label": "address",
        "numberOfBytes": "20"
      },
      "t_array(t_struct(Dao)2809_storage)dyn_storage": {
        "base": "t_struct(Dao)2809_storage",
        "encoding": "dynamic_array",
        "label": "struct STCDao.Dao[]",
        "numberOfBytes": "32"
      },
      "t_array(t_uint256)dyn_storage": {
        "base": "t_uint256",
        "encoding": "dynamic_array",
        "label": "uint256[]",
        "numberOfBytes": "32"
      },
      "t_bool": {
        "encoding": "inplace",
        "label": "bool",
        "numberOfBytes": "1"
      },
      "t_mapping(t_address,t_array(t_uint256)dyn_storage)": {
        "encoding": "mapping",
        "key": "t_address",
        "label": "mapping(address => uint256[])",
        "numberOfBytes": "32",
        "value": "t_array(t_uint256)dyn_storage"
      },
      "t_mapping(t_address,t_bool)": {
        "encoding": "mapping",
        "key": "t_address",
        "label": "mapping(address => bool)",
        "numberOfBytes": "32",
        "value": "t_bool"
      },
      "t_mapping(t_address,t_mapping(t_address,t_bool))": {
        "encoding": "mapping",
        "key": "t_address",
        "label": "mapping(address => mapping(address => bool))",
        "numberOfBytes": "32",
        "value": "t_mapping(t_address,t_bool)"
      },
      "t_mapping(t_address,t_uint256)": {
        "encoding": "mapping",
        "key": "t_address",
        "label": "mapping(address => uint256)",
        "numberOfBytes": "32",
        "value": "t_uint256"
      },
      "t_mapping(t_uint256,t_address)": {
        "encoding": "mapping",
        "key": "t_uint256",
        "label": "mapping(uint256 => address)",
        "numberOfBytes": "32",
        "value": "t_address"
      },
      "t_mapping(t_uint256,t_string_storage)": {
        "encoding": "mapping",
        "key": "t_uint256",
        "label": "mapping(uint256 => string)",
        "numberOfBytes": "32",
        "value": "t_string_storage"
      },
      "t_mapping(t_uint256,t_struct(Dao)2809_storage)": {
        "encoding": "mapping",
        "key": "t_uint256",
        "label": "mapping(uint256 => struct STCDao.Dao)",
        "numberOfBytes": "32",
        "value": "t_struct(Dao)2809_storage"
      },
      "t_mapping(t_uint256,t_struct(Soul)2798_storage)": {
        "encoding": "mapping",
        "key": "t_uint256",
        "label": "mapping(uint256 => struct STCDao.Soul)",
        "numberOfBytes": "32",
        "value": "t_struct(Soul)2798_storage"
      },
      "t_string_storage": {
        "encoding": "bytes",
        "label": "string",
        "numberOfBytes": "32"
      },
      "t_struct(Counter)1624_storage": {
        "encoding": "inplace",
        "label": "struct Counters.Counter",
        "members": [
          {
            "astId": 1623,
            "contract": "contracts/STCDao.sol:STCDao",
            "label": "_value",
            "offset": 0,
            "slot": "0",
            "type": "t_uint256"
          }
        ],
        "numberOfBytes": "32"
      },
      "t_struct(Dao)2809_storage": {
        "encoding": "inplace",
        "label": "struct STCDao.Dao",
        "members": [
          {
            "astId": 2800,
            "contract": "contracts/STCDao.sol:STCDao",
            "label": "daoId",
            "offset": 0,
            "slot": "0",
            "type": "t_uint256"
          },
          {
            "astId": 2802,
            "contract": "contracts/STCDao.sol:STCDao",
            "label": "name",
            "offset": 0,
            "slot": "1",
            "type": "t_string_storage"
          },
          {
            "astId": 2804,
            "contract": "contracts/STCDao.sol:STCDao",
            "label": "description",
            "offset": 0,
            "slot": "2",
            "type": "t_string_storage"
          },
          {
            "astId": 2806,
            "contract": "contracts/STCDao.sol:STCDao",
            "label": "jsoninfo",
            "offset": 0,
            "slot": "3",
            "type": "t_string_storage"
          },
          {
            "astId": 2808,
            "contract": "contracts/STCDao.sol:STCDao",
            "label": "image",
            "offset": 0,
            "slot": "4",
            "type": "t_string_storage"
          }
        ],
        "numberOfBytes": "160"
      },
      "t_struct(Soul)2798_storage": {
        "encoding": "inplace",
        "label": "struct STCDao.Soul",
        "members": [
          {
            "astId": 2789,
            "contract": "contracts/STCDao.sol:STCDao",
            "label": "tokenId",
            "offset": 0,
            "slot": "0",
            "type": "t_uint256"
          },
          {
            "astId": 2791,
            "contract": "contracts/STCDao.sol:STCDao",
            "label": "daoId",
            "offset": 0,
            "slot": "1",
            "type": "t_uint256"
          },
          {
            "astId": 2793,
            "contract": "contracts/STCDao.sol:STCDao",
            "label": "user",
            "offset": 0,
            "slot": "2",
            "type": "t_address"
          },
          {
            "astId": 2795,
            "contract": "contracts/STCDao.sol:STCDao",
            "label": "metadata",
            "offset": 0,
            "slot": "3",
            "type": "t_string_storage"
          },
          {
            "astId": 2797,
            "contract": "contracts/STCDao.sol:STCDao",
            "label": "image",
            "offset": 0,
            "slot": "4",
            "type": "t_string_storage"
          }
        ],
        "numberOfBytes": "160"
      },
      "t_uint256": {
        "encoding": "inplace",
        "label": "uint256",
        "numberOfBytes": "32"
      }
    }
  }
}