{"contracts/oracle/Pod.sol":{"ContainerPod":{"abi":[{"inputs":[{"internalType":"address","name":"_link_token_address","type":"address"}],"stateMutability":"nonpayable","type":"constructor"},{"anonymous":false,"inputs":[{"indexed":true,"internalType":"bytes32","name":"id","type":"bytes32"}],"name":"ChainlinkCancelled","type":"event"},{"anonymous":false,"inputs":[{"indexed":true,"internalType":"bytes32","name":"id","type":"bytes32"}],"name":"ChainlinkFulfilled","type":"event"},{"anonymous":false,"inputs":[{"indexed":true,"internalType":"bytes32","name":"id","type":"bytes32"}],"name":"ChainlinkRequested","type":"event"},{"anonymous":false,"inputs":[{"indexed":true,"internalType":"address","name":"from","type":"address"},{"indexed":true,"internalType":"address","name":"to","type":"address"}],"name":"OwnershipTransferRequested","type":"event"},{"anonymous":false,"inputs":[{"indexed":true,"internalType":"address","name":"from","type":"address"},{"indexed":true,"internalType":"address","name":"to","type":"address"}],"name":"OwnershipTransferred","type":"event"},{"anonymous":false,"inputs":[{"indexed":true,"internalType":"bytes32","name":"requestId","type":"bytes32"},{"indexed":false,"internalType":"string","name":"deployStatus","type":"string"}],"name":"RequestContainerPodFulfilled","type":"event"},{"anonymous":false,"inputs":[{"indexed":true,"internalType":"bytes32","name":"requestId","type":"bytes32"},{"indexed":false,"internalType":"string","name":"deleteStatus","type":"string"}],"name":"RequestDeletePodFulfilled","type":"event"},{"inputs":[],"name":"acceptOwnership","outputs":[],"stateMutability":"nonpayable","type":"function"},{"inputs":[{"internalType":"address","name":"_addr","type":"address"}],"name":"addressToString","outputs":[{"internalType":"string","name":"","type":"string"}],"stateMutability":"pure","type":"function"},{"inputs":[{"internalType":"bytes32","name":"_requestId","type":"bytes32"},{"internalType":"uint256","name":"_payment","type":"uint256"},{"internalType":"bytes4","name":"_callbackFunctionId","type":"bytes4"},{"internalType":"uint256","name":"_expiration","type":"uint256"}],"name":"cancelRequest","outputs":[],"stateMutability":"nonpayable","type":"function"},{"inputs":[],"name":"currentDeleteStatus","outputs":[{"internalType":"string","name":"","type":"string"}],"stateMutability":"view","type":"function"},{"inputs":[],"name":"currentPodStatus","outputs":[{"internalType":"string","name":"","type":"string"}],"stateMutability":"view","type":"function"},{"inputs":[{"internalType":"bytes32","name":"_requestId","type":"bytes32"},{"internalType":"string","name":"_pod_status","type":"string"}],"name":"fulfillDeleteStatus","outputs":[],"stateMutability":"nonpayable","type":"function"},{"inputs":[{"internalType":"bytes32","name":"_requestId","type":"bytes32"},{"internalType":"string","name":"_pod_status","type":"string"}],"name":"fulfillDeployStatus","outputs":[],"stateMutability":"nonpayable","type":"function"},{"inputs":[],"name":"getChainlinkToken","outputs":[{"internalType":"address","name":"","type":"address"}],"stateMutability":"view","type":"function"},{"inputs":[],"name":"owner","outputs":[{"internalType":"address","name":"","type":"address"}],"stateMutability":"view","type":"function"},{"inputs":[{"internalType":"address","name":"_oracle","type":"address"},{"internalType":"string","name":"_jobId","type":"string"},{"internalType":"string","name":"_pod_code","type":"string"},{"internalType":"string","name":"_request_url","type":"string"},{"internalType":"string","name":"_userId","type":"string"}],"name":"requestContainerPod","outputs":[],"stateMutability":"nonpayable","type":"function"},{"inputs":[{"internalType":"address","name":"_oracle","type":"address"},{"internalType":"string","name":"_jobId","type":"string"},{"internalType":"string","name":"_request_url","type":"string"}],"name":"requestDeletePod","outputs":[],"stateMutability":"nonpayable","type":"function"},{"inputs":[{"internalType":"address","name":"to","type":"address"}],"name":"transferOwnership","outputs":[],"stateMutability":"nonpayable","type":"function"},{"inputs":[],"name":"withdrawLink","outputs":[],"stateMutability":"nonpayable","type":"function"}],"evm":{"bytecode":{"linkReferences":{},"object":"608060405260016004553480156200001657600080fd5b50604051620027ca380380620027ca833981810160405260208110156200003c57600080fd5b8101908080519060200190929190505050338060008073ffffffffffffffffffffffffffffffffffffffff168273ffffffffffffffffffffffffffffffffffffffff161415620000f4576040517f08c379a00000000000000000000000000000000000000000000000000000000081526004018080602001828103825260188152602001807f43616e6e6f7420736574206f776e657220746f207a65726f000000000000000081525060200191505060405180910390fd5b81600660006101000a81548173ffffffffffffffffffffffffffffffffffffffff021916908373ffffffffffffffffffffffffffffffffffffffff160217905550600073ffffffffffffffffffffffffffffffffffffffff168173ffffffffffffffffffffffffffffffffffffffff16146200017c576200017b816200019760201b60201c565b5b5050506200019081620002fa60201b60201c565b506200033e565b3373ffffffffffffffffffffffffffffffffffffffff168173ffffffffffffffffffffffffffffffffffffffff1614156200023a576040517f08c379a00000000000000000000000000000000000000000000000000000000081526004018080602001828103825260178152602001807f43616e6e6f74207472616e7366657220746f2073656c6600000000000000000081525060200191505060405180910390fd5b80600760006101000a81548173ffffffffffffffffffffffffffffffffffffffff021916908373ffffffffffffffffffffffffffffffffffffffff1602179055508073ffffffffffffffffffffffffffffffffffffffff16600660009054906101000a900473ffffffffffffffffffffffffffffffffffffffff1673ffffffffffffffffffffffffffffffffffffffff167fed8889f560326eb138920d842192f0eb3dd22b4f139c87a2c57538e05bae127860405160405180910390a350565b80600260006101000a81548173ffffffffffffffffffffffffffffffffffffffff021916908373ffffffffffffffffffffffffffffffffffffffff16021790555050565b61247c806200034e6000396000f3fe608060405234801561001057600080fd5b50600436106100cf5760003560e01c80638dc654a21161008c578063e346373b11610066578063e346373b14610725578063ec65d0f8146107a8578063f2fde38b14610813578063fa774c6214610857576100cf565b80638dc654a214610309578063a8298b2e14610313578063d273ed8d146105b3576100cf565b8063165d35e1146100d45780635e57966d1461010857806379ba5097146101c557806383556921146101cf5780638b5c11e4146102525780638da5cb5b146102d5575b600080fd5b6100dc6108da565b604051808273ffffffffffffffffffffffffffffffffffffffff16815260200191505060405180910390f35b61014a6004803603602081101561011e57600080fd5b81019080803573ffffffffffffffffffffffffffffffffffffffff1690602001909291905050506108e9565b6040518080602001828103825283818151815260200191508051906020019080838360005b8381101561018a57808201518184015260208101905061016f565b50505050905090810190601f1680156101b75780820380516001836020036101000a031916815260200191505b509250505060405180910390f35b6101cd610b7e565b005b6101d7610d48565b6040518080602001828103825283818151815260200191508051906020019080838360005b838110156102175780820151818401526020810190506101fc565b50505050905090810190601f1680156102445780820380516001836020036101000a031916815260200191505b509250505060405180910390f35b6102d36004803603604081101561026857600080fd5b81019080803590602001909291908035906020019064010000000081111561028f57600080fd5b8201836020820111156102a157600080fd5b803590602001918460018302840111640100000000831117156102c357600080fd5b9091929391929390505050610de6565b005b6102dd610f7d565b604051808273ffffffffffffffffffffffffffffffffffffffff16815260200191505060405180910390f35b610311610fa7565b005b6105b1600480360360a081101561032957600080fd5b81019080803573ffffffffffffffffffffffffffffffffffffffff1690602001909291908035906020019064010000000081111561036657600080fd5b82018360208201111561037857600080fd5b8035906020019184600183028401116401000000008311171561039a57600080fd5b91908080601f016020809104026020016040519081016040528093929190818152602001838380828437600081840152601f19601f820116905080830192505050505050509192919290803590602001906401000000008111156103fd57600080fd5b82018360208201111561040f57600080fd5b8035906020019184600183028401116401000000008311171561043157600080fd5b91908080601f016020809104026020016040519081016040528093929190818152602001838380828437600081840152601f19601f8201169050808301925050505050505091929192908035906020019064010000000081111561049457600080fd5b8201836020820111156104a657600080fd5b803590602001918460018302840111640100000000831117156104c857600080fd5b91908080601f016020809104026020016040519081016040528093929190818152602001838380828437600081840152601f19601f8201169050808301925050505050505091929192908035906020019064010000000081111561052b57600080fd5b82018360208201111561053d57600080fd5b8035906020019184600183028401116401000000008311171561055f57600080fd5b91908080601f016020809104026020016040519081016040528093929190818152602001838380828437600081840152601f19601f82011690508083019250505050505050919291929050505061117d565b005b610723600480360360608110156105c957600080fd5b81019080803573ffffffffffffffffffffffffffffffffffffffff1690602001909291908035906020019064010000000081111561060657600080fd5b82018360208201111561061857600080fd5b8035906020019184600183028401116401000000008311171561063a57600080fd5b91908080601f016020809104026020016040519081016040528093929190818152602001838380828437600081840152601f19601f8201169050808301925050505050505091929192908035906020019064010000000081111561069d57600080fd5b8201836020820111156106af57600080fd5b803590602001918460018302840111640100000000831117156106d157600080fd5b91908080601f016020809104026020016040519081016040528093929190818152602001838380828437600081840152601f19601f8201169050808301925050505050505091929192905050506112fa565b005b6107a66004803603604081101561073b57600080fd5b81019080803590602001909291908035906020019064010000000081111561076257600080fd5b82018360208201111561077457600080fd5b8035906020019184600183028401116401000000008311171561079657600080fd5b9091929391929390505050611389565b005b610811600480360360808110156107be57600080fd5b81019080803590602001909291908035906020019092919080357bffffffffffffffffffffffffffffffffffffffffffffffffffffffff1916906020019092919080359060200190929190505050611520565b005b6108556004803603602081101561082957600080fd5b81019080803573ffffffffffffffffffffffffffffffffffffffff16906020019092919050505061153a565b005b61085f61154e565b6040518080602001828103825283818151815260200191508051906020019080838360005b8381101561089f578082015181840152602081019050610884565b50505050905090810190601f1680156108cc5780820380516001836020036101000a031916815260200191505b509250505060405180910390f35b60006108e46115ec565b905090565b606060008273ffffffffffffffffffffffffffffffffffffffff1660001b905060006040518060400160405280601081526020017f303132333435363738396162636465660000000000000000000000000000000081525090506000602a67ffffffffffffffff8111801561095d57600080fd5b506040519080825280601f01601f1916602001820160405280156109905781602001600182028036833780820191505090505b5090507f3000000000000000000000000000000000000000000000000000000000000000816000815181106109c157fe5b60200101907effffffffffffffffffffffffffffffffffffffffffffffffffffffffffffff1916908160001a9053507f780000000000000000000000000000000000000000000000000000000000000081600181518110610a1e57fe5b60200101907effffffffffffffffffffffffffffffffffffffffffffffffffffffffffffff1916908160001a90535060005b6014811015610b725782600485600c840160208110610a6b57fe5b1a60f81b7effffffffffffffffffffffffffffffffffffffffffffffffffffffffffffff1916901c60f81c60ff1681518110610aa357fe5b602001015160f81c60f81b826002830260020181518110610ac057fe5b60200101907effffffffffffffffffffffffffffffffffffffffffffffffffffffffffffff1916908160001a90535082600f60f81b85600c840160208110610b0457fe5b1a60f81b1660f81c60ff1681518110610b1957fe5b602001015160f81c60f81b826002830260030181518110610b3657fe5b60200101907effffffffffffffffffffffffffffffffffffffffffffffffffffffffffffff1916908160001a9053508080600101915050610a50565b50809350505050919050565b600760009054906101000a900473ffffffffffffffffffffffffffffffffffffffff1673ffffffffffffffffffffffffffffffffffffffff163373ffffffffffffffffffffffffffffffffffffffff1614610c41576040517f08c379a00000000000000000000000000000000000000000000000000000000081526004018080602001828103825260168152602001807f4d7573742062652070726f706f736564206f776e65720000000000000000000081525060200191505060405180910390fd5b6000600660009054906101000a900473ffffffffffffffffffffffffffffffffffffffff16905033600660006101000a81548173ffffffffffffffffffffffffffffffffffffffff021916908373ffffffffffffffffffffffffffffffffffffffff1602179055506000600760006101000a81548173ffffffffffffffffffffffffffffffffffffffff021916908373ffffffffffffffffffffffffffffffffffffffff1602179055503373ffffffffffffffffffffffffffffffffffffffff168173ffffffffffffffffffffffffffffffffffffffff167f8be0079c531659141344cd1fd0a4f28419497f9722a3daafe3b4186f6b6457e060405160405180910390a350565b60088054600181600116156101000203166002900480601f016020809104026020016040519081016040528092919081815260200182805460018160011615610100020316600290048015610dde5780601f10610db357610100808354040283529160200191610dde565b820191906000526020600020905b815481529060010190602001808311610dc157829003601f168201915b505050505081565b826005600082815260200190815260200160002060009054906101000a900473ffffffffffffffffffffffffffffffffffffffff1673ffffffffffffffffffffffffffffffffffffffff163373ffffffffffffffffffffffffffffffffffffffff1614610e9e576040517f08c379a000000000000000000000000000000000000000000000000000000000815260040180806020018281038252602881526020018061241f6028913960400191505060405180910390fd5b6005600082815260200190815260200160002060006101000a81549073ffffffffffffffffffffffffffffffffffffffff0219169055807f7cc135e0cebb02c3480ae5d74d377283180a2601f8f644edf7987b009316c63a60405160405180910390a2837f6a9d81895172c2d9b744594adce9e7b40217f381d3e6d792a68f03850f9d9f25848460405180806020018281038252848482818152602001925080828437600081840152601f19601f820116905080830192505050935050505060405180910390a2828260089190610f769291906122c9565b5050505050565b6000600660009054906101000a900473ffffffffffffffffffffffffffffffffffffffff16905090565b610faf611616565b6000610fb96115ec565b90508073ffffffffffffffffffffffffffffffffffffffff1663a9059cbb338373ffffffffffffffffffffffffffffffffffffffff166370a08231306040518263ffffffff1660e01b8152600401808273ffffffffffffffffffffffffffffffffffffffff16815260200191505060206040518083038186803b15801561103f57600080fd5b505afa158015611053573d6000803e3d6000fd5b505050506040513d602081101561106957600080fd5b81019080805190602001909291905050506040518363ffffffff1660e01b8152600401808373ffffffffffffffffffffffffffffffffffffffff16815260200182815260200192505050602060405180830381600087803b1580156110cd57600080fd5b505af11580156110e1573d6000803e3d6000fd5b505050506040513d60208110156110f757600080fd5b810190808051906020019092919050505061117a576040517f08c379a00000000000000000000000000000000000000000000000000000000081526004018080602001828103825260128152602001807f556e61626c6520746f207472616e73666572000000000000000000000000000081525060200191505060405180910390fd5b50565b600061119961118b866116db565b30638b5c11e460e01b611705565b90506111e56040518060400160405280600481526020017f706f73740000000000000000000000000000000000000000000000000000000081525084836117369092919063ffffffff16565b61122f6040518060400160405280600481526020017f79616d6c0000000000000000000000000000000000000000000000000000000081525085836117369092919063ffffffff16565b6112796040518060400160405280600681526020017f757365726964000000000000000000000000000000000000000000000000000081525083836117369092919063ffffffff16565b60003390506112d06040518060400160405280600681526020017f73656e64657200000000000000000000000000000000000000000000000000008152506112c0836108e9565b846117369092919063ffffffff16565b6112f08783600a670de0b6b3a7640000600102816112ea57fe5b04611769565b5050505050505050565b6000611316611308846116db565b3063e346373b60e01b611705565b90506113626040518060400160405280600681526020017f64656c657465000000000000000000000000000000000000000000000000000081525083836117369092919063ffffffff16565b6113828482600a670de0b6b3a76400006001028161137c57fe5b04611769565b5050505050565b826005600082815260200190815260200160002060009054906101000a900473ffffffffffffffffffffffffffffffffffffffff1673ffffffffffffffffffffffffffffffffffffffff163373ffffffffffffffffffffffffffffffffffffffff1614611441576040517f08c379a000000000000000000000000000000000000000000000000000000000815260040180806020018281038252602881526020018061241f6028913960400191505060405180910390fd5b6005600082815260200190815260200160002060006101000a81549073ffffffffffffffffffffffffffffffffffffffff0219169055807f7cc135e0cebb02c3480ae5d74d377283180a2601f8f644edf7987b009316c63a60405160405180910390a2837f95f67506d0b5adf5ca936a5944bbe2e22f39d1d5576a3449b42231e24d3d4f3f848460405180806020018281038252848482818152602001925080828437600081840152601f19601f820116905080830192505050935050505060405180910390a28282600991906115199291906122c9565b5050505050565b611528611616565b61153484848484611906565b50505050565b611542611616565b61154b81611a4a565b50565b60098054600181600116156101000203166002900480601f0160208091040260200160405190810160405280929190818152602001828054600181600116156101000203166002900480156115e45780601f106115b9576101008083540402835291602001916115e4565b820191906000526020600020905b8154815290600101906020018083116115c757829003601f168201915b505050505081565b6000600260009054906101000a900473ffffffffffffffffffffffffffffffffffffffff16905090565b600660009054906101000a900473ffffffffffffffffffffffffffffffffffffffff1673ffffffffffffffffffffffffffffffffffffffff163373ffffffffffffffffffffffffffffffffffffffff16146116d9576040517f08c379a00000000000000000000000000000000000000000000000000000000081526004018080602001828103825260168152602001807f4f6e6c792063616c6c61626c65206279206f776e65720000000000000000000081525060200191505060405180910390fd5b565b6000808290506000815114156116f7576000801b915050611700565b60208301519150505b919050565b61170d612357565b611715612357565b61172c85858584611bac909392919063ffffffff16565b9150509392505050565b61174d828460800151611c5c90919063ffffffff16565b611764818460800151611c5c90919063ffffffff16565b505050565b6000806004549050600181016004819055506000634042994660e01b60008087600001513089604001518760018c6080015160000151604051602401808973ffffffffffffffffffffffffffffffffffffffff1681526020018881526020018781526020018673ffffffffffffffffffffffffffffffffffffffff168152602001857bffffffffffffffffffffffffffffffffffffffffffffffffffffffff1916815260200184815260200183815260200180602001828103825283818151815260200191508051906020019080838360005b8381101561185757808201518184015260208101905061183c565b50505050905090810190601f1680156118845780820380516001836020036101000a031916815260200191505b509950505050505050505050604051602081830303815290604052907bffffffffffffffffffffffffffffffffffffffffffffffffffffffff19166020820180517bffffffffffffffffffffffffffffffffffffffffffffffffffffffff838183161783525050505090506118fb86838684611c81565b925050509392505050565b60006005600086815260200190815260200160002060009054906101000a900473ffffffffffffffffffffffffffffffffffffffff1690506005600086815260200190815260200160002060006101000a81549073ffffffffffffffffffffffffffffffffffffffff0219169055847fe1fe3afa0f7f761ff0a8b89086790efd5140d2907ebd5b7ff6bfcb5e075fd4c560405160405180910390a28073ffffffffffffffffffffffffffffffffffffffff16636ee4d553868686866040518563ffffffff1660e01b815260040180858152602001848152602001837bffffffffffffffffffffffffffffffffffffffffffffffffffffffff19168152602001828152602001945050505050600060405180830381600087803b158015611a2b57600080fd5b505af1158015611a3f573d6000803e3d6000fd5b505050505050505050565b3373ffffffffffffffffffffffffffffffffffffffff168173ffffffffffffffffffffffffffffffffffffffff161415611aec576040517f08c379a00000000000000000000000000000000000000000000000000000000081526004018080602001828103825260178152602001807f43616e6e6f74207472616e7366657220746f2073656c6600000000000000000081525060200191505060405180910390fd5b80600760006101000a81548173ffffffffffffffffffffffffffffffffffffffff021916908373ffffffffffffffffffffffffffffffffffffffff1602179055508073ffffffffffffffffffffffffffffffffffffffff16600660009054906101000a900473ffffffffffffffffffffffffffffffffffffffff1673ffffffffffffffffffffffffffffffffffffffff167fed8889f560326eb138920d842192f0eb3dd22b4f139c87a2c57538e05bae127860405160405180910390a350565b611bb4612357565b611bc48560800151610100611ee4565b508385600001818152505082856020019073ffffffffffffffffffffffffffffffffffffffff16908173ffffffffffffffffffffffffffffffffffffffff16815250508185604001907bffffffffffffffffffffffffffffffffffffffffffffffffffffffff191690817bffffffffffffffffffffffffffffffffffffffffffffffffffffffff191681525050849050949350505050565b611c698260038351611f38565b611c7c81836120bd90919063ffffffff16565b505050565b60003084604051602001808373ffffffffffffffffffffffffffffffffffffffff1660601b815260140182815260200192505050604051602081830303815290604052805190602001209050846005600083815260200190815260200160002060006101000a81548173ffffffffffffffffffffffffffffffffffffffff021916908373ffffffffffffffffffffffffffffffffffffffff160217905550807fb5e6e01e79f91267dc17b4e6314d5d4d03593d2ceee0fbb452b750bd70ea5af960405160405180910390a2600260009054906101000a900473ffffffffffffffffffffffffffffffffffffffff1673ffffffffffffffffffffffffffffffffffffffff16634000aea08685856040518463ffffffff1660e01b8152600401808473ffffffffffffffffffffffffffffffffffffffff16815260200183815260200180602001828103825283818151815260200191508051906020019080838360005b83811015611dfe578082015181840152602081019050611de3565b50505050905090810190601f168015611e2b5780820380516001836020036101000a031916815260200191505b50945050505050602060405180830381600087803b158015611e4c57600080fd5b505af1158015611e60573d6000803e3d6000fd5b505050506040513d6020811015611e7657600080fd5b8101908080519060200190929190505050611edc576040517f08c379a00000000000000000000000000000000000000000000000000000000081526004018080602001828103825260238152602001806123fc6023913960400191505060405180910390fd5b949350505050565b611eec6123c4565b600060208381611ef857fe5b0614611f115760208281611f0857fe5b06602003820191505b81836020018181525050604051808452600081528281016020016040525082905092915050565b60178167ffffffffffffffff1611611f6f57611f698160058460ff16901b60ff1617846120df90919063ffffffff16565b506120b8565b60ff8167ffffffffffffffff1611611fc557611f9e601860058460ff16901b17846120df90919063ffffffff16565b50611fbf8167ffffffffffffffff166001856120ff9092919063ffffffff16565b506120b7565b61ffff8167ffffffffffffffff161161201c57611ff5601960058460ff16901b17846120df90919063ffffffff16565b506120168167ffffffffffffffff166002856120ff9092919063ffffffff16565b506120b6565b63ffffffff8167ffffffffffffffff16116120755761204e601a60058460ff16901b17846120df90919063ffffffff16565b5061206f8167ffffffffffffffff166004856120ff9092919063ffffffff16565b506120b5565b612092601b60058460ff16901b17846120df90919063ffffffff16565b506120b38167ffffffffffffffff166008856120ff9092919063ffffffff16565b505b5b5b5b505050565b6120c56123c4565b6120d783846000015151848551612121565b905092915050565b6120e76123c4565b6120f783846000015151846121da565b905092915050565b6121076123c4565b612118848560000151518585612228565b90509392505050565b6121296123c4565b825182111561213757600080fd5b846020015182850111156121625761216185600261215b8860200151888701612289565b026122a5565b5b6000808651805187602083010193508088870111156121815787860182525b60208701925050505b602084106121ad578051825260208201915060208101905060208403935061218a565b60006001856020036101000a03905080198251168184511681811785525050879350505050949350505050565b6121e26123c4565b836020015183106121ff576121fe8460028660200151026122a5565b5b835180516020858301018481538186141561221b576001820183525b5050508390509392505050565b6122306123c4565b8460200151848301111561224e5761224d856002868501026122a5565b5b60006001836101000a039050855183868201018583198251161781528151858801111561227b5784870182525b505085915050949350505050565b60008183111561229b5782905061229f565b8190505b92915050565b6000826000015190506122b88383611ee4565b506122c383826120bd565b50505050565b828054600181600116156101000203166002900490600052602060002090601f0160209004810192826122ff5760008555612346565b82601f1061231857803560ff1916838001178555612346565b82800160010185558215612346579182015b8281111561234557823582559160200191906001019061232a565b5b50905061235391906123de565b5090565b6040518060a0016040528060008019168152602001600073ffffffffffffffffffffffffffffffffffffffff16815260200160007bffffffffffffffffffffffffffffffffffffffffffffffffffffffff19168152602001600081526020016123be6123c4565b81525090565b604051806040016040528060608152602001600081525090565b5b808211156123f75760008160009055506001016123df565b509056fe756e61626c6520746f207472616e73666572416e6443616c6c20746f206f7261636c65536f75726365206d75737420626520746865206f7261636c65206f66207468652072657175657374a2646970667358221220d47195687ca611278a2a0e911eb485c3c6b28fa58fb52ea177de11645986503e64736f6c63430007060033","opcodes":"PUSH1 0x80 PUSH1 0x40 MSTORE PUSH1 0x1 PUSH1 0x4 SSTORE CALLVALUE DUP1 ISZERO PUSH3 0x16 JUMPI PUSH1 0x0 DUP1 REVERT JUMPDEST POP PUSH1 0x40 MLOAD PUSH3 0x27CA CODESIZE SUB DUP1 PUSH3 0x27CA DUP4 CODECOPY DUP2 DUP2 ADD PUSH1 0x40 MSTORE PUSH1 0x20 DUP2 LT ISZERO PUSH3 0x3C JUMPI PUSH1 0x0 DUP1 REVERT JUMPDEST DUP2 ADD SWAP1 DUP1 DUP1 MLOAD SWAP1 PUSH1 0x20 ADD SWAP1 SWAP3 SWAP2 SWAP1 POP POP POP CALLER DUP1 PUSH1 0x0 DUP1 PUSH20 0xFFFFFFFFFFFFFFFFFFFFFFFFFFFFFFFFFFFFFFFF AND DUP3 PUSH20 0xFFFFFFFFFFFFFFFFFFFFFFFFFFFFFFFFFFFFFFFF AND EQ ISZERO PUSH3 0xF4 JUMPI PUSH1 0x40 MLOAD PUSH32 0x8C379A000000000000000000000000000000000000000000000000000000000 DUP2 MSTORE PUSH1 0x4 ADD DUP1 DUP1 PUSH1 0x20 ADD DUP3 DUP2 SUB DUP3 MSTORE PUSH1 0x18 DUP2 MSTORE PUSH1 0x20 ADD DUP1 PUSH32 0x43616E6E6F7420736574206F776E657220746F207A65726F0000000000000000 DUP2 MSTORE POP PUSH1 0x20 ADD SWAP2 POP POP PUSH1 0x40 MLOAD DUP1 SWAP2 SUB SWAP1 REVERT JUMPDEST DUP2 PUSH1 0x6 PUSH1 0x0 PUSH2 0x100 EXP DUP2 SLOAD DUP2 PUSH20 0xFFFFFFFFFFFFFFFFFFFFFFFFFFFFFFFFFFFFFFFF MUL NOT AND SWAP1 DUP4 PUSH20 0xFFFFFFFFFFFFFFFFFFFFFFFFFFFFFFFFFFFFFFFF AND MUL OR SWAP1 SSTORE POP PUSH1 0x0 PUSH20 0xFFFFFFFFFFFFFFFFFFFFFFFFFFFFFFFFFFFFFFFF AND DUP2 PUSH20 0xFFFFFFFFFFFFFFFFFFFFFFFFFFFFFFFFFFFFFFFF AND EQ PUSH3 0x17C JUMPI PUSH3 0x17B DUP2 PUSH3 0x197 PUSH1 0x20 SHL PUSH1 0x20 SHR JUMP JUMPDEST JUMPDEST POP POP POP PUSH3 0x190 DUP2 PUSH3 0x2FA PUSH1 0x20 SHL PUSH1 0x20 SHR JUMP JUMPDEST POP PUSH3 0x33E JUMP JUMPDEST CALLER PUSH20 0xFFFFFFFFFFFFFFFFFFFFFFFFFFFFFFFFFFFFFFFF AND DUP2 PUSH20 0xFFFFFFFFFFFFFFFFFFFFFFFFFFFFFFFFFFFFFFFF AND EQ ISZERO PUSH3 0x23A JUMPI PUSH1 0x40 MLOAD PUSH32 0x8C379A000000000000000000000000000000000000000000000000000000000 DUP2 MSTORE PUSH1 0x4 ADD DUP1 DUP1 PUSH1 0x20 ADD DUP3 DUP2 SUB DUP3 MSTORE PUSH1 0x17 DUP2 MSTORE PUSH1 0x20 ADD DUP1 PUSH32 0x43616E6E6F74207472616E7366657220746F2073656C66000000000000000000 DUP2 MSTORE POP PUSH1 0x20 ADD SWAP2 POP POP PUSH1 0x40 MLOAD DUP1 SWAP2 SUB SWAP1 REVERT JUMPDEST DUP1 PUSH1 0x7 PUSH1 0x0 PUSH2 0x100 EXP DUP2 SLOAD DUP2 PUSH20 0xFFFFFFFFFFFFFFFFFFFFFFFFFFFFFFFFFFFFFFFF MUL NOT AND SWAP1 DUP4 PUSH20 0xFFFFFFFFFFFFFFFFFFFFFFFFFFFFFFFFFFFFFFFF AND MUL OR SWAP1 SSTORE POP DUP1 PUSH20 0xFFFFFFFFFFFFFFFFFFFFFFFFFFFFFFFFFFFFFFFF AND PUSH1 0x6 PUSH1 0x0 SWAP1 SLOAD SWAP1 PUSH2 0x100 EXP SWAP1 DIV PUSH20 0xFFFFFFFFFFFFFFFFFFFFFFFFFFFFFFFFFFFFFFFF AND PUSH20 0xFFFFFFFFFFFFFFFFFFFFFFFFFFFFFFFFFFFFFFFF AND PUSH32 0xED8889F560326EB138920D842192F0EB3DD22B4F139C87A2C57538E05BAE1278 PUSH1 0x40 MLOAD PUSH1 0x40 MLOAD DUP1 SWAP2 SUB SWAP1 LOG3 POP JUMP JUMPDEST DUP1 PUSH1 0x2 PUSH1 0x0 PUSH2 0x100 EXP DUP2 SLOAD DUP2 PUSH20 0xFFFFFFFFFFFFFFFFFFFFFFFFFFFFFFFFFFFFFFFF MUL NOT AND SWAP1 DUP4 PUSH20 0xFFFFFFFFFFFFFFFFFFFFFFFFFFFFFFFFFFFFFFFF AND MUL OR SWAP1 SSTORE POP POP JUMP JUMPDEST PUSH2 0x247C DUP1 PUSH3 0x34E PUSH1 0x0 CODECOPY PUSH1 0x0 RETURN INVALID PUSH1 0x80 PUSH1 0x40 MSTORE CALLVALUE DUP1 ISZERO PUSH2 0x10 JUMPI PUSH1 0x0 DUP1 REVERT JUMPDEST POP PUSH1 0x4 CALLDATASIZE LT PUSH2 0xCF JUMPI PUSH1 0x0 CALLDATALOAD PUSH1 0xE0 SHR DUP1 PUSH4 0x8DC654A2 GT PUSH2 0x8C JUMPI DUP1 PUSH4 0xE346373B GT PUSH2 0x66 JUMPI DUP1 PUSH4 0xE346373B EQ PUSH2 0x725 JUMPI DUP1 PUSH4 0xEC65D0F8 EQ PUSH2 0x7A8 JUMPI DUP1 PUSH4 0xF2FDE38B EQ PUSH2 0x813 JUMPI DUP1 PUSH4 0xFA774C62 EQ PUSH2 0x857 JUMPI PUSH2 0xCF JUMP JUMPDEST DUP1 PUSH4 0x8DC654A2 EQ PUSH2 0x309 JUMPI DUP1 PUSH4 0xA8298B2E EQ PUSH2 0x313 JUMPI DUP1 PUSH4 0xD273ED8D EQ PUSH2 0x5B3 JUMPI PUSH2 0xCF JUMP JUMPDEST DUP1 PUSH4 0x165D35E1 EQ PUSH2 0xD4 JUMPI DUP1 PUSH4 0x5E57966D EQ PUSH2 0x108 JUMPI DUP1 PUSH4 0x79BA5097 EQ PUSH2 0x1C5 JUMPI DUP1 PUSH4 0x83556921 EQ PUSH2 0x1CF JUMPI DUP1 PUSH4 0x8B5C11E4 EQ PUSH2 0x252 JUMPI DUP1 PUSH4 0x8DA5CB5B EQ PUSH2 0x2D5 JUMPI JUMPDEST PUSH1 0x0 DUP1 REVERT JUMPDEST PUSH2 0xDC PUSH2 0x8DA JUMP JUMPDEST PUSH1 0x40 MLOAD DUP1 DUP3 PUSH20 0xFFFFFFFFFFFFFFFFFFFFFFFFFFFFFFFFFFFFFFFF AND DUP2 MSTORE PUSH1 0x20 ADD SWAP2 POP POP PUSH1 0x40 MLOAD DUP1 SWAP2 SUB SWAP1 RETURN JUMPDEST PUSH2 0x14A PUSH1 0x4 DUP1 CALLDATASIZE SUB PUSH1 0x20 DUP2 LT ISZERO PUSH2 0x11E JUMPI PUSH1 0x0 DUP1 REVERT JUMPDEST DUP2 ADD SWAP1 DUP1 DUP1 CALLDATALOAD PUSH20 0xFFFFFFFFFFFFFFFFFFFFFFFFFFFFFFFFFFFFFFFF AND SWAP1 PUSH1 0x20 ADD SWAP1 SWAP3 SWAP2 SWAP1 POP POP POP PUSH2 0x8E9 JUMP JUMPDEST PUSH1 0x40 MLOAD DUP1 DUP1 PUSH1 0x20 ADD DUP3 DUP2 SUB DUP3 MSTORE DUP4 DUP2 DUP2 MLOAD DUP2 MSTORE PUSH1 0x20 ADD SWAP2 POP DUP1 MLOAD SWAP1 PUSH1 0x20 ADD SWAP1 DUP1 DUP4 DUP4 PUSH1 0x0 JUMPDEST DUP4 DUP2 LT ISZERO PUSH2 0x18A JUMPI DUP1 DUP3 ADD MLOAD DUP2 DUP5 ADD MSTORE PUSH1 0x20 DUP2 ADD SWAP1 POP PUSH2 0x16F JUMP JUMPDEST POP POP POP POP SWAP1 POP SWAP1 DUP2 ADD SWAP1 PUSH1 0x1F AND DUP1 ISZERO PUSH2 0x1B7 JUMPI DUP1 DUP3 SUB DUP1 MLOAD PUSH1 0x1 DUP4 PUSH1 0x20 SUB PUSH2 0x100 EXP SUB NOT AND DUP2 MSTORE PUSH1 0x20 ADD SWAP2 POP JUMPDEST POP SWAP3 POP POP POP PUSH1 0x40 MLOAD DUP1 SWAP2 SUB SWAP1 RETURN JUMPDEST PUSH2 0x1CD PUSH2 0xB7E JUMP JUMPDEST STOP JUMPDEST PUSH2 0x1D7 PUSH2 0xD48 JUMP JUMPDEST PUSH1 0x40 MLOAD DUP1 DUP1 PUSH1 0x20 ADD DUP3 DUP2 SUB DUP3 MSTORE DUP4 DUP2 DUP2 MLOAD DUP2 MSTORE PUSH1 0x20 ADD SWAP2 POP DUP1 MLOAD SWAP1 PUSH1 0x20 ADD SWAP1 DUP1 DUP4 DUP4 PUSH1 0x0 JUMPDEST DUP4 DUP2 LT ISZERO PUSH2 0x217 JUMPI DUP1 DUP3 ADD MLOAD DUP2 DUP5 ADD MSTORE PUSH1 0x20 DUP2 ADD SWAP1 POP PUSH2 0x1FC JUMP JUMPDEST POP POP POP POP SWAP1 POP SWAP1 DUP2 ADD SWAP1 PUSH1 0x1F AND DUP1 ISZERO PUSH2 0x244 JUMPI DUP1 DUP3 SUB DUP1 MLOAD PUSH1 0x1 DUP4 PUSH1 0x20 SUB PUSH2 0x100 EXP SUB NOT AND DUP2 MSTORE PUSH1 0x20 ADD SWAP2 POP JUMPDEST POP SWAP3 POP POP POP PUSH1 0x40 MLOAD DUP1 SWAP2 SUB SWAP1 RETURN JUMPDEST PUSH2 0x2D3 PUSH1 0x4 DUP1 CALLDATASIZE SUB PUSH1 0x40 DUP2 LT ISZERO PUSH2 0x268 JUMPI PUSH1 0x0 DUP1 REVERT JUMPDEST DUP2 ADD SWAP1 DUP1 DUP1 CALLDATALOAD SWAP1 PUSH1 0x20 ADD SWAP1 SWAP3 SWAP2 SWAP1 DUP1 CALLDATALOAD SWAP1 PUSH1 0x20 ADD SWAP1 PUSH5 0x100000000 DUP2 GT ISZERO PUSH2 0x28F JUMPI PUSH1 0x0 DUP1 REVERT JUMPDEST DUP3 ADD DUP4 PUSH1 0x20 DUP3 ADD GT ISZERO PUSH2 0x2A1 JUMPI PUSH1 0x0 DUP1 REVERT JUMPDEST DUP1 CALLDATALOAD SWAP1 PUSH1 0x20 ADD SWAP2 DUP5 PUSH1 0x1 DUP4 MUL DUP5 ADD GT PUSH5 0x100000000 DUP4 GT OR ISZERO PUSH2 0x2C3 JUMPI PUSH1 0x0 DUP1 REVERT JUMPDEST SWAP1 SWAP2 SWAP3 SWAP4 SWAP2 SWAP3 SWAP4 SWAP1 POP POP POP PUSH2 0xDE6 JUMP JUMPDEST STOP JUMPDEST PUSH2 0x2DD PUSH2 0xF7D JUMP JUMPDEST PUSH1 0x40 MLOAD DUP1 DUP3 PUSH20 0xFFFFFFFFFFFFFFFFFFFFFFFFFFFFFFFFFFFFFFFF AND DUP2 MSTORE PUSH1 0x20 ADD SWAP2 POP POP PUSH1 0x40 MLOAD DUP1 SWAP2 SUB SWAP1 RETURN JUMPDEST PUSH2 0x311 PUSH2 0xFA7 JUMP JUMPDEST STOP JUMPDEST PUSH2 0x5B1 PUSH1 0x4 DUP1 CALLDATASIZE SUB PUSH1 0xA0 DUP2 LT ISZERO PUSH2 0x329 JUMPI PUSH1 0x0 DUP1 REVERT JUMPDEST DUP2 ADD SWAP1 DUP1 DUP1 CALLDATALOAD PUSH20 0xFFFFFFFFFFFFFFFFFFFFFFFFFFFFFFFFFFFFFFFF AND SWAP1 PUSH1 0x20 ADD SWAP1 SWAP3 SWAP2 SWAP1 DUP1 CALLDATALOAD SWAP1 PUSH1 0x20 ADD SWAP1 PUSH5 0x100000000 DUP2 GT ISZERO PUSH2 0x366 JUMPI PUSH1 0x0 DUP1 REVERT JUMPDEST DUP3 ADD DUP4 PUSH1 0x20 DUP3 ADD GT ISZERO PUSH2 0x378 JUMPI PUSH1 0x0 DUP1 REVERT JUMPDEST DUP1 CALLDATALOAD SWAP1 PUSH1 0x20 ADD SWAP2 DUP5 PUSH1 0x1 DUP4 MUL DUP5 ADD GT PUSH5 0x100000000 DUP4 GT OR ISZERO PUSH2 0x39A JUMPI PUSH1 0x0 DUP1 REVERT JUMPDEST SWAP2 SWAP1 DUP1 DUP1 PUSH1 0x1F ADD PUSH1 0x20 DUP1 SWAP2 DIV MUL PUSH1 0x20 ADD PUSH1 0x40 MLOAD SWAP1 DUP2 ADD PUSH1 0x40 MSTORE DUP1 SWAP4 SWAP3 SWAP2 SWAP1 DUP2 DUP2 MSTORE PUSH1 0x20 ADD DUP4 DUP4 DUP1 DUP3 DUP5 CALLDATACOPY PUSH1 0x0 DUP2 DUP5 ADD MSTORE PUSH1 0x1F NOT PUSH1 0x1F DUP3 ADD AND SWAP1 POP DUP1 DUP4 ADD SWAP3 POP POP POP POP POP POP POP SWAP2 SWAP3 SWAP2 SWAP3 SWAP1 DUP1 CALLDATALOAD SWAP1 PUSH1 0x20 ADD SWAP1 PUSH5 0x100000000 DUP2 GT ISZERO PUSH2 0x3FD JUMPI PUSH1 0x0 DUP1 REVERT JUMPDEST DUP3 ADD DUP4 PUSH1 0x20 DUP3 ADD GT ISZERO PUSH2 0x40F JUMPI PUSH1 0x0 DUP1 REVERT JUMPDEST DUP1 CALLDATALOAD SWAP1 PUSH1 0x20 ADD SWAP2 DUP5 PUSH1 0x1 DUP4 MUL DUP5 ADD GT PUSH5 0x100000000 DUP4 GT OR ISZERO PUSH2 0x431 JUMPI PUSH1 0x0 DUP1 REVERT JUMPDEST SWAP2 SWAP1 DUP1 DUP1 PUSH1 0x1F ADD PUSH1 0x20 DUP1 SWAP2 DIV MUL PUSH1 0x20 ADD PUSH1 0x40 MLOAD SWAP1 DUP2 ADD PUSH1 0x40 MSTORE DUP1 SWAP4 SWAP3 SWAP2 SWAP1 DUP2 DUP2 MSTORE PUSH1 0x20 ADD DUP4 DUP4 DUP1 DUP3 DUP5 CALLDATACOPY PUSH1 0x0 DUP2 DUP5 ADD MSTORE PUSH1 0x1F NOT PUSH1 0x1F DUP3 ADD AND SWAP1 POP DUP1 DUP4 ADD SWAP3 POP POP POP POP POP POP POP SWAP2 SWAP3 SWAP2 SWAP3 SWAP1 DUP1 CALLDATALOAD SWAP1 PUSH1 0x20 ADD SWAP1 PUSH5 0x100000000 DUP2 GT ISZERO PUSH2 0x494 JUMPI PUSH1 0x0 DUP1 REVERT JUMPDEST DUP3 ADD DUP4 PUSH1 0x20 DUP3 ADD GT ISZERO PUSH2 0x4A6 JUMPI PUSH1 0x0 DUP1 REVERT JUMPDEST DUP1 CALLDATALOAD SWAP1 PUSH1 0x20 ADD SWAP2 DUP5 PUSH1 0x1 DUP4 MUL DUP5 ADD GT PUSH5 0x100000000 DUP4 GT OR ISZERO PUSH2 0x4C8 JUMPI PUSH1 0x0 DUP1 REVERT JUMPDEST SWAP2 SWAP1 DUP1 DUP1 PUSH1 0x1F ADD PUSH1 0x20 DUP1 SWAP2 DIV MUL PUSH1 0x20 ADD PUSH1 0x40 MLOAD SWAP1 DUP2 ADD PUSH1 0x40 MSTORE DUP1 SWAP4 SWAP3 SWAP2 SWAP1 DUP2 DUP2 MSTORE PUSH1 0x20 ADD DUP4 DUP4 DUP1 DUP3 DUP5 CALLDATACOPY PUSH1 0x0 DUP2 DUP5 ADD MSTORE PUSH1 0x1F NOT PUSH1 0x1F DUP3 ADD AND SWAP1 POP DUP1 DUP4 ADD SWAP3 POP POP POP POP POP POP POP SWAP2 SWAP3 SWAP2 SWAP3 SWAP1 DUP1 CALLDATALOAD SWAP1 PUSH1 0x20 ADD SWAP1 PUSH5 0x100000000 DUP2 GT ISZERO PUSH2 0x52B JUMPI PUSH1 0x0 DUP1 REVERT JUMPDEST DUP3 ADD DUP4 PUSH1 0x20 DUP3 ADD GT ISZERO PUSH2 0x53D JUMPI PUSH1 0x0 DUP1 REVERT JUMPDEST DUP1 CALLDATALOAD SWAP1 PUSH1 0x20 ADD SWAP2 DUP5 PUSH1 0x1 DUP4 MUL DUP5 ADD GT PUSH5 0x100000000 DUP4 GT OR ISZERO PUSH2 0x55F JUMPI PUSH1 0x0 DUP1 REVERT JUMPDEST SWAP2 SWAP1 DUP1 DUP1 PUSH1 0x1F ADD PUSH1 0x20 DUP1 SWAP2 DIV MUL PUSH1 0x20 ADD PUSH1 0x40 MLOAD SWAP1 DUP2 ADD PUSH1 0x40 MSTORE DUP1 SWAP4 SWAP3 SWAP2 SWAP1 DUP2 DUP2 MSTORE PUSH1 0x20 ADD DUP4 DUP4 DUP1 DUP3 DUP5 CALLDATACOPY PUSH1 0x0 DUP2 DUP5 ADD MSTORE PUSH1 0x1F NOT PUSH1 0x1F DUP3 ADD AND SWAP1 POP DUP1 DUP4 ADD SWAP3 POP POP POP POP POP POP POP SWAP2 SWAP3 SWAP2 SWAP3 SWAP1 POP POP POP PUSH2 0x117D JUMP JUMPDEST STOP JUMPDEST PUSH2 0x723 PUSH1 0x4 DUP1 CALLDATASIZE SUB PUSH1 0x60 DUP2 LT ISZERO PUSH2 0x5C9 JUMPI PUSH1 0x0 DUP1 REVERT JUMPDEST DUP2 ADD SWAP1 DUP1 DUP1 CALLDATALOAD PUSH20 0xFFFFFFFFFFFFFFFFFFFFFFFFFFFFFFFFFFFFFFFF AND SWAP1 PUSH1 0x20 ADD SWAP1 SWAP3 SWAP2 SWAP1 DUP1 CALLDATALOAD SWAP1 PUSH1 0x20 ADD SWAP1 PUSH5 0x100000000 DUP2 GT ISZERO PUSH2 0x606 JUMPI PUSH1 0x0 DUP1 REVERT JUMPDEST DUP3 ADD DUP4 PUSH1 0x20 DUP3 ADD GT ISZERO PUSH2 0x618 JUMPI PUSH1 0x0 DUP1 REVERT JUMPDEST DUP1 CALLDATALOAD SWAP1 PUSH1 0x20 ADD SWAP2 DUP5 PUSH1 0x1 DUP4 MUL DUP5 ADD GT PUSH5 0x100000000 DUP4 GT OR ISZERO PUSH2 0x63A JUMPI PUSH1 0x0 DUP1 REVERT JUMPDEST SWAP2 SWAP1 DUP1 DUP1 PUSH1 0x1F ADD PUSH1 0x20 DUP1 SWAP2 DIV MUL PUSH1 0x20 ADD PUSH1 0x40 MLOAD SWAP1 DUP2 ADD PUSH1 0x40 MSTORE DUP1 SWAP4 SWAP3 SWAP2 SWAP1 DUP2 DUP2 MSTORE PUSH1 0x20 ADD DUP4 DUP4 DUP1 DUP3 DUP5 CALLDATACOPY PUSH1 0x0 DUP2 DUP5 ADD MSTORE PUSH1 0x1F NOT PUSH1 0x1F DUP3 ADD AND SWAP1 POP DUP1 DUP4 ADD SWAP3 POP POP POP POP POP POP POP SWAP2 SWAP3 SWAP2 SWAP3 SWAP1 DUP1 CALLDATALOAD SWAP1 PUSH1 0x20 ADD SWAP1 PUSH5 0x100000000 DUP2 GT ISZERO PUSH2 0x69D JUMPI PUSH1 0x0 DUP1 REVERT JUMPDEST DUP3 ADD DUP4 PUSH1 0x20 DUP3 ADD GT ISZERO PUSH2 0x6AF JUMPI PUSH1 0x0 DUP1 REVERT JUMPDEST DUP1 CALLDATALOAD SWAP1 PUSH1 0x20 ADD SWAP2 DUP5 PUSH1 0x1 DUP4 MUL DUP5 ADD GT PUSH5 0x100000000 DUP4 GT OR ISZERO PUSH2 0x6D1 JUMPI PUSH1 0x0 DUP1 REVERT JUMPDEST SWAP2 SWAP1 DUP1 DUP1 PUSH1 0x1F ADD PUSH1 0x20 DUP1 SWAP2 DIV MUL PUSH1 0x20 ADD PUSH1 0x40 MLOAD SWAP1 DUP2 ADD PUSH1 0x40 MSTORE DUP1 SWAP4 SWAP3 SWAP2 SWAP1 DUP2 DUP2 MSTORE PUSH1 0x20 ADD DUP4 DUP4 DUP1 DUP3 DUP5 CALLDATACOPY PUSH1 0x0 DUP2 DUP5 ADD MSTORE PUSH1 0x1F NOT PUSH1 0x1F DUP3 ADD AND SWAP1 POP DUP1 DUP4 ADD SWAP3 POP POP POP POP POP POP POP SWAP2 SWAP3 SWAP2 SWAP3 SWAP1 POP POP POP PUSH2 0x12FA JUMP JUMPDEST STOP JUMPDEST PUSH2 0x7A6 PUSH1 0x4 DUP1 CALLDATASIZE SUB PUSH1 0x40 DUP2 LT ISZERO PUSH2 0x73B JUMPI PUSH1 0x0 DUP1 REVERT JUMPDEST DUP2 ADD SWAP1 DUP1 DUP1 CALLDATALOAD SWAP1 PUSH1 0x20 ADD SWAP1 SWAP3 SWAP2 SWAP1 DUP1 CALLDATALOAD SWAP1 PUSH1 0x20 ADD SWAP1 PUSH5 0x100000000 DUP2 GT ISZERO PUSH2 0x762 JUMPI PUSH1 0x0 DUP1 REVERT JUMPDEST DUP3 ADD DUP4 PUSH1 0x20 DUP3 ADD GT ISZERO PUSH2 0x774 JUMPI PUSH1 0x0 DUP1 REVERT JUMPDEST DUP1 CALLDATALOAD SWAP1 PUSH1 0x20 ADD SWAP2 DUP5 PUSH1 0x1 DUP4 MUL DUP5 ADD GT PUSH5 0x100000000 DUP4 GT OR ISZERO PUSH2 0x796 JUMPI PUSH1 0x0 DUP1 REVERT JUMPDEST SWAP1 SWAP2 SWAP3 SWAP4 SWAP2 SWAP3 SWAP4 SWAP1 POP POP POP PUSH2 0x1389 JUMP JUMPDEST STOP JUMPDEST PUSH2 0x811 PUSH1 0x4 DUP1 CALLDATASIZE SUB PUSH1 0x80 DUP2 LT ISZERO PUSH2 0x7BE JUMPI PUSH1 0x0 DUP1 REVERT JUMPDEST DUP2 ADD SWAP1 DUP1 DUP1 CALLDATALOAD SWAP1 PUSH1 0x20 ADD SWAP1 SWAP3 SWAP2 SWAP1 DUP1 CALLDATALOAD SWAP1 PUSH1 0x20 ADD SWAP1 SWAP3 SWAP2 SWAP1 DUP1 CALLDATALOAD PUSH28 0xFFFFFFFFFFFFFFFFFFFFFFFFFFFFFFFFFFFFFFFFFFFFFFFFFFFFFFFF NOT AND SWAP1 PUSH1 0x20 ADD SWAP1 SWAP3 SWAP2 SWAP1 DUP1 CALLDATALOAD SWAP1 PUSH1 0x20 ADD SWAP1 SWAP3 SWAP2 SWAP1 POP POP POP PUSH2 0x1520 JUMP JUMPDEST STOP JUMPDEST PUSH2 0x855 PUSH1 0x4 DUP1 CALLDATASIZE SUB PUSH1 0x20 DUP2 LT ISZERO PUSH2 0x829 JUMPI PUSH1 0x0 DUP1 REVERT JUMPDEST DUP2 ADD SWAP1 DUP1 DUP1 CALLDATALOAD PUSH20 0xFFFFFFFFFFFFFFFFFFFFFFFFFFFFFFFFFFFFFFFF AND SWAP1 PUSH1 0x20 ADD SWAP1 SWAP3 SWAP2 SWAP1 POP POP POP PUSH2 0x153A JUMP JUMPDEST STOP JUMPDEST PUSH2 0x85F PUSH2 0x154E JUMP JUMPDEST PUSH1 0x40 MLOAD DUP1 DUP1 PUSH1 0x20 ADD DUP3 DUP2 SUB DUP3 MSTORE DUP4 DUP2 DUP2 MLOAD DUP2 MSTORE PUSH1 0x20 ADD SWAP2 POP DUP1 MLOAD SWAP1 PUSH1 0x20 ADD SWAP1 DUP1 DUP4 DUP4 PUSH1 0x0 JUMPDEST DUP4 DUP2 LT ISZERO PUSH2 0x89F JUMPI DUP1 DUP3 ADD MLOAD DUP2 DUP5 ADD MSTORE PUSH1 0x20 DUP2 ADD SWAP1 POP PUSH2 0x884 JUMP JUMPDEST POP POP POP POP SWAP1 POP SWAP1 DUP2 ADD SWAP1 PUSH1 0x1F AND DUP1 ISZERO PUSH2 0x8CC JUMPI DUP1 DUP3 SUB DUP1 MLOAD PUSH1 0x1 DUP4 PUSH1 0x20 SUB PUSH2 0x100 EXP SUB NOT AND DUP2 MSTORE PUSH1 0x20 ADD SWAP2 POP JUMPDEST POP SWAP3 POP POP POP PUSH1 0x40 MLOAD DUP1 SWAP2 SUB SWAP1 RETURN JUMPDEST PUSH1 0x0 PUSH2 0x8E4 PUSH2 0x15EC JUMP JUMPDEST SWAP1 POP SWAP1 JUMP JUMPDEST PUSH1 0x60 PUSH1 0x0 DUP3 PUSH20 0xFFFFFFFFFFFFFFFFFFFFFFFFFFFFFFFFFFFFFFFF AND PUSH1 0x0 SHL SWAP1 POP PUSH1 0x0 PUSH1 0x40 MLOAD DUP1 PUSH1 0x40 ADD PUSH1 0x40 MSTORE DUP1 PUSH1 0x10 DUP2 MSTORE PUSH1 0x20 ADD PUSH32 0x3031323334353637383961626364656600000000000000000000000000000000 DUP2 MSTORE POP SWAP1 POP PUSH1 0x0 PUSH1 0x2A PUSH8 0xFFFFFFFFFFFFFFFF DUP2 GT DUP1 ISZERO PUSH2 0x95D JUMPI PUSH1 0x0 DUP1 REVERT JUMPDEST POP PUSH1 0x40 MLOAD SWAP1 DUP1 DUP3 MSTORE DUP1 PUSH1 0x1F ADD PUSH1 0x1F NOT AND PUSH1 0x20 ADD DUP3 ADD PUSH1 0x40 MSTORE DUP1 ISZERO PUSH2 0x990 JUMPI DUP2 PUSH1 0x20 ADD PUSH1 0x1 DUP3 MUL DUP1 CALLDATASIZE DUP4 CALLDATACOPY DUP1 DUP3 ADD SWAP2 POP POP SWAP1 POP JUMPDEST POP SWAP1 POP PUSH32 0x3000000000000000000000000000000000000000000000000000000000000000 DUP2 PUSH1 0x0 DUP2 MLOAD DUP2 LT PUSH2 0x9C1 JUMPI INVALID JUMPDEST PUSH1 0x20 ADD ADD SWAP1 PUSH31 0xFFFFFFFFFFFFFFFFFFFFFFFFFFFFFFFFFFFFFFFFFFFFFFFFFFFFFFFFFFFFFF NOT AND SWAP1 DUP2 PUSH1 0x0 BYTE SWAP1 MSTORE8 POP PUSH32 0x7800000000000000000000000000000000000000000000000000000000000000 DUP2 PUSH1 0x1 DUP2 MLOAD DUP2 LT PUSH2 0xA1E JUMPI INVALID JUMPDEST PUSH1 0x20 ADD ADD SWAP1 PUSH31 0xFFFFFFFFFFFFFFFFFFFFFFFFFFFFFFFFFFFFFFFFFFFFFFFFFFFFFFFFFFFFFF NOT AND SWAP1 DUP2 PUSH1 0x0 BYTE SWAP1 MSTORE8 POP PUSH1 0x0 JUMPDEST PUSH1 0x14 DUP2 LT ISZERO PUSH2 0xB72 JUMPI DUP3 PUSH1 0x4 DUP6 PUSH1 0xC DUP5 ADD PUSH1 0x20 DUP2 LT PUSH2 0xA6B JUMPI INVALID JUMPDEST BYTE PUSH1 0xF8 SHL PUSH31 0xFFFFFFFFFFFFFFFFFFFFFFFFFFFFFFFFFFFFFFFFFFFFFFFFFFFFFFFFFFFFFF NOT AND SWAP1 SHR PUSH1 0xF8 SHR PUSH1 0xFF AND DUP2 MLOAD DUP2 LT PUSH2 0xAA3 JUMPI INVALID JUMPDEST PUSH1 0x20 ADD ADD MLOAD PUSH1 0xF8 SHR PUSH1 0xF8 SHL DUP3 PUSH1 0x2 DUP4 MUL PUSH1 0x2 ADD DUP2 MLOAD DUP2 LT PUSH2 0xAC0 JUMPI INVALID JUMPDEST PUSH1 0x20 ADD ADD SWAP1 PUSH31 0xFFFFFFFFFFFFFFFFFFFFFFFFFFFFFFFFFFFFFFFFFFFFFFFFFFFFFFFFFFFFFF NOT AND SWAP1 DUP2 PUSH1 0x0 BYTE SWAP1 MSTORE8 POP DUP3 PUSH1 0xF PUSH1 0xF8 SHL DUP6 PUSH1 0xC DUP5 ADD PUSH1 0x20 DUP2 LT PUSH2 0xB04 JUMPI INVALID JUMPDEST BYTE PUSH1 0xF8 SHL AND PUSH1 0xF8 SHR PUSH1 0xFF AND DUP2 MLOAD DUP2 LT PUSH2 0xB19 JUMPI INVALID JUMPDEST PUSH1 0x20 ADD ADD MLOAD PUSH1 0xF8 SHR PUSH1 0xF8 SHL DUP3 PUSH1 0x2 DUP4 MUL PUSH1 0x3 ADD DUP2 MLOAD DUP2 LT PUSH2 0xB36 JUMPI INVALID JUMPDEST PUSH1 0x20 ADD ADD SWAP1 PUSH31 0xFFFFFFFFFFFFFFFFFFFFFFFFFFFFFFFFFFFFFFFFFFFFFFFFFFFFFFFFFFFFFF NOT AND SWAP1 DUP2 PUSH1 0x0 BYTE SWAP1 MSTORE8 POP DUP1 DUP1 PUSH1 0x1 ADD SWAP2 POP POP PUSH2 0xA50 JUMP JUMPDEST POP DUP1 SWAP4 POP POP POP POP SWAP2 SWAP1 POP JUMP JUMPDEST PUSH1 0x7 PUSH1 0x0 SWAP1 SLOAD SWAP1 PUSH2 0x100 EXP SWAP1 DIV PUSH20 0xFFFFFFFFFFFFFFFFFFFFFFFFFFFFFFFFFFFFFFFF AND PUSH20 0xFFFFFFFFFFFFFFFFFFFFFFFFFFFFFFFFFFFFFFFF AND CALLER PUSH20 0xFFFFFFFFFFFFFFFFFFFFFFFFFFFFFFFFFFFFFFFF AND EQ PUSH2 0xC41 JUMPI PUSH1 0x40 MLOAD PUSH32 0x8C379A000000000000000000000000000000000000000000000000000000000 DUP2 MSTORE PUSH1 0x4 ADD DUP1 DUP1 PUSH1 0x20 ADD DUP3 DUP2 SUB DUP3 MSTORE PUSH1 0x16 DUP2 MSTORE PUSH1 0x20 ADD DUP1 PUSH32 0x4D7573742062652070726F706F736564206F776E657200000000000000000000 DUP2 MSTORE POP PUSH1 0x20 ADD SWAP2 POP POP PUSH1 0x40 MLOAD DUP1 SWAP2 SUB SWAP1 REVERT JUMPDEST PUSH1 0x0 PUSH1 0x6 PUSH1 0x0 SWAP1 SLOAD SWAP1 PUSH2 0x100 EXP SWAP1 DIV PUSH20 0xFFFFFFFFFFFFFFFFFFFFFFFFFFFFFFFFFFFFFFFF AND SWAP1 POP CALLER PUSH1 0x6 PUSH1 0x0 PUSH2 0x100 EXP DUP2 SLOAD DUP2 PUSH20 0xFFFFFFFFFFFFFFFFFFFFFFFFFFFFFFFFFFFFFFFF MUL NOT AND SWAP1 DUP4 PUSH20 0xFFFFFFFFFFFFFFFFFFFFFFFFFFFFFFFFFFFFFFFF AND MUL OR SWAP1 SSTORE POP PUSH1 0x0 PUSH1 0x7 PUSH1 0x0 PUSH2 0x100 EXP DUP2 SLOAD DUP2 PUSH20 0xFFFFFFFFFFFFFFFFFFFFFFFFFFFFFFFFFFFFFFFF MUL NOT AND SWAP1 DUP4 PUSH20 0xFFFFFFFFFFFFFFFFFFFFFFFFFFFFFFFFFFFFFFFF AND MUL OR SWAP1 SSTORE POP CALLER PUSH20 0xFFFFFFFFFFFFFFFFFFFFFFFFFFFFFFFFFFFFFFFF AND DUP2 PUSH20 0xFFFFFFFFFFFFFFFFFFFFFFFFFFFFFFFFFFFFFFFF AND PUSH32 0x8BE0079C531659141344CD1FD0A4F28419497F9722A3DAAFE3B4186F6B6457E0 PUSH1 0x40 MLOAD PUSH1 0x40 MLOAD DUP1 SWAP2 SUB SWAP1 LOG3 POP JUMP JUMPDEST PUSH1 0x8 DUP1 SLOAD PUSH1 0x1 DUP2 PUSH1 0x1 AND ISZERO PUSH2 0x100 MUL SUB AND PUSH1 0x2 SWAP1 DIV DUP1 PUSH1 0x1F ADD PUSH1 0x20 DUP1 SWAP2 DIV MUL PUSH1 0x20 ADD PUSH1 0x40 MLOAD SWAP1 DUP2 ADD PUSH1 0x40 MSTORE DUP1 SWAP3 SWAP2 SWAP1 DUP2 DUP2 MSTORE PUSH1 0x20 ADD DUP3 DUP1 SLOAD PUSH1 0x1 DUP2 PUSH1 0x1 AND ISZERO PUSH2 0x100 MUL SUB AND PUSH1 0x2 SWAP1 DIV DUP1 ISZERO PUSH2 0xDDE JUMPI DUP1 PUSH1 0x1F LT PUSH2 0xDB3 JUMPI PUSH2 0x100 DUP1 DUP4 SLOAD DIV MUL DUP4 MSTORE SWAP2 PUSH1 0x20 ADD SWAP2 PUSH2 0xDDE JUMP JUMPDEST DUP3 ADD SWAP2 SWAP1 PUSH1 0x0 MSTORE PUSH1 0x20 PUSH1 0x0 KECCAK256 SWAP1 JUMPDEST DUP2 SLOAD DUP2 MSTORE SWAP1 PUSH1 0x1 ADD SWAP1 PUSH1 0x20 ADD DUP1 DUP4 GT PUSH2 0xDC1 JUMPI DUP3 SWAP1 SUB PUSH1 0x1F AND DUP3 ADD SWAP2 JUMPDEST POP POP POP POP POP DUP2 JUMP JUMPDEST DUP3 PUSH1 0x5 PUSH1 0x0 DUP3 DUP2 MSTORE PUSH1 0x20 ADD SWAP1 DUP2 MSTORE PUSH1 0x20 ADD PUSH1 0x0 KECCAK256 PUSH1 0x0 SWAP1 SLOAD SWAP1 PUSH2 0x100 EXP SWAP1 DIV PUSH20 0xFFFFFFFFFFFFFFFFFFFFFFFFFFFFFFFFFFFFFFFF AND PUSH20 0xFFFFFFFFFFFFFFFFFFFFFFFFFFFFFFFFFFFFFFFF AND CALLER PUSH20 0xFFFFFFFFFFFFFFFFFFFFFFFFFFFFFFFFFFFFFFFF AND EQ PUSH2 0xE9E JUMPI PUSH1 0x40 MLOAD PUSH32 0x8C379A000000000000000000000000000000000000000000000000000000000 DUP2 MSTORE PUSH1 0x4 ADD DUP1 DUP1 PUSH1 0x20 ADD DUP3 DUP2 SUB DUP3 MSTORE PUSH1 0x28 DUP2 MSTORE PUSH1 0x20 ADD DUP1 PUSH2 0x241F PUSH1 0x28 SWAP2 CODECOPY PUSH1 0x40 ADD SWAP2 POP POP PUSH1 0x40 MLOAD DUP1 SWAP2 SUB SWAP1 REVERT JUMPDEST PUSH1 0x5 PUSH1 0x0 DUP3 DUP2 MSTORE PUSH1 0x20 ADD SWAP1 DUP2 MSTORE PUSH1 0x20 ADD PUSH1 0x0 KECCAK256 PUSH1 0x0 PUSH2 0x100 EXP DUP2 SLOAD SWAP1 PUSH20 0xFFFFFFFFFFFFFFFFFFFFFFFFFFFFFFFFFFFFFFFF MUL NOT AND SWAP1 SSTORE DUP1 PUSH32 0x7CC135E0CEBB02C3480AE5D74D377283180A2601F8F644EDF7987B009316C63A PUSH1 0x40 MLOAD PUSH1 0x40 MLOAD DUP1 SWAP2 SUB SWAP1 LOG2 DUP4 PUSH32 0x6A9D81895172C2D9B744594ADCE9E7B40217F381D3E6D792A68F03850F9D9F25 DUP5 DUP5 PUSH1 0x40 MLOAD DUP1 DUP1 PUSH1 0x20 ADD DUP3 DUP2 SUB DUP3 MSTORE DUP5 DUP5 DUP3 DUP2 DUP2 MSTORE PUSH1 0x20 ADD SWAP3 POP DUP1 DUP3 DUP5 CALLDATACOPY PUSH1 0x0 DUP2 DUP5 ADD MSTORE PUSH1 0x1F NOT PUSH1 0x1F DUP3 ADD AND SWAP1 POP DUP1 DUP4 ADD SWAP3 POP POP POP SWAP4 POP POP POP POP PUSH1 0x40 MLOAD DUP1 SWAP2 SUB SWAP1 LOG2 DUP3 DUP3 PUSH1 0x8 SWAP2 SWAP1 PUSH2 0xF76 SWAP3 SWAP2 SWAP1 PUSH2 0x22C9 JUMP JUMPDEST POP POP POP POP POP JUMP JUMPDEST PUSH1 0x0 PUSH1 0x6 PUSH1 0x0 SWAP1 SLOAD SWAP1 PUSH2 0x100 EXP SWAP1 DIV PUSH20 0xFFFFFFFFFFFFFFFFFFFFFFFFFFFFFFFFFFFFFFFF AND SWAP1 POP SWAP1 JUMP JUMPDEST PUSH2 0xFAF PUSH2 0x1616 JUMP JUMPDEST PUSH1 0x0 PUSH2 0xFB9 PUSH2 0x15EC JUMP JUMPDEST SWAP1 POP DUP1 PUSH20 0xFFFFFFFFFFFFFFFFFFFFFFFFFFFFFFFFFFFFFFFF AND PUSH4 0xA9059CBB CALLER DUP4 PUSH20 0xFFFFFFFFFFFFFFFFFFFFFFFFFFFFFFFFFFFFFFFF AND PUSH4 0x70A08231 ADDRESS PUSH1 0x40 MLOAD DUP3 PUSH4 0xFFFFFFFF AND PUSH1 0xE0 SHL DUP2 MSTORE PUSH1 0x4 ADD DUP1 DUP3 PUSH20 0xFFFFFFFFFFFFFFFFFFFFFFFFFFFFFFFFFFFFFFFF AND DUP2 MSTORE PUSH1 0x20 ADD SWAP2 POP POP PUSH1 0x20 PUSH1 0x40 MLOAD DUP1 DUP4 SUB DUP2 DUP7 DUP1 EXTCODESIZE ISZERO DUP1 ISZERO PUSH2 0x103F JUMPI PUSH1 0x0 DUP1 REVERT JUMPDEST POP GAS STATICCALL ISZERO DUP1 ISZERO PUSH2 0x1053 JUMPI RETURNDATASIZE PUSH1 0x0 DUP1 RETURNDATACOPY RETURNDATASIZE PUSH1 0x0 REVERT JUMPDEST POP POP POP POP PUSH1 0x40 MLOAD RETURNDATASIZE PUSH1 0x20 DUP2 LT ISZERO PUSH2 0x1069 JUMPI PUSH1 0x0 DUP1 REVERT JUMPDEST DUP2 ADD SWAP1 DUP1 DUP1 MLOAD SWAP1 PUSH1 0x20 ADD SWAP1 SWAP3 SWAP2 SWAP1 POP POP POP PUSH1 0x40 MLOAD DUP4 PUSH4 0xFFFFFFFF AND PUSH1 0xE0 SHL DUP2 MSTORE PUSH1 0x4 ADD DUP1 DUP4 PUSH20 0xFFFFFFFFFFFFFFFFFFFFFFFFFFFFFFFFFFFFFFFF AND DUP2 MSTORE PUSH1 0x20 ADD DUP3 DUP2 MSTORE PUSH1 0x20 ADD SWAP3 POP POP POP PUSH1 0x20 PUSH1 0x40 MLOAD DUP1 DUP4 SUB DUP2 PUSH1 0x0 DUP8 DUP1 EXTCODESIZE ISZERO DUP1 ISZERO PUSH2 0x10CD JUMPI PUSH1 0x0 DUP1 REVERT JUMPDEST POP GAS CALL ISZERO DUP1 ISZERO PUSH2 0x10E1 JUMPI RETURNDATASIZE PUSH1 0x0 DUP1 RETURNDATACOPY RETURNDATASIZE PUSH1 0x0 REVERT JUMPDEST POP POP POP POP PUSH1 0x40 MLOAD RETURNDATASIZE PUSH1 0x20 DUP2 LT ISZERO PUSH2 0x10F7 JUMPI PUSH1 0x0 DUP1 REVERT JUMPDEST DUP2 ADD SWAP1 DUP1 DUP1 MLOAD SWAP1 PUSH1 0x20 ADD SWAP1 SWAP3 SWAP2 SWAP1 POP POP POP PUSH2 0x117A JUMPI PUSH1 0x40 MLOAD PUSH32 0x8C379A000000000000000000000000000000000000000000000000000000000 DUP2 MSTORE PUSH1 0x4 ADD DUP1 DUP1 PUSH1 0x20 ADD DUP3 DUP2 SUB DUP3 MSTORE PUSH1 0x12 DUP2 MSTORE PUSH1 0x20 ADD DUP1 PUSH32 0x556E61626C6520746F207472616E736665720000000000000000000000000000 DUP2 MSTORE POP PUSH1 0x20 ADD SWAP2 POP POP PUSH1 0x40 MLOAD DUP1 SWAP2 SUB SWAP1 REVERT JUMPDEST POP JUMP JUMPDEST PUSH1 0x0 PUSH2 0x1199 PUSH2 0x118B DUP7 PUSH2 0x16DB JUMP JUMPDEST ADDRESS PUSH4 0x8B5C11E4 PUSH1 0xE0 SHL PUSH2 0x1705 JUMP JUMPDEST SWAP1 POP PUSH2 0x11E5 PUSH1 0x40 MLOAD DUP1 PUSH1 0x40 ADD PUSH1 0x40 MSTORE DUP1 PUSH1 0x4 DUP2 MSTORE PUSH1 0x20 ADD PUSH32 0x706F737400000000000000000000000000000000000000000000000000000000 DUP2 MSTORE POP DUP5 DUP4 PUSH2 0x1736 SWAP1 SWAP3 SWAP2 SWAP1 PUSH4 0xFFFFFFFF AND JUMP JUMPDEST PUSH2 0x122F PUSH1 0x40 MLOAD DUP1 PUSH1 0x40 ADD PUSH1 0x40 MSTORE DUP1 PUSH1 0x4 DUP2 MSTORE PUSH1 0x20 ADD PUSH32 0x79616D6C00000000000000000000000000000000000000000000000000000000 DUP2 MSTORE POP DUP6 DUP4 PUSH2 0x1736 SWAP1 SWAP3 SWAP2 SWAP1 PUSH4 0xFFFFFFFF AND JUMP JUMPDEST PUSH2 0x1279 PUSH1 0x40 MLOAD DUP1 PUSH1 0x40 ADD PUSH1 0x40 MSTORE DUP1 PUSH1 0x6 DUP2 MSTORE PUSH1 0x20 ADD PUSH32 0x7573657269640000000000000000000000000000000000000000000000000000 DUP2 MSTORE POP DUP4 DUP4 PUSH2 0x1736 SWAP1 SWAP3 SWAP2 SWAP1 PUSH4 0xFFFFFFFF AND JUMP JUMPDEST PUSH1 0x0 CALLER SWAP1 POP PUSH2 0x12D0 PUSH1 0x40 MLOAD DUP1 PUSH1 0x40 ADD PUSH1 0x40 MSTORE DUP1 PUSH1 0x6 DUP2 MSTORE PUSH1 0x20 ADD PUSH32 0x73656E6465720000000000000000000000000000000000000000000000000000 DUP2 MSTORE POP PUSH2 0x12C0 DUP4 PUSH2 0x8E9 JUMP JUMPDEST DUP5 PUSH2 0x1736 SWAP1 SWAP3 SWAP2 SWAP1 PUSH4 0xFFFFFFFF AND JUMP JUMPDEST PUSH2 0x12F0 DUP8 DUP4 PUSH1 0xA PUSH8 0xDE0B6B3A7640000 PUSH1 0x1 MUL DUP2 PUSH2 0x12EA JUMPI INVALID JUMPDEST DIV PUSH2 0x1769 JUMP JUMPDEST POP POP POP POP POP POP POP POP JUMP JUMPDEST PUSH1 0x0 PUSH2 0x1316 PUSH2 0x1308 DUP5 PUSH2 0x16DB JUMP JUMPDEST ADDRESS PUSH4 0xE346373B PUSH1 0xE0 SHL PUSH2 0x1705 JUMP JUMPDEST SWAP1 POP PUSH2 0x1362 PUSH1 0x40 MLOAD DUP1 PUSH1 0x40 ADD PUSH1 0x40 MSTORE DUP1 PUSH1 0x6 DUP2 MSTORE PUSH1 0x20 ADD PUSH32 0x64656C6574650000000000000000000000000000000000000000000000000000 DUP2 MSTORE POP DUP4 DUP4 PUSH2 0x1736 SWAP1 SWAP3 SWAP2 SWAP1 PUSH4 0xFFFFFFFF AND JUMP JUMPDEST PUSH2 0x1382 DUP5 DUP3 PUSH1 0xA PUSH8 0xDE0B6B3A7640000 PUSH1 0x1 MUL DUP2 PUSH2 0x137C JUMPI INVALID JUMPDEST DIV PUSH2 0x1769 JUMP JUMPDEST POP POP POP POP POP JUMP JUMPDEST DUP3 PUSH1 0x5 PUSH1 0x0 DUP3 DUP2 MSTORE PUSH1 0x20 ADD SWAP1 DUP2 MSTORE PUSH1 0x20 ADD PUSH1 0x0 KECCAK256 PUSH1 0x0 SWAP1 SLOAD SWAP1 PUSH2 0x100 EXP SWAP1 DIV PUSH20 0xFFFFFFFFFFFFFFFFFFFFFFFFFFFFFFFFFFFFFFFF AND PUSH20 0xFFFFFFFFFFFFFFFFFFFFFFFFFFFFFFFFFFFFFFFF AND CALLER PUSH20 0xFFFFFFFFFFFFFFFFFFFFFFFFFFFFFFFFFFFFFFFF AND EQ PUSH2 0x1441 JUMPI PUSH1 0x40 MLOAD PUSH32 0x8C379A000000000000000000000000000000000000000000000000000000000 DUP2 MSTORE PUSH1 0x4 ADD DUP1 DUP1 PUSH1 0x20 ADD DUP3 DUP2 SUB DUP3 MSTORE PUSH1 0x28 DUP2 MSTORE PUSH1 0x20 ADD DUP1 PUSH2 0x241F PUSH1 0x28 SWAP2 CODECOPY PUSH1 0x40 ADD SWAP2 POP POP PUSH1 0x40 MLOAD DUP1 SWAP2 SUB SWAP1 REVERT JUMPDEST PUSH1 0x5 PUSH1 0x0 DUP3 DUP2 MSTORE PUSH1 0x20 ADD SWAP1 DUP2 MSTORE PUSH1 0x20 ADD PUSH1 0x0 KECCAK256 PUSH1 0x0 PUSH2 0x100 EXP DUP2 SLOAD SWAP1 PUSH20 0xFFFFFFFFFFFFFFFFFFFFFFFFFFFFFFFFFFFFFFFF MUL NOT AND SWAP1 SSTORE DUP1 PUSH32 0x7CC135E0CEBB02C3480AE5D74D377283180A2601F8F644EDF7987B009316C63A PUSH1 0x40 MLOAD PUSH1 0x40 MLOAD DUP1 SWAP2 SUB SWAP1 LOG2 DUP4 PUSH32 0x95F67506D0B5ADF5CA936A5944BBE2E22F39D1D5576A3449B42231E24D3D4F3F DUP5 DUP5 PUSH1 0x40 MLOAD DUP1 DUP1 PUSH1 0x20 ADD DUP3 DUP2 SUB DUP3 MSTORE DUP5 DUP5 DUP3 DUP2 DUP2 MSTORE PUSH1 0x20 ADD SWAP3 POP DUP1 DUP3 DUP5 CALLDATACOPY PUSH1 0x0 DUP2 DUP5 ADD MSTORE PUSH1 0x1F NOT PUSH1 0x1F DUP3 ADD AND SWAP1 POP DUP1 DUP4 ADD SWAP3 POP POP POP SWAP4 POP POP POP POP PUSH1 0x40 MLOAD DUP1 SWAP2 SUB SWAP1 LOG2 DUP3 DUP3 PUSH1 0x9 SWAP2 SWAP1 PUSH2 0x1519 SWAP3 SWAP2 SWAP1 PUSH2 0x22C9 JUMP JUMPDEST POP POP POP POP POP JUMP JUMPDEST PUSH2 0x1528 PUSH2 0x1616 JUMP JUMPDEST PUSH2 0x1534 DUP5 DUP5 DUP5 DUP5 PUSH2 0x1906 JUMP JUMPDEST POP POP POP POP JUMP JUMPDEST PUSH2 0x1542 PUSH2 0x1616 JUMP JUMPDEST PUSH2 0x154B DUP2 PUSH2 0x1A4A JUMP JUMPDEST POP JUMP JUMPDEST PUSH1 0x9 DUP1 SLOAD PUSH1 0x1 DUP2 PUSH1 0x1 AND ISZERO PUSH2 0x100 MUL SUB AND PUSH1 0x2 SWAP1 DIV DUP1 PUSH1 0x1F ADD PUSH1 0x20 DUP1 SWAP2 DIV MUL PUSH1 0x20 ADD PUSH1 0x40 MLOAD SWAP1 DUP2 ADD PUSH1 0x40 MSTORE DUP1 SWAP3 SWAP2 SWAP1 DUP2 DUP2 MSTORE PUSH1 0x20 ADD DUP3 DUP1 SLOAD PUSH1 0x1 DUP2 PUSH1 0x1 AND ISZERO PUSH2 0x100 MUL SUB AND PUSH1 0x2 SWAP1 DIV DUP1 ISZERO PUSH2 0x15E4 JUMPI DUP1 PUSH1 0x1F LT PUSH2 0x15B9 JUMPI PUSH2 0x100 DUP1 DUP4 SLOAD DIV MUL DUP4 MSTORE SWAP2 PUSH1 0x20 ADD SWAP2 PUSH2 0x15E4 JUMP JUMPDEST DUP3 ADD SWAP2 SWAP1 PUSH1 0x0 MSTORE PUSH1 0x20 PUSH1 0x0 KECCAK256 SWAP1 JUMPDEST DUP2 SLOAD DUP2 MSTORE SWAP1 PUSH1 0x1 ADD SWAP1 PUSH1 0x20 ADD DUP1 DUP4 GT PUSH2 0x15C7 JUMPI DUP3 SWAP1 SUB PUSH1 0x1F AND DUP3 ADD SWAP2 JUMPDEST POP POP POP POP POP DUP2 JUMP JUMPDEST PUSH1 0x0 PUSH1 0x2 PUSH1 0x0 SWAP1 SLOAD SWAP1 PUSH2 0x100 EXP SWAP1 DIV PUSH20 0xFFFFFFFFFFFFFFFFFFFFFFFFFFFFFFFFFFFFFFFF AND SWAP1 POP SWAP1 JUMP JUMPDEST PUSH1 0x6 PUSH1 0x0 SWAP1 SLOAD SWAP1 PUSH2 0x100 EXP SWAP1 DIV PUSH20 0xFFFFFFFFFFFFFFFFFFFFFFFFFFFFFFFFFFFFFFFF AND PUSH20 0xFFFFFFFFFFFFFFFFFFFFFFFFFFFFFFFFFFFFFFFF AND CALLER PUSH20 0xFFFFFFFFFFFFFFFFFFFFFFFFFFFFFFFFFFFFFFFF AND EQ PUSH2 0x16D9 JUMPI PUSH1 0x40 MLOAD PUSH32 0x8C379A000000000000000000000000000000000000000000000000000000000 DUP2 MSTORE PUSH1 0x4 ADD DUP1 DUP1 PUSH1 0x20 ADD DUP3 DUP2 SUB DUP3 MSTORE PUSH1 0x16 DUP2 MSTORE PUSH1 0x20 ADD DUP1 PUSH32 0x4F6E6C792063616C6C61626C65206279206F776E657200000000000000000000 DUP2 MSTORE POP PUSH1 0x20 ADD SWAP2 POP POP PUSH1 0x40 MLOAD DUP1 SWAP2 SUB SWAP1 REVERT JUMPDEST JUMP JUMPDEST PUSH1 0x0 DUP1 DUP3 SWAP1 POP PUSH1 0x0 DUP2 MLOAD EQ ISZERO PUSH2 0x16F7 JUMPI PUSH1 0x0 DUP1 SHL SWAP2 POP POP PUSH2 0x1700 JUMP JUMPDEST PUSH1 0x20 DUP4 ADD MLOAD SWAP2 POP POP JUMPDEST SWAP2 SWAP1 POP JUMP JUMPDEST PUSH2 0x170D PUSH2 0x2357 JUMP JUMPDEST PUSH2 0x1715 PUSH2 0x2357 JUMP JUMPDEST PUSH2 0x172C DUP6 DUP6 DUP6 DUP5 PUSH2 0x1BAC SWAP1 SWAP4 SWAP3 SWAP2 SWAP1 PUSH4 0xFFFFFFFF AND JUMP JUMPDEST SWAP2 POP POP SWAP4 SWAP3 POP POP POP JUMP JUMPDEST PUSH2 0x174D DUP3 DUP5 PUSH1 0x80 ADD MLOAD PUSH2 0x1C5C SWAP1 SWAP2 SWAP1 PUSH4 0xFFFFFFFF AND JUMP JUMPDEST PUSH2 0x1764 DUP2 DUP5 PUSH1 0x80 ADD MLOAD PUSH2 0x1C5C SWAP1 SWAP2 SWAP1 PUSH4 0xFFFFFFFF AND JUMP JUMPDEST POP POP POP JUMP JUMPDEST PUSH1 0x0 DUP1 PUSH1 0x4 SLOAD SWAP1 POP PUSH1 0x1 DUP2 ADD PUSH1 0x4 DUP2 SWAP1 SSTORE POP PUSH1 0x0 PUSH4 0x40429946 PUSH1 0xE0 SHL PUSH1 0x0 DUP1 DUP8 PUSH1 0x0 ADD MLOAD ADDRESS DUP10 PUSH1 0x40 ADD MLOAD DUP8 PUSH1 0x1 DUP13 PUSH1 0x80 ADD MLOAD PUSH1 0x0 ADD MLOAD PUSH1 0x40 MLOAD PUSH1 0x24 ADD DUP1 DUP10 PUSH20 0xFFFFFFFFFFFFFFFFFFFFFFFFFFFFFFFFFFFFFFFF AND DUP2 MSTORE PUSH1 0x20 ADD DUP9 DUP2 MSTORE PUSH1 0x20 ADD DUP8 DUP2 MSTORE PUSH1 0x20 ADD DUP7 PUSH20 0xFFFFFFFFFFFFFFFFFFFFFFFFFFFFFFFFFFFFFFFF AND DUP2 MSTORE PUSH1 0x20 ADD DUP6 PUSH28 0xFFFFFFFFFFFFFFFFFFFFFFFFFFFFFFFFFFFFFFFFFFFFFFFFFFFFFFFF NOT AND DUP2 MSTORE PUSH1 0x20 ADD DUP5 DUP2 MSTORE PUSH1 0x20 ADD DUP4 DUP2 MSTORE PUSH1 0x20 ADD DUP1 PUSH1 0x20 ADD DUP3 DUP2 SUB DUP3 MSTORE DUP4 DUP2 DUP2 MLOAD DUP2 MSTORE PUSH1 0x20 ADD SWAP2 POP DUP1 MLOAD SWAP1 PUSH1 0x20 ADD SWAP1 DUP1 DUP4 DUP4 PUSH1 0x0 JUMPDEST DUP4 DUP2 LT ISZERO PUSH2 0x1857 JUMPI DUP1 DUP3 ADD MLOAD DUP2 DUP5 ADD MSTORE PUSH1 0x20 DUP2 ADD SWAP1 POP PUSH2 0x183C JUMP JUMPDEST POP POP POP POP SWAP1 POP SWAP1 DUP2 ADD SWAP1 PUSH1 0x1F AND DUP1 ISZERO PUSH2 0x1884 JUMPI DUP1 DUP3 SUB DUP1 MLOAD PUSH1 0x1 DUP4 PUSH1 0x20 SUB PUSH2 0x100 EXP SUB NOT AND DUP2 MSTORE PUSH1 0x20 ADD SWAP2 POP JUMPDEST POP SWAP10 POP POP POP POP POP POP POP POP POP POP PUSH1 0x40 MLOAD PUSH1 0x20 DUP2 DUP4 SUB SUB DUP2 MSTORE SWAP1 PUSH1 0x40 MSTORE SWAP1 PUSH28 0xFFFFFFFFFFFFFFFFFFFFFFFFFFFFFFFFFFFFFFFFFFFFFFFFFFFFFFFF NOT AND PUSH1 0x20 DUP3 ADD DUP1 MLOAD PUSH28 0xFFFFFFFFFFFFFFFFFFFFFFFFFFFFFFFFFFFFFFFFFFFFFFFFFFFFFFFF DUP4 DUP2 DUP4 AND OR DUP4 MSTORE POP POP POP POP SWAP1 POP PUSH2 0x18FB DUP7 DUP4 DUP7 DUP5 PUSH2 0x1C81 JUMP JUMPDEST SWAP3 POP POP POP SWAP4 SWAP3 POP POP POP JUMP JUMPDEST PUSH1 0x0 PUSH1 0x5 PUSH1 0x0 DUP7 DUP2 MSTORE PUSH1 0x20 ADD SWAP1 DUP2 MSTORE PUSH1 0x20 ADD PUSH1 0x0 KECCAK256 PUSH1 0x0 SWAP1 SLOAD SWAP1 PUSH2 0x100 EXP SWAP1 DIV PUSH20 0xFFFFFFFFFFFFFFFFFFFFFFFFFFFFFFFFFFFFFFFF AND SWAP1 POP PUSH1 0x5 PUSH1 0x0 DUP7 DUP2 MSTORE PUSH1 0x20 ADD SWAP1 DUP2 MSTORE PUSH1 0x20 ADD PUSH1 0x0 KECCAK256 PUSH1 0x0 PUSH2 0x100 EXP DUP2 SLOAD SWAP1 PUSH20 0xFFFFFFFFFFFFFFFFFFFFFFFFFFFFFFFFFFFFFFFF MUL NOT AND SWAP1 SSTORE DUP5 PUSH32 0xE1FE3AFA0F7F761FF0A8B89086790EFD5140D2907EBD5B7FF6BFCB5E075FD4C5 PUSH1 0x40 MLOAD PUSH1 0x40 MLOAD DUP1 SWAP2 SUB SWAP1 LOG2 DUP1 PUSH20 0xFFFFFFFFFFFFFFFFFFFFFFFFFFFFFFFFFFFFFFFF AND PUSH4 0x6EE4D553 DUP7 DUP7 DUP7 DUP7 PUSH1 0x40 MLOAD DUP6 PUSH4 0xFFFFFFFF AND PUSH1 0xE0 SHL DUP2 MSTORE PUSH1 0x4 ADD DUP1 DUP6 DUP2 MSTORE PUSH1 0x20 ADD DUP5 DUP2 MSTORE PUSH1 0x20 ADD DUP4 PUSH28 0xFFFFFFFFFFFFFFFFFFFFFFFFFFFFFFFFFFFFFFFFFFFFFFFFFFFFFFFF NOT AND DUP2 MSTORE PUSH1 0x20 ADD DUP3 DUP2 MSTORE PUSH1 0x20 ADD SWAP5 POP POP POP POP POP PUSH1 0x0 PUSH1 0x40 MLOAD DUP1 DUP4 SUB DUP2 PUSH1 0x0 DUP8 DUP1 EXTCODESIZE ISZERO DUP1 ISZERO PUSH2 0x1A2B JUMPI PUSH1 0x0 DUP1 REVERT JUMPDEST POP GAS CALL ISZERO DUP1 ISZERO PUSH2 0x1A3F JUMPI RETURNDATASIZE PUSH1 0x0 DUP1 RETURNDATACOPY RETURNDATASIZE PUSH1 0x0 REVERT JUMPDEST POP POP POP POP POP POP POP POP POP JUMP JUMPDEST CALLER PUSH20 0xFFFFFFFFFFFFFFFFFFFFFFFFFFFFFFFFFFFFFFFF AND DUP2 PUSH20 0xFFFFFFFFFFFFFFFFFFFFFFFFFFFFFFFFFFFFFFFF AND EQ ISZERO PUSH2 0x1AEC JUMPI PUSH1 0x40 MLOAD PUSH32 0x8C379A000000000000000000000000000000000000000000000000000000000 DUP2 MSTORE PUSH1 0x4 ADD DUP1 DUP1 PUSH1 0x20 ADD DUP3 DUP2 SUB DUP3 MSTORE PUSH1 0x17 DUP2 MSTORE PUSH1 0x20 ADD DUP1 PUSH32 0x43616E6E6F74207472616E7366657220746F2073656C66000000000000000000 DUP2 MSTORE POP PUSH1 0x20 ADD SWAP2 POP POP PUSH1 0x40 MLOAD DUP1 SWAP2 SUB SWAP1 REVERT JUMPDEST DUP1 PUSH1 0x7 PUSH1 0x0 PUSH2 0x100 EXP DUP2 SLOAD DUP2 PUSH20 0xFFFFFFFFFFFFFFFFFFFFFFFFFFFFFFFFFFFFFFFF MUL NOT AND SWAP1 DUP4 PUSH20 0xFFFFFFFFFFFFFFFFFFFFFFFFFFFFFFFFFFFFFFFF AND MUL OR SWAP1 SSTORE POP DUP1 PUSH20 0xFFFFFFFFFFFFFFFFFFFFFFFFFFFFFFFFFFFFFFFF AND PUSH1 0x6 PUSH1 0x0 SWAP1 SLOAD SWAP1 PUSH2 0x100 EXP SWAP1 DIV PUSH20 0xFFFFFFFFFFFFFFFFFFFFFFFFFFFFFFFFFFFFFFFF AND PUSH20 0xFFFFFFFFFFFFFFFFFFFFFFFFFFFFFFFFFFFFFFFF AND PUSH32 0xED8889F560326EB138920D842192F0EB3DD22B4F139C87A2C57538E05BAE1278 PUSH1 0x40 MLOAD PUSH1 0x40 MLOAD DUP1 SWAP2 SUB SWAP1 LOG3 POP JUMP JUMPDEST PUSH2 0x1BB4 PUSH2 0x2357 JUMP JUMPDEST PUSH2 0x1BC4 DUP6 PUSH1 0x80 ADD MLOAD PUSH2 0x100 PUSH2 0x1EE4 JUMP JUMPDEST POP DUP4 DUP6 PUSH1 0x0 ADD DUP2 DUP2 MSTORE POP POP DUP3 DUP6 PUSH1 0x20 ADD SWAP1 PUSH20 0xFFFFFFFFFFFFFFFFFFFFFFFFFFFFFFFFFFFFFFFF AND SWAP1 DUP2 PUSH20 0xFFFFFFFFFFFFFFFFFFFFFFFFFFFFFFFFFFFFFFFF AND DUP2 MSTORE POP POP DUP2 DUP6 PUSH1 0x40 ADD SWAP1 PUSH28 0xFFFFFFFFFFFFFFFFFFFFFFFFFFFFFFFFFFFFFFFFFFFFFFFFFFFFFFFF NOT AND SWAP1 DUP2 PUSH28 0xFFFFFFFFFFFFFFFFFFFFFFFFFFFFFFFFFFFFFFFFFFFFFFFFFFFFFFFF NOT AND DUP2 MSTORE POP POP DUP5 SWAP1 POP SWAP5 SWAP4 POP POP POP POP JUMP JUMPDEST PUSH2 0x1C69 DUP3 PUSH1 0x3 DUP4 MLOAD PUSH2 0x1F38 JUMP JUMPDEST PUSH2 0x1C7C DUP2 DUP4 PUSH2 0x20BD SWAP1 SWAP2 SWAP1 PUSH4 0xFFFFFFFF AND JUMP JUMPDEST POP POP POP JUMP JUMPDEST PUSH1 0x0 ADDRESS DUP5 PUSH1 0x40 MLOAD PUSH1 0x20 ADD DUP1 DUP4 PUSH20 0xFFFFFFFFFFFFFFFFFFFFFFFFFFFFFFFFFFFFFFFF AND PUSH1 0x60 SHL DUP2 MSTORE PUSH1 0x14 ADD DUP3 DUP2 MSTORE PUSH1 0x20 ADD SWAP3 POP POP POP PUSH1 0x40 MLOAD PUSH1 0x20 DUP2 DUP4 SUB SUB DUP2 MSTORE SWAP1 PUSH1 0x40 MSTORE DUP1 MLOAD SWAP1 PUSH1 0x20 ADD KECCAK256 SWAP1 POP DUP5 PUSH1 0x5 PUSH1 0x0 DUP4 DUP2 MSTORE PUSH1 0x20 ADD SWAP1 DUP2 MSTORE PUSH1 0x20 ADD PUSH1 0x0 KECCAK256 PUSH1 0x0 PUSH2 0x100 EXP DUP2 SLOAD DUP2 PUSH20 0xFFFFFFFFFFFFFFFFFFFFFFFFFFFFFFFFFFFFFFFF MUL NOT AND SWAP1 DUP4 PUSH20 0xFFFFFFFFFFFFFFFFFFFFFFFFFFFFFFFFFFFFFFFF AND MUL OR SWAP1 SSTORE POP DUP1 PUSH32 0xB5E6E01E79F91267DC17B4E6314D5D4D03593D2CEEE0FBB452B750BD70EA5AF9 PUSH1 0x40 MLOAD PUSH1 0x40 MLOAD DUP1 SWAP2 SUB SWAP1 LOG2 PUSH1 0x2 PUSH1 0x0 SWAP1 SLOAD SWAP1 PUSH2 0x100 EXP SWAP1 DIV PUSH20 0xFFFFFFFFFFFFFFFFFFFFFFFFFFFFFFFFFFFFFFFF AND PUSH20 0xFFFFFFFFFFFFFFFFFFFFFFFFFFFFFFFFFFFFFFFF AND PUSH4 0x4000AEA0 DUP7 DUP6 DUP6 PUSH1 0x40 MLOAD DUP5 PUSH4 0xFFFFFFFF AND PUSH1 0xE0 SHL DUP2 MSTORE PUSH1 0x4 ADD DUP1 DUP5 PUSH20 0xFFFFFFFFFFFFFFFFFFFFFFFFFFFFFFFFFFFFFFFF AND DUP2 MSTORE PUSH1 0x20 ADD DUP4 DUP2 MSTORE PUSH1 0x20 ADD DUP1 PUSH1 0x20 ADD DUP3 DUP2 SUB DUP3 MSTORE DUP4 DUP2 DUP2 MLOAD DUP2 MSTORE PUSH1 0x20 ADD SWAP2 POP DUP1 MLOAD SWAP1 PUSH1 0x20 ADD SWAP1 DUP1 DUP4 DUP4 PUSH1 0x0 JUMPDEST DUP4 DUP2 LT ISZERO PUSH2 0x1DFE JUMPI DUP1 DUP3 ADD MLOAD DUP2 DUP5 ADD MSTORE PUSH1 0x20 DUP2 ADD SWAP1 POP PUSH2 0x1DE3 JUMP JUMPDEST POP POP POP POP SWAP1 POP SWAP1 DUP2 ADD SWAP1 PUSH1 0x1F AND DUP1 ISZERO PUSH2 0x1E2B JUMPI DUP1 DUP3 SUB DUP1 MLOAD PUSH1 0x1 DUP4 PUSH1 0x20 SUB PUSH2 0x100 EXP SUB NOT AND DUP2 MSTORE PUSH1 0x20 ADD SWAP2 POP JUMPDEST POP SWAP5 POP POP POP POP POP PUSH1 0x20 PUSH1 0x40 MLOAD DUP1 DUP4 SUB DUP2 PUSH1 0x0 DUP8 DUP1 EXTCODESIZE ISZERO DUP1 ISZERO PUSH2 0x1E4C JUMPI PUSH1 0x0 DUP1 REVERT JUMPDEST POP GAS CALL ISZERO DUP1 ISZERO PUSH2 0x1E60 JUMPI RETURNDATASIZE PUSH1 0x0 DUP1 RETURNDATACOPY RETURNDATASIZE PUSH1 0x0 REVERT JUMPDEST POP POP POP POP PUSH1 0x40 MLOAD RETURNDATASIZE PUSH1 0x20 DUP2 LT ISZERO PUSH2 0x1E76 JUMPI PUSH1 0x0 DUP1 REVERT JUMPDEST DUP2 ADD SWAP1 DUP1 DUP1 MLOAD SWAP1 PUSH1 0x20 ADD SWAP1 SWAP3 SWAP2 SWAP1 POP POP POP PUSH2 0x1EDC JUMPI PUSH1 0x40 MLOAD PUSH32 0x8C379A000000000000000000000000000000000000000000000000000000000 DUP2 MSTORE PUSH1 0x4 ADD DUP1 DUP1 PUSH1 0x20 ADD DUP3 DUP2 SUB DUP3 MSTORE PUSH1 0x23 DUP2 MSTORE PUSH1 0x20 ADD DUP1 PUSH2 0x23FC PUSH1 0x23 SWAP2 CODECOPY PUSH1 0x40 ADD SWAP2 POP POP PUSH1 0x40 MLOAD DUP1 SWAP2 SUB SWAP1 REVERT JUMPDEST SWAP5 SWAP4 POP POP POP POP JUMP JUMPDEST PUSH2 0x1EEC PUSH2 0x23C4 JUMP JUMPDEST PUSH1 0x0 PUSH1 0x20 DUP4 DUP2 PUSH2 0x1EF8 JUMPI INVALID JUMPDEST MOD EQ PUSH2 0x1F11 JUMPI PUSH1 0x20 DUP3 DUP2 PUSH2 0x1F08 JUMPI INVALID JUMPDEST MOD PUSH1 0x20 SUB DUP3 ADD SWAP2 POP JUMPDEST DUP2 DUP4 PUSH1 0x20 ADD DUP2 DUP2 MSTORE POP POP PUSH1 0x40 MLOAD DUP1 DUP5 MSTORE PUSH1 0x0 DUP2 MSTORE DUP3 DUP2 ADD PUSH1 0x20 ADD PUSH1 0x40 MSTORE POP DUP3 SWAP1 POP SWAP3 SWAP2 POP POP JUMP JUMPDEST PUSH1 0x17 DUP2 PUSH8 0xFFFFFFFFFFFFFFFF AND GT PUSH2 0x1F6F JUMPI PUSH2 0x1F69 DUP2 PUSH1 0x5 DUP5 PUSH1 0xFF AND SWAP1 SHL PUSH1 0xFF AND OR DUP5 PUSH2 0x20DF SWAP1 SWAP2 SWAP1 PUSH4 0xFFFFFFFF AND JUMP JUMPDEST POP PUSH2 0x20B8 JUMP JUMPDEST PUSH1 0xFF DUP2 PUSH8 0xFFFFFFFFFFFFFFFF AND GT PUSH2 0x1FC5 JUMPI PUSH2 0x1F9E PUSH1 0x18 PUSH1 0x5 DUP5 PUSH1 0xFF AND SWAP1 SHL OR DUP5 PUSH2 0x20DF SWAP1 SWAP2 SWAP1 PUSH4 0xFFFFFFFF AND JUMP JUMPDEST POP PUSH2 0x1FBF DUP2 PUSH8 0xFFFFFFFFFFFFFFFF AND PUSH1 0x1 DUP6 PUSH2 0x20FF SWAP1 SWAP3 SWAP2 SWAP1 PUSH4 0xFFFFFFFF AND JUMP JUMPDEST POP PUSH2 0x20B7 JUMP JUMPDEST PUSH2 0xFFFF DUP2 PUSH8 0xFFFFFFFFFFFFFFFF AND GT PUSH2 0x201C JUMPI PUSH2 0x1FF5 PUSH1 0x19 PUSH1 0x5 DUP5 PUSH1 0xFF AND SWAP1 SHL OR DUP5 PUSH2 0x20DF SWAP1 SWAP2 SWAP1 PUSH4 0xFFFFFFFF AND JUMP JUMPDEST POP PUSH2 0x2016 DUP2 PUSH8 0xFFFFFFFFFFFFFFFF AND PUSH1 0x2 DUP6 PUSH2 0x20FF SWAP1 SWAP3 SWAP2 SWAP1 PUSH4 0xFFFFFFFF AND JUMP JUMPDEST POP PUSH2 0x20B6 JUMP JUMPDEST PUSH4 0xFFFFFFFF DUP2 PUSH8 0xFFFFFFFFFFFFFFFF AND GT PUSH2 0x2075 JUMPI PUSH2 0x204E PUSH1 0x1A PUSH1 0x5 DUP5 PUSH1 0xFF AND SWAP1 SHL OR DUP5 PUSH2 0x20DF SWAP1 SWAP2 SWAP1 PUSH4 0xFFFFFFFF AND JUMP JUMPDEST POP PUSH2 0x206F DUP2 PUSH8 0xFFFFFFFFFFFFFFFF AND PUSH1 0x4 DUP6 PUSH2 0x20FF SWAP1 SWAP3 SWAP2 SWAP1 PUSH4 0xFFFFFFFF AND JUMP JUMPDEST POP PUSH2 0x20B5 JUMP JUMPDEST PUSH2 0x2092 PUSH1 0x1B PUSH1 0x5 DUP5 PUSH1 0xFF AND SWAP1 SHL OR DUP5 PUSH2 0x20DF SWAP1 SWAP2 SWAP1 PUSH4 0xFFFFFFFF AND JUMP JUMPDEST POP PUSH2 0x20B3 DUP2 PUSH8 0xFFFFFFFFFFFFFFFF AND PUSH1 0x8 DUP6 PUSH2 0x20FF SWAP1 SWAP3 SWAP2 SWAP1 PUSH4 0xFFFFFFFF AND JUMP JUMPDEST POP JUMPDEST JUMPDEST JUMPDEST JUMPDEST POP POP POP JUMP JUMPDEST PUSH2 0x20C5 PUSH2 0x23C4 JUMP JUMPDEST PUSH2 0x20D7 DUP4 DUP5 PUSH1 0x0 ADD MLOAD MLOAD DUP5 DUP6 MLOAD PUSH2 0x2121 JUMP JUMPDEST SWAP1 POP SWAP3 SWAP2 POP POP JUMP JUMPDEST PUSH2 0x20E7 PUSH2 0x23C4 JUMP JUMPDEST PUSH2 0x20F7 DUP4 DUP5 PUSH1 0x0 ADD MLOAD MLOAD DUP5 PUSH2 0x21DA JUMP JUMPDEST SWAP1 POP SWAP3 SWAP2 POP POP JUMP JUMPDEST PUSH2 0x2107 PUSH2 0x23C4 JUMP JUMPDEST PUSH2 0x2118 DUP5 DUP6 PUSH1 0x0 ADD MLOAD MLOAD DUP6 DUP6 PUSH2 0x2228 JUMP JUMPDEST SWAP1 POP SWAP4 SWAP3 POP POP POP JUMP JUMPDEST PUSH2 0x2129 PUSH2 0x23C4 JUMP JUMPDEST DUP3 MLOAD DUP3 GT ISZERO PUSH2 0x2137 JUMPI PUSH1 0x0 DUP1 REVERT JUMPDEST DUP5 PUSH1 0x20 ADD MLOAD DUP3 DUP6 ADD GT ISZERO PUSH2 0x2162 JUMPI PUSH2 0x2161 DUP6 PUSH1 0x2 PUSH2 0x215B DUP9 PUSH1 0x20 ADD MLOAD DUP9 DUP8 ADD PUSH2 0x2289 JUMP JUMPDEST MUL PUSH2 0x22A5 JUMP JUMPDEST JUMPDEST PUSH1 0x0 DUP1 DUP7 MLOAD DUP1 MLOAD DUP8 PUSH1 0x20 DUP4 ADD ADD SWAP4 POP DUP1 DUP9 DUP8 ADD GT ISZERO PUSH2 0x2181 JUMPI DUP8 DUP7 ADD DUP3 MSTORE JUMPDEST PUSH1 0x20 DUP8 ADD SWAP3 POP POP POP JUMPDEST PUSH1 0x20 DUP5 LT PUSH2 0x21AD JUMPI DUP1 MLOAD DUP3 MSTORE PUSH1 0x20 DUP3 ADD SWAP2 POP PUSH1 0x20 DUP2 ADD SWAP1 POP PUSH1 0x20 DUP5 SUB SWAP4 POP PUSH2 0x218A JUMP JUMPDEST PUSH1 0x0 PUSH1 0x1 DUP6 PUSH1 0x20 SUB PUSH2 0x100 EXP SUB SWAP1 POP DUP1 NOT DUP3 MLOAD AND DUP2 DUP5 MLOAD AND DUP2 DUP2 OR DUP6 MSTORE POP POP DUP8 SWAP4 POP POP POP POP SWAP5 SWAP4 POP POP POP POP JUMP JUMPDEST PUSH2 0x21E2 PUSH2 0x23C4 JUMP JUMPDEST DUP4 PUSH1 0x20 ADD MLOAD DUP4 LT PUSH2 0x21FF JUMPI PUSH2 0x21FE DUP5 PUSH1 0x2 DUP7 PUSH1 0x20 ADD MLOAD MUL PUSH2 0x22A5 JUMP JUMPDEST JUMPDEST DUP4 MLOAD DUP1 MLOAD PUSH1 0x20 DUP6 DUP4 ADD ADD DUP5 DUP2 MSTORE8 DUP2 DUP7 EQ ISZERO PUSH2 0x221B JUMPI PUSH1 0x1 DUP3 ADD DUP4 MSTORE JUMPDEST POP POP POP DUP4 SWAP1 POP SWAP4 SWAP3 POP POP POP JUMP JUMPDEST PUSH2 0x2230 PUSH2 0x23C4 JUMP JUMPDEST DUP5 PUSH1 0x20 ADD MLOAD DUP5 DUP4 ADD GT ISZERO PUSH2 0x224E JUMPI PUSH2 0x224D DUP6 PUSH1 0x2 DUP7 DUP6 ADD MUL PUSH2 0x22A5 JUMP JUMPDEST JUMPDEST PUSH1 0x0 PUSH1 0x1 DUP4 PUSH2 0x100 EXP SUB SWAP1 POP DUP6 MLOAD DUP4 DUP7 DUP3 ADD ADD DUP6 DUP4 NOT DUP3 MLOAD AND OR DUP2 MSTORE DUP2 MLOAD DUP6 DUP9 ADD GT ISZERO PUSH2 0x227B JUMPI DUP5 DUP8 ADD DUP3 MSTORE JUMPDEST POP POP DUP6 SWAP2 POP POP SWAP5 SWAP4 POP POP POP POP JUMP JUMPDEST PUSH1 0x0 DUP2 DUP4 GT ISZERO PUSH2 0x229B JUMPI DUP3 SWAP1 POP PUSH2 0x229F JUMP JUMPDEST DUP2 SWAP1 POP JUMPDEST SWAP3 SWAP2 POP POP JUMP JUMPDEST PUSH1 0x0 DUP3 PUSH1 0x0 ADD MLOAD SWAP1 POP PUSH2 0x22B8 DUP4 DUP4 PUSH2 0x1EE4 JUMP JUMPDEST POP PUSH2 0x22C3 DUP4 DUP3 PUSH2 0x20BD JUMP JUMPDEST POP POP POP POP JUMP JUMPDEST DUP3 DUP1 SLOAD PUSH1 0x1 DUP2 PUSH1 0x1 AND ISZERO PUSH2 0x100 MUL SUB AND PUSH1 0x2 SWAP1 DIV SWAP1 PUSH1 0x0 MSTORE PUSH1 0x20 PUSH1 0x0 KECCAK256 SWAP1 PUSH1 0x1F ADD PUSH1 0x20 SWAP1 DIV DUP2 ADD SWAP3 DUP3 PUSH2 0x22FF JUMPI PUSH1 0x0 DUP6 SSTORE PUSH2 0x2346 JUMP JUMPDEST DUP3 PUSH1 0x1F LT PUSH2 0x2318 JUMPI DUP1 CALLDATALOAD PUSH1 0xFF NOT AND DUP4 DUP1 ADD OR DUP6 SSTORE PUSH2 0x2346 JUMP JUMPDEST DUP3 DUP1 ADD PUSH1 0x1 ADD DUP6 SSTORE DUP3 ISZERO PUSH2 0x2346 JUMPI SWAP2 DUP3 ADD JUMPDEST DUP3 DUP2 GT ISZERO PUSH2 0x2345 JUMPI DUP3 CALLDATALOAD DUP3 SSTORE SWAP2 PUSH1 0x20 ADD SWAP2 SWAP1 PUSH1 0x1 ADD SWAP1 PUSH2 0x232A JUMP JUMPDEST JUMPDEST POP SWAP1 POP PUSH2 0x2353 SWAP2 SWAP1 PUSH2 0x23DE JUMP JUMPDEST POP SWAP1 JUMP JUMPDEST PUSH1 0x40 MLOAD DUP1 PUSH1 0xA0 ADD PUSH1 0x40 MSTORE DUP1 PUSH1 0x0 DUP1 NOT AND DUP2 MSTORE PUSH1 0x20 ADD PUSH1 0x0 PUSH20 0xFFFFFFFFFFFFFFFFFFFFFFFFFFFFFFFFFFFFFFFF AND DUP2 MSTORE PUSH1 0x20 ADD PUSH1 0x0 PUSH28 0xFFFFFFFFFFFFFFFFFFFFFFFFFFFFFFFFFFFFFFFFFFFFFFFFFFFFFFFF NOT AND DUP2 MSTORE PUSH1 0x20 ADD PUSH1 0x0 DUP2 MSTORE PUSH1 0x20 ADD PUSH2 0x23BE PUSH2 0x23C4 JUMP JUMPDEST DUP2 MSTORE POP SWAP1 JUMP JUMPDEST PUSH1 0x40 MLOAD DUP1 PUSH1 0x40 ADD PUSH1 0x40 MSTORE DUP1 PUSH1 0x60 DUP2 MSTORE PUSH1 0x20 ADD PUSH1 0x0 DUP2 MSTORE POP SWAP1 JUMP JUMPDEST JUMPDEST DUP1 DUP3 GT ISZERO PUSH2 0x23F7 JUMPI PUSH1 0x0 DUP2 PUSH1 0x0 SWAP1 SSTORE POP PUSH1 0x1 ADD PUSH2 0x23DF JUMP JUMPDEST POP SWAP1 JUMP INVALID PUSH22 0x6E61626C6520746F207472616E73666572416E644361 PUSH13 0x6C20746F206F7261636C65536F PUSH22 0x726365206D75737420626520746865206F7261636C65 KECCAK256 PUSH16 0x66207468652072657175657374A26469 PUSH17 0x667358221220D47195687CA611278A2A0E SWAP2 0x1E 0xB4 DUP6 0xC3 0xC6 0xB2 DUP16 0xA5 DUP16 0xB5 0x2E LOG1 PUSH24 0xDE11645986503E64736F6C63430007060033000000000000 "},"methodIdentifiers":{"acceptOwnership()":"79ba5097","addressToString(address)":"5e57966d","cancelRequest(bytes32,uint256,bytes4,uint256)":"ec65d0f8","currentDeleteStatus()":"fa774c62","currentPodStatus()":"83556921","fulfillDeleteStatus(bytes32,string)":"e346373b","fulfillDeployStatus(bytes32,string)":"8b5c11e4","getChainlinkToken()":"165d35e1","owner()":"8da5cb5b","requestContainerPod(address,string,string,string,string)":"a8298b2e","requestDeletePod(address,string,string)":"d273ed8d","transferOwnership(address)":"f2fde38b","withdrawLink()":"8dc654a2"}}}}}