{"contracts/oracle/Deploy.sol":{"ContainerDeploy":{"abi":[{"inputs":[{"internalType":"address","name":"_link_token_address","type":"address"}],"stateMutability":"nonpayable","type":"constructor"},{"anonymous":false,"inputs":[{"indexed":true,"internalType":"bytes32","name":"id","type":"bytes32"}],"name":"ChainlinkCancelled","type":"event"},{"anonymous":false,"inputs":[{"indexed":true,"internalType":"bytes32","name":"id","type":"bytes32"}],"name":"ChainlinkFulfilled","type":"event"},{"anonymous":false,"inputs":[{"indexed":true,"internalType":"bytes32","name":"id","type":"bytes32"}],"name":"ChainlinkRequested","type":"event"},{"anonymous":false,"inputs":[{"indexed":true,"internalType":"address","name":"from","type":"address"},{"indexed":true,"internalType":"address","name":"to","type":"address"}],"name":"OwnershipTransferRequested","type":"event"},{"anonymous":false,"inputs":[{"indexed":true,"internalType":"address","name":"from","type":"address"},{"indexed":true,"internalType":"address","name":"to","type":"address"}],"name":"OwnershipTransferred","type":"event"},{"anonymous":false,"inputs":[{"indexed":true,"internalType":"bytes32","name":"requestId","type":"bytes32"},{"indexed":false,"internalType":"string","name":"deployStatus","type":"string"}],"name":"RequestContainerDeployFulfilled","type":"event"},{"inputs":[],"name":"acceptOwnership","outputs":[],"stateMutability":"nonpayable","type":"function"},{"inputs":[{"internalType":"address","name":"_addr","type":"address"}],"name":"addressToString","outputs":[{"internalType":"string","name":"","type":"string"}],"stateMutability":"pure","type":"function"},{"inputs":[{"internalType":"bytes32","name":"_requestId","type":"bytes32"},{"internalType":"uint256","name":"_payment","type":"uint256"},{"internalType":"bytes4","name":"_callbackFunctionId","type":"bytes4"},{"internalType":"uint256","name":"_expiration","type":"uint256"}],"name":"cancelRequest","outputs":[],"stateMutability":"nonpayable","type":"function"},{"inputs":[],"name":"currentDeployStatus","outputs":[{"internalType":"string","name":"","type":"string"}],"stateMutability":"view","type":"function"},{"inputs":[{"internalType":"bytes32","name":"_requestId","type":"bytes32"},{"internalType":"string","name":"_deploy_status","type":"string"}],"name":"fulfillDeployStatus","outputs":[],"stateMutability":"nonpayable","type":"function"},{"inputs":[],"name":"getChainlinkToken","outputs":[{"internalType":"address","name":"","type":"address"}],"stateMutability":"view","type":"function"},{"inputs":[],"name":"owner","outputs":[{"internalType":"address","name":"","type":"address"}],"stateMutability":"view","type":"function"},{"inputs":[{"internalType":"address","name":"_oracle","type":"address"},{"internalType":"string","name":"_jobId","type":"string"},{"internalType":"string","name":"_deploy_code","type":"string"},{"internalType":"string","name":"_request_url","type":"string"},{"internalType":"string","name":"_userId","type":"string"}],"name":"requestContainerDeploy","outputs":[],"stateMutability":"nonpayable","type":"function"},{"inputs":[{"internalType":"address","name":"to","type":"address"}],"name":"transferOwnership","outputs":[],"stateMutability":"nonpayable","type":"function"},{"inputs":[],"name":"withdrawLink","outputs":[],"stateMutability":"nonpayable","type":"function"}],"evm":{"bytecode":{"linkReferences":{},"object":"608060405260016004553480156200001657600080fd5b506040516200225d3803806200225d833981810160405260208110156200003c57600080fd5b8101908080519060200190929190505050338060008073ffffffffffffffffffffffffffffffffffffffff168273ffffffffffffffffffffffffffffffffffffffff161415620000f4576040517f08c379a00000000000000000000000000000000000000000000000000000000081526004018080602001828103825260188152602001807f43616e6e6f7420736574206f776e657220746f207a65726f000000000000000081525060200191505060405180910390fd5b81600660006101000a81548173ffffffffffffffffffffffffffffffffffffffff021916908373ffffffffffffffffffffffffffffffffffffffff160217905550600073ffffffffffffffffffffffffffffffffffffffff168173ffffffffffffffffffffffffffffffffffffffff16146200017c576200017b816200019760201b60201c565b5b5050506200019081620002fa60201b60201c565b506200033e565b3373ffffffffffffffffffffffffffffffffffffffff168173ffffffffffffffffffffffffffffffffffffffff1614156200023a576040517f08c379a00000000000000000000000000000000000000000000000000000000081526004018080602001828103825260178152602001807f43616e6e6f74207472616e7366657220746f2073656c6600000000000000000081525060200191505060405180910390fd5b80600760006101000a81548173ffffffffffffffffffffffffffffffffffffffff021916908373ffffffffffffffffffffffffffffffffffffffff1602179055508073ffffffffffffffffffffffffffffffffffffffff16600660009054906101000a900473ffffffffffffffffffffffffffffffffffffffff1673ffffffffffffffffffffffffffffffffffffffff167fed8889f560326eb138920d842192f0eb3dd22b4f139c87a2c57538e05bae127860405160405180910390a350565b80600260006101000a81548173ffffffffffffffffffffffffffffffffffffffff021916908373ffffffffffffffffffffffffffffffffffffffff16021790555050565b611f0f806200034e6000396000f3fe608060405234801561001057600080fd5b506004361061009e5760003560e01c80638b5c11e4116100665780638b5c11e4146104c15780638da5cb5b146105445780638dc654a214610578578063ec65d0f814610582578063f2fde38b146105ed5761009e565b80630aa1fcfb146100a3578063165d35e1146103435780635204c160146103775780635e57966d146103fa57806379ba5097146104b7575b600080fd5b610341600480360360a08110156100b957600080fd5b81019080803573ffffffffffffffffffffffffffffffffffffffff169060200190929190803590602001906401000000008111156100f657600080fd5b82018360208201111561010857600080fd5b8035906020019184600183028401116401000000008311171561012a57600080fd5b91908080601f016020809104026020016040519081016040528093929190818152602001838380828437600081840152601f19601f8201169050808301925050505050505091929192908035906020019064010000000081111561018d57600080fd5b82018360208201111561019f57600080fd5b803590602001918460018302840111640100000000831117156101c157600080fd5b91908080601f016020809104026020016040519081016040528093929190818152602001838380828437600081840152601f19601f8201169050808301925050505050505091929192908035906020019064010000000081111561022457600080fd5b82018360208201111561023657600080fd5b8035906020019184600183028401116401000000008311171561025857600080fd5b91908080601f016020809104026020016040519081016040528093929190818152602001838380828437600081840152601f19601f820116905080830192505050505050509192919290803590602001906401000000008111156102bb57600080fd5b8201836020820111156102cd57600080fd5b803590602001918460018302840111640100000000831117156102ef57600080fd5b91908080601f016020809104026020016040519081016040528093929190818152602001838380828437600081840152601f19601f820116905080830192505050505050509192919290505050610631565b005b61034b6107ae565b604051808273ffffffffffffffffffffffffffffffffffffffff16815260200191505060405180910390f35b61037f6107bd565b6040518080602001828103825283818151815260200191508051906020019080838360005b838110156103bf5780820151818401526020810190506103a4565b50505050905090810190601f1680156103ec5780820380516001836020036101000a031916815260200191505b509250505060405180910390f35b61043c6004803603602081101561041057600080fd5b81019080803573ffffffffffffffffffffffffffffffffffffffff16906020019092919050505061085b565b6040518080602001828103825283818151815260200191508051906020019080838360005b8381101561047c578082015181840152602081019050610461565b50505050905090810190601f1680156104a95780820380516001836020036101000a031916815260200191505b509250505060405180910390f35b6104bf610af0565b005b610542600480360360408110156104d757600080fd5b8101908080359060200190929190803590602001906401000000008111156104fe57600080fd5b82018360208201111561051057600080fd5b8035906020019184600183028401116401000000008311171561053257600080fd5b9091929391929390505050610cba565b005b61054c610e51565b604051808273ffffffffffffffffffffffffffffffffffffffff16815260200191505060405180910390f35b610580610e7b565b005b6105eb6004803603608081101561059857600080fd5b81019080803590602001909291908035906020019092919080357bffffffffffffffffffffffffffffffffffffffffffffffffffffffff1916906020019092919080359060200190929190505050611051565b005b61062f6004803603602081101561060357600080fd5b81019080803573ffffffffffffffffffffffffffffffffffffffff16906020019092919050505061106b565b005b600061064d61063f8661107f565b30638b5c11e460e01b6110a9565b90506106996040518060400160405280600481526020017f706f73740000000000000000000000000000000000000000000000000000000081525084836110da9092919063ffffffff16565b6106e36040518060400160405280600481526020017f79616d6c0000000000000000000000000000000000000000000000000000000081525085836110da9092919063ffffffff16565b61072d6040518060400160405280600681526020017f757365726964000000000000000000000000000000000000000000000000000081525083836110da9092919063ffffffff16565b60003390506107846040518060400160405280600681526020017f73656e64657200000000000000000000000000000000000000000000000000008152506107748361085b565b846110da9092919063ffffffff16565b6107a48783600a670de0b6b3a76400006001028161079e57fe5b0461110d565b5050505050505050565b60006107b86112aa565b905090565b60088054600181600116156101000203166002900480601f0160208091040260200160405190810160405280929190818152602001828054600181600116156101000203166002900480156108535780601f1061082857610100808354040283529160200191610853565b820191906000526020600020905b81548152906001019060200180831161083657829003601f168201915b505050505081565b606060008273ffffffffffffffffffffffffffffffffffffffff1660001b905060006040518060400160405280601081526020017f303132333435363738396162636465660000000000000000000000000000000081525090506000602a67ffffffffffffffff811180156108cf57600080fd5b506040519080825280601f01601f1916602001820160405280156109025781602001600182028036833780820191505090505b5090507f30000000000000000000000000000000000000000000000000000000000000008160008151811061093357fe5b60200101907effffffffffffffffffffffffffffffffffffffffffffffffffffffffffffff1916908160001a9053507f78000000000000000000000000000000000000000000000000000000000000008160018151811061099057fe5b60200101907effffffffffffffffffffffffffffffffffffffffffffffffffffffffffffff1916908160001a90535060005b6014811015610ae45782600485600c8401602081106109dd57fe5b1a60f81b7effffffffffffffffffffffffffffffffffffffffffffffffffffffffffffff1916901c60f81c60ff1681518110610a1557fe5b602001015160f81c60f81b826002830260020181518110610a3257fe5b60200101907effffffffffffffffffffffffffffffffffffffffffffffffffffffffffffff1916908160001a90535082600f60f81b85600c840160208110610a7657fe5b1a60f81b1660f81c60ff1681518110610a8b57fe5b602001015160f81c60f81b826002830260030181518110610aa857fe5b60200101907effffffffffffffffffffffffffffffffffffffffffffffffffffffffffffff1916908160001a90535080806001019150506109c2565b50809350505050919050565b600760009054906101000a900473ffffffffffffffffffffffffffffffffffffffff1673ffffffffffffffffffffffffffffffffffffffff163373ffffffffffffffffffffffffffffffffffffffff1614610bb3576040517f08c379a00000000000000000000000000000000000000000000000000000000081526004018080602001828103825260168152602001807f4d7573742062652070726f706f736564206f776e65720000000000000000000081525060200191505060405180910390fd5b6000600660009054906101000a900473ffffffffffffffffffffffffffffffffffffffff16905033600660006101000a81548173ffffffffffffffffffffffffffffffffffffffff021916908373ffffffffffffffffffffffffffffffffffffffff1602179055506000600760006101000a81548173ffffffffffffffffffffffffffffffffffffffff021916908373ffffffffffffffffffffffffffffffffffffffff1602179055503373ffffffffffffffffffffffffffffffffffffffff168173ffffffffffffffffffffffffffffffffffffffff167f8be0079c531659141344cd1fd0a4f28419497f9722a3daafe3b4186f6b6457e060405160405180910390a350565b826005600082815260200190815260200160002060009054906101000a900473ffffffffffffffffffffffffffffffffffffffff1673ffffffffffffffffffffffffffffffffffffffff163373ffffffffffffffffffffffffffffffffffffffff1614610d72576040517f08c379a0000000000000000000000000000000000000000000000000000000008152600401808060200182810382526028815260200180611eb26028913960400191505060405180910390fd5b6005600082815260200190815260200160002060006101000a81549073ffffffffffffffffffffffffffffffffffffffff0219169055807f7cc135e0cebb02c3480ae5d74d377283180a2601f8f644edf7987b009316c63a60405160405180910390a2837fe8ca9082e290894a3f2d4d69a7ddfe4e77ea094bde4a41014d5b416f4e9803a0848460405180806020018281038252848482818152602001925080828437600081840152601f19601f820116905080830192505050935050505060405180910390a2828260089190610e4a929190611d5c565b5050505050565b6000600660009054906101000a900473ffffffffffffffffffffffffffffffffffffffff16905090565b610e836112d4565b6000610e8d6112aa565b90508073ffffffffffffffffffffffffffffffffffffffff1663a9059cbb338373ffffffffffffffffffffffffffffffffffffffff166370a08231306040518263ffffffff1660e01b8152600401808273ffffffffffffffffffffffffffffffffffffffff16815260200191505060206040518083038186803b158015610f1357600080fd5b505afa158015610f27573d6000803e3d6000fd5b505050506040513d6020811015610f3d57600080fd5b81019080805190602001909291905050506040518363ffffffff1660e01b8152600401808373ffffffffffffffffffffffffffffffffffffffff16815260200182815260200192505050602060405180830381600087803b158015610fa157600080fd5b505af1158015610fb5573d6000803e3d6000fd5b505050506040513d6020811015610fcb57600080fd5b810190808051906020019092919050505061104e576040517f08c379a00000000000000000000000000000000000000000000000000000000081526004018080602001828103825260128152602001807f556e61626c6520746f207472616e73666572000000000000000000000000000081525060200191505060405180910390fd5b50565b6110596112d4565b61106584848484611399565b50505050565b6110736112d4565b61107c816114dd565b50565b60008082905060008151141561109b576000801b9150506110a4565b60208301519150505b919050565b6110b1611dea565b6110b9611dea565b6110d08585858461163f909392919063ffffffff16565b9150509392505050565b6110f18284608001516116ef90919063ffffffff16565b6111088184608001516116ef90919063ffffffff16565b505050565b6000806004549050600181016004819055506000634042994660e01b60008087600001513089604001518760018c6080015160000151604051602401808973ffffffffffffffffffffffffffffffffffffffff1681526020018881526020018781526020018673ffffffffffffffffffffffffffffffffffffffff168152602001857bffffffffffffffffffffffffffffffffffffffffffffffffffffffff1916815260200184815260200183815260200180602001828103825283818151815260200191508051906020019080838360005b838110156111fb5780820151818401526020810190506111e0565b50505050905090810190601f1680156112285780820380516001836020036101000a031916815260200191505b509950505050505050505050604051602081830303815290604052907bffffffffffffffffffffffffffffffffffffffffffffffffffffffff19166020820180517bffffffffffffffffffffffffffffffffffffffffffffffffffffffff8381831617835250505050905061129f86838684611714565b925050509392505050565b6000600260009054906101000a900473ffffffffffffffffffffffffffffffffffffffff16905090565b600660009054906101000a900473ffffffffffffffffffffffffffffffffffffffff1673ffffffffffffffffffffffffffffffffffffffff163373ffffffffffffffffffffffffffffffffffffffff1614611397576040517f08c379a00000000000000000000000000000000000000000000000000000000081526004018080602001828103825260168152602001807f4f6e6c792063616c6c61626c65206279206f776e65720000000000000000000081525060200191505060405180910390fd5b565b60006005600086815260200190815260200160002060009054906101000a900473ffffffffffffffffffffffffffffffffffffffff1690506005600086815260200190815260200160002060006101000a81549073ffffffffffffffffffffffffffffffffffffffff0219169055847fe1fe3afa0f7f761ff0a8b89086790efd5140d2907ebd5b7ff6bfcb5e075fd4c560405160405180910390a28073ffffffffffffffffffffffffffffffffffffffff16636ee4d553868686866040518563ffffffff1660e01b815260040180858152602001848152602001837bffffffffffffffffffffffffffffffffffffffffffffffffffffffff19168152602001828152602001945050505050600060405180830381600087803b1580156114be57600080fd5b505af11580156114d2573d6000803e3d6000fd5b505050505050505050565b3373ffffffffffffffffffffffffffffffffffffffff168173ffffffffffffffffffffffffffffffffffffffff16141561157f576040517f08c379a00000000000000000000000000000000000000000000000000000000081526004018080602001828103825260178152602001807f43616e6e6f74207472616e7366657220746f2073656c6600000000000000000081525060200191505060405180910390fd5b80600760006101000a81548173ffffffffffffffffffffffffffffffffffffffff021916908373ffffffffffffffffffffffffffffffffffffffff1602179055508073ffffffffffffffffffffffffffffffffffffffff16600660009054906101000a900473ffffffffffffffffffffffffffffffffffffffff1673ffffffffffffffffffffffffffffffffffffffff167fed8889f560326eb138920d842192f0eb3dd22b4f139c87a2c57538e05bae127860405160405180910390a350565b611647611dea565b6116578560800151610100611977565b508385600001818152505082856020019073ffffffffffffffffffffffffffffffffffffffff16908173ffffffffffffffffffffffffffffffffffffffff16815250508185604001907bffffffffffffffffffffffffffffffffffffffffffffffffffffffff191690817bffffffffffffffffffffffffffffffffffffffffffffffffffffffff191681525050849050949350505050565b6116fc82600383516119cb565b61170f8183611b5090919063ffffffff16565b505050565b60003084604051602001808373ffffffffffffffffffffffffffffffffffffffff1660601b815260140182815260200192505050604051602081830303815290604052805190602001209050846005600083815260200190815260200160002060006101000a81548173ffffffffffffffffffffffffffffffffffffffff021916908373ffffffffffffffffffffffffffffffffffffffff160217905550807fb5e6e01e79f91267dc17b4e6314d5d4d03593d2ceee0fbb452b750bd70ea5af960405160405180910390a2600260009054906101000a900473ffffffffffffffffffffffffffffffffffffffff1673ffffffffffffffffffffffffffffffffffffffff16634000aea08685856040518463ffffffff1660e01b8152600401808473ffffffffffffffffffffffffffffffffffffffff16815260200183815260200180602001828103825283818151815260200191508051906020019080838360005b83811015611891578082015181840152602081019050611876565b50505050905090810190601f1680156118be5780820380516001836020036101000a031916815260200191505b50945050505050602060405180830381600087803b1580156118df57600080fd5b505af11580156118f3573d6000803e3d6000fd5b505050506040513d602081101561190957600080fd5b810190808051906020019092919050505061196f576040517f08c379a0000000000000000000000000000000000000000000000000000000008152600401808060200182810382526023815260200180611e8f6023913960400191505060405180910390fd5b949350505050565b61197f611e57565b60006020838161198b57fe5b06146119a4576020828161199b57fe5b06602003820191505b81836020018181525050604051808452600081528281016020016040525082905092915050565b60178167ffffffffffffffff1611611a02576119fc8160058460ff16901b60ff161784611b7290919063ffffffff16565b50611b4b565b60ff8167ffffffffffffffff1611611a5857611a31601860058460ff16901b1784611b7290919063ffffffff16565b50611a528167ffffffffffffffff16600185611b929092919063ffffffff16565b50611b4a565b61ffff8167ffffffffffffffff1611611aaf57611a88601960058460ff16901b1784611b7290919063ffffffff16565b50611aa98167ffffffffffffffff16600285611b929092919063ffffffff16565b50611b49565b63ffffffff8167ffffffffffffffff1611611b0857611ae1601a60058460ff16901b1784611b7290919063ffffffff16565b50611b028167ffffffffffffffff16600485611b929092919063ffffffff16565b50611b48565b611b25601b60058460ff16901b1784611b7290919063ffffffff16565b50611b468167ffffffffffffffff16600885611b929092919063ffffffff16565b505b5b5b5b505050565b611b58611e57565b611b6a83846000015151848551611bb4565b905092915050565b611b7a611e57565b611b8a8384600001515184611c6d565b905092915050565b611b9a611e57565b611bab848560000151518585611cbb565b90509392505050565b611bbc611e57565b8251821115611bca57600080fd5b84602001518285011115611bf557611bf4856002611bee8860200151888701611d1c565b02611d38565b5b600080865180518760208301019350808887011115611c145787860182525b60208701925050505b60208410611c405780518252602082019150602081019050602084039350611c1d565b60006001856020036101000a03905080198251168184511681811785525050879350505050949350505050565b611c75611e57565b83602001518310611c9257611c91846002866020015102611d38565b5b8351805160208583010184815381861415611cae576001820183525b5050508390509392505050565b611cc3611e57565b84602001518483011115611ce157611ce085600286850102611d38565b5b60006001836101000a0390508551838682010185831982511617815281518588011115611d0e5784870182525b505085915050949350505050565b600081831115611d2e57829050611d32565b8190505b92915050565b600082600001519050611d4b8383611977565b50611d568382611b50565b50505050565b828054600181600116156101000203166002900490600052602060002090601f016020900481019282611d925760008555611dd9565b82601f10611dab57803560ff1916838001178555611dd9565b82800160010185558215611dd9579182015b82811115611dd8578235825591602001919060010190611dbd565b5b509050611de69190611e71565b5090565b6040518060a0016040528060008019168152602001600073ffffffffffffffffffffffffffffffffffffffff16815260200160007bffffffffffffffffffffffffffffffffffffffffffffffffffffffff1916815260200160008152602001611e51611e57565b81525090565b604051806040016040528060608152602001600081525090565b5b80821115611e8a576000816000905550600101611e72565b509056fe756e61626c6520746f207472616e73666572416e6443616c6c20746f206f7261636c65536f75726365206d75737420626520746865206f7261636c65206f66207468652072657175657374a264697066735822122091c74124fffc71ddb1dd742b546990595311956426f6e187a82135389c20c42764736f6c63430007060033","opcodes":"PUSH1 0x80 PUSH1 0x40 MSTORE PUSH1 0x1 PUSH1 0x4 SSTORE CALLVALUE DUP1 ISZERO PUSH3 0x16 JUMPI PUSH1 0x0 DUP1 REVERT JUMPDEST POP PUSH1 0x40 MLOAD PUSH3 0x225D CODESIZE SUB DUP1 PUSH3 0x225D DUP4 CODECOPY DUP2 DUP2 ADD PUSH1 0x40 MSTORE PUSH1 0x20 DUP2 LT ISZERO PUSH3 0x3C JUMPI PUSH1 0x0 DUP1 REVERT JUMPDEST DUP2 ADD SWAP1 DUP1 DUP1 MLOAD SWAP1 PUSH1 0x20 ADD SWAP1 SWAP3 SWAP2 SWAP1 POP POP POP CALLER DUP1 PUSH1 0x0 DUP1 PUSH20 0xFFFFFFFFFFFFFFFFFFFFFFFFFFFFFFFFFFFFFFFF AND DUP3 PUSH20 0xFFFFFFFFFFFFFFFFFFFFFFFFFFFFFFFFFFFFFFFF AND EQ ISZERO PUSH3 0xF4 JUMPI PUSH1 0x40 MLOAD PUSH32 0x8C379A000000000000000000000000000000000000000000000000000000000 DUP2 MSTORE PUSH1 0x4 ADD DUP1 DUP1 PUSH1 0x20 ADD DUP3 DUP2 SUB DUP3 MSTORE PUSH1 0x18 DUP2 MSTORE PUSH1 0x20 ADD DUP1 PUSH32 0x43616E6E6F7420736574206F776E657220746F207A65726F0000000000000000 DUP2 MSTORE POP PUSH1 0x20 ADD SWAP2 POP POP PUSH1 0x40 MLOAD DUP1 SWAP2 SUB SWAP1 REVERT JUMPDEST DUP2 PUSH1 0x6 PUSH1 0x0 PUSH2 0x100 EXP DUP2 SLOAD DUP2 PUSH20 0xFFFFFFFFFFFFFFFFFFFFFFFFFFFFFFFFFFFFFFFF MUL NOT AND SWAP1 DUP4 PUSH20 0xFFFFFFFFFFFFFFFFFFFFFFFFFFFFFFFFFFFFFFFF AND MUL OR SWAP1 SSTORE POP PUSH1 0x0 PUSH20 0xFFFFFFFFFFFFFFFFFFFFFFFFFFFFFFFFFFFFFFFF AND DUP2 PUSH20 0xFFFFFFFFFFFFFFFFFFFFFFFFFFFFFFFFFFFFFFFF AND EQ PUSH3 0x17C JUMPI PUSH3 0x17B DUP2 PUSH3 0x197 PUSH1 0x20 SHL PUSH1 0x20 SHR JUMP JUMPDEST JUMPDEST POP POP POP PUSH3 0x190 DUP2 PUSH3 0x2FA PUSH1 0x20 SHL PUSH1 0x20 SHR JUMP JUMPDEST POP PUSH3 0x33E JUMP JUMPDEST CALLER PUSH20 0xFFFFFFFFFFFFFFFFFFFFFFFFFFFFFFFFFFFFFFFF AND DUP2 PUSH20 0xFFFFFFFFFFFFFFFFFFFFFFFFFFFFFFFFFFFFFFFF AND EQ ISZERO PUSH3 0x23A JUMPI PUSH1 0x40 MLOAD PUSH32 0x8C379A000000000000000000000000000000000000000000000000000000000 DUP2 MSTORE PUSH1 0x4 ADD DUP1 DUP1 PUSH1 0x20 ADD DUP3 DUP2 SUB DUP3 MSTORE PUSH1 0x17 DUP2 MSTORE PUSH1 0x20 ADD DUP1 PUSH32 0x43616E6E6F74207472616E7366657220746F2073656C66000000000000000000 DUP2 MSTORE POP PUSH1 0x20 ADD SWAP2 POP POP PUSH1 0x40 MLOAD DUP1 SWAP2 SUB SWAP1 REVERT JUMPDEST DUP1 PUSH1 0x7 PUSH1 0x0 PUSH2 0x100 EXP DUP2 SLOAD DUP2 PUSH20 0xFFFFFFFFFFFFFFFFFFFFFFFFFFFFFFFFFFFFFFFF MUL NOT AND SWAP1 DUP4 PUSH20 0xFFFFFFFFFFFFFFFFFFFFFFFFFFFFFFFFFFFFFFFF AND MUL OR SWAP1 SSTORE POP DUP1 PUSH20 0xFFFFFFFFFFFFFFFFFFFFFFFFFFFFFFFFFFFFFFFF AND PUSH1 0x6 PUSH1 0x0 SWAP1 SLOAD SWAP1 PUSH2 0x100 EXP SWAP1 DIV PUSH20 0xFFFFFFFFFFFFFFFFFFFFFFFFFFFFFFFFFFFFFFFF AND PUSH20 0xFFFFFFFFFFFFFFFFFFFFFFFFFFFFFFFFFFFFFFFF AND PUSH32 0xED8889F560326EB138920D842192F0EB3DD22B4F139C87A2C57538E05BAE1278 PUSH1 0x40 MLOAD PUSH1 0x40 MLOAD DUP1 SWAP2 SUB SWAP1 LOG3 POP JUMP JUMPDEST DUP1 PUSH1 0x2 PUSH1 0x0 PUSH2 0x100 EXP DUP2 SLOAD DUP2 PUSH20 0xFFFFFFFFFFFFFFFFFFFFFFFFFFFFFFFFFFFFFFFF MUL NOT AND SWAP1 DUP4 PUSH20 0xFFFFFFFFFFFFFFFFFFFFFFFFFFFFFFFFFFFFFFFF AND MUL OR SWAP1 SSTORE POP POP JUMP JUMPDEST PUSH2 0x1F0F DUP1 PUSH3 0x34E PUSH1 0x0 CODECOPY PUSH1 0x0 RETURN INVALID PUSH1 0x80 PUSH1 0x40 MSTORE CALLVALUE DUP1 ISZERO PUSH2 0x10 JUMPI PUSH1 0x0 DUP1 REVERT JUMPDEST POP PUSH1 0x4 CALLDATASIZE LT PUSH2 0x9E JUMPI PUSH1 0x0 CALLDATALOAD PUSH1 0xE0 SHR DUP1 PUSH4 0x8B5C11E4 GT PUSH2 0x66 JUMPI DUP1 PUSH4 0x8B5C11E4 EQ PUSH2 0x4C1 JUMPI DUP1 PUSH4 0x8DA5CB5B EQ PUSH2 0x544 JUMPI DUP1 PUSH4 0x8DC654A2 EQ PUSH2 0x578 JUMPI DUP1 PUSH4 0xEC65D0F8 EQ PUSH2 0x582 JUMPI DUP1 PUSH4 0xF2FDE38B EQ PUSH2 0x5ED JUMPI PUSH2 0x9E JUMP JUMPDEST DUP1 PUSH4 0xAA1FCFB EQ PUSH2 0xA3 JUMPI DUP1 PUSH4 0x165D35E1 EQ PUSH2 0x343 JUMPI DUP1 PUSH4 0x5204C160 EQ PUSH2 0x377 JUMPI DUP1 PUSH4 0x5E57966D EQ PUSH2 0x3FA JUMPI DUP1 PUSH4 0x79BA5097 EQ PUSH2 0x4B7 JUMPI JUMPDEST PUSH1 0x0 DUP1 REVERT JUMPDEST PUSH2 0x341 PUSH1 0x4 DUP1 CALLDATASIZE SUB PUSH1 0xA0 DUP2 LT ISZERO PUSH2 0xB9 JUMPI PUSH1 0x0 DUP1 REVERT JUMPDEST DUP2 ADD SWAP1 DUP1 DUP1 CALLDATALOAD PUSH20 0xFFFFFFFFFFFFFFFFFFFFFFFFFFFFFFFFFFFFFFFF AND SWAP1 PUSH1 0x20 ADD SWAP1 SWAP3 SWAP2 SWAP1 DUP1 CALLDATALOAD SWAP1 PUSH1 0x20 ADD SWAP1 PUSH5 0x100000000 DUP2 GT ISZERO PUSH2 0xF6 JUMPI PUSH1 0x0 DUP1 REVERT JUMPDEST DUP3 ADD DUP4 PUSH1 0x20 DUP3 ADD GT ISZERO PUSH2 0x108 JUMPI PUSH1 0x0 DUP1 REVERT JUMPDEST DUP1 CALLDATALOAD SWAP1 PUSH1 0x20 ADD SWAP2 DUP5 PUSH1 0x1 DUP4 MUL DUP5 ADD GT PUSH5 0x100000000 DUP4 GT OR ISZERO PUSH2 0x12A JUMPI PUSH1 0x0 DUP1 REVERT JUMPDEST SWAP2 SWAP1 DUP1 DUP1 PUSH1 0x1F ADD PUSH1 0x20 DUP1 SWAP2 DIV MUL PUSH1 0x20 ADD PUSH1 0x40 MLOAD SWAP1 DUP2 ADD PUSH1 0x40 MSTORE DUP1 SWAP4 SWAP3 SWAP2 SWAP1 DUP2 DUP2 MSTORE PUSH1 0x20 ADD DUP4 DUP4 DUP1 DUP3 DUP5 CALLDATACOPY PUSH1 0x0 DUP2 DUP5 ADD MSTORE PUSH1 0x1F NOT PUSH1 0x1F DUP3 ADD AND SWAP1 POP DUP1 DUP4 ADD SWAP3 POP POP POP POP POP POP POP SWAP2 SWAP3 SWAP2 SWAP3 SWAP1 DUP1 CALLDATALOAD SWAP1 PUSH1 0x20 ADD SWAP1 PUSH5 0x100000000 DUP2 GT ISZERO PUSH2 0x18D JUMPI PUSH1 0x0 DUP1 REVERT JUMPDEST DUP3 ADD DUP4 PUSH1 0x20 DUP3 ADD GT ISZERO PUSH2 0x19F JUMPI PUSH1 0x0 DUP1 REVERT JUMPDEST DUP1 CALLDATALOAD SWAP1 PUSH1 0x20 ADD SWAP2 DUP5 PUSH1 0x1 DUP4 MUL DUP5 ADD GT PUSH5 0x100000000 DUP4 GT OR ISZERO PUSH2 0x1C1 JUMPI PUSH1 0x0 DUP1 REVERT JUMPDEST SWAP2 SWAP1 DUP1 DUP1 PUSH1 0x1F ADD PUSH1 0x20 DUP1 SWAP2 DIV MUL PUSH1 0x20 ADD PUSH1 0x40 MLOAD SWAP1 DUP2 ADD PUSH1 0x40 MSTORE DUP1 SWAP4 SWAP3 SWAP2 SWAP1 DUP2 DUP2 MSTORE PUSH1 0x20 ADD DUP4 DUP4 DUP1 DUP3 DUP5 CALLDATACOPY PUSH1 0x0 DUP2 DUP5 ADD MSTORE PUSH1 0x1F NOT PUSH1 0x1F DUP3 ADD AND SWAP1 POP DUP1 DUP4 ADD SWAP3 POP POP POP POP POP POP POP SWAP2 SWAP3 SWAP2 SWAP3 SWAP1 DUP1 CALLDATALOAD SWAP1 PUSH1 0x20 ADD SWAP1 PUSH5 0x100000000 DUP2 GT ISZERO PUSH2 0x224 JUMPI PUSH1 0x0 DUP1 REVERT JUMPDEST DUP3 ADD DUP4 PUSH1 0x20 DUP3 ADD GT ISZERO PUSH2 0x236 JUMPI PUSH1 0x0 DUP1 REVERT JUMPDEST DUP1 CALLDATALOAD SWAP1 PUSH1 0x20 ADD SWAP2 DUP5 PUSH1 0x1 DUP4 MUL DUP5 ADD GT PUSH5 0x100000000 DUP4 GT OR ISZERO PUSH2 0x258 JUMPI PUSH1 0x0 DUP1 REVERT JUMPDEST SWAP2 SWAP1 DUP1 DUP1 PUSH1 0x1F ADD PUSH1 0x20 DUP1 SWAP2 DIV MUL PUSH1 0x20 ADD PUSH1 0x40 MLOAD SWAP1 DUP2 ADD PUSH1 0x40 MSTORE DUP1 SWAP4 SWAP3 SWAP2 SWAP1 DUP2 DUP2 MSTORE PUSH1 0x20 ADD DUP4 DUP4 DUP1 DUP3 DUP5 CALLDATACOPY PUSH1 0x0 DUP2 DUP5 ADD MSTORE PUSH1 0x1F NOT PUSH1 0x1F DUP3 ADD AND SWAP1 POP DUP1 DUP4 ADD SWAP3 POP POP POP POP POP POP POP SWAP2 SWAP3 SWAP2 SWAP3 SWAP1 DUP1 CALLDATALOAD SWAP1 PUSH1 0x20 ADD SWAP1 PUSH5 0x100000000 DUP2 GT ISZERO PUSH2 0x2BB JUMPI PUSH1 0x0 DUP1 REVERT JUMPDEST DUP3 ADD DUP4 PUSH1 0x20 DUP3 ADD GT ISZERO PUSH2 0x2CD JUMPI PUSH1 0x0 DUP1 REVERT JUMPDEST DUP1 CALLDATALOAD SWAP1 PUSH1 0x20 ADD SWAP2 DUP5 PUSH1 0x1 DUP4 MUL DUP5 ADD GT PUSH5 0x100000000 DUP4 GT OR ISZERO PUSH2 0x2EF JUMPI PUSH1 0x0 DUP1 REVERT JUMPDEST SWAP2 SWAP1 DUP1 DUP1 PUSH1 0x1F ADD PUSH1 0x20 DUP1 SWAP2 DIV MUL PUSH1 0x20 ADD PUSH1 0x40 MLOAD SWAP1 DUP2 ADD PUSH1 0x40 MSTORE DUP1 SWAP4 SWAP3 SWAP2 SWAP1 DUP2 DUP2 MSTORE PUSH1 0x20 ADD DUP4 DUP4 DUP1 DUP3 DUP5 CALLDATACOPY PUSH1 0x0 DUP2 DUP5 ADD MSTORE PUSH1 0x1F NOT PUSH1 0x1F DUP3 ADD AND SWAP1 POP DUP1 DUP4 ADD SWAP3 POP POP POP POP POP POP POP SWAP2 SWAP3 SWAP2 SWAP3 SWAP1 POP POP POP PUSH2 0x631 JUMP JUMPDEST STOP JUMPDEST PUSH2 0x34B PUSH2 0x7AE JUMP JUMPDEST PUSH1 0x40 MLOAD DUP1 DUP3 PUSH20 0xFFFFFFFFFFFFFFFFFFFFFFFFFFFFFFFFFFFFFFFF AND DUP2 MSTORE PUSH1 0x20 ADD SWAP2 POP POP PUSH1 0x40 MLOAD DUP1 SWAP2 SUB SWAP1 RETURN JUMPDEST PUSH2 0x37F PUSH2 0x7BD JUMP JUMPDEST PUSH1 0x40 MLOAD DUP1 DUP1 PUSH1 0x20 ADD DUP3 DUP2 SUB DUP3 MSTORE DUP4 DUP2 DUP2 MLOAD DUP2 MSTORE PUSH1 0x20 ADD SWAP2 POP DUP1 MLOAD SWAP1 PUSH1 0x20 ADD SWAP1 DUP1 DUP4 DUP4 PUSH1 0x0 JUMPDEST DUP4 DUP2 LT ISZERO PUSH2 0x3BF JUMPI DUP1 DUP3 ADD MLOAD DUP2 DUP5 ADD MSTORE PUSH1 0x20 DUP2 ADD SWAP1 POP PUSH2 0x3A4 JUMP JUMPDEST POP POP POP POP SWAP1 POP SWAP1 DUP2 ADD SWAP1 PUSH1 0x1F AND DUP1 ISZERO PUSH2 0x3EC JUMPI DUP1 DUP3 SUB DUP1 MLOAD PUSH1 0x1 DUP4 PUSH1 0x20 SUB PUSH2 0x100 EXP SUB NOT AND DUP2 MSTORE PUSH1 0x20 ADD SWAP2 POP JUMPDEST POP SWAP3 POP POP POP PUSH1 0x40 MLOAD DUP1 SWAP2 SUB SWAP1 RETURN JUMPDEST PUSH2 0x43C PUSH1 0x4 DUP1 CALLDATASIZE SUB PUSH1 0x20 DUP2 LT ISZERO PUSH2 0x410 JUMPI PUSH1 0x0 DUP1 REVERT JUMPDEST DUP2 ADD SWAP1 DUP1 DUP1 CALLDATALOAD PUSH20 0xFFFFFFFFFFFFFFFFFFFFFFFFFFFFFFFFFFFFFFFF AND SWAP1 PUSH1 0x20 ADD SWAP1 SWAP3 SWAP2 SWAP1 POP POP POP PUSH2 0x85B JUMP JUMPDEST PUSH1 0x40 MLOAD DUP1 DUP1 PUSH1 0x20 ADD DUP3 DUP2 SUB DUP3 MSTORE DUP4 DUP2 DUP2 MLOAD DUP2 MSTORE PUSH1 0x20 ADD SWAP2 POP DUP1 MLOAD SWAP1 PUSH1 0x20 ADD SWAP1 DUP1 DUP4 DUP4 PUSH1 0x0 JUMPDEST DUP4 DUP2 LT ISZERO PUSH2 0x47C JUMPI DUP1 DUP3 ADD MLOAD DUP2 DUP5 ADD MSTORE PUSH1 0x20 DUP2 ADD SWAP1 POP PUSH2 0x461 JUMP JUMPDEST POP POP POP POP SWAP1 POP SWAP1 DUP2 ADD SWAP1 PUSH1 0x1F AND DUP1 ISZERO PUSH2 0x4A9 JUMPI DUP1 DUP3 SUB DUP1 MLOAD PUSH1 0x1 DUP4 PUSH1 0x20 SUB PUSH2 0x100 EXP SUB NOT AND DUP2 MSTORE PUSH1 0x20 ADD SWAP2 POP JUMPDEST POP SWAP3 POP POP POP PUSH1 0x40 MLOAD DUP1 SWAP2 SUB SWAP1 RETURN JUMPDEST PUSH2 0x4BF PUSH2 0xAF0 JUMP JUMPDEST STOP JUMPDEST PUSH2 0x542 PUSH1 0x4 DUP1 CALLDATASIZE SUB PUSH1 0x40 DUP2 LT ISZERO PUSH2 0x4D7 JUMPI PUSH1 0x0 DUP1 REVERT JUMPDEST DUP2 ADD SWAP1 DUP1 DUP1 CALLDATALOAD SWAP1 PUSH1 0x20 ADD SWAP1 SWAP3 SWAP2 SWAP1 DUP1 CALLDATALOAD SWAP1 PUSH1 0x20 ADD SWAP1 PUSH5 0x100000000 DUP2 GT ISZERO PUSH2 0x4FE JUMPI PUSH1 0x0 DUP1 REVERT JUMPDEST DUP3 ADD DUP4 PUSH1 0x20 DUP3 ADD GT ISZERO PUSH2 0x510 JUMPI PUSH1 0x0 DUP1 REVERT JUMPDEST DUP1 CALLDATALOAD SWAP1 PUSH1 0x20 ADD SWAP2 DUP5 PUSH1 0x1 DUP4 MUL DUP5 ADD GT PUSH5 0x100000000 DUP4 GT OR ISZERO PUSH2 0x532 JUMPI PUSH1 0x0 DUP1 REVERT JUMPDEST SWAP1 SWAP2 SWAP3 SWAP4 SWAP2 SWAP3 SWAP4 SWAP1 POP POP POP PUSH2 0xCBA JUMP JUMPDEST STOP JUMPDEST PUSH2 0x54C PUSH2 0xE51 JUMP JUMPDEST PUSH1 0x40 MLOAD DUP1 DUP3 PUSH20 0xFFFFFFFFFFFFFFFFFFFFFFFFFFFFFFFFFFFFFFFF AND DUP2 MSTORE PUSH1 0x20 ADD SWAP2 POP POP PUSH1 0x40 MLOAD DUP1 SWAP2 SUB SWAP1 RETURN JUMPDEST PUSH2 0x580 PUSH2 0xE7B JUMP JUMPDEST STOP JUMPDEST PUSH2 0x5EB PUSH1 0x4 DUP1 CALLDATASIZE SUB PUSH1 0x80 DUP2 LT ISZERO PUSH2 0x598 JUMPI PUSH1 0x0 DUP1 REVERT JUMPDEST DUP2 ADD SWAP1 DUP1 DUP1 CALLDATALOAD SWAP1 PUSH1 0x20 ADD SWAP1 SWAP3 SWAP2 SWAP1 DUP1 CALLDATALOAD SWAP1 PUSH1 0x20 ADD SWAP1 SWAP3 SWAP2 SWAP1 DUP1 CALLDATALOAD PUSH28 0xFFFFFFFFFFFFFFFFFFFFFFFFFFFFFFFFFFFFFFFFFFFFFFFFFFFFFFFF NOT AND SWAP1 PUSH1 0x20 ADD SWAP1 SWAP3 SWAP2 SWAP1 DUP1 CALLDATALOAD SWAP1 PUSH1 0x20 ADD SWAP1 SWAP3 SWAP2 SWAP1 POP POP POP PUSH2 0x1051 JUMP JUMPDEST STOP JUMPDEST PUSH2 0x62F PUSH1 0x4 DUP1 CALLDATASIZE SUB PUSH1 0x20 DUP2 LT ISZERO PUSH2 0x603 JUMPI PUSH1 0x0 DUP1 REVERT JUMPDEST DUP2 ADD SWAP1 DUP1 DUP1 CALLDATALOAD PUSH20 0xFFFFFFFFFFFFFFFFFFFFFFFFFFFFFFFFFFFFFFFF AND SWAP1 PUSH1 0x20 ADD SWAP1 SWAP3 SWAP2 SWAP1 POP POP POP PUSH2 0x106B JUMP JUMPDEST STOP JUMPDEST PUSH1 0x0 PUSH2 0x64D PUSH2 0x63F DUP7 PUSH2 0x107F JUMP JUMPDEST ADDRESS PUSH4 0x8B5C11E4 PUSH1 0xE0 SHL PUSH2 0x10A9 JUMP JUMPDEST SWAP1 POP PUSH2 0x699 PUSH1 0x40 MLOAD DUP1 PUSH1 0x40 ADD PUSH1 0x40 MSTORE DUP1 PUSH1 0x4 DUP2 MSTORE PUSH1 0x20 ADD PUSH32 0x706F737400000000000000000000000000000000000000000000000000000000 DUP2 MSTORE POP DUP5 DUP4 PUSH2 0x10DA SWAP1 SWAP3 SWAP2 SWAP1 PUSH4 0xFFFFFFFF AND JUMP JUMPDEST PUSH2 0x6E3 PUSH1 0x40 MLOAD DUP1 PUSH1 0x40 ADD PUSH1 0x40 MSTORE DUP1 PUSH1 0x4 DUP2 MSTORE PUSH1 0x20 ADD PUSH32 0x79616D6C00000000000000000000000000000000000000000000000000000000 DUP2 MSTORE POP DUP6 DUP4 PUSH2 0x10DA SWAP1 SWAP3 SWAP2 SWAP1 PUSH4 0xFFFFFFFF AND JUMP JUMPDEST PUSH2 0x72D PUSH1 0x40 MLOAD DUP1 PUSH1 0x40 ADD PUSH1 0x40 MSTORE DUP1 PUSH1 0x6 DUP2 MSTORE PUSH1 0x20 ADD PUSH32 0x7573657269640000000000000000000000000000000000000000000000000000 DUP2 MSTORE POP DUP4 DUP4 PUSH2 0x10DA SWAP1 SWAP3 SWAP2 SWAP1 PUSH4 0xFFFFFFFF AND JUMP JUMPDEST PUSH1 0x0 CALLER SWAP1 POP PUSH2 0x784 PUSH1 0x40 MLOAD DUP1 PUSH1 0x40 ADD PUSH1 0x40 MSTORE DUP1 PUSH1 0x6 DUP2 MSTORE PUSH1 0x20 ADD PUSH32 0x73656E6465720000000000000000000000000000000000000000000000000000 DUP2 MSTORE POP PUSH2 0x774 DUP4 PUSH2 0x85B JUMP JUMPDEST DUP5 PUSH2 0x10DA SWAP1 SWAP3 SWAP2 SWAP1 PUSH4 0xFFFFFFFF AND JUMP JUMPDEST PUSH2 0x7A4 DUP8 DUP4 PUSH1 0xA PUSH8 0xDE0B6B3A7640000 PUSH1 0x1 MUL DUP2 PUSH2 0x79E JUMPI INVALID JUMPDEST DIV PUSH2 0x110D JUMP JUMPDEST POP POP POP POP POP POP POP POP JUMP JUMPDEST PUSH1 0x0 PUSH2 0x7B8 PUSH2 0x12AA JUMP JUMPDEST SWAP1 POP SWAP1 JUMP JUMPDEST PUSH1 0x8 DUP1 SLOAD PUSH1 0x1 DUP2 PUSH1 0x1 AND ISZERO PUSH2 0x100 MUL SUB AND PUSH1 0x2 SWAP1 DIV DUP1 PUSH1 0x1F ADD PUSH1 0x20 DUP1 SWAP2 DIV MUL PUSH1 0x20 ADD PUSH1 0x40 MLOAD SWAP1 DUP2 ADD PUSH1 0x40 MSTORE DUP1 SWAP3 SWAP2 SWAP1 DUP2 DUP2 MSTORE PUSH1 0x20 ADD DUP3 DUP1 SLOAD PUSH1 0x1 DUP2 PUSH1 0x1 AND ISZERO PUSH2 0x100 MUL SUB AND PUSH1 0x2 SWAP1 DIV DUP1 ISZERO PUSH2 0x853 JUMPI DUP1 PUSH1 0x1F LT PUSH2 0x828 JUMPI PUSH2 0x100 DUP1 DUP4 SLOAD DIV MUL DUP4 MSTORE SWAP2 PUSH1 0x20 ADD SWAP2 PUSH2 0x853 JUMP JUMPDEST DUP3 ADD SWAP2 SWAP1 PUSH1 0x0 MSTORE PUSH1 0x20 PUSH1 0x0 KECCAK256 SWAP1 JUMPDEST DUP2 SLOAD DUP2 MSTORE SWAP1 PUSH1 0x1 ADD SWAP1 PUSH1 0x20 ADD DUP1 DUP4 GT PUSH2 0x836 JUMPI DUP3 SWAP1 SUB PUSH1 0x1F AND DUP3 ADD SWAP2 JUMPDEST POP POP POP POP POP DUP2 JUMP JUMPDEST PUSH1 0x60 PUSH1 0x0 DUP3 PUSH20 0xFFFFFFFFFFFFFFFFFFFFFFFFFFFFFFFFFFFFFFFF AND PUSH1 0x0 SHL SWAP1 POP PUSH1 0x0 PUSH1 0x40 MLOAD DUP1 PUSH1 0x40 ADD PUSH1 0x40 MSTORE DUP1 PUSH1 0x10 DUP2 MSTORE PUSH1 0x20 ADD PUSH32 0x3031323334353637383961626364656600000000000000000000000000000000 DUP2 MSTORE POP SWAP1 POP PUSH1 0x0 PUSH1 0x2A PUSH8 0xFFFFFFFFFFFFFFFF DUP2 GT DUP1 ISZERO PUSH2 0x8CF JUMPI PUSH1 0x0 DUP1 REVERT JUMPDEST POP PUSH1 0x40 MLOAD SWAP1 DUP1 DUP3 MSTORE DUP1 PUSH1 0x1F ADD PUSH1 0x1F NOT AND PUSH1 0x20 ADD DUP3 ADD PUSH1 0x40 MSTORE DUP1 ISZERO PUSH2 0x902 JUMPI DUP2 PUSH1 0x20 ADD PUSH1 0x1 DUP3 MUL DUP1 CALLDATASIZE DUP4 CALLDATACOPY DUP1 DUP3 ADD SWAP2 POP POP SWAP1 POP JUMPDEST POP SWAP1 POP PUSH32 0x3000000000000000000000000000000000000000000000000000000000000000 DUP2 PUSH1 0x0 DUP2 MLOAD DUP2 LT PUSH2 0x933 JUMPI INVALID JUMPDEST PUSH1 0x20 ADD ADD SWAP1 PUSH31 0xFFFFFFFFFFFFFFFFFFFFFFFFFFFFFFFFFFFFFFFFFFFFFFFFFFFFFFFFFFFFFF NOT AND SWAP1 DUP2 PUSH1 0x0 BYTE SWAP1 MSTORE8 POP PUSH32 0x7800000000000000000000000000000000000000000000000000000000000000 DUP2 PUSH1 0x1 DUP2 MLOAD DUP2 LT PUSH2 0x990 JUMPI INVALID JUMPDEST PUSH1 0x20 ADD ADD SWAP1 PUSH31 0xFFFFFFFFFFFFFFFFFFFFFFFFFFFFFFFFFFFFFFFFFFFFFFFFFFFFFFFFFFFFFF NOT AND SWAP1 DUP2 PUSH1 0x0 BYTE SWAP1 MSTORE8 POP PUSH1 0x0 JUMPDEST PUSH1 0x14 DUP2 LT ISZERO PUSH2 0xAE4 JUMPI DUP3 PUSH1 0x4 DUP6 PUSH1 0xC DUP5 ADD PUSH1 0x20 DUP2 LT PUSH2 0x9DD JUMPI INVALID JUMPDEST BYTE PUSH1 0xF8 SHL PUSH31 0xFFFFFFFFFFFFFFFFFFFFFFFFFFFFFFFFFFFFFFFFFFFFFFFFFFFFFFFFFFFFFF NOT AND SWAP1 SHR PUSH1 0xF8 SHR PUSH1 0xFF AND DUP2 MLOAD DUP2 LT PUSH2 0xA15 JUMPI INVALID JUMPDEST PUSH1 0x20 ADD ADD MLOAD PUSH1 0xF8 SHR PUSH1 0xF8 SHL DUP3 PUSH1 0x2 DUP4 MUL PUSH1 0x2 ADD DUP2 MLOAD DUP2 LT PUSH2 0xA32 JUMPI INVALID JUMPDEST PUSH1 0x20 ADD ADD SWAP1 PUSH31 0xFFFFFFFFFFFFFFFFFFFFFFFFFFFFFFFFFFFFFFFFFFFFFFFFFFFFFFFFFFFFFF NOT AND SWAP1 DUP2 PUSH1 0x0 BYTE SWAP1 MSTORE8 POP DUP3 PUSH1 0xF PUSH1 0xF8 SHL DUP6 PUSH1 0xC DUP5 ADD PUSH1 0x20 DUP2 LT PUSH2 0xA76 JUMPI INVALID JUMPDEST BYTE PUSH1 0xF8 SHL AND PUSH1 0xF8 SHR PUSH1 0xFF AND DUP2 MLOAD DUP2 LT PUSH2 0xA8B JUMPI INVALID JUMPDEST PUSH1 0x20 ADD ADD MLOAD PUSH1 0xF8 SHR PUSH1 0xF8 SHL DUP3 PUSH1 0x2 DUP4 MUL PUSH1 0x3 ADD DUP2 MLOAD DUP2 LT PUSH2 0xAA8 JUMPI INVALID JUMPDEST PUSH1 0x20 ADD ADD SWAP1 PUSH31 0xFFFFFFFFFFFFFFFFFFFFFFFFFFFFFFFFFFFFFFFFFFFFFFFFFFFFFFFFFFFFFF NOT AND SWAP1 DUP2 PUSH1 0x0 BYTE SWAP1 MSTORE8 POP DUP1 DUP1 PUSH1 0x1 ADD SWAP2 POP POP PUSH2 0x9C2 JUMP JUMPDEST POP DUP1 SWAP4 POP POP POP POP SWAP2 SWAP1 POP JUMP JUMPDEST PUSH1 0x7 PUSH1 0x0 SWAP1 SLOAD SWAP1 PUSH2 0x100 EXP SWAP1 DIV PUSH20 0xFFFFFFFFFFFFFFFFFFFFFFFFFFFFFFFFFFFFFFFF AND PUSH20 0xFFFFFFFFFFFFFFFFFFFFFFFFFFFFFFFFFFFFFFFF AND CALLER PUSH20 0xFFFFFFFFFFFFFFFFFFFFFFFFFFFFFFFFFFFFFFFF AND EQ PUSH2 0xBB3 JUMPI PUSH1 0x40 MLOAD PUSH32 0x8C379A000000000000000000000000000000000000000000000000000000000 DUP2 MSTORE PUSH1 0x4 ADD DUP1 DUP1 PUSH1 0x20 ADD DUP3 DUP2 SUB DUP3 MSTORE PUSH1 0x16 DUP2 MSTORE PUSH1 0x20 ADD DUP1 PUSH32 0x4D7573742062652070726F706F736564206F776E657200000000000000000000 DUP2 MSTORE POP PUSH1 0x20 ADD SWAP2 POP POP PUSH1 0x40 MLOAD DUP1 SWAP2 SUB SWAP1 REVERT JUMPDEST PUSH1 0x0 PUSH1 0x6 PUSH1 0x0 SWAP1 SLOAD SWAP1 PUSH2 0x100 EXP SWAP1 DIV PUSH20 0xFFFFFFFFFFFFFFFFFFFFFFFFFFFFFFFFFFFFFFFF AND SWAP1 POP CALLER PUSH1 0x6 PUSH1 0x0 PUSH2 0x100 EXP DUP2 SLOAD DUP2 PUSH20 0xFFFFFFFFFFFFFFFFFFFFFFFFFFFFFFFFFFFFFFFF MUL NOT AND SWAP1 DUP4 PUSH20 0xFFFFFFFFFFFFFFFFFFFFFFFFFFFFFFFFFFFFFFFF AND MUL OR SWAP1 SSTORE POP PUSH1 0x0 PUSH1 0x7 PUSH1 0x0 PUSH2 0x100 EXP DUP2 SLOAD DUP2 PUSH20 0xFFFFFFFFFFFFFFFFFFFFFFFFFFFFFFFFFFFFFFFF MUL NOT AND SWAP1 DUP4 PUSH20 0xFFFFFFFFFFFFFFFFFFFFFFFFFFFFFFFFFFFFFFFF AND MUL OR SWAP1 SSTORE POP CALLER PUSH20 0xFFFFFFFFFFFFFFFFFFFFFFFFFFFFFFFFFFFFFFFF AND DUP2 PUSH20 0xFFFFFFFFFFFFFFFFFFFFFFFFFFFFFFFFFFFFFFFF AND PUSH32 0x8BE0079C531659141344CD1FD0A4F28419497F9722A3DAAFE3B4186F6B6457E0 PUSH1 0x40 MLOAD PUSH1 0x40 MLOAD DUP1 SWAP2 SUB SWAP1 LOG3 POP JUMP JUMPDEST DUP3 PUSH1 0x5 PUSH1 0x0 DUP3 DUP2 MSTORE PUSH1 0x20 ADD SWAP1 DUP2 MSTORE PUSH1 0x20 ADD PUSH1 0x0 KECCAK256 PUSH1 0x0 SWAP1 SLOAD SWAP1 PUSH2 0x100 EXP SWAP1 DIV PUSH20 0xFFFFFFFFFFFFFFFFFFFFFFFFFFFFFFFFFFFFFFFF AND PUSH20 0xFFFFFFFFFFFFFFFFFFFFFFFFFFFFFFFFFFFFFFFF AND CALLER PUSH20 0xFFFFFFFFFFFFFFFFFFFFFFFFFFFFFFFFFFFFFFFF AND EQ PUSH2 0xD72 JUMPI PUSH1 0x40 MLOAD PUSH32 0x8C379A000000000000000000000000000000000000000000000000000000000 DUP2 MSTORE PUSH1 0x4 ADD DUP1 DUP1 PUSH1 0x20 ADD DUP3 DUP2 SUB DUP3 MSTORE PUSH1 0x28 DUP2 MSTORE PUSH1 0x20 ADD DUP1 PUSH2 0x1EB2 PUSH1 0x28 SWAP2 CODECOPY PUSH1 0x40 ADD SWAP2 POP POP PUSH1 0x40 MLOAD DUP1 SWAP2 SUB SWAP1 REVERT JUMPDEST PUSH1 0x5 PUSH1 0x0 DUP3 DUP2 MSTORE PUSH1 0x20 ADD SWAP1 DUP2 MSTORE PUSH1 0x20 ADD PUSH1 0x0 KECCAK256 PUSH1 0x0 PUSH2 0x100 EXP DUP2 SLOAD SWAP1 PUSH20 0xFFFFFFFFFFFFFFFFFFFFFFFFFFFFFFFFFFFFFFFF MUL NOT AND SWAP1 SSTORE DUP1 PUSH32 0x7CC135E0CEBB02C3480AE5D74D377283180A2601F8F644EDF7987B009316C63A PUSH1 0x40 MLOAD PUSH1 0x40 MLOAD DUP1 SWAP2 SUB SWAP1 LOG2 DUP4 PUSH32 0xE8CA9082E290894A3F2D4D69A7DDFE4E77EA094BDE4A41014D5B416F4E9803A0 DUP5 DUP5 PUSH1 0x40 MLOAD DUP1 DUP1 PUSH1 0x20 ADD DUP3 DUP2 SUB DUP3 MSTORE DUP5 DUP5 DUP3 DUP2 DUP2 MSTORE PUSH1 0x20 ADD SWAP3 POP DUP1 DUP3 DUP5 CALLDATACOPY PUSH1 0x0 DUP2 DUP5 ADD MSTORE PUSH1 0x1F NOT PUSH1 0x1F DUP3 ADD AND SWAP1 POP DUP1 DUP4 ADD SWAP3 POP POP POP SWAP4 POP POP POP POP PUSH1 0x40 MLOAD DUP1 SWAP2 SUB SWAP1 LOG2 DUP3 DUP3 PUSH1 0x8 SWAP2 SWAP1 PUSH2 0xE4A SWAP3 SWAP2 SWAP1 PUSH2 0x1D5C JUMP JUMPDEST POP POP POP POP POP JUMP JUMPDEST PUSH1 0x0 PUSH1 0x6 PUSH1 0x0 SWAP1 SLOAD SWAP1 PUSH2 0x100 EXP SWAP1 DIV PUSH20 0xFFFFFFFFFFFFFFFFFFFFFFFFFFFFFFFFFFFFFFFF AND SWAP1 POP SWAP1 JUMP JUMPDEST PUSH2 0xE83 PUSH2 0x12D4 JUMP JUMPDEST PUSH1 0x0 PUSH2 0xE8D PUSH2 0x12AA JUMP JUMPDEST SWAP1 POP DUP1 PUSH20 0xFFFFFFFFFFFFFFFFFFFFFFFFFFFFFFFFFFFFFFFF AND PUSH4 0xA9059CBB CALLER DUP4 PUSH20 0xFFFFFFFFFFFFFFFFFFFFFFFFFFFFFFFFFFFFFFFF AND PUSH4 0x70A08231 ADDRESS PUSH1 0x40 MLOAD DUP3 PUSH4 0xFFFFFFFF AND PUSH1 0xE0 SHL DUP2 MSTORE PUSH1 0x4 ADD DUP1 DUP3 PUSH20 0xFFFFFFFFFFFFFFFFFFFFFFFFFFFFFFFFFFFFFFFF AND DUP2 MSTORE PUSH1 0x20 ADD SWAP2 POP POP PUSH1 0x20 PUSH1 0x40 MLOAD DUP1 DUP4 SUB DUP2 DUP7 DUP1 EXTCODESIZE ISZERO DUP1 ISZERO PUSH2 0xF13 JUMPI PUSH1 0x0 DUP1 REVERT JUMPDEST POP GAS STATICCALL ISZERO DUP1 ISZERO PUSH2 0xF27 JUMPI RETURNDATASIZE PUSH1 0x0 DUP1 RETURNDATACOPY RETURNDATASIZE PUSH1 0x0 REVERT JUMPDEST POP POP POP POP PUSH1 0x40 MLOAD RETURNDATASIZE PUSH1 0x20 DUP2 LT ISZERO PUSH2 0xF3D JUMPI PUSH1 0x0 DUP1 REVERT JUMPDEST DUP2 ADD SWAP1 DUP1 DUP1 MLOAD SWAP1 PUSH1 0x20 ADD SWAP1 SWAP3 SWAP2 SWAP1 POP POP POP PUSH1 0x40 MLOAD DUP4 PUSH4 0xFFFFFFFF AND PUSH1 0xE0 SHL DUP2 MSTORE PUSH1 0x4 ADD DUP1 DUP4 PUSH20 0xFFFFFFFFFFFFFFFFFFFFFFFFFFFFFFFFFFFFFFFF AND DUP2 MSTORE PUSH1 0x20 ADD DUP3 DUP2 MSTORE PUSH1 0x20 ADD SWAP3 POP POP POP PUSH1 0x20 PUSH1 0x40 MLOAD DUP1 DUP4 SUB DUP2 PUSH1 0x0 DUP8 DUP1 EXTCODESIZE ISZERO DUP1 ISZERO PUSH2 0xFA1 JUMPI PUSH1 0x0 DUP1 REVERT JUMPDEST POP GAS CALL ISZERO DUP1 ISZERO PUSH2 0xFB5 JUMPI RETURNDATASIZE PUSH1 0x0 DUP1 RETURNDATACOPY RETURNDATASIZE PUSH1 0x0 REVERT JUMPDEST POP POP POP POP PUSH1 0x40 MLOAD RETURNDATASIZE PUSH1 0x20 DUP2 LT ISZERO PUSH2 0xFCB JUMPI PUSH1 0x0 DUP1 REVERT JUMPDEST DUP2 ADD SWAP1 DUP1 DUP1 MLOAD SWAP1 PUSH1 0x20 ADD SWAP1 SWAP3 SWAP2 SWAP1 POP POP POP PUSH2 0x104E JUMPI PUSH1 0x40 MLOAD PUSH32 0x8C379A000000000000000000000000000000000000000000000000000000000 DUP2 MSTORE PUSH1 0x4 ADD DUP1 DUP1 PUSH1 0x20 ADD DUP3 DUP2 SUB DUP3 MSTORE PUSH1 0x12 DUP2 MSTORE PUSH1 0x20 ADD DUP1 PUSH32 0x556E61626C6520746F207472616E736665720000000000000000000000000000 DUP2 MSTORE POP PUSH1 0x20 ADD SWAP2 POP POP PUSH1 0x40 MLOAD DUP1 SWAP2 SUB SWAP1 REVERT JUMPDEST POP JUMP JUMPDEST PUSH2 0x1059 PUSH2 0x12D4 JUMP JUMPDEST PUSH2 0x1065 DUP5 DUP5 DUP5 DUP5 PUSH2 0x1399 JUMP JUMPDEST POP POP POP POP JUMP JUMPDEST PUSH2 0x1073 PUSH2 0x12D4 JUMP JUMPDEST PUSH2 0x107C DUP2 PUSH2 0x14DD JUMP JUMPDEST POP JUMP JUMPDEST PUSH1 0x0 DUP1 DUP3 SWAP1 POP PUSH1 0x0 DUP2 MLOAD EQ ISZERO PUSH2 0x109B JUMPI PUSH1 0x0 DUP1 SHL SWAP2 POP POP PUSH2 0x10A4 JUMP JUMPDEST PUSH1 0x20 DUP4 ADD MLOAD SWAP2 POP POP JUMPDEST SWAP2 SWAP1 POP JUMP JUMPDEST PUSH2 0x10B1 PUSH2 0x1DEA JUMP JUMPDEST PUSH2 0x10B9 PUSH2 0x1DEA JUMP JUMPDEST PUSH2 0x10D0 DUP6 DUP6 DUP6 DUP5 PUSH2 0x163F SWAP1 SWAP4 SWAP3 SWAP2 SWAP1 PUSH4 0xFFFFFFFF AND JUMP JUMPDEST SWAP2 POP POP SWAP4 SWAP3 POP POP POP JUMP JUMPDEST PUSH2 0x10F1 DUP3 DUP5 PUSH1 0x80 ADD MLOAD PUSH2 0x16EF SWAP1 SWAP2 SWAP1 PUSH4 0xFFFFFFFF AND JUMP JUMPDEST PUSH2 0x1108 DUP2 DUP5 PUSH1 0x80 ADD MLOAD PUSH2 0x16EF SWAP1 SWAP2 SWAP1 PUSH4 0xFFFFFFFF AND JUMP JUMPDEST POP POP POP JUMP JUMPDEST PUSH1 0x0 DUP1 PUSH1 0x4 SLOAD SWAP1 POP PUSH1 0x1 DUP2 ADD PUSH1 0x4 DUP2 SWAP1 SSTORE POP PUSH1 0x0 PUSH4 0x40429946 PUSH1 0xE0 SHL PUSH1 0x0 DUP1 DUP8 PUSH1 0x0 ADD MLOAD ADDRESS DUP10 PUSH1 0x40 ADD MLOAD DUP8 PUSH1 0x1 DUP13 PUSH1 0x80 ADD MLOAD PUSH1 0x0 ADD MLOAD PUSH1 0x40 MLOAD PUSH1 0x24 ADD DUP1 DUP10 PUSH20 0xFFFFFFFFFFFFFFFFFFFFFFFFFFFFFFFFFFFFFFFF AND DUP2 MSTORE PUSH1 0x20 ADD DUP9 DUP2 MSTORE PUSH1 0x20 ADD DUP8 DUP2 MSTORE PUSH1 0x20 ADD DUP7 PUSH20 0xFFFFFFFFFFFFFFFFFFFFFFFFFFFFFFFFFFFFFFFF AND DUP2 MSTORE PUSH1 0x20 ADD DUP6 PUSH28 0xFFFFFFFFFFFFFFFFFFFFFFFFFFFFFFFFFFFFFFFFFFFFFFFFFFFFFFFF NOT AND DUP2 MSTORE PUSH1 0x20 ADD DUP5 DUP2 MSTORE PUSH1 0x20 ADD DUP4 DUP2 MSTORE PUSH1 0x20 ADD DUP1 PUSH1 0x20 ADD DUP3 DUP2 SUB DUP3 MSTORE DUP4 DUP2 DUP2 MLOAD DUP2 MSTORE PUSH1 0x20 ADD SWAP2 POP DUP1 MLOAD SWAP1 PUSH1 0x20 ADD SWAP1 DUP1 DUP4 DUP4 PUSH1 0x0 JUMPDEST DUP4 DUP2 LT ISZERO PUSH2 0x11FB JUMPI DUP1 DUP3 ADD MLOAD DUP2 DUP5 ADD MSTORE PUSH1 0x20 DUP2 ADD SWAP1 POP PUSH2 0x11E0 JUMP JUMPDEST POP POP POP POP SWAP1 POP SWAP1 DUP2 ADD SWAP1 PUSH1 0x1F AND DUP1 ISZERO PUSH2 0x1228 JUMPI DUP1 DUP3 SUB DUP1 MLOAD PUSH1 0x1 DUP4 PUSH1 0x20 SUB PUSH2 0x100 EXP SUB NOT AND DUP2 MSTORE PUSH1 0x20 ADD SWAP2 POP JUMPDEST POP SWAP10 POP POP POP POP POP POP POP POP POP POP PUSH1 0x40 MLOAD PUSH1 0x20 DUP2 DUP4 SUB SUB DUP2 MSTORE SWAP1 PUSH1 0x40 MSTORE SWAP1 PUSH28 0xFFFFFFFFFFFFFFFFFFFFFFFFFFFFFFFFFFFFFFFFFFFFFFFFFFFFFFFF NOT AND PUSH1 0x20 DUP3 ADD DUP1 MLOAD PUSH28 0xFFFFFFFFFFFFFFFFFFFFFFFFFFFFFFFFFFFFFFFFFFFFFFFFFFFFFFFF DUP4 DUP2 DUP4 AND OR DUP4 MSTORE POP POP POP POP SWAP1 POP PUSH2 0x129F DUP7 DUP4 DUP7 DUP5 PUSH2 0x1714 JUMP JUMPDEST SWAP3 POP POP POP SWAP4 SWAP3 POP POP POP JUMP JUMPDEST PUSH1 0x0 PUSH1 0x2 PUSH1 0x0 SWAP1 SLOAD SWAP1 PUSH2 0x100 EXP SWAP1 DIV PUSH20 0xFFFFFFFFFFFFFFFFFFFFFFFFFFFFFFFFFFFFFFFF AND SWAP1 POP SWAP1 JUMP JUMPDEST PUSH1 0x6 PUSH1 0x0 SWAP1 SLOAD SWAP1 PUSH2 0x100 EXP SWAP1 DIV PUSH20 0xFFFFFFFFFFFFFFFFFFFFFFFFFFFFFFFFFFFFFFFF AND PUSH20 0xFFFFFFFFFFFFFFFFFFFFFFFFFFFFFFFFFFFFFFFF AND CALLER PUSH20 0xFFFFFFFFFFFFFFFFFFFFFFFFFFFFFFFFFFFFFFFF AND EQ PUSH2 0x1397 JUMPI PUSH1 0x40 MLOAD PUSH32 0x8C379A000000000000000000000000000000000000000000000000000000000 DUP2 MSTORE PUSH1 0x4 ADD DUP1 DUP1 PUSH1 0x20 ADD DUP3 DUP2 SUB DUP3 MSTORE PUSH1 0x16 DUP2 MSTORE PUSH1 0x20 ADD DUP1 PUSH32 0x4F6E6C792063616C6C61626C65206279206F776E657200000000000000000000 DUP2 MSTORE POP PUSH1 0x20 ADD SWAP2 POP POP PUSH1 0x40 MLOAD DUP1 SWAP2 SUB SWAP1 REVERT JUMPDEST JUMP JUMPDEST PUSH1 0x0 PUSH1 0x5 PUSH1 0x0 DUP7 DUP2 MSTORE PUSH1 0x20 ADD SWAP1 DUP2 MSTORE PUSH1 0x20 ADD PUSH1 0x0 KECCAK256 PUSH1 0x0 SWAP1 SLOAD SWAP1 PUSH2 0x100 EXP SWAP1 DIV PUSH20 0xFFFFFFFFFFFFFFFFFFFFFFFFFFFFFFFFFFFFFFFF AND SWAP1 POP PUSH1 0x5 PUSH1 0x0 DUP7 DUP2 MSTORE PUSH1 0x20 ADD SWAP1 DUP2 MSTORE PUSH1 0x20 ADD PUSH1 0x0 KECCAK256 PUSH1 0x0 PUSH2 0x100 EXP DUP2 SLOAD SWAP1 PUSH20 0xFFFFFFFFFFFFFFFFFFFFFFFFFFFFFFFFFFFFFFFF MUL NOT AND SWAP1 SSTORE DUP5 PUSH32 0xE1FE3AFA0F7F761FF0A8B89086790EFD5140D2907EBD5B7FF6BFCB5E075FD4C5 PUSH1 0x40 MLOAD PUSH1 0x40 MLOAD DUP1 SWAP2 SUB SWAP1 LOG2 DUP1 PUSH20 0xFFFFFFFFFFFFFFFFFFFFFFFFFFFFFFFFFFFFFFFF AND PUSH4 0x6EE4D553 DUP7 DUP7 DUP7 DUP7 PUSH1 0x40 MLOAD DUP6 PUSH4 0xFFFFFFFF AND PUSH1 0xE0 SHL DUP2 MSTORE PUSH1 0x4 ADD DUP1 DUP6 DUP2 MSTORE PUSH1 0x20 ADD DUP5 DUP2 MSTORE PUSH1 0x20 ADD DUP4 PUSH28 0xFFFFFFFFFFFFFFFFFFFFFFFFFFFFFFFFFFFFFFFFFFFFFFFFFFFFFFFF NOT AND DUP2 MSTORE PUSH1 0x20 ADD DUP3 DUP2 MSTORE PUSH1 0x20 ADD SWAP5 POP POP POP POP POP PUSH1 0x0 PUSH1 0x40 MLOAD DUP1 DUP4 SUB DUP2 PUSH1 0x0 DUP8 DUP1 EXTCODESIZE ISZERO DUP1 ISZERO PUSH2 0x14BE JUMPI PUSH1 0x0 DUP1 REVERT JUMPDEST POP GAS CALL ISZERO DUP1 ISZERO PUSH2 0x14D2 JUMPI RETURNDATASIZE PUSH1 0x0 DUP1 RETURNDATACOPY RETURNDATASIZE PUSH1 0x0 REVERT JUMPDEST POP POP POP POP POP POP POP POP POP JUMP JUMPDEST CALLER PUSH20 0xFFFFFFFFFFFFFFFFFFFFFFFFFFFFFFFFFFFFFFFF AND DUP2 PUSH20 0xFFFFFFFFFFFFFFFFFFFFFFFFFFFFFFFFFFFFFFFF AND EQ ISZERO PUSH2 0x157F JUMPI PUSH1 0x40 MLOAD PUSH32 0x8C379A000000000000000000000000000000000000000000000000000000000 DUP2 MSTORE PUSH1 0x4 ADD DUP1 DUP1 PUSH1 0x20 ADD DUP3 DUP2 SUB DUP3 MSTORE PUSH1 0x17 DUP2 MSTORE PUSH1 0x20 ADD DUP1 PUSH32 0x43616E6E6F74207472616E7366657220746F2073656C66000000000000000000 DUP2 MSTORE POP PUSH1 0x20 ADD SWAP2 POP POP PUSH1 0x40 MLOAD DUP1 SWAP2 SUB SWAP1 REVERT JUMPDEST DUP1 PUSH1 0x7 PUSH1 0x0 PUSH2 0x100 EXP DUP2 SLOAD DUP2 PUSH20 0xFFFFFFFFFFFFFFFFFFFFFFFFFFFFFFFFFFFFFFFF MUL NOT AND SWAP1 DUP4 PUSH20 0xFFFFFFFFFFFFFFFFFFFFFFFFFFFFFFFFFFFFFFFF AND MUL OR SWAP1 SSTORE POP DUP1 PUSH20 0xFFFFFFFFFFFFFFFFFFFFFFFFFFFFFFFFFFFFFFFF AND PUSH1 0x6 PUSH1 0x0 SWAP1 SLOAD SWAP1 PUSH2 0x100 EXP SWAP1 DIV PUSH20 0xFFFFFFFFFFFFFFFFFFFFFFFFFFFFFFFFFFFFFFFF AND PUSH20 0xFFFFFFFFFFFFFFFFFFFFFFFFFFFFFFFFFFFFFFFF AND PUSH32 0xED8889F560326EB138920D842192F0EB3DD22B4F139C87A2C57538E05BAE1278 PUSH1 0x40 MLOAD PUSH1 0x40 MLOAD DUP1 SWAP2 SUB SWAP1 LOG3 POP JUMP JUMPDEST PUSH2 0x1647 PUSH2 0x1DEA JUMP JUMPDEST PUSH2 0x1657 DUP6 PUSH1 0x80 ADD MLOAD PUSH2 0x100 PUSH2 0x1977 JUMP JUMPDEST POP DUP4 DUP6 PUSH1 0x0 ADD DUP2 DUP2 MSTORE POP POP DUP3 DUP6 PUSH1 0x20 ADD SWAP1 PUSH20 0xFFFFFFFFFFFFFFFFFFFFFFFFFFFFFFFFFFFFFFFF AND SWAP1 DUP2 PUSH20 0xFFFFFFFFFFFFFFFFFFFFFFFFFFFFFFFFFFFFFFFF AND DUP2 MSTORE POP POP DUP2 DUP6 PUSH1 0x40 ADD SWAP1 PUSH28 0xFFFFFFFFFFFFFFFFFFFFFFFFFFFFFFFFFFFFFFFFFFFFFFFFFFFFFFFF NOT AND SWAP1 DUP2 PUSH28 0xFFFFFFFFFFFFFFFFFFFFFFFFFFFFFFFFFFFFFFFFFFFFFFFFFFFFFFFF NOT AND DUP2 MSTORE POP POP DUP5 SWAP1 POP SWAP5 SWAP4 POP POP POP POP JUMP JUMPDEST PUSH2 0x16FC DUP3 PUSH1 0x3 DUP4 MLOAD PUSH2 0x19CB JUMP JUMPDEST PUSH2 0x170F DUP2 DUP4 PUSH2 0x1B50 SWAP1 SWAP2 SWAP1 PUSH4 0xFFFFFFFF AND JUMP JUMPDEST POP POP POP JUMP JUMPDEST PUSH1 0x0 ADDRESS DUP5 PUSH1 0x40 MLOAD PUSH1 0x20 ADD DUP1 DUP4 PUSH20 0xFFFFFFFFFFFFFFFFFFFFFFFFFFFFFFFFFFFFFFFF AND PUSH1 0x60 SHL DUP2 MSTORE PUSH1 0x14 ADD DUP3 DUP2 MSTORE PUSH1 0x20 ADD SWAP3 POP POP POP PUSH1 0x40 MLOAD PUSH1 0x20 DUP2 DUP4 SUB SUB DUP2 MSTORE SWAP1 PUSH1 0x40 MSTORE DUP1 MLOAD SWAP1 PUSH1 0x20 ADD KECCAK256 SWAP1 POP DUP5 PUSH1 0x5 PUSH1 0x0 DUP4 DUP2 MSTORE PUSH1 0x20 ADD SWAP1 DUP2 MSTORE PUSH1 0x20 ADD PUSH1 0x0 KECCAK256 PUSH1 0x0 PUSH2 0x100 EXP DUP2 SLOAD DUP2 PUSH20 0xFFFFFFFFFFFFFFFFFFFFFFFFFFFFFFFFFFFFFFFF MUL NOT AND SWAP1 DUP4 PUSH20 0xFFFFFFFFFFFFFFFFFFFFFFFFFFFFFFFFFFFFFFFF AND MUL OR SWAP1 SSTORE POP DUP1 PUSH32 0xB5E6E01E79F91267DC17B4E6314D5D4D03593D2CEEE0FBB452B750BD70EA5AF9 PUSH1 0x40 MLOAD PUSH1 0x40 MLOAD DUP1 SWAP2 SUB SWAP1 LOG2 PUSH1 0x2 PUSH1 0x0 SWAP1 SLOAD SWAP1 PUSH2 0x100 EXP SWAP1 DIV PUSH20 0xFFFFFFFFFFFFFFFFFFFFFFFFFFFFFFFFFFFFFFFF AND PUSH20 0xFFFFFFFFFFFFFFFFFFFFFFFFFFFFFFFFFFFFFFFF AND PUSH4 0x4000AEA0 DUP7 DUP6 DUP6 PUSH1 0x40 MLOAD DUP5 PUSH4 0xFFFFFFFF AND PUSH1 0xE0 SHL DUP2 MSTORE PUSH1 0x4 ADD DUP1 DUP5 PUSH20 0xFFFFFFFFFFFFFFFFFFFFFFFFFFFFFFFFFFFFFFFF AND DUP2 MSTORE PUSH1 0x20 ADD DUP4 DUP2 MSTORE PUSH1 0x20 ADD DUP1 PUSH1 0x20 ADD DUP3 DUP2 SUB DUP3 MSTORE DUP4 DUP2 DUP2 MLOAD DUP2 MSTORE PUSH1 0x20 ADD SWAP2 POP DUP1 MLOAD SWAP1 PUSH1 0x20 ADD SWAP1 DUP1 DUP4 DUP4 PUSH1 0x0 JUMPDEST DUP4 DUP2 LT ISZERO PUSH2 0x1891 JUMPI DUP1 DUP3 ADD MLOAD DUP2 DUP5 ADD MSTORE PUSH1 0x20 DUP2 ADD SWAP1 POP PUSH2 0x1876 JUMP JUMPDEST POP POP POP POP SWAP1 POP SWAP1 DUP2 ADD SWAP1 PUSH1 0x1F AND DUP1 ISZERO PUSH2 0x18BE JUMPI DUP1 DUP3 SUB DUP1 MLOAD PUSH1 0x1 DUP4 PUSH1 0x20 SUB PUSH2 0x100 EXP SUB NOT AND DUP2 MSTORE PUSH1 0x20 ADD SWAP2 POP JUMPDEST POP SWAP5 POP POP POP POP POP PUSH1 0x20 PUSH1 0x40 MLOAD DUP1 DUP4 SUB DUP2 PUSH1 0x0 DUP8 DUP1 EXTCODESIZE ISZERO DUP1 ISZERO PUSH2 0x18DF JUMPI PUSH1 0x0 DUP1 REVERT JUMPDEST POP GAS CALL ISZERO DUP1 ISZERO PUSH2 0x18F3 JUMPI RETURNDATASIZE PUSH1 0x0 DUP1 RETURNDATACOPY RETURNDATASIZE PUSH1 0x0 REVERT JUMPDEST POP POP POP POP PUSH1 0x40 MLOAD RETURNDATASIZE PUSH1 0x20 DUP2 LT ISZERO PUSH2 0x1909 JUMPI PUSH1 0x0 DUP1 REVERT JUMPDEST DUP2 ADD SWAP1 DUP1 DUP1 MLOAD SWAP1 PUSH1 0x20 ADD SWAP1 SWAP3 SWAP2 SWAP1 POP POP POP PUSH2 0x196F JUMPI PUSH1 0x40 MLOAD PUSH32 0x8C379A000000000000000000000000000000000000000000000000000000000 DUP2 MSTORE PUSH1 0x4 ADD DUP1 DUP1 PUSH1 0x20 ADD DUP3 DUP2 SUB DUP3 MSTORE PUSH1 0x23 DUP2 MSTORE PUSH1 0x20 ADD DUP1 PUSH2 0x1E8F PUSH1 0x23 SWAP2 CODECOPY PUSH1 0x40 ADD SWAP2 POP POP PUSH1 0x40 MLOAD DUP1 SWAP2 SUB SWAP1 REVERT JUMPDEST SWAP5 SWAP4 POP POP POP POP JUMP JUMPDEST PUSH2 0x197F PUSH2 0x1E57 JUMP JUMPDEST PUSH1 0x0 PUSH1 0x20 DUP4 DUP2 PUSH2 0x198B JUMPI INVALID JUMPDEST MOD EQ PUSH2 0x19A4 JUMPI PUSH1 0x20 DUP3 DUP2 PUSH2 0x199B JUMPI INVALID JUMPDEST MOD PUSH1 0x20 SUB DUP3 ADD SWAP2 POP JUMPDEST DUP2 DUP4 PUSH1 0x20 ADD DUP2 DUP2 MSTORE POP POP PUSH1 0x40 MLOAD DUP1 DUP5 MSTORE PUSH1 0x0 DUP2 MSTORE DUP3 DUP2 ADD PUSH1 0x20 ADD PUSH1 0x40 MSTORE POP DUP3 SWAP1 POP SWAP3 SWAP2 POP POP JUMP JUMPDEST PUSH1 0x17 DUP2 PUSH8 0xFFFFFFFFFFFFFFFF AND GT PUSH2 0x1A02 JUMPI PUSH2 0x19FC DUP2 PUSH1 0x5 DUP5 PUSH1 0xFF AND SWAP1 SHL PUSH1 0xFF AND OR DUP5 PUSH2 0x1B72 SWAP1 SWAP2 SWAP1 PUSH4 0xFFFFFFFF AND JUMP JUMPDEST POP PUSH2 0x1B4B JUMP JUMPDEST PUSH1 0xFF DUP2 PUSH8 0xFFFFFFFFFFFFFFFF AND GT PUSH2 0x1A58 JUMPI PUSH2 0x1A31 PUSH1 0x18 PUSH1 0x5 DUP5 PUSH1 0xFF AND SWAP1 SHL OR DUP5 PUSH2 0x1B72 SWAP1 SWAP2 SWAP1 PUSH4 0xFFFFFFFF AND JUMP JUMPDEST POP PUSH2 0x1A52 DUP2 PUSH8 0xFFFFFFFFFFFFFFFF AND PUSH1 0x1 DUP6 PUSH2 0x1B92 SWAP1 SWAP3 SWAP2 SWAP1 PUSH4 0xFFFFFFFF AND JUMP JUMPDEST POP PUSH2 0x1B4A JUMP JUMPDEST PUSH2 0xFFFF DUP2 PUSH8 0xFFFFFFFFFFFFFFFF AND GT PUSH2 0x1AAF JUMPI PUSH2 0x1A88 PUSH1 0x19 PUSH1 0x5 DUP5 PUSH1 0xFF AND SWAP1 SHL OR DUP5 PUSH2 0x1B72 SWAP1 SWAP2 SWAP1 PUSH4 0xFFFFFFFF AND JUMP JUMPDEST POP PUSH2 0x1AA9 DUP2 PUSH8 0xFFFFFFFFFFFFFFFF AND PUSH1 0x2 DUP6 PUSH2 0x1B92 SWAP1 SWAP3 SWAP2 SWAP1 PUSH4 0xFFFFFFFF AND JUMP JUMPDEST POP PUSH2 0x1B49 JUMP JUMPDEST PUSH4 0xFFFFFFFF DUP2 PUSH8 0xFFFFFFFFFFFFFFFF AND GT PUSH2 0x1B08 JUMPI PUSH2 0x1AE1 PUSH1 0x1A PUSH1 0x5 DUP5 PUSH1 0xFF AND SWAP1 SHL OR DUP5 PUSH2 0x1B72 SWAP1 SWAP2 SWAP1 PUSH4 0xFFFFFFFF AND JUMP JUMPDEST POP PUSH2 0x1B02 DUP2 PUSH8 0xFFFFFFFFFFFFFFFF AND PUSH1 0x4 DUP6 PUSH2 0x1B92 SWAP1 SWAP3 SWAP2 SWAP1 PUSH4 0xFFFFFFFF AND JUMP JUMPDEST POP PUSH2 0x1B48 JUMP JUMPDEST PUSH2 0x1B25 PUSH1 0x1B PUSH1 0x5 DUP5 PUSH1 0xFF AND SWAP1 SHL OR DUP5 PUSH2 0x1B72 SWAP1 SWAP2 SWAP1 PUSH4 0xFFFFFFFF AND JUMP JUMPDEST POP PUSH2 0x1B46 DUP2 PUSH8 0xFFFFFFFFFFFFFFFF AND PUSH1 0x8 DUP6 PUSH2 0x1B92 SWAP1 SWAP3 SWAP2 SWAP1 PUSH4 0xFFFFFFFF AND JUMP JUMPDEST POP JUMPDEST JUMPDEST JUMPDEST JUMPDEST POP POP POP JUMP JUMPDEST PUSH2 0x1B58 PUSH2 0x1E57 JUMP JUMPDEST PUSH2 0x1B6A DUP4 DUP5 PUSH1 0x0 ADD MLOAD MLOAD DUP5 DUP6 MLOAD PUSH2 0x1BB4 JUMP JUMPDEST SWAP1 POP SWAP3 SWAP2 POP POP JUMP JUMPDEST PUSH2 0x1B7A PUSH2 0x1E57 JUMP JUMPDEST PUSH2 0x1B8A DUP4 DUP5 PUSH1 0x0 ADD MLOAD MLOAD DUP5 PUSH2 0x1C6D JUMP JUMPDEST SWAP1 POP SWAP3 SWAP2 POP POP JUMP JUMPDEST PUSH2 0x1B9A PUSH2 0x1E57 JUMP JUMPDEST PUSH2 0x1BAB DUP5 DUP6 PUSH1 0x0 ADD MLOAD MLOAD DUP6 DUP6 PUSH2 0x1CBB JUMP JUMPDEST SWAP1 POP SWAP4 SWAP3 POP POP POP JUMP JUMPDEST PUSH2 0x1BBC PUSH2 0x1E57 JUMP JUMPDEST DUP3 MLOAD DUP3 GT ISZERO PUSH2 0x1BCA JUMPI PUSH1 0x0 DUP1 REVERT JUMPDEST DUP5 PUSH1 0x20 ADD MLOAD DUP3 DUP6 ADD GT ISZERO PUSH2 0x1BF5 JUMPI PUSH2 0x1BF4 DUP6 PUSH1 0x2 PUSH2 0x1BEE DUP9 PUSH1 0x20 ADD MLOAD DUP9 DUP8 ADD PUSH2 0x1D1C JUMP JUMPDEST MUL PUSH2 0x1D38 JUMP JUMPDEST JUMPDEST PUSH1 0x0 DUP1 DUP7 MLOAD DUP1 MLOAD DUP8 PUSH1 0x20 DUP4 ADD ADD SWAP4 POP DUP1 DUP9 DUP8 ADD GT ISZERO PUSH2 0x1C14 JUMPI DUP8 DUP7 ADD DUP3 MSTORE JUMPDEST PUSH1 0x20 DUP8 ADD SWAP3 POP POP POP JUMPDEST PUSH1 0x20 DUP5 LT PUSH2 0x1C40 JUMPI DUP1 MLOAD DUP3 MSTORE PUSH1 0x20 DUP3 ADD SWAP2 POP PUSH1 0x20 DUP2 ADD SWAP1 POP PUSH1 0x20 DUP5 SUB SWAP4 POP PUSH2 0x1C1D JUMP JUMPDEST PUSH1 0x0 PUSH1 0x1 DUP6 PUSH1 0x20 SUB PUSH2 0x100 EXP SUB SWAP1 POP DUP1 NOT DUP3 MLOAD AND DUP2 DUP5 MLOAD AND DUP2 DUP2 OR DUP6 MSTORE POP POP DUP8 SWAP4 POP POP POP POP SWAP5 SWAP4 POP POP POP POP JUMP JUMPDEST PUSH2 0x1C75 PUSH2 0x1E57 JUMP JUMPDEST DUP4 PUSH1 0x20 ADD MLOAD DUP4 LT PUSH2 0x1C92 JUMPI PUSH2 0x1C91 DUP5 PUSH1 0x2 DUP7 PUSH1 0x20 ADD MLOAD MUL PUSH2 0x1D38 JUMP JUMPDEST JUMPDEST DUP4 MLOAD DUP1 MLOAD PUSH1 0x20 DUP6 DUP4 ADD ADD DUP5 DUP2 MSTORE8 DUP2 DUP7 EQ ISZERO PUSH2 0x1CAE JUMPI PUSH1 0x1 DUP3 ADD DUP4 MSTORE JUMPDEST POP POP POP DUP4 SWAP1 POP SWAP4 SWAP3 POP POP POP JUMP JUMPDEST PUSH2 0x1CC3 PUSH2 0x1E57 JUMP JUMPDEST DUP5 PUSH1 0x20 ADD MLOAD DUP5 DUP4 ADD GT ISZERO PUSH2 0x1CE1 JUMPI PUSH2 0x1CE0 DUP6 PUSH1 0x2 DUP7 DUP6 ADD MUL PUSH2 0x1D38 JUMP JUMPDEST JUMPDEST PUSH1 0x0 PUSH1 0x1 DUP4 PUSH2 0x100 EXP SUB SWAP1 POP DUP6 MLOAD DUP4 DUP7 DUP3 ADD ADD DUP6 DUP4 NOT DUP3 MLOAD AND OR DUP2 MSTORE DUP2 MLOAD DUP6 DUP9 ADD GT ISZERO PUSH2 0x1D0E JUMPI DUP5 DUP8 ADD DUP3 MSTORE JUMPDEST POP POP DUP6 SWAP2 POP POP SWAP5 SWAP4 POP POP POP POP JUMP JUMPDEST PUSH1 0x0 DUP2 DUP4 GT ISZERO PUSH2 0x1D2E JUMPI DUP3 SWAP1 POP PUSH2 0x1D32 JUMP JUMPDEST DUP2 SWAP1 POP JUMPDEST SWAP3 SWAP2 POP POP JUMP JUMPDEST PUSH1 0x0 DUP3 PUSH1 0x0 ADD MLOAD SWAP1 POP PUSH2 0x1D4B DUP4 DUP4 PUSH2 0x1977 JUMP JUMPDEST POP PUSH2 0x1D56 DUP4 DUP3 PUSH2 0x1B50 JUMP JUMPDEST POP POP POP POP JUMP JUMPDEST DUP3 DUP1 SLOAD PUSH1 0x1 DUP2 PUSH1 0x1 AND ISZERO PUSH2 0x100 MUL SUB AND PUSH1 0x2 SWAP1 DIV SWAP1 PUSH1 0x0 MSTORE PUSH1 0x20 PUSH1 0x0 KECCAK256 SWAP1 PUSH1 0x1F ADD PUSH1 0x20 SWAP1 DIV DUP2 ADD SWAP3 DUP3 PUSH2 0x1D92 JUMPI PUSH1 0x0 DUP6 SSTORE PUSH2 0x1DD9 JUMP JUMPDEST DUP3 PUSH1 0x1F LT PUSH2 0x1DAB JUMPI DUP1 CALLDATALOAD PUSH1 0xFF NOT AND DUP4 DUP1 ADD OR DUP6 SSTORE PUSH2 0x1DD9 JUMP JUMPDEST DUP3 DUP1 ADD PUSH1 0x1 ADD DUP6 SSTORE DUP3 ISZERO PUSH2 0x1DD9 JUMPI SWAP2 DUP3 ADD JUMPDEST DUP3 DUP2 GT ISZERO PUSH2 0x1DD8 JUMPI DUP3 CALLDATALOAD DUP3 SSTORE SWAP2 PUSH1 0x20 ADD SWAP2 SWAP1 PUSH1 0x1 ADD SWAP1 PUSH2 0x1DBD JUMP JUMPDEST JUMPDEST POP SWAP1 POP PUSH2 0x1DE6 SWAP2 SWAP1 PUSH2 0x1E71 JUMP JUMPDEST POP SWAP1 JUMP JUMPDEST PUSH1 0x40 MLOAD DUP1 PUSH1 0xA0 ADD PUSH1 0x40 MSTORE DUP1 PUSH1 0x0 DUP1 NOT AND DUP2 MSTORE PUSH1 0x20 ADD PUSH1 0x0 PUSH20 0xFFFFFFFFFFFFFFFFFFFFFFFFFFFFFFFFFFFFFFFF AND DUP2 MSTORE PUSH1 0x20 ADD PUSH1 0x0 PUSH28 0xFFFFFFFFFFFFFFFFFFFFFFFFFFFFFFFFFFFFFFFFFFFFFFFFFFFFFFFF NOT AND DUP2 MSTORE PUSH1 0x20 ADD PUSH1 0x0 DUP2 MSTORE PUSH1 0x20 ADD PUSH2 0x1E51 PUSH2 0x1E57 JUMP JUMPDEST DUP2 MSTORE POP SWAP1 JUMP JUMPDEST PUSH1 0x40 MLOAD DUP1 PUSH1 0x40 ADD PUSH1 0x40 MSTORE DUP1 PUSH1 0x60 DUP2 MSTORE PUSH1 0x20 ADD PUSH1 0x0 DUP2 MSTORE POP SWAP1 JUMP JUMPDEST JUMPDEST DUP1 DUP3 GT ISZERO PUSH2 0x1E8A JUMPI PUSH1 0x0 DUP2 PUSH1 0x0 SWAP1 SSTORE POP PUSH1 0x1 ADD PUSH2 0x1E72 JUMP JUMPDEST POP SWAP1 JUMP INVALID PUSH22 0x6E61626C6520746F207472616E73666572416E644361 PUSH13 0x6C20746F206F7261636C65536F PUSH22 0x726365206D75737420626520746865206F7261636C65 KECCAK256 PUSH16 0x66207468652072657175657374A26469 PUSH17 0x66735822122091C74124FFFC71DDB1DD74 0x2B SLOAD PUSH10 0x90595311956426F6E187 0xA8 0x21 CALLDATALOAD CODESIZE SWAP13 KECCAK256 0xC4 0x27 PUSH5 0x736F6C6343 STOP SMOD MOD STOP CALLER "},"methodIdentifiers":{"acceptOwnership()":"79ba5097","addressToString(address)":"5e57966d","cancelRequest(bytes32,uint256,bytes4,uint256)":"ec65d0f8","currentDeployStatus()":"5204c160","fulfillDeployStatus(bytes32,string)":"8b5c11e4","getChainlinkToken()":"165d35e1","owner()":"8da5cb5b","requestContainerDeploy(address,string,string,string,string)":"0aa1fcfb","transferOwnership(address)":"f2fde38b","withdrawLink()":"8dc654a2"}}}}}