{
  "_format": "hh-sol-artifact-1",
  "contractName": "ZtControl",
  "sourceName": "contracts/oracle/ZtControl.sol",
  "abi": [
    {
      "inputs": [
        {
          "internalType": "uint256",
          "name": "_fee",
          "type": "uint256"
        },
        {
          "internalType": "address",
          "name": "_link",
          "type": "address"
        }
      ],
      "stateMutability": "nonpayable",
      "type": "constructor"
    },
    {
      "anonymous": false,
      "inputs": [
        {
          "indexed": true,
          "internalType": "bytes32",
          "name": "id",
          "type": "bytes32"
        }
      ],
      "name": "ChainlinkCancelled",
      "type": "event"
    },
    {
      "anonymous": false,
      "inputs": [
        {
          "indexed": true,
          "internalType": "bytes32",
          "name": "id",
          "type": "bytes32"
        }
      ],
      "name": "ChainlinkFulfilled",
      "type": "event"
    },
    {
      "anonymous": false,
      "inputs": [
        {
          "indexed": true,
          "internalType": "bytes32",
          "name": "id",
          "type": "bytes32"
        }
      ],
      "name": "ChainlinkRequested",
      "type": "event"
    },
    {
      "anonymous": false,
      "inputs": [
        {
          "indexed": true,
          "internalType": "address",
          "name": "from",
          "type": "address"
        },
        {
          "indexed": true,
          "internalType": "address",
          "name": "to",
          "type": "address"
        }
      ],
      "name": "OwnershipTransferRequested",
      "type": "event"
    },
    {
      "anonymous": false,
      "inputs": [
        {
          "indexed": true,
          "internalType": "address",
          "name": "from",
          "type": "address"
        },
        {
          "indexed": true,
          "internalType": "address",
          "name": "to",
          "type": "address"
        }
      ],
      "name": "OwnershipTransferred",
      "type": "event"
    },
    {
      "anonymous": false,
      "inputs": [
        {
          "indexed": true,
          "internalType": "bytes32",
          "name": "_requestUID",
          "type": "bytes32"
        },
        {
          "indexed": false,
          "internalType": "string",
          "name": "data",
          "type": "string"
        }
      ],
      "name": "RequestFulfilled",
      "type": "event"
    },
    {
      "inputs": [
        {
          "internalType": "bytes32",
          "name": "",
          "type": "bytes32"
        }
      ],
      "name": "_result",
      "outputs": [
        {
          "internalType": "string",
          "name": "",
          "type": "string"
        }
      ],
      "stateMutability": "view",
      "type": "function"
    },
    {
      "inputs": [
        {
          "internalType": "string",
          "name": "",
          "type": "string"
        }
      ],
      "name": "_sites",
      "outputs": [
        {
          "internalType": "bytes32",
          "name": "jobId",
          "type": "bytes32"
        },
        {
          "internalType": "address",
          "name": "oracle",
          "type": "address"
        },
        {
          "internalType": "string",
          "name": "host",
          "type": "string"
        }
      ],
      "stateMutability": "view",
      "type": "function"
    },
    {
      "inputs": [],
      "name": "acceptOwnership",
      "outputs": [],
      "stateMutability": "nonpayable",
      "type": "function"
    },
    {
      "inputs": [],
      "name": "currentData",
      "outputs": [
        {
          "internalType": "string",
          "name": "",
          "type": "string"
        }
      ],
      "stateMutability": "view",
      "type": "function"
    },
    {
      "inputs": [],
      "name": "currentKey",
      "outputs": [
        {
          "internalType": "bytes32",
          "name": "",
          "type": "bytes32"
        }
      ],
      "stateMutability": "view",
      "type": "function"
    },
    {
      "inputs": [
        {
          "internalType": "string",
          "name": "_siteName",
          "type": "string"
        },
        {
          "internalType": "string",
          "name": "_requestData",
          "type": "string"
        },
        {
          "internalType": "bytes32",
          "name": "_requestUID",
          "type": "bytes32"
        }
      ],
      "name": "forbidTls",
      "outputs": [],
      "stateMutability": "nonpayable",
      "type": "function"
    },
    {
      "inputs": [
        {
          "internalType": "bytes32",
          "name": "_requestId",
          "type": "bytes32"
        },
        {
          "internalType": "bytes32",
          "name": "_requestUID",
          "type": "bytes32"
        },
        {
          "internalType": "string",
          "name": "_stringData",
          "type": "string"
        }
      ],
      "name": "fulfill",
      "outputs": [],
      "stateMutability": "nonpayable",
      "type": "function"
    },
    {
      "inputs": [
        {
          "internalType": "bytes32",
          "name": "_requestUID",
          "type": "bytes32"
        }
      ],
      "name": "getResultData",
      "outputs": [
        {
          "internalType": "string",
          "name": "",
          "type": "string"
        }
      ],
      "stateMutability": "view",
      "type": "function"
    },
    {
      "inputs": [],
      "name": "owner",
      "outputs": [
        {
          "internalType": "address",
          "name": "",
          "type": "address"
        }
      ],
      "stateMutability": "view",
      "type": "function"
    },
    {
      "inputs": [
        {
          "internalType": "string",
          "name": "_siteName",
          "type": "string"
        },
        {
          "internalType": "string",
          "name": "_requestData",
          "type": "string"
        },
        {
          "internalType": "bytes32",
          "name": "_requestUID",
          "type": "bytes32"
        }
      ],
      "name": "recoverCert",
      "outputs": [],
      "stateMutability": "nonpayable",
      "type": "function"
    },
    {
      "inputs": [
        {
          "internalType": "string",
          "name": "_siteName",
          "type": "string"
        },
        {
          "internalType": "string",
          "name": "_requestData",
          "type": "string"
        },
        {
          "internalType": "bytes32",
          "name": "_requestUID",
          "type": "bytes32"
        }
      ],
      "name": "recoverTls",
      "outputs": [],
      "stateMutability": "nonpayable",
      "type": "function"
    },
    {
      "inputs": [
        {
          "internalType": "string",
          "name": "_siteName",
          "type": "string"
        },
        {
          "internalType": "string",
          "name": "_requestData",
          "type": "string"
        },
        {
          "internalType": "bytes32",
          "name": "_requestUID",
          "type": "bytes32"
        }
      ],
      "name": "revokeCert",
      "outputs": [],
      "stateMutability": "nonpayable",
      "type": "function"
    },
    {
      "inputs": [
        {
          "internalType": "string",
          "name": "_name",
          "type": "string"
        },
        {
          "internalType": "string",
          "name": "_jobId",
          "type": "string"
        },
        {
          "internalType": "address",
          "name": "_oracle",
          "type": "address"
        },
        {
          "internalType": "string",
          "name": "host",
          "type": "string"
        }
      ],
      "name": "setSites",
      "outputs": [],
      "stateMutability": "nonpayable",
      "type": "function"
    },
    {
      "inputs": [
        {
          "internalType": "string",
          "name": "_siteName",
          "type": "string"
        },
        {
          "internalType": "string",
          "name": "_requestData",
          "type": "string"
        },
        {
          "internalType": "bytes32",
          "name": "_requestUID",
          "type": "bytes32"
        }
      ],
      "name": "switchListen",
      "outputs": [],
      "stateMutability": "nonpayable",
      "type": "function"
    },
    {
      "inputs": [
        {
          "internalType": "address",
          "name": "to",
          "type": "address"
        }
      ],
      "name": "transferOwnership",
      "outputs": [],
      "stateMutability": "nonpayable",
      "type": "function"
    },
    {
      "inputs": [],
      "name": "withdrawLink",
      "outputs": [],
      "stateMutability": "nonpayable",
      "type": "function"
    }
  ],
  "bytecode": "0x608060405260016004553480156200001657600080fd5b5060405162003bde38038062003bde83398181016040528101906200003c919062000376565b338060008073ffffffffffffffffffffffffffffffffffffffff168273ffffffffffffffffffffffffffffffffffffffff1603620000b1576040517f08c379a0000000000000000000000000000000000000000000000000000000008152600401620000a8906200041e565b60405180910390fd5b81600660006101000a81548173ffffffffffffffffffffffffffffffffffffffff021916908373ffffffffffffffffffffffffffffffffffffffff160217905550600073ffffffffffffffffffffffffffffffffffffffff168173ffffffffffffffffffffffffffffffffffffffff1614620001395762000138816200015c60201b60201c565b5b5050506200014d816200028d60201b60201c565b816009819055505050620004b2565b3373ffffffffffffffffffffffffffffffffffffffff168173ffffffffffffffffffffffffffffffffffffffff1603620001cd576040517f08c379a0000000000000000000000000000000000000000000000000000000008152600401620001c49062000490565b60405180910390fd5b80600760006101000a81548173ffffffffffffffffffffffffffffffffffffffff021916908373ffffffffffffffffffffffffffffffffffffffff1602179055508073ffffffffffffffffffffffffffffffffffffffff16600660009054906101000a900473ffffffffffffffffffffffffffffffffffffffff1673ffffffffffffffffffffffffffffffffffffffff167fed8889f560326eb138920d842192f0eb3dd22b4f139c87a2c57538e05bae127860405160405180910390a350565b80600260006101000a81548173ffffffffffffffffffffffffffffffffffffffff021916908373ffffffffffffffffffffffffffffffffffffffff16021790555050565b600080fd5b6000819050919050565b620002eb81620002d6565b8114620002f757600080fd5b50565b6000815190506200030b81620002e0565b92915050565b600073ffffffffffffffffffffffffffffffffffffffff82169050919050565b60006200033e8262000311565b9050919050565b620003508162000331565b81146200035c57600080fd5b50565b600081519050620003708162000345565b92915050565b6000806040838503121562000390576200038f620002d1565b5b6000620003a085828601620002fa565b9250506020620003b3858286016200035f565b9150509250929050565b600082825260208201905092915050565b7f43616e6e6f7420736574206f776e657220746f207a65726f0000000000000000600082015250565b600062000406601883620003bd565b91506200041382620003ce565b602082019050919050565b600060208201905081810360008301526200043981620003f7565b9050919050565b7f43616e6e6f74207472616e7366657220746f2073656c66000000000000000000600082015250565b600062000478601783620003bd565b9150620004858262000440565b602082019050919050565b60006020820190508181036000830152620004ab8162000469565b9050919050565b61371c80620004c26000396000f3fe608060405234801561001057600080fd5b50600436106101005760003560e01c80637cb4509b11610097578063a0ddb41811610066578063a0ddb41814610273578063e839d5bd14610291578063ed464c4d146102ad578063f2fde38b146102c957610100565b80637cb4509b146101e957806388bf2fa51461021b5780638da5cb5b1461024b5780638dc654a21461026957610100565b80636f4ed9b0116100d35780636f4ed9b01461018b5780637313ad7f146101a757806379ba5097146101c35780637c60eba6146101cd57610100565b806309dfb8ea1461010557806316f839b5146101215780633c738b0d1461015157806358eea4ad1461016d575b600080fd5b61011f600480360381019061011a919061254a565b6102e5565b005b61013b600480360381019061013691906125d5565b6104a1565b604051610148919061268a565b60405180910390f35b61016b6004803603810190610166919061254a565b610541565b005b6101756106fd565b604051610182919061268a565b60405180910390f35b6101a560048036038101906101a0919061254a565b61078b565b005b6101c160048036038101906101bc919061254a565b610947565b005b6101cb610b03565b005b6101e760048036038101906101e2919061254a565b610c9a565b005b61020360048036038101906101fe91906126ac565b610e56565b60405161021293929190612745565b60405180910390f35b610235600480360381019061023091906125d5565b610f3e565b604051610242919061268a565b60405180910390f35b610253610fe3565b6040516102609190612783565b60405180910390f35b61027161100d565b005b61027b61115a565b604051610288919061279e565b60405180910390f35b6102ab60048036038101906102a691906127b9565b611160565b005b6102c760048036038101906102c29190612854565b6112e9565b005b6102e360048036038101906102de919061290f565b611459565b005b82600073ffffffffffffffffffffffffffffffffffffffff16600c8260405161030e9190612978565b908152602001604051809103902060010160009054906101000a900473ffffffffffffffffffffffffffffffffffffffff1673ffffffffffffffffffffffffffffffffffffffff1603610396576040517f08c379a000000000000000000000000000000000000000000000000000000000815260040161038d906129db565b60405180910390fd5b60008351116103da576040518060400160405280600481526020017f6533303d000000000000000000000000000000000000000000000000000000008152506103dc565b825b92506000600c856040516103f09190612978565b90815260200160405180910390206002016040516020016104119190612b61565b604051602081830303815290604052905061049a6040518060400160405280600481526020017f504f535400000000000000000000000000000000000000000000000000000000815250826040518060400160405280600481526020017f5731303d0000000000000000000000000000000000000000000000000000000081525087898861146d565b5050505050565b600860205280600052604060002060009150905080546104c090612a2a565b80601f01602080910402602001604051908101604052809291908181526020018280546104ec90612a2a565b80156105395780601f1061050e57610100808354040283529160200191610539565b820191906000526020600020905b81548152906001019060200180831161051c57829003601f168201915b505050505081565b82600073ffffffffffffffffffffffffffffffffffffffff16600c8260405161056a9190612978565b908152602001604051809103902060010160009054906101000a900473ffffffffffffffffffffffffffffffffffffffff1673ffffffffffffffffffffffffffffffffffffffff16036105f2576040517f08c379a00000000000000000000000000000000000000000000000000000000081526004016105e9906129db565b60405180910390fd5b6000835111610636576040518060400160405280600481526020017f6533303d00000000000000000000000000000000000000000000000000000000815250610638565b825b92506000600c8560405161064c9190612978565b908152602001604051809103902060020160405160200161066d9190612bf5565b60405160208183030381529060405290506106f66040518060400160405280600481526020017f504f535400000000000000000000000000000000000000000000000000000000815250826040518060400160405280600481526020017f5731303d0000000000000000000000000000000000000000000000000000000081525087898861146d565b5050505050565b600b805461070a90612a2a565b80601f016020809104026020016040519081016040528092919081815260200182805461073690612a2a565b80156107835780601f1061075857610100808354040283529160200191610783565b820191906000526020600020905b81548152906001019060200180831161076657829003601f168201915b505050505081565b82600073ffffffffffffffffffffffffffffffffffffffff16600c826040516107b49190612978565b908152602001604051809103902060010160009054906101000a900473ffffffffffffffffffffffffffffffffffffffff1673ffffffffffffffffffffffffffffffffffffffff160361083c576040517f08c379a0000000000000000000000000000000000000000000000000000000008152600401610833906129db565b60405180910390fd5b6000835111610880576040518060400160405280600481526020017f6533303d00000000000000000000000000000000000000000000000000000000815250610882565b825b92506000600c856040516108969190612978565b90815260200160405180910390206002016040516020016108b79190612c63565b60405160208183030381529060405290506109406040518060400160405280600481526020017f504f535400000000000000000000000000000000000000000000000000000000815250826040518060400160405280600481526020017f5731303d0000000000000000000000000000000000000000000000000000000081525087898861146d565b5050505050565b82600073ffffffffffffffffffffffffffffffffffffffff16600c826040516109709190612978565b908152602001604051809103902060010160009054906101000a900473ffffffffffffffffffffffffffffffffffffffff1673ffffffffffffffffffffffffffffffffffffffff16036109f8576040517f08c379a00000000000000000000000000000000000000000000000000000000081526004016109ef906129db565b60405180910390fd5b6000835111610a3c576040518060400160405280600481526020017f6533303d00000000000000000000000000000000000000000000000000000000815250610a3e565b825b92506000600c85604051610a529190612978565b9081526020016040518091039020600201604051602001610a739190612cf7565b6040516020818303038152906040529050610afc6040518060400160405280600481526020017f504f535400000000000000000000000000000000000000000000000000000000815250826040518060400160405280600481526020017f5731303d0000000000000000000000000000000000000000000000000000000081525087898861146d565b5050505050565b600760009054906101000a900473ffffffffffffffffffffffffffffffffffffffff1673ffffffffffffffffffffffffffffffffffffffff163373ffffffffffffffffffffffffffffffffffffffff1614610b93576040517f08c379a0000000000000000000000000000000000000000000000000000000008152600401610b8a90612d65565b60405180910390fd5b6000600660009054906101000a900473ffffffffffffffffffffffffffffffffffffffff16905033600660006101000a81548173ffffffffffffffffffffffffffffffffffffffff021916908373ffffffffffffffffffffffffffffffffffffffff1602179055506000600760006101000a81548173ffffffffffffffffffffffffffffffffffffffff021916908373ffffffffffffffffffffffffffffffffffffffff1602179055503373ffffffffffffffffffffffffffffffffffffffff168173ffffffffffffffffffffffffffffffffffffffff167f8be0079c531659141344cd1fd0a4f28419497f9722a3daafe3b4186f6b6457e060405160405180910390a350565b82600073ffffffffffffffffffffffffffffffffffffffff16600c82604051610cc39190612978565b908152602001604051809103902060010160009054906101000a900473ffffffffffffffffffffffffffffffffffffffff1673ffffffffffffffffffffffffffffffffffffffff1603610d4b576040517f08c379a0000000000000000000000000000000000000000000000000000000008152600401610d42906129db565b60405180910390fd5b6000835111610d8f576040518060400160405280600481526020017f6533303d00000000000000000000000000000000000000000000000000000000815250610d91565b825b92506000600c85604051610da59190612978565b9081526020016040518091039020600201604051602001610dc69190612df7565b6040516020818303038152906040529050610e4f6040518060400160405280600481526020017f504f535400000000000000000000000000000000000000000000000000000000815250826040518060400160405280600481526020017f5731303d0000000000000000000000000000000000000000000000000000000081525087898861146d565b5050505050565b600c818051602081018201805184825260208301602085012081835280955050505050506000915090508060000154908060010160009054906101000a900473ffffffffffffffffffffffffffffffffffffffff1690806002018054610ebb90612a2a565b80601f0160208091040260200160405190810160405280929190818152602001828054610ee790612a2a565b8015610f345780601f10610f0957610100808354040283529160200191610f34565b820191906000526020600020905b815481529060010190602001808311610f1757829003601f168201915b5050505050905083565b6060600860008381526020019081526020016000208054610f5e90612a2a565b80601f0160208091040260200160405190810160405280929190818152602001828054610f8a90612a2a565b8015610fd75780601f10610fac57610100808354040283529160200191610fd7565b820191906000526020600020905b815481529060010190602001808311610fba57829003601f168201915b50505050509050919050565b6000600660009054906101000a900473ffffffffffffffffffffffffffffffffffffffff16905090565b611015611825565b600061101f6118b7565b90508073ffffffffffffffffffffffffffffffffffffffff1663a9059cbb338373ffffffffffffffffffffffffffffffffffffffff166370a08231306040518263ffffffff1660e01b81526004016110779190612783565b602060405180830381865afa158015611094573d6000803e3d6000fd5b505050506040513d601f19601f820116820180604052508101906110b89190612e4f565b6040518363ffffffff1660e01b81526004016110d5929190612e8b565b6020604051808303816000875af11580156110f4573d6000803e3d6000fd5b505050506040513d601f19601f820116820180604052508101906111189190612eec565b611157576040517f08c379a000000000000000000000000000000000000000000000000000000000815260040161114e90612f65565b60405180910390fd5b50565b600a5481565b826005600082815260200190815260200160002060009054906101000a900473ffffffffffffffffffffffffffffffffffffffff1673ffffffffffffffffffffffffffffffffffffffff163373ffffffffffffffffffffffffffffffffffffffff1614611202576040517f08c379a00000000000000000000000000000000000000000000000000000000081526004016111f990612ff7565b60405180910390fd5b6005600082815260200190815260200160002060006101000a81549073ffffffffffffffffffffffffffffffffffffffff0219169055807f7cc135e0cebb02c3480ae5d74d377283180a2601f8f644edf7987b009316c63a60405160405180910390a2827fd7068dd93b2b2c580d414706aabbf529878c2a8273cd02be55b47c38eb2179a183604051611295919061268a565b60405180910390a2816008600085815260200190815260200160002090805190602001906112c4929190612290565b5082600a8190555081600b90805190602001906112e2929190612290565b5050505050565b6112f1610fe3565b73ffffffffffffffffffffffffffffffffffffffff163373ffffffffffffffffffffffffffffffffffffffff161461132857600080fd5b600084511161133657600080fd5b600083511161134457600080fd5b600073ffffffffffffffffffffffffffffffffffffffff168273ffffffffffffffffffffffffffffffffffffffff160361137d57600080fd5b600081511161138b57600080fd5b604051806060016040528061139f856118e1565b81526020018373ffffffffffffffffffffffffffffffffffffffff16815260200182815250600c856040516113d49190612978565b90815260200160405180910390206000820151816000015560208201518160010160006101000a81548173ffffffffffffffffffffffffffffffffffffffff021916908373ffffffffffffffffffffffffffffffffffffffff160217905550604082015181600201908051906020019061144f929190612290565b5090505050505050565b611461611825565b61146a8161190a565b50565b81600073ffffffffffffffffffffffffffffffffffffffff16600c826040516114969190612978565b908152602001604051809103902060010160009054906101000a900473ffffffffffffffffffffffffffffffffffffffff1673ffffffffffffffffffffffffffffffffffffffff160361151e576040517f08c379a0000000000000000000000000000000000000000000000000000000008152600401611515906129db565b60405180910390fd5b6000875111611562576040518060400160405280600381526020017f4745540000000000000000000000000000000000000000000000000000000000815250611564565b865b9650600086511161157457600080fd5b60008551116115b8576040518060400160405280600481526020017f5731303d000000000000000000000000000000000000000000000000000000008152506115ba565b845b94506000845111611600576040518060400160405280600481526020017f6533303d00000000000000000000000000000000000000000000000000000000815250611602565b835b93506000611639600c856040516116199190612978565b9081526020016040518091039020600001543063e839d5bd60e01b611a38565b90506116856040518060400160405280600381526020017f75726c00000000000000000000000000000000000000000000000000000000008152508883611a699092919063ffffffff16565b6116cf6040518060400160405280600681526020017f6d6574686f6400000000000000000000000000000000000000000000000000008152508983611a699092919063ffffffff16565b6117196040518060400160405280600781526020017f68656164657273000000000000000000000000000000000000000000000000008152508783611a699092919063ffffffff16565b6117636040518060400160405280600b81526020017f72657175657374446174610000000000000000000000000000000000000000008152508683611a699092919063ffffffff16565b6117cc6040518060400160405280600a81526020017f7265717565737455494400000000000000000000000000000000000000000000815250846040516020016117ad9190613038565b60405160208183030381529060405283611a9c9092919063ffffffff16565b61181a600c856040516117df9190612978565b908152602001604051809103902060010160009054906101000a900473ffffffffffffffffffffffffffffffffffffffff1682600954611acf565b505050505050505050565b600660009054906101000a900473ffffffffffffffffffffffffffffffffffffffff1673ffffffffffffffffffffffffffffffffffffffff163373ffffffffffffffffffffffffffffffffffffffff16146118b5576040517f08c379a00000000000000000000000000000000000000000000000000000000081526004016118ac9061309f565b60405180910390fd5b565b6000600260009054906101000a900473ffffffffffffffffffffffffffffffffffffffff16905090565b60008082905060008151036118fc576000801b915050611905565b60208301519150505b919050565b3373ffffffffffffffffffffffffffffffffffffffff168173ffffffffffffffffffffffffffffffffffffffff1603611978576040517f08c379a000000000000000000000000000000000000000000000000000000000815260040161196f9061310b565b60405180910390fd5b80600760006101000a81548173ffffffffffffffffffffffffffffffffffffffff021916908373ffffffffffffffffffffffffffffffffffffffff1602179055508073ffffffffffffffffffffffffffffffffffffffff16600660009054906101000a900473ffffffffffffffffffffffffffffffffffffffff1673ffffffffffffffffffffffffffffffffffffffff167fed8889f560326eb138920d842192f0eb3dd22b4f139c87a2c57538e05bae127860405160405180910390a350565b611a40612316565b611a48612316565b611a5f85858584611b9b909392919063ffffffff16565b9150509392505050565b611a80828460800151611c4b90919063ffffffff16565b611a97818460800151611c4b90919063ffffffff16565b505050565b611ab3828460800151611c4b90919063ffffffff16565b611aca818460800151611c7090919063ffffffff16565b505050565b6000806004549050600181611ae4919061315a565b6004819055506000634042994660e01b60008087600001513089604001518760018c6080015160000151604051602401611b25989796959493929190613240565b604051602081830303815290604052907bffffffffffffffffffffffffffffffffffffffffffffffffffffffff19166020820180517bffffffffffffffffffffffffffffffffffffffffffffffffffffffff83818316178352505050509050611b9086838684611c95565b925050509392505050565b611ba3612316565b611bb38560800151610100611e2a565b508385600001818152505082856020019073ffffffffffffffffffffffffffffffffffffffff16908173ffffffffffffffffffffffffffffffffffffffff16815250508185604001907bffffffffffffffffffffffffffffffffffffffffffffffffffffffff191690817bffffffffffffffffffffffffffffffffffffffffffffffffffffffff191681525050849050949350505050565b611c588260038351611e94565b611c6b818361201990919063ffffffff16565b505050565b611c7d8260028351611e94565b611c90818361201990919063ffffffff16565b505050565b60003084604051602001611caa92919061337e565b604051602081830303815290604052805190602001209050846005600083815260200190815260200160002060006101000a81548173ffffffffffffffffffffffffffffffffffffffff021916908373ffffffffffffffffffffffffffffffffffffffff160217905550807fb5e6e01e79f91267dc17b4e6314d5d4d03593d2ceee0fbb452b750bd70ea5af960405160405180910390a2600260009054906101000a900473ffffffffffffffffffffffffffffffffffffffff1673ffffffffffffffffffffffffffffffffffffffff16634000aea08685856040518463ffffffff1660e01b8152600401611da0939291906133aa565b6020604051808303816000875af1158015611dbf573d6000803e3d6000fd5b505050506040513d601f19601f82011682018060405250810190611de39190612eec565b611e22576040517f08c379a0000000000000000000000000000000000000000000000000000000008152600401611e199061345a565b60405180910390fd5b949350505050565b611e32612383565b6000602083611e4191906134a9565b14611e6d57602082611e5391906134a9565b6020611e5f91906134da565b82611e6a919061315a565b91505b81836020018181525050604051808452600081528281016020016040525082905092915050565b60178167ffffffffffffffff1611611ecb57611ec58160058460ff16901b60ff16178461203b90919063ffffffff16565b50612014565b60ff8167ffffffffffffffff1611611f2157611efa601860058460ff16901b178461203b90919063ffffffff16565b50611f1b8167ffffffffffffffff1660018561205b9092919063ffffffff16565b50612013565b61ffff8167ffffffffffffffff1611611f7857611f51601960058460ff16901b178461203b90919063ffffffff16565b50611f728167ffffffffffffffff1660028561205b9092919063ffffffff16565b50612012565b63ffffffff8167ffffffffffffffff1611611fd157611faa601a60058460ff16901b178461203b90919063ffffffff16565b50611fcb8167ffffffffffffffff1660048561205b9092919063ffffffff16565b50612011565b611fee601b60058460ff16901b178461203b90919063ffffffff16565b5061200f8167ffffffffffffffff1660088561205b9092919063ffffffff16565b505b5b5b5b505050565b612021612383565b6120338384600001515184855161207d565b905092915050565b612043612383565b612053838460000151518461216c565b905092915050565b612063612383565b6120748485600001515185856121c2565b90509392505050565b612085612383565b825182111561209357600080fd5b846020015182856120a4919061315a565b11156120d9576120d88560026120c9886020015188876120c4919061315a565b612250565b6120d3919061350e565b61226c565b5b6000808651805187602083010193508088870111156120f85787860182525b60208701925050505b6020841061213f578051825260208261211a919061315a565b9150602081612129919061315a565b905060208461213891906134da565b9350612101565b60006001856020036101000a03905080198251168184511681811785525050508692505050949350505050565b612174612383565b8360200151831061219a576121998460028660200151612194919061350e565b61226c565b5b835180516020858301018481538186036121b5576001820183525b5050508390509392505050565b6121ca612383565b846020015184836121db919061315a565b11156122035761220285600286856121f3919061315a565b6121fd919061350e565b61226c565b5b6000600183610100612215919061369b565b61221f91906134da565b905085518386820101858319825116178152815185880111156122425784870182525b505085915050949350505050565b60008183111561226257829050612266565b8190505b92915050565b60008260000151905061227f8383611e2a565b5061228a8382612019565b50505050565b82805461229c90612a2a565b90600052602060002090601f0160209004810192826122be5760008555612305565b82601f106122d757805160ff1916838001178555612305565b82800160010185558215612305579182015b828111156123045782518255916020019190600101906122e9565b5b509050612312919061239d565b5090565b6040518060a0016040528060008019168152602001600073ffffffffffffffffffffffffffffffffffffffff16815260200160007bffffffffffffffffffffffffffffffffffffffffffffffffffffffff191681526020016000815260200161237d612383565b81525090565b604051806040016040528060608152602001600081525090565b5b808211156123b657600081600090555060010161239e565b5090565b6000604051905090565b600080fd5b600080fd5b600080fd5b600080fd5b6000601f19601f8301169050919050565b7f4e487b7100000000000000000000000000000000000000000000000000000000600052604160045260246000fd5b612421826123d8565b810181811067ffffffffffffffff821117156124405761243f6123e9565b5b80604052505050565b60006124536123ba565b905061245f8282612418565b919050565b600067ffffffffffffffff82111561247f5761247e6123e9565b5b612488826123d8565b9050602081019050919050565b82818337600083830152505050565b60006124b76124b284612464565b612449565b9050828152602081018484840111156124d3576124d26123d3565b5b6124de848285612495565b509392505050565b600082601f8301126124fb576124fa6123ce565b5b813561250b8482602086016124a4565b91505092915050565b6000819050919050565b61252781612514565b811461253257600080fd5b50565b6000813590506125448161251e565b92915050565b600080600060608486031215612563576125626123c4565b5b600084013567ffffffffffffffff811115612581576125806123c9565b5b61258d868287016124e6565b935050602084013567ffffffffffffffff8111156125ae576125ad6123c9565b5b6125ba868287016124e6565b92505060406125cb86828701612535565b9150509250925092565b6000602082840312156125eb576125ea6123c4565b5b60006125f984828501612535565b91505092915050565b600081519050919050565b600082825260208201905092915050565b60005b8381101561263c578082015181840152602081019050612621565b8381111561264b576000848401525b50505050565b600061265c82612602565b612666818561260d565b935061267681856020860161261e565b61267f816123d8565b840191505092915050565b600060208201905081810360008301526126a48184612651565b905092915050565b6000602082840312156126c2576126c16123c4565b5b600082013567ffffffffffffffff8111156126e0576126df6123c9565b5b6126ec848285016124e6565b91505092915050565b6126fe81612514565b82525050565b600073ffffffffffffffffffffffffffffffffffffffff82169050919050565b600061272f82612704565b9050919050565b61273f81612724565b82525050565b600060608201905061275a60008301866126f5565b6127676020830185612736565b81810360408301526127798184612651565b9050949350505050565b60006020820190506127986000830184612736565b92915050565b60006020820190506127b360008301846126f5565b92915050565b6000806000606084860312156127d2576127d16123c4565b5b60006127e086828701612535565b93505060206127f186828701612535565b925050604084013567ffffffffffffffff811115612812576128116123c9565b5b61281e868287016124e6565b9150509250925092565b61283181612724565b811461283c57600080fd5b50565b60008135905061284e81612828565b92915050565b6000806000806080858703121561286e5761286d6123c4565b5b600085013567ffffffffffffffff81111561288c5761288b6123c9565b5b612898878288016124e6565b945050602085013567ffffffffffffffff8111156128b9576128b86123c9565b5b6128c5878288016124e6565b93505060406128d68782880161283f565b925050606085013567ffffffffffffffff8111156128f7576128f66123c9565b5b612903878288016124e6565b91505092959194509250565b600060208284031215612925576129246123c4565b5b60006129338482850161283f565b91505092915050565b600081905092915050565b600061295282612602565b61295c818561293c565b935061296c81856020860161261e565b80840191505092915050565b60006129848284612947565b915081905092915050565b7f54686973207369746520646f6573206e6f742065786973740000000000000000600082015250565b60006129c560188361260d565b91506129d08261298f565b602082019050919050565b600060208201905081810360008301526129f4816129b8565b9050919050565b7f4e487b7100000000000000000000000000000000000000000000000000000000600052602260045260246000fd5b60006002820490506001821680612a4257607f821691505b602082108103612a5557612a546129fb565b5b50919050565b60008190508160005260206000209050919050565b60008154612a7d81612a2a565b612a87818661293c565b94506001821660008114612aa25760018114612ab357612ae6565b60ff19831686528186019350612ae6565b612abc85612a5b565b60005b83811015612ade57815481890152600182019150602081019050612abf565b838801955050505b50505092915050565b7f2f6170692f76312f63612f776f726b6c6f61642f6c6966656379636c652f666f60008201527f726269645f756e69740000000000000000000000000000000000000000000000602082015250565b6000612b4b60298361293c565b9150612b5682612aef565b602982019050919050565b6000612b6d8284612a70565b9150612b7882612b3e565b915081905092915050565b7f2f6170692f76312f63612f776f726b6c6f61642f6c6966656379636c652f726560008201527f766f6b6500000000000000000000000000000000000000000000000000000000602082015250565b6000612bdf60248361293c565b9150612bea82612b83565b602482019050919050565b6000612c018284612a70565b9150612c0c82612bd2565b915081905092915050565b7f2f6170692f76312f676f7665726e2f6c697374656e0000000000000000000000600082015250565b6000612c4d60158361293c565b9150612c5882612c17565b601582019050919050565b6000612c6f8284612a70565b9150612c7a82612c40565b915081905092915050565b7f2f6170692f76312f63612f776f726b6c6f61642f6c6966656379636c652f726560008201527f636f766572000000000000000000000000000000000000000000000000000000602082015250565b6000612ce160258361293c565b9150612cec82612c85565b602582019050919050565b6000612d038284612a70565b9150612d0e82612cd4565b915081905092915050565b7f4d7573742062652070726f706f736564206f776e657200000000000000000000600082015250565b6000612d4f60168361260d565b9150612d5a82612d19565b602082019050919050565b60006020820190508181036000830152612d7e81612d42565b9050919050565b7f2f6170692f76312f63612f776f726b6c6f61642f6c6966656379636c652f726560008201527f636f7665725f756e697400000000000000000000000000000000000000000000602082015250565b6000612de1602a8361293c565b9150612dec82612d85565b602a82019050919050565b6000612e038284612a70565b9150612e0e82612dd4565b915081905092915050565b6000819050919050565b612e2c81612e19565b8114612e3757600080fd5b50565b600081519050612e4981612e23565b92915050565b600060208284031215612e6557612e646123c4565b5b6000612e7384828501612e3a565b91505092915050565b612e8581612e19565b82525050565b6000604082019050612ea06000830185612736565b612ead6020830184612e7c565b9392505050565b60008115159050919050565b612ec981612eb4565b8114612ed457600080fd5b50565b600081519050612ee681612ec0565b92915050565b600060208284031215612f0257612f016123c4565b5b6000612f1084828501612ed7565b91505092915050565b7f556e61626c6520746f207472616e736665720000000000000000000000000000600082015250565b6000612f4f60128361260d565b9150612f5a82612f19565b602082019050919050565b60006020820190508181036000830152612f7e81612f42565b9050919050565b7f536f75726365206d75737420626520746865206f7261636c65206f662074686560008201527f2072657175657374000000000000000000000000000000000000000000000000602082015250565b6000612fe160288361260d565b9150612fec82612f85565b604082019050919050565b6000602082019050818103600083015261301081612fd4565b9050919050565b6000819050919050565b61303261302d82612514565b613017565b82525050565b60006130448284613021565b60208201915081905092915050565b7f4f6e6c792063616c6c61626c65206279206f776e657200000000000000000000600082015250565b600061308960168361260d565b915061309482613053565b602082019050919050565b600060208201905081810360008301526130b88161307c565b9050919050565b7f43616e6e6f74207472616e7366657220746f2073656c66000000000000000000600082015250565b60006130f560178361260d565b9150613100826130bf565b602082019050919050565b60006020820190508181036000830152613124816130e8565b9050919050565b7f4e487b7100000000000000000000000000000000000000000000000000000000600052601160045260246000fd5b600061316582612e19565b915061317083612e19565b9250827fffffffffffffffffffffffffffffffffffffffffffffffffffffffffffffffff038211156131a5576131a461312b565b5b828201905092915050565b60007fffffffff0000000000000000000000000000000000000000000000000000000082169050919050565b6131e5816131b0565b82525050565b600081519050919050565b600082825260208201905092915050565b6000613212826131eb565b61321c81856131f6565b935061322c81856020860161261e565b613235816123d8565b840191505092915050565b600061010082019050613256600083018b612736565b613263602083018a612e7c565b61327060408301896126f5565b61327d6060830188612736565b61328a60808301876131dc565b61329760a0830186612e7c565b6132a460c0830185612e7c565b81810360e08301526132b68184613207565b90509998505050505050505050565b6000819050919050565b60006132ea6132e56132e084612704565b6132c5565b612704565b9050919050565b60006132fc826132cf565b9050919050565b600061330e826132f1565b9050919050565b60008160601b9050919050565b600061332d82613315565b9050919050565b600061333f82613322565b9050919050565b61335761335282613303565b613334565b82525050565b6000819050919050565b61337861337382612e19565b61335d565b82525050565b600061338a8285613346565b60148201915061339a8284613367565b6020820191508190509392505050565b60006060820190506133bf6000830186612736565b6133cc6020830185612e7c565b81810360408301526133de8184613207565b9050949350505050565b7f756e61626c6520746f207472616e73666572416e6443616c6c20746f206f726160008201527f636c650000000000000000000000000000000000000000000000000000000000602082015250565b600061344460238361260d565b915061344f826133e8565b604082019050919050565b6000602082019050818103600083015261347381613437565b9050919050565b7f4e487b7100000000000000000000000000000000000000000000000000000000600052601260045260246000fd5b60006134b482612e19565b91506134bf83612e19565b9250826134cf576134ce61347a565b5b828206905092915050565b60006134e582612e19565b91506134f083612e19565b9250828210156135035761350261312b565b5b828203905092915050565b600061351982612e19565b915061352483612e19565b9250817fffffffffffffffffffffffffffffffffffffffffffffffffffffffffffffffff048311821515161561355d5761355c61312b565b5b828202905092915050565b60008160011c9050919050565b6000808291508390505b60018511156135bf5780860481111561359b5761359a61312b565b5b60018516156135aa5780820291505b80810290506135b885613568565b945061357f565b94509492505050565b6000826135d85760019050613694565b816135e65760009050613694565b81600181146135fc576002811461360657613635565b6001915050613694565b60ff8411156136185761361761312b565b5b8360020a91508482111561362f5761362e61312b565b5b50613694565b5060208310610133831016604e8410600b841016171561366a5782820a9050838111156136655761366461312b565b5b613694565b6136778484846001613575565b9250905081840481111561368e5761368d61312b565b5b81810290505b9392505050565b60006136a682612e19565b91506136b183612e19565b92506136de7fffffffffffffffffffffffffffffffffffffffffffffffffffffffffffffffff84846135c8565b90509291505056fea2646970667358221220d3294fddf4f74cc4230ecf487b6629d113516a612f6d970a0294fe6591f8c2e764736f6c634300080d0033",
  "linkReferences": {},
  "deployedLinkReferences": {}
}