{
  "_format": "hh-sol-artifact-1",
  "contractName": "ZtControl",
  "sourceName": "contracts/oracle/ZtControl.sol",
  "abi": [
    {
      "inputs": [
        {
          "internalType": "uint256",
          "name": "_fee",
          "type": "uint256"
        },
        {
          "internalType": "address",
          "name": "_link",
          "type": "address"
        }
      ],
      "stateMutability": "nonpayable",
      "type": "constructor"
    },
    {
      "anonymous": false,
      "inputs": [
        {
          "indexed": true,
          "internalType": "bytes32",
          "name": "id",
          "type": "bytes32"
        }
      ],
      "name": "ChainlinkCancelled",
      "type": "event"
    },
    {
      "anonymous": false,
      "inputs": [
        {
          "indexed": true,
          "internalType": "bytes32",
          "name": "id",
          "type": "bytes32"
        }
      ],
      "name": "ChainlinkFulfilled",
      "type": "event"
    },
    {
      "anonymous": false,
      "inputs": [
        {
          "indexed": true,
          "internalType": "bytes32",
          "name": "id",
          "type": "bytes32"
        }
      ],
      "name": "ChainlinkRequested",
      "type": "event"
    },
    {
      "anonymous": false,
      "inputs": [
        {
          "indexed": true,
          "internalType": "address",
          "name": "from",
          "type": "address"
        },
        {
          "indexed": true,
          "internalType": "address",
          "name": "to",
          "type": "address"
        }
      ],
      "name": "OwnershipTransferRequested",
      "type": "event"
    },
    {
      "anonymous": false,
      "inputs": [
        {
          "indexed": true,
          "internalType": "address",
          "name": "from",
          "type": "address"
        },
        {
          "indexed": true,
          "internalType": "address",
          "name": "to",
          "type": "address"
        }
      ],
      "name": "OwnershipTransferred",
      "type": "event"
    },
    {
      "anonymous": false,
      "inputs": [
        {
          "indexed": true,
          "internalType": "bytes32",
          "name": "_requestUID",
          "type": "bytes32"
        },
        {
          "indexed": false,
          "internalType": "string",
          "name": "data",
          "type": "string"
        }
      ],
      "name": "RequestFulfilled",
      "type": "event"
    },
    {
      "inputs": [],
      "name": "ACCESS_CONTROL",
      "outputs": [
        {
          "internalType": "address",
          "name": "",
          "type": "address"
        }
      ],
      "stateMutability": "view",
      "type": "function"
    },
    {
      "inputs": [
        {
          "internalType": "bytes32",
          "name": "",
          "type": "bytes32"
        }
      ],
      "name": "_result",
      "outputs": [
        {
          "internalType": "string",
          "name": "",
          "type": "string"
        }
      ],
      "stateMutability": "view",
      "type": "function"
    },
    {
      "inputs": [
        {
          "internalType": "string",
          "name": "",
          "type": "string"
        }
      ],
      "name": "_sites",
      "outputs": [
        {
          "internalType": "bytes32",
          "name": "jobId",
          "type": "bytes32"
        },
        {
          "internalType": "address",
          "name": "oracle",
          "type": "address"
        },
        {
          "internalType": "string",
          "name": "host",
          "type": "string"
        }
      ],
      "stateMutability": "view",
      "type": "function"
    },
    {
      "inputs": [],
      "name": "acceptOwnership",
      "outputs": [],
      "stateMutability": "nonpayable",
      "type": "function"
    },
    {
      "inputs": [],
      "name": "currentData",
      "outputs": [
        {
          "internalType": "string",
          "name": "",
          "type": "string"
        }
      ],
      "stateMutability": "view",
      "type": "function"
    },
    {
      "inputs": [],
      "name": "currentKey",
      "outputs": [
        {
          "internalType": "bytes32",
          "name": "",
          "type": "bytes32"
        }
      ],
      "stateMutability": "view",
      "type": "function"
    },
    {
      "inputs": [
        {
          "internalType": "string",
          "name": "_siteName",
          "type": "string"
        },
        {
          "internalType": "string",
          "name": "_requestData",
          "type": "string"
        },
        {
          "internalType": "bytes32",
          "name": "_requestUID",
          "type": "bytes32"
        }
      ],
      "name": "forbidTls",
      "outputs": [],
      "stateMutability": "nonpayable",
      "type": "function"
    },
    {
      "inputs": [
        {
          "internalType": "bytes32",
          "name": "_requestId",
          "type": "bytes32"
        },
        {
          "internalType": "bytes32",
          "name": "_requestUID",
          "type": "bytes32"
        },
        {
          "internalType": "string",
          "name": "_stringData",
          "type": "string"
        }
      ],
      "name": "fulfill",
      "outputs": [],
      "stateMutability": "nonpayable",
      "type": "function"
    },
    {
      "inputs": [
        {
          "internalType": "bytes32",
          "name": "_requestUID",
          "type": "bytes32"
        }
      ],
      "name": "getResultData",
      "outputs": [
        {
          "internalType": "string",
          "name": "",
          "type": "string"
        }
      ],
      "stateMutability": "view",
      "type": "function"
    },
    {
      "inputs": [],
      "name": "owner",
      "outputs": [
        {
          "internalType": "address",
          "name": "",
          "type": "address"
        }
      ],
      "stateMutability": "view",
      "type": "function"
    },
    {
      "inputs": [
        {
          "internalType": "string",
          "name": "_siteName",
          "type": "string"
        },
        {
          "internalType": "string",
          "name": "_requestData",
          "type": "string"
        },
        {
          "internalType": "bytes32",
          "name": "_requestUID",
          "type": "bytes32"
        }
      ],
      "name": "recoverCert",
      "outputs": [],
      "stateMutability": "nonpayable",
      "type": "function"
    },
    {
      "inputs": [
        {
          "internalType": "string",
          "name": "_siteName",
          "type": "string"
        },
        {
          "internalType": "string",
          "name": "_requestData",
          "type": "string"
        },
        {
          "internalType": "bytes32",
          "name": "_requestUID",
          "type": "bytes32"
        }
      ],
      "name": "recoverTls",
      "outputs": [],
      "stateMutability": "nonpayable",
      "type": "function"
    },
    {
      "inputs": [
        {
          "internalType": "string",
          "name": "_siteName",
          "type": "string"
        },
        {
          "internalType": "string",
          "name": "_requestData",
          "type": "string"
        },
        {
          "internalType": "bytes32",
          "name": "_requestUID",
          "type": "bytes32"
        }
      ],
      "name": "revokeCert",
      "outputs": [],
      "stateMutability": "nonpayable",
      "type": "function"
    },
    {
      "inputs": [
        {
          "internalType": "string",
          "name": "_name",
          "type": "string"
        },
        {
          "internalType": "string",
          "name": "_jobId",
          "type": "string"
        },
        {
          "internalType": "address",
          "name": "_oracle",
          "type": "address"
        },
        {
          "internalType": "string",
          "name": "host",
          "type": "string"
        }
      ],
      "name": "setSites",
      "outputs": [],
      "stateMutability": "nonpayable",
      "type": "function"
    },
    {
      "inputs": [
        {
          "internalType": "string",
          "name": "_siteName",
          "type": "string"
        },
        {
          "internalType": "string",
          "name": "_requestData",
          "type": "string"
        },
        {
          "internalType": "bytes32",
          "name": "_requestUID",
          "type": "bytes32"
        }
      ],
      "name": "switchListen",
      "outputs": [],
      "stateMutability": "nonpayable",
      "type": "function"
    },
    {
      "inputs": [
        {
          "internalType": "address",
          "name": "to",
          "type": "address"
        }
      ],
      "name": "transferOwnership",
      "outputs": [],
      "stateMutability": "nonpayable",
      "type": "function"
    },
    {
      "inputs": [],
      "name": "withdrawLink",
      "outputs": [],
      "stateMutability": "nonpayable",
      "type": "function"
    }
  ],
  "bytecode": "0x60806040526001600455734d736e5c2b0c5c8e9ee88955964ead24c8d70469600860006101000a81548173ffffffffffffffffffffffffffffffffffffffff021916908373ffffffffffffffffffffffffffffffffffffffff1602179055503480156200006b57600080fd5b5060405162003c8238038062003c828339818101604052810190620000919190620003cb565b338060008073ffffffffffffffffffffffffffffffffffffffff168273ffffffffffffffffffffffffffffffffffffffff160362000106576040517f08c379a0000000000000000000000000000000000000000000000000000000008152600401620000fd9062000473565b60405180910390fd5b81600660006101000a81548173ffffffffffffffffffffffffffffffffffffffff021916908373ffffffffffffffffffffffffffffffffffffffff160217905550600073ffffffffffffffffffffffffffffffffffffffff168173ffffffffffffffffffffffffffffffffffffffff16146200018e576200018d81620001b160201b60201c565b5b505050620001a281620002e260201b60201c565b81600a81905550505062000507565b3373ffffffffffffffffffffffffffffffffffffffff168173ffffffffffffffffffffffffffffffffffffffff160362000222576040517f08c379a00000000000000000000000000000000000000000000000000000000081526004016200021990620004e5565b60405180910390fd5b80600760006101000a81548173ffffffffffffffffffffffffffffffffffffffff021916908373ffffffffffffffffffffffffffffffffffffffff1602179055508073ffffffffffffffffffffffffffffffffffffffff16600660009054906101000a900473ffffffffffffffffffffffffffffffffffffffff1673ffffffffffffffffffffffffffffffffffffffff167fed8889f560326eb138920d842192f0eb3dd22b4f139c87a2c57538e05bae127860405160405180910390a350565b80600260006101000a81548173ffffffffffffffffffffffffffffffffffffffff021916908373ffffffffffffffffffffffffffffffffffffffff16021790555050565b600080fd5b6000819050919050565b62000340816200032b565b81146200034c57600080fd5b50565b600081519050620003608162000335565b92915050565b600073ffffffffffffffffffffffffffffffffffffffff82169050919050565b6000620003938262000366565b9050919050565b620003a58162000386565b8114620003b157600080fd5b50565b600081519050620003c5816200039a565b92915050565b60008060408385031215620003e557620003e462000326565b5b6000620003f5858286016200034f565b92505060206200040885828601620003b4565b9150509250929050565b600082825260208201905092915050565b7f43616e6e6f7420736574206f776e657220746f207a65726f0000000000000000600082015250565b60006200045b60188362000412565b9150620004688262000423565b602082019050919050565b600060208201905081810360008301526200048e816200044c565b9050919050565b7f43616e6e6f74207472616e7366657220746f2073656c66000000000000000000600082015250565b6000620004cd60178362000412565b9150620004da8262000495565b602082019050919050565b600060208201905081810360008301526200050081620004be565b9050919050565b61376b80620005176000396000f3fe608060405234801561001057600080fd5b506004361061010b5760003560e01c80637cb4509b116100a25780639269db36116100715780639269db361461027e578063a0ddb4181461029c578063e839d5bd146102ba578063ed464c4d146102d6578063f2fde38b146102f25761010b565b80637cb4509b146101f457806388bf2fa5146102265780638da5cb5b146102565780638dc654a2146102745761010b565b80636f4ed9b0116100de5780636f4ed9b0146101965780637313ad7f146101b257806379ba5097146101ce5780637c60eba6146101d85761010b565b806309dfb8ea1461011057806316f839b51461012c5780633c738b0d1461015c57806358eea4ad14610178575b600080fd5b61012a60048036038101906101259190612599565b61030e565b005b61014660048036038101906101419190612624565b6104ca565b60405161015391906126d9565b60405180910390f35b61017660048036038101906101719190612599565b61056a565b005b610180610726565b60405161018d91906126d9565b60405180910390f35b6101b060048036038101906101ab9190612599565b6107b4565b005b6101cc60048036038101906101c79190612599565b610970565b005b6101d6610b2c565b005b6101f260048036038101906101ed9190612599565b610cc3565b005b61020e600480360381019061020991906126fb565b610e7f565b60405161021d93929190612794565b60405180910390f35b610240600480360381019061023b9190612624565b610f67565b60405161024d91906126d9565b60405180910390f35b61025e61100c565b60405161026b91906127d2565b60405180910390f35b61027c611036565b005b610286611183565b60405161029391906127d2565b60405180910390f35b6102a46111a9565b6040516102b191906127ed565b60405180910390f35b6102d460048036038101906102cf9190612808565b6111af565b005b6102f060048036038101906102eb91906128a3565b611338565b005b61030c6004803603810190610307919061295e565b6114a8565b005b82600073ffffffffffffffffffffffffffffffffffffffff16600d8260405161033791906129c7565b908152602001604051809103902060010160009054906101000a900473ffffffffffffffffffffffffffffffffffffffff1673ffffffffffffffffffffffffffffffffffffffff16036103bf576040517f08c379a00000000000000000000000000000000000000000000000000000000081526004016103b690612a2a565b60405180910390fd5b6000835111610403576040518060400160405280600481526020017f6533303d00000000000000000000000000000000000000000000000000000000815250610405565b825b92506000600d8560405161041991906129c7565b908152602001604051809103902060020160405160200161043a9190612bb0565b60405160208183030381529060405290506104c36040518060400160405280600481526020017f504f535400000000000000000000000000000000000000000000000000000000815250826040518060400160405280600481526020017f5731303d000000000000000000000000000000000000000000000000000000008152508789886114bc565b5050505050565b600960205280600052604060002060009150905080546104e990612a79565b80601f016020809104026020016040519081016040528092919081815260200182805461051590612a79565b80156105625780601f1061053757610100808354040283529160200191610562565b820191906000526020600020905b81548152906001019060200180831161054557829003601f168201915b505050505081565b82600073ffffffffffffffffffffffffffffffffffffffff16600d8260405161059391906129c7565b908152602001604051809103902060010160009054906101000a900473ffffffffffffffffffffffffffffffffffffffff1673ffffffffffffffffffffffffffffffffffffffff160361061b576040517f08c379a000000000000000000000000000000000000000000000000000000000815260040161061290612a2a565b60405180910390fd5b600083511161065f576040518060400160405280600481526020017f6533303d00000000000000000000000000000000000000000000000000000000815250610661565b825b92506000600d8560405161067591906129c7565b90815260200160405180910390206002016040516020016106969190612c44565b604051602081830303815290604052905061071f6040518060400160405280600481526020017f504f535400000000000000000000000000000000000000000000000000000000815250826040518060400160405280600481526020017f5731303d000000000000000000000000000000000000000000000000000000008152508789886114bc565b5050505050565b600c805461073390612a79565b80601f016020809104026020016040519081016040528092919081815260200182805461075f90612a79565b80156107ac5780601f10610781576101008083540402835291602001916107ac565b820191906000526020600020905b81548152906001019060200180831161078f57829003601f168201915b505050505081565b82600073ffffffffffffffffffffffffffffffffffffffff16600d826040516107dd91906129c7565b908152602001604051809103902060010160009054906101000a900473ffffffffffffffffffffffffffffffffffffffff1673ffffffffffffffffffffffffffffffffffffffff1603610865576040517f08c379a000000000000000000000000000000000000000000000000000000000815260040161085c90612a2a565b60405180910390fd5b60008351116108a9576040518060400160405280600481526020017f6533303d000000000000000000000000000000000000000000000000000000008152506108ab565b825b92506000600d856040516108bf91906129c7565b90815260200160405180910390206002016040516020016108e09190612cb2565b60405160208183030381529060405290506109696040518060400160405280600481526020017f504f535400000000000000000000000000000000000000000000000000000000815250826040518060400160405280600481526020017f5731303d000000000000000000000000000000000000000000000000000000008152508789886114bc565b5050505050565b82600073ffffffffffffffffffffffffffffffffffffffff16600d8260405161099991906129c7565b908152602001604051809103902060010160009054906101000a900473ffffffffffffffffffffffffffffffffffffffff1673ffffffffffffffffffffffffffffffffffffffff1603610a21576040517f08c379a0000000000000000000000000000000000000000000000000000000008152600401610a1890612a2a565b60405180910390fd5b6000835111610a65576040518060400160405280600481526020017f6533303d00000000000000000000000000000000000000000000000000000000815250610a67565b825b92506000600d85604051610a7b91906129c7565b9081526020016040518091039020600201604051602001610a9c9190612d46565b6040516020818303038152906040529050610b256040518060400160405280600481526020017f504f535400000000000000000000000000000000000000000000000000000000815250826040518060400160405280600481526020017f5731303d000000000000000000000000000000000000000000000000000000008152508789886114bc565b5050505050565b600760009054906101000a900473ffffffffffffffffffffffffffffffffffffffff1673ffffffffffffffffffffffffffffffffffffffff163373ffffffffffffffffffffffffffffffffffffffff1614610bbc576040517f08c379a0000000000000000000000000000000000000000000000000000000008152600401610bb390612db4565b60405180910390fd5b6000600660009054906101000a900473ffffffffffffffffffffffffffffffffffffffff16905033600660006101000a81548173ffffffffffffffffffffffffffffffffffffffff021916908373ffffffffffffffffffffffffffffffffffffffff1602179055506000600760006101000a81548173ffffffffffffffffffffffffffffffffffffffff021916908373ffffffffffffffffffffffffffffffffffffffff1602179055503373ffffffffffffffffffffffffffffffffffffffff168173ffffffffffffffffffffffffffffffffffffffff167f8be0079c531659141344cd1fd0a4f28419497f9722a3daafe3b4186f6b6457e060405160405180910390a350565b82600073ffffffffffffffffffffffffffffffffffffffff16600d82604051610cec91906129c7565b908152602001604051809103902060010160009054906101000a900473ffffffffffffffffffffffffffffffffffffffff1673ffffffffffffffffffffffffffffffffffffffff1603610d74576040517f08c379a0000000000000000000000000000000000000000000000000000000008152600401610d6b90612a2a565b60405180910390fd5b6000835111610db8576040518060400160405280600481526020017f6533303d00000000000000000000000000000000000000000000000000000000815250610dba565b825b92506000600d85604051610dce91906129c7565b9081526020016040518091039020600201604051602001610def9190612e46565b6040516020818303038152906040529050610e786040518060400160405280600481526020017f504f535400000000000000000000000000000000000000000000000000000000815250826040518060400160405280600481526020017f5731303d000000000000000000000000000000000000000000000000000000008152508789886114bc565b5050505050565b600d818051602081018201805184825260208301602085012081835280955050505050506000915090508060000154908060010160009054906101000a900473ffffffffffffffffffffffffffffffffffffffff1690806002018054610ee490612a79565b80601f0160208091040260200160405190810160405280929190818152602001828054610f1090612a79565b8015610f5d5780601f10610f3257610100808354040283529160200191610f5d565b820191906000526020600020905b815481529060010190602001808311610f4057829003601f168201915b5050505050905083565b6060600960008381526020019081526020016000208054610f8790612a79565b80601f0160208091040260200160405190810160405280929190818152602001828054610fb390612a79565b80156110005780601f10610fd557610100808354040283529160200191611000565b820191906000526020600020905b815481529060010190602001808311610fe357829003601f168201915b50505050509050919050565b6000600660009054906101000a900473ffffffffffffffffffffffffffffffffffffffff16905090565b61103e611874565b6000611048611906565b90508073ffffffffffffffffffffffffffffffffffffffff1663a9059cbb338373ffffffffffffffffffffffffffffffffffffffff166370a08231306040518263ffffffff1660e01b81526004016110a091906127d2565b602060405180830381865afa1580156110bd573d6000803e3d6000fd5b505050506040513d601f19601f820116820180604052508101906110e19190612e9e565b6040518363ffffffff1660e01b81526004016110fe929190612eda565b6020604051808303816000875af115801561111d573d6000803e3d6000fd5b505050506040513d601f19601f820116820180604052508101906111419190612f3b565b611180576040517f08c379a000000000000000000000000000000000000000000000000000000000815260040161117790612fb4565b60405180910390fd5b50565b600860009054906101000a900473ffffffffffffffffffffffffffffffffffffffff1681565b600b5481565b826005600082815260200190815260200160002060009054906101000a900473ffffffffffffffffffffffffffffffffffffffff1673ffffffffffffffffffffffffffffffffffffffff163373ffffffffffffffffffffffffffffffffffffffff1614611251576040517f08c379a000000000000000000000000000000000000000000000000000000000815260040161124890613046565b60405180910390fd5b6005600082815260200190815260200160002060006101000a81549073ffffffffffffffffffffffffffffffffffffffff0219169055807f7cc135e0cebb02c3480ae5d74d377283180a2601f8f644edf7987b009316c63a60405160405180910390a2827fd7068dd93b2b2c580d414706aabbf529878c2a8273cd02be55b47c38eb2179a1836040516112e491906126d9565b60405180910390a2816009600085815260200190815260200160002090805190602001906113139291906122df565b5082600b8190555081600c90805190602001906113319291906122df565b5050505050565b61134061100c565b73ffffffffffffffffffffffffffffffffffffffff163373ffffffffffffffffffffffffffffffffffffffff161461137757600080fd5b600084511161138557600080fd5b600083511161139357600080fd5b600073ffffffffffffffffffffffffffffffffffffffff168273ffffffffffffffffffffffffffffffffffffffff16036113cc57600080fd5b60008151116113da57600080fd5b60405180606001604052806113ee85611930565b81526020018373ffffffffffffffffffffffffffffffffffffffff16815260200182815250600d8560405161142391906129c7565b90815260200160405180910390206000820151816000015560208201518160010160006101000a81548173ffffffffffffffffffffffffffffffffffffffff021916908373ffffffffffffffffffffffffffffffffffffffff160217905550604082015181600201908051906020019061149e9291906122df565b5090505050505050565b6114b0611874565b6114b981611959565b50565b81600073ffffffffffffffffffffffffffffffffffffffff16600d826040516114e591906129c7565b908152602001604051809103902060010160009054906101000a900473ffffffffffffffffffffffffffffffffffffffff1673ffffffffffffffffffffffffffffffffffffffff160361156d576040517f08c379a000000000000000000000000000000000000000000000000000000000815260040161156490612a2a565b60405180910390fd5b60008751116115b1576040518060400160405280600381526020017f47455400000000000000000000000000000000000000000000000000000000008152506115b3565b865b965060008651116115c357600080fd5b6000855111611607576040518060400160405280600481526020017f5731303d00000000000000000000000000000000000000000000000000000000815250611609565b845b9450600084511161164f576040518060400160405280600481526020017f6533303d00000000000000000000000000000000000000000000000000000000815250611651565b835b93506000611688600d8560405161166891906129c7565b9081526020016040518091039020600001543063e839d5bd60e01b611a87565b90506116d46040518060400160405280600381526020017f75726c00000000000000000000000000000000000000000000000000000000008152508883611ab89092919063ffffffff16565b61171e6040518060400160405280600681526020017f6d6574686f6400000000000000000000000000000000000000000000000000008152508983611ab89092919063ffffffff16565b6117686040518060400160405280600781526020017f68656164657273000000000000000000000000000000000000000000000000008152508783611ab89092919063ffffffff16565b6117b26040518060400160405280600b81526020017f72657175657374446174610000000000000000000000000000000000000000008152508683611ab89092919063ffffffff16565b61181b6040518060400160405280600a81526020017f7265717565737455494400000000000000000000000000000000000000000000815250846040516020016117fc9190613087565b60405160208183030381529060405283611aeb9092919063ffffffff16565b611869600d8560405161182e91906129c7565b908152602001604051809103902060010160009054906101000a900473ffffffffffffffffffffffffffffffffffffffff1682600a54611b1e565b505050505050505050565b600660009054906101000a900473ffffffffffffffffffffffffffffffffffffffff1673ffffffffffffffffffffffffffffffffffffffff163373ffffffffffffffffffffffffffffffffffffffff1614611904576040517f08c379a00000000000000000000000000000000000000000000000000000000081526004016118fb906130ee565b60405180910390fd5b565b6000600260009054906101000a900473ffffffffffffffffffffffffffffffffffffffff16905090565b600080829050600081510361194b576000801b915050611954565b60208301519150505b919050565b3373ffffffffffffffffffffffffffffffffffffffff168173ffffffffffffffffffffffffffffffffffffffff16036119c7576040517f08c379a00000000000000000000000000000000000000000000000000000000081526004016119be9061315a565b60405180910390fd5b80600760006101000a81548173ffffffffffffffffffffffffffffffffffffffff021916908373ffffffffffffffffffffffffffffffffffffffff1602179055508073ffffffffffffffffffffffffffffffffffffffff16600660009054906101000a900473ffffffffffffffffffffffffffffffffffffffff1673ffffffffffffffffffffffffffffffffffffffff167fed8889f560326eb138920d842192f0eb3dd22b4f139c87a2c57538e05bae127860405160405180910390a350565b611a8f612365565b611a97612365565b611aae85858584611bea909392919063ffffffff16565b9150509392505050565b611acf828460800151611c9a90919063ffffffff16565b611ae6818460800151611c9a90919063ffffffff16565b505050565b611b02828460800151611c9a90919063ffffffff16565b611b19818460800151611cbf90919063ffffffff16565b505050565b6000806004549050600181611b3391906131a9565b6004819055506000634042994660e01b60008087600001513089604001518760018c6080015160000151604051602401611b7498979695949392919061328f565b604051602081830303815290604052907bffffffffffffffffffffffffffffffffffffffffffffffffffffffff19166020820180517bffffffffffffffffffffffffffffffffffffffffffffffffffffffff83818316178352505050509050611bdf86838684611ce4565b925050509392505050565b611bf2612365565b611c028560800151610100611e79565b508385600001818152505082856020019073ffffffffffffffffffffffffffffffffffffffff16908173ffffffffffffffffffffffffffffffffffffffff16815250508185604001907bffffffffffffffffffffffffffffffffffffffffffffffffffffffff191690817bffffffffffffffffffffffffffffffffffffffffffffffffffffffff191681525050849050949350505050565b611ca78260038351611ee3565b611cba818361206890919063ffffffff16565b505050565b611ccc8260028351611ee3565b611cdf818361206890919063ffffffff16565b505050565b60003084604051602001611cf99291906133cd565b604051602081830303815290604052805190602001209050846005600083815260200190815260200160002060006101000a81548173ffffffffffffffffffffffffffffffffffffffff021916908373ffffffffffffffffffffffffffffffffffffffff160217905550807fb5e6e01e79f91267dc17b4e6314d5d4d03593d2ceee0fbb452b750bd70ea5af960405160405180910390a2600260009054906101000a900473ffffffffffffffffffffffffffffffffffffffff1673ffffffffffffffffffffffffffffffffffffffff16634000aea08685856040518463ffffffff1660e01b8152600401611def939291906133f9565b6020604051808303816000875af1158015611e0e573d6000803e3d6000fd5b505050506040513d601f19601f82011682018060405250810190611e329190612f3b565b611e71576040517f08c379a0000000000000000000000000000000000000000000000000000000008152600401611e68906134a9565b60405180910390fd5b949350505050565b611e816123d2565b6000602083611e9091906134f8565b14611ebc57602082611ea291906134f8565b6020611eae9190613529565b82611eb991906131a9565b91505b81836020018181525050604051808452600081528281016020016040525082905092915050565b60178167ffffffffffffffff1611611f1a57611f148160058460ff16901b60ff16178461208a90919063ffffffff16565b50612063565b60ff8167ffffffffffffffff1611611f7057611f49601860058460ff16901b178461208a90919063ffffffff16565b50611f6a8167ffffffffffffffff166001856120aa9092919063ffffffff16565b50612062565b61ffff8167ffffffffffffffff1611611fc757611fa0601960058460ff16901b178461208a90919063ffffffff16565b50611fc18167ffffffffffffffff166002856120aa9092919063ffffffff16565b50612061565b63ffffffff8167ffffffffffffffff161161202057611ff9601a60058460ff16901b178461208a90919063ffffffff16565b5061201a8167ffffffffffffffff166004856120aa9092919063ffffffff16565b50612060565b61203d601b60058460ff16901b178461208a90919063ffffffff16565b5061205e8167ffffffffffffffff166008856120aa9092919063ffffffff16565b505b5b5b5b505050565b6120706123d2565b612082838460000151518485516120cc565b905092915050565b6120926123d2565b6120a283846000015151846121bb565b905092915050565b6120b26123d2565b6120c3848560000151518585612211565b90509392505050565b6120d46123d2565b82518211156120e257600080fd5b846020015182856120f391906131a9565b1115612128576121278560026121188860200151888761211391906131a9565b61229f565b612122919061355d565b6122bb565b5b6000808651805187602083010193508088870111156121475787860182525b60208701925050505b6020841061218e578051825260208261216991906131a9565b915060208161217891906131a9565b90506020846121879190613529565b9350612150565b60006001856020036101000a03905080198251168184511681811785525050508692505050949350505050565b6121c36123d2565b836020015183106121e9576121e884600286602001516121e3919061355d565b6122bb565b5b83518051602085830101848153818603612204576001820183525b5050508390509392505050565b6122196123d2565b8460200151848361222a91906131a9565b111561225257612251856002868561224291906131a9565b61224c919061355d565b6122bb565b5b600060018361010061226491906136ea565b61226e9190613529565b905085518386820101858319825116178152815185880111156122915784870182525b505085915050949350505050565b6000818311156122b1578290506122b5565b8190505b92915050565b6000826000015190506122ce8383611e79565b506122d98382612068565b50505050565b8280546122eb90612a79565b90600052602060002090601f01602090048101928261230d5760008555612354565b82601f1061232657805160ff1916838001178555612354565b82800160010185558215612354579182015b82811115612353578251825591602001919060010190612338565b5b50905061236191906123ec565b5090565b6040518060a0016040528060008019168152602001600073ffffffffffffffffffffffffffffffffffffffff16815260200160007bffffffffffffffffffffffffffffffffffffffffffffffffffffffff19168152602001600081526020016123cc6123d2565b81525090565b604051806040016040528060608152602001600081525090565b5b808211156124055760008160009055506001016123ed565b5090565b6000604051905090565b600080fd5b600080fd5b600080fd5b600080fd5b6000601f19601f8301169050919050565b7f4e487b7100000000000000000000000000000000000000000000000000000000600052604160045260246000fd5b61247082612427565b810181811067ffffffffffffffff8211171561248f5761248e612438565b5b80604052505050565b60006124a2612409565b90506124ae8282612467565b919050565b600067ffffffffffffffff8211156124ce576124cd612438565b5b6124d782612427565b9050602081019050919050565b82818337600083830152505050565b6000612506612501846124b3565b612498565b90508281526020810184848401111561252257612521612422565b5b61252d8482856124e4565b509392505050565b600082601f83011261254a5761254961241d565b5b813561255a8482602086016124f3565b91505092915050565b6000819050919050565b61257681612563565b811461258157600080fd5b50565b6000813590506125938161256d565b92915050565b6000806000606084860312156125b2576125b1612413565b5b600084013567ffffffffffffffff8111156125d0576125cf612418565b5b6125dc86828701612535565b935050602084013567ffffffffffffffff8111156125fd576125fc612418565b5b61260986828701612535565b925050604061261a86828701612584565b9150509250925092565b60006020828403121561263a57612639612413565b5b600061264884828501612584565b91505092915050565b600081519050919050565b600082825260208201905092915050565b60005b8381101561268b578082015181840152602081019050612670565b8381111561269a576000848401525b50505050565b60006126ab82612651565b6126b5818561265c565b93506126c581856020860161266d565b6126ce81612427565b840191505092915050565b600060208201905081810360008301526126f381846126a0565b905092915050565b60006020828403121561271157612710612413565b5b600082013567ffffffffffffffff81111561272f5761272e612418565b5b61273b84828501612535565b91505092915050565b61274d81612563565b82525050565b600073ffffffffffffffffffffffffffffffffffffffff82169050919050565b600061277e82612753565b9050919050565b61278e81612773565b82525050565b60006060820190506127a96000830186612744565b6127b66020830185612785565b81810360408301526127c881846126a0565b9050949350505050565b60006020820190506127e76000830184612785565b92915050565b60006020820190506128026000830184612744565b92915050565b60008060006060848603121561282157612820612413565b5b600061282f86828701612584565b935050602061284086828701612584565b925050604084013567ffffffffffffffff81111561286157612860612418565b5b61286d86828701612535565b9150509250925092565b61288081612773565b811461288b57600080fd5b50565b60008135905061289d81612877565b92915050565b600080600080608085870312156128bd576128bc612413565b5b600085013567ffffffffffffffff8111156128db576128da612418565b5b6128e787828801612535565b945050602085013567ffffffffffffffff81111561290857612907612418565b5b61291487828801612535565b93505060406129258782880161288e565b925050606085013567ffffffffffffffff81111561294657612945612418565b5b61295287828801612535565b91505092959194509250565b60006020828403121561297457612973612413565b5b60006129828482850161288e565b91505092915050565b600081905092915050565b60006129a182612651565b6129ab818561298b565b93506129bb81856020860161266d565b80840191505092915050565b60006129d38284612996565b915081905092915050565b7f54686973207369746520646f6573206e6f742065786973740000000000000000600082015250565b6000612a1460188361265c565b9150612a1f826129de565b602082019050919050565b60006020820190508181036000830152612a4381612a07565b9050919050565b7f4e487b7100000000000000000000000000000000000000000000000000000000600052602260045260246000fd5b60006002820490506001821680612a9157607f821691505b602082108103612aa457612aa3612a4a565b5b50919050565b60008190508160005260206000209050919050565b60008154612acc81612a79565b612ad6818661298b565b94506001821660008114612af15760018114612b0257612b35565b60ff19831686528186019350612b35565b612b0b85612aaa565b60005b83811015612b2d57815481890152600182019150602081019050612b0e565b838801955050505b50505092915050565b7f2f6170692f76312f63612f776f726b6c6f61642f6c6966656379636c652f666f60008201527f726269645f756e69740000000000000000000000000000000000000000000000602082015250565b6000612b9a60298361298b565b9150612ba582612b3e565b602982019050919050565b6000612bbc8284612abf565b9150612bc782612b8d565b915081905092915050565b7f2f6170692f76312f63612f776f726b6c6f61642f6c6966656379636c652f726560008201527f766f6b6500000000000000000000000000000000000000000000000000000000602082015250565b6000612c2e60248361298b565b9150612c3982612bd2565b602482019050919050565b6000612c508284612abf565b9150612c5b82612c21565b915081905092915050565b7f2f6170692f76312f676f7665726e2f6c697374656e0000000000000000000000600082015250565b6000612c9c60158361298b565b9150612ca782612c66565b601582019050919050565b6000612cbe8284612abf565b9150612cc982612c8f565b915081905092915050565b7f2f6170692f76312f63612f776f726b6c6f61642f6c6966656379636c652f726560008201527f636f766572000000000000000000000000000000000000000000000000000000602082015250565b6000612d3060258361298b565b9150612d3b82612cd4565b602582019050919050565b6000612d528284612abf565b9150612d5d82612d23565b915081905092915050565b7f4d7573742062652070726f706f736564206f776e657200000000000000000000600082015250565b6000612d9e60168361265c565b9150612da982612d68565b602082019050919050565b60006020820190508181036000830152612dcd81612d91565b9050919050565b7f2f6170692f76312f63612f776f726b6c6f61642f6c6966656379636c652f726560008201527f636f7665725f756e697400000000000000000000000000000000000000000000602082015250565b6000612e30602a8361298b565b9150612e3b82612dd4565b602a82019050919050565b6000612e528284612abf565b9150612e5d82612e23565b915081905092915050565b6000819050919050565b612e7b81612e68565b8114612e8657600080fd5b50565b600081519050612e9881612e72565b92915050565b600060208284031215612eb457612eb3612413565b5b6000612ec284828501612e89565b91505092915050565b612ed481612e68565b82525050565b6000604082019050612eef6000830185612785565b612efc6020830184612ecb565b9392505050565b60008115159050919050565b612f1881612f03565b8114612f2357600080fd5b50565b600081519050612f3581612f0f565b92915050565b600060208284031215612f5157612f50612413565b5b6000612f5f84828501612f26565b91505092915050565b7f556e61626c6520746f207472616e736665720000000000000000000000000000600082015250565b6000612f9e60128361265c565b9150612fa982612f68565b602082019050919050565b60006020820190508181036000830152612fcd81612f91565b9050919050565b7f536f75726365206d75737420626520746865206f7261636c65206f662074686560008201527f2072657175657374000000000000000000000000000000000000000000000000602082015250565b600061303060288361265c565b915061303b82612fd4565b604082019050919050565b6000602082019050818103600083015261305f81613023565b9050919050565b6000819050919050565b61308161307c82612563565b613066565b82525050565b60006130938284613070565b60208201915081905092915050565b7f4f6e6c792063616c6c61626c65206279206f776e657200000000000000000000600082015250565b60006130d860168361265c565b91506130e3826130a2565b602082019050919050565b60006020820190508181036000830152613107816130cb565b9050919050565b7f43616e6e6f74207472616e7366657220746f2073656c66000000000000000000600082015250565b600061314460178361265c565b915061314f8261310e565b602082019050919050565b6000602082019050818103600083015261317381613137565b9050919050565b7f4e487b7100000000000000000000000000000000000000000000000000000000600052601160045260246000fd5b60006131b482612e68565b91506131bf83612e68565b9250827fffffffffffffffffffffffffffffffffffffffffffffffffffffffffffffffff038211156131f4576131f361317a565b5b828201905092915050565b60007fffffffff0000000000000000000000000000000000000000000000000000000082169050919050565b613234816131ff565b82525050565b600081519050919050565b600082825260208201905092915050565b60006132618261323a565b61326b8185613245565b935061327b81856020860161266d565b61328481612427565b840191505092915050565b6000610100820190506132a5600083018b612785565b6132b2602083018a612ecb565b6132bf6040830189612744565b6132cc6060830188612785565b6132d9608083018761322b565b6132e660a0830186612ecb565b6132f360c0830185612ecb565b81810360e08301526133058184613256565b90509998505050505050505050565b6000819050919050565b600061333961333461332f84612753565b613314565b612753565b9050919050565b600061334b8261331e565b9050919050565b600061335d82613340565b9050919050565b60008160601b9050919050565b600061337c82613364565b9050919050565b600061338e82613371565b9050919050565b6133a66133a182613352565b613383565b82525050565b6000819050919050565b6133c76133c282612e68565b6133ac565b82525050565b60006133d98285613395565b6014820191506133e982846133b6565b6020820191508190509392505050565b600060608201905061340e6000830186612785565b61341b6020830185612ecb565b818103604083015261342d8184613256565b9050949350505050565b7f756e61626c6520746f207472616e73666572416e6443616c6c20746f206f726160008201527f636c650000000000000000000000000000000000000000000000000000000000602082015250565b600061349360238361265c565b915061349e82613437565b604082019050919050565b600060208201905081810360008301526134c281613486565b9050919050565b7f4e487b7100000000000000000000000000000000000000000000000000000000600052601260045260246000fd5b600061350382612e68565b915061350e83612e68565b92508261351e5761351d6134c9565b5b828206905092915050565b600061353482612e68565b915061353f83612e68565b9250828210156135525761355161317a565b5b828203905092915050565b600061356882612e68565b915061357383612e68565b9250817fffffffffffffffffffffffffffffffffffffffffffffffffffffffffffffffff04831182151516156135ac576135ab61317a565b5b828202905092915050565b60008160011c9050919050565b6000808291508390505b600185111561360e578086048111156135ea576135e961317a565b5b60018516156135f95780820291505b8081029050613607856135b7565b94506135ce565b94509492505050565b60008261362757600190506136e3565b8161363557600090506136e3565b816001811461364b576002811461365557613684565b60019150506136e3565b60ff8411156136675761366661317a565b5b8360020a91508482111561367e5761367d61317a565b5b506136e3565b5060208310610133831016604e8410600b84101617156136b95782820a9050838111156136b4576136b361317a565b5b6136e3565b6136c684848460016135c4565b925090508184048111156136dd576136dc61317a565b5b81810290505b9392505050565b60006136f582612e68565b915061370083612e68565b925061372d7fffffffffffffffffffffffffffffffffffffffffffffffffffffffffffffffff8484613617565b90509291505056fea2646970667358221220c85e7620c7bb2aa1824c8f2019eb90238936b41e99f941bfcf33e2f32bc5d1b364736f6c634300080d0033",
  "linkReferences": {},
  "deployedLinkReferences": {}
}