{
  "_format": "hh-sol-artifact-1",
  "contractName": "ContainerPod",
  "sourceName": "contracts/oracle/Pod.sol",
  "abi": [
    {
      "inputs": [
        {
          "internalType": "address",
          "name": "_link_token_address",
          "type": "address"
        }
      ],
      "stateMutability": "nonpayable",
      "type": "constructor"
    },
    {
      "anonymous": false,
      "inputs": [
        {
          "indexed": true,
          "internalType": "bytes32",
          "name": "id",
          "type": "bytes32"
        }
      ],
      "name": "ChainlinkCancelled",
      "type": "event"
    },
    {
      "anonymous": false,
      "inputs": [
        {
          "indexed": true,
          "internalType": "bytes32",
          "name": "id",
          "type": "bytes32"
        }
      ],
      "name": "ChainlinkFulfilled",
      "type": "event"
    },
    {
      "anonymous": false,
      "inputs": [
        {
          "indexed": true,
          "internalType": "bytes32",
          "name": "id",
          "type": "bytes32"
        }
      ],
      "name": "ChainlinkRequested",
      "type": "event"
    },
    {
      "anonymous": false,
      "inputs": [
        {
          "indexed": true,
          "internalType": "address",
          "name": "from",
          "type": "address"
        },
        {
          "indexed": true,
          "internalType": "address",
          "name": "to",
          "type": "address"
        }
      ],
      "name": "OwnershipTransferRequested",
      "type": "event"
    },
    {
      "anonymous": false,
      "inputs": [
        {
          "indexed": true,
          "internalType": "address",
          "name": "from",
          "type": "address"
        },
        {
          "indexed": true,
          "internalType": "address",
          "name": "to",
          "type": "address"
        }
      ],
      "name": "OwnershipTransferred",
      "type": "event"
    },
    {
      "anonymous": false,
      "inputs": [
        {
          "indexed": true,
          "internalType": "bytes32",
          "name": "requestId",
          "type": "bytes32"
        },
        {
          "indexed": false,
          "internalType": "string",
          "name": "deployStatus",
          "type": "string"
        }
      ],
      "name": "RequestContainerPodFulfilled",
      "type": "event"
    },
    {
      "anonymous": false,
      "inputs": [
        {
          "indexed": true,
          "internalType": "bytes32",
          "name": "requestId",
          "type": "bytes32"
        },
        {
          "indexed": false,
          "internalType": "string",
          "name": "deleteStatus",
          "type": "string"
        }
      ],
      "name": "RequestDeletePodFulfilled",
      "type": "event"
    },
    {
      "inputs": [],
      "name": "ACCESS_CONTROL",
      "outputs": [
        {
          "internalType": "address",
          "name": "",
          "type": "address"
        }
      ],
      "stateMutability": "view",
      "type": "function"
    },
    {
      "inputs": [],
      "name": "acceptOwnership",
      "outputs": [],
      "stateMutability": "nonpayable",
      "type": "function"
    },
    {
      "inputs": [
        {
          "internalType": "bytes32",
          "name": "_requestId",
          "type": "bytes32"
        },
        {
          "internalType": "uint256",
          "name": "_payment",
          "type": "uint256"
        },
        {
          "internalType": "bytes4",
          "name": "_callbackFunctionId",
          "type": "bytes4"
        },
        {
          "internalType": "uint256",
          "name": "_expiration",
          "type": "uint256"
        }
      ],
      "name": "cancelRequest",
      "outputs": [],
      "stateMutability": "nonpayable",
      "type": "function"
    },
    {
      "inputs": [],
      "name": "currentDeleteStatus",
      "outputs": [
        {
          "internalType": "string",
          "name": "",
          "type": "string"
        }
      ],
      "stateMutability": "view",
      "type": "function"
    },
    {
      "inputs": [],
      "name": "currentDeployStatus",
      "outputs": [
        {
          "internalType": "string",
          "name": "",
          "type": "string"
        }
      ],
      "stateMutability": "view",
      "type": "function"
    },
    {
      "inputs": [
        {
          "internalType": "bytes32",
          "name": "_requestId",
          "type": "bytes32"
        },
        {
          "internalType": "string",
          "name": "_pod_status",
          "type": "string"
        }
      ],
      "name": "fulfillDeleteStatus",
      "outputs": [],
      "stateMutability": "nonpayable",
      "type": "function"
    },
    {
      "inputs": [
        {
          "internalType": "bytes32",
          "name": "_requestId",
          "type": "bytes32"
        },
        {
          "internalType": "string",
          "name": "_pod_status",
          "type": "string"
        }
      ],
      "name": "fulfillDeployStatus",
      "outputs": [],
      "stateMutability": "nonpayable",
      "type": "function"
    },
    {
      "inputs": [],
      "name": "getChainlinkToken",
      "outputs": [
        {
          "internalType": "address",
          "name": "",
          "type": "address"
        }
      ],
      "stateMutability": "view",
      "type": "function"
    },
    {
      "inputs": [],
      "name": "owner",
      "outputs": [
        {
          "internalType": "address",
          "name": "",
          "type": "address"
        }
      ],
      "stateMutability": "view",
      "type": "function"
    },
    {
      "inputs": [
        {
          "internalType": "address",
          "name": "_oracle",
          "type": "address"
        },
        {
          "internalType": "string",
          "name": "_jobId",
          "type": "string"
        },
        {
          "internalType": "string",
          "name": "_pod_code",
          "type": "string"
        },
        {
          "internalType": "string",
          "name": "_request_url",
          "type": "string"
        },
        {
          "internalType": "string",
          "name": "_public_key",
          "type": "string"
        }
      ],
      "name": "requestContainerPod",
      "outputs": [],
      "stateMutability": "nonpayable",
      "type": "function"
    },
    {
      "inputs": [
        {
          "internalType": "address",
          "name": "_oracle",
          "type": "address"
        },
        {
          "internalType": "string",
          "name": "_jobId",
          "type": "string"
        },
        {
          "internalType": "string",
          "name": "_request_url",
          "type": "string"
        },
        {
          "internalType": "string",
          "name": "_public_key",
          "type": "string"
        }
      ],
      "name": "requestDeletePod",
      "outputs": [],
      "stateMutability": "nonpayable",
      "type": "function"
    },
    {
      "inputs": [
        {
          "internalType": "address",
          "name": "to",
          "type": "address"
        }
      ],
      "name": "transferOwnership",
      "outputs": [],
      "stateMutability": "nonpayable",
      "type": "function"
    },
    {
      "inputs": [],
      "name": "withdrawLink",
      "outputs": [],
      "stateMutability": "nonpayable",
      "type": "function"
    }
  ],
  "bytecode": "0x60806040526001600455734d736e5c2b0c5c8e9ee88955964ead24c8d70469600860006101000a81548173ffffffffffffffffffffffffffffffffffffffff021916908373ffffffffffffffffffffffffffffffffffffffff1602179055503480156200006b57600080fd5b50604051620032f0380380620032f0833981810160405281019062000091919062000388565b338060008073ffffffffffffffffffffffffffffffffffffffff168273ffffffffffffffffffffffffffffffffffffffff160362000106576040517f08c379a0000000000000000000000000000000000000000000000000000000008152600401620000fd906200041b565b60405180910390fd5b81600660006101000a81548173ffffffffffffffffffffffffffffffffffffffff021916908373ffffffffffffffffffffffffffffffffffffffff160217905550600073ffffffffffffffffffffffffffffffffffffffff168173ffffffffffffffffffffffffffffffffffffffff16146200018e576200018d81620001a960201b60201c565b5b505050620001a281620002da60201b60201c565b50620004af565b3373ffffffffffffffffffffffffffffffffffffffff168173ffffffffffffffffffffffffffffffffffffffff16036200021a576040517f08c379a000000000000000000000000000000000000000000000000000000000815260040162000211906200048d565b60405180910390fd5b80600760006101000a81548173ffffffffffffffffffffffffffffffffffffffff021916908373ffffffffffffffffffffffffffffffffffffffff1602179055508073ffffffffffffffffffffffffffffffffffffffff16600660009054906101000a900473ffffffffffffffffffffffffffffffffffffffff1673ffffffffffffffffffffffffffffffffffffffff167fed8889f560326eb138920d842192f0eb3dd22b4f139c87a2c57538e05bae127860405160405180910390a350565b80600260006101000a81548173ffffffffffffffffffffffffffffffffffffffff021916908373ffffffffffffffffffffffffffffffffffffffff16021790555050565b600080fd5b600073ffffffffffffffffffffffffffffffffffffffff82169050919050565b6000620003508262000323565b9050919050565b620003628162000343565b81146200036e57600080fd5b50565b600081519050620003828162000357565b92915050565b600060208284031215620003a157620003a06200031e565b5b6000620003b18482850162000371565b91505092915050565b600082825260208201905092915050565b7f43616e6e6f7420736574206f776e657220746f207a65726f0000000000000000600082015250565b600062000403601883620003ba565b91506200041082620003cb565b602082019050919050565b600060208201905081810360008301526200043681620003f4565b9050919050565b7f43616e6e6f74207472616e7366657220746f2073656c66000000000000000000600082015250565b600062000475601783620003ba565b915062000482826200043d565b602082019050919050565b60006020820190508181036000830152620004a88162000466565b9050919050565b612e3180620004bf6000396000f3fe608060405234801561001057600080fd5b50600436106100cf5760003560e01c80638dc654a21161008c578063e346373b11610066578063e346373b146101b4578063ec65d0f8146101d0578063f2fde38b146101ec578063fa774c6214610208576100cf565b80638dc654a2146101705780639269db361461017a578063a8298b2e14610198576100cf565b8063024efcce146100d4578063165d35e1146100f05780635204c1601461010e57806379ba50971461012c5780638b5c11e4146101365780638da5cb5b14610152575b600080fd5b6100ee60048036038101906100e99190611dfd565b610226565b005b6100f86103ea565b6040516101059190611ec7565b60405180910390f35b6101166103f9565b6040516101239190611f6a565b60405180910390f35b610134610487565b005b610150600480360381019061014b9190612022565b61061e565b005b61015a610775565b6040516101679190611ec7565b60405180910390f35b61017861079f565b005b6101826108ec565b60405161018f9190611ec7565b60405180910390f35b6101b260048036038101906101ad9190612082565b610912565b005b6101ce60048036038101906101c99190612022565b610b79565b005b6101ea60048036038101906101e591906121fb565b610cd0565b005b61020660048036038101906102019190612262565b610cea565b005b610210610cfe565b60405161021d9190611f6a565b60405180910390f35b80600860009054906101000a900473ffffffffffffffffffffffffffffffffffffffff1673ffffffffffffffffffffffffffffffffffffffff16634d48108382336040518363ffffffff1660e01b815260040161028492919061228f565b602060405180830381865afa1580156102a1573d6000803e3d6000fd5b505050506040513d601f19601f820116820180604052508101906102c591906122f7565b610304576040517f08c379a00000000000000000000000000000000000000000000000000000000081526004016102fb90612396565b60405180910390fd5b600061032061031286610d8c565b3063e346373b60e01b610db5565b905061036c6040518060400160405280600681526020017f64656c65746500000000000000000000000000000000000000000000000000008152508583610de69092919063ffffffff16565b6103b66040518060400160405280600681526020017f75736572696400000000000000000000000000000000000000000000000000008152508483610de69092919063ffffffff16565b6103e18682600a670de0b6b3a764000060016103d291906123e5565b6103dc919061246e565b610e19565b50505050505050565b60006103f4610ee5565b905090565b60098054610406906124ce565b80601f0160208091040260200160405190810160405280929190818152602001828054610432906124ce565b801561047f5780601f106104545761010080835404028352916020019161047f565b820191906000526020600020905b81548152906001019060200180831161046257829003601f168201915b505050505081565b600760009054906101000a900473ffffffffffffffffffffffffffffffffffffffff1673ffffffffffffffffffffffffffffffffffffffff163373ffffffffffffffffffffffffffffffffffffffff1614610517576040517f08c379a000000000000000000000000000000000000000000000000000000000815260040161050e9061254b565b60405180910390fd5b6000600660009054906101000a900473ffffffffffffffffffffffffffffffffffffffff16905033600660006101000a81548173ffffffffffffffffffffffffffffffffffffffff021916908373ffffffffffffffffffffffffffffffffffffffff1602179055506000600760006101000a81548173ffffffffffffffffffffffffffffffffffffffff021916908373ffffffffffffffffffffffffffffffffffffffff1602179055503373ffffffffffffffffffffffffffffffffffffffff168173ffffffffffffffffffffffffffffffffffffffff167f8be0079c531659141344cd1fd0a4f28419497f9722a3daafe3b4186f6b6457e060405160405180910390a350565b826005600082815260200190815260200160002060009054906101000a900473ffffffffffffffffffffffffffffffffffffffff1673ffffffffffffffffffffffffffffffffffffffff163373ffffffffffffffffffffffffffffffffffffffff16146106c0576040517f08c379a00000000000000000000000000000000000000000000000000000000081526004016106b7906125dd565b60405180910390fd5b6005600082815260200190815260200160002060006101000a81549073ffffffffffffffffffffffffffffffffffffffff0219169055807f7cc135e0cebb02c3480ae5d74d377283180a2601f8f644edf7987b009316c63a60405160405180910390a2837f6a9d81895172c2d9b744594adce9e7b40217f381d3e6d792a68f03850f9d9f25848460405161075592919061262a565b60405180910390a282826009919061076e929190611b1b565b5050505050565b6000600660009054906101000a900473ffffffffffffffffffffffffffffffffffffffff16905090565b6107a7610f0f565b60006107b1610ee5565b90508073ffffffffffffffffffffffffffffffffffffffff1663a9059cbb338373ffffffffffffffffffffffffffffffffffffffff166370a08231306040518263ffffffff1660e01b81526004016108099190611ec7565b602060405180830381865afa158015610826573d6000803e3d6000fd5b505050506040513d601f19601f8201168201806040525081019061084a9190612663565b6040518363ffffffff1660e01b815260040161086792919061269f565b6020604051808303816000875af1158015610886573d6000803e3d6000fd5b505050506040513d601f19601f820116820180604052508101906108aa91906122f7565b6108e9576040517f08c379a00000000000000000000000000000000000000000000000000000000081526004016108e090612714565b60405180910390fd5b50565b600860009054906101000a900473ffffffffffffffffffffffffffffffffffffffff1681565b80600860009054906101000a900473ffffffffffffffffffffffffffffffffffffffff1673ffffffffffffffffffffffffffffffffffffffff16634d48108382336040518363ffffffff1660e01b815260040161097092919061228f565b602060405180830381865afa15801561098d573d6000803e3d6000fd5b505050506040513d601f19601f820116820180604052508101906109b191906122f7565b6109f0576040517f08c379a00000000000000000000000000000000000000000000000000000000081526004016109e790612396565b60405180910390fd5b6000610a0c6109fe87610d8c565b30638b5c11e460e01b610db5565b9050610a586040518060400160405280600481526020017f706f7374000000000000000000000000000000000000000000000000000000008152508583610de69092919063ffffffff16565b610aa26040518060400160405280600481526020017f79616d6c000000000000000000000000000000000000000000000000000000008152508683610de69092919063ffffffff16565b610aec6040518060400160405280600681526020017f75736572696400000000000000000000000000000000000000000000000000008152508483610de69092919063ffffffff16565b6000339050610b436040518060400160405280600681526020017f73656e6465720000000000000000000000000000000000000000000000000000815250610b3383610fa1565b84610de69092919063ffffffff16565b610b6e8883600a670de0b6b3a76400006001610b5f91906123e5565b610b69919061246e565b610e19565b505050505050505050565b826005600082815260200190815260200160002060009054906101000a900473ffffffffffffffffffffffffffffffffffffffff1673ffffffffffffffffffffffffffffffffffffffff163373ffffffffffffffffffffffffffffffffffffffff1614610c1b576040517f08c379a0000000000000000000000000000000000000000000000000000000008152600401610c12906125dd565b60405180910390fd5b6005600082815260200190815260200160002060006101000a81549073ffffffffffffffffffffffffffffffffffffffff0219169055807f7cc135e0cebb02c3480ae5d74d377283180a2601f8f644edf7987b009316c63a60405160405180910390a2837f95f67506d0b5adf5ca936a5944bbe2e22f39d1d5576a3449b42231e24d3d4f3f8484604051610cb092919061262a565b60405180910390a28282600a9190610cc9929190611b1b565b5050505050565b610cd8610f0f565b610ce484848484610fce565b50505050565b610cf2610f0f565b610cfb816110e1565b50565b600a8054610d0b906124ce565b80601f0160208091040260200160405190810160405280929190818152602001828054610d37906124ce565b8015610d845780601f10610d5957610100808354040283529160200191610d84565b820191906000526020600020905b815481529060010190602001808311610d6757829003601f168201915b505050505081565b6000808290506000815103610da7576000801b915050610db0565b60208301519150505b919050565b610dbd611ba1565b610dc5611ba1565b610ddc8585858461120f909392919063ffffffff16565b9150509392505050565b610dfd8284608001516112bf90919063ffffffff16565b610e148184608001516112bf90919063ffffffff16565b505050565b6000806004549050600181610e2e9190612734565b6004819055506000634042994660e01b60008087600001513089604001518760018c6080015160000151604051602401610e6f9897969594939291906127fd565b604051602081830303815290604052907bffffffffffffffffffffffffffffffffffffffffffffffffffffffff19166020820180517bffffffffffffffffffffffffffffffffffffffffffffffffffffffff83818316178352505050509050610eda868386846112e4565b925050509392505050565b6000600260009054906101000a900473ffffffffffffffffffffffffffffffffffffffff16905090565b600660009054906101000a900473ffffffffffffffffffffffffffffffffffffffff1673ffffffffffffffffffffffffffffffffffffffff163373ffffffffffffffffffffffffffffffffffffffff1614610f9f576040517f08c379a0000000000000000000000000000000000000000000000000000000008152600401610f96906128ce565b60405180910390fd5b565b6060610fc78273ffffffffffffffffffffffffffffffffffffffff16601460ff16611479565b9050919050565b60006005600086815260200190815260200160002060009054906101000a900473ffffffffffffffffffffffffffffffffffffffff1690506005600086815260200190815260200160002060006101000a81549073ffffffffffffffffffffffffffffffffffffffff0219169055847fe1fe3afa0f7f761ff0a8b89086790efd5140d2907ebd5b7ff6bfcb5e075fd4c560405160405180910390a28073ffffffffffffffffffffffffffffffffffffffff16636ee4d553868686866040518563ffffffff1660e01b81526004016110a894939291906128ee565b600060405180830381600087803b1580156110c257600080fd5b505af11580156110d6573d6000803e3d6000fd5b505050505050505050565b3373ffffffffffffffffffffffffffffffffffffffff168173ffffffffffffffffffffffffffffffffffffffff160361114f576040517f08c379a00000000000000000000000000000000000000000000000000000000081526004016111469061297f565b60405180910390fd5b80600760006101000a81548173ffffffffffffffffffffffffffffffffffffffff021916908373ffffffffffffffffffffffffffffffffffffffff1602179055508073ffffffffffffffffffffffffffffffffffffffff16600660009054906101000a900473ffffffffffffffffffffffffffffffffffffffff1673ffffffffffffffffffffffffffffffffffffffff167fed8889f560326eb138920d842192f0eb3dd22b4f139c87a2c57538e05bae127860405160405180910390a350565b611217611ba1565b61122785608001516101006116b5565b508385600001818152505082856020019073ffffffffffffffffffffffffffffffffffffffff16908173ffffffffffffffffffffffffffffffffffffffff16815250508185604001907bffffffffffffffffffffffffffffffffffffffffffffffffffffffff191690817bffffffffffffffffffffffffffffffffffffffffffffffffffffffff191681525050849050949350505050565b6112cc826003835161171f565b6112df81836118a490919063ffffffff16565b505050565b600030846040516020016112f9929190612a58565b604051602081830303815290604052805190602001209050846005600083815260200190815260200160002060006101000a81548173ffffffffffffffffffffffffffffffffffffffff021916908373ffffffffffffffffffffffffffffffffffffffff160217905550807fb5e6e01e79f91267dc17b4e6314d5d4d03593d2ceee0fbb452b750bd70ea5af960405160405180910390a2600260009054906101000a900473ffffffffffffffffffffffffffffffffffffffff1673ffffffffffffffffffffffffffffffffffffffff16634000aea08685856040518463ffffffff1660e01b81526004016113ef93929190612a84565b6020604051808303816000875af115801561140e573d6000803e3d6000fd5b505050506040513d601f19601f8201168201806040525081019061143291906122f7565b611471576040517f08c379a000000000000000000000000000000000000000000000000000000000815260040161146890612b34565b60405180910390fd5b949350505050565b60606000600283600261148c91906123e5565b6114969190612734565b67ffffffffffffffff8111156114af576114ae611cd2565b5b6040519080825280601f01601f1916602001820160405280156114e15781602001600182028036833780820191505090505b5090507f30000000000000000000000000000000000000000000000000000000000000008160008151811061151957611518612b54565b5b60200101907effffffffffffffffffffffffffffffffffffffffffffffffffffffffffffff1916908160001a9053507f78000000000000000000000000000000000000000000000000000000000000008160018151811061157d5761157c612b54565b5b60200101907effffffffffffffffffffffffffffffffffffffffffffffffffffffffffffff1916908160001a905350600060018460026115bd91906123e5565b6115c79190612734565b90505b6001811115611667577f3031323334353637383961626364656600000000000000000000000000000000600f86166010811061160957611608612b54565b5b1a60f81b8282815181106116205761161f612b54565b5b60200101907effffffffffffffffffffffffffffffffffffffffffffffffffffffffffffff1916908160001a905350600485901c94508061166090612b83565b90506115ca565b50600084146116ab576040517f08c379a00000000000000000000000000000000000000000000000000000000081526004016116a290612bf8565b60405180910390fd5b8091505092915050565b6116bd611c0e565b60006020836116cc9190612c18565b146116f8576020826116de9190612c18565b60206116ea9190612c49565b826116f59190612734565b91505b81836020018181525050604051808452600081528281016020016040525082905092915050565b60178167ffffffffffffffff1611611756576117508160058460ff16901b60ff1617846118c690919063ffffffff16565b5061189f565b60ff8167ffffffffffffffff16116117ac57611785601860058460ff16901b17846118c690919063ffffffff16565b506117a68167ffffffffffffffff166001856118e69092919063ffffffff16565b5061189e565b61ffff8167ffffffffffffffff1611611803576117dc601960058460ff16901b17846118c690919063ffffffff16565b506117fd8167ffffffffffffffff166002856118e69092919063ffffffff16565b5061189d565b63ffffffff8167ffffffffffffffff161161185c57611835601a60058460ff16901b17846118c690919063ffffffff16565b506118568167ffffffffffffffff166004856118e69092919063ffffffff16565b5061189c565b611879601b60058460ff16901b17846118c690919063ffffffff16565b5061189a8167ffffffffffffffff166008856118e69092919063ffffffff16565b505b5b5b5b505050565b6118ac611c0e565b6118be83846000015151848551611908565b905092915050565b6118ce611c0e565b6118de83846000015151846119f7565b905092915050565b6118ee611c0e565b6118ff848560000151518585611a4d565b90509392505050565b611910611c0e565b825182111561191e57600080fd5b8460200151828561192f9190612734565b1115611964576119638560026119548860200151888761194f9190612734565b611adb565b61195e91906123e5565b611af7565b5b6000808651805187602083010193508088870111156119835787860182525b60208701925050505b602084106119ca57805182526020826119a59190612734565b91506020816119b49190612734565b90506020846119c39190612c49565b935061198c565b60006001856020036101000a03905080198251168184511681811785525050508692505050949350505050565b6119ff611c0e565b83602001518310611a2557611a248460028660200151611a1f91906123e5565b611af7565b5b83518051602085830101848153818603611a40576001820183525b5050508390509392505050565b611a55611c0e565b84602001518483611a669190612734565b1115611a8e57611a8d8560028685611a7e9190612734565b611a8891906123e5565b611af7565b5b6000600183610100611aa09190612db0565b611aaa9190612c49565b90508551838682010185831982511617815281518588011115611acd5784870182525b505085915050949350505050565b600081831115611aed57829050611af1565b8190505b92915050565b600082600001519050611b0a83836116b5565b50611b1583826118a4565b50505050565b828054611b27906124ce565b90600052602060002090601f016020900481019282611b495760008555611b90565b82601f10611b6257803560ff1916838001178555611b90565b82800160010185558215611b90579182015b82811115611b8f578235825591602001919060010190611b74565b5b509050611b9d9190611c28565b5090565b6040518060a0016040528060008019168152602001600073ffffffffffffffffffffffffffffffffffffffff16815260200160007bffffffffffffffffffffffffffffffffffffffffffffffffffffffff1916815260200160008152602001611c08611c0e565b81525090565b604051806040016040528060608152602001600081525090565b5b80821115611c41576000816000905550600101611c29565b5090565b6000604051905090565b600080fd5b600080fd5b600073ffffffffffffffffffffffffffffffffffffffff82169050919050565b6000611c8482611c59565b9050919050565b611c9481611c79565b8114611c9f57600080fd5b50565b600081359050611cb181611c8b565b92915050565b600080fd5b600080fd5b6000601f19601f8301169050919050565b7f4e487b7100000000000000000000000000000000000000000000000000000000600052604160045260246000fd5b611d0a82611cc1565b810181811067ffffffffffffffff82111715611d2957611d28611cd2565b5b80604052505050565b6000611d3c611c45565b9050611d488282611d01565b919050565b600067ffffffffffffffff821115611d6857611d67611cd2565b5b611d7182611cc1565b9050602081019050919050565b82818337600083830152505050565b6000611da0611d9b84611d4d565b611d32565b905082815260208101848484011115611dbc57611dbb611cbc565b5b611dc7848285611d7e565b509392505050565b600082601f830112611de457611de3611cb7565b5b8135611df4848260208601611d8d565b91505092915050565b60008060008060808587031215611e1757611e16611c4f565b5b6000611e2587828801611ca2565b945050602085013567ffffffffffffffff811115611e4657611e45611c54565b5b611e5287828801611dcf565b935050604085013567ffffffffffffffff811115611e7357611e72611c54565b5b611e7f87828801611dcf565b925050606085013567ffffffffffffffff811115611ea057611e9f611c54565b5b611eac87828801611dcf565b91505092959194509250565b611ec181611c79565b82525050565b6000602082019050611edc6000830184611eb8565b92915050565b600081519050919050565b600082825260208201905092915050565b60005b83811015611f1c578082015181840152602081019050611f01565b83811115611f2b576000848401525b50505050565b6000611f3c82611ee2565b611f468185611eed565b9350611f56818560208601611efe565b611f5f81611cc1565b840191505092915050565b60006020820190508181036000830152611f848184611f31565b905092915050565b6000819050919050565b611f9f81611f8c565b8114611faa57600080fd5b50565b600081359050611fbc81611f96565b92915050565b600080fd5b600080fd5b60008083601f840112611fe257611fe1611cb7565b5b8235905067ffffffffffffffff811115611fff57611ffe611fc2565b5b60208301915083600182028301111561201b5761201a611fc7565b5b9250929050565b60008060006040848603121561203b5761203a611c4f565b5b600061204986828701611fad565b935050602084013567ffffffffffffffff81111561206a57612069611c54565b5b61207686828701611fcc565b92509250509250925092565b600080600080600060a0868803121561209e5761209d611c4f565b5b60006120ac88828901611ca2565b955050602086013567ffffffffffffffff8111156120cd576120cc611c54565b5b6120d988828901611dcf565b945050604086013567ffffffffffffffff8111156120fa576120f9611c54565b5b61210688828901611dcf565b935050606086013567ffffffffffffffff81111561212757612126611c54565b5b61213388828901611dcf565b925050608086013567ffffffffffffffff81111561215457612153611c54565b5b61216088828901611dcf565b9150509295509295909350565b6000819050919050565b6121808161216d565b811461218b57600080fd5b50565b60008135905061219d81612177565b92915050565b60007fffffffff0000000000000000000000000000000000000000000000000000000082169050919050565b6121d8816121a3565b81146121e357600080fd5b50565b6000813590506121f5816121cf565b92915050565b6000806000806080858703121561221557612214611c4f565b5b600061222387828801611fad565b94505060206122348782880161218e565b9350506040612245878288016121e6565b92505060606122568782880161218e565b91505092959194509250565b60006020828403121561227857612277611c4f565b5b600061228684828501611ca2565b91505092915050565b600060408201905081810360008301526122a98185611f31565b90506122b86020830184611eb8565b9392505050565b60008115159050919050565b6122d4816122bf565b81146122df57600080fd5b50565b6000815190506122f1816122cb565b92915050565b60006020828403121561230d5761230c611c4f565b5b600061231b848285016122e2565b91505092915050565b7f4e6f7420617574686f72697a656420627920746865206163636f756e74206f7760008201527f6e65720000000000000000000000000000000000000000000000000000000000602082015250565b6000612380602383611eed565b915061238b82612324565b604082019050919050565b600060208201905081810360008301526123af81612373565b9050919050565b7f4e487b7100000000000000000000000000000000000000000000000000000000600052601160045260246000fd5b60006123f08261216d565b91506123fb8361216d565b9250817fffffffffffffffffffffffffffffffffffffffffffffffffffffffffffffffff0483118215151615612434576124336123b6565b5b828202905092915050565b7f4e487b7100000000000000000000000000000000000000000000000000000000600052601260045260246000fd5b60006124798261216d565b91506124848361216d565b9250826124945761249361243f565b5b828204905092915050565b7f4e487b7100000000000000000000000000000000000000000000000000000000600052602260045260246000fd5b600060028204905060018216806124e657607f821691505b6020821081036124f9576124f861249f565b5b50919050565b7f4d7573742062652070726f706f736564206f776e657200000000000000000000600082015250565b6000612535601683611eed565b9150612540826124ff565b602082019050919050565b6000602082019050818103600083015261256481612528565b9050919050565b7f536f75726365206d75737420626520746865206f7261636c65206f662074686560008201527f2072657175657374000000000000000000000000000000000000000000000000602082015250565b60006125c7602883611eed565b91506125d28261256b565b604082019050919050565b600060208201905081810360008301526125f6816125ba565b9050919050565b60006126098385611eed565b9350612616838584611d7e565b61261f83611cc1565b840190509392505050565b600060208201905081810360008301526126458184866125fd565b90509392505050565b60008151905061265d81612177565b92915050565b60006020828403121561267957612678611c4f565b5b60006126878482850161264e565b91505092915050565b6126998161216d565b82525050565b60006040820190506126b46000830185611eb8565b6126c16020830184612690565b9392505050565b7f556e61626c6520746f207472616e736665720000000000000000000000000000600082015250565b60006126fe601283611eed565b9150612709826126c8565b602082019050919050565b6000602082019050818103600083015261272d816126f1565b9050919050565b600061273f8261216d565b915061274a8361216d565b9250827fffffffffffffffffffffffffffffffffffffffffffffffffffffffffffffffff0382111561277f5761277e6123b6565b5b828201905092915050565b61279381611f8c565b82525050565b6127a2816121a3565b82525050565b600081519050919050565b600082825260208201905092915050565b60006127cf826127a8565b6127d981856127b3565b93506127e9818560208601611efe565b6127f281611cc1565b840191505092915050565b600061010082019050612813600083018b611eb8565b612820602083018a612690565b61282d604083018961278a565b61283a6060830188611eb8565b6128476080830187612799565b61285460a0830186612690565b61286160c0830185612690565b81810360e083015261287381846127c4565b90509998505050505050505050565b7f4f6e6c792063616c6c61626c65206279206f776e657200000000000000000000600082015250565b60006128b8601683611eed565b91506128c382612882565b602082019050919050565b600060208201905081810360008301526128e7816128ab565b9050919050565b6000608082019050612903600083018761278a565b6129106020830186612690565b61291d6040830185612799565b61292a6060830184612690565b95945050505050565b7f43616e6e6f74207472616e7366657220746f2073656c66000000000000000000600082015250565b6000612969601783611eed565b915061297482612933565b602082019050919050565b600060208201905081810360008301526129988161295c565b9050919050565b6000819050919050565b60006129c46129bf6129ba84611c59565b61299f565b611c59565b9050919050565b60006129d6826129a9565b9050919050565b60006129e8826129cb565b9050919050565b60008160601b9050919050565b6000612a07826129ef565b9050919050565b6000612a19826129fc565b9050919050565b612a31612a2c826129dd565b612a0e565b82525050565b6000819050919050565b612a52612a4d8261216d565b612a37565b82525050565b6000612a648285612a20565b601482019150612a748284612a41565b6020820191508190509392505050565b6000606082019050612a996000830186611eb8565b612aa66020830185612690565b8181036040830152612ab881846127c4565b9050949350505050565b7f756e61626c6520746f207472616e73666572416e6443616c6c20746f206f726160008201527f636c650000000000000000000000000000000000000000000000000000000000602082015250565b6000612b1e602383611eed565b9150612b2982612ac2565b604082019050919050565b60006020820190508181036000830152612b4d81612b11565b9050919050565b7f4e487b7100000000000000000000000000000000000000000000000000000000600052603260045260246000fd5b6000612b8e8261216d565b915060008203612ba157612ba06123b6565b5b600182039050919050565b7f537472696e67733a20686578206c656e67746820696e73756666696369656e74600082015250565b6000612be2602083611eed565b9150612bed82612bac565b602082019050919050565b60006020820190508181036000830152612c1181612bd5565b9050919050565b6000612c238261216d565b9150612c2e8361216d565b925082612c3e57612c3d61243f565b5b828206905092915050565b6000612c548261216d565b9150612c5f8361216d565b925082821015612c7257612c716123b6565b5b828203905092915050565b60008160011c9050919050565b6000808291508390505b6001851115612cd457808604811115612cb057612caf6123b6565b5b6001851615612cbf5780820291505b8081029050612ccd85612c7d565b9450612c94565b94509492505050565b600082612ced5760019050612da9565b81612cfb5760009050612da9565b8160018114612d115760028114612d1b57612d4a565b6001915050612da9565b60ff841115612d2d57612d2c6123b6565b5b8360020a915084821115612d4457612d436123b6565b5b50612da9565b5060208310610133831016604e8410600b8410161715612d7f5782820a905083811115612d7a57612d796123b6565b5b612da9565b612d8c8484846001612c8a565b92509050818404811115612da357612da26123b6565b5b81810290505b9392505050565b6000612dbb8261216d565b9150612dc68361216d565b9250612df37fffffffffffffffffffffffffffffffffffffffffffffffffffffffffffffffff8484612cdd565b90509291505056fea264697066735822122054dbe4c4aca58582890ce57a5775d96e0312acc28addaac25cb341364e491fa064736f6c634300080d0033",
  "linkReferences": {},
  "deployedLinkReferences": {}
}