{
  "_format": "hh-sol-artifact-1",
  "contractName": "STCMarketToken",
  "sourceName": "contracts/STCMarketToken.sol",
  "abi": [
    {
      "inputs": [],
      "stateMutability": "nonpayable",
      "type": "constructor"
    },
    {
      "anonymous": false,
      "inputs": [
        {
          "indexed": true,
          "internalType": "address",
          "name": "owner",
          "type": "address"
        },
        {
          "indexed": true,
          "internalType": "address",
          "name": "spender",
          "type": "address"
        },
        {
          "indexed": false,
          "internalType": "uint256",
          "name": "value",
          "type": "uint256"
        }
      ],
      "name": "Approval",
      "type": "event"
    },
    {
      "anonymous": false,
      "inputs": [
        {
          "indexed": true,
          "internalType": "address",
          "name": "previousOwner",
          "type": "address"
        },
        {
          "indexed": true,
          "internalType": "address",
          "name": "newOwner",
          "type": "address"
        }
      ],
      "name": "OwnershipTransferred",
      "type": "event"
    },
    {
      "anonymous": false,
      "inputs": [
        {
          "indexed": true,
          "internalType": "address",
          "name": "from",
          "type": "address"
        },
        {
          "indexed": true,
          "internalType": "address",
          "name": "to",
          "type": "address"
        },
        {
          "indexed": false,
          "internalType": "uint256",
          "name": "value",
          "type": "uint256"
        }
      ],
      "name": "Transfer",
      "type": "event"
    },
    {
      "inputs": [],
      "name": "MY_ROLE",
      "outputs": [
        {
          "internalType": "bytes32",
          "name": "",
          "type": "bytes32"
        }
      ],
      "stateMutability": "view",
      "type": "function"
    },
    {
      "inputs": [
        {
          "internalType": "uint256",
          "name": "",
          "type": "uint256"
        }
      ],
      "name": "_idToApiOrder",
      "outputs": [
        {
          "internalType": "uint256",
          "name": "orderId",
          "type": "uint256"
        },
        {
          "internalType": "uint256",
          "name": "daoId",
          "type": "uint256"
        },
        {
          "internalType": "uint256",
          "name": "marketId",
          "type": "uint256"
        },
        {
          "internalType": "uint256",
          "name": "totalCalls",
          "type": "uint256"
        },
        {
          "internalType": "uint256",
          "name": "remainingCalls",
          "type": "uint256"
        },
        {
          "internalType": "uint256",
          "name": "orderPrice",
          "type": "uint256"
        },
        {
          "internalType": "address",
          "name": "buyerAddress",
          "type": "address"
        }
      ],
      "stateMutability": "view",
      "type": "function"
    },
    {
      "inputs": [
        {
          "internalType": "uint256",
          "name": "",
          "type": "uint256"
        }
      ],
      "name": "_orderRemainingCalls",
      "outputs": [
        {
          "internalType": "uint256",
          "name": "",
          "type": "uint256"
        }
      ],
      "stateMutability": "view",
      "type": "function"
    },
    {
      "inputs": [
        {
          "internalType": "address",
          "name": "",
          "type": "address"
        },
        {
          "internalType": "uint256",
          "name": "",
          "type": "uint256"
        }
      ],
      "name": "_userOrderIds",
      "outputs": [
        {
          "internalType": "uint256",
          "name": "",
          "type": "uint256"
        }
      ],
      "stateMutability": "view",
      "type": "function"
    },
    {
      "inputs": [
        {
          "internalType": "address",
          "name": "",
          "type": "address"
        },
        {
          "internalType": "uint256",
          "name": "",
          "type": "uint256"
        }
      ],
      "name": "_userRemainingCalls",
      "outputs": [
        {
          "internalType": "uint256",
          "name": "",
          "type": "uint256"
        }
      ],
      "stateMutability": "view",
      "type": "function"
    },
    {
      "inputs": [
        {
          "internalType": "address",
          "name": "owner",
          "type": "address"
        },
        {
          "internalType": "address",
          "name": "spender",
          "type": "address"
        }
      ],
      "name": "allowance",
      "outputs": [
        {
          "internalType": "uint256",
          "name": "",
          "type": "uint256"
        }
      ],
      "stateMutability": "view",
      "type": "function"
    },
    {
      "inputs": [
        {
          "internalType": "address",
          "name": "spender",
          "type": "address"
        },
        {
          "internalType": "uint256",
          "name": "amount",
          "type": "uint256"
        }
      ],
      "name": "approve",
      "outputs": [
        {
          "internalType": "bool",
          "name": "",
          "type": "bool"
        }
      ],
      "stateMutability": "nonpayable",
      "type": "function"
    },
    {
      "inputs": [
        {
          "internalType": "address",
          "name": "account",
          "type": "address"
        }
      ],
      "name": "balanceOf",
      "outputs": [
        {
          "internalType": "uint256",
          "name": "",
          "type": "uint256"
        }
      ],
      "stateMutability": "view",
      "type": "function"
    },
    {
      "inputs": [
        {
          "internalType": "uint256",
          "name": "daoId",
          "type": "uint256"
        },
        {
          "internalType": "uint256",
          "name": "marketId",
          "type": "uint256"
        },
        {
          "internalType": "uint256",
          "name": "totalCalls",
          "type": "uint256"
        },
        {
          "internalType": "uint256",
          "name": "orderPrice",
          "type": "uint256"
        }
      ],
      "name": "createOrder",
      "outputs": [],
      "stateMutability": "nonpayable",
      "type": "function"
    },
    {
      "inputs": [],
      "name": "decimals",
      "outputs": [
        {
          "internalType": "uint8",
          "name": "",
          "type": "uint8"
        }
      ],
      "stateMutability": "view",
      "type": "function"
    },
    {
      "inputs": [
        {
          "internalType": "address",
          "name": "spender",
          "type": "address"
        },
        {
          "internalType": "uint256",
          "name": "subtractedValue",
          "type": "uint256"
        }
      ],
      "name": "decreaseAllowance",
      "outputs": [
        {
          "internalType": "bool",
          "name": "",
          "type": "bool"
        }
      ],
      "stateMutability": "nonpayable",
      "type": "function"
    },
    {
      "inputs": [],
      "name": "getStakeToken",
      "outputs": [
        {
          "internalType": "uint256",
          "name": "",
          "type": "uint256"
        }
      ],
      "stateMutability": "view",
      "type": "function"
    },
    {
      "inputs": [],
      "name": "getUserAllOrders",
      "outputs": [
        {
          "components": [
            {
              "internalType": "uint256",
              "name": "orderId",
              "type": "uint256"
            },
            {
              "internalType": "uint256",
              "name": "daoId",
              "type": "uint256"
            },
            {
              "internalType": "uint256",
              "name": "marketId",
              "type": "uint256"
            },
            {
              "internalType": "uint256",
              "name": "totalCalls",
              "type": "uint256"
            },
            {
              "internalType": "uint256",
              "name": "remainingCalls",
              "type": "uint256"
            },
            {
              "internalType": "uint256",
              "name": "orderPrice",
              "type": "uint256"
            },
            {
              "internalType": "address",
              "name": "buyerAddress",
              "type": "address"
            }
          ],
          "internalType": "struct STCMarketToken.ApiOrder[]",
          "name": "",
          "type": "tuple[]"
        }
      ],
      "stateMutability": "view",
      "type": "function"
    },
    {
      "inputs": [
        {
          "internalType": "uint256",
          "name": "daoId",
          "type": "uint256"
        }
      ],
      "name": "getUserAllOrdersOnDao",
      "outputs": [
        {
          "components": [
            {
              "internalType": "uint256",
              "name": "orderId",
              "type": "uint256"
            },
            {
              "internalType": "uint256",
              "name": "daoId",
              "type": "uint256"
            },
            {
              "internalType": "uint256",
              "name": "marketId",
              "type": "uint256"
            },
            {
              "internalType": "uint256",
              "name": "totalCalls",
              "type": "uint256"
            },
            {
              "internalType": "uint256",
              "name": "remainingCalls",
              "type": "uint256"
            },
            {
              "internalType": "uint256",
              "name": "orderPrice",
              "type": "uint256"
            },
            {
              "internalType": "address",
              "name": "buyerAddress",
              "type": "address"
            }
          ],
          "internalType": "struct STCMarketToken.ApiOrder[]",
          "name": "",
          "type": "tuple[]"
        }
      ],
      "stateMutability": "view",
      "type": "function"
    },
    {
      "inputs": [
        {
          "internalType": "address",
          "name": "spender",
          "type": "address"
        },
        {
          "internalType": "uint256",
          "name": "addedValue",
          "type": "uint256"
        }
      ],
      "name": "increaseAllowance",
      "outputs": [
        {
          "internalType": "bool",
          "name": "",
          "type": "bool"
        }
      ],
      "stateMutability": "nonpayable",
      "type": "function"
    },
    {
      "inputs": [],
      "name": "name",
      "outputs": [
        {
          "internalType": "string",
          "name": "",
          "type": "string"
        }
      ],
      "stateMutability": "view",
      "type": "function"
    },
    {
      "inputs": [],
      "name": "owner",
      "outputs": [
        {
          "internalType": "address",
          "name": "",
          "type": "address"
        }
      ],
      "stateMutability": "view",
      "type": "function"
    },
    {
      "inputs": [],
      "name": "refund",
      "outputs": [],
      "stateMutability": "nonpayable",
      "type": "function"
    },
    {
      "inputs": [],
      "name": "renounceOwnership",
      "outputs": [],
      "stateMutability": "nonpayable",
      "type": "function"
    },
    {
      "inputs": [
        {
          "internalType": "uint256",
          "name": "amount",
          "type": "uint256"
        }
      ],
      "name": "stake",
      "outputs": [],
      "stateMutability": "nonpayable",
      "type": "function"
    },
    {
      "inputs": [
        {
          "internalType": "address",
          "name": "user",
          "type": "address"
        }
      ],
      "name": "stakerExists",
      "outputs": [
        {
          "internalType": "bool",
          "name": "",
          "type": "bool"
        }
      ],
      "stateMutability": "view",
      "type": "function"
    },
    {
      "inputs": [
        {
          "internalType": "address",
          "name": "",
          "type": "address"
        }
      ],
      "name": "stakes",
      "outputs": [
        {
          "internalType": "uint256",
          "name": "",
          "type": "uint256"
        }
      ],
      "stateMutability": "view",
      "type": "function"
    },
    {
      "inputs": [],
      "name": "symbol",
      "outputs": [
        {
          "internalType": "string",
          "name": "",
          "type": "string"
        }
      ],
      "stateMutability": "view",
      "type": "function"
    },
    {
      "inputs": [],
      "name": "totalSupply",
      "outputs": [
        {
          "internalType": "uint256",
          "name": "",
          "type": "uint256"
        }
      ],
      "stateMutability": "view",
      "type": "function"
    },
    {
      "inputs": [
        {
          "internalType": "address",
          "name": "to",
          "type": "address"
        },
        {
          "internalType": "uint256",
          "name": "amount",
          "type": "uint256"
        }
      ],
      "name": "transfer",
      "outputs": [
        {
          "internalType": "bool",
          "name": "",
          "type": "bool"
        }
      ],
      "stateMutability": "nonpayable",
      "type": "function"
    },
    {
      "inputs": [
        {
          "internalType": "address",
          "name": "from",
          "type": "address"
        },
        {
          "internalType": "address",
          "name": "to",
          "type": "address"
        },
        {
          "internalType": "uint256",
          "name": "amount",
          "type": "uint256"
        }
      ],
      "name": "transferFrom",
      "outputs": [
        {
          "internalType": "bool",
          "name": "",
          "type": "bool"
        }
      ],
      "stateMutability": "nonpayable",
      "type": "function"
    },
    {
      "inputs": [
        {
          "internalType": "address",
          "name": "newOwner",
          "type": "address"
        }
      ],
      "name": "transferOwnership",
      "outputs": [],
      "stateMutability": "nonpayable",
      "type": "function"
    }
  ],
  "bytecode": "0x608060405268056bc75e2d631000006007553480156200001e57600080fd5b506040518060400160405280601281526020017f5354434150494d61726b657420546f6b656e00000000000000000000000000008152506040518060400160405280600481526020017f53544354000000000000000000000000000000000000000000000000000000008152508160039080519060200190620000a3929190620003a0565b508060049080519060200190620000bc929190620003a0565b505050620000df620000d36200013c60201b60201c565b6200014460201b60201c565b6200011f33620000f46200020a60201b60201c565b600a620001029190620005ea565b6305f5e1006200011391906200063b565b6200021360201b60201c565b6200013660066200038060201b62000fb41760201c565b6200080e565b600033905090565b6000600560009054906101000a900473ffffffffffffffffffffffffffffffffffffffff16905081600560006101000a81548173ffffffffffffffffffffffffffffffffffffffff021916908373ffffffffffffffffffffffffffffffffffffffff1602179055508173ffffffffffffffffffffffffffffffffffffffff168173ffffffffffffffffffffffffffffffffffffffff167f8be0079c531659141344cd1fd0a4f28419497f9722a3daafe3b4186f6b6457e060405160405180910390a35050565b60006012905090565b600073ffffffffffffffffffffffffffffffffffffffff168273ffffffffffffffffffffffffffffffffffffffff160362000285576040517f08c379a00000000000000000000000000000000000000000000000000000000081526004016200027c90620006fd565b60405180910390fd5b62000299600083836200039660201b60201c565b8060026000828254620002ad91906200071f565b92505081905550806000808473ffffffffffffffffffffffffffffffffffffffff1673ffffffffffffffffffffffffffffffffffffffff168152602001908152602001600020600082825401925050819055508173ffffffffffffffffffffffffffffffffffffffff16600073ffffffffffffffffffffffffffffffffffffffff167fddf252ad1be2c89b69c2b068fc378daa952ba7f163c4a11628f55a4df523b3ef836040516200036091906200078d565b60405180910390a36200037c600083836200039b60201b60201c565b5050565b6001816000016000828254019250508190555050565b505050565b505050565b828054620003ae90620007d9565b90600052602060002090601f016020900481019282620003d257600085556200041e565b82601f10620003ed57805160ff19168380011785556200041e565b828001600101855582156200041e579182015b828111156200041d57825182559160200191906001019062000400565b5b5090506200042d919062000431565b5090565b5b808211156200044c57600081600090555060010162000432565b5090565b7f4e487b7100000000000000000000000000000000000000000000000000000000600052601160045260246000fd5b60008160011c9050919050565b6000808291508390505b6001851115620004de57808604811115620004b657620004b562000450565b5b6001851615620004c65780820291505b8081029050620004d6856200047f565b945062000496565b94509492505050565b600082620004f95760019050620005cc565b81620005095760009050620005cc565b81600181146200052257600281146200052d5762000563565b6001915050620005cc565b60ff84111562000542576200054162000450565b5b8360020a9150848211156200055c576200055b62000450565b5b50620005cc565b5060208310610133831016604e8410600b84101617156200059d5782820a90508381111562000597576200059662000450565b5b620005cc565b620005ac84848460016200048c565b92509050818404811115620005c657620005c562000450565b5b81810290505b9392505050565b6000819050919050565b600060ff82169050919050565b6000620005f782620005d3565b91506200060483620005dd565b9250620006337fffffffffffffffffffffffffffffffffffffffffffffffffffffffffffffffff8484620004e7565b905092915050565b60006200064882620005d3565b91506200065583620005d3565b9250817fffffffffffffffffffffffffffffffffffffffffffffffffffffffffffffffff048311821515161562000691576200069062000450565b5b828202905092915050565b600082825260208201905092915050565b7f45524332303a206d696e7420746f20746865207a65726f206164647265737300600082015250565b6000620006e5601f836200069c565b9150620006f282620006ad565b602082019050919050565b600060208201905081810360008301526200071881620006d6565b9050919050565b60006200072c82620005d3565b91506200073983620005d3565b9250827fffffffffffffffffffffffffffffffffffffffffffffffffffffffffffffffff0382111562000771576200077062000450565b5b828201905092915050565b6200078781620005d3565b82525050565b6000602082019050620007a460008301846200077c565b92915050565b7f4e487b7100000000000000000000000000000000000000000000000000000000600052602260045260246000fd5b60006002820490506001821680620007f257607f821691505b602082108103620008085762000807620007aa565b5b50919050565b6128f9806200081e6000396000f3fe608060405234801561001057600080fd5b50600436106101a95760003560e01c8063715018a6116100f9578063a694fc3a11610097578063cfa10ca011610071578063cfa10ca014610500578063dd62ed3e14610530578063e658a1db14610560578063f2fde38b14610590576101a9565b8063a694fc3a14610496578063a9059cbb146104b2578063ce26651c146104e2576101a9565b806383e47257116100d357806383e47257146103fa5780638da5cb5b1461042a57806395d89b4114610448578063a457c2d714610466576101a9565b8063715018a6146103a457806372b252cd146103ae57806380148f96146103de576101a9565b8063313ce56711610166578063500a156411610140578063500a15641461031c578063590e1ae31461033a578063684d01181461034457806370a0823114610374576101a9565b8063313ce5671461029857806339509351146102b6578063411c6d28146102e6576101a9565b806306fdde03146101ae578063095ea7b3146101cc57806316934fc4146101fc57806316f5f71b1461022c57806318160ddd1461024a57806323b872dd14610268575b600080fd5b6101b66105ac565b6040516101c39190611ba2565b60405180910390f35b6101e660048036038101906101e19190611c5d565b61063e565b6040516101f39190611cb8565b60405180910390f35b61021660048036038101906102119190611cd3565b610661565b6040516102239190611d0f565b60405180910390f35b610234610679565b6040516102419190611d43565b60405180910390f35b61025261069d565b60405161025f9190611d0f565b60405180910390f35b610282600480360381019061027d9190611d5e565b6106a7565b60405161028f9190611cb8565b60405180910390f35b6102a06106d6565b6040516102ad9190611dcd565b60405180910390f35b6102d060048036038101906102cb9190611c5d565b6106df565b6040516102dd9190611cb8565b60405180910390f35b61030060048036038101906102fb9190611de8565b610716565b6040516103139796959493929190611e24565b60405180910390f35b610324610778565b6040516103319190611d0f565b60405180910390f35b610342610782565b005b61035e60048036038101906103599190611c5d565b610862565b60405161036b9190611d0f565b60405180910390f35b61038e60048036038101906103899190611cd3565b610893565b60405161039b9190611d0f565b60405180910390f35b6103ac6108db565b005b6103c860048036038101906103c39190611de8565b6108ef565b6040516103d59190611fee565b60405180910390f35b6103f860048036038101906103f39190612010565b610902565b005b610414600480360381019061040f9190611de8565b610b87565b6040516104219190611d0f565b60405180910390f35b610432610b9f565b60405161043f9190612077565b60405180910390f35b610450610bc9565b60405161045d9190611ba2565b60405180910390f35b610480600480360381019061047b9190611c5d565b610c5b565b60405161048d9190611cb8565b60405180910390f35b6104b060048036038101906104ab9190611de8565b610cd2565b005b6104cc60048036038101906104c79190611c5d565b610e04565b6040516104d99190611cb8565b60405180910390f35b6104ea610e27565b6040516104f79190611fee565b60405180910390f35b61051a60048036038101906105159190611cd3565b610e39565b6040516105279190611cb8565b60405180910390f35b61054a60048036038101906105459190612092565b610e85565b6040516105579190611d0f565b60405180910390f35b61057a60048036038101906105759190611c5d565b610f0c565b6040516105879190611d0f565b60405180910390f35b6105aa60048036038101906105a59190611cd3565b610f31565b005b6060600380546105bb90612101565b80601f01602080910402602001604051908101604052809291908181526020018280546105e790612101565b80156106345780601f1061060957610100808354040283529160200191610634565b820191906000526020600020905b81548152906001019060200180831161061757829003601f168201915b5050505050905090565b600080610649610fca565b9050610656818585610fd2565b600191505092915050565b600c6020528060005260406000206000915090505481565b7f97c877e40edb41710f0baf588c878ee15a04499b06ae8c98cf488875d91a721381565b6000600254905090565b6000806106b2610fca565b90506106bf85828561119b565b6106ca858585611227565b60019150509392505050565b60006012905090565b6000806106ea610fca565b905061070b8185856106fc8589610e85565b6107069190612161565b610fd2565b600191505092915050565b60086020528060005260406000206000915090508060000154908060010154908060020154908060030154908060040154908060050154908060060160009054906101000a900473ffffffffffffffffffffffffffffffffffffffff16905087565b6000600754905090565b61078b33610e39565b6107ca576040517f08c379a00000000000000000000000000000000000000000000000000000000081526004016107c190612229565b60405180910390fd5b6000600c60003373ffffffffffffffffffffffffffffffffffffffff1673ffffffffffffffffffffffffffffffffffffffff1681526020019081526020016000205490506000600c60003373ffffffffffffffffffffffffffffffffffffffff1673ffffffffffffffffffffffffffffffffffffffff1681526020019081526020016000208190555061085e3033836106a7565b5050565b6009602052816000526040600020818154811061087e57600080fd5b90600052602060002001600091509150505481565b60008060008373ffffffffffffffffffffffffffffffffffffffff1673ffffffffffffffffffffffffffffffffffffffff168152602001908152602001600020549050919050565b6108e361149d565b6108ed600061151b565b565b60606108fb33836115e1565b9050919050565b8061090c33610893565b101561094d576040517f08c379a000000000000000000000000000000000000000000000000000000000815260040161094490612295565b60405180910390fd5b6109573082610e04565b5060006109646006611a9e565b90506109706006610fb4565b6040518060e001604052808281526020018681526020018581526020018481526020018481526020018381526020013373ffffffffffffffffffffffffffffffffffffffff1681525060086000838152602001908152602001600020600082015181600001556020820151816001015560408201518160020155606082015181600301556080820151816004015560a0820151816005015560c08201518160060160006101000a81548173ffffffffffffffffffffffffffffffffffffffff021916908373ffffffffffffffffffffffffffffffffffffffff16021790555090505082600a60008381526020019081526020016000208190555082600b60003373ffffffffffffffffffffffffffffffffffffffff1673ffffffffffffffffffffffffffffffffffffffff168152602001908152602001600020600086815260200190815260200160002054610ac69190612161565b600b60003373ffffffffffffffffffffffffffffffffffffffff1673ffffffffffffffffffffffffffffffffffffffff168152602001908152602001600020600086815260200190815260200160002081905550600960003373ffffffffffffffffffffffffffffffffffffffff1673ffffffffffffffffffffffffffffffffffffffff1681526020019081526020016000208190806001815401808255809150506001900390600052602060002001600090919091909150555050505050565b600a6020528060005260406000206000915090505481565b6000600560009054906101000a900473ffffffffffffffffffffffffffffffffffffffff16905090565b606060048054610bd890612101565b80601f0160208091040260200160405190810160405280929190818152602001828054610c0490612101565b8015610c515780601f10610c2657610100808354040283529160200191610c51565b820191906000526020600020905b815481529060010190602001808311610c3457829003601f168201915b5050505050905090565b600080610c66610fca565b90506000610c748286610e85565b905083811015610cb9576040517f08c379a0000000000000000000000000000000000000000000000000000000008152600401610cb090612327565b60405180910390fd5b610cc68286868403610fd2565b60019250505092915050565b610cdc3082610e04565b610d1b576040517f08c379a0000000000000000000000000000000000000000000000000000000008152600401610d12906123b9565b60405180910390fd5b610d2433610e39565b15610dbc5780600c60003373ffffffffffffffffffffffffffffffffffffffff1673ffffffffffffffffffffffffffffffffffffffff16815260200190815260200160002054610d749190612161565b600c60003373ffffffffffffffffffffffffffffffffffffffff1673ffffffffffffffffffffffffffffffffffffffff16815260200190815260200160002081905550610e01565b80600c60003373ffffffffffffffffffffffffffffffffffffffff1673ffffffffffffffffffffffffffffffffffffffff168152602001908152602001600020819055505b50565b600080610e0f610fca565b9050610e1c818585611227565b600191505092915050565b6060610e343360006115e1565b905090565b600080600c60008473ffffffffffffffffffffffffffffffffffffffff1673ffffffffffffffffffffffffffffffffffffffff1681526020019081526020016000205414159050919050565b6000600160008473ffffffffffffffffffffffffffffffffffffffff1673ffffffffffffffffffffffffffffffffffffffff16815260200190815260200160002060008373ffffffffffffffffffffffffffffffffffffffff1673ffffffffffffffffffffffffffffffffffffffff16815260200190815260200160002054905092915050565b600b602052816000526040600020602052806000526040600020600091509150505481565b610f3961149d565b600073ffffffffffffffffffffffffffffffffffffffff168173ffffffffffffffffffffffffffffffffffffffff1603610fa8576040517f08c379a0000000000000000000000000000000000000000000000000000000008152600401610f9f9061244b565b60405180910390fd5b610fb18161151b565b50565b6001816000016000828254019250508190555050565b600033905090565b600073ffffffffffffffffffffffffffffffffffffffff168373ffffffffffffffffffffffffffffffffffffffff1603611041576040517f08c379a0000000000000000000000000000000000000000000000000000000008152600401611038906124dd565b60405180910390fd5b600073ffffffffffffffffffffffffffffffffffffffff168273ffffffffffffffffffffffffffffffffffffffff16036110b0576040517f08c379a00000000000000000000000000000000000000000000000000000000081526004016110a79061256f565b60405180910390fd5b80600160008573ffffffffffffffffffffffffffffffffffffffff1673ffffffffffffffffffffffffffffffffffffffff16815260200190815260200160002060008473ffffffffffffffffffffffffffffffffffffffff1673ffffffffffffffffffffffffffffffffffffffff168152602001908152602001600020819055508173ffffffffffffffffffffffffffffffffffffffff168373ffffffffffffffffffffffffffffffffffffffff167f8c5be1e5ebec7d5bd14f71427d1e84f3dd0314c0f7b2291e5b200ac8c7c3b9258360405161118e9190611d0f565b60405180910390a3505050565b60006111a78484610e85565b90507fffffffffffffffffffffffffffffffffffffffffffffffffffffffffffffffff81146112215781811015611213576040517f08c379a000000000000000000000000000000000000000000000000000000000815260040161120a906125db565b60405180910390fd5b6112208484848403610fd2565b5b50505050565b600073ffffffffffffffffffffffffffffffffffffffff168373ffffffffffffffffffffffffffffffffffffffff1603611296576040517f08c379a000000000000000000000000000000000000000000000000000000000815260040161128d9061266d565b60405180910390fd5b600073ffffffffffffffffffffffffffffffffffffffff168273ffffffffffffffffffffffffffffffffffffffff1603611305576040517f08c379a00000000000000000000000000000000000000000000000000000000081526004016112fc906126ff565b60405180910390fd5b611310838383611aac565b60008060008573ffffffffffffffffffffffffffffffffffffffff1673ffffffffffffffffffffffffffffffffffffffff16815260200190815260200160002054905081811015611396576040517f08c379a000000000000000000000000000000000000000000000000000000000815260040161138d90612791565b60405180910390fd5b8181036000808673ffffffffffffffffffffffffffffffffffffffff1673ffffffffffffffffffffffffffffffffffffffff16815260200190815260200160002081905550816000808573ffffffffffffffffffffffffffffffffffffffff1673ffffffffffffffffffffffffffffffffffffffff168152602001908152602001600020600082825401925050819055508273ffffffffffffffffffffffffffffffffffffffff168473ffffffffffffffffffffffffffffffffffffffff167fddf252ad1be2c89b69c2b068fc378daa952ba7f163c4a11628f55a4df523b3ef846040516114849190611d0f565b60405180910390a3611497848484611ab1565b50505050565b6114a5610fca565b73ffffffffffffffffffffffffffffffffffffffff166114c3610b9f565b73ffffffffffffffffffffffffffffffffffffffff1614611519576040517f08c379a0000000000000000000000000000000000000000000000000000000008152600401611510906127fd565b60405180910390fd5b565b6000600560009054906101000a900473ffffffffffffffffffffffffffffffffffffffff16905081600560006101000a81548173ffffffffffffffffffffffffffffffffffffffff021916908373ffffffffffffffffffffffffffffffffffffffff1602179055508173ffffffffffffffffffffffffffffffffffffffff168173ffffffffffffffffffffffffffffffffffffffff167f8be0079c531659141344cd1fd0a4f28419497f9722a3daafe3b4186f6b6457e060405160405180910390a35050565b60606000600960008573ffffffffffffffffffffffffffffffffffffffff1673ffffffffffffffffffffffffffffffffffffffff16815260200190815260200160002080549050905060008167ffffffffffffffff8111156116465761164561281d565b5b60405190808252806020026020018201604052801561167f57816020015b61166c611ab6565b8152602001906001900390816116645790505b509050600084036117d75760005b828110156117d15760086000600960003373ffffffffffffffffffffffffffffffffffffffff1673ffffffffffffffffffffffffffffffffffffffff16815260200190815260200160002083815481106116ea576116e961284c565b5b906000526020600020015481526020019081526020016000206040518060e00160405290816000820154815260200160018201548152602001600282015481526020016003820154815260200160048201548152602001600582015481526020016006820160009054906101000a900473ffffffffffffffffffffffffffffffffffffffff1673ffffffffffffffffffffffffffffffffffffffff1673ffffffffffffffffffffffffffffffffffffffff16815250508282815181106117b3576117b261284c565b5b602002602001018190525080806117c99061287b565b91505061168d565b50611a93565b600080600090505b83811015611a90578560086000600960003373ffffffffffffffffffffffffffffffffffffffff1673ffffffffffffffffffffffffffffffffffffffff168152602001908152602001600020848154811061183d5761183c61284c565b5b906000526020600020015481526020019081526020016000206001015403611a7d5760086000600960003373ffffffffffffffffffffffffffffffffffffffff1673ffffffffffffffffffffffffffffffffffffffff16815260200190815260200160002083815481106118b4576118b361284c565b5b906000526020600020015481526020019081526020016000206040518060e00160405290816000820154815260200160018201548152602001600282015481526020016003820154815260200160048201548152602001600582015481526020016006820160009054906101000a900473ffffffffffffffffffffffffffffffffffffffff1673ffffffffffffffffffffffffffffffffffffffff1673ffffffffffffffffffffffffffffffffffffffff168152505083838151811061197d5761197c61284c565b5b6020026020010181905250600b60003373ffffffffffffffffffffffffffffffffffffffff1673ffffffffffffffffffffffffffffffffffffffff168152602001908152602001600020600060086000600960003373ffffffffffffffffffffffffffffffffffffffff1673ffffffffffffffffffffffffffffffffffffffff1681526020019081526020016000208581548110611a1e57611a1d61284c565b5b9060005260206000200154815260200190815260200160002060020154815260200190815260200160002054838381518110611a5d57611a5c61284c565b5b60200260200101516080018181525050600182611a7a9190612161565b91505b8080611a889061287b565b9150506117df565b50505b809250505092915050565b600081600001549050919050565b505050565b505050565b6040518060e00160405280600081526020016000815260200160008152602001600081526020016000815260200160008152602001600073ffffffffffffffffffffffffffffffffffffffff1681525090565b600081519050919050565b600082825260208201905092915050565b60005b83811015611b43578082015181840152602081019050611b28565b83811115611b52576000848401525b50505050565b6000601f19601f8301169050919050565b6000611b7482611b09565b611b7e8185611b14565b9350611b8e818560208601611b25565b611b9781611b58565b840191505092915050565b60006020820190508181036000830152611bbc8184611b69565b905092915050565b600080fd5b600073ffffffffffffffffffffffffffffffffffffffff82169050919050565b6000611bf482611bc9565b9050919050565b611c0481611be9565b8114611c0f57600080fd5b50565b600081359050611c2181611bfb565b92915050565b6000819050919050565b611c3a81611c27565b8114611c4557600080fd5b50565b600081359050611c5781611c31565b92915050565b60008060408385031215611c7457611c73611bc4565b5b6000611c8285828601611c12565b9250506020611c9385828601611c48565b9150509250929050565b60008115159050919050565b611cb281611c9d565b82525050565b6000602082019050611ccd6000830184611ca9565b92915050565b600060208284031215611ce957611ce8611bc4565b5b6000611cf784828501611c12565b91505092915050565b611d0981611c27565b82525050565b6000602082019050611d246000830184611d00565b92915050565b6000819050919050565b611d3d81611d2a565b82525050565b6000602082019050611d586000830184611d34565b92915050565b600080600060608486031215611d7757611d76611bc4565b5b6000611d8586828701611c12565b9350506020611d9686828701611c12565b9250506040611da786828701611c48565b9150509250925092565b600060ff82169050919050565b611dc781611db1565b82525050565b6000602082019050611de26000830184611dbe565b92915050565b600060208284031215611dfe57611dfd611bc4565b5b6000611e0c84828501611c48565b91505092915050565b611e1e81611be9565b82525050565b600060e082019050611e39600083018a611d00565b611e466020830189611d00565b611e536040830188611d00565b611e606060830187611d00565b611e6d6080830186611d00565b611e7a60a0830185611d00565b611e8760c0830184611e15565b98975050505050505050565b600081519050919050565b600082825260208201905092915050565b6000819050602082019050919050565b611ec881611c27565b82525050565b611ed781611be9565b82525050565b60e082016000820151611ef36000850182611ebf565b506020820151611f066020850182611ebf565b506040820151611f196040850182611ebf565b506060820151611f2c6060850182611ebf565b506080820151611f3f6080850182611ebf565b5060a0820151611f5260a0850182611ebf565b5060c0820151611f6560c0850182611ece565b50505050565b6000611f778383611edd565b60e08301905092915050565b6000602082019050919050565b6000611f9b82611e93565b611fa58185611e9e565b9350611fb083611eaf565b8060005b83811015611fe1578151611fc88882611f6b565b9750611fd383611f83565b925050600181019050611fb4565b5085935050505092915050565b600060208201905081810360008301526120088184611f90565b905092915050565b6000806000806080858703121561202a57612029611bc4565b5b600061203887828801611c48565b945050602061204987828801611c48565b935050604061205a87828801611c48565b925050606061206b87828801611c48565b91505092959194509250565b600060208201905061208c6000830184611e15565b92915050565b600080604083850312156120a9576120a8611bc4565b5b60006120b785828601611c12565b92505060206120c885828601611c12565b9150509250929050565b7f4e487b7100000000000000000000000000000000000000000000000000000000600052602260045260246000fd5b6000600282049050600182168061211957607f821691505b60208210810361212c5761212b6120d2565b5b50919050565b7f4e487b7100000000000000000000000000000000000000000000000000000000600052601160045260246000fd5b600061216c82611c27565b915061217783611c27565b9250827fffffffffffffffffffffffffffffffffffffffffffffffffffffffffffffffff038211156121ac576121ab612132565b5b828201905092915050565b7f54686973206164647265737320686173206e6576657220636f6e74726962757460008201527f656420546f6b656e7320746f207468652070726f746f636f6c00000000000000602082015250565b6000612213603983611b14565b915061221e826121b7565b604082019050919050565b6000602082019050818103600083015261224281612206565b9050919050565b7f4e6f7420656e6f7567682053544320546f6b656e730000000000000000000000600082015250565b600061227f601583611b14565b915061228a82612249565b602082019050919050565b600060208201905081810360008301526122ae81612272565b9050919050565b7f45524332303a2064656372656173656420616c6c6f77616e63652062656c6f7760008201527f207a65726f000000000000000000000000000000000000000000000000000000602082015250565b6000612311602583611b14565b915061231c826122b5565b604082019050919050565b6000602082019050818103600083015261234081612304565b9050919050565b7f556e61626c6520746f207472616e7366657220796f757220746f6b656e73207460008201527f6f207468697320636f6e74726163740000000000000000000000000000000000602082015250565b60006123a3602f83611b14565b91506123ae82612347565b604082019050919050565b600060208201905081810360008301526123d281612396565b9050919050565b7f4f776e61626c653a206e6577206f776e657220697320746865207a65726f206160008201527f6464726573730000000000000000000000000000000000000000000000000000602082015250565b6000612435602683611b14565b9150612440826123d9565b604082019050919050565b6000602082019050818103600083015261246481612428565b9050919050565b7f45524332303a20617070726f76652066726f6d20746865207a65726f2061646460008201527f7265737300000000000000000000000000000000000000000000000000000000602082015250565b60006124c7602483611b14565b91506124d28261246b565b604082019050919050565b600060208201905081810360008301526124f6816124ba565b9050919050565b7f45524332303a20617070726f766520746f20746865207a65726f20616464726560008201527f7373000000000000000000000000000000000000000000000000000000000000602082015250565b6000612559602283611b14565b9150612564826124fd565b604082019050919050565b600060208201905081810360008301526125888161254c565b9050919050565b7f45524332303a20696e73756666696369656e7420616c6c6f77616e6365000000600082015250565b60006125c5601d83611b14565b91506125d08261258f565b602082019050919050565b600060208201905081810360008301526125f4816125b8565b9050919050565b7f45524332303a207472616e736665722066726f6d20746865207a65726f20616460008201527f6472657373000000000000000000000000000000000000000000000000000000602082015250565b6000612657602583611b14565b9150612662826125fb565b604082019050919050565b600060208201905081810360008301526126868161264a565b9050919050565b7f45524332303a207472616e7366657220746f20746865207a65726f206164647260008201527f6573730000000000000000000000000000000000000000000000000000000000602082015250565b60006126e9602383611b14565b91506126f48261268d565b604082019050919050565b60006020820190508181036000830152612718816126dc565b9050919050565b7f45524332303a207472616e7366657220616d6f756e742065786365656473206260008201527f616c616e63650000000000000000000000000000000000000000000000000000602082015250565b600061277b602683611b14565b91506127868261271f565b604082019050919050565b600060208201905081810360008301526127aa8161276e565b9050919050565b7f4f776e61626c653a2063616c6c6572206973206e6f7420746865206f776e6572600082015250565b60006127e7602083611b14565b91506127f2826127b1565b602082019050919050565b60006020820190508181036000830152612816816127da565b9050919050565b7f4e487b7100000000000000000000000000000000000000000000000000000000600052604160045260246000fd5b7f4e487b7100000000000000000000000000000000000000000000000000000000600052603260045260246000fd5b600061288682611c27565b91507fffffffffffffffffffffffffffffffffffffffffffffffffffffffffffffffff82036128b8576128b7612132565b5b60018201905091905056fea2646970667358221220fd0aa0a837391a7e4ed147290287e4202205d537b860725739456fb14733fba964736f6c634300080d0033",
  "linkReferences": {},
  "deployedLinkReferences": {}
}