{
  "_format": "hh-sol-artifact-1",
  "contractName": "MeshControl",
  "sourceName": "contracts/oracle/MeshControl.sol",
  "abi": [
    {
      "inputs": [
        {
          "internalType": "uint256",
          "name": "_fee",
          "type": "uint256"
        },
        {
          "internalType": "address",
          "name": "_link",
          "type": "address"
        }
      ],
      "stateMutability": "nonpayable",
      "type": "constructor"
    },
    {
      "anonymous": false,
      "inputs": [
        {
          "indexed": true,
          "internalType": "bytes32",
          "name": "id",
          "type": "bytes32"
        }
      ],
      "name": "ChainlinkCancelled",
      "type": "event"
    },
    {
      "anonymous": false,
      "inputs": [
        {
          "indexed": true,
          "internalType": "bytes32",
          "name": "id",
          "type": "bytes32"
        }
      ],
      "name": "ChainlinkFulfilled",
      "type": "event"
    },
    {
      "anonymous": false,
      "inputs": [
        {
          "indexed": true,
          "internalType": "bytes32",
          "name": "id",
          "type": "bytes32"
        }
      ],
      "name": "ChainlinkRequested",
      "type": "event"
    },
    {
      "anonymous": false,
      "inputs": [
        {
          "indexed": true,
          "internalType": "address",
          "name": "from",
          "type": "address"
        },
        {
          "indexed": true,
          "internalType": "address",
          "name": "to",
          "type": "address"
        }
      ],
      "name": "OwnershipTransferRequested",
      "type": "event"
    },
    {
      "anonymous": false,
      "inputs": [
        {
          "indexed": true,
          "internalType": "address",
          "name": "from",
          "type": "address"
        },
        {
          "indexed": true,
          "internalType": "address",
          "name": "to",
          "type": "address"
        }
      ],
      "name": "OwnershipTransferred",
      "type": "event"
    },
    {
      "anonymous": false,
      "inputs": [
        {
          "indexed": true,
          "internalType": "bytes32",
          "name": "_requestUID",
          "type": "bytes32"
        },
        {
          "indexed": false,
          "internalType": "string",
          "name": "data",
          "type": "string"
        }
      ],
      "name": "RequestFulfilled",
      "type": "event"
    },
    {
      "inputs": [],
      "name": "ACCESS_CONTROL",
      "outputs": [
        {
          "internalType": "address",
          "name": "",
          "type": "address"
        }
      ],
      "stateMutability": "view",
      "type": "function"
    },
    {
      "inputs": [
        {
          "internalType": "bytes32",
          "name": "",
          "type": "bytes32"
        }
      ],
      "name": "_result",
      "outputs": [
        {
          "internalType": "string",
          "name": "",
          "type": "string"
        }
      ],
      "stateMutability": "view",
      "type": "function"
    },
    {
      "inputs": [
        {
          "internalType": "string",
          "name": "",
          "type": "string"
        }
      ],
      "name": "_sites",
      "outputs": [
        {
          "internalType": "bytes32",
          "name": "jobId",
          "type": "bytes32"
        },
        {
          "internalType": "address",
          "name": "oracle",
          "type": "address"
        },
        {
          "internalType": "string",
          "name": "host",
          "type": "string"
        }
      ],
      "stateMutability": "view",
      "type": "function"
    },
    {
      "inputs": [],
      "name": "acceptOwnership",
      "outputs": [],
      "stateMutability": "nonpayable",
      "type": "function"
    },
    {
      "inputs": [],
      "name": "currentData",
      "outputs": [
        {
          "internalType": "string",
          "name": "",
          "type": "string"
        }
      ],
      "stateMutability": "view",
      "type": "function"
    },
    {
      "inputs": [],
      "name": "currentKey",
      "outputs": [
        {
          "internalType": "bytes32",
          "name": "",
          "type": "bytes32"
        }
      ],
      "stateMutability": "view",
      "type": "function"
    },
    {
      "inputs": [
        {
          "internalType": "bytes32",
          "name": "_requestId",
          "type": "bytes32"
        },
        {
          "internalType": "bytes32",
          "name": "_requestUID",
          "type": "bytes32"
        },
        {
          "internalType": "string",
          "name": "_stringData",
          "type": "string"
        }
      ],
      "name": "fulfill",
      "outputs": [],
      "stateMutability": "nonpayable",
      "type": "function"
    },
    {
      "inputs": [
        {
          "internalType": "string",
          "name": "_siteName",
          "type": "string"
        },
        {
          "internalType": "string",
          "name": "_requestData",
          "type": "string"
        },
        {
          "internalType": "bytes32",
          "name": "_requestUID",
          "type": "bytes32"
        }
      ],
      "name": "fuseRule",
      "outputs": [],
      "stateMutability": "nonpayable",
      "type": "function"
    },
    {
      "inputs": [
        {
          "internalType": "bytes32",
          "name": "_requestUID",
          "type": "bytes32"
        }
      ],
      "name": "getResultData",
      "outputs": [
        {
          "internalType": "string",
          "name": "",
          "type": "string"
        }
      ],
      "stateMutability": "view",
      "type": "function"
    },
    {
      "inputs": [],
      "name": "owner",
      "outputs": [
        {
          "internalType": "address",
          "name": "",
          "type": "address"
        }
      ],
      "stateMutability": "view",
      "type": "function"
    },
    {
      "inputs": [
        {
          "internalType": "string",
          "name": "_siteName",
          "type": "string"
        },
        {
          "internalType": "string",
          "name": "_requestData",
          "type": "string"
        },
        {
          "internalType": "bytes32",
          "name": "_requestUID",
          "type": "bytes32"
        }
      ],
      "name": "rateLimitRule",
      "outputs": [],
      "stateMutability": "nonpayable",
      "type": "function"
    },
    {
      "inputs": [
        {
          "internalType": "string",
          "name": "_name",
          "type": "string"
        },
        {
          "internalType": "string",
          "name": "_jobId",
          "type": "string"
        },
        {
          "internalType": "address",
          "name": "_oracle",
          "type": "address"
        },
        {
          "internalType": "string",
          "name": "host",
          "type": "string"
        }
      ],
      "name": "setSites",
      "outputs": [],
      "stateMutability": "nonpayable",
      "type": "function"
    },
    {
      "inputs": [
        {
          "internalType": "address",
          "name": "to",
          "type": "address"
        }
      ],
      "name": "transferOwnership",
      "outputs": [],
      "stateMutability": "nonpayable",
      "type": "function"
    }
  ],
  "bytecode": "0x608060405260016004557393d30f8dcfd09fe8b1669320e81c459925e05835600860006101000a81548173ffffffffffffffffffffffffffffffffffffffff021916908373ffffffffffffffffffffffffffffffffffffffff1602179055503480156200006b57600080fd5b506040516200326d3803806200326d8339818101604052810190620000919190620003cb565b338060008073ffffffffffffffffffffffffffffffffffffffff168273ffffffffffffffffffffffffffffffffffffffff160362000106576040517f08c379a0000000000000000000000000000000000000000000000000000000008152600401620000fd9062000473565b60405180910390fd5b81600660006101000a81548173ffffffffffffffffffffffffffffffffffffffff021916908373ffffffffffffffffffffffffffffffffffffffff160217905550600073ffffffffffffffffffffffffffffffffffffffff168173ffffffffffffffffffffffffffffffffffffffff16146200018e576200018d81620001b160201b60201c565b5b505050620001a281620002e260201b60201c565b81600a81905550505062000507565b3373ffffffffffffffffffffffffffffffffffffffff168173ffffffffffffffffffffffffffffffffffffffff160362000222576040517f08c379a00000000000000000000000000000000000000000000000000000000081526004016200021990620004e5565b60405180910390fd5b80600760006101000a81548173ffffffffffffffffffffffffffffffffffffffff021916908373ffffffffffffffffffffffffffffffffffffffff1602179055508073ffffffffffffffffffffffffffffffffffffffff16600660009054906101000a900473ffffffffffffffffffffffffffffffffffffffff1673ffffffffffffffffffffffffffffffffffffffff167fed8889f560326eb138920d842192f0eb3dd22b4f139c87a2c57538e05bae127860405160405180910390a350565b80600260006101000a81548173ffffffffffffffffffffffffffffffffffffffff021916908373ffffffffffffffffffffffffffffffffffffffff16021790555050565b600080fd5b6000819050919050565b62000340816200032b565b81146200034c57600080fd5b50565b600081519050620003608162000335565b92915050565b600073ffffffffffffffffffffffffffffffffffffffff82169050919050565b6000620003938262000366565b9050919050565b620003a58162000386565b8114620003b157600080fd5b50565b600081519050620003c5816200039a565b92915050565b60008060408385031215620003e557620003e462000326565b5b6000620003f5858286016200034f565b92505060206200040885828601620003b4565b9150509250929050565b600082825260208201905092915050565b7f43616e6e6f7420736574206f776e657220746f207a65726f0000000000000000600082015250565b60006200045b60188362000412565b9150620004688262000423565b602082019050919050565b600060208201905081810360008301526200048e816200044c565b9050919050565b7f43616e6e6f74207472616e7366657220746f2073656c66000000000000000000600082015250565b6000620004cd60178362000412565b9150620004da8262000495565b602082019050919050565b600060208201905081810360008301526200050081620004be565b9050919050565b612d5680620005176000396000f3fe608060405234801561001057600080fd5b50600436106100cf5760003560e01c806388bf2fa51161008c578063a0ddb41811610066578063a0ddb41814610202578063e839d5bd14610220578063ed464c4d1461023c578063f2fde38b14610258576100cf565b806388bf2fa5146101965780638da5cb5b146101c65780639269db36146101e4576100cf565b806316f839b5146100d45780634bd762741461010457806358eea4ad14610120578063590ccd231461013e57806379ba50971461015a5780637cb4509b14610164575b600080fd5b6100ee60048036038101906100e99190611d0e565b610274565b6040516100fb9190611dd4565b60405180910390f35b61011e60048036038101906101199190611f2b565b610314565b005b6101286104d0565b6040516101359190611dd4565b60405180910390f35b61015860048036038101906101539190611f2b565b61055e565b005b61016261071a565b005b61017e60048036038101906101799190611fb6565b6108b1565b60405161018d9392919061204f565b60405180910390f35b6101b060048036038101906101ab9190611d0e565b610999565b6040516101bd9190611dd4565b60405180910390f35b6101ce610a3e565b6040516101db919061208d565b60405180910390f35b6101ec610a68565b6040516101f9919061208d565b60405180910390f35b61020a610a8e565b60405161021791906120a8565b60405180910390f35b61023a600480360381019061023591906120c3565b610a94565b005b6102566004803603810190610251919061215e565b610c1d565b005b610272600480360381019061026d9190612219565b610d8d565b005b6009602052806000526040600020600091509050805461029390612275565b80601f01602080910402602001604051908101604052809291908181526020018280546102bf90612275565b801561030c5780601f106102e15761010080835404028352916020019161030c565b820191906000526020600020905b8154815290600101906020018083116102ef57829003601f168201915b505050505081565b82600073ffffffffffffffffffffffffffffffffffffffff16600d8260405161033d91906122e2565b908152602001604051809103902060010160009054906101000a900473ffffffffffffffffffffffffffffffffffffffff1673ffffffffffffffffffffffffffffffffffffffff16036103c5576040517f08c379a00000000000000000000000000000000000000000000000000000000081526004016103bc90612345565b60405180910390fd5b6000835111610409576040518060400160405280600481526020017f6533303d0000000000000000000000000000000000000000000000000000000081525061040b565b825b92506000600d8560405161041f91906122e2565b90815260200160405180910390206002016040516020016104409190612445565b60405160208183030381529060405290506104c96040518060400160405280600481526020017f504f535400000000000000000000000000000000000000000000000000000000815250826040518060400160405280600481526020017f5731303d00000000000000000000000000000000000000000000000000000000815250878988610da1565b5050505050565b600c80546104dd90612275565b80601f016020809104026020016040519081016040528092919081815260200182805461050990612275565b80156105565780601f1061052b57610100808354040283529160200191610556565b820191906000526020600020905b81548152906001019060200180831161053957829003601f168201915b505050505081565b82600073ffffffffffffffffffffffffffffffffffffffff16600d8260405161058791906122e2565b908152602001604051809103902060010160009054906101000a900473ffffffffffffffffffffffffffffffffffffffff1673ffffffffffffffffffffffffffffffffffffffff160361060f576040517f08c379a000000000000000000000000000000000000000000000000000000000815260040161060690612345565b60405180910390fd5b6000835111610653576040518060400160405280600481526020017f6533303d00000000000000000000000000000000000000000000000000000000815250610655565b825b92506000600d8560405161066991906122e2565b908152602001604051809103902060020160405160200161068a91906124b3565b60405160208183030381529060405290506107136040518060400160405280600481526020017f504f535400000000000000000000000000000000000000000000000000000000815250826040518060400160405280600481526020017f5731303d00000000000000000000000000000000000000000000000000000000815250878988610da1565b5050505050565b600760009054906101000a900473ffffffffffffffffffffffffffffffffffffffff1673ffffffffffffffffffffffffffffffffffffffff163373ffffffffffffffffffffffffffffffffffffffff16146107aa576040517f08c379a00000000000000000000000000000000000000000000000000000000081526004016107a190612521565b60405180910390fd5b6000600660009054906101000a900473ffffffffffffffffffffffffffffffffffffffff16905033600660006101000a81548173ffffffffffffffffffffffffffffffffffffffff021916908373ffffffffffffffffffffffffffffffffffffffff1602179055506000600760006101000a81548173ffffffffffffffffffffffffffffffffffffffff021916908373ffffffffffffffffffffffffffffffffffffffff1602179055503373ffffffffffffffffffffffffffffffffffffffff168173ffffffffffffffffffffffffffffffffffffffff167f8be0079c531659141344cd1fd0a4f28419497f9722a3daafe3b4186f6b6457e060405160405180910390a350565b600d818051602081018201805184825260208301602085012081835280955050505050506000915090508060000154908060010160009054906101000a900473ffffffffffffffffffffffffffffffffffffffff169080600201805461091690612275565b80601f016020809104026020016040519081016040528092919081815260200182805461094290612275565b801561098f5780601f106109645761010080835404028352916020019161098f565b820191906000526020600020905b81548152906001019060200180831161097257829003601f168201915b5050505050905083565b60606009600083815260200190815260200160002080546109b990612275565b80601f01602080910402602001604051908101604052809291908181526020018280546109e590612275565b8015610a325780601f10610a0757610100808354040283529160200191610a32565b820191906000526020600020905b815481529060010190602001808311610a1557829003601f168201915b50505050509050919050565b6000600660009054906101000a900473ffffffffffffffffffffffffffffffffffffffff16905090565b600860009054906101000a900473ffffffffffffffffffffffffffffffffffffffff1681565b600b5481565b826005600082815260200190815260200160002060009054906101000a900473ffffffffffffffffffffffffffffffffffffffff1673ffffffffffffffffffffffffffffffffffffffff163373ffffffffffffffffffffffffffffffffffffffff1614610b36576040517f08c379a0000000000000000000000000000000000000000000000000000000008152600401610b2d906125b3565b60405180910390fd5b6005600082815260200190815260200160002060006101000a81549073ffffffffffffffffffffffffffffffffffffffff0219169055807f7cc135e0cebb02c3480ae5d74d377283180a2601f8f644edf7987b009316c63a60405160405180910390a2827fd7068dd93b2b2c580d414706aabbf529878c2a8273cd02be55b47c38eb2179a183604051610bc99190611dd4565b60405180910390a281600960008581526020019081526020016000209080519060200190610bf8929190611b9a565b5082600b8190555081600c9080519060200190610c16929190611b9a565b5050505050565b610c25610a3e565b73ffffffffffffffffffffffffffffffffffffffff163373ffffffffffffffffffffffffffffffffffffffff1614610c5c57600080fd5b6000845111610c6a57600080fd5b6000835111610c7857600080fd5b600073ffffffffffffffffffffffffffffffffffffffff168273ffffffffffffffffffffffffffffffffffffffff1603610cb157600080fd5b6000815111610cbf57600080fd5b6040518060600160405280610cd385611159565b81526020018373ffffffffffffffffffffffffffffffffffffffff16815260200182815250600d85604051610d0891906122e2565b90815260200160405180910390206000820151816000015560208201518160010160006101000a81548173ffffffffffffffffffffffffffffffffffffffff021916908373ffffffffffffffffffffffffffffffffffffffff1602179055506040820151816002019080519060200190610d83929190611b9a565b5090505050505050565b610d95611182565b610d9e81611214565b50565b81600073ffffffffffffffffffffffffffffffffffffffff16600d82604051610dca91906122e2565b908152602001604051809103902060010160009054906101000a900473ffffffffffffffffffffffffffffffffffffffff1673ffffffffffffffffffffffffffffffffffffffff1603610e52576040517f08c379a0000000000000000000000000000000000000000000000000000000008152600401610e4990612345565b60405180910390fd5b6000875111610e96576040518060400160405280600381526020017f4745540000000000000000000000000000000000000000000000000000000000815250610e98565b865b96506000865111610ea857600080fd5b6000855111610eec576040518060400160405280600481526020017f5731303d00000000000000000000000000000000000000000000000000000000815250610eee565b845b94506000845111610f34576040518060400160405280600481526020017f6533303d00000000000000000000000000000000000000000000000000000000815250610f36565b835b93506000610f6d600d85604051610f4d91906122e2565b9081526020016040518091039020600001543063e839d5bd60e01b611342565b9050610fb96040518060400160405280600381526020017f75726c000000000000000000000000000000000000000000000000000000000081525088836113739092919063ffffffff16565b6110036040518060400160405280600681526020017f6d6574686f64000000000000000000000000000000000000000000000000000081525089836113739092919063ffffffff16565b61104d6040518060400160405280600781526020017f686561646572730000000000000000000000000000000000000000000000000081525087836113739092919063ffffffff16565b6110976040518060400160405280600b81526020017f726571756573744461746100000000000000000000000000000000000000000081525086836113739092919063ffffffff16565b6111006040518060400160405280600a81526020017f7265717565737455494400000000000000000000000000000000000000000000815250846040516020016110e191906125f4565b604051602081830303815290604052836113a69092919063ffffffff16565b61114e600d8560405161111391906122e2565b908152602001604051809103902060010160009054906101000a900473ffffffffffffffffffffffffffffffffffffffff1682600a546113d9565b505050505050505050565b6000808290506000815103611174576000801b91505061117d565b60208301519150505b919050565b600660009054906101000a900473ffffffffffffffffffffffffffffffffffffffff1673ffffffffffffffffffffffffffffffffffffffff163373ffffffffffffffffffffffffffffffffffffffff1614611212576040517f08c379a00000000000000000000000000000000000000000000000000000000081526004016112099061265b565b60405180910390fd5b565b3373ffffffffffffffffffffffffffffffffffffffff168173ffffffffffffffffffffffffffffffffffffffff1603611282576040517f08c379a0000000000000000000000000000000000000000000000000000000008152600401611279906126c7565b60405180910390fd5b80600760006101000a81548173ffffffffffffffffffffffffffffffffffffffff021916908373ffffffffffffffffffffffffffffffffffffffff1602179055508073ffffffffffffffffffffffffffffffffffffffff16600660009054906101000a900473ffffffffffffffffffffffffffffffffffffffff1673ffffffffffffffffffffffffffffffffffffffff167fed8889f560326eb138920d842192f0eb3dd22b4f139c87a2c57538e05bae127860405160405180910390a350565b61134a611c20565b611352611c20565b611369858585846114a5909392919063ffffffff16565b9150509392505050565b61138a82846080015161155590919063ffffffff16565b6113a181846080015161155590919063ffffffff16565b505050565b6113bd82846080015161155590919063ffffffff16565b6113d481846080015161157a90919063ffffffff16565b505050565b60008060045490506001816113ee9190612720565b6004819055506000634042994660e01b60008087600001513089604001518760018c608001516000015160405160240161142f989796959493929190612815565b604051602081830303815290604052907bffffffffffffffffffffffffffffffffffffffffffffffffffffffff19166020820180517bffffffffffffffffffffffffffffffffffffffffffffffffffffffff8381831617835250505050905061149a8683868461159f565b925050509392505050565b6114ad611c20565b6114bd8560800151610100611734565b508385600001818152505082856020019073ffffffffffffffffffffffffffffffffffffffff16908173ffffffffffffffffffffffffffffffffffffffff16815250508185604001907bffffffffffffffffffffffffffffffffffffffffffffffffffffffff191690817bffffffffffffffffffffffffffffffffffffffffffffffffffffffff191681525050849050949350505050565b611562826003835161179e565b611575818361192390919063ffffffff16565b505050565b611587826002835161179e565b61159a818361192390919063ffffffff16565b505050565b600030846040516020016115b4929190612953565b604051602081830303815290604052805190602001209050846005600083815260200190815260200160002060006101000a81548173ffffffffffffffffffffffffffffffffffffffff021916908373ffffffffffffffffffffffffffffffffffffffff160217905550807fb5e6e01e79f91267dc17b4e6314d5d4d03593d2ceee0fbb452b750bd70ea5af960405160405180910390a2600260009054906101000a900473ffffffffffffffffffffffffffffffffffffffff1673ffffffffffffffffffffffffffffffffffffffff16634000aea08685856040518463ffffffff1660e01b81526004016116aa9392919061297f565b6020604051808303816000875af11580156116c9573d6000803e3d6000fd5b505050506040513d601f19601f820116820180604052508101906116ed91906129f5565b61172c576040517f08c379a000000000000000000000000000000000000000000000000000000000815260040161172390612a94565b60405180910390fd5b949350505050565b61173c611c8d565b600060208361174b9190612ae3565b146117775760208261175d9190612ae3565b60206117699190612b14565b826117749190612720565b91505b81836020018181525050604051808452600081528281016020016040525082905092915050565b60178167ffffffffffffffff16116117d5576117cf8160058460ff16901b60ff16178461194590919063ffffffff16565b5061191e565b60ff8167ffffffffffffffff161161182b57611804601860058460ff16901b178461194590919063ffffffff16565b506118258167ffffffffffffffff166001856119659092919063ffffffff16565b5061191d565b61ffff8167ffffffffffffffff16116118825761185b601960058460ff16901b178461194590919063ffffffff16565b5061187c8167ffffffffffffffff166002856119659092919063ffffffff16565b5061191c565b63ffffffff8167ffffffffffffffff16116118db576118b4601a60058460ff16901b178461194590919063ffffffff16565b506118d58167ffffffffffffffff166004856119659092919063ffffffff16565b5061191b565b6118f8601b60058460ff16901b178461194590919063ffffffff16565b506119198167ffffffffffffffff166008856119659092919063ffffffff16565b505b5b5b5b505050565b61192b611c8d565b61193d83846000015151848551611987565b905092915050565b61194d611c8d565b61195d8384600001515184611a76565b905092915050565b61196d611c8d565b61197e848560000151518585611acc565b90509392505050565b61198f611c8d565b825182111561199d57600080fd5b846020015182856119ae9190612720565b11156119e3576119e28560026119d3886020015188876119ce9190612720565b611b5a565b6119dd9190612b48565b611b76565b5b600080865180518760208301019350808887011115611a025787860182525b60208701925050505b60208410611a495780518252602082611a249190612720565b9150602081611a339190612720565b9050602084611a429190612b14565b9350611a0b565b60006001856020036101000a03905080198251168184511681811785525050508692505050949350505050565b611a7e611c8d565b83602001518310611aa457611aa38460028660200151611a9e9190612b48565b611b76565b5b83518051602085830101848153818603611abf576001820183525b5050508390509392505050565b611ad4611c8d565b84602001518483611ae59190612720565b1115611b0d57611b0c8560028685611afd9190612720565b611b079190612b48565b611b76565b5b6000600183610100611b1f9190612cd5565b611b299190612b14565b90508551838682010185831982511617815281518588011115611b4c5784870182525b505085915050949350505050565b600081831115611b6c57829050611b70565b8190505b92915050565b600082600001519050611b898383611734565b50611b948382611923565b50505050565b828054611ba690612275565b90600052602060002090601f016020900481019282611bc85760008555611c0f565b82601f10611be157805160ff1916838001178555611c0f565b82800160010185558215611c0f579182015b82811115611c0e578251825591602001919060010190611bf3565b5b509050611c1c9190611ca7565b5090565b6040518060a0016040528060008019168152602001600073ffffffffffffffffffffffffffffffffffffffff16815260200160007bffffffffffffffffffffffffffffffffffffffffffffffffffffffff1916815260200160008152602001611c87611c8d565b81525090565b604051806040016040528060608152602001600081525090565b5b80821115611cc0576000816000905550600101611ca8565b5090565b6000604051905090565b600080fd5b600080fd5b6000819050919050565b611ceb81611cd8565b8114611cf657600080fd5b50565b600081359050611d0881611ce2565b92915050565b600060208284031215611d2457611d23611cce565b5b6000611d3284828501611cf9565b91505092915050565b600081519050919050565b600082825260208201905092915050565b60005b83811015611d75578082015181840152602081019050611d5a565b83811115611d84576000848401525b50505050565b6000601f19601f8301169050919050565b6000611da682611d3b565b611db08185611d46565b9350611dc0818560208601611d57565b611dc981611d8a565b840191505092915050565b60006020820190508181036000830152611dee8184611d9b565b905092915050565b600080fd5b600080fd5b7f4e487b7100000000000000000000000000000000000000000000000000000000600052604160045260246000fd5b611e3882611d8a565b810181811067ffffffffffffffff82111715611e5757611e56611e00565b5b80604052505050565b6000611e6a611cc4565b9050611e768282611e2f565b919050565b600067ffffffffffffffff821115611e9657611e95611e00565b5b611e9f82611d8a565b9050602081019050919050565b82818337600083830152505050565b6000611ece611ec984611e7b565b611e60565b905082815260208101848484011115611eea57611ee9611dfb565b5b611ef5848285611eac565b509392505050565b600082601f830112611f1257611f11611df6565b5b8135611f22848260208601611ebb565b91505092915050565b600080600060608486031215611f4457611f43611cce565b5b600084013567ffffffffffffffff811115611f6257611f61611cd3565b5b611f6e86828701611efd565b935050602084013567ffffffffffffffff811115611f8f57611f8e611cd3565b5b611f9b86828701611efd565b9250506040611fac86828701611cf9565b9150509250925092565b600060208284031215611fcc57611fcb611cce565b5b600082013567ffffffffffffffff811115611fea57611fe9611cd3565b5b611ff684828501611efd565b91505092915050565b61200881611cd8565b82525050565b600073ffffffffffffffffffffffffffffffffffffffff82169050919050565b60006120398261200e565b9050919050565b6120498161202e565b82525050565b60006060820190506120646000830186611fff565b6120716020830185612040565b81810360408301526120838184611d9b565b9050949350505050565b60006020820190506120a26000830184612040565b92915050565b60006020820190506120bd6000830184611fff565b92915050565b6000806000606084860312156120dc576120db611cce565b5b60006120ea86828701611cf9565b93505060206120fb86828701611cf9565b925050604084013567ffffffffffffffff81111561211c5761211b611cd3565b5b61212886828701611efd565b9150509250925092565b61213b8161202e565b811461214657600080fd5b50565b60008135905061215881612132565b92915050565b6000806000806080858703121561217857612177611cce565b5b600085013567ffffffffffffffff81111561219657612195611cd3565b5b6121a287828801611efd565b945050602085013567ffffffffffffffff8111156121c3576121c2611cd3565b5b6121cf87828801611efd565b93505060406121e087828801612149565b925050606085013567ffffffffffffffff81111561220157612200611cd3565b5b61220d87828801611efd565b91505092959194509250565b60006020828403121561222f5761222e611cce565b5b600061223d84828501612149565b91505092915050565b7f4e487b7100000000000000000000000000000000000000000000000000000000600052602260045260246000fd5b6000600282049050600182168061228d57607f821691505b6020821081036122a05761229f612246565b5b50919050565b600081905092915050565b60006122bc82611d3b565b6122c681856122a6565b93506122d6818560208601611d57565b80840191505092915050565b60006122ee82846122b1565b915081905092915050565b7f54686973207369746520646f6573206e6f742065786973740000000000000000600082015250565b600061232f601883611d46565b915061233a826122f9565b602082019050919050565b6000602082019050818103600083015261235e81612322565b9050919050565b60008190508160005260206000209050919050565b6000815461238781612275565b61239181866122a6565b945060018216600081146123ac57600181146123bd576123f0565b60ff198316865281860193506123f0565b6123c685612365565b60005b838110156123e8578154818901526001820191506020810190506123c9565b838801955050505b50505092915050565b7f2f6170692f76312f676f7665726e2f726174652f72756c650000000000000000600082015250565b600061242f6018836122a6565b915061243a826123f9565b601882019050919050565b6000612451828461237a565b915061245c82612422565b915081905092915050565b7f2f6170692f76312f676f7665726e2f667573652f72756c650000000000000000600082015250565b600061249d6018836122a6565b91506124a882612467565b601882019050919050565b60006124bf828461237a565b91506124ca82612490565b915081905092915050565b7f4d7573742062652070726f706f736564206f776e657200000000000000000000600082015250565b600061250b601683611d46565b9150612516826124d5565b602082019050919050565b6000602082019050818103600083015261253a816124fe565b9050919050565b7f536f75726365206d75737420626520746865206f7261636c65206f662074686560008201527f2072657175657374000000000000000000000000000000000000000000000000602082015250565b600061259d602883611d46565b91506125a882612541565b604082019050919050565b600060208201905081810360008301526125cc81612590565b9050919050565b6000819050919050565b6125ee6125e982611cd8565b6125d3565b82525050565b600061260082846125dd565b60208201915081905092915050565b7f4f6e6c792063616c6c61626c65206279206f776e657200000000000000000000600082015250565b6000612645601683611d46565b91506126508261260f565b602082019050919050565b6000602082019050818103600083015261267481612638565b9050919050565b7f43616e6e6f74207472616e7366657220746f2073656c66000000000000000000600082015250565b60006126b1601783611d46565b91506126bc8261267b565b602082019050919050565b600060208201905081810360008301526126e0816126a4565b9050919050565b6000819050919050565b7f4e487b7100000000000000000000000000000000000000000000000000000000600052601160045260246000fd5b600061272b826126e7565b9150612736836126e7565b9250827fffffffffffffffffffffffffffffffffffffffffffffffffffffffffffffffff0382111561276b5761276a6126f1565b5b828201905092915050565b61277f816126e7565b82525050565b60007fffffffff0000000000000000000000000000000000000000000000000000000082169050919050565b6127ba81612785565b82525050565b600081519050919050565b600082825260208201905092915050565b60006127e7826127c0565b6127f181856127cb565b9350612801818560208601611d57565b61280a81611d8a565b840191505092915050565b60006101008201905061282b600083018b612040565b612838602083018a612776565b6128456040830189611fff565b6128526060830188612040565b61285f60808301876127b1565b61286c60a0830186612776565b61287960c0830185612776565b81810360e083015261288b81846127dc565b90509998505050505050505050565b6000819050919050565b60006128bf6128ba6128b58461200e565b61289a565b61200e565b9050919050565b60006128d1826128a4565b9050919050565b60006128e3826128c6565b9050919050565b60008160601b9050919050565b6000612902826128ea565b9050919050565b6000612914826128f7565b9050919050565b61292c612927826128d8565b612909565b82525050565b6000819050919050565b61294d612948826126e7565b612932565b82525050565b600061295f828561291b565b60148201915061296f828461293c565b6020820191508190509392505050565b60006060820190506129946000830186612040565b6129a16020830185612776565b81810360408301526129b381846127dc565b9050949350505050565b60008115159050919050565b6129d2816129bd565b81146129dd57600080fd5b50565b6000815190506129ef816129c9565b92915050565b600060208284031215612a0b57612a0a611cce565b5b6000612a19848285016129e0565b91505092915050565b7f756e61626c6520746f207472616e73666572416e6443616c6c20746f206f726160008201527f636c650000000000000000000000000000000000000000000000000000000000602082015250565b6000612a7e602383611d46565b9150612a8982612a22565b604082019050919050565b60006020820190508181036000830152612aad81612a71565b9050919050565b7f4e487b7100000000000000000000000000000000000000000000000000000000600052601260045260246000fd5b6000612aee826126e7565b9150612af9836126e7565b925082612b0957612b08612ab4565b5b828206905092915050565b6000612b1f826126e7565b9150612b2a836126e7565b925082821015612b3d57612b3c6126f1565b5b828203905092915050565b6000612b53826126e7565b9150612b5e836126e7565b9250817fffffffffffffffffffffffffffffffffffffffffffffffffffffffffffffffff0483118215151615612b9757612b966126f1565b5b828202905092915050565b60008160011c9050919050565b6000808291508390505b6001851115612bf957808604811115612bd557612bd46126f1565b5b6001851615612be45780820291505b8081029050612bf285612ba2565b9450612bb9565b94509492505050565b600082612c125760019050612cce565b81612c205760009050612cce565b8160018114612c365760028114612c4057612c6f565b6001915050612cce565b60ff841115612c5257612c516126f1565b5b8360020a915084821115612c6957612c686126f1565b5b50612cce565b5060208310610133831016604e8410600b8410161715612ca45782820a905083811115612c9f57612c9e6126f1565b5b612cce565b612cb18484846001612baf565b92509050818404811115612cc857612cc76126f1565b5b81810290505b9392505050565b6000612ce0826126e7565b9150612ceb836126e7565b9250612d187fffffffffffffffffffffffffffffffffffffffffffffffffffffffffffffffff8484612c02565b90509291505056fea264697066735822122013e4ef4c17b32ae8c38abe2caae61b751dfb210c056180b0469bd622a455e6e264736f6c634300080d0033",
  "linkReferences": {},
  "deployedLinkReferences": {}
}