{
  "_format": "hh-sol-artifact-1",
  "contractName": "MeshControl",
  "sourceName": "contracts/oracle/MeshControl.sol",
  "abi": [
    {
      "inputs": [
        {
          "internalType": "uint256",
          "name": "_fee",
          "type": "uint256"
        },
        {
          "internalType": "address",
          "name": "_link",
          "type": "address"
        }
      ],
      "stateMutability": "nonpayable",
      "type": "constructor"
    },
    {
      "anonymous": false,
      "inputs": [
        {
          "indexed": true,
          "internalType": "bytes32",
          "name": "id",
          "type": "bytes32"
        }
      ],
      "name": "ChainlinkCancelled",
      "type": "event"
    },
    {
      "anonymous": false,
      "inputs": [
        {
          "indexed": true,
          "internalType": "bytes32",
          "name": "id",
          "type": "bytes32"
        }
      ],
      "name": "ChainlinkFulfilled",
      "type": "event"
    },
    {
      "anonymous": false,
      "inputs": [
        {
          "indexed": true,
          "internalType": "bytes32",
          "name": "id",
          "type": "bytes32"
        }
      ],
      "name": "ChainlinkRequested",
      "type": "event"
    },
    {
      "anonymous": false,
      "inputs": [
        {
          "indexed": true,
          "internalType": "address",
          "name": "from",
          "type": "address"
        },
        {
          "indexed": true,
          "internalType": "address",
          "name": "to",
          "type": "address"
        }
      ],
      "name": "OwnershipTransferRequested",
      "type": "event"
    },
    {
      "anonymous": false,
      "inputs": [
        {
          "indexed": true,
          "internalType": "address",
          "name": "from",
          "type": "address"
        },
        {
          "indexed": true,
          "internalType": "address",
          "name": "to",
          "type": "address"
        }
      ],
      "name": "OwnershipTransferred",
      "type": "event"
    },
    {
      "anonymous": false,
      "inputs": [
        {
          "indexed": true,
          "internalType": "bytes32",
          "name": "_requestUID",
          "type": "bytes32"
        },
        {
          "indexed": false,
          "internalType": "string",
          "name": "data",
          "type": "string"
        }
      ],
      "name": "RequestFulfilled",
      "type": "event"
    },
    {
      "inputs": [
        {
          "internalType": "bytes32",
          "name": "",
          "type": "bytes32"
        }
      ],
      "name": "_result",
      "outputs": [
        {
          "internalType": "string",
          "name": "",
          "type": "string"
        }
      ],
      "stateMutability": "view",
      "type": "function"
    },
    {
      "inputs": [
        {
          "internalType": "string",
          "name": "",
          "type": "string"
        }
      ],
      "name": "_sites",
      "outputs": [
        {
          "internalType": "bytes32",
          "name": "jobId",
          "type": "bytes32"
        },
        {
          "internalType": "address",
          "name": "oracle",
          "type": "address"
        },
        {
          "internalType": "string",
          "name": "host",
          "type": "string"
        }
      ],
      "stateMutability": "view",
      "type": "function"
    },
    {
      "inputs": [],
      "name": "acceptOwnership",
      "outputs": [],
      "stateMutability": "nonpayable",
      "type": "function"
    },
    {
      "inputs": [],
      "name": "currentData",
      "outputs": [
        {
          "internalType": "string",
          "name": "",
          "type": "string"
        }
      ],
      "stateMutability": "view",
      "type": "function"
    },
    {
      "inputs": [],
      "name": "currentKey",
      "outputs": [
        {
          "internalType": "bytes32",
          "name": "",
          "type": "bytes32"
        }
      ],
      "stateMutability": "view",
      "type": "function"
    },
    {
      "inputs": [
        {
          "internalType": "bytes32",
          "name": "_requestId",
          "type": "bytes32"
        },
        {
          "internalType": "bytes32",
          "name": "_requestUID",
          "type": "bytes32"
        },
        {
          "internalType": "string",
          "name": "_stringData",
          "type": "string"
        }
      ],
      "name": "fulfill",
      "outputs": [],
      "stateMutability": "nonpayable",
      "type": "function"
    },
    {
      "inputs": [
        {
          "internalType": "string",
          "name": "_siteName",
          "type": "string"
        },
        {
          "internalType": "string",
          "name": "_requestData",
          "type": "string"
        },
        {
          "internalType": "bytes32",
          "name": "_requestUID",
          "type": "bytes32"
        }
      ],
      "name": "fuseRule",
      "outputs": [],
      "stateMutability": "nonpayable",
      "type": "function"
    },
    {
      "inputs": [
        {
          "internalType": "bytes32",
          "name": "_requestUID",
          "type": "bytes32"
        }
      ],
      "name": "getResultData",
      "outputs": [
        {
          "internalType": "string",
          "name": "",
          "type": "string"
        }
      ],
      "stateMutability": "view",
      "type": "function"
    },
    {
      "inputs": [],
      "name": "owner",
      "outputs": [
        {
          "internalType": "address",
          "name": "",
          "type": "address"
        }
      ],
      "stateMutability": "view",
      "type": "function"
    },
    {
      "inputs": [
        {
          "internalType": "string",
          "name": "_siteName",
          "type": "string"
        },
        {
          "internalType": "string",
          "name": "_requestData",
          "type": "string"
        },
        {
          "internalType": "bytes32",
          "name": "_requestUID",
          "type": "bytes32"
        }
      ],
      "name": "rateLimitRule",
      "outputs": [],
      "stateMutability": "nonpayable",
      "type": "function"
    },
    {
      "inputs": [
        {
          "internalType": "string",
          "name": "_name",
          "type": "string"
        },
        {
          "internalType": "string",
          "name": "_jobId",
          "type": "string"
        },
        {
          "internalType": "address",
          "name": "_oracle",
          "type": "address"
        },
        {
          "internalType": "string",
          "name": "host",
          "type": "string"
        }
      ],
      "name": "setSites",
      "outputs": [],
      "stateMutability": "nonpayable",
      "type": "function"
    },
    {
      "inputs": [
        {
          "internalType": "address",
          "name": "to",
          "type": "address"
        }
      ],
      "name": "transferOwnership",
      "outputs": [],
      "stateMutability": "nonpayable",
      "type": "function"
    }
  ],
  "bytecode": "0x608060405260016004553480156200001657600080fd5b50604051620031b9380380620031b983398181016040528101906200003c919062000376565b338060008073ffffffffffffffffffffffffffffffffffffffff168273ffffffffffffffffffffffffffffffffffffffff1603620000b1576040517f08c379a0000000000000000000000000000000000000000000000000000000008152600401620000a8906200041e565b60405180910390fd5b81600660006101000a81548173ffffffffffffffffffffffffffffffffffffffff021916908373ffffffffffffffffffffffffffffffffffffffff160217905550600073ffffffffffffffffffffffffffffffffffffffff168173ffffffffffffffffffffffffffffffffffffffff1614620001395762000138816200015c60201b60201c565b5b5050506200014d816200028d60201b60201c565b816009819055505050620004b2565b3373ffffffffffffffffffffffffffffffffffffffff168173ffffffffffffffffffffffffffffffffffffffff1603620001cd576040517f08c379a0000000000000000000000000000000000000000000000000000000008152600401620001c49062000490565b60405180910390fd5b80600760006101000a81548173ffffffffffffffffffffffffffffffffffffffff021916908373ffffffffffffffffffffffffffffffffffffffff1602179055508073ffffffffffffffffffffffffffffffffffffffff16600660009054906101000a900473ffffffffffffffffffffffffffffffffffffffff1673ffffffffffffffffffffffffffffffffffffffff167fed8889f560326eb138920d842192f0eb3dd22b4f139c87a2c57538e05bae127860405160405180910390a350565b80600260006101000a81548173ffffffffffffffffffffffffffffffffffffffff021916908373ffffffffffffffffffffffffffffffffffffffff16021790555050565b600080fd5b6000819050919050565b620002eb81620002d6565b8114620002f757600080fd5b50565b6000815190506200030b81620002e0565b92915050565b600073ffffffffffffffffffffffffffffffffffffffff82169050919050565b60006200033e8262000311565b9050919050565b620003508162000331565b81146200035c57600080fd5b50565b600081519050620003708162000345565b92915050565b6000806040838503121562000390576200038f620002d1565b5b6000620003a085828601620002fa565b9250506020620003b3858286016200035f565b9150509250929050565b600082825260208201905092915050565b7f43616e6e6f7420736574206f776e657220746f207a65726f0000000000000000600082015250565b600062000406601883620003bd565b91506200041382620003ce565b602082019050919050565b600060208201905081810360008301526200043981620003f7565b9050919050565b7f43616e6e6f74207472616e7366657220746f2073656c66000000000000000000600082015250565b600062000478601783620003bd565b9150620004858262000440565b602082019050919050565b60006020820190508181036000830152620004ab8162000469565b9050919050565b612cf780620004c26000396000f3fe608060405234801561001057600080fd5b50600436106100b45760003560e01c806388bf2fa51161007157806388bf2fa51461017b5780638da5cb5b146101ab578063a0ddb418146101c9578063e839d5bd146101e7578063ed464c4d14610203578063f2fde38b1461021f576100b4565b806316f839b5146100b95780634bd76274146100e957806358eea4ad14610105578063590ccd231461012357806379ba50971461013f5780637cb4509b14610149575b600080fd5b6100d360048036038101906100ce9190611caf565b61023b565b6040516100e09190611d75565b60405180910390f35b61010360048036038101906100fe9190611ecc565b6102db565b005b61010d610497565b60405161011a9190611d75565b60405180910390f35b61013d60048036038101906101389190611ecc565b610525565b005b6101476106e1565b005b610163600480360381019061015e9190611f57565b610878565b60405161017293929190611ff0565b60405180910390f35b61019560048036038101906101909190611caf565b610960565b6040516101a29190611d75565b60405180910390f35b6101b3610a05565b6040516101c0919061202e565b60405180910390f35b6101d1610a2f565b6040516101de9190612049565b60405180910390f35b61020160048036038101906101fc9190612064565b610a35565b005b61021d600480360381019061021891906120ff565b610bbe565b005b610239600480360381019061023491906121ba565b610d2e565b005b6008602052806000526040600020600091509050805461025a90612216565b80601f016020809104026020016040519081016040528092919081815260200182805461028690612216565b80156102d35780601f106102a8576101008083540402835291602001916102d3565b820191906000526020600020905b8154815290600101906020018083116102b657829003601f168201915b505050505081565b82600073ffffffffffffffffffffffffffffffffffffffff16600c826040516103049190612283565b908152602001604051809103902060010160009054906101000a900473ffffffffffffffffffffffffffffffffffffffff1673ffffffffffffffffffffffffffffffffffffffff160361038c576040517f08c379a0000000000000000000000000000000000000000000000000000000008152600401610383906122e6565b60405180910390fd5b60008351116103d0576040518060400160405280600481526020017f6533303d000000000000000000000000000000000000000000000000000000008152506103d2565b825b92506000600c856040516103e69190612283565b908152602001604051809103902060020160405160200161040791906123e6565b60405160208183030381529060405290506104906040518060400160405280600481526020017f504f535400000000000000000000000000000000000000000000000000000000815250826040518060400160405280600481526020017f5731303d00000000000000000000000000000000000000000000000000000000815250878988610d42565b5050505050565b600b80546104a490612216565b80601f01602080910402602001604051908101604052809291908181526020018280546104d090612216565b801561051d5780601f106104f25761010080835404028352916020019161051d565b820191906000526020600020905b81548152906001019060200180831161050057829003601f168201915b505050505081565b82600073ffffffffffffffffffffffffffffffffffffffff16600c8260405161054e9190612283565b908152602001604051809103902060010160009054906101000a900473ffffffffffffffffffffffffffffffffffffffff1673ffffffffffffffffffffffffffffffffffffffff16036105d6576040517f08c379a00000000000000000000000000000000000000000000000000000000081526004016105cd906122e6565b60405180910390fd5b600083511161061a576040518060400160405280600481526020017f6533303d0000000000000000000000000000000000000000000000000000000081525061061c565b825b92506000600c856040516106309190612283565b90815260200160405180910390206002016040516020016106519190612454565b60405160208183030381529060405290506106da6040518060400160405280600481526020017f504f535400000000000000000000000000000000000000000000000000000000815250826040518060400160405280600481526020017f5731303d00000000000000000000000000000000000000000000000000000000815250878988610d42565b5050505050565b600760009054906101000a900473ffffffffffffffffffffffffffffffffffffffff1673ffffffffffffffffffffffffffffffffffffffff163373ffffffffffffffffffffffffffffffffffffffff1614610771576040517f08c379a0000000000000000000000000000000000000000000000000000000008152600401610768906124c2565b60405180910390fd5b6000600660009054906101000a900473ffffffffffffffffffffffffffffffffffffffff16905033600660006101000a81548173ffffffffffffffffffffffffffffffffffffffff021916908373ffffffffffffffffffffffffffffffffffffffff1602179055506000600760006101000a81548173ffffffffffffffffffffffffffffffffffffffff021916908373ffffffffffffffffffffffffffffffffffffffff1602179055503373ffffffffffffffffffffffffffffffffffffffff168173ffffffffffffffffffffffffffffffffffffffff167f8be0079c531659141344cd1fd0a4f28419497f9722a3daafe3b4186f6b6457e060405160405180910390a350565b600c818051602081018201805184825260208301602085012081835280955050505050506000915090508060000154908060010160009054906101000a900473ffffffffffffffffffffffffffffffffffffffff16908060020180546108dd90612216565b80601f016020809104026020016040519081016040528092919081815260200182805461090990612216565b80156109565780601f1061092b57610100808354040283529160200191610956565b820191906000526020600020905b81548152906001019060200180831161093957829003601f168201915b5050505050905083565b606060086000838152602001908152602001600020805461098090612216565b80601f01602080910402602001604051908101604052809291908181526020018280546109ac90612216565b80156109f95780601f106109ce576101008083540402835291602001916109f9565b820191906000526020600020905b8154815290600101906020018083116109dc57829003601f168201915b50505050509050919050565b6000600660009054906101000a900473ffffffffffffffffffffffffffffffffffffffff16905090565b600a5481565b826005600082815260200190815260200160002060009054906101000a900473ffffffffffffffffffffffffffffffffffffffff1673ffffffffffffffffffffffffffffffffffffffff163373ffffffffffffffffffffffffffffffffffffffff1614610ad7576040517f08c379a0000000000000000000000000000000000000000000000000000000008152600401610ace90612554565b60405180910390fd5b6005600082815260200190815260200160002060006101000a81549073ffffffffffffffffffffffffffffffffffffffff0219169055807f7cc135e0cebb02c3480ae5d74d377283180a2601f8f644edf7987b009316c63a60405160405180910390a2827fd7068dd93b2b2c580d414706aabbf529878c2a8273cd02be55b47c38eb2179a183604051610b6a9190611d75565b60405180910390a281600860008581526020019081526020016000209080519060200190610b99929190611b3b565b5082600a8190555081600b9080519060200190610bb7929190611b3b565b5050505050565b610bc6610a05565b73ffffffffffffffffffffffffffffffffffffffff163373ffffffffffffffffffffffffffffffffffffffff1614610bfd57600080fd5b6000845111610c0b57600080fd5b6000835111610c1957600080fd5b600073ffffffffffffffffffffffffffffffffffffffff168273ffffffffffffffffffffffffffffffffffffffff1603610c5257600080fd5b6000815111610c6057600080fd5b6040518060600160405280610c74856110fa565b81526020018373ffffffffffffffffffffffffffffffffffffffff16815260200182815250600c85604051610ca99190612283565b90815260200160405180910390206000820151816000015560208201518160010160006101000a81548173ffffffffffffffffffffffffffffffffffffffff021916908373ffffffffffffffffffffffffffffffffffffffff1602179055506040820151816002019080519060200190610d24929190611b3b565b5090505050505050565b610d36611123565b610d3f816111b5565b50565b81600073ffffffffffffffffffffffffffffffffffffffff16600c82604051610d6b9190612283565b908152602001604051809103902060010160009054906101000a900473ffffffffffffffffffffffffffffffffffffffff1673ffffffffffffffffffffffffffffffffffffffff1603610df3576040517f08c379a0000000000000000000000000000000000000000000000000000000008152600401610dea906122e6565b60405180910390fd5b6000875111610e37576040518060400160405280600381526020017f4745540000000000000000000000000000000000000000000000000000000000815250610e39565b865b96506000865111610e4957600080fd5b6000855111610e8d576040518060400160405280600481526020017f5731303d00000000000000000000000000000000000000000000000000000000815250610e8f565b845b94506000845111610ed5576040518060400160405280600481526020017f6533303d00000000000000000000000000000000000000000000000000000000815250610ed7565b835b93506000610f0e600c85604051610eee9190612283565b9081526020016040518091039020600001543063e839d5bd60e01b6112e3565b9050610f5a6040518060400160405280600381526020017f75726c000000000000000000000000000000000000000000000000000000000081525088836113149092919063ffffffff16565b610fa46040518060400160405280600681526020017f6d6574686f64000000000000000000000000000000000000000000000000000081525089836113149092919063ffffffff16565b610fee6040518060400160405280600781526020017f686561646572730000000000000000000000000000000000000000000000000081525087836113149092919063ffffffff16565b6110386040518060400160405280600b81526020017f726571756573744461746100000000000000000000000000000000000000000081525086836113149092919063ffffffff16565b6110a16040518060400160405280600a81526020017f7265717565737455494400000000000000000000000000000000000000000000815250846040516020016110829190612595565b604051602081830303815290604052836113479092919063ffffffff16565b6110ef600c856040516110b49190612283565b908152602001604051809103902060010160009054906101000a900473ffffffffffffffffffffffffffffffffffffffff168260095461137a565b505050505050505050565b6000808290506000815103611115576000801b91505061111e565b60208301519150505b919050565b600660009054906101000a900473ffffffffffffffffffffffffffffffffffffffff1673ffffffffffffffffffffffffffffffffffffffff163373ffffffffffffffffffffffffffffffffffffffff16146111b3576040517f08c379a00000000000000000000000000000000000000000000000000000000081526004016111aa906125fc565b60405180910390fd5b565b3373ffffffffffffffffffffffffffffffffffffffff168173ffffffffffffffffffffffffffffffffffffffff1603611223576040517f08c379a000000000000000000000000000000000000000000000000000000000815260040161121a90612668565b60405180910390fd5b80600760006101000a81548173ffffffffffffffffffffffffffffffffffffffff021916908373ffffffffffffffffffffffffffffffffffffffff1602179055508073ffffffffffffffffffffffffffffffffffffffff16600660009054906101000a900473ffffffffffffffffffffffffffffffffffffffff1673ffffffffffffffffffffffffffffffffffffffff167fed8889f560326eb138920d842192f0eb3dd22b4f139c87a2c57538e05bae127860405160405180910390a350565b6112eb611bc1565b6112f3611bc1565b61130a85858584611446909392919063ffffffff16565b9150509392505050565b61132b8284608001516114f690919063ffffffff16565b6113428184608001516114f690919063ffffffff16565b505050565b61135e8284608001516114f690919063ffffffff16565b61137581846080015161151b90919063ffffffff16565b505050565b600080600454905060018161138f91906126c1565b6004819055506000634042994660e01b60008087600001513089604001518760018c60800151600001516040516024016113d09897969594939291906127b6565b604051602081830303815290604052907bffffffffffffffffffffffffffffffffffffffffffffffffffffffff19166020820180517bffffffffffffffffffffffffffffffffffffffffffffffffffffffff8381831617835250505050905061143b86838684611540565b925050509392505050565b61144e611bc1565b61145e85608001516101006116d5565b508385600001818152505082856020019073ffffffffffffffffffffffffffffffffffffffff16908173ffffffffffffffffffffffffffffffffffffffff16815250508185604001907bffffffffffffffffffffffffffffffffffffffffffffffffffffffff191690817bffffffffffffffffffffffffffffffffffffffffffffffffffffffff191681525050849050949350505050565b611503826003835161173f565b61151681836118c490919063ffffffff16565b505050565b611528826002835161173f565b61153b81836118c490919063ffffffff16565b505050565b600030846040516020016115559291906128f4565b604051602081830303815290604052805190602001209050846005600083815260200190815260200160002060006101000a81548173ffffffffffffffffffffffffffffffffffffffff021916908373ffffffffffffffffffffffffffffffffffffffff160217905550807fb5e6e01e79f91267dc17b4e6314d5d4d03593d2ceee0fbb452b750bd70ea5af960405160405180910390a2600260009054906101000a900473ffffffffffffffffffffffffffffffffffffffff1673ffffffffffffffffffffffffffffffffffffffff16634000aea08685856040518463ffffffff1660e01b815260040161164b93929190612920565b6020604051808303816000875af115801561166a573d6000803e3d6000fd5b505050506040513d601f19601f8201168201806040525081019061168e9190612996565b6116cd576040517f08c379a00000000000000000000000000000000000000000000000000000000081526004016116c490612a35565b60405180910390fd5b949350505050565b6116dd611c2e565b60006020836116ec9190612a84565b14611718576020826116fe9190612a84565b602061170a9190612ab5565b8261171591906126c1565b91505b81836020018181525050604051808452600081528281016020016040525082905092915050565b60178167ffffffffffffffff1611611776576117708160058460ff16901b60ff1617846118e690919063ffffffff16565b506118bf565b60ff8167ffffffffffffffff16116117cc576117a5601860058460ff16901b17846118e690919063ffffffff16565b506117c68167ffffffffffffffff166001856119069092919063ffffffff16565b506118be565b61ffff8167ffffffffffffffff1611611823576117fc601960058460ff16901b17846118e690919063ffffffff16565b5061181d8167ffffffffffffffff166002856119069092919063ffffffff16565b506118bd565b63ffffffff8167ffffffffffffffff161161187c57611855601a60058460ff16901b17846118e690919063ffffffff16565b506118768167ffffffffffffffff166004856119069092919063ffffffff16565b506118bc565b611899601b60058460ff16901b17846118e690919063ffffffff16565b506118ba8167ffffffffffffffff166008856119069092919063ffffffff16565b505b5b5b5b505050565b6118cc611c2e565b6118de83846000015151848551611928565b905092915050565b6118ee611c2e565b6118fe8384600001515184611a17565b905092915050565b61190e611c2e565b61191f848560000151518585611a6d565b90509392505050565b611930611c2e565b825182111561193e57600080fd5b8460200151828561194f91906126c1565b1115611984576119838560026119748860200151888761196f91906126c1565b611afb565b61197e9190612ae9565b611b17565b5b6000808651805187602083010193508088870111156119a35787860182525b60208701925050505b602084106119ea57805182526020826119c591906126c1565b91506020816119d491906126c1565b90506020846119e39190612ab5565b93506119ac565b60006001856020036101000a03905080198251168184511681811785525050508692505050949350505050565b611a1f611c2e565b83602001518310611a4557611a448460028660200151611a3f9190612ae9565b611b17565b5b83518051602085830101848153818603611a60576001820183525b5050508390509392505050565b611a75611c2e565b84602001518483611a8691906126c1565b1115611aae57611aad8560028685611a9e91906126c1565b611aa89190612ae9565b611b17565b5b6000600183610100611ac09190612c76565b611aca9190612ab5565b90508551838682010185831982511617815281518588011115611aed5784870182525b505085915050949350505050565b600081831115611b0d57829050611b11565b8190505b92915050565b600082600001519050611b2a83836116d5565b50611b3583826118c4565b50505050565b828054611b4790612216565b90600052602060002090601f016020900481019282611b695760008555611bb0565b82601f10611b8257805160ff1916838001178555611bb0565b82800160010185558215611bb0579182015b82811115611baf578251825591602001919060010190611b94565b5b509050611bbd9190611c48565b5090565b6040518060a0016040528060008019168152602001600073ffffffffffffffffffffffffffffffffffffffff16815260200160007bffffffffffffffffffffffffffffffffffffffffffffffffffffffff1916815260200160008152602001611c28611c2e565b81525090565b604051806040016040528060608152602001600081525090565b5b80821115611c61576000816000905550600101611c49565b5090565b6000604051905090565b600080fd5b600080fd5b6000819050919050565b611c8c81611c79565b8114611c9757600080fd5b50565b600081359050611ca981611c83565b92915050565b600060208284031215611cc557611cc4611c6f565b5b6000611cd384828501611c9a565b91505092915050565b600081519050919050565b600082825260208201905092915050565b60005b83811015611d16578082015181840152602081019050611cfb565b83811115611d25576000848401525b50505050565b6000601f19601f8301169050919050565b6000611d4782611cdc565b611d518185611ce7565b9350611d61818560208601611cf8565b611d6a81611d2b565b840191505092915050565b60006020820190508181036000830152611d8f8184611d3c565b905092915050565b600080fd5b600080fd5b7f4e487b7100000000000000000000000000000000000000000000000000000000600052604160045260246000fd5b611dd982611d2b565b810181811067ffffffffffffffff82111715611df857611df7611da1565b5b80604052505050565b6000611e0b611c65565b9050611e178282611dd0565b919050565b600067ffffffffffffffff821115611e3757611e36611da1565b5b611e4082611d2b565b9050602081019050919050565b82818337600083830152505050565b6000611e6f611e6a84611e1c565b611e01565b905082815260208101848484011115611e8b57611e8a611d9c565b5b611e96848285611e4d565b509392505050565b600082601f830112611eb357611eb2611d97565b5b8135611ec3848260208601611e5c565b91505092915050565b600080600060608486031215611ee557611ee4611c6f565b5b600084013567ffffffffffffffff811115611f0357611f02611c74565b5b611f0f86828701611e9e565b935050602084013567ffffffffffffffff811115611f3057611f2f611c74565b5b611f3c86828701611e9e565b9250506040611f4d86828701611c9a565b9150509250925092565b600060208284031215611f6d57611f6c611c6f565b5b600082013567ffffffffffffffff811115611f8b57611f8a611c74565b5b611f9784828501611e9e565b91505092915050565b611fa981611c79565b82525050565b600073ffffffffffffffffffffffffffffffffffffffff82169050919050565b6000611fda82611faf565b9050919050565b611fea81611fcf565b82525050565b60006060820190506120056000830186611fa0565b6120126020830185611fe1565b81810360408301526120248184611d3c565b9050949350505050565b60006020820190506120436000830184611fe1565b92915050565b600060208201905061205e6000830184611fa0565b92915050565b60008060006060848603121561207d5761207c611c6f565b5b600061208b86828701611c9a565b935050602061209c86828701611c9a565b925050604084013567ffffffffffffffff8111156120bd576120bc611c74565b5b6120c986828701611e9e565b9150509250925092565b6120dc81611fcf565b81146120e757600080fd5b50565b6000813590506120f9816120d3565b92915050565b6000806000806080858703121561211957612118611c6f565b5b600085013567ffffffffffffffff81111561213757612136611c74565b5b61214387828801611e9e565b945050602085013567ffffffffffffffff81111561216457612163611c74565b5b61217087828801611e9e565b9350506040612181878288016120ea565b925050606085013567ffffffffffffffff8111156121a2576121a1611c74565b5b6121ae87828801611e9e565b91505092959194509250565b6000602082840312156121d0576121cf611c6f565b5b60006121de848285016120ea565b91505092915050565b7f4e487b7100000000000000000000000000000000000000000000000000000000600052602260045260246000fd5b6000600282049050600182168061222e57607f821691505b602082108103612241576122406121e7565b5b50919050565b600081905092915050565b600061225d82611cdc565b6122678185612247565b9350612277818560208601611cf8565b80840191505092915050565b600061228f8284612252565b915081905092915050565b7f54686973207369746520646f6573206e6f742065786973740000000000000000600082015250565b60006122d0601883611ce7565b91506122db8261229a565b602082019050919050565b600060208201905081810360008301526122ff816122c3565b9050919050565b60008190508160005260206000209050919050565b6000815461232881612216565b6123328186612247565b9450600182166000811461234d576001811461235e57612391565b60ff19831686528186019350612391565b61236785612306565b60005b838110156123895781548189015260018201915060208101905061236a565b838801955050505b50505092915050565b7f2f6170692f76312f676f7665726e2f726174652f72756c650000000000000000600082015250565b60006123d0601883612247565b91506123db8261239a565b601882019050919050565b60006123f2828461231b565b91506123fd826123c3565b915081905092915050565b7f2f6170692f76312f676f7665726e2f667573652f72756c650000000000000000600082015250565b600061243e601883612247565b915061244982612408565b601882019050919050565b6000612460828461231b565b915061246b82612431565b915081905092915050565b7f4d7573742062652070726f706f736564206f776e657200000000000000000000600082015250565b60006124ac601683611ce7565b91506124b782612476565b602082019050919050565b600060208201905081810360008301526124db8161249f565b9050919050565b7f536f75726365206d75737420626520746865206f7261636c65206f662074686560008201527f2072657175657374000000000000000000000000000000000000000000000000602082015250565b600061253e602883611ce7565b9150612549826124e2565b604082019050919050565b6000602082019050818103600083015261256d81612531565b9050919050565b6000819050919050565b61258f61258a82611c79565b612574565b82525050565b60006125a1828461257e565b60208201915081905092915050565b7f4f6e6c792063616c6c61626c65206279206f776e657200000000000000000000600082015250565b60006125e6601683611ce7565b91506125f1826125b0565b602082019050919050565b60006020820190508181036000830152612615816125d9565b9050919050565b7f43616e6e6f74207472616e7366657220746f2073656c66000000000000000000600082015250565b6000612652601783611ce7565b915061265d8261261c565b602082019050919050565b6000602082019050818103600083015261268181612645565b9050919050565b6000819050919050565b7f4e487b7100000000000000000000000000000000000000000000000000000000600052601160045260246000fd5b60006126cc82612688565b91506126d783612688565b9250827fffffffffffffffffffffffffffffffffffffffffffffffffffffffffffffffff0382111561270c5761270b612692565b5b828201905092915050565b61272081612688565b82525050565b60007fffffffff0000000000000000000000000000000000000000000000000000000082169050919050565b61275b81612726565b82525050565b600081519050919050565b600082825260208201905092915050565b600061278882612761565b612792818561276c565b93506127a2818560208601611cf8565b6127ab81611d2b565b840191505092915050565b6000610100820190506127cc600083018b611fe1565b6127d9602083018a612717565b6127e66040830189611fa0565b6127f36060830188611fe1565b6128006080830187612752565b61280d60a0830186612717565b61281a60c0830185612717565b81810360e083015261282c818461277d565b90509998505050505050505050565b6000819050919050565b600061286061285b61285684611faf565b61283b565b611faf565b9050919050565b600061287282612845565b9050919050565b600061288482612867565b9050919050565b60008160601b9050919050565b60006128a38261288b565b9050919050565b60006128b582612898565b9050919050565b6128cd6128c882612879565b6128aa565b82525050565b6000819050919050565b6128ee6128e982612688565b6128d3565b82525050565b600061290082856128bc565b60148201915061291082846128dd565b6020820191508190509392505050565b60006060820190506129356000830186611fe1565b6129426020830185612717565b8181036040830152612954818461277d565b9050949350505050565b60008115159050919050565b6129738161295e565b811461297e57600080fd5b50565b6000815190506129908161296a565b92915050565b6000602082840312156129ac576129ab611c6f565b5b60006129ba84828501612981565b91505092915050565b7f756e61626c6520746f207472616e73666572416e6443616c6c20746f206f726160008201527f636c650000000000000000000000000000000000000000000000000000000000602082015250565b6000612a1f602383611ce7565b9150612a2a826129c3565b604082019050919050565b60006020820190508181036000830152612a4e81612a12565b9050919050565b7f4e487b7100000000000000000000000000000000000000000000000000000000600052601260045260246000fd5b6000612a8f82612688565b9150612a9a83612688565b925082612aaa57612aa9612a55565b5b828206905092915050565b6000612ac082612688565b9150612acb83612688565b925082821015612ade57612add612692565b5b828203905092915050565b6000612af482612688565b9150612aff83612688565b9250817fffffffffffffffffffffffffffffffffffffffffffffffffffffffffffffffff0483118215151615612b3857612b37612692565b5b828202905092915050565b60008160011c9050919050565b6000808291508390505b6001851115612b9a57808604811115612b7657612b75612692565b5b6001851615612b855780820291505b8081029050612b9385612b43565b9450612b5a565b94509492505050565b600082612bb35760019050612c6f565b81612bc15760009050612c6f565b8160018114612bd75760028114612be157612c10565b6001915050612c6f565b60ff841115612bf357612bf2612692565b5b8360020a915084821115612c0a57612c09612692565b5b50612c6f565b5060208310610133831016604e8410600b8410161715612c455782820a905083811115612c4057612c3f612692565b5b612c6f565b612c528484846001612b50565b92509050818404811115612c6957612c68612692565b5b81810290505b9392505050565b6000612c8182612688565b9150612c8c83612688565b9250612cb97fffffffffffffffffffffffffffffffffffffffffffffffffffffffffffffffff8484612ba3565b90509291505056fea264697066735822122004bca651757126ed96cd477aed2f034fcc5ad32b89f3a8396112a1db63ecfa4764736f6c634300080d0033",
  "linkReferences": {},
  "deployedLinkReferences": {}
}