{
  "_format": "hh-sol-artifact-1",
  "contractName": "STCDao",
  "sourceName": "contracts/STCDao.sol",
  "abi": [
    {
      "inputs": [],
      "stateMutability": "nonpayable",
      "type": "constructor"
    },
    {
      "anonymous": false,
      "inputs": [
        {
          "indexed": true,
          "internalType": "address",
          "name": "owner",
          "type": "address"
        },
        {
          "indexed": true,
          "internalType": "address",
          "name": "approved",
          "type": "address"
        },
        {
          "indexed": true,
          "internalType": "uint256",
          "name": "tokenId",
          "type": "uint256"
        }
      ],
      "name": "Approval",
      "type": "event"
    },
    {
      "anonymous": false,
      "inputs": [
        {
          "indexed": true,
          "internalType": "address",
          "name": "owner",
          "type": "address"
        },
        {
          "indexed": true,
          "internalType": "address",
          "name": "operator",
          "type": "address"
        },
        {
          "indexed": false,
          "internalType": "bool",
          "name": "approved",
          "type": "bool"
        }
      ],
      "name": "ApprovalForAll",
      "type": "event"
    },
    {
      "anonymous": false,
      "inputs": [
        {
          "indexed": false,
          "internalType": "address",
          "name": "",
          "type": "address"
        },
        {
          "indexed": false,
          "internalType": "uint256",
          "name": "",
          "type": "uint256"
        }
      ],
      "name": "TokenMinted",
      "type": "event"
    },
    {
      "anonymous": false,
      "inputs": [
        {
          "indexed": false,
          "internalType": "address",
          "name": "",
          "type": "address"
        },
        {
          "indexed": false,
          "internalType": "address",
          "name": "",
          "type": "address"
        },
        {
          "indexed": false,
          "internalType": "uint256",
          "name": "",
          "type": "uint256"
        }
      ],
      "name": "TokenTransfered",
      "type": "event"
    },
    {
      "anonymous": false,
      "inputs": [
        {
          "indexed": true,
          "internalType": "address",
          "name": "from",
          "type": "address"
        },
        {
          "indexed": true,
          "internalType": "address",
          "name": "to",
          "type": "address"
        },
        {
          "indexed": true,
          "internalType": "uint256",
          "name": "tokenId",
          "type": "uint256"
        }
      ],
      "name": "Transfer",
      "type": "event"
    },
    {
      "inputs": [
        {
          "internalType": "address",
          "name": "to",
          "type": "address"
        },
        {
          "internalType": "uint256",
          "name": "tokenId",
          "type": "uint256"
        }
      ],
      "name": "approve",
      "outputs": [],
      "stateMutability": "nonpayable",
      "type": "function"
    },
    {
      "inputs": [
        {
          "internalType": "address",
          "name": "owner",
          "type": "address"
        }
      ],
      "name": "balanceOf",
      "outputs": [
        {
          "internalType": "uint256",
          "name": "",
          "type": "uint256"
        }
      ],
      "stateMutability": "view",
      "type": "function"
    },
    {
      "inputs": [
        {
          "internalType": "string",
          "name": "name",
          "type": "string"
        },
        {
          "internalType": "string",
          "name": "description",
          "type": "string"
        },
        {
          "internalType": "string",
          "name": "jsoninfo",
          "type": "string"
        },
        {
          "internalType": "string",
          "name": "image",
          "type": "string"
        }
      ],
      "name": "createDao",
      "outputs": [],
      "stateMutability": "nonpayable",
      "type": "function"
    },
    {
      "inputs": [
        {
          "internalType": "string",
          "name": "tokenURI",
          "type": "string"
        },
        {
          "internalType": "uint256",
          "name": "_daoId",
          "type": "uint256"
        },
        {
          "internalType": "string",
          "name": "_metadata",
          "type": "string"
        },
        {
          "internalType": "string",
          "name": "_image",
          "type": "string"
        }
      ],
      "name": "createUserNft",
      "outputs": [
        {
          "internalType": "uint256",
          "name": "",
          "type": "uint256"
        }
      ],
      "stateMutability": "nonpayable",
      "type": "function"
    },
    {
      "inputs": [],
      "name": "getAllDaos",
      "outputs": [
        {
          "components": [
            {
              "internalType": "uint256",
              "name": "daoId",
              "type": "uint256"
            },
            {
              "internalType": "string",
              "name": "name",
              "type": "string"
            },
            {
              "internalType": "string",
              "name": "description",
              "type": "string"
            },
            {
              "internalType": "string",
              "name": "jsoninfo",
              "type": "string"
            },
            {
              "internalType": "string",
              "name": "image",
              "type": "string"
            }
          ],
          "internalType": "struct STCDao.Dao[]",
          "name": "",
          "type": "tuple[]"
        }
      ],
      "stateMutability": "view",
      "type": "function"
    },
    {
      "inputs": [
        {
          "internalType": "uint256",
          "name": "tokenId",
          "type": "uint256"
        }
      ],
      "name": "getApproved",
      "outputs": [
        {
          "internalType": "address",
          "name": "",
          "type": "address"
        }
      ],
      "stateMutability": "view",
      "type": "function"
    },
    {
      "inputs": [
        {
          "internalType": "uint256",
          "name": "daoId",
          "type": "uint256"
        }
      ],
      "name": "getDao",
      "outputs": [
        {
          "components": [
            {
              "internalType": "uint256",
              "name": "daoId",
              "type": "uint256"
            },
            {
              "internalType": "string",
              "name": "name",
              "type": "string"
            },
            {
              "internalType": "string",
              "name": "description",
              "type": "string"
            },
            {
              "internalType": "string",
              "name": "jsoninfo",
              "type": "string"
            },
            {
              "internalType": "string",
              "name": "image",
              "type": "string"
            }
          ],
          "internalType": "struct STCDao.Dao",
          "name": "",
          "type": "tuple"
        }
      ],
      "stateMutability": "view",
      "type": "function"
    },
    {
      "inputs": [],
      "name": "getUserAllNft",
      "outputs": [
        {
          "components": [
            {
              "internalType": "uint256",
              "name": "tokenId",
              "type": "uint256"
            },
            {
              "internalType": "uint256",
              "name": "daoId",
              "type": "uint256"
            },
            {
              "internalType": "address",
              "name": "user",
              "type": "address"
            },
            {
              "internalType": "string",
              "name": "metadata",
              "type": "string"
            },
            {
              "internalType": "string",
              "name": "image",
              "type": "string"
            }
          ],
          "internalType": "struct STCDao.Soul[]",
          "name": "",
          "type": "tuple[]"
        }
      ],
      "stateMutability": "view",
      "type": "function"
    },
    {
      "inputs": [
        {
          "internalType": "uint256",
          "name": "daoId",
          "type": "uint256"
        }
      ],
      "name": "getUserNft",
      "outputs": [
        {
          "components": [
            {
              "internalType": "uint256",
              "name": "tokenId",
              "type": "uint256"
            },
            {
              "internalType": "uint256",
              "name": "daoId",
              "type": "uint256"
            },
            {
              "internalType": "address",
              "name": "user",
              "type": "address"
            },
            {
              "internalType": "string",
              "name": "metadata",
              "type": "string"
            },
            {
              "internalType": "string",
              "name": "image",
              "type": "string"
            }
          ],
          "internalType": "struct STCDao.Soul",
          "name": "",
          "type": "tuple"
        },
        {
          "internalType": "bool",
          "name": "",
          "type": "bool"
        }
      ],
      "stateMutability": "view",
      "type": "function"
    },
    {
      "inputs": [
        {
          "internalType": "uint256",
          "name": "",
          "type": "uint256"
        }
      ],
      "name": "idToDao",
      "outputs": [
        {
          "internalType": "uint256",
          "name": "daoId",
          "type": "uint256"
        },
        {
          "internalType": "string",
          "name": "name",
          "type": "string"
        },
        {
          "internalType": "string",
          "name": "description",
          "type": "string"
        },
        {
          "internalType": "string",
          "name": "jsoninfo",
          "type": "string"
        },
        {
          "internalType": "string",
          "name": "image",
          "type": "string"
        }
      ],
      "stateMutability": "view",
      "type": "function"
    },
    {
      "inputs": [
        {
          "internalType": "address",
          "name": "owner",
          "type": "address"
        },
        {
          "internalType": "address",
          "name": "operator",
          "type": "address"
        }
      ],
      "name": "isApprovedForAll",
      "outputs": [
        {
          "internalType": "bool",
          "name": "",
          "type": "bool"
        }
      ],
      "stateMutability": "view",
      "type": "function"
    },
    {
      "inputs": [],
      "name": "name",
      "outputs": [
        {
          "internalType": "string",
          "name": "",
          "type": "string"
        }
      ],
      "stateMutability": "view",
      "type": "function"
    },
    {
      "inputs": [
        {
          "internalType": "uint256",
          "name": "tokenId",
          "type": "uint256"
        }
      ],
      "name": "ownerOf",
      "outputs": [
        {
          "internalType": "address",
          "name": "",
          "type": "address"
        }
      ],
      "stateMutability": "view",
      "type": "function"
    },
    {
      "inputs": [
        {
          "internalType": "address",
          "name": "from",
          "type": "address"
        },
        {
          "internalType": "address",
          "name": "to",
          "type": "address"
        },
        {
          "internalType": "uint256",
          "name": "tokenId",
          "type": "uint256"
        }
      ],
      "name": "safeTransferFrom",
      "outputs": [],
      "stateMutability": "nonpayable",
      "type": "function"
    },
    {
      "inputs": [
        {
          "internalType": "address",
          "name": "from",
          "type": "address"
        },
        {
          "internalType": "address",
          "name": "to",
          "type": "address"
        },
        {
          "internalType": "uint256",
          "name": "tokenId",
          "type": "uint256"
        },
        {
          "internalType": "bytes",
          "name": "data",
          "type": "bytes"
        }
      ],
      "name": "safeTransferFrom",
      "outputs": [],
      "stateMutability": "nonpayable",
      "type": "function"
    },
    {
      "inputs": [
        {
          "internalType": "address",
          "name": "operator",
          "type": "address"
        },
        {
          "internalType": "bool",
          "name": "approved",
          "type": "bool"
        }
      ],
      "name": "setApprovalForAll",
      "outputs": [],
      "stateMutability": "nonpayable",
      "type": "function"
    },
    {
      "inputs": [
        {
          "internalType": "bytes4",
          "name": "interfaceId",
          "type": "bytes4"
        }
      ],
      "name": "supportsInterface",
      "outputs": [
        {
          "internalType": "bool",
          "name": "",
          "type": "bool"
        }
      ],
      "stateMutability": "view",
      "type": "function"
    },
    {
      "inputs": [],
      "name": "symbol",
      "outputs": [
        {
          "internalType": "string",
          "name": "",
          "type": "string"
        }
      ],
      "stateMutability": "view",
      "type": "function"
    },
    {
      "inputs": [
        {
          "internalType": "uint256",
          "name": "tokenId",
          "type": "uint256"
        }
      ],
      "name": "tokenURI",
      "outputs": [
        {
          "internalType": "string",
          "name": "",
          "type": "string"
        }
      ],
      "stateMutability": "view",
      "type": "function"
    },
    {
      "inputs": [
        {
          "internalType": "address",
          "name": "from",
          "type": "address"
        },
        {
          "internalType": "address",
          "name": "to",
          "type": "address"
        },
        {
          "internalType": "uint256",
          "name": "tokenId",
          "type": "uint256"
        }
      ],
      "name": "transferFrom",
      "outputs": [],
      "stateMutability": "nonpayable",
      "type": "function"
    },
    {
      "inputs": [
        {
          "internalType": "address",
          "name": "",
          "type": "address"
        }
      ],
      "name": "userSoulCount",
      "outputs": [
        {
          "internalType": "uint256",
          "name": "",
          "type": "uint256"
        }
      ],
      "stateMutability": "view",
      "type": "function"
    },
    {
      "inputs": [
        {
          "internalType": "address",
          "name": "",
          "type": "address"
        },
        {
          "internalType": "uint256",
          "name": "",
          "type": "uint256"
        }
      ],
      "name": "userSoulIds",
      "outputs": [
        {
          "internalType": "uint256",
          "name": "",
          "type": "uint256"
        }
      ],
      "stateMutability": "view",
      "type": "function"
    }
  ],
  "bytecode": "0x60806040523480156200001157600080fd5b506040518060400160405280600681526020017f53544344616f00000000000000000000000000000000000000000000000000008152506040518060400160405280600481526020017f5354434e0000000000000000000000000000000000000000000000000000000081525081600090816200008f919062000324565b508060019081620000a1919062000324565b5050506200040b565b600081519050919050565b7f4e487b7100000000000000000000000000000000000000000000000000000000600052604160045260246000fd5b7f4e487b7100000000000000000000000000000000000000000000000000000000600052602260045260246000fd5b600060028204905060018216806200012c57607f821691505b602082108103620001425762000141620000e4565b5b50919050565b60008190508160005260206000209050919050565b60006020601f8301049050919050565b600082821b905092915050565b600060088302620001ac7fffffffffffffffffffffffffffffffffffffffffffffffffffffffffffffffff826200016d565b620001b886836200016d565b95508019841693508086168417925050509392505050565b6000819050919050565b6000819050919050565b600062000205620001ff620001f984620001d0565b620001da565b620001d0565b9050919050565b6000819050919050565b6200022183620001e4565b6200023962000230826200020c565b8484546200017a565b825550505050565b600090565b6200025062000241565b6200025d81848462000216565b505050565b5b8181101562000285576200027960008262000246565b60018101905062000263565b5050565b601f821115620002d4576200029e8162000148565b620002a9846200015d565b81016020851015620002b9578190505b620002d1620002c8856200015d565b83018262000262565b50505b505050565b600082821c905092915050565b6000620002f960001984600802620002d9565b1980831691505092915050565b6000620003148383620002e6565b9150826002028217905092915050565b6200032f82620000aa565b67ffffffffffffffff8111156200034b576200034a620000b5565b5b62000357825462000113565b6200036482828562000289565b600060209050601f8311600181146200039c576000841562000387578287015190505b62000393858262000306565b86555062000403565b601f198416620003ac8662000148565b60005b82811015620003d657848901518255600182019150602085019450602081019050620003af565b86831015620003f65784890151620003f2601f891682620002e6565b8355505b6001600288020188555050505b505050505050565b614438806200041b6000396000f3fe608060405234801561001057600080fd5b50600436106101425760003560e01c806370a08231116100b8578063aa5b6d4c1161007c578063aa5b6d4c146103ae578063aceb6d5e146103cc578063b88d4fde14610400578063c87b56dd1461041c578063e985e9c51461044c578063ea8a10cf1461047c57610142565b806370a08231146102e457806395d89b4114610314578063a07b57f614610332578063a22cb46514610362578063a36c530e1461037e57610142565b806323b872dd1161010a57806323b872dd146101fd57806337f24c0e1461021957806342842e0e14610237578063520dc745146102535780635e92fe92146102845780636352211e146102b457610142565b806301ffc9a71461014757806306fdde0314610177578063081812fc14610195578063095ea7b3146101c55780631b44c40e146101e1575b600080fd5b610161600480360381019061015c9190612c16565b6104ac565b60405161016e9190612c5e565b60405180910390f35b61017f61058e565b60405161018c9190612d09565b60405180910390f35b6101af60048036038101906101aa9190612d61565b610620565b6040516101bc9190612dcf565b60405180910390f35b6101df60048036038101906101da9190612e16565b610666565b005b6101fb60048036038101906101f69190612f8b565b61077d565b005b61021760048036038101906102129190613062565b61083b565b005b61022161089b565b60405161022e919061325c565b60405180910390f35b610251600480360381019061024c9190613062565b610b88565b005b61026d60048036038101906102689190612d61565b610ba8565b60405161027b9291906132fb565b60405180910390f35b61029e6004803603810190610299919061332b565b610eb8565b6040516102ab9190613367565b60405180910390f35b6102ce60048036038101906102c99190612d61565b610ed0565b6040516102db9190612dcf565b60405180910390f35b6102fe60048036038101906102f9919061332b565b610f56565b60405161030b9190613367565b60405180910390f35b61031c61100d565b6040516103299190612d09565b60405180910390f35b61034c60048036038101906103479190612d61565b61109f565b604051610359919061340d565b60405180910390f35b61037c6004803603810190610377919061345b565b61131e565b005b6103986004803603810190610393919061349b565b611334565b6040516103a59190613367565b60405180910390f35b6103b661153c565b6040516103c391906136a3565b60405180910390f35b6103e660048036038101906103e19190612d61565b611859565b6040516103f79594939291906136c5565b60405180910390f35b61041a600480360381019061041591906137d5565b611aaf565b005b61043660048036038101906104319190612d61565b611b11565b6040516104439190612d09565b60405180910390f35b61046660048036038101906104619190613858565b611c23565b6040516104739190612c5e565b60405180910390f35b61049660048036038101906104919190612e16565b611cb7565b6040516104a39190613367565b60405180910390f35b60007f80ac58cd000000000000000000000000000000000000000000000000000000007bffffffffffffffffffffffffffffffffffffffffffffffffffffffff1916827bffffffffffffffffffffffffffffffffffffffffffffffffffffffff1916148061057757507f5b5e139f000000000000000000000000000000000000000000000000000000007bffffffffffffffffffffffffffffffffffffffffffffffffffffffff1916827bffffffffffffffffffffffffffffffffffffffffffffffffffffffff1916145b80610587575061058682611ce8565b5b9050919050565b60606000805461059d906138c7565b80601f01602080910402602001604051908101604052809291908181526020018280546105c9906138c7565b80156106165780601f106105eb57610100808354040283529160200191610616565b820191906000526020600020905b8154815290600101906020018083116105f957829003601f168201915b5050505050905090565b600061062b82611d52565b6004600083815260200190815260200160002060009054906101000a900473ffffffffffffffffffffffffffffffffffffffff169050919050565b600061067182610ed0565b90508073ffffffffffffffffffffffffffffffffffffffff168373ffffffffffffffffffffffffffffffffffffffff16036106e1576040517f08c379a00000000000000000000000000000000000000000000000000000000081526004016106d89061396a565b60405180910390fd5b8073ffffffffffffffffffffffffffffffffffffffff16610700611d9d565b73ffffffffffffffffffffffffffffffffffffffff16148061072f575061072e81610729611d9d565b611c23565b5b61076e576040517f08c379a0000000000000000000000000000000000000000000000000000000008152600401610765906139fc565b60405180910390fd5b6107788383611da5565b505050565b60006107896007611e5e565b90506107956007611e6c565b6040518060a0016040528082815260200186815260200185815260200184815260200183815250600960008381526020019081526020016000206000820151816000015560208201518160010190816107ee9190613bc8565b5060408201518160020190816108049190613bc8565b50606082015181600301908161081a9190613bc8565b5060808201518160040190816108309190613bc8565b509050505050505050565b61084c610846611d9d565b82611e82565b61088b576040517f08c379a000000000000000000000000000000000000000000000000000000000815260040161088290613d0c565b60405180910390fd5b610896838383611f17565b505050565b60606000600b60003373ffffffffffffffffffffffffffffffffffffffff1673ffffffffffffffffffffffffffffffffffffffff16815260200190815260200160002080549050905060008167ffffffffffffffff811115610900576108ff612e60565b5b60405190808252806020026020018201604052801561093957816020015b610926612b36565b81526020019060019003908161091e5790505b50905060005b82811015610b7f57600a6000600b60003373ffffffffffffffffffffffffffffffffffffffff1673ffffffffffffffffffffffffffffffffffffffff168152602001908152602001600020838154811061099c5761099b613d2c565b5b906000526020600020015481526020019081526020016000206040518060a001604052908160008201548152602001600182015481526020016002820160009054906101000a900473ffffffffffffffffffffffffffffffffffffffff1673ffffffffffffffffffffffffffffffffffffffff1673ffffffffffffffffffffffffffffffffffffffff168152602001600382018054610a3a906138c7565b80601f0160208091040260200160405190810160405280929190818152602001828054610a66906138c7565b8015610ab35780601f10610a8857610100808354040283529160200191610ab3565b820191906000526020600020905b815481529060010190602001808311610a9657829003601f168201915b50505050508152602001600482018054610acc906138c7565b80601f0160208091040260200160405190810160405280929190818152602001828054610af8906138c7565b8015610b455780601f10610b1a57610100808354040283529160200191610b45565b820191906000526020600020905b815481529060010190602001808311610b2857829003601f168201915b505050505081525050828281518110610b6157610b60613d2c565b5b60200260200101819052508080610b7790613d8a565b91505061093f565b50809250505090565b610ba383838360405180602001604052806000815250611aaf565b505050565b610bb0612b36565b6000610bba612b36565b60005b600b60003373ffffffffffffffffffffffffffffffffffffffff1673ffffffffffffffffffffffffffffffffffffffff16815260200190815260200160002080549050811015610ea95784600a6000600b60003373ffffffffffffffffffffffffffffffffffffffff1673ffffffffffffffffffffffffffffffffffffffff1681526020019081526020016000208481548110610c5d57610c5c613d2c565b5b906000526020600020015481526020019081526020016000206001015403610e9657600a6000600b60003373ffffffffffffffffffffffffffffffffffffffff1673ffffffffffffffffffffffffffffffffffffffff1681526020019081526020016000208381548110610cd457610cd3613d2c565b5b906000526020600020015481526020019081526020016000206001816040518060a001604052908160008201548152602001600182015481526020016002820160009054906101000a900473ffffffffffffffffffffffffffffffffffffffff1673ffffffffffffffffffffffffffffffffffffffff1673ffffffffffffffffffffffffffffffffffffffff168152602001600382018054610d75906138c7565b80601f0160208091040260200160405190810160405280929190818152602001828054610da1906138c7565b8015610dee5780601f10610dc357610100808354040283529160200191610dee565b820191906000526020600020905b815481529060010190602001808311610dd157829003601f168201915b50505050508152602001600482018054610e07906138c7565b80601f0160208091040260200160405190810160405280929190818152602001828054610e33906138c7565b8015610e805780601f10610e5557610100808354040283529160200191610e80565b820191906000526020600020905b815481529060010190602001808311610e6357829003601f168201915b5050505050815250509150935093505050610eb3565b8080610ea190613d8a565b915050610bbd565b5080600092509250505b915091565b600c6020528060005260406000206000915090505481565b600080610edc83612210565b9050600073ffffffffffffffffffffffffffffffffffffffff168173ffffffffffffffffffffffffffffffffffffffff1603610f4d576040517f08c379a0000000000000000000000000000000000000000000000000000000008152600401610f4490613e1e565b60405180910390fd5b80915050919050565b60008073ffffffffffffffffffffffffffffffffffffffff168273ffffffffffffffffffffffffffffffffffffffff1603610fc6576040517f08c379a0000000000000000000000000000000000000000000000000000000008152600401610fbd90613eb0565b60405180910390fd5b600360008373ffffffffffffffffffffffffffffffffffffffff1673ffffffffffffffffffffffffffffffffffffffff168152602001908152602001600020549050919050565b60606001805461101c906138c7565b80601f0160208091040260200160405190810160405280929190818152602001828054611048906138c7565b80156110955780601f1061106a57610100808354040283529160200191611095565b820191906000526020600020905b81548152906001019060200180831161107857829003601f168201915b5050505050905090565b6110a7612b7b565b600960008381526020019081526020016000206040518060a0016040529081600082015481526020016001820180546110df906138c7565b80601f016020809104026020016040519081016040528092919081815260200182805461110b906138c7565b80156111585780601f1061112d57610100808354040283529160200191611158565b820191906000526020600020905b81548152906001019060200180831161113b57829003601f168201915b50505050508152602001600282018054611171906138c7565b80601f016020809104026020016040519081016040528092919081815260200182805461119d906138c7565b80156111ea5780601f106111bf576101008083540402835291602001916111ea565b820191906000526020600020905b8154815290600101906020018083116111cd57829003601f168201915b50505050508152602001600382018054611203906138c7565b80601f016020809104026020016040519081016040528092919081815260200182805461122f906138c7565b801561127c5780601f106112515761010080835404028352916020019161127c565b820191906000526020600020905b81548152906001019060200180831161125f57829003601f168201915b50505050508152602001600482018054611295906138c7565b80601f01602080910402602001604051908101604052809291908181526020018280546112c1906138c7565b801561130e5780601f106112e35761010080835404028352916020019161130e565b820191906000526020600020905b8154815290600101906020018083116112f157829003601f168201915b5050505050815250509050919050565b611330611329611d9d565b838361224d565b5050565b6000806113416008611e5e565b905061134d6008611e6c565b61135733826123b9565b61136181876125d6565b6040518060a001604052808281526020018681526020013373ffffffffffffffffffffffffffffffffffffffff16815260200185815260200184815250600a6000838152602001908152602001600020600082015181600001556020820151816001015560408201518160020160006101000a81548173ffffffffffffffffffffffffffffffffffffffff021916908373ffffffffffffffffffffffffffffffffffffffff16021790555060608201518160030190816114219190613bc8565b5060808201518160040190816114379190613bc8565b50905050600b60003373ffffffffffffffffffffffffffffffffffffffff1673ffffffffffffffffffffffffffffffffffffffff1681526020019081526020016000208190806001815401808255809150506001900390600052602060002001600090919091909150556001600c60003373ffffffffffffffffffffffffffffffffffffffff1673ffffffffffffffffffffffffffffffffffffffff168152602001908152602001600020546114ed9190613ed0565b600c60003373ffffffffffffffffffffffffffffffffffffffff1673ffffffffffffffffffffffffffffffffffffffff1681526020019081526020016000208190555080915050949350505050565b6060600061154a6007611e5e565b905060008167ffffffffffffffff81111561156857611567612e60565b5b6040519080825280602002602001820160405280156115a157816020015b61158e612b7b565b8152602001906001900390816115865790505b50905060005b8281101561185057600960008281526020019081526020016000206040518060a0016040529081600082015481526020016001820180546115e7906138c7565b80601f0160208091040260200160405190810160405280929190818152602001828054611613906138c7565b80156116605780601f1061163557610100808354040283529160200191611660565b820191906000526020600020905b81548152906001019060200180831161164357829003601f168201915b50505050508152602001600282018054611679906138c7565b80601f01602080910402602001604051908101604052809291908181526020018280546116a5906138c7565b80156116f25780601f106116c7576101008083540402835291602001916116f2565b820191906000526020600020905b8154815290600101906020018083116116d557829003601f168201915b5050505050815260200160038201805461170b906138c7565b80601f0160208091040260200160405190810160405280929190818152602001828054611737906138c7565b80156117845780601f1061175957610100808354040283529160200191611784565b820191906000526020600020905b81548152906001019060200180831161176757829003601f168201915b5050505050815260200160048201805461179d906138c7565b80601f01602080910402602001604051908101604052809291908181526020018280546117c9906138c7565b80156118165780601f106117eb57610100808354040283529160200191611816565b820191906000526020600020905b8154815290600101906020018083116117f957829003601f168201915b50505050508152505082828151811061183257611831613d2c565b5b6020026020010181905250808061184890613d8a565b9150506115a7565b50809250505090565b6009602052806000526040600020600091509050806000015490806001018054611882906138c7565b80601f01602080910402602001604051908101604052809291908181526020018280546118ae906138c7565b80156118fb5780601f106118d0576101008083540402835291602001916118fb565b820191906000526020600020905b8154815290600101906020018083116118de57829003601f168201915b505050505090806002018054611910906138c7565b80601f016020809104026020016040519081016040528092919081815260200182805461193c906138c7565b80156119895780601f1061195e57610100808354040283529160200191611989565b820191906000526020600020905b81548152906001019060200180831161196c57829003601f168201915b50505050509080600301805461199e906138c7565b80601f01602080910402602001604051908101604052809291908181526020018280546119ca906138c7565b8015611a175780601f106119ec57610100808354040283529160200191611a17565b820191906000526020600020905b8154815290600101906020018083116119fa57829003601f168201915b505050505090806004018054611a2c906138c7565b80601f0160208091040260200160405190810160405280929190818152602001828054611a58906138c7565b8015611aa55780601f10611a7a57610100808354040283529160200191611aa5565b820191906000526020600020905b815481529060010190602001808311611a8857829003601f168201915b5050505050905085565b611ac0611aba611d9d565b83611e82565b611aff576040517f08c379a0000000000000000000000000000000000000000000000000000000008152600401611af690613d0c565b60405180910390fd5b611b0b84848484612643565b50505050565b6060611b1c82611d52565b6000600660008481526020019081526020016000208054611b3c906138c7565b80601f0160208091040260200160405190810160405280929190818152602001828054611b68906138c7565b8015611bb55780601f10611b8a57610100808354040283529160200191611bb5565b820191906000526020600020905b815481529060010190602001808311611b9857829003601f168201915b505050505090506000611bc661269f565b90506000815103611bdb578192505050611c1e565b600082511115611c10578082604051602001611bf8929190613f40565b60405160208183030381529060405292505050611c1e565b611c19846126b6565b925050505b919050565b6000600560008473ffffffffffffffffffffffffffffffffffffffff1673ffffffffffffffffffffffffffffffffffffffff16815260200190815260200160002060008373ffffffffffffffffffffffffffffffffffffffff1673ffffffffffffffffffffffffffffffffffffffff16815260200190815260200160002060009054906101000a900460ff16905092915050565b600b6020528160005260406000208181548110611cd357600080fd5b90600052602060002001600091509150505481565b60007f01ffc9a7000000000000000000000000000000000000000000000000000000007bffffffffffffffffffffffffffffffffffffffffffffffffffffffff1916827bffffffffffffffffffffffffffffffffffffffffffffffffffffffff1916149050919050565b611d5b8161271e565b611d9a576040517f08c379a0000000000000000000000000000000000000000000000000000000008152600401611d9190613e1e565b60405180910390fd5b50565b600033905090565b816004600083815260200190815260200160002060006101000a81548173ffffffffffffffffffffffffffffffffffffffff021916908373ffffffffffffffffffffffffffffffffffffffff160217905550808273ffffffffffffffffffffffffffffffffffffffff16611e1883610ed0565b73ffffffffffffffffffffffffffffffffffffffff167f8c5be1e5ebec7d5bd14f71427d1e84f3dd0314c0f7b2291e5b200ac8c7c3b92560405160405180910390a45050565b600081600001549050919050565b6001816000016000828254019250508190555050565b600080611e8e83610ed0565b90508073ffffffffffffffffffffffffffffffffffffffff168473ffffffffffffffffffffffffffffffffffffffff161480611ed05750611ecf8185611c23565b5b80611f0e57508373ffffffffffffffffffffffffffffffffffffffff16611ef684610620565b73ffffffffffffffffffffffffffffffffffffffff16145b91505092915050565b8273ffffffffffffffffffffffffffffffffffffffff16611f3782610ed0565b73ffffffffffffffffffffffffffffffffffffffff1614611f8d576040517f08c379a0000000000000000000000000000000000000000000000000000000008152600401611f8490613fd6565b60405180910390fd5b600073ffffffffffffffffffffffffffffffffffffffff168273ffffffffffffffffffffffffffffffffffffffff1603611ffc576040517f08c379a0000000000000000000000000000000000000000000000000000000008152600401611ff390614068565b60405180910390fd5b612009838383600161275f565b8273ffffffffffffffffffffffffffffffffffffffff1661202982610ed0565b73ffffffffffffffffffffffffffffffffffffffff161461207f576040517f08c379a000000000000000000000000000000000000000000000000000000000815260040161207690613fd6565b60405180910390fd5b6004600082815260200190815260200160002060006101000a81549073ffffffffffffffffffffffffffffffffffffffff02191690556001600360008573ffffffffffffffffffffffffffffffffffffffff1673ffffffffffffffffffffffffffffffffffffffff168152602001908152602001600020600082825403925050819055506001600360008473ffffffffffffffffffffffffffffffffffffffff1673ffffffffffffffffffffffffffffffffffffffff16815260200190815260200160002060008282540192505081905550816002600083815260200190815260200160002060006101000a81548173ffffffffffffffffffffffffffffffffffffffff021916908373ffffffffffffffffffffffffffffffffffffffff160217905550808273ffffffffffffffffffffffffffffffffffffffff168473ffffffffffffffffffffffffffffffffffffffff167fddf252ad1be2c89b69c2b068fc378daa952ba7f163c4a11628f55a4df523b3ef60405160405180910390a461220b8383836001612765565b505050565b60006002600083815260200190815260200160002060009054906101000a900473ffffffffffffffffffffffffffffffffffffffff169050919050565b8173ffffffffffffffffffffffffffffffffffffffff168373ffffffffffffffffffffffffffffffffffffffff16036122bb576040517f08c379a00000000000000000000000000000000000000000000000000000000081526004016122b2906140d4565b60405180910390fd5b80600560008573ffffffffffffffffffffffffffffffffffffffff1673ffffffffffffffffffffffffffffffffffffffff16815260200190815260200160002060008473ffffffffffffffffffffffffffffffffffffffff1673ffffffffffffffffffffffffffffffffffffffff16815260200190815260200160002060006101000a81548160ff0219169083151502179055508173ffffffffffffffffffffffffffffffffffffffff168373ffffffffffffffffffffffffffffffffffffffff167f17307eab39ab6107e8899845ad3d59bd9653f200f220920489ca2b5937696c31836040516123ac9190612c5e565b60405180910390a3505050565b600073ffffffffffffffffffffffffffffffffffffffff168273ffffffffffffffffffffffffffffffffffffffff1603612428576040517f08c379a000000000000000000000000000000000000000000000000000000000815260040161241f90614140565b60405180910390fd5b6124318161271e565b15612471576040517f08c379a0000000000000000000000000000000000000000000000000000000008152600401612468906141ac565b60405180910390fd5b61247f60008383600161275f565b6124888161271e565b156124c8576040517f08c379a00000000000000000000000000000000000000000000000000000000081526004016124bf906141ac565b60405180910390fd5b6001600360008473ffffffffffffffffffffffffffffffffffffffff1673ffffffffffffffffffffffffffffffffffffffff16815260200190815260200160002060008282540192505081905550816002600083815260200190815260200160002060006101000a81548173ffffffffffffffffffffffffffffffffffffffff021916908373ffffffffffffffffffffffffffffffffffffffff160217905550808273ffffffffffffffffffffffffffffffffffffffff16600073ffffffffffffffffffffffffffffffffffffffff167fddf252ad1be2c89b69c2b068fc378daa952ba7f163c4a11628f55a4df523b3ef60405160405180910390a46125d2600083836001612765565b5050565b6125df8261271e565b61261e576040517f08c379a00000000000000000000000000000000000000000000000000000000081526004016126159061423e565b60405180910390fd5b8060066000848152602001908152602001600020908161263e9190613bc8565b505050565b61264e848484611f17565b61265a8484848461276b565b612699576040517f08c379a0000000000000000000000000000000000000000000000000000000008152600401612690906142d0565b60405180910390fd5b50505050565b606060405180602001604052806000815250905090565b60606126c182611d52565b60006126cb61269f565b905060008151116126eb5760405180602001604052806000815250612716565b806126f5846128f2565b604051602001612706929190613f40565b6040516020818303038152906040525b915050919050565b60008073ffffffffffffffffffffffffffffffffffffffff1661274083612210565b73ffffffffffffffffffffffffffffffffffffffff1614159050919050565b50505050565b50505050565b600061278c8473ffffffffffffffffffffffffffffffffffffffff166129c0565b156128e5578373ffffffffffffffffffffffffffffffffffffffff1663150b7a026127b5611d9d565b8786866040518563ffffffff1660e01b81526004016127d79493929190614345565b6020604051808303816000875af192505050801561281357506040513d601f19601f8201168201806040525081019061281091906143a6565b60015b612895573d8060008114612843576040519150601f19603f3d011682016040523d82523d6000602084013e612848565b606091505b50600081510361288d576040517f08c379a0000000000000000000000000000000000000000000000000000000008152600401612884906142d0565b60405180910390fd5b805181602001fd5b63150b7a0260e01b7bffffffffffffffffffffffffffffffffffffffffffffffffffffffff1916817bffffffffffffffffffffffffffffffffffffffffffffffffffffffff1916149150506128ea565b600190505b949350505050565b606060006001612901846129e3565b01905060008167ffffffffffffffff8111156129205761291f612e60565b5b6040519080825280601f01601f1916602001820160405280156129525781602001600182028036833780820191505090505b509050600082602001820190505b6001156129b5578080600190039150507f3031323334353637383961626364656600000000000000000000000000000000600a86061a8153600a85816129a9576129a86143d3565b5b04945060008503612960575b819350505050919050565b6000808273ffffffffffffffffffffffffffffffffffffffff163b119050919050565b600080600090507a184f03e93ff9f4daa797ed6e38ed64bf6a1f0100000000000000008310612a41577a184f03e93ff9f4daa797ed6e38ed64bf6a1f0100000000000000008381612a3757612a366143d3565b5b0492506040810190505b6d04ee2d6d415b85acef81000000008310612a7e576d04ee2d6d415b85acef81000000008381612a7457612a736143d3565b5b0492506020810190505b662386f26fc100008310612aad57662386f26fc100008381612aa357612aa26143d3565b5b0492506010810190505b6305f5e1008310612ad6576305f5e1008381612acc57612acb6143d3565b5b0492506008810190505b6127108310612afb576127108381612af157612af06143d3565b5b0492506004810190505b60648310612b1e5760648381612b1457612b136143d3565b5b0492506002810190505b600a8310612b2d576001810190505b80915050919050565b6040518060a001604052806000815260200160008152602001600073ffffffffffffffffffffffffffffffffffffffff16815260200160608152602001606081525090565b6040518060a0016040528060008152602001606081526020016060815260200160608152602001606081525090565b6000604051905090565b600080fd5b600080fd5b60007fffffffff0000000000000000000000000000000000000000000000000000000082169050919050565b612bf381612bbe565b8114612bfe57600080fd5b50565b600081359050612c1081612bea565b92915050565b600060208284031215612c2c57612c2b612bb4565b5b6000612c3a84828501612c01565b91505092915050565b60008115159050919050565b612c5881612c43565b82525050565b6000602082019050612c736000830184612c4f565b92915050565b600081519050919050565b600082825260208201905092915050565b60005b83811015612cb3578082015181840152602081019050612c98565b60008484015250505050565b6000601f19601f8301169050919050565b6000612cdb82612c79565b612ce58185612c84565b9350612cf5818560208601612c95565b612cfe81612cbf565b840191505092915050565b60006020820190508181036000830152612d238184612cd0565b905092915050565b6000819050919050565b612d3e81612d2b565b8114612d4957600080fd5b50565b600081359050612d5b81612d35565b92915050565b600060208284031215612d7757612d76612bb4565b5b6000612d8584828501612d4c565b91505092915050565b600073ffffffffffffffffffffffffffffffffffffffff82169050919050565b6000612db982612d8e565b9050919050565b612dc981612dae565b82525050565b6000602082019050612de46000830184612dc0565b92915050565b612df381612dae565b8114612dfe57600080fd5b50565b600081359050612e1081612dea565b92915050565b60008060408385031215612e2d57612e2c612bb4565b5b6000612e3b85828601612e01565b9250506020612e4c85828601612d4c565b9150509250929050565b600080fd5b600080fd5b7f4e487b7100000000000000000000000000000000000000000000000000000000600052604160045260246000fd5b612e9882612cbf565b810181811067ffffffffffffffff82111715612eb757612eb6612e60565b5b80604052505050565b6000612eca612baa565b9050612ed68282612e8f565b919050565b600067ffffffffffffffff821115612ef657612ef5612e60565b5b612eff82612cbf565b9050602081019050919050565b82818337600083830152505050565b6000612f2e612f2984612edb565b612ec0565b905082815260208101848484011115612f4a57612f49612e5b565b5b612f55848285612f0c565b509392505050565b600082601f830112612f7257612f71612e56565b5b8135612f82848260208601612f1b565b91505092915050565b60008060008060808587031215612fa557612fa4612bb4565b5b600085013567ffffffffffffffff811115612fc357612fc2612bb9565b5b612fcf87828801612f5d565b945050602085013567ffffffffffffffff811115612ff057612fef612bb9565b5b612ffc87828801612f5d565b935050604085013567ffffffffffffffff81111561301d5761301c612bb9565b5b61302987828801612f5d565b925050606085013567ffffffffffffffff81111561304a57613049612bb9565b5b61305687828801612f5d565b91505092959194509250565b60008060006060848603121561307b5761307a612bb4565b5b600061308986828701612e01565b935050602061309a86828701612e01565b92505060406130ab86828701612d4c565b9150509250925092565b600081519050919050565b600082825260208201905092915050565b6000819050602082019050919050565b6130ea81612d2b565b82525050565b6130f981612dae565b82525050565b600082825260208201905092915050565b600061311b82612c79565b61312581856130ff565b9350613135818560208601612c95565b61313e81612cbf565b840191505092915050565b600060a08301600083015161316160008601826130e1565b50602083015161317460208601826130e1565b50604083015161318760408601826130f0565b506060830151848203606086015261319f8282613110565b915050608083015184820360808601526131b98282613110565b9150508091505092915050565b60006131d28383613149565b905092915050565b6000602082019050919050565b60006131f2826130b5565b6131fc81856130c0565b93508360208202850161320e856130d1565b8060005b8581101561324a578484038952815161322b85826131c6565b9450613236836131da565b925060208a01995050600181019050613212565b50829750879550505050505092915050565b6000602082019050818103600083015261327681846131e7565b905092915050565b600060a08301600083015161329660008601826130e1565b5060208301516132a960208601826130e1565b5060408301516132bc60408601826130f0565b50606083015184820360608601526132d48282613110565b915050608083015184820360808601526132ee8282613110565b9150508091505092915050565b60006040820190508181036000830152613315818561327e565b90506133246020830184612c4f565b9392505050565b60006020828403121561334157613340612bb4565b5b600061334f84828501612e01565b91505092915050565b61336181612d2b565b82525050565b600060208201905061337c6000830184613358565b92915050565b600060a08301600083015161339a60008601826130e1565b50602083015184820360208601526133b28282613110565b915050604083015184820360408601526133cc8282613110565b915050606083015184820360608601526133e68282613110565b915050608083015184820360808601526134008282613110565b9150508091505092915050565b600060208201905081810360008301526134278184613382565b905092915050565b61343881612c43565b811461344357600080fd5b50565b6000813590506134558161342f565b92915050565b6000806040838503121561347257613471612bb4565b5b600061348085828601612e01565b925050602061349185828601613446565b9150509250929050565b600080600080608085870312156134b5576134b4612bb4565b5b600085013567ffffffffffffffff8111156134d3576134d2612bb9565b5b6134df87828801612f5d565b94505060206134f087828801612d4c565b935050604085013567ffffffffffffffff81111561351157613510612bb9565b5b61351d87828801612f5d565b925050606085013567ffffffffffffffff81111561353e5761353d612bb9565b5b61354a87828801612f5d565b91505092959194509250565b600081519050919050565b600082825260208201905092915050565b6000819050602082019050919050565b600060a08301600083015161359a60008601826130e1565b50602083015184820360208601526135b28282613110565b915050604083015184820360408601526135cc8282613110565b915050606083015184820360608601526135e68282613110565b915050608083015184820360808601526136008282613110565b9150508091505092915050565b60006136198383613582565b905092915050565b6000602082019050919050565b600061363982613556565b6136438185613561565b93508360208202850161365585613572565b8060005b858110156136915784840389528151613672858261360d565b945061367d83613621565b925060208a01995050600181019050613659565b50829750879550505050505092915050565b600060208201905081810360008301526136bd818461362e565b905092915050565b600060a0820190506136da6000830188613358565b81810360208301526136ec8187612cd0565b905081810360408301526137008186612cd0565b905081810360608301526137148185612cd0565b905081810360808301526137288184612cd0565b90509695505050505050565b600067ffffffffffffffff82111561374f5761374e612e60565b5b61375882612cbf565b9050602081019050919050565b600061377861377384613734565b612ec0565b90508281526020810184848401111561379457613793612e5b565b5b61379f848285612f0c565b509392505050565b600082601f8301126137bc576137bb612e56565b5b81356137cc848260208601613765565b91505092915050565b600080600080608085870312156137ef576137ee612bb4565b5b60006137fd87828801612e01565b945050602061380e87828801612e01565b935050604061381f87828801612d4c565b925050606085013567ffffffffffffffff8111156138405761383f612bb9565b5b61384c878288016137a7565b91505092959194509250565b6000806040838503121561386f5761386e612bb4565b5b600061387d85828601612e01565b925050602061388e85828601612e01565b9150509250929050565b7f4e487b7100000000000000000000000000000000000000000000000000000000600052602260045260246000fd5b600060028204905060018216806138df57607f821691505b6020821081036138f2576138f1613898565b5b50919050565b7f4552433732313a20617070726f76616c20746f2063757272656e74206f776e6560008201527f7200000000000000000000000000000000000000000000000000000000000000602082015250565b6000613954602183612c84565b915061395f826138f8565b604082019050919050565b6000602082019050818103600083015261398381613947565b9050919050565b7f4552433732313a20617070726f76652063616c6c6572206973206e6f7420746f60008201527f6b656e206f776e6572206f7220617070726f76656420666f7220616c6c000000602082015250565b60006139e6603d83612c84565b91506139f18261398a565b604082019050919050565b60006020820190508181036000830152613a15816139d9565b9050919050565b60008190508160005260206000209050919050565b60006020601f8301049050919050565b600082821b905092915050565b600060088302613a7e7fffffffffffffffffffffffffffffffffffffffffffffffffffffffffffffffff82613a41565b613a888683613a41565b95508019841693508086168417925050509392505050565b6000819050919050565b6000613ac5613ac0613abb84612d2b565b613aa0565b612d2b565b9050919050565b6000819050919050565b613adf83613aaa565b613af3613aeb82613acc565b848454613a4e565b825550505050565b600090565b613b08613afb565b613b13818484613ad6565b505050565b5b81811015613b3757613b2c600082613b00565b600181019050613b19565b5050565b601f821115613b7c57613b4d81613a1c565b613b5684613a31565b81016020851015613b65578190505b613b79613b7185613a31565b830182613b18565b50505b505050565b600082821c905092915050565b6000613b9f60001984600802613b81565b1980831691505092915050565b6000613bb88383613b8e565b9150826002028217905092915050565b613bd182612c79565b67ffffffffffffffff811115613bea57613be9612e60565b5b613bf482546138c7565b613bff828285613b3b565b600060209050601f831160018114613c325760008415613c20578287015190505b613c2a8582613bac565b865550613c92565b601f198416613c4086613a1c565b60005b82811015613c6857848901518255600182019150602085019450602081019050613c43565b86831015613c855784890151613c81601f891682613b8e565b8355505b6001600288020188555050505b505050505050565b7f4552433732313a2063616c6c6572206973206e6f7420746f6b656e206f776e6560008201527f72206f7220617070726f76656400000000000000000000000000000000000000602082015250565b6000613cf6602d83612c84565b9150613d0182613c9a565b604082019050919050565b60006020820190508181036000830152613d2581613ce9565b9050919050565b7f4e487b7100000000000000000000000000000000000000000000000000000000600052603260045260246000fd5b7f4e487b7100000000000000000000000000000000000000000000000000000000600052601160045260246000fd5b6000613d9582612d2b565b91507fffffffffffffffffffffffffffffffffffffffffffffffffffffffffffffffff8203613dc757613dc6613d5b565b5b600182019050919050565b7f4552433732313a20696e76616c696420746f6b656e2049440000000000000000600082015250565b6000613e08601883612c84565b9150613e1382613dd2565b602082019050919050565b60006020820190508181036000830152613e3781613dfb565b9050919050565b7f4552433732313a2061646472657373207a65726f206973206e6f74206120766160008201527f6c6964206f776e65720000000000000000000000000000000000000000000000602082015250565b6000613e9a602983612c84565b9150613ea582613e3e565b604082019050919050565b60006020820190508181036000830152613ec981613e8d565b9050919050565b6000613edb82612d2b565b9150613ee683612d2b565b9250828201905080821115613efe57613efd613d5b565b5b92915050565b600081905092915050565b6000613f1a82612c79565b613f248185613f04565b9350613f34818560208601612c95565b80840191505092915050565b6000613f4c8285613f0f565b9150613f588284613f0f565b91508190509392505050565b7f4552433732313a207472616e736665722066726f6d20696e636f72726563742060008201527f6f776e6572000000000000000000000000000000000000000000000000000000602082015250565b6000613fc0602583612c84565b9150613fcb82613f64565b604082019050919050565b60006020820190508181036000830152613fef81613fb3565b9050919050565b7f4552433732313a207472616e7366657220746f20746865207a65726f2061646460008201527f7265737300000000000000000000000000000000000000000000000000000000602082015250565b6000614052602483612c84565b915061405d82613ff6565b604082019050919050565b6000602082019050818103600083015261408181614045565b9050919050565b7f4552433732313a20617070726f766520746f2063616c6c657200000000000000600082015250565b60006140be601983612c84565b91506140c982614088565b602082019050919050565b600060208201905081810360008301526140ed816140b1565b9050919050565b7f4552433732313a206d696e7420746f20746865207a65726f2061646472657373600082015250565b600061412a602083612c84565b9150614135826140f4565b602082019050919050565b600060208201905081810360008301526141598161411d565b9050919050565b7f4552433732313a20746f6b656e20616c7265616479206d696e74656400000000600082015250565b6000614196601c83612c84565b91506141a182614160565b602082019050919050565b600060208201905081810360008301526141c581614189565b9050919050565b7f45524337323155524953746f726167653a2055524920736574206f66206e6f6e60008201527f6578697374656e7420746f6b656e000000000000000000000000000000000000602082015250565b6000614228602e83612c84565b9150614233826141cc565b604082019050919050565b600060208201905081810360008301526142578161421b565b9050919050565b7f4552433732313a207472616e7366657220746f206e6f6e20455243373231526560008201527f63656976657220696d706c656d656e7465720000000000000000000000000000602082015250565b60006142ba603283612c84565b91506142c58261425e565b604082019050919050565b600060208201905081810360008301526142e9816142ad565b9050919050565b600081519050919050565b600082825260208201905092915050565b6000614317826142f0565b61432181856142fb565b9350614331818560208601612c95565b61433a81612cbf565b840191505092915050565b600060808201905061435a6000830187612dc0565b6143676020830186612dc0565b6143746040830185613358565b8181036060830152614386818461430c565b905095945050505050565b6000815190506143a081612bea565b92915050565b6000602082840312156143bc576143bb612bb4565b5b60006143ca84828501614391565b91505092915050565b7f4e487b7100000000000000000000000000000000000000000000000000000000600052601260045260246000fdfea2646970667358221220a18167f3f7b29b7adfc45e75661f1ad9edd8e34d1bdae813d12441d05a58012864736f6c63430008110033",
  "linkReferences": {},
  "deployedLinkReferences": {}
}