{
  "_format": "hh-sol-artifact-1",
  "contractName": "STCMarket",
  "sourceName": "contracts/STCMarket.sol",
  "abi": [
    {
      "inputs": [],
      "stateMutability": "nonpayable",
      "type": "constructor"
    },
    {
      "anonymous": false,
      "inputs": [
        {
          "indexed": true,
          "internalType": "address",
          "name": "owner",
          "type": "address"
        },
        {
          "indexed": true,
          "internalType": "address",
          "name": "approved",
          "type": "address"
        },
        {
          "indexed": true,
          "internalType": "uint256",
          "name": "tokenId",
          "type": "uint256"
        }
      ],
      "name": "Approval",
      "type": "event"
    },
    {
      "anonymous": false,
      "inputs": [
        {
          "indexed": true,
          "internalType": "address",
          "name": "owner",
          "type": "address"
        },
        {
          "indexed": true,
          "internalType": "address",
          "name": "operator",
          "type": "address"
        },
        {
          "indexed": false,
          "internalType": "bool",
          "name": "approved",
          "type": "bool"
        }
      ],
      "name": "ApprovalForAll",
      "type": "event"
    },
    {
      "anonymous": false,
      "inputs": [
        {
          "indexed": false,
          "internalType": "address",
          "name": "",
          "type": "address"
        },
        {
          "indexed": false,
          "internalType": "uint256",
          "name": "",
          "type": "uint256"
        }
      ],
      "name": "TokenMinted",
      "type": "event"
    },
    {
      "anonymous": false,
      "inputs": [
        {
          "indexed": false,
          "internalType": "address",
          "name": "",
          "type": "address"
        },
        {
          "indexed": false,
          "internalType": "address",
          "name": "",
          "type": "address"
        },
        {
          "indexed": false,
          "internalType": "uint256",
          "name": "",
          "type": "uint256"
        }
      ],
      "name": "TokenTransfered",
      "type": "event"
    },
    {
      "anonymous": false,
      "inputs": [
        {
          "indexed": true,
          "internalType": "address",
          "name": "from",
          "type": "address"
        },
        {
          "indexed": true,
          "internalType": "address",
          "name": "to",
          "type": "address"
        },
        {
          "indexed": true,
          "internalType": "uint256",
          "name": "tokenId",
          "type": "uint256"
        }
      ],
      "name": "Transfer",
      "type": "event"
    },
    {
      "inputs": [
        {
          "internalType": "uint256",
          "name": "",
          "type": "uint256"
        },
        {
          "internalType": "uint256",
          "name": "",
          "type": "uint256"
        }
      ],
      "name": "_daoMarketApiIds",
      "outputs": [
        {
          "internalType": "uint256",
          "name": "",
          "type": "uint256"
        }
      ],
      "stateMutability": "view",
      "type": "function"
    },
    {
      "inputs": [
        {
          "internalType": "uint256",
          "name": "",
          "type": "uint256"
        }
      ],
      "name": "_idToDao",
      "outputs": [
        {
          "internalType": "uint256",
          "name": "daoId",
          "type": "uint256"
        },
        {
          "internalType": "string",
          "name": "name",
          "type": "string"
        },
        {
          "internalType": "string",
          "name": "description",
          "type": "string"
        },
        {
          "internalType": "string",
          "name": "jsoninfo",
          "type": "string"
        },
        {
          "internalType": "string",
          "name": "image",
          "type": "string"
        },
        {
          "internalType": "address",
          "name": "daoOwner",
          "type": "address"
        }
      ],
      "stateMutability": "view",
      "type": "function"
    },
    {
      "inputs": [
        {
          "internalType": "address",
          "name": "",
          "type": "address"
        },
        {
          "internalType": "uint256",
          "name": "",
          "type": "uint256"
        }
      ],
      "name": "_providerDaoIds",
      "outputs": [
        {
          "internalType": "uint256",
          "name": "",
          "type": "uint256"
        }
      ],
      "stateMutability": "view",
      "type": "function"
    },
    {
      "inputs": [
        {
          "internalType": "address",
          "name": "",
          "type": "address"
        },
        {
          "internalType": "uint256",
          "name": "",
          "type": "uint256"
        }
      ],
      "name": "_userMarketApiIds",
      "outputs": [
        {
          "internalType": "uint256",
          "name": "",
          "type": "uint256"
        }
      ],
      "stateMutability": "view",
      "type": "function"
    },
    {
      "inputs": [
        {
          "internalType": "address",
          "name": "",
          "type": "address"
        },
        {
          "internalType": "uint256",
          "name": "",
          "type": "uint256"
        }
      ],
      "name": "_userSoulIds",
      "outputs": [
        {
          "internalType": "uint256",
          "name": "",
          "type": "uint256"
        }
      ],
      "stateMutability": "view",
      "type": "function"
    },
    {
      "inputs": [
        {
          "internalType": "address",
          "name": "to",
          "type": "address"
        },
        {
          "internalType": "uint256",
          "name": "tokenId",
          "type": "uint256"
        }
      ],
      "name": "approve",
      "outputs": [],
      "stateMutability": "nonpayable",
      "type": "function"
    },
    {
      "inputs": [
        {
          "internalType": "address",
          "name": "owner",
          "type": "address"
        }
      ],
      "name": "balanceOf",
      "outputs": [
        {
          "internalType": "uint256",
          "name": "",
          "type": "uint256"
        }
      ],
      "stateMutability": "view",
      "type": "function"
    },
    {
      "inputs": [
        {
          "internalType": "uint256",
          "name": "daoId",
          "type": "uint256"
        }
      ],
      "name": "checkToCreateMarket",
      "outputs": [
        {
          "internalType": "bool",
          "name": "",
          "type": "bool"
        }
      ],
      "stateMutability": "view",
      "type": "function"
    },
    {
      "inputs": [
        {
          "internalType": "string",
          "name": "name",
          "type": "string"
        },
        {
          "internalType": "string",
          "name": "description",
          "type": "string"
        },
        {
          "internalType": "string",
          "name": "jsoninfo",
          "type": "string"
        },
        {
          "internalType": "string",
          "name": "image",
          "type": "string"
        }
      ],
      "name": "createDao",
      "outputs": [],
      "stateMutability": "nonpayable",
      "type": "function"
    },
    {
      "inputs": [
        {
          "internalType": "uint256",
          "name": "daoId",
          "type": "uint256"
        },
        {
          "internalType": "string",
          "name": "apiName",
          "type": "string"
        },
        {
          "internalType": "string",
          "name": "apiMethod",
          "type": "string"
        },
        {
          "internalType": "string",
          "name": "apiUrl",
          "type": "string"
        },
        {
          "internalType": "uint256",
          "name": "price",
          "type": "uint256"
        },
        {
          "internalType": "string",
          "name": "description",
          "type": "string"
        }
      ],
      "name": "createMarketApi",
      "outputs": [],
      "stateMutability": "nonpayable",
      "type": "function"
    },
    {
      "inputs": [
        {
          "internalType": "string",
          "name": "tokenURI",
          "type": "string"
        },
        {
          "internalType": "uint256",
          "name": "daoId",
          "type": "uint256"
        },
        {
          "internalType": "string",
          "name": "metadata",
          "type": "string"
        },
        {
          "internalType": "string",
          "name": "image",
          "type": "string"
        }
      ],
      "name": "createUserNft",
      "outputs": [
        {
          "internalType": "uint256",
          "name": "",
          "type": "uint256"
        }
      ],
      "stateMutability": "nonpayable",
      "type": "function"
    },
    {
      "inputs": [],
      "name": "getAllDaos",
      "outputs": [
        {
          "components": [
            {
              "internalType": "uint256",
              "name": "daoId",
              "type": "uint256"
            },
            {
              "internalType": "string",
              "name": "name",
              "type": "string"
            },
            {
              "internalType": "string",
              "name": "description",
              "type": "string"
            },
            {
              "internalType": "string",
              "name": "jsoninfo",
              "type": "string"
            },
            {
              "internalType": "string",
              "name": "image",
              "type": "string"
            },
            {
              "internalType": "address",
              "name": "daoOwner",
              "type": "address"
            }
          ],
          "internalType": "struct STCMarket.Dao[]",
          "name": "",
          "type": "tuple[]"
        }
      ],
      "stateMutability": "view",
      "type": "function"
    },
    {
      "inputs": [
        {
          "internalType": "uint256",
          "name": "tokenId",
          "type": "uint256"
        }
      ],
      "name": "getApproved",
      "outputs": [
        {
          "internalType": "address",
          "name": "",
          "type": "address"
        }
      ],
      "stateMutability": "view",
      "type": "function"
    },
    {
      "inputs": [
        {
          "internalType": "uint256",
          "name": "daoId",
          "type": "uint256"
        }
      ],
      "name": "getDao",
      "outputs": [
        {
          "components": [
            {
              "internalType": "uint256",
              "name": "daoId",
              "type": "uint256"
            },
            {
              "internalType": "string",
              "name": "name",
              "type": "string"
            },
            {
              "internalType": "string",
              "name": "description",
              "type": "string"
            },
            {
              "internalType": "string",
              "name": "jsoninfo",
              "type": "string"
            },
            {
              "internalType": "string",
              "name": "image",
              "type": "string"
            },
            {
              "internalType": "address",
              "name": "daoOwner",
              "type": "address"
            }
          ],
          "internalType": "struct STCMarket.Dao",
          "name": "",
          "type": "tuple"
        }
      ],
      "stateMutability": "view",
      "type": "function"
    },
    {
      "inputs": [
        {
          "internalType": "uint256",
          "name": "daoId",
          "type": "uint256"
        }
      ],
      "name": "getMarketApiByDao",
      "outputs": [
        {
          "components": [
            {
              "internalType": "uint256",
              "name": "marketId",
              "type": "uint256"
            },
            {
              "internalType": "uint256",
              "name": "daoId",
              "type": "uint256"
            },
            {
              "internalType": "string",
              "name": "apiName",
              "type": "string"
            },
            {
              "internalType": "string",
              "name": "apiMethod",
              "type": "string"
            },
            {
              "internalType": "string",
              "name": "apiUrl",
              "type": "string"
            },
            {
              "internalType": "uint256",
              "name": "price",
              "type": "uint256"
            },
            {
              "internalType": "string",
              "name": "description",
              "type": "string"
            },
            {
              "internalType": "address",
              "name": "createUser",
              "type": "address"
            }
          ],
          "internalType": "struct STCMarket.ApiMarket[]",
          "name": "",
          "type": "tuple[]"
        }
      ],
      "stateMutability": "view",
      "type": "function"
    },
    {
      "inputs": [],
      "name": "getMyDaos",
      "outputs": [
        {
          "components": [
            {
              "internalType": "uint256",
              "name": "daoId",
              "type": "uint256"
            },
            {
              "internalType": "string",
              "name": "name",
              "type": "string"
            },
            {
              "internalType": "string",
              "name": "description",
              "type": "string"
            },
            {
              "internalType": "string",
              "name": "jsoninfo",
              "type": "string"
            },
            {
              "internalType": "string",
              "name": "image",
              "type": "string"
            },
            {
              "internalType": "address",
              "name": "daoOwner",
              "type": "address"
            }
          ],
          "internalType": "struct STCMarket.Dao[]",
          "name": "",
          "type": "tuple[]"
        }
      ],
      "stateMutability": "view",
      "type": "function"
    },
    {
      "inputs": [],
      "name": "getUserAllNft",
      "outputs": [
        {
          "components": [
            {
              "internalType": "uint256",
              "name": "soulId",
              "type": "uint256"
            },
            {
              "internalType": "uint256",
              "name": "daoId",
              "type": "uint256"
            },
            {
              "internalType": "address",
              "name": "soulOwner",
              "type": "address"
            },
            {
              "internalType": "string",
              "name": "metadata",
              "type": "string"
            },
            {
              "internalType": "string",
              "name": "image",
              "type": "string"
            }
          ],
          "internalType": "struct STCMarket.Soul[]",
          "name": "",
          "type": "tuple[]"
        }
      ],
      "stateMutability": "view",
      "type": "function"
    },
    {
      "inputs": [
        {
          "internalType": "uint256",
          "name": "daoId",
          "type": "uint256"
        }
      ],
      "name": "getUserNft",
      "outputs": [
        {
          "components": [
            {
              "internalType": "uint256",
              "name": "soulId",
              "type": "uint256"
            },
            {
              "internalType": "uint256",
              "name": "daoId",
              "type": "uint256"
            },
            {
              "internalType": "address",
              "name": "soulOwner",
              "type": "address"
            },
            {
              "internalType": "string",
              "name": "metadata",
              "type": "string"
            },
            {
              "internalType": "string",
              "name": "image",
              "type": "string"
            }
          ],
          "internalType": "struct STCMarket.Soul",
          "name": "",
          "type": "tuple"
        },
        {
          "internalType": "bool",
          "name": "",
          "type": "bool"
        }
      ],
      "stateMutability": "view",
      "type": "function"
    },
    {
      "inputs": [
        {
          "internalType": "address",
          "name": "owner",
          "type": "address"
        },
        {
          "internalType": "address",
          "name": "operator",
          "type": "address"
        }
      ],
      "name": "isApprovedForAll",
      "outputs": [
        {
          "internalType": "bool",
          "name": "",
          "type": "bool"
        }
      ],
      "stateMutability": "view",
      "type": "function"
    },
    {
      "inputs": [],
      "name": "name",
      "outputs": [
        {
          "internalType": "string",
          "name": "",
          "type": "string"
        }
      ],
      "stateMutability": "view",
      "type": "function"
    },
    {
      "inputs": [
        {
          "internalType": "uint256",
          "name": "tokenId",
          "type": "uint256"
        }
      ],
      "name": "ownerOf",
      "outputs": [
        {
          "internalType": "address",
          "name": "",
          "type": "address"
        }
      ],
      "stateMutability": "view",
      "type": "function"
    },
    {
      "inputs": [
        {
          "internalType": "address",
          "name": "from",
          "type": "address"
        },
        {
          "internalType": "address",
          "name": "to",
          "type": "address"
        },
        {
          "internalType": "uint256",
          "name": "tokenId",
          "type": "uint256"
        }
      ],
      "name": "safeTransferFrom",
      "outputs": [],
      "stateMutability": "nonpayable",
      "type": "function"
    },
    {
      "inputs": [
        {
          "internalType": "address",
          "name": "from",
          "type": "address"
        },
        {
          "internalType": "address",
          "name": "to",
          "type": "address"
        },
        {
          "internalType": "uint256",
          "name": "tokenId",
          "type": "uint256"
        },
        {
          "internalType": "bytes",
          "name": "data",
          "type": "bytes"
        }
      ],
      "name": "safeTransferFrom",
      "outputs": [],
      "stateMutability": "nonpayable",
      "type": "function"
    },
    {
      "inputs": [
        {
          "internalType": "address",
          "name": "operator",
          "type": "address"
        },
        {
          "internalType": "bool",
          "name": "approved",
          "type": "bool"
        }
      ],
      "name": "setApprovalForAll",
      "outputs": [],
      "stateMutability": "nonpayable",
      "type": "function"
    },
    {
      "inputs": [
        {
          "internalType": "bytes4",
          "name": "interfaceId",
          "type": "bytes4"
        }
      ],
      "name": "supportsInterface",
      "outputs": [
        {
          "internalType": "bool",
          "name": "",
          "type": "bool"
        }
      ],
      "stateMutability": "view",
      "type": "function"
    },
    {
      "inputs": [],
      "name": "symbol",
      "outputs": [
        {
          "internalType": "string",
          "name": "",
          "type": "string"
        }
      ],
      "stateMutability": "view",
      "type": "function"
    },
    {
      "inputs": [
        {
          "internalType": "uint256",
          "name": "tokenId",
          "type": "uint256"
        }
      ],
      "name": "tokenURI",
      "outputs": [
        {
          "internalType": "string",
          "name": "",
          "type": "string"
        }
      ],
      "stateMutability": "view",
      "type": "function"
    },
    {
      "inputs": [
        {
          "internalType": "address",
          "name": "from",
          "type": "address"
        },
        {
          "internalType": "address",
          "name": "to",
          "type": "address"
        },
        {
          "internalType": "uint256",
          "name": "tokenId",
          "type": "uint256"
        }
      ],
      "name": "transferFrom",
      "outputs": [],
      "stateMutability": "nonpayable",
      "type": "function"
    }
  ],
  "bytecode": "0x60806040523480156200001157600080fd5b506040518060400160405280600d81526020017f5354434d61726b6574204e4654000000000000000000000000000000000000008152506040518060400160405280600481526020017f5354434e0000000000000000000000000000000000000000000000000000000081525081600090816200008f91906200037f565b508060019081620000a191906200037f565b505050620000bb6007620000ef60201b62002bac1760201c565b620000d26008620000ef60201b62002bac1760201c565b620000e96009620000ef60201b62002bac1760201c565b62000466565b6001816000016000828254019250508190555050565b600081519050919050565b7f4e487b7100000000000000000000000000000000000000000000000000000000600052604160045260246000fd5b7f4e487b7100000000000000000000000000000000000000000000000000000000600052602260045260246000fd5b600060028204905060018216806200018757607f821691505b6020821081036200019d576200019c6200013f565b5b50919050565b60008190508160005260206000209050919050565b60006020601f8301049050919050565b600082821b905092915050565b600060088302620002077fffffffffffffffffffffffffffffffffffffffffffffffffffffffffffffffff82620001c8565b620002138683620001c8565b95508019841693508086168417925050509392505050565b6000819050919050565b6000819050919050565b6000620002606200025a62000254846200022b565b62000235565b6200022b565b9050919050565b6000819050919050565b6200027c836200023f565b620002946200028b8262000267565b848454620001d5565b825550505050565b600090565b620002ab6200029c565b620002b881848462000271565b505050565b5b81811015620002e057620002d4600082620002a1565b600181019050620002be565b5050565b601f8211156200032f57620002f981620001a3565b6200030484620001b8565b8101602085101562000314578190505b6200032c6200032385620001b8565b830182620002bd565b50505b505050565b600082821c905092915050565b6000620003546000198460080262000334565b1980831691505092915050565b60006200036f838362000341565b9150826002028217905092915050565b6200038a8262000105565b67ffffffffffffffff811115620003a657620003a562000110565b5b620003b282546200016e565b620003bf828285620002e4565b600060209050601f831160018114620003f75760008415620003e2578287015190505b620003ee858262000361565b8655506200045e565b601f1984166200040786620001a3565b60005b8281101562000431578489015182556001820191506020850194506020810190506200040a565b868310156200045157848901516200044d601f89168262000341565b8355505b6001600288020188555050505b505050505050565b61579a80620004766000396000f3fe608060405234801561001057600080fd5b50600436106101c45760003560e01c80636ea655b5116100f9578063a36c530e11610097578063c87b56dd11610071578063c87b56dd14610569578063d815e99414610599578063e7739f85146105c9578063e985e9c5146105f9576101c4565b8063a36c530e146104ff578063aa5b6d4c1461052f578063b88d4fde1461054d576101c4565b80639140e961116100d35780639140e9611461047957806395d89b4114610495578063a07b57f6146104b3578063a22cb465146104e3576101c4565b80636ea655b5146103e957806370a08231146104195780638d2267e514610449576101c4565b80631b44c40e1161016657806341ea64ee1161014057806341ea64ee1461033c57806342842e0e1461036c578063520dc745146103885780636352211e146103b9576101c4565b80631b44c40e146102e657806323b872dd1461030257806337f24c0e1461031e576101c4565b8063095ea7b3116101a2578063095ea7b31461024757806309f6cd33146102635780630cf9543214610281578063116e8beb146102b1576101c4565b806301ffc9a7146101c957806306fdde03146101f9578063081812fc14610217575b600080fd5b6101e360048036038101906101de9190613b52565b610629565b6040516101f09190613b9a565b60405180910390f35b61020161070b565b60405161020e9190613c45565b60405180910390f35b610231600480360381019061022c9190613c9d565b61079d565b60405161023e9190613d0b565b60405180910390f35b610261600480360381019061025c9190613d52565b6107e3565b005b61026b6108fa565b6040516102789190613f5a565b60405180910390f35b61029b60048036038101906102969190613f7c565b610d01565b6040516102a89190613fcb565b60405180910390f35b6102cb60048036038101906102c69190613c9d565b610d32565b6040516102dd96959493929190613fe6565b60405180910390f35b61030060048036038101906102fb9190614198565b610fae565b005b61031c6004803603810190610317919061426f565b611135565b005b610326611195565b6040516103339190614401565b60405180910390f35b61035660048036038101906103519190613c9d565b61148b565b60405161036391906145aa565b60405180910390f35b6103866004803603810190610381919061426f565b611856565b005b6103a2600480360381019061039d9190613c9d565b611876565b6040516103b0929190614649565b60405180910390f35b6103d360048036038101906103ce9190613c9d565b611b35565b6040516103e09190613d0b565b60405180910390f35b61040360048036038101906103fe9190613d52565b611bbb565b6040516104109190613fcb565b60405180910390f35b610433600480360381019061042e9190614679565b611bec565b6040516104409190613fcb565b60405180910390f35b610463600480360381019061045e9190613d52565b611ca3565b6040516104709190613fcb565b60405180910390f35b610493600480360381019061048e91906146a6565b611cd4565b005b61049d611f5c565b6040516104aa9190613c45565b60405180910390f35b6104cd60048036038101906104c89190613c9d565b611fee565b6040516104da9190614841565b60405180910390f35b6104fd60048036038101906104f8919061488f565b6122c3565b005b610519600480360381019061051491906148cf565b6122d9565b6040516105269190613fcb565b60405180910390f35b61053761256a565b6040516105449190613f5a565b60405180910390f35b61056760048036038101906105629190614a2b565b6128f5565b005b610583600480360381019061057e9190613c9d565b612957565b6040516105909190613c45565b60405180910390f35b6105b360048036038101906105ae9190613d52565b612a69565b6040516105c09190613fcb565b60405180910390f35b6105e360048036038101906105de9190613c9d565b612a9a565b6040516105f09190613b9a565b60405180910390f35b610613600480360381019061060e9190614aae565b612b18565b6040516106209190613b9a565b60405180910390f35b60007f80ac58cd000000000000000000000000000000000000000000000000000000007bffffffffffffffffffffffffffffffffffffffffffffffffffffffff1916827bffffffffffffffffffffffffffffffffffffffffffffffffffffffff191614806106f457507f5b5e139f000000000000000000000000000000000000000000000000000000007bffffffffffffffffffffffffffffffffffffffffffffffffffffffff1916827bffffffffffffffffffffffffffffffffffffffffffffffffffffffff1916145b80610704575061070382612bc2565b5b9050919050565b60606000805461071a90614b1d565b80601f016020809104026020016040519081016040528092919081815260200182805461074690614b1d565b80156107935780601f1061076857610100808354040283529160200191610793565b820191906000526020600020905b81548152906001019060200180831161077657829003601f168201915b5050505050905090565b60006107a882612c2c565b6004600083815260200190815260200160002060009054906101000a900473ffffffffffffffffffffffffffffffffffffffff169050919050565b60006107ee82611b35565b90508073ffffffffffffffffffffffffffffffffffffffff168373ffffffffffffffffffffffffffffffffffffffff160361085e576040517f08c379a000000000000000000000000000000000000000000000000000000000815260040161085590614bc0565b60405180910390fd5b8073ffffffffffffffffffffffffffffffffffffffff1661087d612c77565b73ffffffffffffffffffffffffffffffffffffffff1614806108ac57506108ab816108a6612c77565b612b18565b5b6108eb576040517f08c379a00000000000000000000000000000000000000000000000000000000081526004016108e290614c52565b60405180910390fd5b6108f58383612c7f565b505050565b60606000600d60003373ffffffffffffffffffffffffffffffffffffffff1673ffffffffffffffffffffffffffffffffffffffff16815260200190815260200160002080549050905060008167ffffffffffffffff81111561095f5761095e61406d565b5b60405190808252806020026020018201604052801561099857816020015b6109856139fa565b81526020019060019003908161097d5790505b50905060005b82811015610cf857600a6000600d60003373ffffffffffffffffffffffffffffffffffffffff1673ffffffffffffffffffffffffffffffffffffffff16815260200190815260200160002083815481106109fb576109fa614c72565b5b906000526020600020015481526020019081526020016000206040518060c001604052908160008201548152602001600182018054610a3990614b1d565b80601f0160208091040260200160405190810160405280929190818152602001828054610a6590614b1d565b8015610ab25780601f10610a8757610100808354040283529160200191610ab2565b820191906000526020600020905b815481529060010190602001808311610a9557829003601f168201915b50505050508152602001600282018054610acb90614b1d565b80601f0160208091040260200160405190810160405280929190818152602001828054610af790614b1d565b8015610b445780601f10610b1957610100808354040283529160200191610b44565b820191906000526020600020905b815481529060010190602001808311610b2757829003601f168201915b50505050508152602001600382018054610b5d90614b1d565b80601f0160208091040260200160405190810160405280929190818152602001828054610b8990614b1d565b8015610bd65780601f10610bab57610100808354040283529160200191610bd6565b820191906000526020600020905b815481529060010190602001808311610bb957829003601f168201915b50505050508152602001600482018054610bef90614b1d565b80601f0160208091040260200160405190810160405280929190818152602001828054610c1b90614b1d565b8015610c685780601f10610c3d57610100808354040283529160200191610c68565b820191906000526020600020905b815481529060010190602001808311610c4b57829003601f168201915b505050505081526020016005820160009054906101000a900473ffffffffffffffffffffffffffffffffffffffff1673ffffffffffffffffffffffffffffffffffffffff1673ffffffffffffffffffffffffffffffffffffffff1681525050828281518110610cda57610cd9614c72565b5b60200260200101819052508080610cf090614cd0565b91505061099e565b50809250505090565b60106020528160005260406000208181548110610d1d57600080fd5b90600052602060002001600091509150505481565b600a602052806000526040600020600091509050806000015490806001018054610d5b90614b1d565b80601f0160208091040260200160405190810160405280929190818152602001828054610d8790614b1d565b8015610dd45780601f10610da957610100808354040283529160200191610dd4565b820191906000526020600020905b815481529060010190602001808311610db757829003601f168201915b505050505090806002018054610de990614b1d565b80601f0160208091040260200160405190810160405280929190818152602001828054610e1590614b1d565b8015610e625780601f10610e3757610100808354040283529160200191610e62565b820191906000526020600020905b815481529060010190602001808311610e4557829003601f168201915b505050505090806003018054610e7790614b1d565b80601f0160208091040260200160405190810160405280929190818152602001828054610ea390614b1d565b8015610ef05780601f10610ec557610100808354040283529160200191610ef0565b820191906000526020600020905b815481529060010190602001808311610ed357829003601f168201915b505050505090806004018054610f0590614b1d565b80601f0160208091040260200160405190810160405280929190818152602001828054610f3190614b1d565b8015610f7e5780601f10610f5357610100808354040283529160200191610f7e565b820191906000526020600020905b815481529060010190602001808311610f6157829003601f168201915b5050505050908060050160009054906101000a900473ffffffffffffffffffffffffffffffffffffffff16905086565b6000610fba6007612d38565b9050610fc66007612bac565b6040518060c001604052808281526020018681526020018581526020018481526020018381526020013373ffffffffffffffffffffffffffffffffffffffff16815250600a600083815260200190815260200160002060008201518160000155602082015181600101908161103b9190614ec4565b5060408201518160020190816110519190614ec4565b5060608201518160030190816110679190614ec4565b50608082015181600401908161107d9190614ec4565b5060a08201518160050160006101000a81548173ffffffffffffffffffffffffffffffffffffffff021916908373ffffffffffffffffffffffffffffffffffffffff160217905550905050600d60003373ffffffffffffffffffffffffffffffffffffffff1673ffffffffffffffffffffffffffffffffffffffff1681526020019081526020016000208190806001815401808255809150506001900390600052602060002001600090919091909150555050505050565b611146611140612c77565b82612d46565b611185576040517f08c379a000000000000000000000000000000000000000000000000000000000815260040161117c90615008565b60405180910390fd5b611190838383612ddb565b505050565b60606000600e60003373ffffffffffffffffffffffffffffffffffffffff1673ffffffffffffffffffffffffffffffffffffffff16815260200190815260200160002080549050905060008167ffffffffffffffff8111156111fa576111f961406d565b5b60405190808252806020026020018201604052801561123357816020015b611220613a46565b8152602001906001900390816112185790505b509050600080600090505b8381101561148157600e60003373ffffffffffffffffffffffffffffffffffffffff1673ffffffffffffffffffffffffffffffffffffffff168152602001908152602001600020818154811061129757611296614c72565b5b90600052602060002001549150600b60008381526020019081526020016000206040518060a001604052908160008201548152602001600182015481526020016002820160009054906101000a900473ffffffffffffffffffffffffffffffffffffffff1673ffffffffffffffffffffffffffffffffffffffff1673ffffffffffffffffffffffffffffffffffffffff16815260200160038201805461133c90614b1d565b80601f016020809104026020016040519081016040528092919081815260200182805461136890614b1d565b80156113b55780601f1061138a576101008083540402835291602001916113b5565b820191906000526020600020905b81548152906001019060200180831161139857829003601f168201915b505050505081526020016004820180546113ce90614b1d565b80601f01602080910402602001604051908101604052809291908181526020018280546113fa90614b1d565b80156114475780601f1061141c57610100808354040283529160200191611447565b820191906000526020600020905b81548152906001019060200180831161142a57829003601f168201915b50505050508152505083828151811061146357611462614c72565b5b6020026020010181905250808061147990614cd0565b91505061123e565b5081935050505090565b60606000806010600085815260200190815260200160002080549050905060008167ffffffffffffffff8111156114c5576114c461406d565b5b6040519080825280602002602001820160405280156114fe57816020015b6114eb613a8b565b8152602001906001900390816114e35790505b50905060005b8281101561184a5760106000878152602001908152602001600020818154811061153157611530614c72565b5b90600052602060002001549350600c600085815260200190815260200160002060405180610100016040529081600082015481526020016001820154815260200160028201805461158190614b1d565b80601f01602080910402602001604051908101604052809291908181526020018280546115ad90614b1d565b80156115fa5780601f106115cf576101008083540402835291602001916115fa565b820191906000526020600020905b8154815290600101906020018083116115dd57829003601f168201915b5050505050815260200160038201805461161390614b1d565b80601f016020809104026020016040519081016040528092919081815260200182805461163f90614b1d565b801561168c5780601f106116615761010080835404028352916020019161168c565b820191906000526020600020905b81548152906001019060200180831161166f57829003601f168201915b505050505081526020016004820180546116a590614b1d565b80601f01602080910402602001604051908101604052809291908181526020018280546116d190614b1d565b801561171e5780601f106116f35761010080835404028352916020019161171e565b820191906000526020600020905b81548152906001019060200180831161170157829003601f168201915b505050505081526020016005820154815260200160068201805461174190614b1d565b80601f016020809104026020016040519081016040528092919081815260200182805461176d90614b1d565b80156117ba5780601f1061178f576101008083540402835291602001916117ba565b820191906000526020600020905b81548152906001019060200180831161179d57829003601f168201915b505050505081526020016007820160009054906101000a900473ffffffffffffffffffffffffffffffffffffffff1673ffffffffffffffffffffffffffffffffffffffff1673ffffffffffffffffffffffffffffffffffffffff168152505082828151811061182c5761182b614c72565b5b6020026020010181905250808061184290614cd0565b915050611504565b50809350505050919050565b611871838383604051806020016040528060008152506128f5565b505050565b61187e613a46565b6000611888613a46565b600080600090505b600e60003373ffffffffffffffffffffffffffffffffffffffff1673ffffffffffffffffffffffffffffffffffffffff16815260200190815260200160002080549050811015611b2557600e60003373ffffffffffffffffffffffffffffffffffffffff1673ffffffffffffffffffffffffffffffffffffffff168152602001908152602001600020818154811061192b5761192a614c72565b5b9060005260206000200154915085600b60008481526020019081526020016000206001015403611b1257600b60008381526020019081526020016000206001816040518060a001604052908160008201548152602001600182015481526020016002820160009054906101000a900473ffffffffffffffffffffffffffffffffffffffff1673ffffffffffffffffffffffffffffffffffffffff1673ffffffffffffffffffffffffffffffffffffffff1681526020016003820180546119f090614b1d565b80601f0160208091040260200160405190810160405280929190818152602001828054611a1c90614b1d565b8015611a695780601f10611a3e57610100808354040283529160200191611a69565b820191906000526020600020905b815481529060010190602001808311611a4c57829003601f168201915b50505050508152602001600482018054611a8290614b1d565b80601f0160208091040260200160405190810160405280929190818152602001828054611aae90614b1d565b8015611afb5780601f10611ad057610100808354040283529160200191611afb565b820191906000526020600020905b815481529060010190602001808311611ade57829003601f168201915b505050505081525050915094509450505050611b30565b8080611b1d90614cd0565b915050611890565b508160009350935050505b915091565b600080611b41836130d4565b9050600073ffffffffffffffffffffffffffffffffffffffff168173ffffffffffffffffffffffffffffffffffffffff1603611bb2576040517f08c379a0000000000000000000000000000000000000000000000000000000008152600401611ba990615074565b60405180910390fd5b80915050919050565b600d6020528160005260406000208181548110611bd757600080fd5b90600052602060002001600091509150505481565b60008073ffffffffffffffffffffffffffffffffffffffff168273ffffffffffffffffffffffffffffffffffffffff1603611c5c576040517f08c379a0000000000000000000000000000000000000000000000000000000008152600401611c5390615106565b60405180910390fd5b600360008373ffffffffffffffffffffffffffffffffffffffff1673ffffffffffffffffffffffffffffffffffffffff168152602001908152602001600020549050919050565b600f6020528160005260406000208181548110611cbf57600080fd5b90600052602060002001600091509150505481565b3373ffffffffffffffffffffffffffffffffffffffff16600a600088815260200190815260200160002060050160009054906101000a900473ffffffffffffffffffffffffffffffffffffffff1673ffffffffffffffffffffffffffffffffffffffff1614611d78576040517f08c379a0000000000000000000000000000000000000000000000000000000008152600401611d6f90615172565b60405180910390fd5b6000611d846009612d38565b9050611d906009612bac565b6040518061010001604052808281526020018881526020018781526020018681526020018581526020018481526020018381526020013373ffffffffffffffffffffffffffffffffffffffff16815250600c600083815260200190815260200160002060008201518160000155602082015181600101556040820151816002019081611e1c9190614ec4565b506060820151816003019081611e329190614ec4565b506080820151816004019081611e489190614ec4565b5060a0820151816005015560c0820151816006019081611e689190614ec4565b5060e08201518160070160006101000a81548173ffffffffffffffffffffffffffffffffffffffff021916908373ffffffffffffffffffffffffffffffffffffffff16021790555090505060106000888152602001908152602001600020819080600181540180825580915050600190039060005260206000200160009091909190915055600f60003373ffffffffffffffffffffffffffffffffffffffff1673ffffffffffffffffffffffffffffffffffffffff16815260200190815260200160002081908060018154018082558091505060019003906000526020600020016000909190919091505550505050505050565b606060018054611f6b90614b1d565b80601f0160208091040260200160405190810160405280929190818152602001828054611f9790614b1d565b8015611fe45780601f10611fb957610100808354040283529160200191611fe4565b820191906000526020600020905b815481529060010190602001808311611fc757829003601f168201915b5050505050905090565b611ff66139fa565b600a60008381526020019081526020016000206040518060c00160405290816000820154815260200160018201805461202e90614b1d565b80601f016020809104026020016040519081016040528092919081815260200182805461205a90614b1d565b80156120a75780601f1061207c576101008083540402835291602001916120a7565b820191906000526020600020905b81548152906001019060200180831161208a57829003601f168201915b505050505081526020016002820180546120c090614b1d565b80601f01602080910402602001604051908101604052809291908181526020018280546120ec90614b1d565b80156121395780601f1061210e57610100808354040283529160200191612139565b820191906000526020600020905b81548152906001019060200180831161211c57829003601f168201915b5050505050815260200160038201805461215290614b1d565b80601f016020809104026020016040519081016040528092919081815260200182805461217e90614b1d565b80156121cb5780601f106121a0576101008083540402835291602001916121cb565b820191906000526020600020905b8154815290600101906020018083116121ae57829003601f168201915b505050505081526020016004820180546121e490614b1d565b80601f016020809104026020016040519081016040528092919081815260200182805461221090614b1d565b801561225d5780601f106122325761010080835404028352916020019161225d565b820191906000526020600020905b81548152906001019060200180831161224057829003601f168201915b505050505081526020016005820160009054906101000a900473ffffffffffffffffffffffffffffffffffffffff1673ffffffffffffffffffffffffffffffffffffffff1673ffffffffffffffffffffffffffffffffffffffff16815250509050919050565b6122d56122ce612c77565b8383613111565b5050565b600080600090505b600e60003373ffffffffffffffffffffffffffffffffffffffff1673ffffffffffffffffffffffffffffffffffffffff168152602001908152602001600020805490508110156123f15784600b6000600e60003373ffffffffffffffffffffffffffffffffffffffff1673ffffffffffffffffffffffffffffffffffffffff168152602001908152602001600020848154811061238157612380614c72565b5b9060005260206000200154815260200190815260200160002060010154146123de576040517f08c379a00000000000000000000000000000000000000000000000000000000081526004016123d5906151de565b60405180910390fd5b80806123e990614cd0565b9150506122e1565b5060006123fe6008612d38565b905061240a6008612bac565b612414338261327d565b61241e818761349a565b6040518060a001604052808281526020018681526020013373ffffffffffffffffffffffffffffffffffffffff16815260200185815260200184815250600b6000838152602001908152602001600020600082015181600001556020820151816001015560408201518160020160006101000a81548173ffffffffffffffffffffffffffffffffffffffff021916908373ffffffffffffffffffffffffffffffffffffffff16021790555060608201518160030190816124de9190614ec4565b5060808201518160040190816124f49190614ec4565b50905050600e60003373ffffffffffffffffffffffffffffffffffffffff1673ffffffffffffffffffffffffffffffffffffffff16815260200190815260200160002081908060018154018082558091505060019003906000526020600020016000909190919091505580915050949350505050565b60606000600161257a6007612d38565b61258491906151fe565b905060008167ffffffffffffffff8111156125a2576125a161406d565b5b6040519080825280602002602001820160405280156125db57816020015b6125c86139fa565b8152602001906001900390816125c05790505b50905060005b828110156128ec57600a60006001836125fa9190615232565b81526020019081526020016000206040518060c00160405290816000820154815260200160018201805461262d90614b1d565b80601f016020809104026020016040519081016040528092919081815260200182805461265990614b1d565b80156126a65780601f1061267b576101008083540402835291602001916126a6565b820191906000526020600020905b81548152906001019060200180831161268957829003601f168201915b505050505081526020016002820180546126bf90614b1d565b80601f01602080910402602001604051908101604052809291908181526020018280546126eb90614b1d565b80156127385780601f1061270d57610100808354040283529160200191612738565b820191906000526020600020905b81548152906001019060200180831161271b57829003601f168201915b5050505050815260200160038201805461275190614b1d565b80601f016020809104026020016040519081016040528092919081815260200182805461277d90614b1d565b80156127ca5780601f1061279f576101008083540402835291602001916127ca565b820191906000526020600020905b8154815290600101906020018083116127ad57829003601f168201915b505050505081526020016004820180546127e390614b1d565b80601f016020809104026020016040519081016040528092919081815260200182805461280f90614b1d565b801561285c5780601f106128315761010080835404028352916020019161285c565b820191906000526020600020905b81548152906001019060200180831161283f57829003601f168201915b505050505081526020016005820160009054906101000a900473ffffffffffffffffffffffffffffffffffffffff1673ffffffffffffffffffffffffffffffffffffffff1673ffffffffffffffffffffffffffffffffffffffff16815250508282815181106128ce576128cd614c72565b5b602002602001018190525080806128e490614cd0565b9150506125e1565b50809250505090565b612906612900612c77565b83612d46565b612945576040517f08c379a000000000000000000000000000000000000000000000000000000000815260040161293c90615008565b60405180910390fd5b61295184848484613507565b50505050565b606061296282612c2c565b600060066000848152602001908152602001600020805461298290614b1d565b80601f01602080910402602001604051908101604052809291908181526020018280546129ae90614b1d565b80156129fb5780601f106129d0576101008083540402835291602001916129fb565b820191906000526020600020905b8154815290600101906020018083116129de57829003601f168201915b505050505090506000612a0c613563565b90506000815103612a21578192505050612a64565b600082511115612a56578082604051602001612a3e9291906152a2565b60405160208183030381529060405292505050612a64565b612a5f8461357a565b925050505b919050565b600e6020528160005260406000208181548110612a8557600080fd5b90600052602060002001600091509150505481565b60003373ffffffffffffffffffffffffffffffffffffffff16600a600084815260200190815260200160002060050160009054906101000a900473ffffffffffffffffffffffffffffffffffffffff1673ffffffffffffffffffffffffffffffffffffffff1603612b0e5760019050612b13565b600090505b919050565b6000600560008473ffffffffffffffffffffffffffffffffffffffff1673ffffffffffffffffffffffffffffffffffffffff16815260200190815260200160002060008373ffffffffffffffffffffffffffffffffffffffff1673ffffffffffffffffffffffffffffffffffffffff16815260200190815260200160002060009054906101000a900460ff16905092915050565b6001816000016000828254019250508190555050565b60007f01ffc9a7000000000000000000000000000000000000000000000000000000007bffffffffffffffffffffffffffffffffffffffffffffffffffffffff1916827bffffffffffffffffffffffffffffffffffffffffffffffffffffffff1916149050919050565b612c35816135e2565b612c74576040517f08c379a0000000000000000000000000000000000000000000000000000000008152600401612c6b90615074565b60405180910390fd5b50565b600033905090565b816004600083815260200190815260200160002060006101000a81548173ffffffffffffffffffffffffffffffffffffffff021916908373ffffffffffffffffffffffffffffffffffffffff160217905550808273ffffffffffffffffffffffffffffffffffffffff16612cf283611b35565b73ffffffffffffffffffffffffffffffffffffffff167f8c5be1e5ebec7d5bd14f71427d1e84f3dd0314c0f7b2291e5b200ac8c7c3b92560405160405180910390a45050565b600081600001549050919050565b600080612d5283611b35565b90508073ffffffffffffffffffffffffffffffffffffffff168473ffffffffffffffffffffffffffffffffffffffff161480612d945750612d938185612b18565b5b80612dd257508373ffffffffffffffffffffffffffffffffffffffff16612dba8461079d565b73ffffffffffffffffffffffffffffffffffffffff16145b91505092915050565b8273ffffffffffffffffffffffffffffffffffffffff16612dfb82611b35565b73ffffffffffffffffffffffffffffffffffffffff1614612e51576040517f08c379a0000000000000000000000000000000000000000000000000000000008152600401612e4890615338565b60405180910390fd5b600073ffffffffffffffffffffffffffffffffffffffff168273ffffffffffffffffffffffffffffffffffffffff1603612ec0576040517f08c379a0000000000000000000000000000000000000000000000000000000008152600401612eb7906153ca565b60405180910390fd5b612ecd8383836001613623565b8273ffffffffffffffffffffffffffffffffffffffff16612eed82611b35565b73ffffffffffffffffffffffffffffffffffffffff1614612f43576040517f08c379a0000000000000000000000000000000000000000000000000000000008152600401612f3a90615338565b60405180910390fd5b6004600082815260200190815260200160002060006101000a81549073ffffffffffffffffffffffffffffffffffffffff02191690556001600360008573ffffffffffffffffffffffffffffffffffffffff1673ffffffffffffffffffffffffffffffffffffffff168152602001908152602001600020600082825403925050819055506001600360008473ffffffffffffffffffffffffffffffffffffffff1673ffffffffffffffffffffffffffffffffffffffff16815260200190815260200160002060008282540192505081905550816002600083815260200190815260200160002060006101000a81548173ffffffffffffffffffffffffffffffffffffffff021916908373ffffffffffffffffffffffffffffffffffffffff160217905550808273ffffffffffffffffffffffffffffffffffffffff168473ffffffffffffffffffffffffffffffffffffffff167fddf252ad1be2c89b69c2b068fc378daa952ba7f163c4a11628f55a4df523b3ef60405160405180910390a46130cf8383836001613629565b505050565b60006002600083815260200190815260200160002060009054906101000a900473ffffffffffffffffffffffffffffffffffffffff169050919050565b8173ffffffffffffffffffffffffffffffffffffffff168373ffffffffffffffffffffffffffffffffffffffff160361317f576040517f08c379a000000000000000000000000000000000000000000000000000000000815260040161317690615436565b60405180910390fd5b80600560008573ffffffffffffffffffffffffffffffffffffffff1673ffffffffffffffffffffffffffffffffffffffff16815260200190815260200160002060008473ffffffffffffffffffffffffffffffffffffffff1673ffffffffffffffffffffffffffffffffffffffff16815260200190815260200160002060006101000a81548160ff0219169083151502179055508173ffffffffffffffffffffffffffffffffffffffff168373ffffffffffffffffffffffffffffffffffffffff167f17307eab39ab6107e8899845ad3d59bd9653f200f220920489ca2b5937696c31836040516132709190613b9a565b60405180910390a3505050565b600073ffffffffffffffffffffffffffffffffffffffff168273ffffffffffffffffffffffffffffffffffffffff16036132ec576040517f08c379a00000000000000000000000000000000000000000000000000000000081526004016132e3906154a2565b60405180910390fd5b6132f5816135e2565b15613335576040517f08c379a000000000000000000000000000000000000000000000000000000000815260040161332c9061550e565b60405180910390fd5b613343600083836001613623565b61334c816135e2565b1561338c576040517f08c379a00000000000000000000000000000000000000000000000000000000081526004016133839061550e565b60405180910390fd5b6001600360008473ffffffffffffffffffffffffffffffffffffffff1673ffffffffffffffffffffffffffffffffffffffff16815260200190815260200160002060008282540192505081905550816002600083815260200190815260200160002060006101000a81548173ffffffffffffffffffffffffffffffffffffffff021916908373ffffffffffffffffffffffffffffffffffffffff160217905550808273ffffffffffffffffffffffffffffffffffffffff16600073ffffffffffffffffffffffffffffffffffffffff167fddf252ad1be2c89b69c2b068fc378daa952ba7f163c4a11628f55a4df523b3ef60405160405180910390a4613496600083836001613629565b5050565b6134a3826135e2565b6134e2576040517f08c379a00000000000000000000000000000000000000000000000000000000081526004016134d9906155a0565b60405180910390fd5b806006600084815260200190815260200160002090816135029190614ec4565b505050565b613512848484612ddb565b61351e8484848461362f565b61355d576040517f08c379a000000000000000000000000000000000000000000000000000000000815260040161355490615632565b60405180910390fd5b50505050565b606060405180602001604052806000815250905090565b606061358582612c2c565b600061358f613563565b905060008151116135af57604051806020016040528060008152506135da565b806135b9846137b6565b6040516020016135ca9291906152a2565b6040516020818303038152906040525b915050919050565b60008073ffffffffffffffffffffffffffffffffffffffff16613604836130d4565b73ffffffffffffffffffffffffffffffffffffffff1614159050919050565b50505050565b50505050565b60006136508473ffffffffffffffffffffffffffffffffffffffff16613884565b156137a9578373ffffffffffffffffffffffffffffffffffffffff1663150b7a02613679612c77565b8786866040518563ffffffff1660e01b815260040161369b94939291906156a7565b6020604051808303816000875af19250505080156136d757506040513d601f19601f820116820180604052508101906136d49190615708565b60015b613759573d8060008114613707576040519150601f19603f3d011682016040523d82523d6000602084013e61370c565b606091505b506000815103613751576040517f08c379a000000000000000000000000000000000000000000000000000000000815260040161374890615632565b60405180910390fd5b805181602001fd5b63150b7a0260e01b7bffffffffffffffffffffffffffffffffffffffffffffffffffffffff1916817bffffffffffffffffffffffffffffffffffffffffffffffffffffffff1916149150506137ae565b600190505b949350505050565b6060600060016137c5846138a7565b01905060008167ffffffffffffffff8111156137e4576137e361406d565b5b6040519080825280601f01601f1916602001820160405280156138165781602001600182028036833780820191505090505b509050600082602001820190505b600115613879578080600190039150507f3031323334353637383961626364656600000000000000000000000000000000600a86061a8153600a858161386d5761386c615735565b5b04945060008503613824575b819350505050919050565b6000808273ffffffffffffffffffffffffffffffffffffffff163b119050919050565b600080600090507a184f03e93ff9f4daa797ed6e38ed64bf6a1f0100000000000000008310613905577a184f03e93ff9f4daa797ed6e38ed64bf6a1f01000000000000000083816138fb576138fa615735565b5b0492506040810190505b6d04ee2d6d415b85acef81000000008310613942576d04ee2d6d415b85acef8100000000838161393857613937615735565b5b0492506020810190505b662386f26fc10000831061397157662386f26fc10000838161396757613966615735565b5b0492506010810190505b6305f5e100831061399a576305f5e10083816139905761398f615735565b5b0492506008810190505b61271083106139bf5761271083816139b5576139b4615735565b5b0492506004810190505b606483106139e257606483816139d8576139d7615735565b5b0492506002810190505b600a83106139f1576001810190505b80915050919050565b6040518060c001604052806000815260200160608152602001606081526020016060815260200160608152602001600073ffffffffffffffffffffffffffffffffffffffff1681525090565b6040518060a001604052806000815260200160008152602001600073ffffffffffffffffffffffffffffffffffffffff16815260200160608152602001606081525090565b60405180610100016040528060008152602001600081526020016060815260200160608152602001606081526020016000815260200160608152602001600073ffffffffffffffffffffffffffffffffffffffff1681525090565b6000604051905090565b600080fd5b600080fd5b60007fffffffff0000000000000000000000000000000000000000000000000000000082169050919050565b613b2f81613afa565b8114613b3a57600080fd5b50565b600081359050613b4c81613b26565b92915050565b600060208284031215613b6857613b67613af0565b5b6000613b7684828501613b3d565b91505092915050565b60008115159050919050565b613b9481613b7f565b82525050565b6000602082019050613baf6000830184613b8b565b92915050565b600081519050919050565b600082825260208201905092915050565b60005b83811015613bef578082015181840152602081019050613bd4565b60008484015250505050565b6000601f19601f8301169050919050565b6000613c1782613bb5565b613c218185613bc0565b9350613c31818560208601613bd1565b613c3a81613bfb565b840191505092915050565b60006020820190508181036000830152613c5f8184613c0c565b905092915050565b6000819050919050565b613c7a81613c67565b8114613c8557600080fd5b50565b600081359050613c9781613c71565b92915050565b600060208284031215613cb357613cb2613af0565b5b6000613cc184828501613c88565b91505092915050565b600073ffffffffffffffffffffffffffffffffffffffff82169050919050565b6000613cf582613cca565b9050919050565b613d0581613cea565b82525050565b6000602082019050613d206000830184613cfc565b92915050565b613d2f81613cea565b8114613d3a57600080fd5b50565b600081359050613d4c81613d26565b92915050565b60008060408385031215613d6957613d68613af0565b5b6000613d7785828601613d3d565b9250506020613d8885828601613c88565b9150509250929050565b600081519050919050565b600082825260208201905092915050565b6000819050602082019050919050565b613dc781613c67565b82525050565b600082825260208201905092915050565b6000613de982613bb5565b613df38185613dcd565b9350613e03818560208601613bd1565b613e0c81613bfb565b840191505092915050565b613e2081613cea565b82525050565b600060c083016000830151613e3e6000860182613dbe565b5060208301518482036020860152613e568282613dde565b91505060408301518482036040860152613e708282613dde565b91505060608301518482036060860152613e8a8282613dde565b91505060808301518482036080860152613ea48282613dde565b91505060a0830151613eb960a0860182613e17565b508091505092915050565b6000613ed08383613e26565b905092915050565b6000602082019050919050565b6000613ef082613d92565b613efa8185613d9d565b935083602082028501613f0c85613dae565b8060005b85811015613f485784840389528151613f298582613ec4565b9450613f3483613ed8565b925060208a01995050600181019050613f10565b50829750879550505050505092915050565b60006020820190508181036000830152613f748184613ee5565b905092915050565b60008060408385031215613f9357613f92613af0565b5b6000613fa185828601613c88565b9250506020613fb285828601613c88565b9150509250929050565b613fc581613c67565b82525050565b6000602082019050613fe06000830184613fbc565b92915050565b600060c082019050613ffb6000830189613fbc565b818103602083015261400d8188613c0c565b905081810360408301526140218187613c0c565b905081810360608301526140358186613c0c565b905081810360808301526140498185613c0c565b905061405860a0830184613cfc565b979650505050505050565b600080fd5b600080fd5b7f4e487b7100000000000000000000000000000000000000000000000000000000600052604160045260246000fd5b6140a582613bfb565b810181811067ffffffffffffffff821117156140c4576140c361406d565b5b80604052505050565b60006140d7613ae6565b90506140e3828261409c565b919050565b600067ffffffffffffffff8211156141035761410261406d565b5b61410c82613bfb565b9050602081019050919050565b82818337600083830152505050565b600061413b614136846140e8565b6140cd565b90508281526020810184848401111561415757614156614068565b5b614162848285614119565b509392505050565b600082601f83011261417f5761417e614063565b5b813561418f848260208601614128565b91505092915050565b600080600080608085870312156141b2576141b1613af0565b5b600085013567ffffffffffffffff8111156141d0576141cf613af5565b5b6141dc8782880161416a565b945050602085013567ffffffffffffffff8111156141fd576141fc613af5565b5b6142098782880161416a565b935050604085013567ffffffffffffffff81111561422a57614229613af5565b5b6142368782880161416a565b925050606085013567ffffffffffffffff81111561425757614256613af5565b5b6142638782880161416a565b91505092959194509250565b60008060006060848603121561428857614287613af0565b5b600061429686828701613d3d565b93505060206142a786828701613d3d565b92505060406142b886828701613c88565b9150509250925092565b600081519050919050565b600082825260208201905092915050565b6000819050602082019050919050565b600060a0830160008301516143066000860182613dbe565b5060208301516143196020860182613dbe565b50604083015161432c6040860182613e17565b50606083015184820360608601526143448282613dde565b9150506080830151848203608086015261435e8282613dde565b9150508091505092915050565b600061437783836142ee565b905092915050565b6000602082019050919050565b6000614397826142c2565b6143a181856142cd565b9350836020820285016143b3856142de565b8060005b858110156143ef57848403895281516143d0858261436b565b94506143db8361437f565b925060208a019950506001810190506143b7565b50829750879550505050505092915050565b6000602082019050818103600083015261441b818461438c565b905092915050565b600081519050919050565b600082825260208201905092915050565b6000819050602082019050919050565b6000610100830160008301516144686000860182613dbe565b50602083015161447b6020860182613dbe565b50604083015184820360408601526144938282613dde565b915050606083015184820360608601526144ad8282613dde565b915050608083015184820360808601526144c78282613dde565b91505060a08301516144dc60a0860182613dbe565b5060c083015184820360c08601526144f48282613dde565b91505060e083015161450960e0860182613e17565b508091505092915050565b6000614520838361444f565b905092915050565b6000602082019050919050565b600061454082614423565b61454a818561442e565b93508360208202850161455c8561443f565b8060005b8581101561459857848403895281516145798582614514565b945061458483614528565b925060208a01995050600181019050614560565b50829750879550505050505092915050565b600060208201905081810360008301526145c48184614535565b905092915050565b600060a0830160008301516145e46000860182613dbe565b5060208301516145f76020860182613dbe565b50604083015161460a6040860182613e17565b50606083015184820360608601526146228282613dde565b9150506080830151848203608086015261463c8282613dde565b9150508091505092915050565b6000604082019050818103600083015261466381856145cc565b90506146726020830184613b8b565b9392505050565b60006020828403121561468f5761468e613af0565b5b600061469d84828501613d3d565b91505092915050565b60008060008060008060c087890312156146c3576146c2613af0565b5b60006146d189828a01613c88565b965050602087013567ffffffffffffffff8111156146f2576146f1613af5565b5b6146fe89828a0161416a565b955050604087013567ffffffffffffffff81111561471f5761471e613af5565b5b61472b89828a0161416a565b945050606087013567ffffffffffffffff81111561474c5761474b613af5565b5b61475889828a0161416a565b935050608061476989828a01613c88565b92505060a087013567ffffffffffffffff81111561478a57614789613af5565b5b61479689828a0161416a565b9150509295509295509295565b600060c0830160008301516147bb6000860182613dbe565b50602083015184820360208601526147d38282613dde565b915050604083015184820360408601526147ed8282613dde565b915050606083015184820360608601526148078282613dde565b915050608083015184820360808601526148218282613dde565b91505060a083015161483660a0860182613e17565b508091505092915050565b6000602082019050818103600083015261485b81846147a3565b905092915050565b61486c81613b7f565b811461487757600080fd5b50565b60008135905061488981614863565b92915050565b600080604083850312156148a6576148a5613af0565b5b60006148b485828601613d3d565b92505060206148c58582860161487a565b9150509250929050565b600080600080608085870312156148e9576148e8613af0565b5b600085013567ffffffffffffffff81111561490757614906613af5565b5b6149138782880161416a565b945050602061492487828801613c88565b935050604085013567ffffffffffffffff81111561494557614944613af5565b5b6149518782880161416a565b925050606085013567ffffffffffffffff81111561497257614971613af5565b5b61497e8782880161416a565b91505092959194509250565b600067ffffffffffffffff8211156149a5576149a461406d565b5b6149ae82613bfb565b9050602081019050919050565b60006149ce6149c98461498a565b6140cd565b9050828152602081018484840111156149ea576149e9614068565b5b6149f5848285614119565b509392505050565b600082601f830112614a1257614a11614063565b5b8135614a228482602086016149bb565b91505092915050565b60008060008060808587031215614a4557614a44613af0565b5b6000614a5387828801613d3d565b9450506020614a6487828801613d3d565b9350506040614a7587828801613c88565b925050606085013567ffffffffffffffff811115614a9657614a95613af5565b5b614aa2878288016149fd565b91505092959194509250565b60008060408385031215614ac557614ac4613af0565b5b6000614ad385828601613d3d565b9250506020614ae485828601613d3d565b9150509250929050565b7f4e487b7100000000000000000000000000000000000000000000000000000000600052602260045260246000fd5b60006002820490506001821680614b3557607f821691505b602082108103614b4857614b47614aee565b5b50919050565b7f4552433732313a20617070726f76616c20746f2063757272656e74206f776e6560008201527f7200000000000000000000000000000000000000000000000000000000000000602082015250565b6000614baa602183613bc0565b9150614bb582614b4e565b604082019050919050565b60006020820190508181036000830152614bd981614b9d565b9050919050565b7f4552433732313a20617070726f76652063616c6c6572206973206e6f7420746f60008201527f6b656e206f776e6572206f7220617070726f76656420666f7220616c6c000000602082015250565b6000614c3c603d83613bc0565b9150614c4782614be0565b604082019050919050565b60006020820190508181036000830152614c6b81614c2f565b9050919050565b7f4e487b7100000000000000000000000000000000000000000000000000000000600052603260045260246000fd5b7f4e487b7100000000000000000000000000000000000000000000000000000000600052601160045260246000fd5b6000614cdb82613c67565b91507fffffffffffffffffffffffffffffffffffffffffffffffffffffffffffffffff8203614d0d57614d0c614ca1565b5b600182019050919050565b60008190508160005260206000209050919050565b60006020601f8301049050919050565b600082821b905092915050565b600060088302614d7a7fffffffffffffffffffffffffffffffffffffffffffffffffffffffffffffffff82614d3d565b614d848683614d3d565b95508019841693508086168417925050509392505050565b6000819050919050565b6000614dc1614dbc614db784613c67565b614d9c565b613c67565b9050919050565b6000819050919050565b614ddb83614da6565b614def614de782614dc8565b848454614d4a565b825550505050565b600090565b614e04614df7565b614e0f818484614dd2565b505050565b5b81811015614e3357614e28600082614dfc565b600181019050614e15565b5050565b601f821115614e7857614e4981614d18565b614e5284614d2d565b81016020851015614e61578190505b614e75614e6d85614d2d565b830182614e14565b50505b505050565b600082821c905092915050565b6000614e9b60001984600802614e7d565b1980831691505092915050565b6000614eb48383614e8a565b9150826002028217905092915050565b614ecd82613bb5565b67ffffffffffffffff811115614ee657614ee561406d565b5b614ef08254614b1d565b614efb828285614e37565b600060209050601f831160018114614f2e5760008415614f1c578287015190505b614f268582614ea8565b865550614f8e565b601f198416614f3c86614d18565b60005b82811015614f6457848901518255600182019150602085019450602081019050614f3f565b86831015614f815784890151614f7d601f891682614e8a565b8355505b6001600288020188555050505b505050505050565b7f4552433732313a2063616c6c6572206973206e6f7420746f6b656e206f776e6560008201527f72206f7220617070726f76656400000000000000000000000000000000000000602082015250565b6000614ff2602d83613bc0565b9150614ffd82614f96565b604082019050919050565b6000602082019050818103600083015261502181614fe5565b9050919050565b7f4552433732313a20696e76616c696420746f6b656e2049440000000000000000600082015250565b600061505e601883613bc0565b915061506982615028565b602082019050919050565b6000602082019050818103600083015261508d81615051565b9050919050565b7f4552433732313a2061646472657373207a65726f206973206e6f74206120766160008201527f6c6964206f776e65720000000000000000000000000000000000000000000000602082015250565b60006150f0602983613bc0565b91506150fb82615094565b604082019050919050565b6000602082019050818103600083015261511f816150e3565b9050919050565b7f4e6f207065726d697373696f6e20746f206372656174652061206d61726b6574600082015250565b600061515c602083613bc0565b915061516782615126565b602082019050919050565b6000602082019050818103600083015261518b8161514f565b9050919050565b7f4973204372656174656400000000000000000000000000000000000000000000600082015250565b60006151c8600a83613bc0565b91506151d382615192565b602082019050919050565b600060208201905081810360008301526151f7816151bb565b9050919050565b600061520982613c67565b915061521483613c67565b925082820390508181111561522c5761522b614ca1565b5b92915050565b600061523d82613c67565b915061524883613c67565b92508282019050808211156152605761525f614ca1565b5b92915050565b600081905092915050565b600061527c82613bb5565b6152868185615266565b9350615296818560208601613bd1565b80840191505092915050565b60006152ae8285615271565b91506152ba8284615271565b91508190509392505050565b7f4552433732313a207472616e736665722066726f6d20696e636f72726563742060008201527f6f776e6572000000000000000000000000000000000000000000000000000000602082015250565b6000615322602583613bc0565b915061532d826152c6565b604082019050919050565b6000602082019050818103600083015261535181615315565b9050919050565b7f4552433732313a207472616e7366657220746f20746865207a65726f2061646460008201527f7265737300000000000000000000000000000000000000000000000000000000602082015250565b60006153b4602483613bc0565b91506153bf82615358565b604082019050919050565b600060208201905081810360008301526153e3816153a7565b9050919050565b7f4552433732313a20617070726f766520746f2063616c6c657200000000000000600082015250565b6000615420601983613bc0565b915061542b826153ea565b602082019050919050565b6000602082019050818103600083015261544f81615413565b9050919050565b7f4552433732313a206d696e7420746f20746865207a65726f2061646472657373600082015250565b600061548c602083613bc0565b915061549782615456565b602082019050919050565b600060208201905081810360008301526154bb8161547f565b9050919050565b7f4552433732313a20746f6b656e20616c7265616479206d696e74656400000000600082015250565b60006154f8601c83613bc0565b9150615503826154c2565b602082019050919050565b60006020820190508181036000830152615527816154eb565b9050919050565b7f45524337323155524953746f726167653a2055524920736574206f66206e6f6e60008201527f6578697374656e7420746f6b656e000000000000000000000000000000000000602082015250565b600061558a602e83613bc0565b91506155958261552e565b604082019050919050565b600060208201905081810360008301526155b98161557d565b9050919050565b7f4552433732313a207472616e7366657220746f206e6f6e20455243373231526560008201527f63656976657220696d706c656d656e7465720000000000000000000000000000602082015250565b600061561c603283613bc0565b9150615627826155c0565b604082019050919050565b6000602082019050818103600083015261564b8161560f565b9050919050565b600081519050919050565b600082825260208201905092915050565b600061567982615652565b615683818561565d565b9350615693818560208601613bd1565b61569c81613bfb565b840191505092915050565b60006080820190506156bc6000830187613cfc565b6156c96020830186613cfc565b6156d66040830185613fbc565b81810360608301526156e8818461566e565b905095945050505050565b60008151905061570281613b26565b92915050565b60006020828403121561571e5761571d613af0565b5b600061572c848285016156f3565b91505092915050565b7f4e487b7100000000000000000000000000000000000000000000000000000000600052601260045260246000fdfea2646970667358221220232814c3db8d17241c3313971966e17d3b971500f07654bf32406ab8cc4d491064736f6c63430008110033",
  "linkReferences": {},
  "deployedLinkReferences": {}
}