{
  "_format": "hh-sol-artifact-1",
  "contractName": "ContainerNode",
  "sourceName": "contracts/oracle/Node.sol",
  "abi": [
    {
      "inputs": [
        {
          "internalType": "address",
          "name": "_link_token_address",
          "type": "address"
        }
      ],
      "stateMutability": "nonpayable",
      "type": "constructor"
    },
    {
      "anonymous": false,
      "inputs": [
        {
          "indexed": true,
          "internalType": "bytes32",
          "name": "id",
          "type": "bytes32"
        }
      ],
      "name": "ChainlinkCancelled",
      "type": "event"
    },
    {
      "anonymous": false,
      "inputs": [
        {
          "indexed": true,
          "internalType": "bytes32",
          "name": "id",
          "type": "bytes32"
        }
      ],
      "name": "ChainlinkFulfilled",
      "type": "event"
    },
    {
      "anonymous": false,
      "inputs": [
        {
          "indexed": true,
          "internalType": "bytes32",
          "name": "id",
          "type": "bytes32"
        }
      ],
      "name": "ChainlinkRequested",
      "type": "event"
    },
    {
      "anonymous": false,
      "inputs": [
        {
          "indexed": true,
          "internalType": "address",
          "name": "from",
          "type": "address"
        },
        {
          "indexed": true,
          "internalType": "address",
          "name": "to",
          "type": "address"
        }
      ],
      "name": "OwnershipTransferRequested",
      "type": "event"
    },
    {
      "anonymous": false,
      "inputs": [
        {
          "indexed": true,
          "internalType": "address",
          "name": "from",
          "type": "address"
        },
        {
          "indexed": true,
          "internalType": "address",
          "name": "to",
          "type": "address"
        }
      ],
      "name": "OwnershipTransferred",
      "type": "event"
    },
    {
      "anonymous": false,
      "inputs": [
        {
          "indexed": true,
          "internalType": "bytes32",
          "name": "requestId",
          "type": "bytes32"
        },
        {
          "indexed": true,
          "internalType": "string",
          "name": "nodeListRawJson",
          "type": "string"
        }
      ],
      "name": "RequestNodeListFulfilled",
      "type": "event"
    },
    {
      "anonymous": false,
      "inputs": [
        {
          "indexed": true,
          "internalType": "bytes32",
          "name": "requestId",
          "type": "bytes32"
        },
        {
          "indexed": true,
          "internalType": "string",
          "name": "nodeSchedulingStatusRawJson",
          "type": "string"
        }
      ],
      "name": "RequestNodeSchedulingStatusFulfilled",
      "type": "event"
    },
    {
      "inputs": [],
      "name": "ACCESS_CONTROL",
      "outputs": [
        {
          "internalType": "address",
          "name": "",
          "type": "address"
        }
      ],
      "stateMutability": "view",
      "type": "function"
    },
    {
      "inputs": [],
      "name": "acceptOwnership",
      "outputs": [],
      "stateMutability": "nonpayable",
      "type": "function"
    },
    {
      "inputs": [
        {
          "internalType": "bytes32",
          "name": "_requestId",
          "type": "bytes32"
        },
        {
          "internalType": "uint256",
          "name": "_payment",
          "type": "uint256"
        },
        {
          "internalType": "bytes4",
          "name": "_callbackFunctionId",
          "type": "bytes4"
        },
        {
          "internalType": "uint256",
          "name": "_expiration",
          "type": "uint256"
        }
      ],
      "name": "cancelRequest",
      "outputs": [],
      "stateMutability": "nonpayable",
      "type": "function"
    },
    {
      "inputs": [
        {
          "internalType": "string",
          "name": "",
          "type": "string"
        }
      ],
      "name": "currentNodeListResult",
      "outputs": [
        {
          "internalType": "string",
          "name": "",
          "type": "string"
        }
      ],
      "stateMutability": "view",
      "type": "function"
    },
    {
      "inputs": [
        {
          "internalType": "string",
          "name": "",
          "type": "string"
        }
      ],
      "name": "currentNodeSchedulingStatusMap",
      "outputs": [
        {
          "internalType": "string",
          "name": "",
          "type": "string"
        }
      ],
      "stateMutability": "view",
      "type": "function"
    },
    {
      "inputs": [
        {
          "internalType": "string",
          "name": "",
          "type": "string"
        }
      ],
      "name": "currentNodeSchedulingStatusResult",
      "outputs": [
        {
          "internalType": "string",
          "name": "",
          "type": "string"
        }
      ],
      "stateMutability": "view",
      "type": "function"
    },
    {
      "inputs": [
        {
          "internalType": "string",
          "name": "_node_scheduling_status_cid",
          "type": "string"
        },
        {
          "internalType": "string",
          "name": "_cid_update_timestamp",
          "type": "string"
        }
      ],
      "name": "fulfillAllNodeSchedulingStatus",
      "outputs": [],
      "stateMutability": "nonpayable",
      "type": "function"
    },
    {
      "inputs": [
        {
          "internalType": "bytes32",
          "name": "_requestId",
          "type": "bytes32"
        },
        {
          "internalType": "string",
          "name": "_node_list_cid",
          "type": "string"
        },
        {
          "internalType": "string",
          "name": "_cid_update_timestamp",
          "type": "string"
        }
      ],
      "name": "fulfillNodeList",
      "outputs": [],
      "stateMutability": "nonpayable",
      "type": "function"
    },
    {
      "inputs": [
        {
          "internalType": "bytes32",
          "name": "_requestId",
          "type": "bytes32"
        },
        {
          "internalType": "string",
          "name": "_name",
          "type": "string"
        },
        {
          "internalType": "string",
          "name": "_data",
          "type": "string"
        }
      ],
      "name": "fulfillNodeSchedulingStatus",
      "outputs": [],
      "stateMutability": "nonpayable",
      "type": "function"
    },
    {
      "inputs": [],
      "name": "getChainlinkToken",
      "outputs": [
        {
          "internalType": "address",
          "name": "",
          "type": "address"
        }
      ],
      "stateMutability": "view",
      "type": "function"
    },
    {
      "inputs": [],
      "name": "owner",
      "outputs": [
        {
          "internalType": "address",
          "name": "",
          "type": "address"
        }
      ],
      "stateMutability": "view",
      "type": "function"
    },
    {
      "inputs": [
        {
          "internalType": "address",
          "name": "_oracle",
          "type": "address"
        },
        {
          "internalType": "string",
          "name": "_jobId",
          "type": "string"
        },
        {
          "internalType": "string",
          "name": "_request_url",
          "type": "string"
        }
      ],
      "name": "requestContainerNodeCordon",
      "outputs": [],
      "stateMutability": "nonpayable",
      "type": "function"
    },
    {
      "inputs": [
        {
          "internalType": "address",
          "name": "_oracle",
          "type": "address"
        },
        {
          "internalType": "string",
          "name": "_jobId",
          "type": "string"
        },
        {
          "internalType": "string",
          "name": "_request_url",
          "type": "string"
        }
      ],
      "name": "requestContainerNodeUncordon",
      "outputs": [],
      "stateMutability": "nonpayable",
      "type": "function"
    },
    {
      "inputs": [
        {
          "internalType": "address",
          "name": "_oracle",
          "type": "address"
        },
        {
          "internalType": "string",
          "name": "_jobId",
          "type": "string"
        },
        {
          "internalType": "string",
          "name": "_page",
          "type": "string"
        },
        {
          "internalType": "string",
          "name": "_limit",
          "type": "string"
        },
        {
          "internalType": "string",
          "name": "_request_url",
          "type": "string"
        }
      ],
      "name": "requestNodeList",
      "outputs": [],
      "stateMutability": "nonpayable",
      "type": "function"
    },
    {
      "inputs": [
        {
          "internalType": "address",
          "name": "to",
          "type": "address"
        }
      ],
      "name": "transferOwnership",
      "outputs": [],
      "stateMutability": "nonpayable",
      "type": "function"
    },
    {
      "inputs": [],
      "name": "withdrawLink",
      "outputs": [],
      "stateMutability": "nonpayable",
      "type": "function"
    }
  ],
  "bytecode": "0x608060405260016004557393d30f8dcfd09fe8b1669320e81c459925e05835600860006101000a81548173ffffffffffffffffffffffffffffffffffffffff021916908373ffffffffffffffffffffffffffffffffffffffff1602179055503480156200006b57600080fd5b506040516200312738038062003127833981810160405281019062000091919062000388565b338060008073ffffffffffffffffffffffffffffffffffffffff168273ffffffffffffffffffffffffffffffffffffffff160362000106576040517f08c379a0000000000000000000000000000000000000000000000000000000008152600401620000fd906200041b565b60405180910390fd5b81600660006101000a81548173ffffffffffffffffffffffffffffffffffffffff021916908373ffffffffffffffffffffffffffffffffffffffff160217905550600073ffffffffffffffffffffffffffffffffffffffff168173ffffffffffffffffffffffffffffffffffffffff16146200018e576200018d81620001a960201b60201c565b5b505050620001a281620002da60201b60201c565b50620004af565b3373ffffffffffffffffffffffffffffffffffffffff168173ffffffffffffffffffffffffffffffffffffffff16036200021a576040517f08c379a000000000000000000000000000000000000000000000000000000000815260040162000211906200048d565b60405180910390fd5b80600760006101000a81548173ffffffffffffffffffffffffffffffffffffffff021916908373ffffffffffffffffffffffffffffffffffffffff1602179055508073ffffffffffffffffffffffffffffffffffffffff16600660009054906101000a900473ffffffffffffffffffffffffffffffffffffffff1673ffffffffffffffffffffffffffffffffffffffff167fed8889f560326eb138920d842192f0eb3dd22b4f139c87a2c57538e05bae127860405160405180910390a350565b80600260006101000a81548173ffffffffffffffffffffffffffffffffffffffff021916908373ffffffffffffffffffffffffffffffffffffffff16021790555050565b600080fd5b600073ffffffffffffffffffffffffffffffffffffffff82169050919050565b6000620003508262000323565b9050919050565b620003628162000343565b81146200036e57600080fd5b50565b600081519050620003828162000357565b92915050565b600060208284031215620003a157620003a06200031e565b5b6000620003b18482850162000371565b91505092915050565b600082825260208201905092915050565b7f43616e6e6f7420736574206f776e657220746f207a65726f0000000000000000600082015250565b600062000403601883620003ba565b91506200041082620003cb565b602082019050919050565b600060208201905081810360008301526200043681620003f4565b9050919050565b7f43616e6e6f74207472616e7366657220746f2073656c66000000000000000000600082015250565b600062000475601783620003ba565b915062000482826200043d565b602082019050919050565b60006020820190508181036000830152620004a88162000466565b9050919050565b612c6880620004bf6000396000f3fe608060405234801561001057600080fd5b50600436106101005760003560e01c80638c832b7a11610097578063cac812e511610066578063cac812e51461025f578063ebd676b91461027b578063ec65d0f8146102ab578063f2fde38b146102c757610100565b80638c832b7a146101e95780638da5cb5b146102195780638dc654a2146102375780639269db361461024157610100565b80635f8757dd116100d35780635f8757dd1461018b5780636bb3e7b9146101a7578063779d8e62146101c357806379ba5097146101df57610100565b8063165d35e1146101055780632163ff981461012357806339605f021461013f57806340c546901461016f575b600080fd5b61010d6102e3565b60405161011a9190611b23565b60405180910390f35b61013d60048036038101906101389190611cc4565b6102f2565b005b61015960048036038101906101549190611d4f565b61038c565b6040516101669190611e20565b60405180910390f35b61018960048036038101906101849190611e78565b610442565b005b6101a560048036038101906101a09190611cc4565b6105fd565b005b6101c160048036038101906101bc9190611f03565b610697565b005b6101dd60048036038101906101d89190611e78565b610708565b005b6101e7610894565b005b61020360048036038101906101fe9190611d4f565b610a2b565b6040516102109190611e20565b60405180910390f35b610221610ae1565b60405161022e9190611b23565b60405180910390f35b61023f610b0b565b005b610249610c58565b6040516102569190611b23565b60405180910390f35b61027960048036038101906102749190611f7b565b610c7e565b005b61029560048036038101906102909190611d4f565b610dae565b6040516102a29190611e20565b60405180910390f35b6102c560048036038101906102c091906120f4565b610e64565b005b6102e160048036038101906102dc919061215b565b610e7e565b005b60006102ed610e92565b905090565b600061030e61030084610ebc565b3063779d8e6260e01b610ee5565b905061035a6040518060400160405280600381526020017f61706900000000000000000000000000000000000000000000000000000000008152508383610f169092919063ffffffff16565b6103858482600a670de0b6b3a7640000600161037691906121b7565b6103809190612240565b610f49565b5050505050565b600a8180516020810182018051848252602083016020850120818352809550505050505060009150905080546103c1906122a0565b80601f01602080910402602001604051908101604052809291908181526020018280546103ed906122a0565b801561043a5780601f1061040f5761010080835404028352916020019161043a565b820191906000526020600020905b81548152906001019060200180831161041d57829003601f168201915b505050505081565b826005600082815260200190815260200160002060009054906101000a900473ffffffffffffffffffffffffffffffffffffffff1673ffffffffffffffffffffffffffffffffffffffff163373ffffffffffffffffffffffffffffffffffffffff16146104e4576040517f08c379a00000000000000000000000000000000000000000000000000000000081526004016104db90612343565b60405180910390fd5b6005600082815260200190815260200160002060006101000a81549073ffffffffffffffffffffffffffffffffffffffff0219169055807f7cc135e0cebb02c3480ae5d74d377283180a2601f8f644edf7987b009316c63a60405160405180910390a282604051610555919061239f565b6040518091039020847faff6d09d7f45e43981642c617a7a7e047992ff99715936d23b46fad8b6ca466260405160405180910390a36000835111156105f7578260096040516105a390612402565b908152602001604051809103902090805190602001906105c49291906119b8565b508160096040516105d490612463565b908152602001604051809103902090805190602001906105f59291906119b8565b505b50505050565b600061061961060b84610ebc565b3063779d8e6260e01b610ee5565b90506106656040518060400160405280600381526020017f61706900000000000000000000000000000000000000000000000000000000008152508383610f169092919063ffffffff16565b6106908482600a670de0b6b3a7640000600161068191906121b7565b61068b9190612240565b610f49565b5050505050565b6000825111156107045781600b6040516106b090612402565b908152602001604051809103902090805190602001906106d19291906119b8565b5080600b6040516106e190612463565b908152602001604051809103902090805190602001906107029291906119b8565b505b5050565b826005600082815260200190815260200160002060009054906101000a900473ffffffffffffffffffffffffffffffffffffffff1673ffffffffffffffffffffffffffffffffffffffff163373ffffffffffffffffffffffffffffffffffffffff16146107aa576040517f08c379a00000000000000000000000000000000000000000000000000000000081526004016107a190612343565b60405180910390fd5b6005600082815260200190815260200160002060006101000a81549073ffffffffffffffffffffffffffffffffffffffff0219169055807f7cc135e0cebb02c3480ae5d74d377283180a2601f8f644edf7987b009316c63a60405160405180910390a28160405161081b919061239f565b6040518091039020847fb9e0c3ef6d4cf9f2644c87e7b06a5604578588bfd8f3f151ad98e16b107415f160405160405180910390a360008351111561088e5781600a8460405161086b919061239f565b9081526020016040518091039020908051906020019061088c9291906119b8565b505b50505050565b600760009054906101000a900473ffffffffffffffffffffffffffffffffffffffff1673ffffffffffffffffffffffffffffffffffffffff163373ffffffffffffffffffffffffffffffffffffffff1614610924576040517f08c379a000000000000000000000000000000000000000000000000000000000815260040161091b906124c4565b60405180910390fd5b6000600660009054906101000a900473ffffffffffffffffffffffffffffffffffffffff16905033600660006101000a81548173ffffffffffffffffffffffffffffffffffffffff021916908373ffffffffffffffffffffffffffffffffffffffff1602179055506000600760006101000a81548173ffffffffffffffffffffffffffffffffffffffff021916908373ffffffffffffffffffffffffffffffffffffffff1602179055503373ffffffffffffffffffffffffffffffffffffffff168173ffffffffffffffffffffffffffffffffffffffff167f8be0079c531659141344cd1fd0a4f28419497f9722a3daafe3b4186f6b6457e060405160405180910390a350565b6009818051602081018201805184825260208301602085012081835280955050505050506000915090508054610a60906122a0565b80601f0160208091040260200160405190810160405280929190818152602001828054610a8c906122a0565b8015610ad95780601f10610aae57610100808354040283529160200191610ad9565b820191906000526020600020905b815481529060010190602001808311610abc57829003601f168201915b505050505081565b6000600660009054906101000a900473ffffffffffffffffffffffffffffffffffffffff16905090565b610b13611015565b6000610b1d610e92565b90508073ffffffffffffffffffffffffffffffffffffffff1663a9059cbb338373ffffffffffffffffffffffffffffffffffffffff166370a08231306040518263ffffffff1660e01b8152600401610b759190611b23565b602060405180830381865afa158015610b92573d6000803e3d6000fd5b505050506040513d601f19601f82011682018060405250810190610bb691906124f9565b6040518363ffffffff1660e01b8152600401610bd3929190612535565b6020604051808303816000875af1158015610bf2573d6000803e3d6000fd5b505050506040513d601f19601f82011682018060405250810190610c169190612596565b610c55576040517f08c379a0000000000000000000000000000000000000000000000000000000008152600401610c4c9061260f565b60405180910390fd5b50565b600860009054906101000a900473ffffffffffffffffffffffffffffffffffffffff1681565b6000610c9a610c8c86610ebc565b306340c5469060e01b610ee5565b9050610ce66040518060400160405280600381526020017f61706900000000000000000000000000000000000000000000000000000000008152508383610f169092919063ffffffff16565b610d306040518060400160405280600481526020017f70616765000000000000000000000000000000000000000000000000000000008152508583610f169092919063ffffffff16565b610d7a6040518060400160405280600581526020017f6c696d69740000000000000000000000000000000000000000000000000000008152508483610f169092919063ffffffff16565b610da58682600a670de0b6b3a76400006001610d9691906121b7565b610da09190612240565b610f49565b50505050505050565b600b818051602081018201805184825260208301602085012081835280955050505050506000915090508054610de3906122a0565b80601f0160208091040260200160405190810160405280929190818152602001828054610e0f906122a0565b8015610e5c5780601f10610e3157610100808354040283529160200191610e5c565b820191906000526020600020905b815481529060010190602001808311610e3f57829003601f168201915b505050505081565b610e6c611015565b610e78848484846110a7565b50505050565b610e86611015565b610e8f816111ba565b50565b6000600260009054906101000a900473ffffffffffffffffffffffffffffffffffffffff16905090565b6000808290506000815103610ed7576000801b915050610ee0565b60208301519150505b919050565b610eed611a3e565b610ef5611a3e565b610f0c858585846112e8909392919063ffffffff16565b9150509392505050565b610f2d82846080015161139890919063ffffffff16565b610f4481846080015161139890919063ffffffff16565b505050565b6000806004549050600181610f5e919061262f565b6004819055506000634042994660e01b60008087600001513089604001518760018c6080015160000151604051602401610f9f9897969594939291906126f8565b604051602081830303815290604052907bffffffffffffffffffffffffffffffffffffffffffffffffffffffff19166020820180517bffffffffffffffffffffffffffffffffffffffffffffffffffffffff8381831617835250505050905061100a868386846113bd565b925050509392505050565b600660009054906101000a900473ffffffffffffffffffffffffffffffffffffffff1673ffffffffffffffffffffffffffffffffffffffff163373ffffffffffffffffffffffffffffffffffffffff16146110a5576040517f08c379a000000000000000000000000000000000000000000000000000000000815260040161109c906127c9565b60405180910390fd5b565b60006005600086815260200190815260200160002060009054906101000a900473ffffffffffffffffffffffffffffffffffffffff1690506005600086815260200190815260200160002060006101000a81549073ffffffffffffffffffffffffffffffffffffffff0219169055847fe1fe3afa0f7f761ff0a8b89086790efd5140d2907ebd5b7ff6bfcb5e075fd4c560405160405180910390a28073ffffffffffffffffffffffffffffffffffffffff16636ee4d553868686866040518563ffffffff1660e01b815260040161118194939291906127e9565b600060405180830381600087803b15801561119b57600080fd5b505af11580156111af573d6000803e3d6000fd5b505050505050505050565b3373ffffffffffffffffffffffffffffffffffffffff168173ffffffffffffffffffffffffffffffffffffffff1603611228576040517f08c379a000000000000000000000000000000000000000000000000000000000815260040161121f9061287a565b60405180910390fd5b80600760006101000a81548173ffffffffffffffffffffffffffffffffffffffff021916908373ffffffffffffffffffffffffffffffffffffffff1602179055508073ffffffffffffffffffffffffffffffffffffffff16600660009054906101000a900473ffffffffffffffffffffffffffffffffffffffff1673ffffffffffffffffffffffffffffffffffffffff167fed8889f560326eb138920d842192f0eb3dd22b4f139c87a2c57538e05bae127860405160405180910390a350565b6112f0611a3e565b6113008560800151610100611552565b508385600001818152505082856020019073ffffffffffffffffffffffffffffffffffffffff16908173ffffffffffffffffffffffffffffffffffffffff16815250508185604001907bffffffffffffffffffffffffffffffffffffffffffffffffffffffff191690817bffffffffffffffffffffffffffffffffffffffffffffffffffffffff191681525050849050949350505050565b6113a582600383516115bc565b6113b8818361174190919063ffffffff16565b505050565b600030846040516020016113d2929190612953565b604051602081830303815290604052805190602001209050846005600083815260200190815260200160002060006101000a81548173ffffffffffffffffffffffffffffffffffffffff021916908373ffffffffffffffffffffffffffffffffffffffff160217905550807fb5e6e01e79f91267dc17b4e6314d5d4d03593d2ceee0fbb452b750bd70ea5af960405160405180910390a2600260009054906101000a900473ffffffffffffffffffffffffffffffffffffffff1673ffffffffffffffffffffffffffffffffffffffff16634000aea08685856040518463ffffffff1660e01b81526004016114c89392919061297f565b6020604051808303816000875af11580156114e7573d6000803e3d6000fd5b505050506040513d601f19601f8201168201806040525081019061150b9190612596565b61154a576040517f08c379a000000000000000000000000000000000000000000000000000000000815260040161154190612a2f565b60405180910390fd5b949350505050565b61155a611aab565b60006020836115699190612a4f565b146115955760208261157b9190612a4f565b60206115879190612a80565b82611592919061262f565b91505b81836020018181525050604051808452600081528281016020016040525082905092915050565b60178167ffffffffffffffff16116115f3576115ed8160058460ff16901b60ff16178461176390919063ffffffff16565b5061173c565b60ff8167ffffffffffffffff161161164957611622601860058460ff16901b178461176390919063ffffffff16565b506116438167ffffffffffffffff166001856117839092919063ffffffff16565b5061173b565b61ffff8167ffffffffffffffff16116116a057611679601960058460ff16901b178461176390919063ffffffff16565b5061169a8167ffffffffffffffff166002856117839092919063ffffffff16565b5061173a565b63ffffffff8167ffffffffffffffff16116116f9576116d2601a60058460ff16901b178461176390919063ffffffff16565b506116f38167ffffffffffffffff166004856117839092919063ffffffff16565b50611739565b611716601b60058460ff16901b178461176390919063ffffffff16565b506117378167ffffffffffffffff166008856117839092919063ffffffff16565b505b5b5b5b505050565b611749611aab565b61175b838460000151518485516117a5565b905092915050565b61176b611aab565b61177b8384600001515184611894565b905092915050565b61178b611aab565b61179c8485600001515185856118ea565b90509392505050565b6117ad611aab565b82518211156117bb57600080fd5b846020015182856117cc919061262f565b1115611801576118008560026117f1886020015188876117ec919061262f565b611978565b6117fb91906121b7565b611994565b5b6000808651805187602083010193508088870111156118205787860182525b60208701925050505b602084106118675780518252602082611842919061262f565b9150602081611851919061262f565b90506020846118609190612a80565b9350611829565b60006001856020036101000a03905080198251168184511681811785525050508692505050949350505050565b61189c611aab565b836020015183106118c2576118c184600286602001516118bc91906121b7565b611994565b5b835180516020858301018481538186036118dd576001820183525b5050508390509392505050565b6118f2611aab565b84602001518483611903919061262f565b111561192b5761192a856002868561191b919061262f565b61192591906121b7565b611994565b5b600060018361010061193d9190612be7565b6119479190612a80565b9050855183868201018583198251161781528151858801111561196a5784870182525b505085915050949350505050565b60008183111561198a5782905061198e565b8190505b92915050565b6000826000015190506119a78383611552565b506119b28382611741565b50505050565b8280546119c4906122a0565b90600052602060002090601f0160209004810192826119e65760008555611a2d565b82601f106119ff57805160ff1916838001178555611a2d565b82800160010185558215611a2d579182015b82811115611a2c578251825591602001919060010190611a11565b5b509050611a3a9190611ac5565b5090565b6040518060a0016040528060008019168152602001600073ffffffffffffffffffffffffffffffffffffffff16815260200160007bffffffffffffffffffffffffffffffffffffffffffffffffffffffff1916815260200160008152602001611aa5611aab565b81525090565b604051806040016040528060608152602001600081525090565b5b80821115611ade576000816000905550600101611ac6565b5090565b600073ffffffffffffffffffffffffffffffffffffffff82169050919050565b6000611b0d82611ae2565b9050919050565b611b1d81611b02565b82525050565b6000602082019050611b386000830184611b14565b92915050565b6000604051905090565b600080fd5b600080fd5b611b5b81611b02565b8114611b6657600080fd5b50565b600081359050611b7881611b52565b92915050565b600080fd5b600080fd5b6000601f19601f8301169050919050565b7f4e487b7100000000000000000000000000000000000000000000000000000000600052604160045260246000fd5b611bd182611b88565b810181811067ffffffffffffffff82111715611bf057611bef611b99565b5b80604052505050565b6000611c03611b3e565b9050611c0f8282611bc8565b919050565b600067ffffffffffffffff821115611c2f57611c2e611b99565b5b611c3882611b88565b9050602081019050919050565b82818337600083830152505050565b6000611c67611c6284611c14565b611bf9565b905082815260208101848484011115611c8357611c82611b83565b5b611c8e848285611c45565b509392505050565b600082601f830112611cab57611caa611b7e565b5b8135611cbb848260208601611c54565b91505092915050565b600080600060608486031215611cdd57611cdc611b48565b5b6000611ceb86828701611b69565b935050602084013567ffffffffffffffff811115611d0c57611d0b611b4d565b5b611d1886828701611c96565b925050604084013567ffffffffffffffff811115611d3957611d38611b4d565b5b611d4586828701611c96565b9150509250925092565b600060208284031215611d6557611d64611b48565b5b600082013567ffffffffffffffff811115611d8357611d82611b4d565b5b611d8f84828501611c96565b91505092915050565b600081519050919050565b600082825260208201905092915050565b60005b83811015611dd2578082015181840152602081019050611db7565b83811115611de1576000848401525b50505050565b6000611df282611d98565b611dfc8185611da3565b9350611e0c818560208601611db4565b611e1581611b88565b840191505092915050565b60006020820190508181036000830152611e3a8184611de7565b905092915050565b6000819050919050565b611e5581611e42565b8114611e6057600080fd5b50565b600081359050611e7281611e4c565b92915050565b600080600060608486031215611e9157611e90611b48565b5b6000611e9f86828701611e63565b935050602084013567ffffffffffffffff811115611ec057611ebf611b4d565b5b611ecc86828701611c96565b925050604084013567ffffffffffffffff811115611eed57611eec611b4d565b5b611ef986828701611c96565b9150509250925092565b60008060408385031215611f1a57611f19611b48565b5b600083013567ffffffffffffffff811115611f3857611f37611b4d565b5b611f4485828601611c96565b925050602083013567ffffffffffffffff811115611f6557611f64611b4d565b5b611f7185828601611c96565b9150509250929050565b600080600080600060a08688031215611f9757611f96611b48565b5b6000611fa588828901611b69565b955050602086013567ffffffffffffffff811115611fc657611fc5611b4d565b5b611fd288828901611c96565b945050604086013567ffffffffffffffff811115611ff357611ff2611b4d565b5b611fff88828901611c96565b935050606086013567ffffffffffffffff8111156120205761201f611b4d565b5b61202c88828901611c96565b925050608086013567ffffffffffffffff81111561204d5761204c611b4d565b5b61205988828901611c96565b9150509295509295909350565b6000819050919050565b61207981612066565b811461208457600080fd5b50565b60008135905061209681612070565b92915050565b60007fffffffff0000000000000000000000000000000000000000000000000000000082169050919050565b6120d18161209c565b81146120dc57600080fd5b50565b6000813590506120ee816120c8565b92915050565b6000806000806080858703121561210e5761210d611b48565b5b600061211c87828801611e63565b945050602061212d87828801612087565b935050604061213e878288016120df565b925050606061214f87828801612087565b91505092959194509250565b60006020828403121561217157612170611b48565b5b600061217f84828501611b69565b91505092915050565b7f4e487b7100000000000000000000000000000000000000000000000000000000600052601160045260246000fd5b60006121c282612066565b91506121cd83612066565b9250817fffffffffffffffffffffffffffffffffffffffffffffffffffffffffffffffff048311821515161561220657612205612188565b5b828202905092915050565b7f4e487b7100000000000000000000000000000000000000000000000000000000600052601260045260246000fd5b600061224b82612066565b915061225683612066565b92508261226657612265612211565b5b828204905092915050565b7f4e487b7100000000000000000000000000000000000000000000000000000000600052602260045260246000fd5b600060028204905060018216806122b857607f821691505b6020821081036122cb576122ca612271565b5b50919050565b7f536f75726365206d75737420626520746865206f7261636c65206f662074686560008201527f2072657175657374000000000000000000000000000000000000000000000000602082015250565b600061232d602883611da3565b9150612338826122d1565b604082019050919050565b6000602082019050818103600083015261235c81612320565b9050919050565b600081905092915050565b600061237982611d98565b6123838185612363565b9350612393818560208601611db4565b80840191505092915050565b60006123ab828461236e565b915081905092915050565b7f6369640000000000000000000000000000000000000000000000000000000000600082015250565b60006123ec600383612363565b91506123f7826123b6565b600382019050919050565b600061240d826123df565b9150819050919050565b7f74696d657374616d700000000000000000000000000000000000000000000000600082015250565b600061244d600983612363565b915061245882612417565b600982019050919050565b600061246e82612440565b9150819050919050565b7f4d7573742062652070726f706f736564206f776e657200000000000000000000600082015250565b60006124ae601683611da3565b91506124b982612478565b602082019050919050565b600060208201905081810360008301526124dd816124a1565b9050919050565b6000815190506124f381612070565b92915050565b60006020828403121561250f5761250e611b48565b5b600061251d848285016124e4565b91505092915050565b61252f81612066565b82525050565b600060408201905061254a6000830185611b14565b6125576020830184612526565b9392505050565b60008115159050919050565b6125738161255e565b811461257e57600080fd5b50565b6000815190506125908161256a565b92915050565b6000602082840312156125ac576125ab611b48565b5b60006125ba84828501612581565b91505092915050565b7f556e61626c6520746f207472616e736665720000000000000000000000000000600082015250565b60006125f9601283611da3565b9150612604826125c3565b602082019050919050565b60006020820190508181036000830152612628816125ec565b9050919050565b600061263a82612066565b915061264583612066565b9250827fffffffffffffffffffffffffffffffffffffffffffffffffffffffffffffffff0382111561267a57612679612188565b5b828201905092915050565b61268e81611e42565b82525050565b61269d8161209c565b82525050565b600081519050919050565b600082825260208201905092915050565b60006126ca826126a3565b6126d481856126ae565b93506126e4818560208601611db4565b6126ed81611b88565b840191505092915050565b60006101008201905061270e600083018b611b14565b61271b602083018a612526565b6127286040830189612685565b6127356060830188611b14565b6127426080830187612694565b61274f60a0830186612526565b61275c60c0830185612526565b81810360e083015261276e81846126bf565b90509998505050505050505050565b7f4f6e6c792063616c6c61626c65206279206f776e657200000000000000000000600082015250565b60006127b3601683611da3565b91506127be8261277d565b602082019050919050565b600060208201905081810360008301526127e2816127a6565b9050919050565b60006080820190506127fe6000830187612685565b61280b6020830186612526565b6128186040830185612694565b6128256060830184612526565b95945050505050565b7f43616e6e6f74207472616e7366657220746f2073656c66000000000000000000600082015250565b6000612864601783611da3565b915061286f8261282e565b602082019050919050565b6000602082019050818103600083015261289381612857565b9050919050565b6000819050919050565b60006128bf6128ba6128b584611ae2565b61289a565b611ae2565b9050919050565b60006128d1826128a4565b9050919050565b60006128e3826128c6565b9050919050565b60008160601b9050919050565b6000612902826128ea565b9050919050565b6000612914826128f7565b9050919050565b61292c612927826128d8565b612909565b82525050565b6000819050919050565b61294d61294882612066565b612932565b82525050565b600061295f828561291b565b60148201915061296f828461293c565b6020820191508190509392505050565b60006060820190506129946000830186611b14565b6129a16020830185612526565b81810360408301526129b381846126bf565b9050949350505050565b7f756e61626c6520746f207472616e73666572416e6443616c6c20746f206f726160008201527f636c650000000000000000000000000000000000000000000000000000000000602082015250565b6000612a19602383611da3565b9150612a24826129bd565b604082019050919050565b60006020820190508181036000830152612a4881612a0c565b9050919050565b6000612a5a82612066565b9150612a6583612066565b925082612a7557612a74612211565b5b828206905092915050565b6000612a8b82612066565b9150612a9683612066565b925082821015612aa957612aa8612188565b5b828203905092915050565b60008160011c9050919050565b6000808291508390505b6001851115612b0b57808604811115612ae757612ae6612188565b5b6001851615612af65780820291505b8081029050612b0485612ab4565b9450612acb565b94509492505050565b600082612b245760019050612be0565b81612b325760009050612be0565b8160018114612b485760028114612b5257612b81565b6001915050612be0565b60ff841115612b6457612b63612188565b5b8360020a915084821115612b7b57612b7a612188565b5b50612be0565b5060208310610133831016604e8410600b8410161715612bb65782820a905083811115612bb157612bb0612188565b5b612be0565b612bc38484846001612ac1565b92509050818404811115612bda57612bd9612188565b5b81810290505b9392505050565b6000612bf282612066565b9150612bfd83612066565b9250612c2a7fffffffffffffffffffffffffffffffffffffffffffffffffffffffffffffffff8484612b14565b90509291505056fea26469706673582212207dc3bcf2950bf8a6c8899628e4f29c4d9e0baa0e93d5247513fc1001a00d750164736f6c634300080d0033",
  "linkReferences": {},
  "deployedLinkReferences": {}
}