{
  "address": "0x141Ee019dE7bBd96441a6287C506B35C9718094f",
  "abi": [
    {
      "inputs": [],
      "stateMutability": "nonpayable",
      "type": "constructor"
    },
    {
      "anonymous": false,
      "inputs": [
        {
          "indexed": true,
          "internalType": "address",
          "name": "owner",
          "type": "address"
        },
        {
          "indexed": true,
          "internalType": "address",
          "name": "approved",
          "type": "address"
        },
        {
          "indexed": true,
          "internalType": "uint256",
          "name": "tokenId",
          "type": "uint256"
        }
      ],
      "name": "Approval",
      "type": "event"
    },
    {
      "anonymous": false,
      "inputs": [
        {
          "indexed": true,
          "internalType": "address",
          "name": "owner",
          "type": "address"
        },
        {
          "indexed": true,
          "internalType": "address",
          "name": "operator",
          "type": "address"
        },
        {
          "indexed": false,
          "internalType": "bool",
          "name": "approved",
          "type": "bool"
        }
      ],
      "name": "ApprovalForAll",
      "type": "event"
    },
    {
      "anonymous": false,
      "inputs": [
        {
          "indexed": true,
          "internalType": "address",
          "name": "previousOwner",
          "type": "address"
        },
        {
          "indexed": true,
          "internalType": "address",
          "name": "newOwner",
          "type": "address"
        }
      ],
      "name": "OwnershipTransferred",
      "type": "event"
    },
    {
      "anonymous": false,
      "inputs": [
        {
          "indexed": true,
          "internalType": "address",
          "name": "from",
          "type": "address"
        },
        {
          "indexed": true,
          "internalType": "address",
          "name": "to",
          "type": "address"
        },
        {
          "indexed": true,
          "internalType": "uint256",
          "name": "tokenId",
          "type": "uint256"
        }
      ],
      "name": "Transfer",
      "type": "event"
    },
    {
      "inputs": [
        {
          "internalType": "address",
          "name": "to",
          "type": "address"
        },
        {
          "internalType": "uint256",
          "name": "tokenId",
          "type": "uint256"
        }
      ],
      "name": "approve",
      "outputs": [],
      "stateMutability": "nonpayable",
      "type": "function"
    },
    {
      "inputs": [
        {
          "internalType": "address",
          "name": "owner",
          "type": "address"
        }
      ],
      "name": "balanceOf",
      "outputs": [
        {
          "internalType": "uint256",
          "name": "",
          "type": "uint256"
        }
      ],
      "stateMutability": "view",
      "type": "function"
    },
    {
      "inputs": [
        {
          "internalType": "uint256",
          "name": "tokenId",
          "type": "uint256"
        }
      ],
      "name": "burn",
      "outputs": [],
      "stateMutability": "nonpayable",
      "type": "function"
    },
    {
      "inputs": [],
      "name": "currentCounter",
      "outputs": [
        {
          "internalType": "uint256",
          "name": "",
          "type": "uint256"
        }
      ],
      "stateMutability": "view",
      "type": "function"
    },
    {
      "inputs": [
        {
          "internalType": "address",
          "name": "to",
          "type": "address"
        },
        {
          "internalType": "string",
          "name": "nftTokenURI",
          "type": "string"
        }
      ],
      "name": "freeMint",
      "outputs": [],
      "stateMutability": "nonpayable",
      "type": "function"
    },
    {
      "inputs": [
        {
          "internalType": "uint256",
          "name": "tokenId",
          "type": "uint256"
        }
      ],
      "name": "getApproved",
      "outputs": [
        {
          "internalType": "address",
          "name": "",
          "type": "address"
        }
      ],
      "stateMutability": "view",
      "type": "function"
    },
    {
      "inputs": [
        {
          "internalType": "address",
          "name": "owner",
          "type": "address"
        },
        {
          "internalType": "address",
          "name": "operator",
          "type": "address"
        }
      ],
      "name": "isApprovedForAll",
      "outputs": [
        {
          "internalType": "bool",
          "name": "",
          "type": "bool"
        }
      ],
      "stateMutability": "view",
      "type": "function"
    },
    {
      "inputs": [],
      "name": "name",
      "outputs": [
        {
          "internalType": "string",
          "name": "",
          "type": "string"
        }
      ],
      "stateMutability": "view",
      "type": "function"
    },
    {
      "inputs": [],
      "name": "owner",
      "outputs": [
        {
          "internalType": "address",
          "name": "",
          "type": "address"
        }
      ],
      "stateMutability": "view",
      "type": "function"
    },
    {
      "inputs": [
        {
          "internalType": "uint256",
          "name": "tokenId",
          "type": "uint256"
        }
      ],
      "name": "ownerOf",
      "outputs": [
        {
          "internalType": "address",
          "name": "",
          "type": "address"
        }
      ],
      "stateMutability": "view",
      "type": "function"
    },
    {
      "inputs": [],
      "name": "renounceOwnership",
      "outputs": [],
      "stateMutability": "nonpayable",
      "type": "function"
    },
    {
      "inputs": [
        {
          "internalType": "address",
          "name": "to",
          "type": "address"
        },
        {
          "internalType": "string",
          "name": "nftTokenURI",
          "type": "string"
        }
      ],
      "name": "safeMint",
      "outputs": [],
      "stateMutability": "nonpayable",
      "type": "function"
    },
    {
      "inputs": [
        {
          "internalType": "address",
          "name": "from",
          "type": "address"
        },
        {
          "internalType": "address",
          "name": "to",
          "type": "address"
        },
        {
          "internalType": "uint256",
          "name": "tokenId",
          "type": "uint256"
        }
      ],
      "name": "safeTransferFrom",
      "outputs": [],
      "stateMutability": "nonpayable",
      "type": "function"
    },
    {
      "inputs": [
        {
          "internalType": "address",
          "name": "from",
          "type": "address"
        },
        {
          "internalType": "address",
          "name": "to",
          "type": "address"
        },
        {
          "internalType": "uint256",
          "name": "tokenId",
          "type": "uint256"
        },
        {
          "internalType": "bytes",
          "name": "data",
          "type": "bytes"
        }
      ],
      "name": "safeTransferFrom",
      "outputs": [],
      "stateMutability": "nonpayable",
      "type": "function"
    },
    {
      "inputs": [
        {
          "internalType": "address",
          "name": "operator",
          "type": "address"
        },
        {
          "internalType": "bool",
          "name": "approved",
          "type": "bool"
        }
      ],
      "name": "setApprovalForAll",
      "outputs": [],
      "stateMutability": "nonpayable",
      "type": "function"
    },
    {
      "inputs": [
        {
          "internalType": "bytes4",
          "name": "interfaceId",
          "type": "bytes4"
        }
      ],
      "name": "supportsInterface",
      "outputs": [
        {
          "internalType": "bool",
          "name": "",
          "type": "bool"
        }
      ],
      "stateMutability": "view",
      "type": "function"
    },
    {
      "inputs": [],
      "name": "symbol",
      "outputs": [
        {
          "internalType": "string",
          "name": "",
          "type": "string"
        }
      ],
      "stateMutability": "view",
      "type": "function"
    },
    {
      "inputs": [
        {
          "internalType": "uint256",
          "name": "tokenId",
          "type": "uint256"
        }
      ],
      "name": "tokenURI",
      "outputs": [
        {
          "internalType": "string",
          "name": "",
          "type": "string"
        }
      ],
      "stateMutability": "view",
      "type": "function"
    },
    {
      "inputs": [
        {
          "internalType": "address",
          "name": "from",
          "type": "address"
        },
        {
          "internalType": "address",
          "name": "to",
          "type": "address"
        },
        {
          "internalType": "uint256",
          "name": "tokenId",
          "type": "uint256"
        }
      ],
      "name": "transferFrom",
      "outputs": [],
      "stateMutability": "nonpayable",
      "type": "function"
    },
    {
      "inputs": [
        {
          "internalType": "address",
          "name": "newOwner",
          "type": "address"
        }
      ],
      "name": "transferOwnership",
      "outputs": [],
      "stateMutability": "nonpayable",
      "type": "function"
    }
  ],
  "transactionHash": "0xd7c15f35fef19f6a0244a06ef402924ebb6ef2d1b90f702a71c507b695ddf674",
  "args": [],
  "numDeployments": 1,
  "solcInputHash": "ba5072311a30d2027c924c26846e0e76",
  "bytecode": "0x60806040523480156200001157600080fd5b506040518060400160405280600d81526020017f4d79417765736f6d654c6f676f000000000000000000000000000000000000008152506040518060400160405280600381526020017f4d414c000000000000000000000000000000000000000000000000000000000081525081600090816200008f919062000412565b508060019081620000a1919062000412565b505050620000c4620000b8620000ca60201b60201c565b620000d260201b60201c565b620004f9565b600033905090565b6000600760009054906101000a900473ffffffffffffffffffffffffffffffffffffffff16905081600760006101000a81548173ffffffffffffffffffffffffffffffffffffffff021916908373ffffffffffffffffffffffffffffffffffffffff1602179055508173ffffffffffffffffffffffffffffffffffffffff168173ffffffffffffffffffffffffffffffffffffffff167f8be0079c531659141344cd1fd0a4f28419497f9722a3daafe3b4186f6b6457e060405160405180910390a35050565b600081519050919050565b7f4e487b7100000000000000000000000000000000000000000000000000000000600052604160045260246000fd5b7f4e487b7100000000000000000000000000000000000000000000000000000000600052602260045260246000fd5b600060028204905060018216806200021a57607f821691505b60208210810362000230576200022f620001d2565b5b50919050565b60008190508160005260206000209050919050565b60006020601f8301049050919050565b600082821b905092915050565b6000600883026200029a7fffffffffffffffffffffffffffffffffffffffffffffffffffffffffffffffff826200025b565b620002a686836200025b565b95508019841693508086168417925050509392505050565b6000819050919050565b6000819050919050565b6000620002f3620002ed620002e784620002be565b620002c8565b620002be565b9050919050565b6000819050919050565b6200030f83620002d2565b620003276200031e82620002fa565b84845462000268565b825550505050565b600090565b6200033e6200032f565b6200034b81848462000304565b505050565b5b8181101562000373576200036760008262000334565b60018101905062000351565b5050565b601f821115620003c2576200038c8162000236565b62000397846200024b565b81016020851015620003a7578190505b620003bf620003b6856200024b565b83018262000350565b50505b505050565b600082821c905092915050565b6000620003e760001984600802620003c7565b1980831691505092915050565b6000620004028383620003d4565b9150826002028217905092915050565b6200041d8262000198565b67ffffffffffffffff811115620004395762000438620001a3565b5b62000445825462000201565b6200045282828562000377565b600060209050601f8311600181146200048a576000841562000475578287015190505b620004818582620003f4565b865550620004f1565b601f1984166200049a8662000236565b60005b82811015620004c4578489015182556001820191506020850194506020810190506200049d565b86831015620004e45784890151620004e0601f891682620003d4565b8355505b6001600288020188555050505b505050505050565b61314d80620005096000396000f3fe608060405234801561001057600080fd5b506004361061012c5760003560e01c8063711112be116100ad578063b88d4fde11610071578063b88d4fde1461031b578063c87b56dd14610337578063d204c45e14610367578063e985e9c514610383578063f2fde38b146103b35761012c565b8063711112be1461029d578063715018a6146102b95780638da5cb5b146102c357806395d89b41146102e1578063a22cb465146102ff5761012c565b806342842e0e116100f457806342842e0e146101e757806342966c68146102035780635763440b1461021f5780636352211e1461023d57806370a082311461026d5761012c565b806301ffc9a71461013157806306fdde0314610161578063081812fc1461017f578063095ea7b3146101af57806323b872dd146101cb575b600080fd5b61014b60048036038101906101469190611f3e565b6103cf565b6040516101589190611f86565b60405180910390f35b6101696104b1565b6040516101769190612031565b60405180910390f35b61019960048036038101906101949190612089565b610543565b6040516101a691906120f7565b60405180910390f35b6101c960048036038101906101c4919061213e565b610589565b005b6101e560048036038101906101e0919061217e565b6106a0565b005b61020160048036038101906101fc919061217e565b610700565b005b61021d60048036038101906102189190612089565b610720565b005b61022761077c565b60405161023491906121e0565b60405180910390f35b61025760048036038101906102529190612089565b61078d565b60405161026491906120f7565b60405180910390f35b610287600480360381019061028291906121fb565b610813565b60405161029491906121e0565b60405180910390f35b6102b760048036038101906102b2919061235d565b6108ca565b005b6102c16108fe565b005b6102cb610912565b6040516102d891906120f7565b60405180910390f35b6102e961093c565b6040516102f69190612031565b60405180910390f35b610319600480360381019061031491906123e5565b6109ce565b005b610335600480360381019061033091906124c6565b6109e4565b005b610351600480360381019061034c9190612089565b610a46565b60405161035e9190612031565b60405180910390f35b610381600480360381019061037c919061235d565b610a58565b005b61039d60048036038101906103989190612549565b610a94565b6040516103aa9190611f86565b60405180910390f35b6103cd60048036038101906103c891906121fb565b610b28565b005b60007f80ac58cd000000000000000000000000000000000000000000000000000000007bffffffffffffffffffffffffffffffffffffffffffffffffffffffff1916827bffffffffffffffffffffffffffffffffffffffffffffffffffffffff1916148061049a57507f5b5e139f000000000000000000000000000000000000000000000000000000007bffffffffffffffffffffffffffffffffffffffffffffffffffffffff1916827bffffffffffffffffffffffffffffffffffffffffffffffffffffffff1916145b806104aa57506104a982610bab565b5b9050919050565b6060600080546104c0906125b8565b80601f01602080910402602001604051908101604052809291908181526020018280546104ec906125b8565b80156105395780601f1061050e57610100808354040283529160200191610539565b820191906000526020600020905b81548152906001019060200180831161051c57829003601f168201915b5050505050905090565b600061054e82610c15565b6004600083815260200190815260200160002060009054906101000a900473ffffffffffffffffffffffffffffffffffffffff169050919050565b60006105948261078d565b90508073ffffffffffffffffffffffffffffffffffffffff168373ffffffffffffffffffffffffffffffffffffffff1603610604576040517f08c379a00000000000000000000000000000000000000000000000000000000081526004016105fb9061265b565b60405180910390fd5b8073ffffffffffffffffffffffffffffffffffffffff16610623610c60565b73ffffffffffffffffffffffffffffffffffffffff16148061065257506106518161064c610c60565b610a94565b5b610691576040517f08c379a0000000000000000000000000000000000000000000000000000000008152600401610688906126ed565b60405180910390fd5b61069b8383610c68565b505050565b6106b16106ab610c60565b82610d21565b6106f0576040517f08c379a00000000000000000000000000000000000000000000000000000000081526004016106e79061277f565b60405180910390fd5b6106fb838383610db6565b505050565b61071b838383604051806020016040528060008152506109e4565b505050565b61073161072b610c60565b82610d21565b610770576040517f08c379a00000000000000000000000000000000000000000000000000000000081526004016107679061277f565b60405180910390fd5b610779816110af565b50565b600061078860086110bb565b905090565b600080610799836110c9565b9050600073ffffffffffffffffffffffffffffffffffffffff168173ffffffffffffffffffffffffffffffffffffffff160361080a576040517f08c379a0000000000000000000000000000000000000000000000000000000008152600401610801906127eb565b60405180910390fd5b80915050919050565b60008073ffffffffffffffffffffffffffffffffffffffff168273ffffffffffffffffffffffffffffffffffffffff1603610883576040517f08c379a000000000000000000000000000000000000000000000000000000000815260040161087a9061287d565b60405180910390fd5b600360008373ffffffffffffffffffffffffffffffffffffffff1673ffffffffffffffffffffffffffffffffffffffff168152602001908152602001600020549050919050565b6108dd826108d860086110bb565b611106565b6108f06108ea60086110bb565b82611124565b6108fa6008611191565b5050565b6109066111a7565b6109106000611225565b565b6000600760009054906101000a900473ffffffffffffffffffffffffffffffffffffffff16905090565b60606001805461094b906125b8565b80601f0160208091040260200160405190810160405280929190818152602001828054610977906125b8565b80156109c45780601f10610999576101008083540402835291602001916109c4565b820191906000526020600020905b8154815290600101906020018083116109a757829003601f168201915b5050505050905090565b6109e06109d9610c60565b83836112eb565b5050565b6109f56109ef610c60565b83610d21565b610a34576040517f08c379a0000000000000000000000000000000000000000000000000000000008152600401610a2b9061277f565b60405180910390fd5b610a4084848484611457565b50505050565b6060610a51826114b3565b9050919050565b610a606111a7565b610a7382610a6e60086110bb565b611106565b610a86610a8060086110bb565b82611124565b610a906008611191565b5050565b6000600560008473ffffffffffffffffffffffffffffffffffffffff1673ffffffffffffffffffffffffffffffffffffffff16815260200190815260200160002060008373ffffffffffffffffffffffffffffffffffffffff1673ffffffffffffffffffffffffffffffffffffffff16815260200190815260200160002060009054906101000a900460ff16905092915050565b610b306111a7565b600073ffffffffffffffffffffffffffffffffffffffff168173ffffffffffffffffffffffffffffffffffffffff1603610b9f576040517f08c379a0000000000000000000000000000000000000000000000000000000008152600401610b969061290f565b60405180910390fd5b610ba881611225565b50565b60007f01ffc9a7000000000000000000000000000000000000000000000000000000007bffffffffffffffffffffffffffffffffffffffffffffffffffffffff1916827bffffffffffffffffffffffffffffffffffffffffffffffffffffffff1916149050919050565b610c1e816115c5565b610c5d576040517f08c379a0000000000000000000000000000000000000000000000000000000008152600401610c54906127eb565b60405180910390fd5b50565b600033905090565b816004600083815260200190815260200160002060006101000a81548173ffffffffffffffffffffffffffffffffffffffff021916908373ffffffffffffffffffffffffffffffffffffffff160217905550808273ffffffffffffffffffffffffffffffffffffffff16610cdb8361078d565b73ffffffffffffffffffffffffffffffffffffffff167f8c5be1e5ebec7d5bd14f71427d1e84f3dd0314c0f7b2291e5b200ac8c7c3b92560405160405180910390a45050565b600080610d2d8361078d565b90508073ffffffffffffffffffffffffffffffffffffffff168473ffffffffffffffffffffffffffffffffffffffff161480610d6f5750610d6e8185610a94565b5b80610dad57508373ffffffffffffffffffffffffffffffffffffffff16610d9584610543565b73ffffffffffffffffffffffffffffffffffffffff16145b91505092915050565b8273ffffffffffffffffffffffffffffffffffffffff16610dd68261078d565b73ffffffffffffffffffffffffffffffffffffffff1614610e2c576040517f08c379a0000000000000000000000000000000000000000000000000000000008152600401610e23906129a1565b60405180910390fd5b600073ffffffffffffffffffffffffffffffffffffffff168273ffffffffffffffffffffffffffffffffffffffff1603610e9b576040517f08c379a0000000000000000000000000000000000000000000000000000000008152600401610e9290612a33565b60405180910390fd5b610ea88383836001611606565b8273ffffffffffffffffffffffffffffffffffffffff16610ec88261078d565b73ffffffffffffffffffffffffffffffffffffffff1614610f1e576040517f08c379a0000000000000000000000000000000000000000000000000000000008152600401610f15906129a1565b60405180910390fd5b6004600082815260200190815260200160002060006101000a81549073ffffffffffffffffffffffffffffffffffffffff02191690556001600360008573ffffffffffffffffffffffffffffffffffffffff1673ffffffffffffffffffffffffffffffffffffffff168152602001908152602001600020600082825403925050819055506001600360008473ffffffffffffffffffffffffffffffffffffffff1673ffffffffffffffffffffffffffffffffffffffff16815260200190815260200160002060008282540192505081905550816002600083815260200190815260200160002060006101000a81548173ffffffffffffffffffffffffffffffffffffffff021916908373ffffffffffffffffffffffffffffffffffffffff160217905550808273ffffffffffffffffffffffffffffffffffffffff168473ffffffffffffffffffffffffffffffffffffffff167fddf252ad1be2c89b69c2b068fc378daa952ba7f163c4a11628f55a4df523b3ef60405160405180910390a46110aa838383600161160c565b505050565b6110b881611612565b50565b600081600001549050919050565b60006002600083815260200190815260200160002060009054906101000a900473ffffffffffffffffffffffffffffffffffffffff169050919050565b611120828260405180602001604052806000815250611665565b5050565b61112d826115c5565b61116c576040517f08c379a000000000000000000000000000000000000000000000000000000000815260040161116390612ac5565b60405180910390fd5b8060066000848152602001908152602001600020908161118c9190612c91565b505050565b6001816000016000828254019250508190555050565b6111af610c60565b73ffffffffffffffffffffffffffffffffffffffff166111cd610912565b73ffffffffffffffffffffffffffffffffffffffff1614611223576040517f08c379a000000000000000000000000000000000000000000000000000000000815260040161121a90612daf565b60405180910390fd5b565b6000600760009054906101000a900473ffffffffffffffffffffffffffffffffffffffff16905081600760006101000a81548173ffffffffffffffffffffffffffffffffffffffff021916908373ffffffffffffffffffffffffffffffffffffffff1602179055508173ffffffffffffffffffffffffffffffffffffffff168173ffffffffffffffffffffffffffffffffffffffff167f8be0079c531659141344cd1fd0a4f28419497f9722a3daafe3b4186f6b6457e060405160405180910390a35050565b8173ffffffffffffffffffffffffffffffffffffffff168373ffffffffffffffffffffffffffffffffffffffff1603611359576040517f08c379a000000000000000000000000000000000000000000000000000000000815260040161135090612e1b565b60405180910390fd5b80600560008573ffffffffffffffffffffffffffffffffffffffff1673ffffffffffffffffffffffffffffffffffffffff16815260200190815260200160002060008473ffffffffffffffffffffffffffffffffffffffff1673ffffffffffffffffffffffffffffffffffffffff16815260200190815260200160002060006101000a81548160ff0219169083151502179055508173ffffffffffffffffffffffffffffffffffffffff168373ffffffffffffffffffffffffffffffffffffffff167f17307eab39ab6107e8899845ad3d59bd9653f200f220920489ca2b5937696c318360405161144a9190611f86565b60405180910390a3505050565b611462848484610db6565b61146e848484846116c0565b6114ad576040517f08c379a00000000000000000000000000000000000000000000000000000000081526004016114a490612ead565b60405180910390fd5b50505050565b60606114be82610c15565b60006006600084815260200190815260200160002080546114de906125b8565b80601f016020809104026020016040519081016040528092919081815260200182805461150a906125b8565b80156115575780601f1061152c57610100808354040283529160200191611557565b820191906000526020600020905b81548152906001019060200180831161153a57829003601f168201915b505050505090506000611568611847565b9050600081510361157d5781925050506115c0565b6000825111156115b257808260405160200161159a929190612f09565b604051602081830303815290604052925050506115c0565b6115bb8461185e565b925050505b919050565b60008073ffffffffffffffffffffffffffffffffffffffff166115e7836110c9565b73ffffffffffffffffffffffffffffffffffffffff1614159050919050565b50505050565b50505050565b61161b816118c6565b600060066000838152602001908152602001600020805461163b906125b8565b905014611662576006600082815260200190815260200160002060006116619190611e75565b5b50565b61166f8383611a14565b61167c60008484846116c0565b6116bb576040517f08c379a00000000000000000000000000000000000000000000000000000000081526004016116b290612ead565b60405180910390fd5b505050565b60006116e18473ffffffffffffffffffffffffffffffffffffffff16611c31565b1561183a578373ffffffffffffffffffffffffffffffffffffffff1663150b7a0261170a610c60565b8786866040518563ffffffff1660e01b815260040161172c9493929190612f82565b6020604051808303816000875af192505050801561176857506040513d601f19601f820116820180604052508101906117659190612fe3565b60015b6117ea573d8060008114611798576040519150601f19603f3d011682016040523d82523d6000602084013e61179d565b606091505b5060008151036117e2576040517f08c379a00000000000000000000000000000000000000000000000000000000081526004016117d990612ead565b60405180910390fd5b805181602001fd5b63150b7a0260e01b7bffffffffffffffffffffffffffffffffffffffffffffffffffffffff1916817bffffffffffffffffffffffffffffffffffffffffffffffffffffffff19161491505061183f565b600190505b949350505050565b606060405180602001604052806000815250905090565b606061186982610c15565b6000611873611847565b9050600081511161189357604051806020016040528060008152506118be565b8061189d84611c54565b6040516020016118ae929190612f09565b6040516020818303038152906040525b915050919050565b60006118d18261078d565b90506118e1816000846001611606565b6118ea8261078d565b90506004600083815260200190815260200160002060006101000a81549073ffffffffffffffffffffffffffffffffffffffff02191690556001600360008373ffffffffffffffffffffffffffffffffffffffff1673ffffffffffffffffffffffffffffffffffffffff168152602001908152602001600020600082825403925050819055506002600083815260200190815260200160002060006101000a81549073ffffffffffffffffffffffffffffffffffffffff021916905581600073ffffffffffffffffffffffffffffffffffffffff168273ffffffffffffffffffffffffffffffffffffffff167fddf252ad1be2c89b69c2b068fc378daa952ba7f163c4a11628f55a4df523b3ef60405160405180910390a4611a1081600084600161160c565b5050565b600073ffffffffffffffffffffffffffffffffffffffff168273ffffffffffffffffffffffffffffffffffffffff1603611a83576040517f08c379a0000000000000000000000000000000000000000000000000000000008152600401611a7a9061305c565b60405180910390fd5b611a8c816115c5565b15611acc576040517f08c379a0000000000000000000000000000000000000000000000000000000008152600401611ac3906130c8565b60405180910390fd5b611ada600083836001611606565b611ae3816115c5565b15611b23576040517f08c379a0000000000000000000000000000000000000000000000000000000008152600401611b1a906130c8565b60405180910390fd5b6001600360008473ffffffffffffffffffffffffffffffffffffffff1673ffffffffffffffffffffffffffffffffffffffff16815260200190815260200160002060008282540192505081905550816002600083815260200190815260200160002060006101000a81548173ffffffffffffffffffffffffffffffffffffffff021916908373ffffffffffffffffffffffffffffffffffffffff160217905550808273ffffffffffffffffffffffffffffffffffffffff16600073ffffffffffffffffffffffffffffffffffffffff167fddf252ad1be2c89b69c2b068fc378daa952ba7f163c4a11628f55a4df523b3ef60405160405180910390a4611c2d60008383600161160c565b5050565b6000808273ffffffffffffffffffffffffffffffffffffffff163b119050919050565b606060006001611c6384611d22565b01905060008167ffffffffffffffff811115611c8257611c81612232565b5b6040519080825280601f01601f191660200182016040528015611cb45781602001600182028036833780820191505090505b509050600082602001820190505b600115611d17578080600190039150507f3031323334353637383961626364656600000000000000000000000000000000600a86061a8153600a8581611d0b57611d0a6130e8565b5b04945060008503611cc2575b819350505050919050565b600080600090507a184f03e93ff9f4daa797ed6e38ed64bf6a1f0100000000000000008310611d80577a184f03e93ff9f4daa797ed6e38ed64bf6a1f0100000000000000008381611d7657611d756130e8565b5b0492506040810190505b6d04ee2d6d415b85acef81000000008310611dbd576d04ee2d6d415b85acef81000000008381611db357611db26130e8565b5b0492506020810190505b662386f26fc100008310611dec57662386f26fc100008381611de257611de16130e8565b5b0492506010810190505b6305f5e1008310611e15576305f5e1008381611e0b57611e0a6130e8565b5b0492506008810190505b6127108310611e3a576127108381611e3057611e2f6130e8565b5b0492506004810190505b60648310611e5d5760648381611e5357611e526130e8565b5b0492506002810190505b600a8310611e6c576001810190505b80915050919050565b508054611e81906125b8565b6000825580601f10611e935750611eb2565b601f016020900490600052602060002090810190611eb19190611eb5565b5b50565b5b80821115611ece576000816000905550600101611eb6565b5090565b6000604051905090565b600080fd5b600080fd5b60007fffffffff0000000000000000000000000000000000000000000000000000000082169050919050565b611f1b81611ee6565b8114611f2657600080fd5b50565b600081359050611f3881611f12565b92915050565b600060208284031215611f5457611f53611edc565b5b6000611f6284828501611f29565b91505092915050565b60008115159050919050565b611f8081611f6b565b82525050565b6000602082019050611f9b6000830184611f77565b92915050565b600081519050919050565b600082825260208201905092915050565b60005b83811015611fdb578082015181840152602081019050611fc0565b60008484015250505050565b6000601f19601f8301169050919050565b600061200382611fa1565b61200d8185611fac565b935061201d818560208601611fbd565b61202681611fe7565b840191505092915050565b6000602082019050818103600083015261204b8184611ff8565b905092915050565b6000819050919050565b61206681612053565b811461207157600080fd5b50565b6000813590506120838161205d565b92915050565b60006020828403121561209f5761209e611edc565b5b60006120ad84828501612074565b91505092915050565b600073ffffffffffffffffffffffffffffffffffffffff82169050919050565b60006120e1826120b6565b9050919050565b6120f1816120d6565b82525050565b600060208201905061210c60008301846120e8565b92915050565b61211b816120d6565b811461212657600080fd5b50565b60008135905061213881612112565b92915050565b6000806040838503121561215557612154611edc565b5b600061216385828601612129565b925050602061217485828601612074565b9150509250929050565b60008060006060848603121561219757612196611edc565b5b60006121a586828701612129565b93505060206121b686828701612129565b92505060406121c786828701612074565b9150509250925092565b6121da81612053565b82525050565b60006020820190506121f560008301846121d1565b92915050565b60006020828403121561221157612210611edc565b5b600061221f84828501612129565b91505092915050565b600080fd5b600080fd5b7f4e487b7100000000000000000000000000000000000000000000000000000000600052604160045260246000fd5b61226a82611fe7565b810181811067ffffffffffffffff8211171561228957612288612232565b5b80604052505050565b600061229c611ed2565b90506122a88282612261565b919050565b600067ffffffffffffffff8211156122c8576122c7612232565b5b6122d182611fe7565b9050602081019050919050565b82818337600083830152505050565b60006123006122fb846122ad565b612292565b90508281526020810184848401111561231c5761231b61222d565b5b6123278482856122de565b509392505050565b600082601f83011261234457612343612228565b5b81356123548482602086016122ed565b91505092915050565b6000806040838503121561237457612373611edc565b5b600061238285828601612129565b925050602083013567ffffffffffffffff8111156123a3576123a2611ee1565b5b6123af8582860161232f565b9150509250929050565b6123c281611f6b565b81146123cd57600080fd5b50565b6000813590506123df816123b9565b92915050565b600080604083850312156123fc576123fb611edc565b5b600061240a85828601612129565b925050602061241b858286016123d0565b9150509250929050565b600067ffffffffffffffff8211156124405761243f612232565b5b61244982611fe7565b9050602081019050919050565b600061246961246484612425565b612292565b9050828152602081018484840111156124855761248461222d565b5b6124908482856122de565b509392505050565b600082601f8301126124ad576124ac612228565b5b81356124bd848260208601612456565b91505092915050565b600080600080608085870312156124e0576124df611edc565b5b60006124ee87828801612129565b94505060206124ff87828801612129565b935050604061251087828801612074565b925050606085013567ffffffffffffffff81111561253157612530611ee1565b5b61253d87828801612498565b91505092959194509250565b600080604083850312156125605761255f611edc565b5b600061256e85828601612129565b925050602061257f85828601612129565b9150509250929050565b7f4e487b7100000000000000000000000000000000000000000000000000000000600052602260045260246000fd5b600060028204905060018216806125d057607f821691505b6020821081036125e3576125e2612589565b5b50919050565b7f4552433732313a20617070726f76616c20746f2063757272656e74206f776e6560008201527f7200000000000000000000000000000000000000000000000000000000000000602082015250565b6000612645602183611fac565b9150612650826125e9565b604082019050919050565b6000602082019050818103600083015261267481612638565b9050919050565b7f4552433732313a20617070726f76652063616c6c6572206973206e6f7420746f60008201527f6b656e206f776e6572206f7220617070726f76656420666f7220616c6c000000602082015250565b60006126d7603d83611fac565b91506126e28261267b565b604082019050919050565b60006020820190508181036000830152612706816126ca565b9050919050565b7f4552433732313a2063616c6c6572206973206e6f7420746f6b656e206f776e6560008201527f72206f7220617070726f76656400000000000000000000000000000000000000602082015250565b6000612769602d83611fac565b91506127748261270d565b604082019050919050565b600060208201905081810360008301526127988161275c565b9050919050565b7f4552433732313a20696e76616c696420746f6b656e2049440000000000000000600082015250565b60006127d5601883611fac565b91506127e08261279f565b602082019050919050565b60006020820190508181036000830152612804816127c8565b9050919050565b7f4552433732313a2061646472657373207a65726f206973206e6f74206120766160008201527f6c6964206f776e65720000000000000000000000000000000000000000000000602082015250565b6000612867602983611fac565b91506128728261280b565b604082019050919050565b600060208201905081810360008301526128968161285a565b9050919050565b7f4f776e61626c653a206e6577206f776e657220697320746865207a65726f206160008201527f6464726573730000000000000000000000000000000000000000000000000000602082015250565b60006128f9602683611fac565b91506129048261289d565b604082019050919050565b60006020820190508181036000830152612928816128ec565b9050919050565b7f4552433732313a207472616e736665722066726f6d20696e636f72726563742060008201527f6f776e6572000000000000000000000000000000000000000000000000000000602082015250565b600061298b602583611fac565b91506129968261292f565b604082019050919050565b600060208201905081810360008301526129ba8161297e565b9050919050565b7f4552433732313a207472616e7366657220746f20746865207a65726f2061646460008201527f7265737300000000000000000000000000000000000000000000000000000000602082015250565b6000612a1d602483611fac565b9150612a28826129c1565b604082019050919050565b60006020820190508181036000830152612a4c81612a10565b9050919050565b7f45524337323155524953746f726167653a2055524920736574206f66206e6f6e60008201527f6578697374656e7420746f6b656e000000000000000000000000000000000000602082015250565b6000612aaf602e83611fac565b9150612aba82612a53565b604082019050919050565b60006020820190508181036000830152612ade81612aa2565b9050919050565b60008190508160005260206000209050919050565b60006020601f8301049050919050565b600082821b905092915050565b600060088302612b477fffffffffffffffffffffffffffffffffffffffffffffffffffffffffffffffff82612b0a565b612b518683612b0a565b95508019841693508086168417925050509392505050565b6000819050919050565b6000612b8e612b89612b8484612053565b612b69565b612053565b9050919050565b6000819050919050565b612ba883612b73565b612bbc612bb482612b95565b848454612b17565b825550505050565b600090565b612bd1612bc4565b612bdc818484612b9f565b505050565b5b81811015612c0057612bf5600082612bc9565b600181019050612be2565b5050565b601f821115612c4557612c1681612ae5565b612c1f84612afa565b81016020851015612c2e578190505b612c42612c3a85612afa565b830182612be1565b50505b505050565b600082821c905092915050565b6000612c6860001984600802612c4a565b1980831691505092915050565b6000612c818383612c57565b9150826002028217905092915050565b612c9a82611fa1565b67ffffffffffffffff811115612cb357612cb2612232565b5b612cbd82546125b8565b612cc8828285612c04565b600060209050601f831160018114612cfb5760008415612ce9578287015190505b612cf38582612c75565b865550612d5b565b601f198416612d0986612ae5565b60005b82811015612d3157848901518255600182019150602085019450602081019050612d0c565b86831015612d4e5784890151612d4a601f891682612c57565b8355505b6001600288020188555050505b505050505050565b7f4f776e61626c653a2063616c6c6572206973206e6f7420746865206f776e6572600082015250565b6000612d99602083611fac565b9150612da482612d63565b602082019050919050565b60006020820190508181036000830152612dc881612d8c565b9050919050565b7f4552433732313a20617070726f766520746f2063616c6c657200000000000000600082015250565b6000612e05601983611fac565b9150612e1082612dcf565b602082019050919050565b60006020820190508181036000830152612e3481612df8565b9050919050565b7f4552433732313a207472616e7366657220746f206e6f6e20455243373231526560008201527f63656976657220696d706c656d656e7465720000000000000000000000000000602082015250565b6000612e97603283611fac565b9150612ea282612e3b565b604082019050919050565b60006020820190508181036000830152612ec681612e8a565b9050919050565b600081905092915050565b6000612ee382611fa1565b612eed8185612ecd565b9350612efd818560208601611fbd565b80840191505092915050565b6000612f158285612ed8565b9150612f218284612ed8565b91508190509392505050565b600081519050919050565b600082825260208201905092915050565b6000612f5482612f2d565b612f5e8185612f38565b9350612f6e818560208601611fbd565b612f7781611fe7565b840191505092915050565b6000608082019050612f9760008301876120e8565b612fa460208301866120e8565b612fb160408301856121d1565b8181036060830152612fc38184612f49565b905095945050505050565b600081519050612fdd81611f12565b92915050565b600060208284031215612ff957612ff8611edc565b5b600061300784828501612fce565b91505092915050565b7f4552433732313a206d696e7420746f20746865207a65726f2061646472657373600082015250565b6000613046602083611fac565b915061305182613010565b602082019050919050565b6000602082019050818103600083015261307581613039565b9050919050565b7f4552433732313a20746f6b656e20616c7265616479206d696e74656400000000600082015250565b60006130b2601c83611fac565b91506130bd8261307c565b602082019050919050565b600060208201905081810360008301526130e1816130a5565b9050919050565b7f4e487b7100000000000000000000000000000000000000000000000000000000600052601260045260246000fdfea26469706673582212205c9ac63c2f9798739769a1907914ca3b3cfa3a8ad094bfee652517410a5a6c3164736f6c63430008110033",
  "devdoc": {
    "kind": "dev",
    "methods": {
      "approve(address,uint256)": {
        "details": "See {IERC721-approve}."
      },
      "balanceOf(address)": {
        "details": "See {IERC721-balanceOf}."
      },
      "burn(uint256)": {
        "details": "Burns `tokenId`. See {ERC721-_burn}. Requirements: - The caller must own `tokenId` or be an approved operator."
      },
      "getApproved(uint256)": {
        "details": "See {IERC721-getApproved}."
      },
      "isApprovedForAll(address,address)": {
        "details": "See {IERC721-isApprovedForAll}."
      },
      "name()": {
        "details": "See {IERC721Metadata-name}."
      },
      "owner()": {
        "details": "Returns the address of the current owner."
      },
      "ownerOf(uint256)": {
        "details": "See {IERC721-ownerOf}."
      },
      "renounceOwnership()": {
        "details": "Leaves the contract without owner. It will not be possible to call `onlyOwner` functions anymore. Can only be called by the current owner. NOTE: Renouncing ownership will leave the contract without an owner, thereby removing any functionality that is only available to the owner."
      },
      "safeTransferFrom(address,address,uint256)": {
        "details": "See {IERC721-safeTransferFrom}."
      },
      "safeTransferFrom(address,address,uint256,bytes)": {
        "details": "See {IERC721-safeTransferFrom}."
      },
      "setApprovalForAll(address,bool)": {
        "details": "See {IERC721-setApprovalForAll}."
      },
      "supportsInterface(bytes4)": {
        "details": "See {IERC165-supportsInterface}."
      },
      "symbol()": {
        "details": "See {IERC721Metadata-symbol}."
      },
      "transferFrom(address,address,uint256)": {
        "details": "See {IERC721-transferFrom}."
      },
      "transferOwnership(address)": {
        "details": "Transfers ownership of the contract to a new account (`newOwner`). Can only be called by the current owner."
      }
    },
    "version": 1
  },
  "userdoc": {
    "kind": "user",
    "methods": {},
    "version": 1
  },
  "storageLayout": {
    "storage": [
      {
        "astId": 138,
        "contract": "contracts/SBT.sol:MyAwesomeLogo",
        "label": "_name",
        "offset": 0,
        "slot": "0",
        "type": "t_string_storage"
      },
      {
        "astId": 140,
        "contract": "contracts/SBT.sol:MyAwesomeLogo",
        "label": "_symbol",
        "offset": 0,
        "slot": "1",
        "type": "t_string_storage"
      },
      {
        "astId": 144,
        "contract": "contracts/SBT.sol:MyAwesomeLogo",
        "label": "_owners",
        "offset": 0,
        "slot": "2",
        "type": "t_mapping(t_uint256,t_address)"
      },
      {
        "astId": 148,
        "contract": "contracts/SBT.sol:MyAwesomeLogo",
        "label": "_balances",
        "offset": 0,
        "slot": "3",
        "type": "t_mapping(t_address,t_uint256)"
      },
      {
        "astId": 152,
        "contract": "contracts/SBT.sol:MyAwesomeLogo",
        "label": "_tokenApprovals",
        "offset": 0,
        "slot": "4",
        "type": "t_mapping(t_uint256,t_address)"
      },
      {
        "astId": 158,
        "contract": "contracts/SBT.sol:MyAwesomeLogo",
        "label": "_operatorApprovals",
        "offset": 0,
        "slot": "5",
        "type": "t_mapping(t_address,t_mapping(t_address,t_bool))"
      },
      {
        "astId": 1216,
        "contract": "contracts/SBT.sol:MyAwesomeLogo",
        "label": "_tokenURIs",
        "offset": 0,
        "slot": "6",
        "type": "t_mapping(t_uint256,t_string_storage)"
      },
      {
        "astId": 7,
        "contract": "contracts/SBT.sol:MyAwesomeLogo",
        "label": "_owner",
        "offset": 0,
        "slot": "7",
        "type": "t_address"
      },
      {
        "astId": 2879,
        "contract": "contracts/SBT.sol:MyAwesomeLogo",
        "label": "_tokenIdCounter",
        "offset": 0,
        "slot": "8",
        "type": "t_struct(Counter)1713_storage"
      }
    ],
    "types": {
      "t_address": {
        "encoding": "inplace",
        "label": "address",
        "numberOfBytes": "20"
      },
      "t_bool": {
        "encoding": "inplace",
        "label": "bool",
        "numberOfBytes": "1"
      },
      "t_mapping(t_address,t_bool)": {
        "encoding": "mapping",
        "key": "t_address",
        "label": "mapping(address => bool)",
        "numberOfBytes": "32",
        "value": "t_bool"
      },
      "t_mapping(t_address,t_mapping(t_address,t_bool))": {
        "encoding": "mapping",
        "key": "t_address",
        "label": "mapping(address => mapping(address => bool))",
        "numberOfBytes": "32",
        "value": "t_mapping(t_address,t_bool)"
      },
      "t_mapping(t_address,t_uint256)": {
        "encoding": "mapping",
        "key": "t_address",
        "label": "mapping(address => uint256)",
        "numberOfBytes": "32",
        "value": "t_uint256"
      },
      "t_mapping(t_uint256,t_address)": {
        "encoding": "mapping",
        "key": "t_uint256",
        "label": "mapping(uint256 => address)",
        "numberOfBytes": "32",
        "value": "t_address"
      },
      "t_mapping(t_uint256,t_string_storage)": {
        "encoding": "mapping",
        "key": "t_uint256",
        "label": "mapping(uint256 => string)",
        "numberOfBytes": "32",
        "value": "t_string_storage"
      },
      "t_string_storage": {
        "encoding": "bytes",
        "label": "string",
        "numberOfBytes": "32"
      },
      "t_struct(Counter)1713_storage": {
        "encoding": "inplace",
        "label": "struct Counters.Counter",
        "members": [
          {
            "astId": 1712,
            "contract": "contracts/SBT.sol:MyAwesomeLogo",
            "label": "_value",
            "offset": 0,
            "slot": "0",
            "type": "t_uint256"
          }
        ],
        "numberOfBytes": "32"
      },
      "t_uint256": {
        "encoding": "inplace",
        "label": "uint256",
        "numberOfBytes": "32"
      }
    }
  }
}