{
  "address": "0xed809AF6f37889c7914Bf9f10a210c49EFF9011F",
  "abi": [
    {
      "inputs": [],
      "stateMutability": "nonpayable",
      "type": "constructor"
    },
    {
      "anonymous": false,
      "inputs": [
        {
          "indexed": true,
          "internalType": "address",
          "name": "owner",
          "type": "address"
        },
        {
          "indexed": true,
          "internalType": "address",
          "name": "approved",
          "type": "address"
        },
        {
          "indexed": true,
          "internalType": "uint256",
          "name": "tokenId",
          "type": "uint256"
        }
      ],
      "name": "Approval",
      "type": "event"
    },
    {
      "anonymous": false,
      "inputs": [
        {
          "indexed": true,
          "internalType": "address",
          "name": "owner",
          "type": "address"
        },
        {
          "indexed": true,
          "internalType": "address",
          "name": "operator",
          "type": "address"
        },
        {
          "indexed": false,
          "internalType": "bool",
          "name": "approved",
          "type": "bool"
        }
      ],
      "name": "ApprovalForAll",
      "type": "event"
    },
    {
      "anonymous": false,
      "inputs": [
        {
          "indexed": false,
          "internalType": "address",
          "name": "",
          "type": "address"
        },
        {
          "indexed": false,
          "internalType": "uint256",
          "name": "",
          "type": "uint256"
        }
      ],
      "name": "TokenMinted",
      "type": "event"
    },
    {
      "anonymous": false,
      "inputs": [
        {
          "indexed": false,
          "internalType": "address",
          "name": "",
          "type": "address"
        },
        {
          "indexed": false,
          "internalType": "address",
          "name": "",
          "type": "address"
        },
        {
          "indexed": false,
          "internalType": "uint256",
          "name": "",
          "type": "uint256"
        }
      ],
      "name": "TokenTransfered",
      "type": "event"
    },
    {
      "anonymous": false,
      "inputs": [
        {
          "indexed": true,
          "internalType": "address",
          "name": "from",
          "type": "address"
        },
        {
          "indexed": true,
          "internalType": "address",
          "name": "to",
          "type": "address"
        },
        {
          "indexed": true,
          "internalType": "uint256",
          "name": "tokenId",
          "type": "uint256"
        }
      ],
      "name": "Transfer",
      "type": "event"
    },
    {
      "inputs": [
        {
          "internalType": "address",
          "name": "to",
          "type": "address"
        },
        {
          "internalType": "uint256",
          "name": "tokenId",
          "type": "uint256"
        }
      ],
      "name": "approve",
      "outputs": [],
      "stateMutability": "nonpayable",
      "type": "function"
    },
    {
      "inputs": [
        {
          "internalType": "address",
          "name": "owner",
          "type": "address"
        }
      ],
      "name": "balanceOf",
      "outputs": [
        {
          "internalType": "uint256",
          "name": "",
          "type": "uint256"
        }
      ],
      "stateMutability": "view",
      "type": "function"
    },
    {
      "inputs": [
        {
          "internalType": "string",
          "name": "name",
          "type": "string"
        },
        {
          "internalType": "string",
          "name": "description",
          "type": "string"
        },
        {
          "internalType": "string",
          "name": "jsoninfo",
          "type": "string"
        },
        {
          "internalType": "string",
          "name": "image",
          "type": "string"
        }
      ],
      "name": "createDao",
      "outputs": [],
      "stateMutability": "nonpayable",
      "type": "function"
    },
    {
      "inputs": [
        {
          "internalType": "string",
          "name": "tokenURI",
          "type": "string"
        },
        {
          "internalType": "uint256",
          "name": "_daoId",
          "type": "uint256"
        },
        {
          "internalType": "string",
          "name": "_metadata",
          "type": "string"
        },
        {
          "internalType": "string",
          "name": "_image",
          "type": "string"
        }
      ],
      "name": "createUserNft",
      "outputs": [
        {
          "internalType": "uint256",
          "name": "",
          "type": "uint256"
        }
      ],
      "stateMutability": "nonpayable",
      "type": "function"
    },
    {
      "inputs": [],
      "name": "getAllDaos",
      "outputs": [
        {
          "components": [
            {
              "internalType": "uint256",
              "name": "daoId",
              "type": "uint256"
            },
            {
              "internalType": "string",
              "name": "name",
              "type": "string"
            },
            {
              "internalType": "string",
              "name": "description",
              "type": "string"
            },
            {
              "internalType": "string",
              "name": "jsoninfo",
              "type": "string"
            },
            {
              "internalType": "string",
              "name": "image",
              "type": "string"
            }
          ],
          "internalType": "struct STCDao.Dao[]",
          "name": "",
          "type": "tuple[]"
        }
      ],
      "stateMutability": "view",
      "type": "function"
    },
    {
      "inputs": [
        {
          "internalType": "uint256",
          "name": "tokenId",
          "type": "uint256"
        }
      ],
      "name": "getApproved",
      "outputs": [
        {
          "internalType": "address",
          "name": "",
          "type": "address"
        }
      ],
      "stateMutability": "view",
      "type": "function"
    },
    {
      "inputs": [
        {
          "internalType": "uint256",
          "name": "daoId",
          "type": "uint256"
        }
      ],
      "name": "getDao",
      "outputs": [
        {
          "components": [
            {
              "internalType": "uint256",
              "name": "daoId",
              "type": "uint256"
            },
            {
              "internalType": "string",
              "name": "name",
              "type": "string"
            },
            {
              "internalType": "string",
              "name": "description",
              "type": "string"
            },
            {
              "internalType": "string",
              "name": "jsoninfo",
              "type": "string"
            },
            {
              "internalType": "string",
              "name": "image",
              "type": "string"
            }
          ],
          "internalType": "struct STCDao.Dao",
          "name": "",
          "type": "tuple"
        }
      ],
      "stateMutability": "view",
      "type": "function"
    },
    {
      "inputs": [],
      "name": "getUserAllNft",
      "outputs": [
        {
          "components": [
            {
              "internalType": "uint256",
              "name": "tokenId",
              "type": "uint256"
            },
            {
              "internalType": "uint256",
              "name": "daoId",
              "type": "uint256"
            },
            {
              "internalType": "address",
              "name": "user",
              "type": "address"
            },
            {
              "internalType": "string",
              "name": "metadata",
              "type": "string"
            },
            {
              "internalType": "string",
              "name": "image",
              "type": "string"
            }
          ],
          "internalType": "struct STCDao.Soul[]",
          "name": "",
          "type": "tuple[]"
        }
      ],
      "stateMutability": "view",
      "type": "function"
    },
    {
      "inputs": [
        {
          "internalType": "uint256",
          "name": "daoId",
          "type": "uint256"
        }
      ],
      "name": "getUserNft",
      "outputs": [
        {
          "components": [
            {
              "internalType": "uint256",
              "name": "tokenId",
              "type": "uint256"
            },
            {
              "internalType": "uint256",
              "name": "daoId",
              "type": "uint256"
            },
            {
              "internalType": "address",
              "name": "user",
              "type": "address"
            },
            {
              "internalType": "string",
              "name": "metadata",
              "type": "string"
            },
            {
              "internalType": "string",
              "name": "image",
              "type": "string"
            }
          ],
          "internalType": "struct STCDao.Soul",
          "name": "",
          "type": "tuple"
        },
        {
          "internalType": "bool",
          "name": "",
          "type": "bool"
        }
      ],
      "stateMutability": "view",
      "type": "function"
    },
    {
      "inputs": [
        {
          "internalType": "uint256",
          "name": "",
          "type": "uint256"
        }
      ],
      "name": "idToDao",
      "outputs": [
        {
          "internalType": "uint256",
          "name": "daoId",
          "type": "uint256"
        },
        {
          "internalType": "string",
          "name": "name",
          "type": "string"
        },
        {
          "internalType": "string",
          "name": "description",
          "type": "string"
        },
        {
          "internalType": "string",
          "name": "jsoninfo",
          "type": "string"
        },
        {
          "internalType": "string",
          "name": "image",
          "type": "string"
        }
      ],
      "stateMutability": "view",
      "type": "function"
    },
    {
      "inputs": [
        {
          "internalType": "address",
          "name": "owner",
          "type": "address"
        },
        {
          "internalType": "address",
          "name": "operator",
          "type": "address"
        }
      ],
      "name": "isApprovedForAll",
      "outputs": [
        {
          "internalType": "bool",
          "name": "",
          "type": "bool"
        }
      ],
      "stateMutability": "view",
      "type": "function"
    },
    {
      "inputs": [],
      "name": "name",
      "outputs": [
        {
          "internalType": "string",
          "name": "",
          "type": "string"
        }
      ],
      "stateMutability": "view",
      "type": "function"
    },
    {
      "inputs": [
        {
          "internalType": "uint256",
          "name": "tokenId",
          "type": "uint256"
        }
      ],
      "name": "ownerOf",
      "outputs": [
        {
          "internalType": "address",
          "name": "",
          "type": "address"
        }
      ],
      "stateMutability": "view",
      "type": "function"
    },
    {
      "inputs": [
        {
          "internalType": "address",
          "name": "from",
          "type": "address"
        },
        {
          "internalType": "address",
          "name": "to",
          "type": "address"
        },
        {
          "internalType": "uint256",
          "name": "tokenId",
          "type": "uint256"
        }
      ],
      "name": "safeTransferFrom",
      "outputs": [],
      "stateMutability": "nonpayable",
      "type": "function"
    },
    {
      "inputs": [
        {
          "internalType": "address",
          "name": "from",
          "type": "address"
        },
        {
          "internalType": "address",
          "name": "to",
          "type": "address"
        },
        {
          "internalType": "uint256",
          "name": "tokenId",
          "type": "uint256"
        },
        {
          "internalType": "bytes",
          "name": "data",
          "type": "bytes"
        }
      ],
      "name": "safeTransferFrom",
      "outputs": [],
      "stateMutability": "nonpayable",
      "type": "function"
    },
    {
      "inputs": [
        {
          "internalType": "address",
          "name": "operator",
          "type": "address"
        },
        {
          "internalType": "bool",
          "name": "approved",
          "type": "bool"
        }
      ],
      "name": "setApprovalForAll",
      "outputs": [],
      "stateMutability": "nonpayable",
      "type": "function"
    },
    {
      "inputs": [
        {
          "internalType": "bytes4",
          "name": "interfaceId",
          "type": "bytes4"
        }
      ],
      "name": "supportsInterface",
      "outputs": [
        {
          "internalType": "bool",
          "name": "",
          "type": "bool"
        }
      ],
      "stateMutability": "view",
      "type": "function"
    },
    {
      "inputs": [],
      "name": "symbol",
      "outputs": [
        {
          "internalType": "string",
          "name": "",
          "type": "string"
        }
      ],
      "stateMutability": "view",
      "type": "function"
    },
    {
      "inputs": [
        {
          "internalType": "uint256",
          "name": "tokenId",
          "type": "uint256"
        }
      ],
      "name": "tokenURI",
      "outputs": [
        {
          "internalType": "string",
          "name": "",
          "type": "string"
        }
      ],
      "stateMutability": "view",
      "type": "function"
    },
    {
      "inputs": [
        {
          "internalType": "address",
          "name": "from",
          "type": "address"
        },
        {
          "internalType": "address",
          "name": "to",
          "type": "address"
        },
        {
          "internalType": "uint256",
          "name": "tokenId",
          "type": "uint256"
        }
      ],
      "name": "transferFrom",
      "outputs": [],
      "stateMutability": "nonpayable",
      "type": "function"
    },
    {
      "inputs": [
        {
          "internalType": "address",
          "name": "",
          "type": "address"
        }
      ],
      "name": "userSoulCount",
      "outputs": [
        {
          "internalType": "uint256",
          "name": "",
          "type": "uint256"
        }
      ],
      "stateMutability": "view",
      "type": "function"
    },
    {
      "inputs": [
        {
          "internalType": "address",
          "name": "",
          "type": "address"
        },
        {
          "internalType": "uint256",
          "name": "",
          "type": "uint256"
        }
      ],
      "name": "userSoulIds",
      "outputs": [
        {
          "internalType": "uint256",
          "name": "",
          "type": "uint256"
        }
      ],
      "stateMutability": "view",
      "type": "function"
    }
  ],
  "transactionHash": "0x9e5588594ad375c1a1c2854b2860d4ce35c745dc2a0ede13dda45a79ed7004d3",
  "args": [],
  "numDeployments": 3,
  "solcInputHash": "e5c0207a71a267e443723648285dcc41",
  "bytecode": "0x60806040523480156200001157600080fd5b506040518060400160405280600681526020017f53544344616f00000000000000000000000000000000000000000000000000008152506040518060400160405280600481526020017f5354434e0000000000000000000000000000000000000000000000000000000081525081600090816200008f919062000324565b508060019081620000a1919062000324565b5050506200040b565b600081519050919050565b7f4e487b7100000000000000000000000000000000000000000000000000000000600052604160045260246000fd5b7f4e487b7100000000000000000000000000000000000000000000000000000000600052602260045260246000fd5b600060028204905060018216806200012c57607f821691505b602082108103620001425762000141620000e4565b5b50919050565b60008190508160005260206000209050919050565b60006020601f8301049050919050565b600082821b905092915050565b600060088302620001ac7fffffffffffffffffffffffffffffffffffffffffffffffffffffffffffffffff826200016d565b620001b886836200016d565b95508019841693508086168417925050509392505050565b6000819050919050565b6000819050919050565b600062000205620001ff620001f984620001d0565b620001da565b620001d0565b9050919050565b6000819050919050565b6200022183620001e4565b6200023962000230826200020c565b8484546200017a565b825550505050565b600090565b6200025062000241565b6200025d81848462000216565b505050565b5b8181101562000285576200027960008262000246565b60018101905062000263565b5050565b601f821115620002d4576200029e8162000148565b620002a9846200015d565b81016020851015620002b9578190505b620002d1620002c8856200015d565b83018262000262565b50505b505050565b600082821c905092915050565b6000620002f960001984600802620002d9565b1980831691505092915050565b6000620003148383620002e6565b9150826002028217905092915050565b6200032f82620000aa565b67ffffffffffffffff8111156200034b576200034a620000b5565b5b62000357825462000113565b6200036482828562000289565b600060209050601f8311600181146200039c576000841562000387578287015190505b62000393858262000306565b86555062000403565b601f198416620003ac8662000148565b60005b82811015620003d657848901518255600182019150602085019450602081019050620003af565b86831015620003f65784890151620003f2601f891682620002e6565b8355505b6001600288020188555050505b505050505050565b6144f9806200041b6000396000f3fe608060405234801561001057600080fd5b50600436106101425760003560e01c806370a08231116100b8578063aa5b6d4c1161007c578063aa5b6d4c146103ae578063aceb6d5e146103cc578063b88d4fde14610400578063c87b56dd1461041c578063e985e9c51461044c578063ea8a10cf1461047c57610142565b806370a08231146102e457806395d89b4114610314578063a07b57f614610332578063a22cb46514610362578063a36c530e1461037e57610142565b806323b872dd1161010a57806323b872dd146101fd57806337f24c0e1461021957806342842e0e14610237578063520dc745146102535780635e92fe92146102845780636352211e146102b457610142565b806301ffc9a71461014757806306fdde0314610177578063081812fc14610195578063095ea7b3146101c55780631b44c40e146101e1575b600080fd5b610161600480360381019061015c9190612cd7565b6104ac565b60405161016e9190612d1f565b60405180910390f35b61017f61058e565b60405161018c9190612dca565b60405180910390f35b6101af60048036038101906101aa9190612e22565b610620565b6040516101bc9190612e90565b60405180910390f35b6101df60048036038101906101da9190612ed7565b610666565b005b6101fb60048036038101906101f6919061304c565b61077d565b005b61021760048036038101906102129190613123565b6108f1565b005b610221610951565b60405161022e919061331d565b60405180910390f35b610251600480360381019061024c9190613123565b610c3e565b005b61026d60048036038101906102689190612e22565b610c5e565b60405161027b9291906133bc565b60405180910390f35b61029e600480360381019061029991906133ec565b610f6e565b6040516102ab9190613428565b60405180910390f35b6102ce60048036038101906102c99190612e22565b610f86565b6040516102db9190612e90565b60405180910390f35b6102fe60048036038101906102f991906133ec565b61100c565b60405161030b9190613428565b60405180910390f35b61031c6110c3565b6040516103299190612dca565b60405180910390f35b61034c60048036038101906103479190612e22565b611155565b60405161035991906134ce565b60405180910390f35b61037c6004803603810190610377919061351c565b6113d4565b005b6103986004803603810190610393919061355c565b6113ea565b6040516103a59190613428565b60405180910390f35b6103b66115f2565b6040516103c39190613764565b60405180910390f35b6103e660048036038101906103e19190612e22565b61191a565b6040516103f7959493929190613786565b60405180910390f35b61041a60048036038101906104159190613896565b611b70565b005b61043660048036038101906104319190612e22565b611bd2565b6040516104439190612dca565b60405180910390f35b61046660048036038101906104619190613919565b611ce4565b6040516104739190612d1f565b60405180910390f35b61049660048036038101906104919190612ed7565b611d78565b6040516104a39190613428565b60405180910390f35b60007f80ac58cd000000000000000000000000000000000000000000000000000000007bffffffffffffffffffffffffffffffffffffffffffffffffffffffff1916827bffffffffffffffffffffffffffffffffffffffffffffffffffffffff1916148061057757507f5b5e139f000000000000000000000000000000000000000000000000000000007bffffffffffffffffffffffffffffffffffffffffffffffffffffffff1916827bffffffffffffffffffffffffffffffffffffffffffffffffffffffff1916145b80610587575061058682611da9565b5b9050919050565b60606000805461059d90613988565b80601f01602080910402602001604051908101604052809291908181526020018280546105c990613988565b80156106165780601f106105eb57610100808354040283529160200191610616565b820191906000526020600020905b8154815290600101906020018083116105f957829003601f168201915b5050505050905090565b600061062b82611e13565b6004600083815260200190815260200160002060009054906101000a900473ffffffffffffffffffffffffffffffffffffffff169050919050565b600061067182610f86565b90508073ffffffffffffffffffffffffffffffffffffffff168373ffffffffffffffffffffffffffffffffffffffff16036106e1576040517f08c379a00000000000000000000000000000000000000000000000000000000081526004016106d890613a2b565b60405180910390fd5b8073ffffffffffffffffffffffffffffffffffffffff16610700611e5e565b73ffffffffffffffffffffffffffffffffffffffff16148061072f575061072e81610729611e5e565b611ce4565b5b61076e576040517f08c379a000000000000000000000000000000000000000000000000000000000815260040161076590613abd565b60405180910390fd5b6107788383611e66565b505050565b60006107896007611f1f565b90506107956007611f2d565b60096040518060a001604052808381526020018781526020018681526020018581526020018481525090806001815401808255809150506001900390600052602060002090600502016000909190919091506000820151816000015560208201518160010190816108069190613c89565b50604082015181600201908161081c9190613c89565b5060608201518160030190816108329190613c89565b5060808201518160040190816108489190613c89565b5050506040518060a0016040528082815260200186815260200185815260200184815260200183815250600a60008381526020019081526020016000206000820151816000015560208201518160010190816108a49190613c89565b5060408201518160020190816108ba9190613c89565b5060608201518160030190816108d09190613c89565b5060808201518160040190816108e69190613c89565b509050505050505050565b6109026108fc611e5e565b82611f43565b610941576040517f08c379a000000000000000000000000000000000000000000000000000000000815260040161093890613dcd565b60405180910390fd5b61094c838383611fd8565b505050565b60606000600c60003373ffffffffffffffffffffffffffffffffffffffff1673ffffffffffffffffffffffffffffffffffffffff16815260200190815260200160002080549050905060008167ffffffffffffffff8111156109b6576109b5612f21565b5b6040519080825280602002602001820160405280156109ef57816020015b6109dc612bf7565b8152602001906001900390816109d45790505b50905060005b82811015610c3557600b6000600c60003373ffffffffffffffffffffffffffffffffffffffff1673ffffffffffffffffffffffffffffffffffffffff1681526020019081526020016000208381548110610a5257610a51613ded565b5b906000526020600020015481526020019081526020016000206040518060a001604052908160008201548152602001600182015481526020016002820160009054906101000a900473ffffffffffffffffffffffffffffffffffffffff1673ffffffffffffffffffffffffffffffffffffffff1673ffffffffffffffffffffffffffffffffffffffff168152602001600382018054610af090613988565b80601f0160208091040260200160405190810160405280929190818152602001828054610b1c90613988565b8015610b695780601f10610b3e57610100808354040283529160200191610b69565b820191906000526020600020905b815481529060010190602001808311610b4c57829003601f168201915b50505050508152602001600482018054610b8290613988565b80601f0160208091040260200160405190810160405280929190818152602001828054610bae90613988565b8015610bfb5780601f10610bd057610100808354040283529160200191610bfb565b820191906000526020600020905b815481529060010190602001808311610bde57829003601f168201915b505050505081525050828281518110610c1757610c16613ded565b5b60200260200101819052508080610c2d90613e4b565b9150506109f5565b50809250505090565b610c5983838360405180602001604052806000815250611b70565b505050565b610c66612bf7565b6000610c70612bf7565b60005b600c60003373ffffffffffffffffffffffffffffffffffffffff1673ffffffffffffffffffffffffffffffffffffffff16815260200190815260200160002080549050811015610f5f5784600b6000600c60003373ffffffffffffffffffffffffffffffffffffffff1673ffffffffffffffffffffffffffffffffffffffff1681526020019081526020016000208481548110610d1357610d12613ded565b5b906000526020600020015481526020019081526020016000206001015403610f4c57600b6000600c60003373ffffffffffffffffffffffffffffffffffffffff1673ffffffffffffffffffffffffffffffffffffffff1681526020019081526020016000208381548110610d8a57610d89613ded565b5b906000526020600020015481526020019081526020016000206001816040518060a001604052908160008201548152602001600182015481526020016002820160009054906101000a900473ffffffffffffffffffffffffffffffffffffffff1673ffffffffffffffffffffffffffffffffffffffff1673ffffffffffffffffffffffffffffffffffffffff168152602001600382018054610e2b90613988565b80601f0160208091040260200160405190810160405280929190818152602001828054610e5790613988565b8015610ea45780601f10610e7957610100808354040283529160200191610ea4565b820191906000526020600020905b815481529060010190602001808311610e8757829003601f168201915b50505050508152602001600482018054610ebd90613988565b80601f0160208091040260200160405190810160405280929190818152602001828054610ee990613988565b8015610f365780601f10610f0b57610100808354040283529160200191610f36565b820191906000526020600020905b815481529060010190602001808311610f1957829003601f168201915b5050505050815250509150935093505050610f69565b8080610f5790613e4b565b915050610c73565b5080600092509250505b915091565b600d6020528060005260406000206000915090505481565b600080610f92836122d1565b9050600073ffffffffffffffffffffffffffffffffffffffff168173ffffffffffffffffffffffffffffffffffffffff1603611003576040517f08c379a0000000000000000000000000000000000000000000000000000000008152600401610ffa90613edf565b60405180910390fd5b80915050919050565b60008073ffffffffffffffffffffffffffffffffffffffff168273ffffffffffffffffffffffffffffffffffffffff160361107c576040517f08c379a000000000000000000000000000000000000000000000000000000000815260040161107390613f71565b60405180910390fd5b600360008373ffffffffffffffffffffffffffffffffffffffff1673ffffffffffffffffffffffffffffffffffffffff168152602001908152602001600020549050919050565b6060600180546110d290613988565b80601f01602080910402602001604051908101604052809291908181526020018280546110fe90613988565b801561114b5780601f106111205761010080835404028352916020019161114b565b820191906000526020600020905b81548152906001019060200180831161112e57829003601f168201915b5050505050905090565b61115d612c3c565b600a60008381526020019081526020016000206040518060a00160405290816000820154815260200160018201805461119590613988565b80601f01602080910402602001604051908101604052809291908181526020018280546111c190613988565b801561120e5780601f106111e35761010080835404028352916020019161120e565b820191906000526020600020905b8154815290600101906020018083116111f157829003601f168201915b5050505050815260200160028201805461122790613988565b80601f016020809104026020016040519081016040528092919081815260200182805461125390613988565b80156112a05780601f10611275576101008083540402835291602001916112a0565b820191906000526020600020905b81548152906001019060200180831161128357829003601f168201915b505050505081526020016003820180546112b990613988565b80601f01602080910402602001604051908101604052809291908181526020018280546112e590613988565b80156113325780601f1061130757610100808354040283529160200191611332565b820191906000526020600020905b81548152906001019060200180831161131557829003601f168201915b5050505050815260200160048201805461134b90613988565b80601f016020809104026020016040519081016040528092919081815260200182805461137790613988565b80156113c45780601f10611399576101008083540402835291602001916113c4565b820191906000526020600020905b8154815290600101906020018083116113a757829003601f168201915b5050505050815250509050919050565b6113e66113df611e5e565b838361230e565b5050565b6000806113f76008611f1f565b90506114036008611f2d565b61140d338261247a565b6114178187612697565b6040518060a001604052808281526020018681526020013373ffffffffffffffffffffffffffffffffffffffff16815260200185815260200184815250600b6000838152602001908152602001600020600082015181600001556020820151816001015560408201518160020160006101000a81548173ffffffffffffffffffffffffffffffffffffffff021916908373ffffffffffffffffffffffffffffffffffffffff16021790555060608201518160030190816114d79190613c89565b5060808201518160040190816114ed9190613c89565b50905050600c60003373ffffffffffffffffffffffffffffffffffffffff1673ffffffffffffffffffffffffffffffffffffffff1681526020019081526020016000208190806001815401808255809150506001900390600052602060002001600090919091909150556001600d60003373ffffffffffffffffffffffffffffffffffffffff1673ffffffffffffffffffffffffffffffffffffffff168152602001908152602001600020546115a39190613f91565b600d60003373ffffffffffffffffffffffffffffffffffffffff1673ffffffffffffffffffffffffffffffffffffffff1681526020019081526020016000208190555080915050949350505050565b606060006116006007611f1f565b905060006001826116119190613f91565b67ffffffffffffffff81111561162a57611629612f21565b5b60405190808252806020026020018201604052801561166357816020015b611650612c3c565b8152602001906001900390816116485790505b50905060005b82811161191157600a60008281526020019081526020016000206040518060a0016040529081600082015481526020016001820180546116a890613988565b80601f01602080910402602001604051908101604052809291908181526020018280546116d490613988565b80156117215780601f106116f657610100808354040283529160200191611721565b820191906000526020600020905b81548152906001019060200180831161170457829003601f168201915b5050505050815260200160028201805461173a90613988565b80601f016020809104026020016040519081016040528092919081815260200182805461176690613988565b80156117b35780601f10611788576101008083540402835291602001916117b3565b820191906000526020600020905b81548152906001019060200180831161179657829003601f168201915b505050505081526020016003820180546117cc90613988565b80601f01602080910402602001604051908101604052809291908181526020018280546117f890613988565b80156118455780601f1061181a57610100808354040283529160200191611845565b820191906000526020600020905b81548152906001019060200180831161182857829003601f168201915b5050505050815260200160048201805461185e90613988565b80601f016020809104026020016040519081016040528092919081815260200182805461188a90613988565b80156118d75780601f106118ac576101008083540402835291602001916118d7565b820191906000526020600020905b8154815290600101906020018083116118ba57829003601f168201915b5050505050815250508282815181106118f3576118f2613ded565b5b6020026020010181905250808061190990613e4b565b915050611669565b50809250505090565b600a60205280600052604060002060009150905080600001549080600101805461194390613988565b80601f016020809104026020016040519081016040528092919081815260200182805461196f90613988565b80156119bc5780601f10611991576101008083540402835291602001916119bc565b820191906000526020600020905b81548152906001019060200180831161199f57829003601f168201915b5050505050908060020180546119d190613988565b80601f01602080910402602001604051908101604052809291908181526020018280546119fd90613988565b8015611a4a5780601f10611a1f57610100808354040283529160200191611a4a565b820191906000526020600020905b815481529060010190602001808311611a2d57829003601f168201915b505050505090806003018054611a5f90613988565b80601f0160208091040260200160405190810160405280929190818152602001828054611a8b90613988565b8015611ad85780601f10611aad57610100808354040283529160200191611ad8565b820191906000526020600020905b815481529060010190602001808311611abb57829003601f168201915b505050505090806004018054611aed90613988565b80601f0160208091040260200160405190810160405280929190818152602001828054611b1990613988565b8015611b665780601f10611b3b57610100808354040283529160200191611b66565b820191906000526020600020905b815481529060010190602001808311611b4957829003601f168201915b5050505050905085565b611b81611b7b611e5e565b83611f43565b611bc0576040517f08c379a0000000000000000000000000000000000000000000000000000000008152600401611bb790613dcd565b60405180910390fd5b611bcc84848484612704565b50505050565b6060611bdd82611e13565b6000600660008481526020019081526020016000208054611bfd90613988565b80601f0160208091040260200160405190810160405280929190818152602001828054611c2990613988565b8015611c765780601f10611c4b57610100808354040283529160200191611c76565b820191906000526020600020905b815481529060010190602001808311611c5957829003601f168201915b505050505090506000611c87612760565b90506000815103611c9c578192505050611cdf565b600082511115611cd1578082604051602001611cb9929190614001565b60405160208183030381529060405292505050611cdf565b611cda84612777565b925050505b919050565b6000600560008473ffffffffffffffffffffffffffffffffffffffff1673ffffffffffffffffffffffffffffffffffffffff16815260200190815260200160002060008373ffffffffffffffffffffffffffffffffffffffff1673ffffffffffffffffffffffffffffffffffffffff16815260200190815260200160002060009054906101000a900460ff16905092915050565b600c6020528160005260406000208181548110611d9457600080fd5b90600052602060002001600091509150505481565b60007f01ffc9a7000000000000000000000000000000000000000000000000000000007bffffffffffffffffffffffffffffffffffffffffffffffffffffffff1916827bffffffffffffffffffffffffffffffffffffffffffffffffffffffff1916149050919050565b611e1c816127df565b611e5b576040517f08c379a0000000000000000000000000000000000000000000000000000000008152600401611e5290613edf565b60405180910390fd5b50565b600033905090565b816004600083815260200190815260200160002060006101000a81548173ffffffffffffffffffffffffffffffffffffffff021916908373ffffffffffffffffffffffffffffffffffffffff160217905550808273ffffffffffffffffffffffffffffffffffffffff16611ed983610f86565b73ffffffffffffffffffffffffffffffffffffffff167f8c5be1e5ebec7d5bd14f71427d1e84f3dd0314c0f7b2291e5b200ac8c7c3b92560405160405180910390a45050565b600081600001549050919050565b6001816000016000828254019250508190555050565b600080611f4f83610f86565b90508073ffffffffffffffffffffffffffffffffffffffff168473ffffffffffffffffffffffffffffffffffffffff161480611f915750611f908185611ce4565b5b80611fcf57508373ffffffffffffffffffffffffffffffffffffffff16611fb784610620565b73ffffffffffffffffffffffffffffffffffffffff16145b91505092915050565b8273ffffffffffffffffffffffffffffffffffffffff16611ff882610f86565b73ffffffffffffffffffffffffffffffffffffffff161461204e576040517f08c379a000000000000000000000000000000000000000000000000000000000815260040161204590614097565b60405180910390fd5b600073ffffffffffffffffffffffffffffffffffffffff168273ffffffffffffffffffffffffffffffffffffffff16036120bd576040517f08c379a00000000000000000000000000000000000000000000000000000000081526004016120b490614129565b60405180910390fd5b6120ca8383836001612820565b8273ffffffffffffffffffffffffffffffffffffffff166120ea82610f86565b73ffffffffffffffffffffffffffffffffffffffff1614612140576040517f08c379a000000000000000000000000000000000000000000000000000000000815260040161213790614097565b60405180910390fd5b6004600082815260200190815260200160002060006101000a81549073ffffffffffffffffffffffffffffffffffffffff02191690556001600360008573ffffffffffffffffffffffffffffffffffffffff1673ffffffffffffffffffffffffffffffffffffffff168152602001908152602001600020600082825403925050819055506001600360008473ffffffffffffffffffffffffffffffffffffffff1673ffffffffffffffffffffffffffffffffffffffff16815260200190815260200160002060008282540192505081905550816002600083815260200190815260200160002060006101000a81548173ffffffffffffffffffffffffffffffffffffffff021916908373ffffffffffffffffffffffffffffffffffffffff160217905550808273ffffffffffffffffffffffffffffffffffffffff168473ffffffffffffffffffffffffffffffffffffffff167fddf252ad1be2c89b69c2b068fc378daa952ba7f163c4a11628f55a4df523b3ef60405160405180910390a46122cc8383836001612826565b505050565b60006002600083815260200190815260200160002060009054906101000a900473ffffffffffffffffffffffffffffffffffffffff169050919050565b8173ffffffffffffffffffffffffffffffffffffffff168373ffffffffffffffffffffffffffffffffffffffff160361237c576040517f08c379a000000000000000000000000000000000000000000000000000000000815260040161237390614195565b60405180910390fd5b80600560008573ffffffffffffffffffffffffffffffffffffffff1673ffffffffffffffffffffffffffffffffffffffff16815260200190815260200160002060008473ffffffffffffffffffffffffffffffffffffffff1673ffffffffffffffffffffffffffffffffffffffff16815260200190815260200160002060006101000a81548160ff0219169083151502179055508173ffffffffffffffffffffffffffffffffffffffff168373ffffffffffffffffffffffffffffffffffffffff167f17307eab39ab6107e8899845ad3d59bd9653f200f220920489ca2b5937696c318360405161246d9190612d1f565b60405180910390a3505050565b600073ffffffffffffffffffffffffffffffffffffffff168273ffffffffffffffffffffffffffffffffffffffff16036124e9576040517f08c379a00000000000000000000000000000000000000000000000000000000081526004016124e090614201565b60405180910390fd5b6124f2816127df565b15612532576040517f08c379a00000000000000000000000000000000000000000000000000000000081526004016125299061426d565b60405180910390fd5b612540600083836001612820565b612549816127df565b15612589576040517f08c379a00000000000000000000000000000000000000000000000000000000081526004016125809061426d565b60405180910390fd5b6001600360008473ffffffffffffffffffffffffffffffffffffffff1673ffffffffffffffffffffffffffffffffffffffff16815260200190815260200160002060008282540192505081905550816002600083815260200190815260200160002060006101000a81548173ffffffffffffffffffffffffffffffffffffffff021916908373ffffffffffffffffffffffffffffffffffffffff160217905550808273ffffffffffffffffffffffffffffffffffffffff16600073ffffffffffffffffffffffffffffffffffffffff167fddf252ad1be2c89b69c2b068fc378daa952ba7f163c4a11628f55a4df523b3ef60405160405180910390a4612693600083836001612826565b5050565b6126a0826127df565b6126df576040517f08c379a00000000000000000000000000000000000000000000000000000000081526004016126d6906142ff565b60405180910390fd5b806006600084815260200190815260200160002090816126ff9190613c89565b505050565b61270f848484611fd8565b61271b8484848461282c565b61275a576040517f08c379a000000000000000000000000000000000000000000000000000000000815260040161275190614391565b60405180910390fd5b50505050565b606060405180602001604052806000815250905090565b606061278282611e13565b600061278c612760565b905060008151116127ac57604051806020016040528060008152506127d7565b806127b6846129b3565b6040516020016127c7929190614001565b6040516020818303038152906040525b915050919050565b60008073ffffffffffffffffffffffffffffffffffffffff16612801836122d1565b73ffffffffffffffffffffffffffffffffffffffff1614159050919050565b50505050565b50505050565b600061284d8473ffffffffffffffffffffffffffffffffffffffff16612a81565b156129a6578373ffffffffffffffffffffffffffffffffffffffff1663150b7a02612876611e5e565b8786866040518563ffffffff1660e01b81526004016128989493929190614406565b6020604051808303816000875af19250505080156128d457506040513d601f19601f820116820180604052508101906128d19190614467565b60015b612956573d8060008114612904576040519150601f19603f3d011682016040523d82523d6000602084013e612909565b606091505b50600081510361294e576040517f08c379a000000000000000000000000000000000000000000000000000000000815260040161294590614391565b60405180910390fd5b805181602001fd5b63150b7a0260e01b7bffffffffffffffffffffffffffffffffffffffffffffffffffffffff1916817bffffffffffffffffffffffffffffffffffffffffffffffffffffffff1916149150506129ab565b600190505b949350505050565b6060600060016129c284612aa4565b01905060008167ffffffffffffffff8111156129e1576129e0612f21565b5b6040519080825280601f01601f191660200182016040528015612a135781602001600182028036833780820191505090505b509050600082602001820190505b600115612a76578080600190039150507f3031323334353637383961626364656600000000000000000000000000000000600a86061a8153600a8581612a6a57612a69614494565b5b04945060008503612a21575b819350505050919050565b6000808273ffffffffffffffffffffffffffffffffffffffff163b119050919050565b600080600090507a184f03e93ff9f4daa797ed6e38ed64bf6a1f0100000000000000008310612b02577a184f03e93ff9f4daa797ed6e38ed64bf6a1f0100000000000000008381612af857612af7614494565b5b0492506040810190505b6d04ee2d6d415b85acef81000000008310612b3f576d04ee2d6d415b85acef81000000008381612b3557612b34614494565b5b0492506020810190505b662386f26fc100008310612b6e57662386f26fc100008381612b6457612b63614494565b5b0492506010810190505b6305f5e1008310612b97576305f5e1008381612b8d57612b8c614494565b5b0492506008810190505b6127108310612bbc576127108381612bb257612bb1614494565b5b0492506004810190505b60648310612bdf5760648381612bd557612bd4614494565b5b0492506002810190505b600a8310612bee576001810190505b80915050919050565b6040518060a001604052806000815260200160008152602001600073ffffffffffffffffffffffffffffffffffffffff16815260200160608152602001606081525090565b6040518060a0016040528060008152602001606081526020016060815260200160608152602001606081525090565b6000604051905090565b600080fd5b600080fd5b60007fffffffff0000000000000000000000000000000000000000000000000000000082169050919050565b612cb481612c7f565b8114612cbf57600080fd5b50565b600081359050612cd181612cab565b92915050565b600060208284031215612ced57612cec612c75565b5b6000612cfb84828501612cc2565b91505092915050565b60008115159050919050565b612d1981612d04565b82525050565b6000602082019050612d346000830184612d10565b92915050565b600081519050919050565b600082825260208201905092915050565b60005b83811015612d74578082015181840152602081019050612d59565b60008484015250505050565b6000601f19601f8301169050919050565b6000612d9c82612d3a565b612da68185612d45565b9350612db6818560208601612d56565b612dbf81612d80565b840191505092915050565b60006020820190508181036000830152612de48184612d91565b905092915050565b6000819050919050565b612dff81612dec565b8114612e0a57600080fd5b50565b600081359050612e1c81612df6565b92915050565b600060208284031215612e3857612e37612c75565b5b6000612e4684828501612e0d565b91505092915050565b600073ffffffffffffffffffffffffffffffffffffffff82169050919050565b6000612e7a82612e4f565b9050919050565b612e8a81612e6f565b82525050565b6000602082019050612ea56000830184612e81565b92915050565b612eb481612e6f565b8114612ebf57600080fd5b50565b600081359050612ed181612eab565b92915050565b60008060408385031215612eee57612eed612c75565b5b6000612efc85828601612ec2565b9250506020612f0d85828601612e0d565b9150509250929050565b600080fd5b600080fd5b7f4e487b7100000000000000000000000000000000000000000000000000000000600052604160045260246000fd5b612f5982612d80565b810181811067ffffffffffffffff82111715612f7857612f77612f21565b5b80604052505050565b6000612f8b612c6b565b9050612f978282612f50565b919050565b600067ffffffffffffffff821115612fb757612fb6612f21565b5b612fc082612d80565b9050602081019050919050565b82818337600083830152505050565b6000612fef612fea84612f9c565b612f81565b90508281526020810184848401111561300b5761300a612f1c565b5b613016848285612fcd565b509392505050565b600082601f83011261303357613032612f17565b5b8135613043848260208601612fdc565b91505092915050565b6000806000806080858703121561306657613065612c75565b5b600085013567ffffffffffffffff81111561308457613083612c7a565b5b6130908782880161301e565b945050602085013567ffffffffffffffff8111156130b1576130b0612c7a565b5b6130bd8782880161301e565b935050604085013567ffffffffffffffff8111156130de576130dd612c7a565b5b6130ea8782880161301e565b925050606085013567ffffffffffffffff81111561310b5761310a612c7a565b5b6131178782880161301e565b91505092959194509250565b60008060006060848603121561313c5761313b612c75565b5b600061314a86828701612ec2565b935050602061315b86828701612ec2565b925050604061316c86828701612e0d565b9150509250925092565b600081519050919050565b600082825260208201905092915050565b6000819050602082019050919050565b6131ab81612dec565b82525050565b6131ba81612e6f565b82525050565b600082825260208201905092915050565b60006131dc82612d3a565b6131e681856131c0565b93506131f6818560208601612d56565b6131ff81612d80565b840191505092915050565b600060a08301600083015161322260008601826131a2565b50602083015161323560208601826131a2565b50604083015161324860408601826131b1565b506060830151848203606086015261326082826131d1565b9150506080830151848203608086015261327a82826131d1565b9150508091505092915050565b6000613293838361320a565b905092915050565b6000602082019050919050565b60006132b382613176565b6132bd8185613181565b9350836020820285016132cf85613192565b8060005b8581101561330b57848403895281516132ec8582613287565b94506132f78361329b565b925060208a019950506001810190506132d3565b50829750879550505050505092915050565b6000602082019050818103600083015261333781846132a8565b905092915050565b600060a08301600083015161335760008601826131a2565b50602083015161336a60208601826131a2565b50604083015161337d60408601826131b1565b506060830151848203606086015261339582826131d1565b915050608083015184820360808601526133af82826131d1565b9150508091505092915050565b600060408201905081810360008301526133d6818561333f565b90506133e56020830184612d10565b9392505050565b60006020828403121561340257613401612c75565b5b600061341084828501612ec2565b91505092915050565b61342281612dec565b82525050565b600060208201905061343d6000830184613419565b92915050565b600060a08301600083015161345b60008601826131a2565b506020830151848203602086015261347382826131d1565b9150506040830151848203604086015261348d82826131d1565b915050606083015184820360608601526134a782826131d1565b915050608083015184820360808601526134c182826131d1565b9150508091505092915050565b600060208201905081810360008301526134e88184613443565b905092915050565b6134f981612d04565b811461350457600080fd5b50565b600081359050613516816134f0565b92915050565b6000806040838503121561353357613532612c75565b5b600061354185828601612ec2565b925050602061355285828601613507565b9150509250929050565b6000806000806080858703121561357657613575612c75565b5b600085013567ffffffffffffffff81111561359457613593612c7a565b5b6135a08782880161301e565b94505060206135b187828801612e0d565b935050604085013567ffffffffffffffff8111156135d2576135d1612c7a565b5b6135de8782880161301e565b925050606085013567ffffffffffffffff8111156135ff576135fe612c7a565b5b61360b8782880161301e565b91505092959194509250565b600081519050919050565b600082825260208201905092915050565b6000819050602082019050919050565b600060a08301600083015161365b60008601826131a2565b506020830151848203602086015261367382826131d1565b9150506040830151848203604086015261368d82826131d1565b915050606083015184820360608601526136a782826131d1565b915050608083015184820360808601526136c182826131d1565b9150508091505092915050565b60006136da8383613643565b905092915050565b6000602082019050919050565b60006136fa82613617565b6137048185613622565b93508360208202850161371685613633565b8060005b85811015613752578484038952815161373385826136ce565b945061373e836136e2565b925060208a0199505060018101905061371a565b50829750879550505050505092915050565b6000602082019050818103600083015261377e81846136ef565b905092915050565b600060a08201905061379b6000830188613419565b81810360208301526137ad8187612d91565b905081810360408301526137c18186612d91565b905081810360608301526137d58185612d91565b905081810360808301526137e98184612d91565b90509695505050505050565b600067ffffffffffffffff8211156138105761380f612f21565b5b61381982612d80565b9050602081019050919050565b6000613839613834846137f5565b612f81565b90508281526020810184848401111561385557613854612f1c565b5b613860848285612fcd565b509392505050565b600082601f83011261387d5761387c612f17565b5b813561388d848260208601613826565b91505092915050565b600080600080608085870312156138b0576138af612c75565b5b60006138be87828801612ec2565b94505060206138cf87828801612ec2565b93505060406138e087828801612e0d565b925050606085013567ffffffffffffffff81111561390157613900612c7a565b5b61390d87828801613868565b91505092959194509250565b600080604083850312156139305761392f612c75565b5b600061393e85828601612ec2565b925050602061394f85828601612ec2565b9150509250929050565b7f4e487b7100000000000000000000000000000000000000000000000000000000600052602260045260246000fd5b600060028204905060018216806139a057607f821691505b6020821081036139b3576139b2613959565b5b50919050565b7f4552433732313a20617070726f76616c20746f2063757272656e74206f776e6560008201527f7200000000000000000000000000000000000000000000000000000000000000602082015250565b6000613a15602183612d45565b9150613a20826139b9565b604082019050919050565b60006020820190508181036000830152613a4481613a08565b9050919050565b7f4552433732313a20617070726f76652063616c6c6572206973206e6f7420746f60008201527f6b656e206f776e6572206f7220617070726f76656420666f7220616c6c000000602082015250565b6000613aa7603d83612d45565b9150613ab282613a4b565b604082019050919050565b60006020820190508181036000830152613ad681613a9a565b9050919050565b60008190508160005260206000209050919050565b60006020601f8301049050919050565b600082821b905092915050565b600060088302613b3f7fffffffffffffffffffffffffffffffffffffffffffffffffffffffffffffffff82613b02565b613b498683613b02565b95508019841693508086168417925050509392505050565b6000819050919050565b6000613b86613b81613b7c84612dec565b613b61565b612dec565b9050919050565b6000819050919050565b613ba083613b6b565b613bb4613bac82613b8d565b848454613b0f565b825550505050565b600090565b613bc9613bbc565b613bd4818484613b97565b505050565b5b81811015613bf857613bed600082613bc1565b600181019050613bda565b5050565b601f821115613c3d57613c0e81613add565b613c1784613af2565b81016020851015613c26578190505b613c3a613c3285613af2565b830182613bd9565b50505b505050565b600082821c905092915050565b6000613c6060001984600802613c42565b1980831691505092915050565b6000613c798383613c4f565b9150826002028217905092915050565b613c9282612d3a565b67ffffffffffffffff811115613cab57613caa612f21565b5b613cb58254613988565b613cc0828285613bfc565b600060209050601f831160018114613cf35760008415613ce1578287015190505b613ceb8582613c6d565b865550613d53565b601f198416613d0186613add565b60005b82811015613d2957848901518255600182019150602085019450602081019050613d04565b86831015613d465784890151613d42601f891682613c4f565b8355505b6001600288020188555050505b505050505050565b7f4552433732313a2063616c6c6572206973206e6f7420746f6b656e206f776e6560008201527f72206f7220617070726f76656400000000000000000000000000000000000000602082015250565b6000613db7602d83612d45565b9150613dc282613d5b565b604082019050919050565b60006020820190508181036000830152613de681613daa565b9050919050565b7f4e487b7100000000000000000000000000000000000000000000000000000000600052603260045260246000fd5b7f4e487b7100000000000000000000000000000000000000000000000000000000600052601160045260246000fd5b6000613e5682612dec565b91507fffffffffffffffffffffffffffffffffffffffffffffffffffffffffffffffff8203613e8857613e87613e1c565b5b600182019050919050565b7f4552433732313a20696e76616c696420746f6b656e2049440000000000000000600082015250565b6000613ec9601883612d45565b9150613ed482613e93565b602082019050919050565b60006020820190508181036000830152613ef881613ebc565b9050919050565b7f4552433732313a2061646472657373207a65726f206973206e6f74206120766160008201527f6c6964206f776e65720000000000000000000000000000000000000000000000602082015250565b6000613f5b602983612d45565b9150613f6682613eff565b604082019050919050565b60006020820190508181036000830152613f8a81613f4e565b9050919050565b6000613f9c82612dec565b9150613fa783612dec565b9250828201905080821115613fbf57613fbe613e1c565b5b92915050565b600081905092915050565b6000613fdb82612d3a565b613fe58185613fc5565b9350613ff5818560208601612d56565b80840191505092915050565b600061400d8285613fd0565b91506140198284613fd0565b91508190509392505050565b7f4552433732313a207472616e736665722066726f6d20696e636f72726563742060008201527f6f776e6572000000000000000000000000000000000000000000000000000000602082015250565b6000614081602583612d45565b915061408c82614025565b604082019050919050565b600060208201905081810360008301526140b081614074565b9050919050565b7f4552433732313a207472616e7366657220746f20746865207a65726f2061646460008201527f7265737300000000000000000000000000000000000000000000000000000000602082015250565b6000614113602483612d45565b915061411e826140b7565b604082019050919050565b6000602082019050818103600083015261414281614106565b9050919050565b7f4552433732313a20617070726f766520746f2063616c6c657200000000000000600082015250565b600061417f601983612d45565b915061418a82614149565b602082019050919050565b600060208201905081810360008301526141ae81614172565b9050919050565b7f4552433732313a206d696e7420746f20746865207a65726f2061646472657373600082015250565b60006141eb602083612d45565b91506141f6826141b5565b602082019050919050565b6000602082019050818103600083015261421a816141de565b9050919050565b7f4552433732313a20746f6b656e20616c7265616479206d696e74656400000000600082015250565b6000614257601c83612d45565b915061426282614221565b602082019050919050565b600060208201905081810360008301526142868161424a565b9050919050565b7f45524337323155524953746f726167653a2055524920736574206f66206e6f6e60008201527f6578697374656e7420746f6b656e000000000000000000000000000000000000602082015250565b60006142e9602e83612d45565b91506142f48261428d565b604082019050919050565b60006020820190508181036000830152614318816142dc565b9050919050565b7f4552433732313a207472616e7366657220746f206e6f6e20455243373231526560008201527f63656976657220696d706c656d656e7465720000000000000000000000000000602082015250565b600061437b603283612d45565b91506143868261431f565b604082019050919050565b600060208201905081810360008301526143aa8161436e565b9050919050565b600081519050919050565b600082825260208201905092915050565b60006143d8826143b1565b6143e281856143bc565b93506143f2818560208601612d56565b6143fb81612d80565b840191505092915050565b600060808201905061441b6000830187612e81565b6144286020830186612e81565b6144356040830185613419565b818103606083015261444781846143cd565b905095945050505050565b60008151905061446181612cab565b92915050565b60006020828403121561447d5761447c612c75565b5b600061448b84828501614452565b91505092915050565b7f4e487b7100000000000000000000000000000000000000000000000000000000600052601260045260246000fdfea2646970667358221220bafed3600c0700362c93c061cd7159e58529176294ebbd314babbe0f2d36934764736f6c63430008110033",
  "devdoc": {
    "kind": "dev",
    "methods": {
      "approve(address,uint256)": {
        "details": "See {IERC721-approve}."
      },
      "balanceOf(address)": {
        "details": "See {IERC721-balanceOf}."
      },
      "getApproved(uint256)": {
        "details": "See {IERC721-getApproved}."
      },
      "isApprovedForAll(address,address)": {
        "details": "See {IERC721-isApprovedForAll}."
      },
      "name()": {
        "details": "See {IERC721Metadata-name}."
      },
      "ownerOf(uint256)": {
        "details": "See {IERC721-ownerOf}."
      },
      "safeTransferFrom(address,address,uint256)": {
        "details": "See {IERC721-safeTransferFrom}."
      },
      "safeTransferFrom(address,address,uint256,bytes)": {
        "details": "See {IERC721-safeTransferFrom}."
      },
      "setApprovalForAll(address,bool)": {
        "details": "See {IERC721-setApprovalForAll}."
      },
      "supportsInterface(bytes4)": {
        "details": "See {IERC165-supportsInterface}."
      },
      "symbol()": {
        "details": "See {IERC721Metadata-symbol}."
      },
      "tokenURI(uint256)": {
        "details": "See {IERC721Metadata-tokenURI}."
      },
      "transferFrom(address,address,uint256)": {
        "details": "See {IERC721-transferFrom}."
      }
    },
    "version": 1
  },
  "userdoc": {
    "kind": "user",
    "methods": {},
    "version": 1
  },
  "storageLayout": {
    "storage": [
      {
        "astId": 79,
        "contract": "contracts/STCDao.sol:STCDao",
        "label": "_name",
        "offset": 0,
        "slot": "0",
        "type": "t_string_storage"
      },
      {
        "astId": 81,
        "contract": "contracts/STCDao.sol:STCDao",
        "label": "_symbol",
        "offset": 0,
        "slot": "1",
        "type": "t_string_storage"
      },
      {
        "astId": 85,
        "contract": "contracts/STCDao.sol:STCDao",
        "label": "_owners",
        "offset": 0,
        "slot": "2",
        "type": "t_mapping(t_uint256,t_address)"
      },
      {
        "astId": 89,
        "contract": "contracts/STCDao.sol:STCDao",
        "label": "_balances",
        "offset": 0,
        "slot": "3",
        "type": "t_mapping(t_address,t_uint256)"
      },
      {
        "astId": 93,
        "contract": "contracts/STCDao.sol:STCDao",
        "label": "_tokenApprovals",
        "offset": 0,
        "slot": "4",
        "type": "t_mapping(t_uint256,t_address)"
      },
      {
        "astId": 99,
        "contract": "contracts/STCDao.sol:STCDao",
        "label": "_operatorApprovals",
        "offset": 0,
        "slot": "5",
        "type": "t_mapping(t_address,t_mapping(t_address,t_bool))"
      },
      {
        "astId": 1127,
        "contract": "contracts/STCDao.sol:STCDao",
        "label": "_tokenURIs",
        "offset": 0,
        "slot": "6",
        "type": "t_mapping(t_uint256,t_string_storage)"
      },
      {
        "astId": 2784,
        "contract": "contracts/STCDao.sol:STCDao",
        "label": "_daoIdCounter",
        "offset": 0,
        "slot": "7",
        "type": "t_struct(Counter)1624_storage"
      },
      {
        "astId": 2787,
        "contract": "contracts/STCDao.sol:STCDao",
        "label": "_tokenIdCounter",
        "offset": 0,
        "slot": "8",
        "type": "t_struct(Counter)1624_storage"
      },
      {
        "astId": 2813,
        "contract": "contracts/STCDao.sol:STCDao",
        "label": "daoArr",
        "offset": 0,
        "slot": "9",
        "type": "t_array(t_struct(Dao)2809_storage)dyn_storage"
      },
      {
        "astId": 2818,
        "contract": "contracts/STCDao.sol:STCDao",
        "label": "idToDao",
        "offset": 0,
        "slot": "10",
        "type": "t_mapping(t_uint256,t_struct(Dao)2809_storage)"
      },
      {
        "astId": 2823,
        "contract": "contracts/STCDao.sol:STCDao",
        "label": "idToUserSoul",
        "offset": 0,
        "slot": "11",
        "type": "t_mapping(t_uint256,t_struct(Soul)2798_storage)"
      },
      {
        "astId": 2828,
        "contract": "contracts/STCDao.sol:STCDao",
        "label": "userSoulIds",
        "offset": 0,
        "slot": "12",
        "type": "t_mapping(t_address,t_array(t_uint256)dyn_storage)"
      },
      {
        "astId": 2832,
        "contract": "contracts/STCDao.sol:STCDao",
        "label": "userSoulCount",
        "offset": 0,
        "slot": "13",
        "type": "t_mapping(t_address,t_uint256)"
      }
    ],
    "types": {
      "t_address": {
        "encoding": "inplace",
        "label": "address",
        "numberOfBytes": "20"
      },
      "t_array(t_struct(Dao)2809_storage)dyn_storage": {
        "base": "t_struct(Dao)2809_storage",
        "encoding": "dynamic_array",
        "label": "struct STCDao.Dao[]",
        "numberOfBytes": "32"
      },
      "t_array(t_uint256)dyn_storage": {
        "base": "t_uint256",
        "encoding": "dynamic_array",
        "label": "uint256[]",
        "numberOfBytes": "32"
      },
      "t_bool": {
        "encoding": "inplace",
        "label": "bool",
        "numberOfBytes": "1"
      },
      "t_mapping(t_address,t_array(t_uint256)dyn_storage)": {
        "encoding": "mapping",
        "key": "t_address",
        "label": "mapping(address => uint256[])",
        "numberOfBytes": "32",
        "value": "t_array(t_uint256)dyn_storage"
      },
      "t_mapping(t_address,t_bool)": {
        "encoding": "mapping",
        "key": "t_address",
        "label": "mapping(address => bool)",
        "numberOfBytes": "32",
        "value": "t_bool"
      },
      "t_mapping(t_address,t_mapping(t_address,t_bool))": {
        "encoding": "mapping",
        "key": "t_address",
        "label": "mapping(address => mapping(address => bool))",
        "numberOfBytes": "32",
        "value": "t_mapping(t_address,t_bool)"
      },
      "t_mapping(t_address,t_uint256)": {
        "encoding": "mapping",
        "key": "t_address",
        "label": "mapping(address => uint256)",
        "numberOfBytes": "32",
        "value": "t_uint256"
      },
      "t_mapping(t_uint256,t_address)": {
        "encoding": "mapping",
        "key": "t_uint256",
        "label": "mapping(uint256 => address)",
        "numberOfBytes": "32",
        "value": "t_address"
      },
      "t_mapping(t_uint256,t_string_storage)": {
        "encoding": "mapping",
        "key": "t_uint256",
        "label": "mapping(uint256 => string)",
        "numberOfBytes": "32",
        "value": "t_string_storage"
      },
      "t_mapping(t_uint256,t_struct(Dao)2809_storage)": {
        "encoding": "mapping",
        "key": "t_uint256",
        "label": "mapping(uint256 => struct STCDao.Dao)",
        "numberOfBytes": "32",
        "value": "t_struct(Dao)2809_storage"
      },
      "t_mapping(t_uint256,t_struct(Soul)2798_storage)": {
        "encoding": "mapping",
        "key": "t_uint256",
        "label": "mapping(uint256 => struct STCDao.Soul)",
        "numberOfBytes": "32",
        "value": "t_struct(Soul)2798_storage"
      },
      "t_string_storage": {
        "encoding": "bytes",
        "label": "string",
        "numberOfBytes": "32"
      },
      "t_struct(Counter)1624_storage": {
        "encoding": "inplace",
        "label": "struct Counters.Counter",
        "members": [
          {
            "astId": 1623,
            "contract": "contracts/STCDao.sol:STCDao",
            "label": "_value",
            "offset": 0,
            "slot": "0",
            "type": "t_uint256"
          }
        ],
        "numberOfBytes": "32"
      },
      "t_struct(Dao)2809_storage": {
        "encoding": "inplace",
        "label": "struct STCDao.Dao",
        "members": [
          {
            "astId": 2800,
            "contract": "contracts/STCDao.sol:STCDao",
            "label": "daoId",
            "offset": 0,
            "slot": "0",
            "type": "t_uint256"
          },
          {
            "astId": 2802,
            "contract": "contracts/STCDao.sol:STCDao",
            "label": "name",
            "offset": 0,
            "slot": "1",
            "type": "t_string_storage"
          },
          {
            "astId": 2804,
            "contract": "contracts/STCDao.sol:STCDao",
            "label": "description",
            "offset": 0,
            "slot": "2",
            "type": "t_string_storage"
          },
          {
            "astId": 2806,
            "contract": "contracts/STCDao.sol:STCDao",
            "label": "jsoninfo",
            "offset": 0,
            "slot": "3",
            "type": "t_string_storage"
          },
          {
            "astId": 2808,
            "contract": "contracts/STCDao.sol:STCDao",
            "label": "image",
            "offset": 0,
            "slot": "4",
            "type": "t_string_storage"
          }
        ],
        "numberOfBytes": "160"
      },
      "t_struct(Soul)2798_storage": {
        "encoding": "inplace",
        "label": "struct STCDao.Soul",
        "members": [
          {
            "astId": 2789,
            "contract": "contracts/STCDao.sol:STCDao",
            "label": "tokenId",
            "offset": 0,
            "slot": "0",
            "type": "t_uint256"
          },
          {
            "astId": 2791,
            "contract": "contracts/STCDao.sol:STCDao",
            "label": "daoId",
            "offset": 0,
            "slot": "1",
            "type": "t_uint256"
          },
          {
            "astId": 2793,
            "contract": "contracts/STCDao.sol:STCDao",
            "label": "user",
            "offset": 0,
            "slot": "2",
            "type": "t_address"
          },
          {
            "astId": 2795,
            "contract": "contracts/STCDao.sol:STCDao",
            "label": "metadata",
            "offset": 0,
            "slot": "3",
            "type": "t_string_storage"
          },
          {
            "astId": 2797,
            "contract": "contracts/STCDao.sol:STCDao",
            "label": "image",
            "offset": 0,
            "slot": "4",
            "type": "t_string_storage"
          }
        ],
        "numberOfBytes": "160"
      },
      "t_uint256": {
        "encoding": "inplace",
        "label": "uint256",
        "numberOfBytes": "32"
      }
    }
  }
}