{
  "address": "0x4D736E5c2B0c5C8E9EE88955964ead24C8D70469",
  "abi": [
    {
      "inputs": [],
      "stateMutability": "nonpayable",
      "type": "constructor"
    },
    {
      "anonymous": false,
      "inputs": [
        {
          "indexed": true,
          "internalType": "address",
          "name": "owner",
          "type": "address"
        },
        {
          "indexed": true,
          "internalType": "address",
          "name": "approved",
          "type": "address"
        },
        {
          "indexed": true,
          "internalType": "uint256",
          "name": "tokenId",
          "type": "uint256"
        }
      ],
      "name": "Approval",
      "type": "event"
    },
    {
      "anonymous": false,
      "inputs": [
        {
          "indexed": true,
          "internalType": "address",
          "name": "owner",
          "type": "address"
        },
        {
          "indexed": true,
          "internalType": "address",
          "name": "operator",
          "type": "address"
        },
        {
          "indexed": false,
          "internalType": "bool",
          "name": "approved",
          "type": "bool"
        }
      ],
      "name": "ApprovalForAll",
      "type": "event"
    },
    {
      "anonymous": false,
      "inputs": [
        {
          "indexed": false,
          "internalType": "address",
          "name": "",
          "type": "address"
        },
        {
          "indexed": false,
          "internalType": "uint256",
          "name": "",
          "type": "uint256"
        }
      ],
      "name": "TokenMinted",
      "type": "event"
    },
    {
      "anonymous": false,
      "inputs": [
        {
          "indexed": false,
          "internalType": "address",
          "name": "",
          "type": "address"
        },
        {
          "indexed": false,
          "internalType": "address",
          "name": "",
          "type": "address"
        },
        {
          "indexed": false,
          "internalType": "uint256",
          "name": "",
          "type": "uint256"
        }
      ],
      "name": "TokenTransfered",
      "type": "event"
    },
    {
      "anonymous": false,
      "inputs": [
        {
          "indexed": true,
          "internalType": "address",
          "name": "from",
          "type": "address"
        },
        {
          "indexed": true,
          "internalType": "address",
          "name": "to",
          "type": "address"
        },
        {
          "indexed": true,
          "internalType": "uint256",
          "name": "tokenId",
          "type": "uint256"
        }
      ],
      "name": "Transfer",
      "type": "event"
    },
    {
      "inputs": [
        {
          "internalType": "uint256",
          "name": "",
          "type": "uint256"
        },
        {
          "internalType": "uint256",
          "name": "",
          "type": "uint256"
        }
      ],
      "name": "_daoMarketApiIds",
      "outputs": [
        {
          "internalType": "uint256",
          "name": "",
          "type": "uint256"
        }
      ],
      "stateMutability": "view",
      "type": "function"
    },
    {
      "inputs": [
        {
          "internalType": "uint256",
          "name": "",
          "type": "uint256"
        }
      ],
      "name": "_idToDao",
      "outputs": [
        {
          "internalType": "uint256",
          "name": "daoId",
          "type": "uint256"
        },
        {
          "internalType": "string",
          "name": "name",
          "type": "string"
        },
        {
          "internalType": "string",
          "name": "description",
          "type": "string"
        },
        {
          "internalType": "string",
          "name": "jsoninfo",
          "type": "string"
        },
        {
          "internalType": "string",
          "name": "image",
          "type": "string"
        },
        {
          "internalType": "address",
          "name": "daoOwner",
          "type": "address"
        }
      ],
      "stateMutability": "view",
      "type": "function"
    },
    {
      "inputs": [
        {
          "internalType": "address",
          "name": "",
          "type": "address"
        },
        {
          "internalType": "uint256",
          "name": "",
          "type": "uint256"
        }
      ],
      "name": "_providerDaoIds",
      "outputs": [
        {
          "internalType": "uint256",
          "name": "",
          "type": "uint256"
        }
      ],
      "stateMutability": "view",
      "type": "function"
    },
    {
      "inputs": [
        {
          "internalType": "address",
          "name": "",
          "type": "address"
        },
        {
          "internalType": "uint256",
          "name": "",
          "type": "uint256"
        }
      ],
      "name": "_userMarketApiIds",
      "outputs": [
        {
          "internalType": "uint256",
          "name": "",
          "type": "uint256"
        }
      ],
      "stateMutability": "view",
      "type": "function"
    },
    {
      "inputs": [
        {
          "internalType": "address",
          "name": "",
          "type": "address"
        },
        {
          "internalType": "uint256",
          "name": "",
          "type": "uint256"
        }
      ],
      "name": "_userSoulIds",
      "outputs": [
        {
          "internalType": "uint256",
          "name": "",
          "type": "uint256"
        }
      ],
      "stateMutability": "view",
      "type": "function"
    },
    {
      "inputs": [
        {
          "internalType": "address",
          "name": "to",
          "type": "address"
        },
        {
          "internalType": "uint256",
          "name": "tokenId",
          "type": "uint256"
        }
      ],
      "name": "approve",
      "outputs": [],
      "stateMutability": "nonpayable",
      "type": "function"
    },
    {
      "inputs": [
        {
          "internalType": "address",
          "name": "owner",
          "type": "address"
        }
      ],
      "name": "balanceOf",
      "outputs": [
        {
          "internalType": "uint256",
          "name": "",
          "type": "uint256"
        }
      ],
      "stateMutability": "view",
      "type": "function"
    },
    {
      "inputs": [
        {
          "internalType": "uint256",
          "name": "daoId",
          "type": "uint256"
        }
      ],
      "name": "checkToCreateMarket",
      "outputs": [
        {
          "internalType": "bool",
          "name": "",
          "type": "bool"
        }
      ],
      "stateMutability": "view",
      "type": "function"
    },
    {
      "inputs": [
        {
          "internalType": "string",
          "name": "name",
          "type": "string"
        },
        {
          "internalType": "string",
          "name": "description",
          "type": "string"
        },
        {
          "internalType": "string",
          "name": "jsoninfo",
          "type": "string"
        },
        {
          "internalType": "string",
          "name": "image",
          "type": "string"
        }
      ],
      "name": "createDao",
      "outputs": [],
      "stateMutability": "nonpayable",
      "type": "function"
    },
    {
      "inputs": [
        {
          "internalType": "uint256",
          "name": "daoId",
          "type": "uint256"
        },
        {
          "internalType": "string",
          "name": "apiName",
          "type": "string"
        },
        {
          "internalType": "string",
          "name": "apiMethod",
          "type": "string"
        },
        {
          "internalType": "string",
          "name": "apiUrl",
          "type": "string"
        },
        {
          "internalType": "uint256",
          "name": "price",
          "type": "uint256"
        },
        {
          "internalType": "string",
          "name": "description",
          "type": "string"
        }
      ],
      "name": "createMarketApi",
      "outputs": [],
      "stateMutability": "nonpayable",
      "type": "function"
    },
    {
      "inputs": [
        {
          "internalType": "string",
          "name": "tokenURI",
          "type": "string"
        },
        {
          "internalType": "uint256",
          "name": "daoId",
          "type": "uint256"
        },
        {
          "internalType": "string",
          "name": "metadata",
          "type": "string"
        },
        {
          "internalType": "string",
          "name": "image",
          "type": "string"
        }
      ],
      "name": "createUserNft",
      "outputs": [
        {
          "internalType": "uint256",
          "name": "",
          "type": "uint256"
        }
      ],
      "stateMutability": "nonpayable",
      "type": "function"
    },
    {
      "inputs": [],
      "name": "getAllDaos",
      "outputs": [
        {
          "components": [
            {
              "internalType": "uint256",
              "name": "daoId",
              "type": "uint256"
            },
            {
              "internalType": "string",
              "name": "name",
              "type": "string"
            },
            {
              "internalType": "string",
              "name": "description",
              "type": "string"
            },
            {
              "internalType": "string",
              "name": "jsoninfo",
              "type": "string"
            },
            {
              "internalType": "string",
              "name": "image",
              "type": "string"
            },
            {
              "internalType": "address",
              "name": "daoOwner",
              "type": "address"
            }
          ],
          "internalType": "struct STCDao.Dao[]",
          "name": "",
          "type": "tuple[]"
        }
      ],
      "stateMutability": "view",
      "type": "function"
    },
    {
      "inputs": [
        {
          "internalType": "uint256",
          "name": "tokenId",
          "type": "uint256"
        }
      ],
      "name": "getApproved",
      "outputs": [
        {
          "internalType": "address",
          "name": "",
          "type": "address"
        }
      ],
      "stateMutability": "view",
      "type": "function"
    },
    {
      "inputs": [
        {
          "internalType": "uint256",
          "name": "daoId",
          "type": "uint256"
        }
      ],
      "name": "getDao",
      "outputs": [
        {
          "components": [
            {
              "internalType": "uint256",
              "name": "daoId",
              "type": "uint256"
            },
            {
              "internalType": "string",
              "name": "name",
              "type": "string"
            },
            {
              "internalType": "string",
              "name": "description",
              "type": "string"
            },
            {
              "internalType": "string",
              "name": "jsoninfo",
              "type": "string"
            },
            {
              "internalType": "string",
              "name": "image",
              "type": "string"
            },
            {
              "internalType": "address",
              "name": "daoOwner",
              "type": "address"
            }
          ],
          "internalType": "struct STCDao.Dao",
          "name": "",
          "type": "tuple"
        }
      ],
      "stateMutability": "view",
      "type": "function"
    },
    {
      "inputs": [
        {
          "internalType": "uint256",
          "name": "daoId",
          "type": "uint256"
        }
      ],
      "name": "getMarketApiByDao",
      "outputs": [
        {
          "components": [
            {
              "internalType": "uint256",
              "name": "marketId",
              "type": "uint256"
            },
            {
              "internalType": "uint256",
              "name": "daoId",
              "type": "uint256"
            },
            {
              "internalType": "string",
              "name": "apiName",
              "type": "string"
            },
            {
              "internalType": "string",
              "name": "apiMethod",
              "type": "string"
            },
            {
              "internalType": "string",
              "name": "apiUrl",
              "type": "string"
            },
            {
              "internalType": "uint256",
              "name": "price",
              "type": "uint256"
            },
            {
              "internalType": "string",
              "name": "description",
              "type": "string"
            },
            {
              "internalType": "address",
              "name": "createUser",
              "type": "address"
            }
          ],
          "internalType": "struct STCDao.ApiMarket[]",
          "name": "",
          "type": "tuple[]"
        }
      ],
      "stateMutability": "view",
      "type": "function"
    },
    {
      "inputs": [],
      "name": "getMyDaos",
      "outputs": [
        {
          "components": [
            {
              "internalType": "uint256",
              "name": "daoId",
              "type": "uint256"
            },
            {
              "internalType": "string",
              "name": "name",
              "type": "string"
            },
            {
              "internalType": "string",
              "name": "description",
              "type": "string"
            },
            {
              "internalType": "string",
              "name": "jsoninfo",
              "type": "string"
            },
            {
              "internalType": "string",
              "name": "image",
              "type": "string"
            },
            {
              "internalType": "address",
              "name": "daoOwner",
              "type": "address"
            }
          ],
          "internalType": "struct STCDao.Dao[]",
          "name": "",
          "type": "tuple[]"
        }
      ],
      "stateMutability": "view",
      "type": "function"
    },
    {
      "inputs": [],
      "name": "getUserAllNft",
      "outputs": [
        {
          "components": [
            {
              "internalType": "uint256",
              "name": "soulId",
              "type": "uint256"
            },
            {
              "internalType": "uint256",
              "name": "daoId",
              "type": "uint256"
            },
            {
              "internalType": "address",
              "name": "soulOwner",
              "type": "address"
            },
            {
              "internalType": "string",
              "name": "metadata",
              "type": "string"
            },
            {
              "internalType": "string",
              "name": "image",
              "type": "string"
            }
          ],
          "internalType": "struct STCDao.Soul[]",
          "name": "",
          "type": "tuple[]"
        }
      ],
      "stateMutability": "view",
      "type": "function"
    },
    {
      "inputs": [
        {
          "internalType": "uint256",
          "name": "daoId",
          "type": "uint256"
        }
      ],
      "name": "getUserNft",
      "outputs": [
        {
          "components": [
            {
              "internalType": "uint256",
              "name": "soulId",
              "type": "uint256"
            },
            {
              "internalType": "uint256",
              "name": "daoId",
              "type": "uint256"
            },
            {
              "internalType": "address",
              "name": "soulOwner",
              "type": "address"
            },
            {
              "internalType": "string",
              "name": "metadata",
              "type": "string"
            },
            {
              "internalType": "string",
              "name": "image",
              "type": "string"
            }
          ],
          "internalType": "struct STCDao.Soul",
          "name": "",
          "type": "tuple"
        },
        {
          "internalType": "bool",
          "name": "",
          "type": "bool"
        }
      ],
      "stateMutability": "view",
      "type": "function"
    },
    {
      "inputs": [
        {
          "internalType": "address",
          "name": "owner",
          "type": "address"
        },
        {
          "internalType": "address",
          "name": "operator",
          "type": "address"
        }
      ],
      "name": "isApprovedForAll",
      "outputs": [
        {
          "internalType": "bool",
          "name": "",
          "type": "bool"
        }
      ],
      "stateMutability": "view",
      "type": "function"
    },
    {
      "inputs": [],
      "name": "name",
      "outputs": [
        {
          "internalType": "string",
          "name": "",
          "type": "string"
        }
      ],
      "stateMutability": "view",
      "type": "function"
    },
    {
      "inputs": [
        {
          "internalType": "uint256",
          "name": "tokenId",
          "type": "uint256"
        }
      ],
      "name": "ownerOf",
      "outputs": [
        {
          "internalType": "address",
          "name": "",
          "type": "address"
        }
      ],
      "stateMutability": "view",
      "type": "function"
    },
    {
      "inputs": [
        {
          "internalType": "address",
          "name": "from",
          "type": "address"
        },
        {
          "internalType": "address",
          "name": "to",
          "type": "address"
        },
        {
          "internalType": "uint256",
          "name": "tokenId",
          "type": "uint256"
        }
      ],
      "name": "safeTransferFrom",
      "outputs": [],
      "stateMutability": "nonpayable",
      "type": "function"
    },
    {
      "inputs": [
        {
          "internalType": "address",
          "name": "from",
          "type": "address"
        },
        {
          "internalType": "address",
          "name": "to",
          "type": "address"
        },
        {
          "internalType": "uint256",
          "name": "tokenId",
          "type": "uint256"
        },
        {
          "internalType": "bytes",
          "name": "data",
          "type": "bytes"
        }
      ],
      "name": "safeTransferFrom",
      "outputs": [],
      "stateMutability": "nonpayable",
      "type": "function"
    },
    {
      "inputs": [
        {
          "internalType": "address",
          "name": "operator",
          "type": "address"
        },
        {
          "internalType": "bool",
          "name": "approved",
          "type": "bool"
        }
      ],
      "name": "setApprovalForAll",
      "outputs": [],
      "stateMutability": "nonpayable",
      "type": "function"
    },
    {
      "inputs": [
        {
          "internalType": "bytes4",
          "name": "interfaceId",
          "type": "bytes4"
        }
      ],
      "name": "supportsInterface",
      "outputs": [
        {
          "internalType": "bool",
          "name": "",
          "type": "bool"
        }
      ],
      "stateMutability": "view",
      "type": "function"
    },
    {
      "inputs": [],
      "name": "symbol",
      "outputs": [
        {
          "internalType": "string",
          "name": "",
          "type": "string"
        }
      ],
      "stateMutability": "view",
      "type": "function"
    },
    {
      "inputs": [
        {
          "internalType": "uint256",
          "name": "tokenId",
          "type": "uint256"
        }
      ],
      "name": "tokenURI",
      "outputs": [
        {
          "internalType": "string",
          "name": "",
          "type": "string"
        }
      ],
      "stateMutability": "view",
      "type": "function"
    },
    {
      "inputs": [
        {
          "internalType": "address",
          "name": "from",
          "type": "address"
        },
        {
          "internalType": "address",
          "name": "to",
          "type": "address"
        },
        {
          "internalType": "uint256",
          "name": "tokenId",
          "type": "uint256"
        }
      ],
      "name": "transferFrom",
      "outputs": [],
      "stateMutability": "nonpayable",
      "type": "function"
    }
  ],
  "transactionHash": "0x2c841da9801543b0025756baf19401439cd640127227e9e4b80df936977f55ae",
  "args": [],
  "numDeployments": 7,
  "solcInputHash": "c35f864b92a9324d0d4a523f7f19d140",
  "bytecode": "0x60806040523480156200001157600080fd5b506040518060400160405280600681526020017f53544344616f00000000000000000000000000000000000000000000000000008152506040518060400160405280600481526020017f5354434e0000000000000000000000000000000000000000000000000000000081525081600090816200008f91906200037f565b508060019081620000a191906200037f565b505050620000bb6007620000ef60201b62002b841760201c565b620000d26008620000ef60201b62002b841760201c565b620000e96009620000ef60201b62002b841760201c565b62000466565b6001816000016000828254019250508190555050565b600081519050919050565b7f4e487b7100000000000000000000000000000000000000000000000000000000600052604160045260246000fd5b7f4e487b7100000000000000000000000000000000000000000000000000000000600052602260045260246000fd5b600060028204905060018216806200018757607f821691505b6020821081036200019d576200019c6200013f565b5b50919050565b60008190508160005260206000209050919050565b60006020601f8301049050919050565b600082821b905092915050565b600060088302620002077fffffffffffffffffffffffffffffffffffffffffffffffffffffffffffffffff82620001c8565b620002138683620001c8565b95508019841693508086168417925050509392505050565b6000819050919050565b6000819050919050565b6000620002606200025a62000254846200022b565b62000235565b6200022b565b9050919050565b6000819050919050565b6200027c836200023f565b620002946200028b8262000267565b848454620001d5565b825550505050565b600090565b620002ab6200029c565b620002b881848462000271565b505050565b5b81811015620002e057620002d4600082620002a1565b600181019050620002be565b5050565b601f8211156200032f57620002f981620001a3565b6200030484620001b8565b8101602085101562000314578190505b6200032c6200032385620001b8565b830182620002bd565b50505b505050565b600082821c905092915050565b6000620003546000198460080262000334565b1980831691505092915050565b60006200036f838362000341565b9150826002028217905092915050565b6200038a8262000105565b67ffffffffffffffff811115620003a657620003a562000110565b5b620003b282546200016e565b620003bf828285620002e4565b600060209050601f831160018114620003f75760008415620003e2578287015190505b620003ee858262000361565b8655506200045e565b601f1984166200040786620001a3565b60005b8281101562000431578489015182556001820191506020850194506020810190506200040a565b868310156200045157848901516200044d601f89168262000341565b8355505b6001600288020188555050505b505050505050565b61531680620004766000396000f3fe608060405234801561001057600080fd5b50600436106101c45760003560e01c80636ea655b5116100f9578063a36c530e11610097578063c87b56dd11610071578063c87b56dd14610569578063d815e99414610599578063e7739f85146105c9578063e985e9c5146105f9576101c4565b8063a36c530e146104ff578063aa5b6d4c1461052f578063b88d4fde1461054d576101c4565b80639140e961116100d35780639140e9611461047957806395d89b4114610495578063a07b57f6146104b3578063a22cb465146104e3576101c4565b80636ea655b5146103e957806370a08231146104195780638d2267e514610449576101c4565b80631b44c40e1161016657806341ea64ee1161014057806341ea64ee1461033c57806342842e0e1461036c578063520dc745146103885780636352211e146103b9576101c4565b80631b44c40e146102e657806323b872dd1461030257806337f24c0e1461031e576101c4565b8063095ea7b3116101a2578063095ea7b31461024757806309f6cd33146102635780630cf9543214610281578063116e8beb146102b1576101c4565b806301ffc9a7146101c957806306fdde03146101f9578063081812fc14610217575b600080fd5b6101e360048036038101906101de91906138a0565b610629565b6040516101f091906138e8565b60405180910390f35b61020161070b565b60405161020e9190613993565b60405180910390f35b610231600480360381019061022c91906139eb565b61079d565b60405161023e9190613a59565b60405180910390f35b610261600480360381019061025c9190613aa0565b6107e3565b005b61026b6108fa565b6040516102789190613ca8565b60405180910390f35b61029b60048036038101906102969190613cca565b610d01565b6040516102a89190613d19565b60405180910390f35b6102cb60048036038101906102c691906139eb565b610d32565b6040516102dd96959493929190613d34565b60405180910390f35b61030060048036038101906102fb9190613ee6565b610fae565b005b61031c60048036038101906103179190613fbd565b611135565b005b610326611195565b604051610333919061414f565b60405180910390f35b610356600480360381019061035191906139eb565b61148b565b60405161036391906142f8565b60405180910390f35b61038660048036038101906103819190613fbd565b611856565b005b6103a2600480360381019061039d91906139eb565b611876565b6040516103b0929190614397565b60405180910390f35b6103d360048036038101906103ce91906139eb565b611b35565b6040516103e09190613a59565b60405180910390f35b61040360048036038101906103fe9190613aa0565b611bbb565b6040516104109190613d19565b60405180910390f35b610433600480360381019061042e91906143c7565b611bec565b6040516104409190613d19565b60405180910390f35b610463600480360381019061045e9190613aa0565b611ca3565b6040516104709190613d19565b60405180910390f35b610493600480360381019061048e91906143f4565b611cd4565b005b61049d611f5c565b6040516104aa9190613993565b60405180910390f35b6104cd60048036038101906104c891906139eb565b611fee565b6040516104da919061458f565b60405180910390f35b6104fd60048036038101906104f891906145dd565b6122c3565b005b6105196004803603810190610514919061461d565b6122d9565b6040516105269190613d19565b60405180910390f35b610537612556565b6040516105449190613ca8565b60405180910390f35b61056760048036038101906105629190614779565b6128cd565b005b610583600480360381019061057e91906139eb565b61292f565b6040516105909190613993565b60405180910390f35b6105b360048036038101906105ae9190613aa0565b612a41565b6040516105c09190613d19565b60405180910390f35b6105e360048036038101906105de91906139eb565b612a72565b6040516105f091906138e8565b60405180910390f35b610613600480360381019061060e91906147fc565b612af0565b60405161062091906138e8565b60405180910390f35b60007f80ac58cd000000000000000000000000000000000000000000000000000000007bffffffffffffffffffffffffffffffffffffffffffffffffffffffff1916827bffffffffffffffffffffffffffffffffffffffffffffffffffffffff191614806106f457507f5b5e139f000000000000000000000000000000000000000000000000000000007bffffffffffffffffffffffffffffffffffffffffffffffffffffffff1916827bffffffffffffffffffffffffffffffffffffffffffffffffffffffff1916145b80610704575061070382612b9a565b5b9050919050565b60606000805461071a9061486b565b80601f01602080910402602001604051908101604052809291908181526020018280546107469061486b565b80156107935780601f1061076857610100808354040283529160200191610793565b820191906000526020600020905b81548152906001019060200180831161077657829003601f168201915b5050505050905090565b60006107a882612c04565b6004600083815260200190815260200160002060009054906101000a900473ffffffffffffffffffffffffffffffffffffffff169050919050565b60006107ee82611b35565b90508073ffffffffffffffffffffffffffffffffffffffff168373ffffffffffffffffffffffffffffffffffffffff160361085e576040517f08c379a00000000000000000000000000000000000000000000000000000000081526004016108559061490e565b60405180910390fd5b8073ffffffffffffffffffffffffffffffffffffffff1661087d612c4f565b73ffffffffffffffffffffffffffffffffffffffff1614806108ac57506108ab816108a6612c4f565b612af0565b5b6108eb576040517f08c379a00000000000000000000000000000000000000000000000000000000081526004016108e2906149a0565b60405180910390fd5b6108f58383612c57565b505050565b60606000600d60003373ffffffffffffffffffffffffffffffffffffffff1673ffffffffffffffffffffffffffffffffffffffff16815260200190815260200160002080549050905060008167ffffffffffffffff81111561095f5761095e613dbb565b5b60405190808252806020026020018201604052801561099857816020015b610985613748565b81526020019060019003908161097d5790505b50905060005b82811015610cf857600a6000600d60003373ffffffffffffffffffffffffffffffffffffffff1673ffffffffffffffffffffffffffffffffffffffff16815260200190815260200160002083815481106109fb576109fa6149c0565b5b906000526020600020015481526020019081526020016000206040518060c001604052908160008201548152602001600182018054610a399061486b565b80601f0160208091040260200160405190810160405280929190818152602001828054610a659061486b565b8015610ab25780601f10610a8757610100808354040283529160200191610ab2565b820191906000526020600020905b815481529060010190602001808311610a9557829003601f168201915b50505050508152602001600282018054610acb9061486b565b80601f0160208091040260200160405190810160405280929190818152602001828054610af79061486b565b8015610b445780601f10610b1957610100808354040283529160200191610b44565b820191906000526020600020905b815481529060010190602001808311610b2757829003601f168201915b50505050508152602001600382018054610b5d9061486b565b80601f0160208091040260200160405190810160405280929190818152602001828054610b899061486b565b8015610bd65780601f10610bab57610100808354040283529160200191610bd6565b820191906000526020600020905b815481529060010190602001808311610bb957829003601f168201915b50505050508152602001600482018054610bef9061486b565b80601f0160208091040260200160405190810160405280929190818152602001828054610c1b9061486b565b8015610c685780601f10610c3d57610100808354040283529160200191610c68565b820191906000526020600020905b815481529060010190602001808311610c4b57829003601f168201915b505050505081526020016005820160009054906101000a900473ffffffffffffffffffffffffffffffffffffffff1673ffffffffffffffffffffffffffffffffffffffff1673ffffffffffffffffffffffffffffffffffffffff1681525050828281518110610cda57610cd96149c0565b5b60200260200101819052508080610cf090614a1e565b91505061099e565b50809250505090565b60106020528160005260406000208181548110610d1d57600080fd5b90600052602060002001600091509150505481565b600a602052806000526040600020600091509050806000015490806001018054610d5b9061486b565b80601f0160208091040260200160405190810160405280929190818152602001828054610d879061486b565b8015610dd45780601f10610da957610100808354040283529160200191610dd4565b820191906000526020600020905b815481529060010190602001808311610db757829003601f168201915b505050505090806002018054610de99061486b565b80601f0160208091040260200160405190810160405280929190818152602001828054610e159061486b565b8015610e625780601f10610e3757610100808354040283529160200191610e62565b820191906000526020600020905b815481529060010190602001808311610e4557829003601f168201915b505050505090806003018054610e779061486b565b80601f0160208091040260200160405190810160405280929190818152602001828054610ea39061486b565b8015610ef05780601f10610ec557610100808354040283529160200191610ef0565b820191906000526020600020905b815481529060010190602001808311610ed357829003601f168201915b505050505090806004018054610f059061486b565b80601f0160208091040260200160405190810160405280929190818152602001828054610f319061486b565b8015610f7e5780601f10610f5357610100808354040283529160200191610f7e565b820191906000526020600020905b815481529060010190602001808311610f6157829003601f168201915b5050505050908060050160009054906101000a900473ffffffffffffffffffffffffffffffffffffffff16905086565b6000610fba6007612d10565b9050610fc66007612b84565b6040518060c001604052808281526020018681526020018581526020018481526020018381526020013373ffffffffffffffffffffffffffffffffffffffff16815250600a600083815260200190815260200160002060008201518160000155602082015181600101908161103b9190614c12565b5060408201518160020190816110519190614c12565b5060608201518160030190816110679190614c12565b50608082015181600401908161107d9190614c12565b5060a08201518160050160006101000a81548173ffffffffffffffffffffffffffffffffffffffff021916908373ffffffffffffffffffffffffffffffffffffffff160217905550905050600d60003373ffffffffffffffffffffffffffffffffffffffff1673ffffffffffffffffffffffffffffffffffffffff1681526020019081526020016000208190806001815401808255809150506001900390600052602060002001600090919091909150555050505050565b611146611140612c4f565b82612d1e565b611185576040517f08c379a000000000000000000000000000000000000000000000000000000000815260040161117c90614d56565b60405180910390fd5b611190838383612db3565b505050565b60606000600e60003373ffffffffffffffffffffffffffffffffffffffff1673ffffffffffffffffffffffffffffffffffffffff16815260200190815260200160002080549050905060008167ffffffffffffffff8111156111fa576111f9613dbb565b5b60405190808252806020026020018201604052801561123357816020015b611220613794565b8152602001906001900390816112185790505b509050600080600090505b8381101561148157600e60003373ffffffffffffffffffffffffffffffffffffffff1673ffffffffffffffffffffffffffffffffffffffff1681526020019081526020016000208181548110611297576112966149c0565b5b90600052602060002001549150600b60008381526020019081526020016000206040518060a001604052908160008201548152602001600182015481526020016002820160009054906101000a900473ffffffffffffffffffffffffffffffffffffffff1673ffffffffffffffffffffffffffffffffffffffff1673ffffffffffffffffffffffffffffffffffffffff16815260200160038201805461133c9061486b565b80601f01602080910402602001604051908101604052809291908181526020018280546113689061486b565b80156113b55780601f1061138a576101008083540402835291602001916113b5565b820191906000526020600020905b81548152906001019060200180831161139857829003601f168201915b505050505081526020016004820180546113ce9061486b565b80601f01602080910402602001604051908101604052809291908181526020018280546113fa9061486b565b80156114475780601f1061141c57610100808354040283529160200191611447565b820191906000526020600020905b81548152906001019060200180831161142a57829003601f168201915b505050505081525050838281518110611463576114626149c0565b5b6020026020010181905250808061147990614a1e565b91505061123e565b5081935050505090565b60606000806010600085815260200190815260200160002080549050905060008167ffffffffffffffff8111156114c5576114c4613dbb565b5b6040519080825280602002602001820160405280156114fe57816020015b6114eb6137d9565b8152602001906001900390816114e35790505b50905060005b8281101561184a57601060008781526020019081526020016000208181548110611531576115306149c0565b5b90600052602060002001549350600c60008581526020019081526020016000206040518061010001604052908160008201548152602001600182015481526020016002820180546115819061486b565b80601f01602080910402602001604051908101604052809291908181526020018280546115ad9061486b565b80156115fa5780601f106115cf576101008083540402835291602001916115fa565b820191906000526020600020905b8154815290600101906020018083116115dd57829003601f168201915b505050505081526020016003820180546116139061486b565b80601f016020809104026020016040519081016040528092919081815260200182805461163f9061486b565b801561168c5780601f106116615761010080835404028352916020019161168c565b820191906000526020600020905b81548152906001019060200180831161166f57829003601f168201915b505050505081526020016004820180546116a59061486b565b80601f01602080910402602001604051908101604052809291908181526020018280546116d19061486b565b801561171e5780601f106116f35761010080835404028352916020019161171e565b820191906000526020600020905b81548152906001019060200180831161170157829003601f168201915b50505050508152602001600582015481526020016006820180546117419061486b565b80601f016020809104026020016040519081016040528092919081815260200182805461176d9061486b565b80156117ba5780601f1061178f576101008083540402835291602001916117ba565b820191906000526020600020905b81548152906001019060200180831161179d57829003601f168201915b505050505081526020016007820160009054906101000a900473ffffffffffffffffffffffffffffffffffffffff1673ffffffffffffffffffffffffffffffffffffffff1673ffffffffffffffffffffffffffffffffffffffff168152505082828151811061182c5761182b6149c0565b5b6020026020010181905250808061184290614a1e565b915050611504565b50809350505050919050565b611871838383604051806020016040528060008152506128cd565b505050565b61187e613794565b6000611888613794565b600080600090505b600e60003373ffffffffffffffffffffffffffffffffffffffff1673ffffffffffffffffffffffffffffffffffffffff16815260200190815260200160002080549050811015611b2557600e60003373ffffffffffffffffffffffffffffffffffffffff1673ffffffffffffffffffffffffffffffffffffffff168152602001908152602001600020818154811061192b5761192a6149c0565b5b9060005260206000200154915085600b60008481526020019081526020016000206001015403611b1257600b60008381526020019081526020016000206001816040518060a001604052908160008201548152602001600182015481526020016002820160009054906101000a900473ffffffffffffffffffffffffffffffffffffffff1673ffffffffffffffffffffffffffffffffffffffff1673ffffffffffffffffffffffffffffffffffffffff1681526020016003820180546119f09061486b565b80601f0160208091040260200160405190810160405280929190818152602001828054611a1c9061486b565b8015611a695780601f10611a3e57610100808354040283529160200191611a69565b820191906000526020600020905b815481529060010190602001808311611a4c57829003601f168201915b50505050508152602001600482018054611a829061486b565b80601f0160208091040260200160405190810160405280929190818152602001828054611aae9061486b565b8015611afb5780601f10611ad057610100808354040283529160200191611afb565b820191906000526020600020905b815481529060010190602001808311611ade57829003601f168201915b505050505081525050915094509450505050611b30565b8080611b1d90614a1e565b915050611890565b508160009350935050505b915091565b600080611b41836130ac565b9050600073ffffffffffffffffffffffffffffffffffffffff168173ffffffffffffffffffffffffffffffffffffffff1603611bb2576040517f08c379a0000000000000000000000000000000000000000000000000000000008152600401611ba990614dc2565b60405180910390fd5b80915050919050565b600d6020528160005260406000208181548110611bd757600080fd5b90600052602060002001600091509150505481565b60008073ffffffffffffffffffffffffffffffffffffffff168273ffffffffffffffffffffffffffffffffffffffff1603611c5c576040517f08c379a0000000000000000000000000000000000000000000000000000000008152600401611c5390614e54565b60405180910390fd5b600360008373ffffffffffffffffffffffffffffffffffffffff1673ffffffffffffffffffffffffffffffffffffffff168152602001908152602001600020549050919050565b600f6020528160005260406000208181548110611cbf57600080fd5b90600052602060002001600091509150505481565b3373ffffffffffffffffffffffffffffffffffffffff16600a600088815260200190815260200160002060050160009054906101000a900473ffffffffffffffffffffffffffffffffffffffff1673ffffffffffffffffffffffffffffffffffffffff1614611d78576040517f08c379a0000000000000000000000000000000000000000000000000000000008152600401611d6f90614ec0565b60405180910390fd5b6000611d846009612d10565b9050611d906009612b84565b6040518061010001604052808281526020018881526020018781526020018681526020018581526020018481526020018381526020013373ffffffffffffffffffffffffffffffffffffffff16815250600c600083815260200190815260200160002060008201518160000155602082015181600101556040820151816002019081611e1c9190614c12565b506060820151816003019081611e329190614c12565b506080820151816004019081611e489190614c12565b5060a0820151816005015560c0820151816006019081611e689190614c12565b5060e08201518160070160006101000a81548173ffffffffffffffffffffffffffffffffffffffff021916908373ffffffffffffffffffffffffffffffffffffffff16021790555090505060106000888152602001908152602001600020819080600181540180825580915050600190039060005260206000200160009091909190915055600f60003373ffffffffffffffffffffffffffffffffffffffff1673ffffffffffffffffffffffffffffffffffffffff16815260200190815260200160002081908060018154018082558091505060019003906000526020600020016000909190919091505550505050505050565b606060018054611f6b9061486b565b80601f0160208091040260200160405190810160405280929190818152602001828054611f979061486b565b8015611fe45780601f10611fb957610100808354040283529160200191611fe4565b820191906000526020600020905b815481529060010190602001808311611fc757829003601f168201915b5050505050905090565b611ff6613748565b600a60008381526020019081526020016000206040518060c00160405290816000820154815260200160018201805461202e9061486b565b80601f016020809104026020016040519081016040528092919081815260200182805461205a9061486b565b80156120a75780601f1061207c576101008083540402835291602001916120a7565b820191906000526020600020905b81548152906001019060200180831161208a57829003601f168201915b505050505081526020016002820180546120c09061486b565b80601f01602080910402602001604051908101604052809291908181526020018280546120ec9061486b565b80156121395780601f1061210e57610100808354040283529160200191612139565b820191906000526020600020905b81548152906001019060200180831161211c57829003601f168201915b505050505081526020016003820180546121529061486b565b80601f016020809104026020016040519081016040528092919081815260200182805461217e9061486b565b80156121cb5780601f106121a0576101008083540402835291602001916121cb565b820191906000526020600020905b8154815290600101906020018083116121ae57829003601f168201915b505050505081526020016004820180546121e49061486b565b80601f01602080910402602001604051908101604052809291908181526020018280546122109061486b565b801561225d5780601f106122325761010080835404028352916020019161225d565b820191906000526020600020905b81548152906001019060200180831161224057829003601f168201915b505050505081526020016005820160009054906101000a900473ffffffffffffffffffffffffffffffffffffffff1673ffffffffffffffffffffffffffffffffffffffff1673ffffffffffffffffffffffffffffffffffffffff16815250509050919050565b6122d56122ce612c4f565b83836130e9565b5050565b600080600090505b600e60003373ffffffffffffffffffffffffffffffffffffffff1673ffffffffffffffffffffffffffffffffffffffff168152602001908152602001600020805490508110156123f15784600b6000600e60003373ffffffffffffffffffffffffffffffffffffffff1673ffffffffffffffffffffffffffffffffffffffff1681526020019081526020016000208481548110612381576123806149c0565b5b9060005260206000200154815260200190815260200160002060010154146123de576040517f08c379a00000000000000000000000000000000000000000000000000000000081526004016123d590614f2c565b60405180910390fd5b80806123e990614a1e565b9150506122e1565b5060006123fe6008612d10565b905061240a6008612b84565b6040518060a001604052808281526020018681526020013373ffffffffffffffffffffffffffffffffffffffff16815260200185815260200184815250600b6000838152602001908152602001600020600082015181600001556020820151816001015560408201518160020160006101000a81548173ffffffffffffffffffffffffffffffffffffffff021916908373ffffffffffffffffffffffffffffffffffffffff16021790555060608201518160030190816124ca9190614c12565b5060808201518160040190816124e09190614c12565b50905050600e60003373ffffffffffffffffffffffffffffffffffffffff1673ffffffffffffffffffffffffffffffffffffffff16815260200190815260200160002081908060018154018082558091505060019003906000526020600020016000909190919091505580915050949350505050565b606060006125646007612d10565b905060008167ffffffffffffffff81111561258257612581613dbb565b5b6040519080825280602002602001820160405280156125bb57816020015b6125a8613748565b8152602001906001900390816125a05790505b5090506000600190505b828110156128c457600a60008281526020019081526020016000206040518060c0016040529081600082015481526020016001820180546126059061486b565b80601f01602080910402602001604051908101604052809291908181526020018280546126319061486b565b801561267e5780601f106126535761010080835404028352916020019161267e565b820191906000526020600020905b81548152906001019060200180831161266157829003601f168201915b505050505081526020016002820180546126979061486b565b80601f01602080910402602001604051908101604052809291908181526020018280546126c39061486b565b80156127105780601f106126e557610100808354040283529160200191612710565b820191906000526020600020905b8154815290600101906020018083116126f357829003601f168201915b505050505081526020016003820180546127299061486b565b80601f01602080910402602001604051908101604052809291908181526020018280546127559061486b565b80156127a25780601f10612777576101008083540402835291602001916127a2565b820191906000526020600020905b81548152906001019060200180831161278557829003601f168201915b505050505081526020016004820180546127bb9061486b565b80601f01602080910402602001604051908101604052809291908181526020018280546127e79061486b565b80156128345780601f1061280957610100808354040283529160200191612834565b820191906000526020600020905b81548152906001019060200180831161281757829003601f168201915b505050505081526020016005820160009054906101000a900473ffffffffffffffffffffffffffffffffffffffff1673ffffffffffffffffffffffffffffffffffffffff1673ffffffffffffffffffffffffffffffffffffffff16815250508282815181106128a6576128a56149c0565b5b602002602001018190525080806128bc90614a1e565b9150506125c5565b50809250505090565b6128de6128d8612c4f565b83612d1e565b61291d576040517f08c379a000000000000000000000000000000000000000000000000000000000815260040161291490614d56565b60405180910390fd5b61292984848484613255565b50505050565b606061293a82612c04565b600060066000848152602001908152602001600020805461295a9061486b565b80601f01602080910402602001604051908101604052809291908181526020018280546129869061486b565b80156129d35780601f106129a8576101008083540402835291602001916129d3565b820191906000526020600020905b8154815290600101906020018083116129b657829003601f168201915b5050505050905060006129e46132b1565b905060008151036129f9578192505050612a3c565b600082511115612a2e578082604051602001612a16929190614f88565b60405160208183030381529060405292505050612a3c565b612a37846132c8565b925050505b919050565b600e6020528160005260406000208181548110612a5d57600080fd5b90600052602060002001600091509150505481565b60003373ffffffffffffffffffffffffffffffffffffffff16600a600084815260200190815260200160002060050160009054906101000a900473ffffffffffffffffffffffffffffffffffffffff1673ffffffffffffffffffffffffffffffffffffffff1603612ae65760019050612aeb565b600090505b919050565b6000600560008473ffffffffffffffffffffffffffffffffffffffff1673ffffffffffffffffffffffffffffffffffffffff16815260200190815260200160002060008373ffffffffffffffffffffffffffffffffffffffff1673ffffffffffffffffffffffffffffffffffffffff16815260200190815260200160002060009054906101000a900460ff16905092915050565b6001816000016000828254019250508190555050565b60007f01ffc9a7000000000000000000000000000000000000000000000000000000007bffffffffffffffffffffffffffffffffffffffffffffffffffffffff1916827bffffffffffffffffffffffffffffffffffffffffffffffffffffffff1916149050919050565b612c0d81613330565b612c4c576040517f08c379a0000000000000000000000000000000000000000000000000000000008152600401612c4390614dc2565b60405180910390fd5b50565b600033905090565b816004600083815260200190815260200160002060006101000a81548173ffffffffffffffffffffffffffffffffffffffff021916908373ffffffffffffffffffffffffffffffffffffffff160217905550808273ffffffffffffffffffffffffffffffffffffffff16612cca83611b35565b73ffffffffffffffffffffffffffffffffffffffff167f8c5be1e5ebec7d5bd14f71427d1e84f3dd0314c0f7b2291e5b200ac8c7c3b92560405160405180910390a45050565b600081600001549050919050565b600080612d2a83611b35565b90508073ffffffffffffffffffffffffffffffffffffffff168473ffffffffffffffffffffffffffffffffffffffff161480612d6c5750612d6b8185612af0565b5b80612daa57508373ffffffffffffffffffffffffffffffffffffffff16612d928461079d565b73ffffffffffffffffffffffffffffffffffffffff16145b91505092915050565b8273ffffffffffffffffffffffffffffffffffffffff16612dd382611b35565b73ffffffffffffffffffffffffffffffffffffffff1614612e29576040517f08c379a0000000000000000000000000000000000000000000000000000000008152600401612e209061501e565b60405180910390fd5b600073ffffffffffffffffffffffffffffffffffffffff168273ffffffffffffffffffffffffffffffffffffffff1603612e98576040517f08c379a0000000000000000000000000000000000000000000000000000000008152600401612e8f906150b0565b60405180910390fd5b612ea58383836001613371565b8273ffffffffffffffffffffffffffffffffffffffff16612ec582611b35565b73ffffffffffffffffffffffffffffffffffffffff1614612f1b576040517f08c379a0000000000000000000000000000000000000000000000000000000008152600401612f129061501e565b60405180910390fd5b6004600082815260200190815260200160002060006101000a81549073ffffffffffffffffffffffffffffffffffffffff02191690556001600360008573ffffffffffffffffffffffffffffffffffffffff1673ffffffffffffffffffffffffffffffffffffffff168152602001908152602001600020600082825403925050819055506001600360008473ffffffffffffffffffffffffffffffffffffffff1673ffffffffffffffffffffffffffffffffffffffff16815260200190815260200160002060008282540192505081905550816002600083815260200190815260200160002060006101000a81548173ffffffffffffffffffffffffffffffffffffffff021916908373ffffffffffffffffffffffffffffffffffffffff160217905550808273ffffffffffffffffffffffffffffffffffffffff168473ffffffffffffffffffffffffffffffffffffffff167fddf252ad1be2c89b69c2b068fc378daa952ba7f163c4a11628f55a4df523b3ef60405160405180910390a46130a78383836001613377565b505050565b60006002600083815260200190815260200160002060009054906101000a900473ffffffffffffffffffffffffffffffffffffffff169050919050565b8173ffffffffffffffffffffffffffffffffffffffff168373ffffffffffffffffffffffffffffffffffffffff1603613157576040517f08c379a000000000000000000000000000000000000000000000000000000000815260040161314e9061511c565b60405180910390fd5b80600560008573ffffffffffffffffffffffffffffffffffffffff1673ffffffffffffffffffffffffffffffffffffffff16815260200190815260200160002060008473ffffffffffffffffffffffffffffffffffffffff1673ffffffffffffffffffffffffffffffffffffffff16815260200190815260200160002060006101000a81548160ff0219169083151502179055508173ffffffffffffffffffffffffffffffffffffffff168373ffffffffffffffffffffffffffffffffffffffff167f17307eab39ab6107e8899845ad3d59bd9653f200f220920489ca2b5937696c318360405161324891906138e8565b60405180910390a3505050565b613260848484612db3565b61326c8484848461337d565b6132ab576040517f08c379a00000000000000000000000000000000000000000000000000000000081526004016132a2906151ae565b60405180910390fd5b50505050565b606060405180602001604052806000815250905090565b60606132d382612c04565b60006132dd6132b1565b905060008151116132fd5760405180602001604052806000815250613328565b8061330784613504565b604051602001613318929190614f88565b6040516020818303038152906040525b915050919050565b60008073ffffffffffffffffffffffffffffffffffffffff16613352836130ac565b73ffffffffffffffffffffffffffffffffffffffff1614159050919050565b50505050565b50505050565b600061339e8473ffffffffffffffffffffffffffffffffffffffff166135d2565b156134f7578373ffffffffffffffffffffffffffffffffffffffff1663150b7a026133c7612c4f565b8786866040518563ffffffff1660e01b81526004016133e99493929190615223565b6020604051808303816000875af192505050801561342557506040513d601f19601f820116820180604052508101906134229190615284565b60015b6134a7573d8060008114613455576040519150601f19603f3d011682016040523d82523d6000602084013e61345a565b606091505b50600081510361349f576040517f08c379a0000000000000000000000000000000000000000000000000000000008152600401613496906151ae565b60405180910390fd5b805181602001fd5b63150b7a0260e01b7bffffffffffffffffffffffffffffffffffffffffffffffffffffffff1916817bffffffffffffffffffffffffffffffffffffffffffffffffffffffff1916149150506134fc565b600190505b949350505050565b606060006001613513846135f5565b01905060008167ffffffffffffffff81111561353257613531613dbb565b5b6040519080825280601f01601f1916602001820160405280156135645781602001600182028036833780820191505090505b509050600082602001820190505b6001156135c7578080600190039150507f3031323334353637383961626364656600000000000000000000000000000000600a86061a8153600a85816135bb576135ba6152b1565b5b04945060008503613572575b819350505050919050565b6000808273ffffffffffffffffffffffffffffffffffffffff163b119050919050565b600080600090507a184f03e93ff9f4daa797ed6e38ed64bf6a1f0100000000000000008310613653577a184f03e93ff9f4daa797ed6e38ed64bf6a1f0100000000000000008381613649576136486152b1565b5b0492506040810190505b6d04ee2d6d415b85acef81000000008310613690576d04ee2d6d415b85acef81000000008381613686576136856152b1565b5b0492506020810190505b662386f26fc1000083106136bf57662386f26fc1000083816136b5576136b46152b1565b5b0492506010810190505b6305f5e10083106136e8576305f5e10083816136de576136dd6152b1565b5b0492506008810190505b612710831061370d576127108381613703576137026152b1565b5b0492506004810190505b606483106137305760648381613726576137256152b1565b5b0492506002810190505b600a831061373f576001810190505b80915050919050565b6040518060c001604052806000815260200160608152602001606081526020016060815260200160608152602001600073ffffffffffffffffffffffffffffffffffffffff1681525090565b6040518060a001604052806000815260200160008152602001600073ffffffffffffffffffffffffffffffffffffffff16815260200160608152602001606081525090565b60405180610100016040528060008152602001600081526020016060815260200160608152602001606081526020016000815260200160608152602001600073ffffffffffffffffffffffffffffffffffffffff1681525090565b6000604051905090565b600080fd5b600080fd5b60007fffffffff0000000000000000000000000000000000000000000000000000000082169050919050565b61387d81613848565b811461388857600080fd5b50565b60008135905061389a81613874565b92915050565b6000602082840312156138b6576138b561383e565b5b60006138c48482850161388b565b91505092915050565b60008115159050919050565b6138e2816138cd565b82525050565b60006020820190506138fd60008301846138d9565b92915050565b600081519050919050565b600082825260208201905092915050565b60005b8381101561393d578082015181840152602081019050613922565b60008484015250505050565b6000601f19601f8301169050919050565b600061396582613903565b61396f818561390e565b935061397f81856020860161391f565b61398881613949565b840191505092915050565b600060208201905081810360008301526139ad818461395a565b905092915050565b6000819050919050565b6139c8816139b5565b81146139d357600080fd5b50565b6000813590506139e5816139bf565b92915050565b600060208284031215613a0157613a0061383e565b5b6000613a0f848285016139d6565b91505092915050565b600073ffffffffffffffffffffffffffffffffffffffff82169050919050565b6000613a4382613a18565b9050919050565b613a5381613a38565b82525050565b6000602082019050613a6e6000830184613a4a565b92915050565b613a7d81613a38565b8114613a8857600080fd5b50565b600081359050613a9a81613a74565b92915050565b60008060408385031215613ab757613ab661383e565b5b6000613ac585828601613a8b565b9250506020613ad6858286016139d6565b9150509250929050565b600081519050919050565b600082825260208201905092915050565b6000819050602082019050919050565b613b15816139b5565b82525050565b600082825260208201905092915050565b6000613b3782613903565b613b418185613b1b565b9350613b5181856020860161391f565b613b5a81613949565b840191505092915050565b613b6e81613a38565b82525050565b600060c083016000830151613b8c6000860182613b0c565b5060208301518482036020860152613ba48282613b2c565b91505060408301518482036040860152613bbe8282613b2c565b91505060608301518482036060860152613bd88282613b2c565b91505060808301518482036080860152613bf28282613b2c565b91505060a0830151613c0760a0860182613b65565b508091505092915050565b6000613c1e8383613b74565b905092915050565b6000602082019050919050565b6000613c3e82613ae0565b613c488185613aeb565b935083602082028501613c5a85613afc565b8060005b85811015613c965784840389528151613c778582613c12565b9450613c8283613c26565b925060208a01995050600181019050613c5e565b50829750879550505050505092915050565b60006020820190508181036000830152613cc28184613c33565b905092915050565b60008060408385031215613ce157613ce061383e565b5b6000613cef858286016139d6565b9250506020613d00858286016139d6565b9150509250929050565b613d13816139b5565b82525050565b6000602082019050613d2e6000830184613d0a565b92915050565b600060c082019050613d496000830189613d0a565b8181036020830152613d5b818861395a565b90508181036040830152613d6f818761395a565b90508181036060830152613d83818661395a565b90508181036080830152613d97818561395a565b9050613da660a0830184613a4a565b979650505050505050565b600080fd5b600080fd5b7f4e487b7100000000000000000000000000000000000000000000000000000000600052604160045260246000fd5b613df382613949565b810181811067ffffffffffffffff82111715613e1257613e11613dbb565b5b80604052505050565b6000613e25613834565b9050613e318282613dea565b919050565b600067ffffffffffffffff821115613e5157613e50613dbb565b5b613e5a82613949565b9050602081019050919050565b82818337600083830152505050565b6000613e89613e8484613e36565b613e1b565b905082815260208101848484011115613ea557613ea4613db6565b5b613eb0848285613e67565b509392505050565b600082601f830112613ecd57613ecc613db1565b5b8135613edd848260208601613e76565b91505092915050565b60008060008060808587031215613f0057613eff61383e565b5b600085013567ffffffffffffffff811115613f1e57613f1d613843565b5b613f2a87828801613eb8565b945050602085013567ffffffffffffffff811115613f4b57613f4a613843565b5b613f5787828801613eb8565b935050604085013567ffffffffffffffff811115613f7857613f77613843565b5b613f8487828801613eb8565b925050606085013567ffffffffffffffff811115613fa557613fa4613843565b5b613fb187828801613eb8565b91505092959194509250565b600080600060608486031215613fd657613fd561383e565b5b6000613fe486828701613a8b565b9350506020613ff586828701613a8b565b9250506040614006868287016139d6565b9150509250925092565b600081519050919050565b600082825260208201905092915050565b6000819050602082019050919050565b600060a0830160008301516140546000860182613b0c565b5060208301516140676020860182613b0c565b50604083015161407a6040860182613b65565b50606083015184820360608601526140928282613b2c565b915050608083015184820360808601526140ac8282613b2c565b9150508091505092915050565b60006140c5838361403c565b905092915050565b6000602082019050919050565b60006140e582614010565b6140ef818561401b565b9350836020820285016141018561402c565b8060005b8581101561413d578484038952815161411e85826140b9565b9450614129836140cd565b925060208a01995050600181019050614105565b50829750879550505050505092915050565b6000602082019050818103600083015261416981846140da565b905092915050565b600081519050919050565b600082825260208201905092915050565b6000819050602082019050919050565b6000610100830160008301516141b66000860182613b0c565b5060208301516141c96020860182613b0c565b50604083015184820360408601526141e18282613b2c565b915050606083015184820360608601526141fb8282613b2c565b915050608083015184820360808601526142158282613b2c565b91505060a083015161422a60a0860182613b0c565b5060c083015184820360c08601526142428282613b2c565b91505060e083015161425760e0860182613b65565b508091505092915050565b600061426e838361419d565b905092915050565b6000602082019050919050565b600061428e82614171565b614298818561417c565b9350836020820285016142aa8561418d565b8060005b858110156142e657848403895281516142c78582614262565b94506142d283614276565b925060208a019950506001810190506142ae565b50829750879550505050505092915050565b600060208201905081810360008301526143128184614283565b905092915050565b600060a0830160008301516143326000860182613b0c565b5060208301516143456020860182613b0c565b5060408301516143586040860182613b65565b50606083015184820360608601526143708282613b2c565b9150506080830151848203608086015261438a8282613b2c565b9150508091505092915050565b600060408201905081810360008301526143b1818561431a565b90506143c060208301846138d9565b9392505050565b6000602082840312156143dd576143dc61383e565b5b60006143eb84828501613a8b565b91505092915050565b60008060008060008060c087890312156144115761441061383e565b5b600061441f89828a016139d6565b965050602087013567ffffffffffffffff8111156144405761443f613843565b5b61444c89828a01613eb8565b955050604087013567ffffffffffffffff81111561446d5761446c613843565b5b61447989828a01613eb8565b945050606087013567ffffffffffffffff81111561449a57614499613843565b5b6144a689828a01613eb8565b93505060806144b789828a016139d6565b92505060a087013567ffffffffffffffff8111156144d8576144d7613843565b5b6144e489828a01613eb8565b9150509295509295509295565b600060c0830160008301516145096000860182613b0c565b50602083015184820360208601526145218282613b2c565b9150506040830151848203604086015261453b8282613b2c565b915050606083015184820360608601526145558282613b2c565b9150506080830151848203608086015261456f8282613b2c565b91505060a083015161458460a0860182613b65565b508091505092915050565b600060208201905081810360008301526145a981846144f1565b905092915050565b6145ba816138cd565b81146145c557600080fd5b50565b6000813590506145d7816145b1565b92915050565b600080604083850312156145f4576145f361383e565b5b600061460285828601613a8b565b9250506020614613858286016145c8565b9150509250929050565b600080600080608085870312156146375761463661383e565b5b600085013567ffffffffffffffff81111561465557614654613843565b5b61466187828801613eb8565b9450506020614672878288016139d6565b935050604085013567ffffffffffffffff81111561469357614692613843565b5b61469f87828801613eb8565b925050606085013567ffffffffffffffff8111156146c0576146bf613843565b5b6146cc87828801613eb8565b91505092959194509250565b600067ffffffffffffffff8211156146f3576146f2613dbb565b5b6146fc82613949565b9050602081019050919050565b600061471c614717846146d8565b613e1b565b90508281526020810184848401111561473857614737613db6565b5b614743848285613e67565b509392505050565b600082601f8301126147605761475f613db1565b5b8135614770848260208601614709565b91505092915050565b600080600080608085870312156147935761479261383e565b5b60006147a187828801613a8b565b94505060206147b287828801613a8b565b93505060406147c3878288016139d6565b925050606085013567ffffffffffffffff8111156147e4576147e3613843565b5b6147f08782880161474b565b91505092959194509250565b600080604083850312156148135761481261383e565b5b600061482185828601613a8b565b925050602061483285828601613a8b565b9150509250929050565b7f4e487b7100000000000000000000000000000000000000000000000000000000600052602260045260246000fd5b6000600282049050600182168061488357607f821691505b6020821081036148965761489561483c565b5b50919050565b7f4552433732313a20617070726f76616c20746f2063757272656e74206f776e6560008201527f7200000000000000000000000000000000000000000000000000000000000000602082015250565b60006148f860218361390e565b91506149038261489c565b604082019050919050565b60006020820190508181036000830152614927816148eb565b9050919050565b7f4552433732313a20617070726f76652063616c6c6572206973206e6f7420746f60008201527f6b656e206f776e6572206f7220617070726f76656420666f7220616c6c000000602082015250565b600061498a603d8361390e565b91506149958261492e565b604082019050919050565b600060208201905081810360008301526149b98161497d565b9050919050565b7f4e487b7100000000000000000000000000000000000000000000000000000000600052603260045260246000fd5b7f4e487b7100000000000000000000000000000000000000000000000000000000600052601160045260246000fd5b6000614a29826139b5565b91507fffffffffffffffffffffffffffffffffffffffffffffffffffffffffffffffff8203614a5b57614a5a6149ef565b5b600182019050919050565b60008190508160005260206000209050919050565b60006020601f8301049050919050565b600082821b905092915050565b600060088302614ac87fffffffffffffffffffffffffffffffffffffffffffffffffffffffffffffffff82614a8b565b614ad28683614a8b565b95508019841693508086168417925050509392505050565b6000819050919050565b6000614b0f614b0a614b05846139b5565b614aea565b6139b5565b9050919050565b6000819050919050565b614b2983614af4565b614b3d614b3582614b16565b848454614a98565b825550505050565b600090565b614b52614b45565b614b5d818484614b20565b505050565b5b81811015614b8157614b76600082614b4a565b600181019050614b63565b5050565b601f821115614bc657614b9781614a66565b614ba084614a7b565b81016020851015614baf578190505b614bc3614bbb85614a7b565b830182614b62565b50505b505050565b600082821c905092915050565b6000614be960001984600802614bcb565b1980831691505092915050565b6000614c028383614bd8565b9150826002028217905092915050565b614c1b82613903565b67ffffffffffffffff811115614c3457614c33613dbb565b5b614c3e825461486b565b614c49828285614b85565b600060209050601f831160018114614c7c5760008415614c6a578287015190505b614c748582614bf6565b865550614cdc565b601f198416614c8a86614a66565b60005b82811015614cb257848901518255600182019150602085019450602081019050614c8d565b86831015614ccf5784890151614ccb601f891682614bd8565b8355505b6001600288020188555050505b505050505050565b7f4552433732313a2063616c6c6572206973206e6f7420746f6b656e206f776e6560008201527f72206f7220617070726f76656400000000000000000000000000000000000000602082015250565b6000614d40602d8361390e565b9150614d4b82614ce4565b604082019050919050565b60006020820190508181036000830152614d6f81614d33565b9050919050565b7f4552433732313a20696e76616c696420746f6b656e2049440000000000000000600082015250565b6000614dac60188361390e565b9150614db782614d76565b602082019050919050565b60006020820190508181036000830152614ddb81614d9f565b9050919050565b7f4552433732313a2061646472657373207a65726f206973206e6f74206120766160008201527f6c6964206f776e65720000000000000000000000000000000000000000000000602082015250565b6000614e3e60298361390e565b9150614e4982614de2565b604082019050919050565b60006020820190508181036000830152614e6d81614e31565b9050919050565b7f4e6f207065726d697373696f6e20746f206372656174652061206d61726b6574600082015250565b6000614eaa60208361390e565b9150614eb582614e74565b602082019050919050565b60006020820190508181036000830152614ed981614e9d565b9050919050565b7f4973204372656174656400000000000000000000000000000000000000000000600082015250565b6000614f16600a8361390e565b9150614f2182614ee0565b602082019050919050565b60006020820190508181036000830152614f4581614f09565b9050919050565b600081905092915050565b6000614f6282613903565b614f6c8185614f4c565b9350614f7c81856020860161391f565b80840191505092915050565b6000614f948285614f57565b9150614fa08284614f57565b91508190509392505050565b7f4552433732313a207472616e736665722066726f6d20696e636f72726563742060008201527f6f776e6572000000000000000000000000000000000000000000000000000000602082015250565b600061500860258361390e565b915061501382614fac565b604082019050919050565b6000602082019050818103600083015261503781614ffb565b9050919050565b7f4552433732313a207472616e7366657220746f20746865207a65726f2061646460008201527f7265737300000000000000000000000000000000000000000000000000000000602082015250565b600061509a60248361390e565b91506150a58261503e565b604082019050919050565b600060208201905081810360008301526150c98161508d565b9050919050565b7f4552433732313a20617070726f766520746f2063616c6c657200000000000000600082015250565b600061510660198361390e565b9150615111826150d0565b602082019050919050565b60006020820190508181036000830152615135816150f9565b9050919050565b7f4552433732313a207472616e7366657220746f206e6f6e20455243373231526560008201527f63656976657220696d706c656d656e7465720000000000000000000000000000602082015250565b600061519860328361390e565b91506151a38261513c565b604082019050919050565b600060208201905081810360008301526151c78161518b565b9050919050565b600081519050919050565b600082825260208201905092915050565b60006151f5826151ce565b6151ff81856151d9565b935061520f81856020860161391f565b61521881613949565b840191505092915050565b60006080820190506152386000830187613a4a565b6152456020830186613a4a565b6152526040830185613d0a565b818103606083015261526481846151ea565b905095945050505050565b60008151905061527e81613874565b92915050565b60006020828403121561529a5761529961383e565b5b60006152a88482850161526f565b91505092915050565b7f4e487b7100000000000000000000000000000000000000000000000000000000600052601260045260246000fdfea26469706673582212202a8e466a95d1ced6b8181d89a5407fa83fb6333912e83a4f6bf7d60d9f350fa064736f6c63430008110033",
  "devdoc": {
    "kind": "dev",
    "methods": {
      "approve(address,uint256)": {
        "details": "See {IERC721-approve}."
      },
      "balanceOf(address)": {
        "details": "See {IERC721-balanceOf}."
      },
      "getApproved(uint256)": {
        "details": "See {IERC721-getApproved}."
      },
      "isApprovedForAll(address,address)": {
        "details": "See {IERC721-isApprovedForAll}."
      },
      "name()": {
        "details": "See {IERC721Metadata-name}."
      },
      "ownerOf(uint256)": {
        "details": "See {IERC721-ownerOf}."
      },
      "safeTransferFrom(address,address,uint256)": {
        "details": "See {IERC721-safeTransferFrom}."
      },
      "safeTransferFrom(address,address,uint256,bytes)": {
        "details": "See {IERC721-safeTransferFrom}."
      },
      "setApprovalForAll(address,bool)": {
        "details": "See {IERC721-setApprovalForAll}."
      },
      "supportsInterface(bytes4)": {
        "details": "See {IERC165-supportsInterface}."
      },
      "symbol()": {
        "details": "See {IERC721Metadata-symbol}."
      },
      "tokenURI(uint256)": {
        "details": "See {IERC721Metadata-tokenURI}."
      },
      "transferFrom(address,address,uint256)": {
        "details": "See {IERC721-transferFrom}."
      }
    },
    "version": 1
  },
  "userdoc": {
    "kind": "user",
    "methods": {},
    "version": 1
  },
  "storageLayout": {
    "storage": [
      {
        "astId": 715,
        "contract": "contracts/STCDao.sol:STCDao",
        "label": "_name",
        "offset": 0,
        "slot": "0",
        "type": "t_string_storage"
      },
      {
        "astId": 717,
        "contract": "contracts/STCDao.sol:STCDao",
        "label": "_symbol",
        "offset": 0,
        "slot": "1",
        "type": "t_string_storage"
      },
      {
        "astId": 721,
        "contract": "contracts/STCDao.sol:STCDao",
        "label": "_owners",
        "offset": 0,
        "slot": "2",
        "type": "t_mapping(t_uint256,t_address)"
      },
      {
        "astId": 725,
        "contract": "contracts/STCDao.sol:STCDao",
        "label": "_balances",
        "offset": 0,
        "slot": "3",
        "type": "t_mapping(t_address,t_uint256)"
      },
      {
        "astId": 729,
        "contract": "contracts/STCDao.sol:STCDao",
        "label": "_tokenApprovals",
        "offset": 0,
        "slot": "4",
        "type": "t_mapping(t_uint256,t_address)"
      },
      {
        "astId": 735,
        "contract": "contracts/STCDao.sol:STCDao",
        "label": "_operatorApprovals",
        "offset": 0,
        "slot": "5",
        "type": "t_mapping(t_address,t_mapping(t_address,t_bool))"
      },
      {
        "astId": 1763,
        "contract": "contracts/STCDao.sol:STCDao",
        "label": "_tokenURIs",
        "offset": 0,
        "slot": "6",
        "type": "t_mapping(t_uint256,t_string_storage)"
      },
      {
        "astId": 3418,
        "contract": "contracts/STCDao.sol:STCDao",
        "label": "_daoIdCounter",
        "offset": 0,
        "slot": "7",
        "type": "t_struct(Counter)2260_storage"
      },
      {
        "astId": 3421,
        "contract": "contracts/STCDao.sol:STCDao",
        "label": "_tokenIdCounter",
        "offset": 0,
        "slot": "8",
        "type": "t_struct(Counter)2260_storage"
      },
      {
        "astId": 3424,
        "contract": "contracts/STCDao.sol:STCDao",
        "label": "_marketIdCounter",
        "offset": 0,
        "slot": "9",
        "type": "t_struct(Counter)2260_storage"
      },
      {
        "astId": 3470,
        "contract": "contracts/STCDao.sol:STCDao",
        "label": "_idToDao",
        "offset": 0,
        "slot": "10",
        "type": "t_mapping(t_uint256,t_struct(Dao)3448_storage)"
      },
      {
        "astId": 3475,
        "contract": "contracts/STCDao.sol:STCDao",
        "label": "_idToUserSoul",
        "offset": 0,
        "slot": "11",
        "type": "t_mapping(t_uint256,t_struct(Soul)3435_storage)"
      },
      {
        "astId": 3480,
        "contract": "contracts/STCDao.sol:STCDao",
        "label": "_idToApiMarket",
        "offset": 0,
        "slot": "12",
        "type": "t_mapping(t_uint256,t_struct(ApiMarket)3465_storage)"
      },
      {
        "astId": 3485,
        "contract": "contracts/STCDao.sol:STCDao",
        "label": "_providerDaoIds",
        "offset": 0,
        "slot": "13",
        "type": "t_mapping(t_address,t_array(t_uint256)dyn_storage)"
      },
      {
        "astId": 3490,
        "contract": "contracts/STCDao.sol:STCDao",
        "label": "_userSoulIds",
        "offset": 0,
        "slot": "14",
        "type": "t_mapping(t_address,t_array(t_uint256)dyn_storage)"
      },
      {
        "astId": 3495,
        "contract": "contracts/STCDao.sol:STCDao",
        "label": "_userMarketApiIds",
        "offset": 0,
        "slot": "15",
        "type": "t_mapping(t_address,t_array(t_uint256)dyn_storage)"
      },
      {
        "astId": 3500,
        "contract": "contracts/STCDao.sol:STCDao",
        "label": "_daoMarketApiIds",
        "offset": 0,
        "slot": "16",
        "type": "t_mapping(t_uint256,t_array(t_uint256)dyn_storage)"
      }
    ],
    "types": {
      "t_address": {
        "encoding": "inplace",
        "label": "address",
        "numberOfBytes": "20"
      },
      "t_array(t_uint256)dyn_storage": {
        "base": "t_uint256",
        "encoding": "dynamic_array",
        "label": "uint256[]",
        "numberOfBytes": "32"
      },
      "t_bool": {
        "encoding": "inplace",
        "label": "bool",
        "numberOfBytes": "1"
      },
      "t_mapping(t_address,t_array(t_uint256)dyn_storage)": {
        "encoding": "mapping",
        "key": "t_address",
        "label": "mapping(address => uint256[])",
        "numberOfBytes": "32",
        "value": "t_array(t_uint256)dyn_storage"
      },
      "t_mapping(t_address,t_bool)": {
        "encoding": "mapping",
        "key": "t_address",
        "label": "mapping(address => bool)",
        "numberOfBytes": "32",
        "value": "t_bool"
      },
      "t_mapping(t_address,t_mapping(t_address,t_bool))": {
        "encoding": "mapping",
        "key": "t_address",
        "label": "mapping(address => mapping(address => bool))",
        "numberOfBytes": "32",
        "value": "t_mapping(t_address,t_bool)"
      },
      "t_mapping(t_address,t_uint256)": {
        "encoding": "mapping",
        "key": "t_address",
        "label": "mapping(address => uint256)",
        "numberOfBytes": "32",
        "value": "t_uint256"
      },
      "t_mapping(t_uint256,t_address)": {
        "encoding": "mapping",
        "key": "t_uint256",
        "label": "mapping(uint256 => address)",
        "numberOfBytes": "32",
        "value": "t_address"
      },
      "t_mapping(t_uint256,t_array(t_uint256)dyn_storage)": {
        "encoding": "mapping",
        "key": "t_uint256",
        "label": "mapping(uint256 => uint256[])",
        "numberOfBytes": "32",
        "value": "t_array(t_uint256)dyn_storage"
      },
      "t_mapping(t_uint256,t_string_storage)": {
        "encoding": "mapping",
        "key": "t_uint256",
        "label": "mapping(uint256 => string)",
        "numberOfBytes": "32",
        "value": "t_string_storage"
      },
      "t_mapping(t_uint256,t_struct(ApiMarket)3465_storage)": {
        "encoding": "mapping",
        "key": "t_uint256",
        "label": "mapping(uint256 => struct STCDao.ApiMarket)",
        "numberOfBytes": "32",
        "value": "t_struct(ApiMarket)3465_storage"
      },
      "t_mapping(t_uint256,t_struct(Dao)3448_storage)": {
        "encoding": "mapping",
        "key": "t_uint256",
        "label": "mapping(uint256 => struct STCDao.Dao)",
        "numberOfBytes": "32",
        "value": "t_struct(Dao)3448_storage"
      },
      "t_mapping(t_uint256,t_struct(Soul)3435_storage)": {
        "encoding": "mapping",
        "key": "t_uint256",
        "label": "mapping(uint256 => struct STCDao.Soul)",
        "numberOfBytes": "32",
        "value": "t_struct(Soul)3435_storage"
      },
      "t_string_storage": {
        "encoding": "bytes",
        "label": "string",
        "numberOfBytes": "32"
      },
      "t_struct(ApiMarket)3465_storage": {
        "encoding": "inplace",
        "label": "struct STCDao.ApiMarket",
        "members": [
          {
            "astId": 3450,
            "contract": "contracts/STCDao.sol:STCDao",
            "label": "marketId",
            "offset": 0,
            "slot": "0",
            "type": "t_uint256"
          },
          {
            "astId": 3452,
            "contract": "contracts/STCDao.sol:STCDao",
            "label": "daoId",
            "offset": 0,
            "slot": "1",
            "type": "t_uint256"
          },
          {
            "astId": 3454,
            "contract": "contracts/STCDao.sol:STCDao",
            "label": "apiName",
            "offset": 0,
            "slot": "2",
            "type": "t_string_storage"
          },
          {
            "astId": 3456,
            "contract": "contracts/STCDao.sol:STCDao",
            "label": "apiMethod",
            "offset": 0,
            "slot": "3",
            "type": "t_string_storage"
          },
          {
            "astId": 3458,
            "contract": "contracts/STCDao.sol:STCDao",
            "label": "apiUrl",
            "offset": 0,
            "slot": "4",
            "type": "t_string_storage"
          },
          {
            "astId": 3460,
            "contract": "contracts/STCDao.sol:STCDao",
            "label": "price",
            "offset": 0,
            "slot": "5",
            "type": "t_uint256"
          },
          {
            "astId": 3462,
            "contract": "contracts/STCDao.sol:STCDao",
            "label": "description",
            "offset": 0,
            "slot": "6",
            "type": "t_string_storage"
          },
          {
            "astId": 3464,
            "contract": "contracts/STCDao.sol:STCDao",
            "label": "createUser",
            "offset": 0,
            "slot": "7",
            "type": "t_address"
          }
        ],
        "numberOfBytes": "256"
      },
      "t_struct(Counter)2260_storage": {
        "encoding": "inplace",
        "label": "struct Counters.Counter",
        "members": [
          {
            "astId": 2259,
            "contract": "contracts/STCDao.sol:STCDao",
            "label": "_value",
            "offset": 0,
            "slot": "0",
            "type": "t_uint256"
          }
        ],
        "numberOfBytes": "32"
      },
      "t_struct(Dao)3448_storage": {
        "encoding": "inplace",
        "label": "struct STCDao.Dao",
        "members": [
          {
            "astId": 3437,
            "contract": "contracts/STCDao.sol:STCDao",
            "label": "daoId",
            "offset": 0,
            "slot": "0",
            "type": "t_uint256"
          },
          {
            "astId": 3439,
            "contract": "contracts/STCDao.sol:STCDao",
            "label": "name",
            "offset": 0,
            "slot": "1",
            "type": "t_string_storage"
          },
          {
            "astId": 3441,
            "contract": "contracts/STCDao.sol:STCDao",
            "label": "description",
            "offset": 0,
            "slot": "2",
            "type": "t_string_storage"
          },
          {
            "astId": 3443,
            "contract": "contracts/STCDao.sol:STCDao",
            "label": "jsoninfo",
            "offset": 0,
            "slot": "3",
            "type": "t_string_storage"
          },
          {
            "astId": 3445,
            "contract": "contracts/STCDao.sol:STCDao",
            "label": "image",
            "offset": 0,
            "slot": "4",
            "type": "t_string_storage"
          },
          {
            "astId": 3447,
            "contract": "contracts/STCDao.sol:STCDao",
            "label": "daoOwner",
            "offset": 0,
            "slot": "5",
            "type": "t_address"
          }
        ],
        "numberOfBytes": "192"
      },
      "t_struct(Soul)3435_storage": {
        "encoding": "inplace",
        "label": "struct STCDao.Soul",
        "members": [
          {
            "astId": 3426,
            "contract": "contracts/STCDao.sol:STCDao",
            "label": "soulId",
            "offset": 0,
            "slot": "0",
            "type": "t_uint256"
          },
          {
            "astId": 3428,
            "contract": "contracts/STCDao.sol:STCDao",
            "label": "daoId",
            "offset": 0,
            "slot": "1",
            "type": "t_uint256"
          },
          {
            "astId": 3430,
            "contract": "contracts/STCDao.sol:STCDao",
            "label": "soulOwner",
            "offset": 0,
            "slot": "2",
            "type": "t_address"
          },
          {
            "astId": 3432,
            "contract": "contracts/STCDao.sol:STCDao",
            "label": "metadata",
            "offset": 0,
            "slot": "3",
            "type": "t_string_storage"
          },
          {
            "astId": 3434,
            "contract": "contracts/STCDao.sol:STCDao",
            "label": "image",
            "offset": 0,
            "slot": "4",
            "type": "t_string_storage"
          }
        ],
        "numberOfBytes": "160"
      },
      "t_uint256": {
        "encoding": "inplace",
        "label": "uint256",
        "numberOfBytes": "32"
      }
    }
  }
}