{
  "address": "0x259e95c45C32F7911Aab9c2E922130A56341bffb",
  "abi": [
    {
      "inputs": [],
      "stateMutability": "nonpayable",
      "type": "constructor"
    },
    {
      "anonymous": false,
      "inputs": [
        {
          "indexed": true,
          "internalType": "address",
          "name": "owner",
          "type": "address"
        },
        {
          "indexed": true,
          "internalType": "address",
          "name": "approved",
          "type": "address"
        },
        {
          "indexed": true,
          "internalType": "uint256",
          "name": "tokenId",
          "type": "uint256"
        }
      ],
      "name": "Approval",
      "type": "event"
    },
    {
      "anonymous": false,
      "inputs": [
        {
          "indexed": true,
          "internalType": "address",
          "name": "owner",
          "type": "address"
        },
        {
          "indexed": true,
          "internalType": "address",
          "name": "operator",
          "type": "address"
        },
        {
          "indexed": false,
          "internalType": "bool",
          "name": "approved",
          "type": "bool"
        }
      ],
      "name": "ApprovalForAll",
      "type": "event"
    },
    {
      "anonymous": false,
      "inputs": [
        {
          "indexed": false,
          "internalType": "address",
          "name": "",
          "type": "address"
        },
        {
          "indexed": false,
          "internalType": "uint256",
          "name": "",
          "type": "uint256"
        }
      ],
      "name": "TokenMinted",
      "type": "event"
    },
    {
      "anonymous": false,
      "inputs": [
        {
          "indexed": false,
          "internalType": "address",
          "name": "",
          "type": "address"
        },
        {
          "indexed": false,
          "internalType": "address",
          "name": "",
          "type": "address"
        },
        {
          "indexed": false,
          "internalType": "uint256",
          "name": "",
          "type": "uint256"
        }
      ],
      "name": "TokenTransfered",
      "type": "event"
    },
    {
      "anonymous": false,
      "inputs": [
        {
          "indexed": true,
          "internalType": "address",
          "name": "from",
          "type": "address"
        },
        {
          "indexed": true,
          "internalType": "address",
          "name": "to",
          "type": "address"
        },
        {
          "indexed": true,
          "internalType": "uint256",
          "name": "tokenId",
          "type": "uint256"
        }
      ],
      "name": "Transfer",
      "type": "event"
    },
    {
      "inputs": [
        {
          "internalType": "address",
          "name": "to",
          "type": "address"
        },
        {
          "internalType": "uint256",
          "name": "tokenId",
          "type": "uint256"
        }
      ],
      "name": "approve",
      "outputs": [],
      "stateMutability": "nonpayable",
      "type": "function"
    },
    {
      "inputs": [
        {
          "internalType": "address",
          "name": "owner",
          "type": "address"
        }
      ],
      "name": "balanceOf",
      "outputs": [
        {
          "internalType": "uint256",
          "name": "",
          "type": "uint256"
        }
      ],
      "stateMutability": "view",
      "type": "function"
    },
    {
      "inputs": [
        {
          "internalType": "string",
          "name": "name",
          "type": "string"
        },
        {
          "internalType": "string",
          "name": "description",
          "type": "string"
        },
        {
          "internalType": "string",
          "name": "jsoninfo",
          "type": "string"
        },
        {
          "internalType": "string",
          "name": "image",
          "type": "string"
        }
      ],
      "name": "createDao",
      "outputs": [],
      "stateMutability": "nonpayable",
      "type": "function"
    },
    {
      "inputs": [
        {
          "internalType": "string",
          "name": "tokenURI",
          "type": "string"
        },
        {
          "internalType": "uint256",
          "name": "_daoId",
          "type": "uint256"
        },
        {
          "internalType": "string",
          "name": "_metadata",
          "type": "string"
        },
        {
          "internalType": "string",
          "name": "_image",
          "type": "string"
        }
      ],
      "name": "createUserNft",
      "outputs": [
        {
          "internalType": "uint256",
          "name": "",
          "type": "uint256"
        }
      ],
      "stateMutability": "nonpayable",
      "type": "function"
    },
    {
      "inputs": [],
      "name": "getAllDaos",
      "outputs": [
        {
          "components": [
            {
              "internalType": "uint256",
              "name": "daoId",
              "type": "uint256"
            },
            {
              "internalType": "string",
              "name": "name",
              "type": "string"
            },
            {
              "internalType": "string",
              "name": "description",
              "type": "string"
            },
            {
              "internalType": "string",
              "name": "jsoninfo",
              "type": "string"
            },
            {
              "internalType": "string",
              "name": "image",
              "type": "string"
            }
          ],
          "internalType": "struct STCDao.Dao[]",
          "name": "",
          "type": "tuple[]"
        }
      ],
      "stateMutability": "view",
      "type": "function"
    },
    {
      "inputs": [
        {
          "internalType": "uint256",
          "name": "tokenId",
          "type": "uint256"
        }
      ],
      "name": "getApproved",
      "outputs": [
        {
          "internalType": "address",
          "name": "",
          "type": "address"
        }
      ],
      "stateMutability": "view",
      "type": "function"
    },
    {
      "inputs": [
        {
          "internalType": "uint256",
          "name": "daoId",
          "type": "uint256"
        }
      ],
      "name": "getDao",
      "outputs": [
        {
          "components": [
            {
              "internalType": "uint256",
              "name": "daoId",
              "type": "uint256"
            },
            {
              "internalType": "string",
              "name": "name",
              "type": "string"
            },
            {
              "internalType": "string",
              "name": "description",
              "type": "string"
            },
            {
              "internalType": "string",
              "name": "jsoninfo",
              "type": "string"
            },
            {
              "internalType": "string",
              "name": "image",
              "type": "string"
            }
          ],
          "internalType": "struct STCDao.Dao",
          "name": "",
          "type": "tuple"
        }
      ],
      "stateMutability": "view",
      "type": "function"
    },
    {
      "inputs": [
        {
          "internalType": "uint256",
          "name": "daoId",
          "type": "uint256"
        }
      ],
      "name": "getUserNft",
      "outputs": [
        {
          "components": [
            {
              "internalType": "uint256",
              "name": "tokenId",
              "type": "uint256"
            },
            {
              "internalType": "uint256",
              "name": "daoId",
              "type": "uint256"
            },
            {
              "internalType": "address",
              "name": "user",
              "type": "address"
            },
            {
              "internalType": "string",
              "name": "metadata",
              "type": "string"
            },
            {
              "internalType": "string",
              "name": "image",
              "type": "string"
            }
          ],
          "internalType": "struct STCDao.Soul",
          "name": "",
          "type": "tuple"
        },
        {
          "internalType": "bool",
          "name": "",
          "type": "bool"
        }
      ],
      "stateMutability": "view",
      "type": "function"
    },
    {
      "inputs": [
        {
          "internalType": "uint256",
          "name": "",
          "type": "uint256"
        }
      ],
      "name": "idToDao",
      "outputs": [
        {
          "internalType": "uint256",
          "name": "daoId",
          "type": "uint256"
        },
        {
          "internalType": "string",
          "name": "name",
          "type": "string"
        },
        {
          "internalType": "string",
          "name": "description",
          "type": "string"
        },
        {
          "internalType": "string",
          "name": "jsoninfo",
          "type": "string"
        },
        {
          "internalType": "string",
          "name": "image",
          "type": "string"
        }
      ],
      "stateMutability": "view",
      "type": "function"
    },
    {
      "inputs": [
        {
          "internalType": "address",
          "name": "owner",
          "type": "address"
        },
        {
          "internalType": "address",
          "name": "operator",
          "type": "address"
        }
      ],
      "name": "isApprovedForAll",
      "outputs": [
        {
          "internalType": "bool",
          "name": "",
          "type": "bool"
        }
      ],
      "stateMutability": "view",
      "type": "function"
    },
    {
      "inputs": [],
      "name": "name",
      "outputs": [
        {
          "internalType": "string",
          "name": "",
          "type": "string"
        }
      ],
      "stateMutability": "view",
      "type": "function"
    },
    {
      "inputs": [
        {
          "internalType": "uint256",
          "name": "tokenId",
          "type": "uint256"
        }
      ],
      "name": "ownerOf",
      "outputs": [
        {
          "internalType": "address",
          "name": "",
          "type": "address"
        }
      ],
      "stateMutability": "view",
      "type": "function"
    },
    {
      "inputs": [
        {
          "internalType": "address",
          "name": "from",
          "type": "address"
        },
        {
          "internalType": "address",
          "name": "to",
          "type": "address"
        },
        {
          "internalType": "uint256",
          "name": "tokenId",
          "type": "uint256"
        }
      ],
      "name": "safeTransferFrom",
      "outputs": [],
      "stateMutability": "nonpayable",
      "type": "function"
    },
    {
      "inputs": [
        {
          "internalType": "address",
          "name": "from",
          "type": "address"
        },
        {
          "internalType": "address",
          "name": "to",
          "type": "address"
        },
        {
          "internalType": "uint256",
          "name": "tokenId",
          "type": "uint256"
        },
        {
          "internalType": "bytes",
          "name": "data",
          "type": "bytes"
        }
      ],
      "name": "safeTransferFrom",
      "outputs": [],
      "stateMutability": "nonpayable",
      "type": "function"
    },
    {
      "inputs": [
        {
          "internalType": "address",
          "name": "operator",
          "type": "address"
        },
        {
          "internalType": "bool",
          "name": "approved",
          "type": "bool"
        }
      ],
      "name": "setApprovalForAll",
      "outputs": [],
      "stateMutability": "nonpayable",
      "type": "function"
    },
    {
      "inputs": [
        {
          "internalType": "bytes4",
          "name": "interfaceId",
          "type": "bytes4"
        }
      ],
      "name": "supportsInterface",
      "outputs": [
        {
          "internalType": "bool",
          "name": "",
          "type": "bool"
        }
      ],
      "stateMutability": "view",
      "type": "function"
    },
    {
      "inputs": [],
      "name": "symbol",
      "outputs": [
        {
          "internalType": "string",
          "name": "",
          "type": "string"
        }
      ],
      "stateMutability": "view",
      "type": "function"
    },
    {
      "inputs": [
        {
          "internalType": "uint256",
          "name": "tokenId",
          "type": "uint256"
        }
      ],
      "name": "tokenURI",
      "outputs": [
        {
          "internalType": "string",
          "name": "",
          "type": "string"
        }
      ],
      "stateMutability": "view",
      "type": "function"
    },
    {
      "inputs": [
        {
          "internalType": "address",
          "name": "from",
          "type": "address"
        },
        {
          "internalType": "address",
          "name": "to",
          "type": "address"
        },
        {
          "internalType": "uint256",
          "name": "tokenId",
          "type": "uint256"
        }
      ],
      "name": "transferFrom",
      "outputs": [],
      "stateMutability": "nonpayable",
      "type": "function"
    },
    {
      "inputs": [
        {
          "internalType": "address",
          "name": "",
          "type": "address"
        }
      ],
      "name": "userSoulCount",
      "outputs": [
        {
          "internalType": "uint256",
          "name": "",
          "type": "uint256"
        }
      ],
      "stateMutability": "view",
      "type": "function"
    },
    {
      "inputs": [
        {
          "internalType": "address",
          "name": "",
          "type": "address"
        },
        {
          "internalType": "uint256",
          "name": "",
          "type": "uint256"
        }
      ],
      "name": "userSoulIds",
      "outputs": [
        {
          "internalType": "uint256",
          "name": "",
          "type": "uint256"
        }
      ],
      "stateMutability": "view",
      "type": "function"
    }
  ],
  "transactionHash": "0x18b53c3fed248db949219afe73c81fe20c494d44bf129ae25f16ee928c9a6b81",
  "args": [],
  "numDeployments": 4,
  "solcInputHash": "489dc6fb1445346766837b995ec6d242",
  "bytecode": "0x60806040523480156200001157600080fd5b506040518060400160405280600681526020017f53544344616f00000000000000000000000000000000000000000000000000008152506040518060400160405280600481526020017f5354434e0000000000000000000000000000000000000000000000000000000081525081600090816200008f919062000324565b508060019081620000a1919062000324565b5050506200040b565b600081519050919050565b7f4e487b7100000000000000000000000000000000000000000000000000000000600052604160045260246000fd5b7f4e487b7100000000000000000000000000000000000000000000000000000000600052602260045260246000fd5b600060028204905060018216806200012c57607f821691505b602082108103620001425762000141620000e4565b5b50919050565b60008190508160005260206000209050919050565b60006020601f8301049050919050565b600082821b905092915050565b600060088302620001ac7fffffffffffffffffffffffffffffffffffffffffffffffffffffffffffffffff826200016d565b620001b886836200016d565b95508019841693508086168417925050509392505050565b6000819050919050565b6000819050919050565b600062000205620001ff620001f984620001d0565b620001da565b620001d0565b9050919050565b6000819050919050565b6200022183620001e4565b6200023962000230826200020c565b8484546200017a565b825550505050565b600090565b6200025062000241565b6200025d81848462000216565b505050565b5b8181101562000285576200027960008262000246565b60018101905062000263565b5050565b601f821115620002d4576200029e8162000148565b620002a9846200015d565b81016020851015620002b9578190505b620002d1620002c8856200015d565b83018262000262565b50505b505050565b600082821c905092915050565b6000620002f960001984600802620002d9565b1980831691505092915050565b6000620003148383620002e6565b9150826002028217905092915050565b6200032f82620000aa565b67ffffffffffffffff8111156200034b576200034a620000b5565b5b62000357825462000113565b6200036482828562000289565b600060209050601f8311600181146200039c576000841562000387578287015190505b62000393858262000306565b86555062000403565b601f198416620003ac8662000148565b60005b82811015620003d657848901518255600182019150602085019450602081019050620003af565b86831015620003f65784890151620003f2601f891682620002e6565b8355505b6001600288020188555050505b505050505050565b61400b806200041b6000396000f3fe608060405234801561001057600080fd5b50600436106101375760003560e01c806370a08231116100b8578063aa5b6d4c1161007c578063aa5b6d4c14610385578063aceb6d5e146103a3578063b88d4fde146103d7578063c87b56dd146103f3578063e985e9c514610423578063ea8a10cf1461045357610137565b806370a08231146102bb57806395d89b41146102eb578063a07b57f614610309578063a22cb46514610339578063a36c530e1461035557610137565b806323b872dd116100ff57806323b872dd146101f257806342842e0e1461020e578063520dc7451461022a5780635e92fe921461025b5780636352211e1461028b57610137565b806301ffc9a71461013c57806306fdde031461016c578063081812fc1461018a578063095ea7b3146101ba5780631b44c40e146101d6575b600080fd5b6101566004803603810190610151919061294a565b610483565b6040516101639190612992565b60405180910390f35b610174610565565b6040516101819190612a3d565b60405180910390f35b6101a4600480360381019061019f9190612a95565b6105f7565b6040516101b19190612b03565b60405180910390f35b6101d460048036038101906101cf9190612b4a565b61063d565b005b6101f060048036038101906101eb9190612cbf565b610754565b005b61020c60048036038101906102079190612d96565b6108c8565b005b61022860048036038101906102239190612d96565b610928565b005b610244600480360381019061023f9190612a95565b610948565b604051610252929190612ece565b60405180910390f35b61027560048036038101906102709190612efe565b610c58565b6040516102829190612f3a565b60405180910390f35b6102a560048036038101906102a09190612a95565b610c70565b6040516102b29190612b03565b60405180910390f35b6102d560048036038101906102d09190612efe565b610cf6565b6040516102e29190612f3a565b60405180910390f35b6102f3610dad565b6040516103009190612a3d565b60405180910390f35b610323600480360381019061031e9190612a95565b610e3f565b6040516103309190612fe0565b60405180910390f35b610353600480360381019061034e919061302e565b6110be565b005b61036f600480360381019061036a919061306e565b6110d4565b60405161037c9190612f3a565b60405180910390f35b61038d6112dc565b60405161039a9190613276565b60405180910390f35b6103bd60048036038101906103b89190612a95565b61158d565b6040516103ce959493929190613298565b60405180910390f35b6103f160048036038101906103ec91906133a8565b6117e3565b005b61040d60048036038101906104089190612a95565b611845565b60405161041a9190612a3d565b60405180910390f35b61043d6004803603810190610438919061342b565b611957565b60405161044a9190612992565b60405180910390f35b61046d60048036038101906104689190612b4a565b6119eb565b60405161047a9190612f3a565b60405180910390f35b60007f80ac58cd000000000000000000000000000000000000000000000000000000007bffffffffffffffffffffffffffffffffffffffffffffffffffffffff1916827bffffffffffffffffffffffffffffffffffffffffffffffffffffffff1916148061054e57507f5b5e139f000000000000000000000000000000000000000000000000000000007bffffffffffffffffffffffffffffffffffffffffffffffffffffffff1916827bffffffffffffffffffffffffffffffffffffffffffffffffffffffff1916145b8061055e575061055d82611a1c565b5b9050919050565b6060600080546105749061349a565b80601f01602080910402602001604051908101604052809291908181526020018280546105a09061349a565b80156105ed5780601f106105c2576101008083540402835291602001916105ed565b820191906000526020600020905b8154815290600101906020018083116105d057829003601f168201915b5050505050905090565b600061060282611a86565b6004600083815260200190815260200160002060009054906101000a900473ffffffffffffffffffffffffffffffffffffffff169050919050565b600061064882610c70565b90508073ffffffffffffffffffffffffffffffffffffffff168373ffffffffffffffffffffffffffffffffffffffff16036106b8576040517f08c379a00000000000000000000000000000000000000000000000000000000081526004016106af9061353d565b60405180910390fd5b8073ffffffffffffffffffffffffffffffffffffffff166106d7611ad1565b73ffffffffffffffffffffffffffffffffffffffff161480610706575061070581610700611ad1565b611957565b5b610745576040517f08c379a000000000000000000000000000000000000000000000000000000000815260040161073c906135cf565b60405180910390fd5b61074f8383611ad9565b505050565b60006107606007611b92565b905061076c6007611ba0565b60096040518060a001604052808381526020018781526020018681526020018581526020018481525090806001815401808255809150506001900390600052602060002090600502016000909190919091506000820151816000015560208201518160010190816107dd919061379b565b5060408201518160020190816107f3919061379b565b506060820151816003019081610809919061379b565b50608082015181600401908161081f919061379b565b5050506040518060a0016040528082815260200186815260200185815260200184815260200183815250600a600083815260200190815260200160002060008201518160000155602082015181600101908161087b919061379b565b506040820151816002019081610891919061379b565b5060608201518160030190816108a7919061379b565b5060808201518160040190816108bd919061379b565b509050505050505050565b6108d96108d3611ad1565b82611bb6565b610918576040517f08c379a000000000000000000000000000000000000000000000000000000000815260040161090f906138df565b60405180910390fd5b610923838383611c4b565b505050565b610943838383604051806020016040528060008152506117e3565b505050565b61095061286a565b600061095a61286a565b60005b600c60003373ffffffffffffffffffffffffffffffffffffffff1673ffffffffffffffffffffffffffffffffffffffff16815260200190815260200160002080549050811015610c495784600b6000600c60003373ffffffffffffffffffffffffffffffffffffffff1673ffffffffffffffffffffffffffffffffffffffff16815260200190815260200160002084815481106109fd576109fc6138ff565b5b906000526020600020015481526020019081526020016000206001015403610c3657600b6000600c60003373ffffffffffffffffffffffffffffffffffffffff1673ffffffffffffffffffffffffffffffffffffffff1681526020019081526020016000208381548110610a7457610a736138ff565b5b906000526020600020015481526020019081526020016000206001816040518060a001604052908160008201548152602001600182015481526020016002820160009054906101000a900473ffffffffffffffffffffffffffffffffffffffff1673ffffffffffffffffffffffffffffffffffffffff1673ffffffffffffffffffffffffffffffffffffffff168152602001600382018054610b159061349a565b80601f0160208091040260200160405190810160405280929190818152602001828054610b419061349a565b8015610b8e5780601f10610b6357610100808354040283529160200191610b8e565b820191906000526020600020905b815481529060010190602001808311610b7157829003601f168201915b50505050508152602001600482018054610ba79061349a565b80601f0160208091040260200160405190810160405280929190818152602001828054610bd39061349a565b8015610c205780601f10610bf557610100808354040283529160200191610c20565b820191906000526020600020905b815481529060010190602001808311610c0357829003601f168201915b5050505050815250509150935093505050610c53565b8080610c419061395d565b91505061095d565b5080600092509250505b915091565b600d6020528060005260406000206000915090505481565b600080610c7c83611f44565b9050600073ffffffffffffffffffffffffffffffffffffffff168173ffffffffffffffffffffffffffffffffffffffff1603610ced576040517f08c379a0000000000000000000000000000000000000000000000000000000008152600401610ce4906139f1565b60405180910390fd5b80915050919050565b60008073ffffffffffffffffffffffffffffffffffffffff168273ffffffffffffffffffffffffffffffffffffffff1603610d66576040517f08c379a0000000000000000000000000000000000000000000000000000000008152600401610d5d90613a83565b60405180910390fd5b600360008373ffffffffffffffffffffffffffffffffffffffff1673ffffffffffffffffffffffffffffffffffffffff168152602001908152602001600020549050919050565b606060018054610dbc9061349a565b80601f0160208091040260200160405190810160405280929190818152602001828054610de89061349a565b8015610e355780601f10610e0a57610100808354040283529160200191610e35565b820191906000526020600020905b815481529060010190602001808311610e1857829003601f168201915b5050505050905090565b610e476128af565b600a60008381526020019081526020016000206040518060a001604052908160008201548152602001600182018054610e7f9061349a565b80601f0160208091040260200160405190810160405280929190818152602001828054610eab9061349a565b8015610ef85780601f10610ecd57610100808354040283529160200191610ef8565b820191906000526020600020905b815481529060010190602001808311610edb57829003601f168201915b50505050508152602001600282018054610f119061349a565b80601f0160208091040260200160405190810160405280929190818152602001828054610f3d9061349a565b8015610f8a5780601f10610f5f57610100808354040283529160200191610f8a565b820191906000526020600020905b815481529060010190602001808311610f6d57829003601f168201915b50505050508152602001600382018054610fa39061349a565b80601f0160208091040260200160405190810160405280929190818152602001828054610fcf9061349a565b801561101c5780601f10610ff15761010080835404028352916020019161101c565b820191906000526020600020905b815481529060010190602001808311610fff57829003601f168201915b505050505081526020016004820180546110359061349a565b80601f01602080910402602001604051908101604052809291908181526020018280546110619061349a565b80156110ae5780601f10611083576101008083540402835291602001916110ae565b820191906000526020600020905b81548152906001019060200180831161109157829003601f168201915b5050505050815250509050919050565b6110d06110c9611ad1565b8383611f81565b5050565b6000806110e16008611b92565b90506110ed6008611ba0565b6110f733826120ed565b611101818761230a565b6040518060a001604052808281526020018681526020013373ffffffffffffffffffffffffffffffffffffffff16815260200185815260200184815250600b6000838152602001908152602001600020600082015181600001556020820151816001015560408201518160020160006101000a81548173ffffffffffffffffffffffffffffffffffffffff021916908373ffffffffffffffffffffffffffffffffffffffff16021790555060608201518160030190816111c1919061379b565b5060808201518160040190816111d7919061379b565b50905050600c60003373ffffffffffffffffffffffffffffffffffffffff1673ffffffffffffffffffffffffffffffffffffffff1681526020019081526020016000208190806001815401808255809150506001900390600052602060002001600090919091909150556001600d60003373ffffffffffffffffffffffffffffffffffffffff1673ffffffffffffffffffffffffffffffffffffffff1681526020019081526020016000205461128d9190613aa3565b600d60003373ffffffffffffffffffffffffffffffffffffffff1673ffffffffffffffffffffffffffffffffffffffff1681526020019081526020016000208190555080915050949350505050565b60606009805480602002602001604051908101604052809291908181526020016000905b8282101561158457838290600052602060002090600502016040518060a00160405290816000820154815260200160018201805461133d9061349a565b80601f01602080910402602001604051908101604052809291908181526020018280546113699061349a565b80156113b65780601f1061138b576101008083540402835291602001916113b6565b820191906000526020600020905b81548152906001019060200180831161139957829003601f168201915b505050505081526020016002820180546113cf9061349a565b80601f01602080910402602001604051908101604052809291908181526020018280546113fb9061349a565b80156114485780601f1061141d57610100808354040283529160200191611448565b820191906000526020600020905b81548152906001019060200180831161142b57829003601f168201915b505050505081526020016003820180546114619061349a565b80601f016020809104026020016040519081016040528092919081815260200182805461148d9061349a565b80156114da5780601f106114af576101008083540402835291602001916114da565b820191906000526020600020905b8154815290600101906020018083116114bd57829003601f168201915b505050505081526020016004820180546114f39061349a565b80601f016020809104026020016040519081016040528092919081815260200182805461151f9061349a565b801561156c5780601f106115415761010080835404028352916020019161156c565b820191906000526020600020905b81548152906001019060200180831161154f57829003601f168201915b50505050508152505081526020019060010190611300565b50505050905090565b600a6020528060005260406000206000915090508060000154908060010180546115b69061349a565b80601f01602080910402602001604051908101604052809291908181526020018280546115e29061349a565b801561162f5780601f106116045761010080835404028352916020019161162f565b820191906000526020600020905b81548152906001019060200180831161161257829003601f168201915b5050505050908060020180546116449061349a565b80601f01602080910402602001604051908101604052809291908181526020018280546116709061349a565b80156116bd5780601f10611692576101008083540402835291602001916116bd565b820191906000526020600020905b8154815290600101906020018083116116a057829003601f168201915b5050505050908060030180546116d29061349a565b80601f01602080910402602001604051908101604052809291908181526020018280546116fe9061349a565b801561174b5780601f106117205761010080835404028352916020019161174b565b820191906000526020600020905b81548152906001019060200180831161172e57829003601f168201915b5050505050908060040180546117609061349a565b80601f016020809104026020016040519081016040528092919081815260200182805461178c9061349a565b80156117d95780601f106117ae576101008083540402835291602001916117d9565b820191906000526020600020905b8154815290600101906020018083116117bc57829003601f168201915b5050505050905085565b6117f46117ee611ad1565b83611bb6565b611833576040517f08c379a000000000000000000000000000000000000000000000000000000000815260040161182a906138df565b60405180910390fd5b61183f84848484612377565b50505050565b606061185082611a86565b60006006600084815260200190815260200160002080546118709061349a565b80601f016020809104026020016040519081016040528092919081815260200182805461189c9061349a565b80156118e95780601f106118be576101008083540402835291602001916118e9565b820191906000526020600020905b8154815290600101906020018083116118cc57829003601f168201915b5050505050905060006118fa6123d3565b9050600081510361190f578192505050611952565b60008251111561194457808260405160200161192c929190613b13565b60405160208183030381529060405292505050611952565b61194d846123ea565b925050505b919050565b6000600560008473ffffffffffffffffffffffffffffffffffffffff1673ffffffffffffffffffffffffffffffffffffffff16815260200190815260200160002060008373ffffffffffffffffffffffffffffffffffffffff1673ffffffffffffffffffffffffffffffffffffffff16815260200190815260200160002060009054906101000a900460ff16905092915050565b600c6020528160005260406000208181548110611a0757600080fd5b90600052602060002001600091509150505481565b60007f01ffc9a7000000000000000000000000000000000000000000000000000000007bffffffffffffffffffffffffffffffffffffffffffffffffffffffff1916827bffffffffffffffffffffffffffffffffffffffffffffffffffffffff1916149050919050565b611a8f81612452565b611ace576040517f08c379a0000000000000000000000000000000000000000000000000000000008152600401611ac5906139f1565b60405180910390fd5b50565b600033905090565b816004600083815260200190815260200160002060006101000a81548173ffffffffffffffffffffffffffffffffffffffff021916908373ffffffffffffffffffffffffffffffffffffffff160217905550808273ffffffffffffffffffffffffffffffffffffffff16611b4c83610c70565b73ffffffffffffffffffffffffffffffffffffffff167f8c5be1e5ebec7d5bd14f71427d1e84f3dd0314c0f7b2291e5b200ac8c7c3b92560405160405180910390a45050565b600081600001549050919050565b6001816000016000828254019250508190555050565b600080611bc283610c70565b90508073ffffffffffffffffffffffffffffffffffffffff168473ffffffffffffffffffffffffffffffffffffffff161480611c045750611c038185611957565b5b80611c4257508373ffffffffffffffffffffffffffffffffffffffff16611c2a846105f7565b73ffffffffffffffffffffffffffffffffffffffff16145b91505092915050565b8273ffffffffffffffffffffffffffffffffffffffff16611c6b82610c70565b73ffffffffffffffffffffffffffffffffffffffff1614611cc1576040517f08c379a0000000000000000000000000000000000000000000000000000000008152600401611cb890613ba9565b60405180910390fd5b600073ffffffffffffffffffffffffffffffffffffffff168273ffffffffffffffffffffffffffffffffffffffff1603611d30576040517f08c379a0000000000000000000000000000000000000000000000000000000008152600401611d2790613c3b565b60405180910390fd5b611d3d8383836001612493565b8273ffffffffffffffffffffffffffffffffffffffff16611d5d82610c70565b73ffffffffffffffffffffffffffffffffffffffff1614611db3576040517f08c379a0000000000000000000000000000000000000000000000000000000008152600401611daa90613ba9565b60405180910390fd5b6004600082815260200190815260200160002060006101000a81549073ffffffffffffffffffffffffffffffffffffffff02191690556001600360008573ffffffffffffffffffffffffffffffffffffffff1673ffffffffffffffffffffffffffffffffffffffff168152602001908152602001600020600082825403925050819055506001600360008473ffffffffffffffffffffffffffffffffffffffff1673ffffffffffffffffffffffffffffffffffffffff16815260200190815260200160002060008282540192505081905550816002600083815260200190815260200160002060006101000a81548173ffffffffffffffffffffffffffffffffffffffff021916908373ffffffffffffffffffffffffffffffffffffffff160217905550808273ffffffffffffffffffffffffffffffffffffffff168473ffffffffffffffffffffffffffffffffffffffff167fddf252ad1be2c89b69c2b068fc378daa952ba7f163c4a11628f55a4df523b3ef60405160405180910390a4611f3f8383836001612499565b505050565b60006002600083815260200190815260200160002060009054906101000a900473ffffffffffffffffffffffffffffffffffffffff169050919050565b8173ffffffffffffffffffffffffffffffffffffffff168373ffffffffffffffffffffffffffffffffffffffff1603611fef576040517f08c379a0000000000000000000000000000000000000000000000000000000008152600401611fe690613ca7565b60405180910390fd5b80600560008573ffffffffffffffffffffffffffffffffffffffff1673ffffffffffffffffffffffffffffffffffffffff16815260200190815260200160002060008473ffffffffffffffffffffffffffffffffffffffff1673ffffffffffffffffffffffffffffffffffffffff16815260200190815260200160002060006101000a81548160ff0219169083151502179055508173ffffffffffffffffffffffffffffffffffffffff168373ffffffffffffffffffffffffffffffffffffffff167f17307eab39ab6107e8899845ad3d59bd9653f200f220920489ca2b5937696c31836040516120e09190612992565b60405180910390a3505050565b600073ffffffffffffffffffffffffffffffffffffffff168273ffffffffffffffffffffffffffffffffffffffff160361215c576040517f08c379a000000000000000000000000000000000000000000000000000000000815260040161215390613d13565b60405180910390fd5b61216581612452565b156121a5576040517f08c379a000000000000000000000000000000000000000000000000000000000815260040161219c90613d7f565b60405180910390fd5b6121b3600083836001612493565b6121bc81612452565b156121fc576040517f08c379a00000000000000000000000000000000000000000000000000000000081526004016121f390613d7f565b60405180910390fd5b6001600360008473ffffffffffffffffffffffffffffffffffffffff1673ffffffffffffffffffffffffffffffffffffffff16815260200190815260200160002060008282540192505081905550816002600083815260200190815260200160002060006101000a81548173ffffffffffffffffffffffffffffffffffffffff021916908373ffffffffffffffffffffffffffffffffffffffff160217905550808273ffffffffffffffffffffffffffffffffffffffff16600073ffffffffffffffffffffffffffffffffffffffff167fddf252ad1be2c89b69c2b068fc378daa952ba7f163c4a11628f55a4df523b3ef60405160405180910390a4612306600083836001612499565b5050565b61231382612452565b612352576040517f08c379a000000000000000000000000000000000000000000000000000000000815260040161234990613e11565b60405180910390fd5b80600660008481526020019081526020016000209081612372919061379b565b505050565b612382848484611c4b565b61238e8484848461249f565b6123cd576040517f08c379a00000000000000000000000000000000000000000000000000000000081526004016123c490613ea3565b60405180910390fd5b50505050565b606060405180602001604052806000815250905090565b60606123f582611a86565b60006123ff6123d3565b9050600081511161241f576040518060200160405280600081525061244a565b8061242984612626565b60405160200161243a929190613b13565b6040516020818303038152906040525b915050919050565b60008073ffffffffffffffffffffffffffffffffffffffff1661247483611f44565b73ffffffffffffffffffffffffffffffffffffffff1614159050919050565b50505050565b50505050565b60006124c08473ffffffffffffffffffffffffffffffffffffffff166126f4565b15612619578373ffffffffffffffffffffffffffffffffffffffff1663150b7a026124e9611ad1565b8786866040518563ffffffff1660e01b815260040161250b9493929190613f18565b6020604051808303816000875af192505050801561254757506040513d601f19601f820116820180604052508101906125449190613f79565b60015b6125c9573d8060008114612577576040519150601f19603f3d011682016040523d82523d6000602084013e61257c565b606091505b5060008151036125c1576040517f08c379a00000000000000000000000000000000000000000000000000000000081526004016125b890613ea3565b60405180910390fd5b805181602001fd5b63150b7a0260e01b7bffffffffffffffffffffffffffffffffffffffffffffffffffffffff1916817bffffffffffffffffffffffffffffffffffffffffffffffffffffffff19161491505061261e565b600190505b949350505050565b60606000600161263584612717565b01905060008167ffffffffffffffff81111561265457612653612b94565b5b6040519080825280601f01601f1916602001820160405280156126865781602001600182028036833780820191505090505b509050600082602001820190505b6001156126e9578080600190039150507f3031323334353637383961626364656600000000000000000000000000000000600a86061a8153600a85816126dd576126dc613fa6565b5b04945060008503612694575b819350505050919050565b6000808273ffffffffffffffffffffffffffffffffffffffff163b119050919050565b600080600090507a184f03e93ff9f4daa797ed6e38ed64bf6a1f0100000000000000008310612775577a184f03e93ff9f4daa797ed6e38ed64bf6a1f010000000000000000838161276b5761276a613fa6565b5b0492506040810190505b6d04ee2d6d415b85acef810000000083106127b2576d04ee2d6d415b85acef810000000083816127a8576127a7613fa6565b5b0492506020810190505b662386f26fc1000083106127e157662386f26fc1000083816127d7576127d6613fa6565b5b0492506010810190505b6305f5e100831061280a576305f5e1008381612800576127ff613fa6565b5b0492506008810190505b612710831061282f57612710838161282557612824613fa6565b5b0492506004810190505b60648310612852576064838161284857612847613fa6565b5b0492506002810190505b600a8310612861576001810190505b80915050919050565b6040518060a001604052806000815260200160008152602001600073ffffffffffffffffffffffffffffffffffffffff16815260200160608152602001606081525090565b6040518060a0016040528060008152602001606081526020016060815260200160608152602001606081525090565b6000604051905090565b600080fd5b600080fd5b60007fffffffff0000000000000000000000000000000000000000000000000000000082169050919050565b612927816128f2565b811461293257600080fd5b50565b6000813590506129448161291e565b92915050565b6000602082840312156129605761295f6128e8565b5b600061296e84828501612935565b91505092915050565b60008115159050919050565b61298c81612977565b82525050565b60006020820190506129a76000830184612983565b92915050565b600081519050919050565b600082825260208201905092915050565b60005b838110156129e75780820151818401526020810190506129cc565b60008484015250505050565b6000601f19601f8301169050919050565b6000612a0f826129ad565b612a1981856129b8565b9350612a298185602086016129c9565b612a32816129f3565b840191505092915050565b60006020820190508181036000830152612a578184612a04565b905092915050565b6000819050919050565b612a7281612a5f565b8114612a7d57600080fd5b50565b600081359050612a8f81612a69565b92915050565b600060208284031215612aab57612aaa6128e8565b5b6000612ab984828501612a80565b91505092915050565b600073ffffffffffffffffffffffffffffffffffffffff82169050919050565b6000612aed82612ac2565b9050919050565b612afd81612ae2565b82525050565b6000602082019050612b186000830184612af4565b92915050565b612b2781612ae2565b8114612b3257600080fd5b50565b600081359050612b4481612b1e565b92915050565b60008060408385031215612b6157612b606128e8565b5b6000612b6f85828601612b35565b9250506020612b8085828601612a80565b9150509250929050565b600080fd5b600080fd5b7f4e487b7100000000000000000000000000000000000000000000000000000000600052604160045260246000fd5b612bcc826129f3565b810181811067ffffffffffffffff82111715612beb57612bea612b94565b5b80604052505050565b6000612bfe6128de565b9050612c0a8282612bc3565b919050565b600067ffffffffffffffff821115612c2a57612c29612b94565b5b612c33826129f3565b9050602081019050919050565b82818337600083830152505050565b6000612c62612c5d84612c0f565b612bf4565b905082815260208101848484011115612c7e57612c7d612b8f565b5b612c89848285612c40565b509392505050565b600082601f830112612ca657612ca5612b8a565b5b8135612cb6848260208601612c4f565b91505092915050565b60008060008060808587031215612cd957612cd86128e8565b5b600085013567ffffffffffffffff811115612cf757612cf66128ed565b5b612d0387828801612c91565b945050602085013567ffffffffffffffff811115612d2457612d236128ed565b5b612d3087828801612c91565b935050604085013567ffffffffffffffff811115612d5157612d506128ed565b5b612d5d87828801612c91565b925050606085013567ffffffffffffffff811115612d7e57612d7d6128ed565b5b612d8a87828801612c91565b91505092959194509250565b600080600060608486031215612daf57612dae6128e8565b5b6000612dbd86828701612b35565b9350506020612dce86828701612b35565b9250506040612ddf86828701612a80565b9150509250925092565b612df281612a5f565b82525050565b612e0181612ae2565b82525050565b600082825260208201905092915050565b6000612e23826129ad565b612e2d8185612e07565b9350612e3d8185602086016129c9565b612e46816129f3565b840191505092915050565b600060a083016000830151612e696000860182612de9565b506020830151612e7c6020860182612de9565b506040830151612e8f6040860182612df8565b5060608301518482036060860152612ea78282612e18565b91505060808301518482036080860152612ec18282612e18565b9150508091505092915050565b60006040820190508181036000830152612ee88185612e51565b9050612ef76020830184612983565b9392505050565b600060208284031215612f1457612f136128e8565b5b6000612f2284828501612b35565b91505092915050565b612f3481612a5f565b82525050565b6000602082019050612f4f6000830184612f2b565b92915050565b600060a083016000830151612f6d6000860182612de9565b5060208301518482036020860152612f858282612e18565b91505060408301518482036040860152612f9f8282612e18565b91505060608301518482036060860152612fb98282612e18565b91505060808301518482036080860152612fd38282612e18565b9150508091505092915050565b60006020820190508181036000830152612ffa8184612f55565b905092915050565b61300b81612977565b811461301657600080fd5b50565b60008135905061302881613002565b92915050565b60008060408385031215613045576130446128e8565b5b600061305385828601612b35565b925050602061306485828601613019565b9150509250929050565b60008060008060808587031215613088576130876128e8565b5b600085013567ffffffffffffffff8111156130a6576130a56128ed565b5b6130b287828801612c91565b94505060206130c387828801612a80565b935050604085013567ffffffffffffffff8111156130e4576130e36128ed565b5b6130f087828801612c91565b925050606085013567ffffffffffffffff811115613111576131106128ed565b5b61311d87828801612c91565b91505092959194509250565b600081519050919050565b600082825260208201905092915050565b6000819050602082019050919050565b600060a08301600083015161316d6000860182612de9565b50602083015184820360208601526131858282612e18565b9150506040830151848203604086015261319f8282612e18565b915050606083015184820360608601526131b98282612e18565b915050608083015184820360808601526131d38282612e18565b9150508091505092915050565b60006131ec8383613155565b905092915050565b6000602082019050919050565b600061320c82613129565b6132168185613134565b93508360208202850161322885613145565b8060005b85811015613264578484038952815161324585826131e0565b9450613250836131f4565b925060208a0199505060018101905061322c565b50829750879550505050505092915050565b600060208201905081810360008301526132908184613201565b905092915050565b600060a0820190506132ad6000830188612f2b565b81810360208301526132bf8187612a04565b905081810360408301526132d38186612a04565b905081810360608301526132e78185612a04565b905081810360808301526132fb8184612a04565b90509695505050505050565b600067ffffffffffffffff82111561332257613321612b94565b5b61332b826129f3565b9050602081019050919050565b600061334b61334684613307565b612bf4565b90508281526020810184848401111561336757613366612b8f565b5b613372848285612c40565b509392505050565b600082601f83011261338f5761338e612b8a565b5b813561339f848260208601613338565b91505092915050565b600080600080608085870312156133c2576133c16128e8565b5b60006133d087828801612b35565b94505060206133e187828801612b35565b93505060406133f287828801612a80565b925050606085013567ffffffffffffffff811115613413576134126128ed565b5b61341f8782880161337a565b91505092959194509250565b60008060408385031215613442576134416128e8565b5b600061345085828601612b35565b925050602061346185828601612b35565b9150509250929050565b7f4e487b7100000000000000000000000000000000000000000000000000000000600052602260045260246000fd5b600060028204905060018216806134b257607f821691505b6020821081036134c5576134c461346b565b5b50919050565b7f4552433732313a20617070726f76616c20746f2063757272656e74206f776e6560008201527f7200000000000000000000000000000000000000000000000000000000000000602082015250565b60006135276021836129b8565b9150613532826134cb565b604082019050919050565b600060208201905081810360008301526135568161351a565b9050919050565b7f4552433732313a20617070726f76652063616c6c6572206973206e6f7420746f60008201527f6b656e206f776e6572206f7220617070726f76656420666f7220616c6c000000602082015250565b60006135b9603d836129b8565b91506135c48261355d565b604082019050919050565b600060208201905081810360008301526135e8816135ac565b9050919050565b60008190508160005260206000209050919050565b60006020601f8301049050919050565b600082821b905092915050565b6000600883026136517fffffffffffffffffffffffffffffffffffffffffffffffffffffffffffffffff82613614565b61365b8683613614565b95508019841693508086168417925050509392505050565b6000819050919050565b600061369861369361368e84612a5f565b613673565b612a5f565b9050919050565b6000819050919050565b6136b28361367d565b6136c66136be8261369f565b848454613621565b825550505050565b600090565b6136db6136ce565b6136e68184846136a9565b505050565b5b8181101561370a576136ff6000826136d3565b6001810190506136ec565b5050565b601f82111561374f57613720816135ef565b61372984613604565b81016020851015613738578190505b61374c61374485613604565b8301826136eb565b50505b505050565b600082821c905092915050565b600061377260001984600802613754565b1980831691505092915050565b600061378b8383613761565b9150826002028217905092915050565b6137a4826129ad565b67ffffffffffffffff8111156137bd576137bc612b94565b5b6137c7825461349a565b6137d282828561370e565b600060209050601f83116001811461380557600084156137f3578287015190505b6137fd858261377f565b865550613865565b601f198416613813866135ef565b60005b8281101561383b57848901518255600182019150602085019450602081019050613816565b868310156138585784890151613854601f891682613761565b8355505b6001600288020188555050505b505050505050565b7f4552433732313a2063616c6c6572206973206e6f7420746f6b656e206f776e6560008201527f72206f7220617070726f76656400000000000000000000000000000000000000602082015250565b60006138c9602d836129b8565b91506138d48261386d565b604082019050919050565b600060208201905081810360008301526138f8816138bc565b9050919050565b7f4e487b7100000000000000000000000000000000000000000000000000000000600052603260045260246000fd5b7f4e487b7100000000000000000000000000000000000000000000000000000000600052601160045260246000fd5b600061396882612a5f565b91507fffffffffffffffffffffffffffffffffffffffffffffffffffffffffffffffff820361399a5761399961392e565b5b600182019050919050565b7f4552433732313a20696e76616c696420746f6b656e2049440000000000000000600082015250565b60006139db6018836129b8565b91506139e6826139a5565b602082019050919050565b60006020820190508181036000830152613a0a816139ce565b9050919050565b7f4552433732313a2061646472657373207a65726f206973206e6f74206120766160008201527f6c6964206f776e65720000000000000000000000000000000000000000000000602082015250565b6000613a6d6029836129b8565b9150613a7882613a11565b604082019050919050565b60006020820190508181036000830152613a9c81613a60565b9050919050565b6000613aae82612a5f565b9150613ab983612a5f565b9250828201905080821115613ad157613ad061392e565b5b92915050565b600081905092915050565b6000613aed826129ad565b613af78185613ad7565b9350613b078185602086016129c9565b80840191505092915050565b6000613b1f8285613ae2565b9150613b2b8284613ae2565b91508190509392505050565b7f4552433732313a207472616e736665722066726f6d20696e636f72726563742060008201527f6f776e6572000000000000000000000000000000000000000000000000000000602082015250565b6000613b936025836129b8565b9150613b9e82613b37565b604082019050919050565b60006020820190508181036000830152613bc281613b86565b9050919050565b7f4552433732313a207472616e7366657220746f20746865207a65726f2061646460008201527f7265737300000000000000000000000000000000000000000000000000000000602082015250565b6000613c256024836129b8565b9150613c3082613bc9565b604082019050919050565b60006020820190508181036000830152613c5481613c18565b9050919050565b7f4552433732313a20617070726f766520746f2063616c6c657200000000000000600082015250565b6000613c916019836129b8565b9150613c9c82613c5b565b602082019050919050565b60006020820190508181036000830152613cc081613c84565b9050919050565b7f4552433732313a206d696e7420746f20746865207a65726f2061646472657373600082015250565b6000613cfd6020836129b8565b9150613d0882613cc7565b602082019050919050565b60006020820190508181036000830152613d2c81613cf0565b9050919050565b7f4552433732313a20746f6b656e20616c7265616479206d696e74656400000000600082015250565b6000613d69601c836129b8565b9150613d7482613d33565b602082019050919050565b60006020820190508181036000830152613d9881613d5c565b9050919050565b7f45524337323155524953746f726167653a2055524920736574206f66206e6f6e60008201527f6578697374656e7420746f6b656e000000000000000000000000000000000000602082015250565b6000613dfb602e836129b8565b9150613e0682613d9f565b604082019050919050565b60006020820190508181036000830152613e2a81613dee565b9050919050565b7f4552433732313a207472616e7366657220746f206e6f6e20455243373231526560008201527f63656976657220696d706c656d656e7465720000000000000000000000000000602082015250565b6000613e8d6032836129b8565b9150613e9882613e31565b604082019050919050565b60006020820190508181036000830152613ebc81613e80565b9050919050565b600081519050919050565b600082825260208201905092915050565b6000613eea82613ec3565b613ef48185613ece565b9350613f048185602086016129c9565b613f0d816129f3565b840191505092915050565b6000608082019050613f2d6000830187612af4565b613f3a6020830186612af4565b613f476040830185612f2b565b8181036060830152613f598184613edf565b905095945050505050565b600081519050613f738161291e565b92915050565b600060208284031215613f8f57613f8e6128e8565b5b6000613f9d84828501613f64565b91505092915050565b7f4e487b7100000000000000000000000000000000000000000000000000000000600052601260045260246000fdfea26469706673582212208304569c71d35a4b5611f703c12b0d7bfcdf61c816d71ef37e69baebd7c419a364736f6c63430008110033",
  "devdoc": {
    "kind": "dev",
    "methods": {
      "approve(address,uint256)": {
        "details": "See {IERC721-approve}."
      },
      "balanceOf(address)": {
        "details": "See {IERC721-balanceOf}."
      },
      "getApproved(uint256)": {
        "details": "See {IERC721-getApproved}."
      },
      "isApprovedForAll(address,address)": {
        "details": "See {IERC721-isApprovedForAll}."
      },
      "name()": {
        "details": "See {IERC721Metadata-name}."
      },
      "ownerOf(uint256)": {
        "details": "See {IERC721-ownerOf}."
      },
      "safeTransferFrom(address,address,uint256)": {
        "details": "See {IERC721-safeTransferFrom}."
      },
      "safeTransferFrom(address,address,uint256,bytes)": {
        "details": "See {IERC721-safeTransferFrom}."
      },
      "setApprovalForAll(address,bool)": {
        "details": "See {IERC721-setApprovalForAll}."
      },
      "supportsInterface(bytes4)": {
        "details": "See {IERC165-supportsInterface}."
      },
      "symbol()": {
        "details": "See {IERC721Metadata-symbol}."
      },
      "tokenURI(uint256)": {
        "details": "See {IERC721Metadata-tokenURI}."
      },
      "transferFrom(address,address,uint256)": {
        "details": "See {IERC721-transferFrom}."
      }
    },
    "version": 1
  },
  "userdoc": {
    "kind": "user",
    "methods": {},
    "version": 1
  },
  "storageLayout": {
    "storage": [
      {
        "astId": 79,
        "contract": "contracts/SBT.sol:STCDao",
        "label": "_name",
        "offset": 0,
        "slot": "0",
        "type": "t_string_storage"
      },
      {
        "astId": 81,
        "contract": "contracts/SBT.sol:STCDao",
        "label": "_symbol",
        "offset": 0,
        "slot": "1",
        "type": "t_string_storage"
      },
      {
        "astId": 85,
        "contract": "contracts/SBT.sol:STCDao",
        "label": "_owners",
        "offset": 0,
        "slot": "2",
        "type": "t_mapping(t_uint256,t_address)"
      },
      {
        "astId": 89,
        "contract": "contracts/SBT.sol:STCDao",
        "label": "_balances",
        "offset": 0,
        "slot": "3",
        "type": "t_mapping(t_address,t_uint256)"
      },
      {
        "astId": 93,
        "contract": "contracts/SBT.sol:STCDao",
        "label": "_tokenApprovals",
        "offset": 0,
        "slot": "4",
        "type": "t_mapping(t_uint256,t_address)"
      },
      {
        "astId": 99,
        "contract": "contracts/SBT.sol:STCDao",
        "label": "_operatorApprovals",
        "offset": 0,
        "slot": "5",
        "type": "t_mapping(t_address,t_mapping(t_address,t_bool))"
      },
      {
        "astId": 1127,
        "contract": "contracts/SBT.sol:STCDao",
        "label": "_tokenURIs",
        "offset": 0,
        "slot": "6",
        "type": "t_mapping(t_uint256,t_string_storage)"
      },
      {
        "astId": 2784,
        "contract": "contracts/SBT.sol:STCDao",
        "label": "_daoIdCounter",
        "offset": 0,
        "slot": "7",
        "type": "t_struct(Counter)1624_storage"
      },
      {
        "astId": 2787,
        "contract": "contracts/SBT.sol:STCDao",
        "label": "_tokenIdCounter",
        "offset": 0,
        "slot": "8",
        "type": "t_struct(Counter)1624_storage"
      },
      {
        "astId": 2813,
        "contract": "contracts/SBT.sol:STCDao",
        "label": "daoArr",
        "offset": 0,
        "slot": "9",
        "type": "t_array(t_struct(Dao)2809_storage)dyn_storage"
      },
      {
        "astId": 2818,
        "contract": "contracts/SBT.sol:STCDao",
        "label": "idToDao",
        "offset": 0,
        "slot": "10",
        "type": "t_mapping(t_uint256,t_struct(Dao)2809_storage)"
      },
      {
        "astId": 2823,
        "contract": "contracts/SBT.sol:STCDao",
        "label": "idToUserSoul",
        "offset": 0,
        "slot": "11",
        "type": "t_mapping(t_uint256,t_struct(Soul)2798_storage)"
      },
      {
        "astId": 2828,
        "contract": "contracts/SBT.sol:STCDao",
        "label": "userSoulIds",
        "offset": 0,
        "slot": "12",
        "type": "t_mapping(t_address,t_array(t_uint256)dyn_storage)"
      },
      {
        "astId": 2832,
        "contract": "contracts/SBT.sol:STCDao",
        "label": "userSoulCount",
        "offset": 0,
        "slot": "13",
        "type": "t_mapping(t_address,t_uint256)"
      }
    ],
    "types": {
      "t_address": {
        "encoding": "inplace",
        "label": "address",
        "numberOfBytes": "20"
      },
      "t_array(t_struct(Dao)2809_storage)dyn_storage": {
        "base": "t_struct(Dao)2809_storage",
        "encoding": "dynamic_array",
        "label": "struct STCDao.Dao[]",
        "numberOfBytes": "32"
      },
      "t_array(t_uint256)dyn_storage": {
        "base": "t_uint256",
        "encoding": "dynamic_array",
        "label": "uint256[]",
        "numberOfBytes": "32"
      },
      "t_bool": {
        "encoding": "inplace",
        "label": "bool",
        "numberOfBytes": "1"
      },
      "t_mapping(t_address,t_array(t_uint256)dyn_storage)": {
        "encoding": "mapping",
        "key": "t_address",
        "label": "mapping(address => uint256[])",
        "numberOfBytes": "32",
        "value": "t_array(t_uint256)dyn_storage"
      },
      "t_mapping(t_address,t_bool)": {
        "encoding": "mapping",
        "key": "t_address",
        "label": "mapping(address => bool)",
        "numberOfBytes": "32",
        "value": "t_bool"
      },
      "t_mapping(t_address,t_mapping(t_address,t_bool))": {
        "encoding": "mapping",
        "key": "t_address",
        "label": "mapping(address => mapping(address => bool))",
        "numberOfBytes": "32",
        "value": "t_mapping(t_address,t_bool)"
      },
      "t_mapping(t_address,t_uint256)": {
        "encoding": "mapping",
        "key": "t_address",
        "label": "mapping(address => uint256)",
        "numberOfBytes": "32",
        "value": "t_uint256"
      },
      "t_mapping(t_uint256,t_address)": {
        "encoding": "mapping",
        "key": "t_uint256",
        "label": "mapping(uint256 => address)",
        "numberOfBytes": "32",
        "value": "t_address"
      },
      "t_mapping(t_uint256,t_string_storage)": {
        "encoding": "mapping",
        "key": "t_uint256",
        "label": "mapping(uint256 => string)",
        "numberOfBytes": "32",
        "value": "t_string_storage"
      },
      "t_mapping(t_uint256,t_struct(Dao)2809_storage)": {
        "encoding": "mapping",
        "key": "t_uint256",
        "label": "mapping(uint256 => struct STCDao.Dao)",
        "numberOfBytes": "32",
        "value": "t_struct(Dao)2809_storage"
      },
      "t_mapping(t_uint256,t_struct(Soul)2798_storage)": {
        "encoding": "mapping",
        "key": "t_uint256",
        "label": "mapping(uint256 => struct STCDao.Soul)",
        "numberOfBytes": "32",
        "value": "t_struct(Soul)2798_storage"
      },
      "t_string_storage": {
        "encoding": "bytes",
        "label": "string",
        "numberOfBytes": "32"
      },
      "t_struct(Counter)1624_storage": {
        "encoding": "inplace",
        "label": "struct Counters.Counter",
        "members": [
          {
            "astId": 1623,
            "contract": "contracts/SBT.sol:STCDao",
            "label": "_value",
            "offset": 0,
            "slot": "0",
            "type": "t_uint256"
          }
        ],
        "numberOfBytes": "32"
      },
      "t_struct(Dao)2809_storage": {
        "encoding": "inplace",
        "label": "struct STCDao.Dao",
        "members": [
          {
            "astId": 2800,
            "contract": "contracts/SBT.sol:STCDao",
            "label": "daoId",
            "offset": 0,
            "slot": "0",
            "type": "t_uint256"
          },
          {
            "astId": 2802,
            "contract": "contracts/SBT.sol:STCDao",
            "label": "name",
            "offset": 0,
            "slot": "1",
            "type": "t_string_storage"
          },
          {
            "astId": 2804,
            "contract": "contracts/SBT.sol:STCDao",
            "label": "description",
            "offset": 0,
            "slot": "2",
            "type": "t_string_storage"
          },
          {
            "astId": 2806,
            "contract": "contracts/SBT.sol:STCDao",
            "label": "jsoninfo",
            "offset": 0,
            "slot": "3",
            "type": "t_string_storage"
          },
          {
            "astId": 2808,
            "contract": "contracts/SBT.sol:STCDao",
            "label": "image",
            "offset": 0,
            "slot": "4",
            "type": "t_string_storage"
          }
        ],
        "numberOfBytes": "160"
      },
      "t_struct(Soul)2798_storage": {
        "encoding": "inplace",
        "label": "struct STCDao.Soul",
        "members": [
          {
            "astId": 2789,
            "contract": "contracts/SBT.sol:STCDao",
            "label": "tokenId",
            "offset": 0,
            "slot": "0",
            "type": "t_uint256"
          },
          {
            "astId": 2791,
            "contract": "contracts/SBT.sol:STCDao",
            "label": "daoId",
            "offset": 0,
            "slot": "1",
            "type": "t_uint256"
          },
          {
            "astId": 2793,
            "contract": "contracts/SBT.sol:STCDao",
            "label": "user",
            "offset": 0,
            "slot": "2",
            "type": "t_address"
          },
          {
            "astId": 2795,
            "contract": "contracts/SBT.sol:STCDao",
            "label": "metadata",
            "offset": 0,
            "slot": "3",
            "type": "t_string_storage"
          },
          {
            "astId": 2797,
            "contract": "contracts/SBT.sol:STCDao",
            "label": "image",
            "offset": 0,
            "slot": "4",
            "type": "t_string_storage"
          }
        ],
        "numberOfBytes": "160"
      },
      "t_uint256": {
        "encoding": "inplace",
        "label": "uint256",
        "numberOfBytes": "32"
      }
    }
  }
}