{
  "address": "0xFCb26a5cDf64fd7F45C4fDFCE090D90aE27EC2Ca",
  "abi": [
    {
      "inputs": [],
      "stateMutability": "nonpayable",
      "type": "constructor"
    },
    {
      "anonymous": false,
      "inputs": [
        {
          "indexed": true,
          "internalType": "address",
          "name": "owner",
          "type": "address"
        },
        {
          "indexed": true,
          "internalType": "address",
          "name": "approved",
          "type": "address"
        },
        {
          "indexed": true,
          "internalType": "uint256",
          "name": "tokenId",
          "type": "uint256"
        }
      ],
      "name": "Approval",
      "type": "event"
    },
    {
      "anonymous": false,
      "inputs": [
        {
          "indexed": true,
          "internalType": "address",
          "name": "owner",
          "type": "address"
        },
        {
          "indexed": true,
          "internalType": "address",
          "name": "operator",
          "type": "address"
        },
        {
          "indexed": false,
          "internalType": "bool",
          "name": "approved",
          "type": "bool"
        }
      ],
      "name": "ApprovalForAll",
      "type": "event"
    },
    {
      "anonymous": false,
      "inputs": [
        {
          "indexed": false,
          "internalType": "address",
          "name": "_soul",
          "type": "address"
        }
      ],
      "name": "Burn",
      "type": "event"
    },
    {
      "anonymous": false,
      "inputs": [
        {
          "indexed": false,
          "internalType": "address",
          "name": "_soul",
          "type": "address"
        }
      ],
      "name": "Mint",
      "type": "event"
    },
    {
      "anonymous": false,
      "inputs": [
        {
          "indexed": false,
          "internalType": "address",
          "name": "_profiler",
          "type": "address"
        },
        {
          "indexed": false,
          "internalType": "address",
          "name": "_soul",
          "type": "address"
        }
      ],
      "name": "RemoveProfile",
      "type": "event"
    },
    {
      "anonymous": false,
      "inputs": [
        {
          "indexed": false,
          "internalType": "address",
          "name": "_profiler",
          "type": "address"
        },
        {
          "indexed": false,
          "internalType": "address",
          "name": "_soul",
          "type": "address"
        }
      ],
      "name": "SetProfile",
      "type": "event"
    },
    {
      "anonymous": false,
      "inputs": [
        {
          "indexed": false,
          "internalType": "address",
          "name": "",
          "type": "address"
        },
        {
          "indexed": false,
          "internalType": "uint256",
          "name": "",
          "type": "uint256"
        }
      ],
      "name": "TokenMinted",
      "type": "event"
    },
    {
      "anonymous": false,
      "inputs": [
        {
          "indexed": false,
          "internalType": "address",
          "name": "",
          "type": "address"
        },
        {
          "indexed": false,
          "internalType": "address",
          "name": "",
          "type": "address"
        },
        {
          "indexed": false,
          "internalType": "uint256",
          "name": "",
          "type": "uint256"
        }
      ],
      "name": "TokenTransfered",
      "type": "event"
    },
    {
      "anonymous": false,
      "inputs": [
        {
          "indexed": true,
          "internalType": "address",
          "name": "from",
          "type": "address"
        },
        {
          "indexed": true,
          "internalType": "address",
          "name": "to",
          "type": "address"
        },
        {
          "indexed": true,
          "internalType": "uint256",
          "name": "tokenId",
          "type": "uint256"
        }
      ],
      "name": "Transfer",
      "type": "event"
    },
    {
      "anonymous": false,
      "inputs": [
        {
          "indexed": false,
          "internalType": "address",
          "name": "_soul",
          "type": "address"
        }
      ],
      "name": "Update",
      "type": "event"
    },
    {
      "inputs": [
        {
          "internalType": "address",
          "name": "to",
          "type": "address"
        },
        {
          "internalType": "uint256",
          "name": "tokenId",
          "type": "uint256"
        }
      ],
      "name": "approve",
      "outputs": [],
      "stateMutability": "nonpayable",
      "type": "function"
    },
    {
      "inputs": [
        {
          "internalType": "address",
          "name": "owner",
          "type": "address"
        }
      ],
      "name": "balanceOf",
      "outputs": [
        {
          "internalType": "uint256",
          "name": "",
          "type": "uint256"
        }
      ],
      "stateMutability": "view",
      "type": "function"
    },
    {
      "inputs": [
        {
          "internalType": "string[]",
          "name": "tokenUris",
          "type": "string[]"
        }
      ],
      "name": "bulkMintERC721",
      "outputs": [],
      "stateMutability": "nonpayable",
      "type": "function"
    },
    {
      "inputs": [
        {
          "internalType": "string",
          "name": "name",
          "type": "string"
        },
        {
          "internalType": "string",
          "name": "description",
          "type": "string"
        },
        {
          "internalType": "string",
          "name": "jsoninfo",
          "type": "string"
        }
      ],
      "name": "createDao",
      "outputs": [],
      "stateMutability": "nonpayable",
      "type": "function"
    },
    {
      "inputs": [
        {
          "internalType": "uint256",
          "name": "tokenId",
          "type": "uint256"
        }
      ],
      "name": "getApproved",
      "outputs": [
        {
          "internalType": "address",
          "name": "",
          "type": "address"
        }
      ],
      "stateMutability": "view",
      "type": "function"
    },
    {
      "inputs": [],
      "name": "getDao",
      "outputs": [
        {
          "components": [
            {
              "internalType": "string",
              "name": "name",
              "type": "string"
            },
            {
              "internalType": "string",
              "name": "description",
              "type": "string"
            },
            {
              "internalType": "string",
              "name": "jsoninfo",
              "type": "string"
            }
          ],
          "internalType": "struct STCDao.Dao[]",
          "name": "",
          "type": "tuple[]"
        }
      ],
      "stateMutability": "view",
      "type": "function"
    },
    {
      "inputs": [
        {
          "internalType": "uint256",
          "name": "eventId",
          "type": "uint256"
        }
      ],
      "name": "getTokenIds",
      "outputs": [
        {
          "internalType": "uint256[]",
          "name": "",
          "type": "uint256[]"
        }
      ],
      "stateMutability": "view",
      "type": "function"
    },
    {
      "inputs": [
        {
          "internalType": "address",
          "name": "owner",
          "type": "address"
        },
        {
          "internalType": "address",
          "name": "operator",
          "type": "address"
        }
      ],
      "name": "isApprovedForAll",
      "outputs": [
        {
          "internalType": "bool",
          "name": "",
          "type": "bool"
        }
      ],
      "stateMutability": "view",
      "type": "function"
    },
    {
      "inputs": [],
      "name": "name",
      "outputs": [
        {
          "internalType": "string",
          "name": "",
          "type": "string"
        }
      ],
      "stateMutability": "view",
      "type": "function"
    },
    {
      "inputs": [],
      "name": "operator",
      "outputs": [
        {
          "internalType": "address",
          "name": "",
          "type": "address"
        }
      ],
      "stateMutability": "view",
      "type": "function"
    },
    {
      "inputs": [
        {
          "internalType": "uint256",
          "name": "tokenId",
          "type": "uint256"
        }
      ],
      "name": "ownerOf",
      "outputs": [
        {
          "internalType": "address",
          "name": "",
          "type": "address"
        }
      ],
      "stateMutability": "view",
      "type": "function"
    },
    {
      "inputs": [
        {
          "internalType": "string",
          "name": "tokenURI",
          "type": "string"
        }
      ],
      "name": "safeMint",
      "outputs": [
        {
          "internalType": "uint256",
          "name": "",
          "type": "uint256"
        }
      ],
      "stateMutability": "nonpayable",
      "type": "function"
    },
    {
      "inputs": [
        {
          "internalType": "address",
          "name": "from",
          "type": "address"
        },
        {
          "internalType": "address",
          "name": "to",
          "type": "address"
        },
        {
          "internalType": "uint256",
          "name": "tokenId",
          "type": "uint256"
        }
      ],
      "name": "safeTransferFrom",
      "outputs": [],
      "stateMutability": "nonpayable",
      "type": "function"
    },
    {
      "inputs": [
        {
          "internalType": "address",
          "name": "from",
          "type": "address"
        },
        {
          "internalType": "address",
          "name": "to",
          "type": "address"
        },
        {
          "internalType": "uint256",
          "name": "tokenId",
          "type": "uint256"
        },
        {
          "internalType": "bytes",
          "name": "data",
          "type": "bytes"
        }
      ],
      "name": "safeTransferFrom",
      "outputs": [],
      "stateMutability": "nonpayable",
      "type": "function"
    },
    {
      "inputs": [
        {
          "internalType": "address",
          "name": "operator",
          "type": "address"
        },
        {
          "internalType": "bool",
          "name": "approved",
          "type": "bool"
        }
      ],
      "name": "setApprovalForAll",
      "outputs": [],
      "stateMutability": "nonpayable",
      "type": "function"
    },
    {
      "inputs": [
        {
          "internalType": "bytes4",
          "name": "interfaceId",
          "type": "bytes4"
        }
      ],
      "name": "supportsInterface",
      "outputs": [
        {
          "internalType": "bool",
          "name": "",
          "type": "bool"
        }
      ],
      "stateMutability": "view",
      "type": "function"
    },
    {
      "inputs": [],
      "name": "symbol",
      "outputs": [
        {
          "internalType": "string",
          "name": "",
          "type": "string"
        }
      ],
      "stateMutability": "view",
      "type": "function"
    },
    {
      "inputs": [
        {
          "internalType": "uint256",
          "name": "",
          "type": "uint256"
        },
        {
          "internalType": "uint256",
          "name": "",
          "type": "uint256"
        }
      ],
      "name": "tokenIds",
      "outputs": [
        {
          "internalType": "uint256",
          "name": "",
          "type": "uint256"
        }
      ],
      "stateMutability": "view",
      "type": "function"
    },
    {
      "inputs": [
        {
          "internalType": "uint256",
          "name": "tokenId",
          "type": "uint256"
        }
      ],
      "name": "tokenURI",
      "outputs": [
        {
          "internalType": "string",
          "name": "",
          "type": "string"
        }
      ],
      "stateMutability": "view",
      "type": "function"
    },
    {
      "inputs": [
        {
          "internalType": "address",
          "name": "from",
          "type": "address"
        },
        {
          "internalType": "address",
          "name": "to",
          "type": "address"
        },
        {
          "internalType": "uint256",
          "name": "tokenId",
          "type": "uint256"
        }
      ],
      "name": "transferFrom",
      "outputs": [],
      "stateMutability": "nonpayable",
      "type": "function"
    },
    {
      "inputs": [
        {
          "internalType": "address",
          "name": "to",
          "type": "address"
        },
        {
          "internalType": "uint256",
          "name": "tokenId",
          "type": "uint256"
        }
      ],
      "name": "transferToken",
      "outputs": [],
      "stateMutability": "nonpayable",
      "type": "function"
    }
  ],
  "transactionHash": "0x66e7ee8562b050de9994ed1a9eb3651ac39ab807bdfa82a487507b72c41a12b3",
  "args": [],
  "numDeployments": 3,
  "solcInputHash": "03189fa5e0257f501f160871f5e61728",
  "bytecode": "0x60806040527fc5d2460186f7233c927e7db2dcc703c0e500b653ca82273b7bfad8045d85a47060001b600c553480156200003857600080fd5b506040518060400160405280600a81526020017f54727573746966696564000000000000000000000000000000000000000000008152506040518060400160405280600381526020017f54464e00000000000000000000000000000000000000000000000000000000008152508160009081620000b691906200038c565b508060019081620000c891906200038c565b50505033600b60006101000a81548173ffffffffffffffffffffffffffffffffffffffff021916908373ffffffffffffffffffffffffffffffffffffffff16021790555062000473565b600081519050919050565b7f4e487b7100000000000000000000000000000000000000000000000000000000600052604160045260246000fd5b7f4e487b7100000000000000000000000000000000000000000000000000000000600052602260045260246000fd5b600060028204905060018216806200019457607f821691505b602082108103620001aa57620001a96200014c565b5b50919050565b60008190508160005260206000209050919050565b60006020601f8301049050919050565b600082821b905092915050565b600060088302620002147fffffffffffffffffffffffffffffffffffffffffffffffffffffffffffffffff82620001d5565b620002208683620001d5565b95508019841693508086168417925050509392505050565b6000819050919050565b6000819050919050565b60006200026d62000267620002618462000238565b62000242565b62000238565b9050919050565b6000819050919050565b62000289836200024c565b620002a1620002988262000274565b848454620001e2565b825550505050565b600090565b620002b8620002a9565b620002c58184846200027e565b505050565b5b81811015620002ed57620002e1600082620002ae565b600181019050620002cb565b5050565b601f8211156200033c576200030681620001b0565b6200031184620001c5565b8101602085101562000321578190505b620003396200033085620001c5565b830182620002ca565b50505b505050565b600082821c905092915050565b6000620003616000198460080262000341565b1980831691505092915050565b60006200037c83836200034e565b9150826002028217905092915050565b620003978262000112565b67ffffffffffffffff811115620003b357620003b26200011d565b5b620003bf82546200017b565b620003cc828285620002f1565b600060209050601f831160018114620004045760008415620003ef578287015190505b620003fb85826200036e565b8655506200046b565b601f1984166200041486620001b0565b60005b828110156200043e5784890151825560018201915060208501945060208101905062000417565b868310156200045e57848901516200045a601f8916826200034e565b8355505b6001600288020188555050505b505050505050565b61366e80620004836000396000f3fe608060405234801561001057600080fd5b50600436106101375760003560e01c8063695850fb116100b8578063b6af1a861161007c578063b6af1a861461035e578063b70811bc1461037a578063b88d4fde14610398578063c87b56dd146103b4578063e985e9c5146103e4578063eed8cc351461041457610137565b8063695850fb146102a857806370a08231146102d857806389f1aa391461030857806395d89b4114610324578063a22cb4651461034257610137565b806323b872dd116100ff57806323b872dd146101f257806342842e0e1461020e578063570ca7351461022a57806357991d30146102485780636352211e1461027857610137565b806301ffc9a71461013c57806306fdde031461016c578063081812fc1461018a578063095ea7b3146101ba5780631072cbea146101d6575b600080fd5b61015660048036038101906101519190611f56565b610444565b6040516101639190611f9e565b60405180910390f35b610174610526565b6040516101819190612049565b60405180910390f35b6101a4600480360381019061019f91906120a1565b6105b8565b6040516101b1919061210f565b60405180910390f35b6101d460048036038101906101cf9190612156565b6105fe565b005b6101f060048036038101906101eb9190612156565b610715565b005b61020c60048036038101906102079190612196565b6107c3565b005b61022860048036038101906102239190612196565b61081c565b005b61023261083c565b60405161023f919061210f565b60405180910390f35b610262600480360381019061025d91906120a1565b610862565b60405161026f91906122a7565b60405180910390f35b610292600480360381019061028d91906120a1565b6108cd565b60405161029f919061210f565b60405180910390f35b6102c260048036038101906102bd91906123fe565b610953565b6040516102cf9190612456565b60405180910390f35b6102f260048036038101906102ed9190612471565b610989565b6040516102ff9190612456565b60405180910390f35b610322600480360381019061031d9190612584565b610a40565b005b61032c610b17565b6040516103399190612049565b60405180910390f35b61035c600480360381019061035791906125f9565b610ba9565b005b61037860048036038101906103739190612639565b610bbf565b005b610382610c4e565b60405161038f919061284a565b60405180910390f35b6103b260048036038101906103ad919061290d565b610e63565b005b6103ce60048036038101906103c991906120a1565b610ec5565b6040516103db9190612049565b60405180910390f35b6103fe60048036038101906103f99190612990565b610fd7565b60405161040b9190611f9e565b60405180910390f35b61042e600480360381019061042991906129d0565b61106b565b60405161043b9190612456565b60405180910390f35b60007f80ac58cd000000000000000000000000000000000000000000000000000000007bffffffffffffffffffffffffffffffffffffffffffffffffffffffff1916827bffffffffffffffffffffffffffffffffffffffffffffffffffffffff1916148061050f57507f5b5e139f000000000000000000000000000000000000000000000000000000007bffffffffffffffffffffffffffffffffffffffffffffffffffffffff1916827bffffffffffffffffffffffffffffffffffffffffffffffffffffffff1916145b8061051f575061051e8261109c565b5b9050919050565b60606000805461053590612a3f565b80601f016020809104026020016040519081016040528092919081815260200182805461056190612a3f565b80156105ae5780601f10610583576101008083540402835291602001916105ae565b820191906000526020600020905b81548152906001019060200180831161059157829003601f168201915b5050505050905090565b60006105c382611106565b6004600083815260200190815260200160002060009054906101000a900473ffffffffffffffffffffffffffffffffffffffff169050919050565b6000610609826108cd565b90508073ffffffffffffffffffffffffffffffffffffffff168373ffffffffffffffffffffffffffffffffffffffff1603610679576040517f08c379a000000000000000000000000000000000000000000000000000000000815260040161067090612ae2565b60405180910390fd5b8073ffffffffffffffffffffffffffffffffffffffff16610698611151565b73ffffffffffffffffffffffffffffffffffffffff1614806106c757506106c6816106c1611151565b610fd7565b5b610706576040517f08c379a00000000000000000000000000000000000000000000000000000000081526004016106fd90612b74565b60405180910390fd5b6107108383611159565b505050565b3073ffffffffffffffffffffffffffffffffffffffff166323b872dd3084846040518463ffffffff1660e01b815260040161075293929190612b94565b600060405180830381600087803b15801561076c57600080fd5b505af1158015610780573d6000803e3d6000fd5b505050507fec61728879a33aa50b55e1f4789dcfc1c680f30a24d7b8694a9f874e242a97b43083836040516107b793929190612b94565b60405180910390a15050565b6107cd8382611212565b61080c576040517f08c379a000000000000000000000000000000000000000000000000000000000815260040161080390612c3d565b60405180910390fd5b6108178383836112a7565b505050565b61083783838360405180602001604052806000815250610e63565b505050565b600b60009054906101000a900473ffffffffffffffffffffffffffffffffffffffff1681565b6060600f60008381526020019081526020016000208054806020026020016040519081016040528092919081815260200182805480156108c157602002820191906000526020600020905b8154815260200190600101908083116108ad575b50505050509050919050565b6000806108d9836115a0565b9050600073ffffffffffffffffffffffffffffffffffffffff168173ffffffffffffffffffffffffffffffffffffffff160361094a576040517f08c379a000000000000000000000000000000000000000000000000000000000815260040161094190612ca9565b60405180910390fd5b80915050919050565b600080610960600d6115dd565b905061096c600d6115eb565b6109763082611601565b610980818461181e565b80915050919050565b60008073ffffffffffffffffffffffffffffffffffffffff168273ffffffffffffffffffffffffffffffffffffffff16036109f9576040517f08c379a00000000000000000000000000000000000000000000000000000000081526004016109f090612d3b565b60405180910390fd5b600360008373ffffffffffffffffffffffffffffffffffffffff1673ffffffffffffffffffffffffffffffffffffffff168152602001908152602001600020549050919050565b6000610a4c600e6115dd565b9050610a58600e6115eb565b60005b8251811015610ad9576000610a89848381518110610a7c57610a7b612d5b565b5b6020026020010151610953565b9050600f6000848152602001908152602001600020819080600181540180825580915050600190039060005260206000200160009091909190915055508080610ad190612db9565b915050610a5b565b507fb9144c96c86541f6fa89c9f2f02495cccf4b08cd6643e26d34ee00aa586558a83382604051610b0b929190612e01565b60405180910390a15050565b606060018054610b2690612a3f565b80601f0160208091040260200160405190810160405280929190818152602001828054610b5290612a3f565b8015610b9f5780601f10610b7457610100808354040283529160200191610b9f565b820191906000526020600020905b815481529060010190602001808311610b8257829003601f168201915b5050505050905090565b610bbb610bb4611151565b838361188b565b5050565b600760405180606001604052808581526020018481526020018381525090806001815401808255809150506001900390600052602060002090600302016000909190919091506000820151816000019081610c1a9190612fd6565b506020820151816001019081610c309190612fd6565b506040820151816002019081610c469190612fd6565b505050505050565b60606007805480602002602001604051908101604052809291908181526020016000905b82821015610e5a5783829060005260206000209060030201604051806060016040529081600082018054610ca590612a3f565b80601f0160208091040260200160405190810160405280929190818152602001828054610cd190612a3f565b8015610d1e5780601f10610cf357610100808354040283529160200191610d1e565b820191906000526020600020905b815481529060010190602001808311610d0157829003601f168201915b50505050508152602001600182018054610d3790612a3f565b80601f0160208091040260200160405190810160405280929190818152602001828054610d6390612a3f565b8015610db05780601f10610d8557610100808354040283529160200191610db0565b820191906000526020600020905b815481529060010190602001808311610d9357829003601f168201915b50505050508152602001600282018054610dc990612a3f565b80601f0160208091040260200160405190810160405280929190818152602001828054610df590612a3f565b8015610e425780601f10610e1757610100808354040283529160200191610e42565b820191906000526020600020905b815481529060010190602001808311610e2557829003601f168201915b50505050508152505081526020019060010190610c72565b50505050905090565b610e74610e6e611151565b83611212565b610eb3576040517f08c379a0000000000000000000000000000000000000000000000000000000008152600401610eaa9061311a565b60405180910390fd5b610ebf848484846119f7565b50505050565b6060610ed082611106565b6000600660008481526020019081526020016000208054610ef090612a3f565b80601f0160208091040260200160405190810160405280929190818152602001828054610f1c90612a3f565b8015610f695780601f10610f3e57610100808354040283529160200191610f69565b820191906000526020600020905b815481529060010190602001808311610f4c57829003601f168201915b505050505090506000610f7a611a53565b90506000815103610f8f578192505050610fd2565b600082511115610fc4578082604051602001610fac929190613176565b60405160208183030381529060405292505050610fd2565b610fcd84611a6a565b925050505b919050565b6000600560008473ffffffffffffffffffffffffffffffffffffffff1673ffffffffffffffffffffffffffffffffffffffff16815260200190815260200160002060008373ffffffffffffffffffffffffffffffffffffffff1673ffffffffffffffffffffffffffffffffffffffff16815260200190815260200160002060009054906101000a900460ff16905092915050565b600f602052816000526040600020818154811061108757600080fd5b90600052602060002001600091509150505481565b60007f01ffc9a7000000000000000000000000000000000000000000000000000000007bffffffffffffffffffffffffffffffffffffffffffffffffffffffff1916827bffffffffffffffffffffffffffffffffffffffffffffffffffffffff1916149050919050565b61110f81611ad2565b61114e576040517f08c379a000000000000000000000000000000000000000000000000000000000815260040161114590612ca9565b60405180910390fd5b50565b600033905090565b816004600083815260200190815260200160002060006101000a81548173ffffffffffffffffffffffffffffffffffffffff021916908373ffffffffffffffffffffffffffffffffffffffff160217905550808273ffffffffffffffffffffffffffffffffffffffff166111cc836108cd565b73ffffffffffffffffffffffffffffffffffffffff167f8c5be1e5ebec7d5bd14f71427d1e84f3dd0314c0f7b2291e5b200ac8c7c3b92560405160405180910390a45050565b60008061121e836108cd565b90508073ffffffffffffffffffffffffffffffffffffffff168473ffffffffffffffffffffffffffffffffffffffff161480611260575061125f8185610fd7565b5b8061129e57508373ffffffffffffffffffffffffffffffffffffffff16611286846105b8565b73ffffffffffffffffffffffffffffffffffffffff16145b91505092915050565b8273ffffffffffffffffffffffffffffffffffffffff166112c7826108cd565b73ffffffffffffffffffffffffffffffffffffffff161461131d576040517f08c379a00000000000000000000000000000000000000000000000000000000081526004016113149061320c565b60405180910390fd5b600073ffffffffffffffffffffffffffffffffffffffff168273ffffffffffffffffffffffffffffffffffffffff160361138c576040517f08c379a00000000000000000000000000000000000000000000000000000000081526004016113839061329e565b60405180910390fd5b6113998383836001611b13565b8273ffffffffffffffffffffffffffffffffffffffff166113b9826108cd565b73ffffffffffffffffffffffffffffffffffffffff161461140f576040517f08c379a00000000000000000000000000000000000000000000000000000000081526004016114069061320c565b60405180910390fd5b6004600082815260200190815260200160002060006101000a81549073ffffffffffffffffffffffffffffffffffffffff02191690556001600360008573ffffffffffffffffffffffffffffffffffffffff1673ffffffffffffffffffffffffffffffffffffffff168152602001908152602001600020600082825403925050819055506001600360008473ffffffffffffffffffffffffffffffffffffffff1673ffffffffffffffffffffffffffffffffffffffff16815260200190815260200160002060008282540192505081905550816002600083815260200190815260200160002060006101000a81548173ffffffffffffffffffffffffffffffffffffffff021916908373ffffffffffffffffffffffffffffffffffffffff160217905550808273ffffffffffffffffffffffffffffffffffffffff168473ffffffffffffffffffffffffffffffffffffffff167fddf252ad1be2c89b69c2b068fc378daa952ba7f163c4a11628f55a4df523b3ef60405160405180910390a461159b8383836001611b19565b505050565b60006002600083815260200190815260200160002060009054906101000a900473ffffffffffffffffffffffffffffffffffffffff169050919050565b600081600001549050919050565b6001816000016000828254019250508190555050565b600073ffffffffffffffffffffffffffffffffffffffff168273ffffffffffffffffffffffffffffffffffffffff1603611670576040517f08c379a00000000000000000000000000000000000000000000000000000000081526004016116679061330a565b60405180910390fd5b61167981611ad2565b156116b9576040517f08c379a00000000000000000000000000000000000000000000000000000000081526004016116b090613376565b60405180910390fd5b6116c7600083836001611b13565b6116d081611ad2565b15611710576040517f08c379a000000000000000000000000000000000000000000000000000000000815260040161170790613376565b60405180910390fd5b6001600360008473ffffffffffffffffffffffffffffffffffffffff1673ffffffffffffffffffffffffffffffffffffffff16815260200190815260200160002060008282540192505081905550816002600083815260200190815260200160002060006101000a81548173ffffffffffffffffffffffffffffffffffffffff021916908373ffffffffffffffffffffffffffffffffffffffff160217905550808273ffffffffffffffffffffffffffffffffffffffff16600073ffffffffffffffffffffffffffffffffffffffff167fddf252ad1be2c89b69c2b068fc378daa952ba7f163c4a11628f55a4df523b3ef60405160405180910390a461181a600083836001611b19565b5050565b61182782611ad2565b611866576040517f08c379a000000000000000000000000000000000000000000000000000000000815260040161185d90613408565b60405180910390fd5b806006600084815260200190815260200160002090816118869190612fd6565b505050565b8173ffffffffffffffffffffffffffffffffffffffff168373ffffffffffffffffffffffffffffffffffffffff16036118f9576040517f08c379a00000000000000000000000000000000000000000000000000000000081526004016118f090613474565b60405180910390fd5b80600560008573ffffffffffffffffffffffffffffffffffffffff1673ffffffffffffffffffffffffffffffffffffffff16815260200190815260200160002060008473ffffffffffffffffffffffffffffffffffffffff1673ffffffffffffffffffffffffffffffffffffffff16815260200190815260200160002060006101000a81548160ff0219169083151502179055508173ffffffffffffffffffffffffffffffffffffffff168373ffffffffffffffffffffffffffffffffffffffff167f17307eab39ab6107e8899845ad3d59bd9653f200f220920489ca2b5937696c31836040516119ea9190611f9e565b60405180910390a3505050565b611a028484846112a7565b611a0e84848484611b1f565b611a4d576040517f08c379a0000000000000000000000000000000000000000000000000000000008152600401611a4490613506565b60405180910390fd5b50505050565b606060405180602001604052806000815250905090565b6060611a7582611106565b6000611a7f611a53565b90506000815111611a9f5760405180602001604052806000815250611aca565b80611aa984611ca6565b604051602001611aba929190613176565b6040516020818303038152906040525b915050919050565b60008073ffffffffffffffffffffffffffffffffffffffff16611af4836115a0565b73ffffffffffffffffffffffffffffffffffffffff1614159050919050565b50505050565b50505050565b6000611b408473ffffffffffffffffffffffffffffffffffffffff16611d74565b15611c99578373ffffffffffffffffffffffffffffffffffffffff1663150b7a02611b69611151565b8786866040518563ffffffff1660e01b8152600401611b8b949392919061357b565b6020604051808303816000875af1925050508015611bc757506040513d601f19601f82011682018060405250810190611bc491906135dc565b60015b611c49573d8060008114611bf7576040519150601f19603f3d011682016040523d82523d6000602084013e611bfc565b606091505b506000815103611c41576040517f08c379a0000000000000000000000000000000000000000000000000000000008152600401611c3890613506565b60405180910390fd5b805181602001fd5b63150b7a0260e01b7bffffffffffffffffffffffffffffffffffffffffffffffffffffffff1916817bffffffffffffffffffffffffffffffffffffffffffffffffffffffff191614915050611c9e565b600190505b949350505050565b606060006001611cb584611d97565b01905060008167ffffffffffffffff811115611cd457611cd36122d3565b5b6040519080825280601f01601f191660200182016040528015611d065781602001600182028036833780820191505090505b509050600082602001820190505b600115611d69578080600190039150507f3031323334353637383961626364656600000000000000000000000000000000600a86061a8153600a8581611d5d57611d5c613609565b5b04945060008503611d14575b819350505050919050565b6000808273ffffffffffffffffffffffffffffffffffffffff163b119050919050565b600080600090507a184f03e93ff9f4daa797ed6e38ed64bf6a1f0100000000000000008310611df5577a184f03e93ff9f4daa797ed6e38ed64bf6a1f0100000000000000008381611deb57611dea613609565b5b0492506040810190505b6d04ee2d6d415b85acef81000000008310611e32576d04ee2d6d415b85acef81000000008381611e2857611e27613609565b5b0492506020810190505b662386f26fc100008310611e6157662386f26fc100008381611e5757611e56613609565b5b0492506010810190505b6305f5e1008310611e8a576305f5e1008381611e8057611e7f613609565b5b0492506008810190505b6127108310611eaf576127108381611ea557611ea4613609565b5b0492506004810190505b60648310611ed25760648381611ec857611ec7613609565b5b0492506002810190505b600a8310611ee1576001810190505b80915050919050565b6000604051905090565b600080fd5b600080fd5b60007fffffffff0000000000000000000000000000000000000000000000000000000082169050919050565b611f3381611efe565b8114611f3e57600080fd5b50565b600081359050611f5081611f2a565b92915050565b600060208284031215611f6c57611f6b611ef4565b5b6000611f7a84828501611f41565b91505092915050565b60008115159050919050565b611f9881611f83565b82525050565b6000602082019050611fb36000830184611f8f565b92915050565b600081519050919050565b600082825260208201905092915050565b60005b83811015611ff3578082015181840152602081019050611fd8565b60008484015250505050565b6000601f19601f8301169050919050565b600061201b82611fb9565b6120258185611fc4565b9350612035818560208601611fd5565b61203e81611fff565b840191505092915050565b600060208201905081810360008301526120638184612010565b905092915050565b6000819050919050565b61207e8161206b565b811461208957600080fd5b50565b60008135905061209b81612075565b92915050565b6000602082840312156120b7576120b6611ef4565b5b60006120c58482850161208c565b91505092915050565b600073ffffffffffffffffffffffffffffffffffffffff82169050919050565b60006120f9826120ce565b9050919050565b612109816120ee565b82525050565b60006020820190506121246000830184612100565b92915050565b612133816120ee565b811461213e57600080fd5b50565b6000813590506121508161212a565b92915050565b6000806040838503121561216d5761216c611ef4565b5b600061217b85828601612141565b925050602061218c8582860161208c565b9150509250929050565b6000806000606084860312156121af576121ae611ef4565b5b60006121bd86828701612141565b93505060206121ce86828701612141565b92505060406121df8682870161208c565b9150509250925092565b600081519050919050565b600082825260208201905092915050565b6000819050602082019050919050565b61221e8161206b565b82525050565b60006122308383612215565b60208301905092915050565b6000602082019050919050565b6000612254826121e9565b61225e81856121f4565b935061226983612205565b8060005b8381101561229a5781516122818882612224565b975061228c8361223c565b92505060018101905061226d565b5085935050505092915050565b600060208201905081810360008301526122c18184612249565b905092915050565b600080fd5b600080fd5b7f4e487b7100000000000000000000000000000000000000000000000000000000600052604160045260246000fd5b61230b82611fff565b810181811067ffffffffffffffff8211171561232a576123296122d3565b5b80604052505050565b600061233d611eea565b90506123498282612302565b919050565b600067ffffffffffffffff821115612369576123686122d3565b5b61237282611fff565b9050602081019050919050565b82818337600083830152505050565b60006123a161239c8461234e565b612333565b9050828152602081018484840111156123bd576123bc6122ce565b5b6123c884828561237f565b509392505050565b600082601f8301126123e5576123e46122c9565b5b81356123f584826020860161238e565b91505092915050565b60006020828403121561241457612413611ef4565b5b600082013567ffffffffffffffff81111561243257612431611ef9565b5b61243e848285016123d0565b91505092915050565b6124508161206b565b82525050565b600060208201905061246b6000830184612447565b92915050565b60006020828403121561248757612486611ef4565b5b600061249584828501612141565b91505092915050565b600067ffffffffffffffff8211156124b9576124b86122d3565b5b602082029050602081019050919050565b600080fd5b60006124e26124dd8461249e565b612333565b90508083825260208201905060208402830185811115612505576125046124ca565b5b835b8181101561254c57803567ffffffffffffffff81111561252a576125296122c9565b5b80860161253789826123d0565b85526020850194505050602081019050612507565b5050509392505050565b600082601f83011261256b5761256a6122c9565b5b813561257b8482602086016124cf565b91505092915050565b60006020828403121561259a57612599611ef4565b5b600082013567ffffffffffffffff8111156125b8576125b7611ef9565b5b6125c484828501612556565b91505092915050565b6125d681611f83565b81146125e157600080fd5b50565b6000813590506125f3816125cd565b92915050565b600080604083850312156126105761260f611ef4565b5b600061261e85828601612141565b925050602061262f858286016125e4565b9150509250929050565b60008060006060848603121561265257612651611ef4565b5b600084013567ffffffffffffffff8111156126705761266f611ef9565b5b61267c868287016123d0565b935050602084013567ffffffffffffffff81111561269d5761269c611ef9565b5b6126a9868287016123d0565b925050604084013567ffffffffffffffff8111156126ca576126c9611ef9565b5b6126d6868287016123d0565b9150509250925092565b600081519050919050565b600082825260208201905092915050565b6000819050602082019050919050565b600082825260208201905092915050565b600061272882611fb9565b612732818561270c565b9350612742818560208601611fd5565b61274b81611fff565b840191505092915050565b60006060830160008301518482036000860152612773828261271d565b9150506020830151848203602086015261278d828261271d565b915050604083015184820360408601526127a7828261271d565b9150508091505092915050565b60006127c08383612756565b905092915050565b6000602082019050919050565b60006127e0826126e0565b6127ea81856126eb565b9350836020820285016127fc856126fc565b8060005b85811015612838578484038952815161281985826127b4565b9450612824836127c8565b925060208a01995050600181019050612800565b50829750879550505050505092915050565b6000602082019050818103600083015261286481846127d5565b905092915050565b600067ffffffffffffffff821115612887576128866122d3565b5b61289082611fff565b9050602081019050919050565b60006128b06128ab8461286c565b612333565b9050828152602081018484840111156128cc576128cb6122ce565b5b6128d784828561237f565b509392505050565b600082601f8301126128f4576128f36122c9565b5b813561290484826020860161289d565b91505092915050565b6000806000806080858703121561292757612926611ef4565b5b600061293587828801612141565b945050602061294687828801612141565b93505060406129578782880161208c565b925050606085013567ffffffffffffffff81111561297857612977611ef9565b5b612984878288016128df565b91505092959194509250565b600080604083850312156129a7576129a6611ef4565b5b60006129b585828601612141565b92505060206129c685828601612141565b9150509250929050565b600080604083850312156129e7576129e6611ef4565b5b60006129f58582860161208c565b9250506020612a068582860161208c565b9150509250929050565b7f4e487b7100000000000000000000000000000000000000000000000000000000600052602260045260246000fd5b60006002820490506001821680612a5757607f821691505b602082108103612a6a57612a69612a10565b5b50919050565b7f4552433732313a20617070726f76616c20746f2063757272656e74206f776e6560008201527f7200000000000000000000000000000000000000000000000000000000000000602082015250565b6000612acc602183611fc4565b9150612ad782612a70565b604082019050919050565b60006020820190508181036000830152612afb81612abf565b9050919050565b7f4552433732313a20617070726f76652063616c6c6572206973206e6f7420746f60008201527f6b656e206f776e6572206f7220617070726f76656420666f7220616c6c000000602082015250565b6000612b5e603d83611fc4565b9150612b6982612b02565b604082019050919050565b60006020820190508181036000830152612b8d81612b51565b9050919050565b6000606082019050612ba96000830186612100565b612bb66020830185612100565b612bc36040830184612447565b949350505050565b7f4552433732313a207472616e736665722063616c6c6572206973206e6f74206f60008201527f776e6572206e6f7220617070726f766564000000000000000000000000000000602082015250565b6000612c27603183611fc4565b9150612c3282612bcb565b604082019050919050565b60006020820190508181036000830152612c5681612c1a565b9050919050565b7f4552433732313a20696e76616c696420746f6b656e2049440000000000000000600082015250565b6000612c93601883611fc4565b9150612c9e82612c5d565b602082019050919050565b60006020820190508181036000830152612cc281612c86565b9050919050565b7f4552433732313a2061646472657373207a65726f206973206e6f74206120766160008201527f6c6964206f776e65720000000000000000000000000000000000000000000000602082015250565b6000612d25602983611fc4565b9150612d3082612cc9565b604082019050919050565b60006020820190508181036000830152612d5481612d18565b9050919050565b7f4e487b7100000000000000000000000000000000000000000000000000000000600052603260045260246000fd5b7f4e487b7100000000000000000000000000000000000000000000000000000000600052601160045260246000fd5b6000612dc48261206b565b91507fffffffffffffffffffffffffffffffffffffffffffffffffffffffffffffffff8203612df657612df5612d8a565b5b600182019050919050565b6000604082019050612e166000830185612100565b612e236020830184612447565b9392505050565b60008190508160005260206000209050919050565b60006020601f8301049050919050565b600082821b905092915050565b600060088302612e8c7fffffffffffffffffffffffffffffffffffffffffffffffffffffffffffffffff82612e4f565b612e968683612e4f565b95508019841693508086168417925050509392505050565b6000819050919050565b6000612ed3612ece612ec98461206b565b612eae565b61206b565b9050919050565b6000819050919050565b612eed83612eb8565b612f01612ef982612eda565b848454612e5c565b825550505050565b600090565b612f16612f09565b612f21818484612ee4565b505050565b5b81811015612f4557612f3a600082612f0e565b600181019050612f27565b5050565b601f821115612f8a57612f5b81612e2a565b612f6484612e3f565b81016020851015612f73578190505b612f87612f7f85612e3f565b830182612f26565b50505b505050565b600082821c905092915050565b6000612fad60001984600802612f8f565b1980831691505092915050565b6000612fc68383612f9c565b9150826002028217905092915050565b612fdf82611fb9565b67ffffffffffffffff811115612ff857612ff76122d3565b5b6130028254612a3f565b61300d828285612f49565b600060209050601f831160018114613040576000841561302e578287015190505b6130388582612fba565b8655506130a0565b601f19841661304e86612e2a565b60005b8281101561307657848901518255600182019150602085019450602081019050613051565b86831015613093578489015161308f601f891682612f9c565b8355505b6001600288020188555050505b505050505050565b7f4552433732313a2063616c6c6572206973206e6f7420746f6b656e206f776e6560008201527f72206f7220617070726f76656400000000000000000000000000000000000000602082015250565b6000613104602d83611fc4565b915061310f826130a8565b604082019050919050565b60006020820190508181036000830152613133816130f7565b9050919050565b600081905092915050565b600061315082611fb9565b61315a818561313a565b935061316a818560208601611fd5565b80840191505092915050565b60006131828285613145565b915061318e8284613145565b91508190509392505050565b7f4552433732313a207472616e736665722066726f6d20696e636f72726563742060008201527f6f776e6572000000000000000000000000000000000000000000000000000000602082015250565b60006131f6602583611fc4565b91506132018261319a565b604082019050919050565b60006020820190508181036000830152613225816131e9565b9050919050565b7f4552433732313a207472616e7366657220746f20746865207a65726f2061646460008201527f7265737300000000000000000000000000000000000000000000000000000000602082015250565b6000613288602483611fc4565b91506132938261322c565b604082019050919050565b600060208201905081810360008301526132b78161327b565b9050919050565b7f4552433732313a206d696e7420746f20746865207a65726f2061646472657373600082015250565b60006132f4602083611fc4565b91506132ff826132be565b602082019050919050565b60006020820190508181036000830152613323816132e7565b9050919050565b7f4552433732313a20746f6b656e20616c7265616479206d696e74656400000000600082015250565b6000613360601c83611fc4565b915061336b8261332a565b602082019050919050565b6000602082019050818103600083015261338f81613353565b9050919050565b7f45524337323155524953746f726167653a2055524920736574206f66206e6f6e60008201527f6578697374656e7420746f6b656e000000000000000000000000000000000000602082015250565b60006133f2602e83611fc4565b91506133fd82613396565b604082019050919050565b60006020820190508181036000830152613421816133e5565b9050919050565b7f4552433732313a20617070726f766520746f2063616c6c657200000000000000600082015250565b600061345e601983611fc4565b915061346982613428565b602082019050919050565b6000602082019050818103600083015261348d81613451565b9050919050565b7f4552433732313a207472616e7366657220746f206e6f6e20455243373231526560008201527f63656976657220696d706c656d656e7465720000000000000000000000000000602082015250565b60006134f0603283611fc4565b91506134fb82613494565b604082019050919050565b6000602082019050818103600083015261351f816134e3565b9050919050565b600081519050919050565b600082825260208201905092915050565b600061354d82613526565b6135578185613531565b9350613567818560208601611fd5565b61357081611fff565b840191505092915050565b60006080820190506135906000830187612100565b61359d6020830186612100565b6135aa6040830185612447565b81810360608301526135bc8184613542565b905095945050505050565b6000815190506135d681611f2a565b92915050565b6000602082840312156135f2576135f1611ef4565b5b6000613600848285016135c7565b91505092915050565b7f4e487b7100000000000000000000000000000000000000000000000000000000600052601260045260246000fdfea2646970667358221220b15eab8303256bceec4a09d7ff9155ba8ecf88b86ca645d6ca74306edcda563664736f6c63430008110033",
  "devdoc": {
    "kind": "dev",
    "methods": {
      "approve(address,uint256)": {
        "details": "See {IERC721-approve}."
      },
      "balanceOf(address)": {
        "details": "See {IERC721-balanceOf}."
      },
      "getApproved(uint256)": {
        "details": "See {IERC721-getApproved}."
      },
      "isApprovedForAll(address,address)": {
        "details": "See {IERC721-isApprovedForAll}."
      },
      "name()": {
        "details": "See {IERC721Metadata-name}."
      },
      "ownerOf(uint256)": {
        "details": "See {IERC721-ownerOf}."
      },
      "safeTransferFrom(address,address,uint256)": {
        "details": "See {IERC721-safeTransferFrom}."
      },
      "safeTransferFrom(address,address,uint256,bytes)": {
        "details": "See {IERC721-safeTransferFrom}."
      },
      "setApprovalForAll(address,bool)": {
        "details": "See {IERC721-setApprovalForAll}."
      },
      "supportsInterface(bytes4)": {
        "details": "See {IERC165-supportsInterface}."
      },
      "symbol()": {
        "details": "See {IERC721Metadata-symbol}."
      },
      "tokenURI(uint256)": {
        "details": "See {IERC721Metadata-tokenURI}."
      },
      "transferFrom(address,address,uint256)": {
        "details": "See {IERC721-transferFrom}."
      }
    },
    "version": 1
  },
  "userdoc": {
    "kind": "user",
    "methods": {},
    "version": 1
  },
  "storageLayout": {
    "storage": [
      {
        "astId": 79,
        "contract": "contracts/SBT.sol:STCDao",
        "label": "_name",
        "offset": 0,
        "slot": "0",
        "type": "t_string_storage"
      },
      {
        "astId": 81,
        "contract": "contracts/SBT.sol:STCDao",
        "label": "_symbol",
        "offset": 0,
        "slot": "1",
        "type": "t_string_storage"
      },
      {
        "astId": 85,
        "contract": "contracts/SBT.sol:STCDao",
        "label": "_owners",
        "offset": 0,
        "slot": "2",
        "type": "t_mapping(t_uint256,t_address)"
      },
      {
        "astId": 89,
        "contract": "contracts/SBT.sol:STCDao",
        "label": "_balances",
        "offset": 0,
        "slot": "3",
        "type": "t_mapping(t_address,t_uint256)"
      },
      {
        "astId": 93,
        "contract": "contracts/SBT.sol:STCDao",
        "label": "_tokenApprovals",
        "offset": 0,
        "slot": "4",
        "type": "t_mapping(t_uint256,t_address)"
      },
      {
        "astId": 99,
        "contract": "contracts/SBT.sol:STCDao",
        "label": "_operatorApprovals",
        "offset": 0,
        "slot": "5",
        "type": "t_mapping(t_address,t_mapping(t_address,t_bool))"
      },
      {
        "astId": 2934,
        "contract": "contracts/SBT.sol:STCDao",
        "label": "_tokenURIs",
        "offset": 0,
        "slot": "6",
        "type": "t_mapping(t_uint256,t_string_storage)"
      },
      {
        "astId": 2671,
        "contract": "contracts/SBT.sol:STCDao",
        "label": "daoArr",
        "offset": 0,
        "slot": "7",
        "type": "t_array(t_struct(Dao)2667_storage)dyn_storage"
      },
      {
        "astId": 2676,
        "contract": "contracts/SBT.sol:STCDao",
        "label": "souls",
        "offset": 0,
        "slot": "8",
        "type": "t_mapping(t_address,t_struct(Soul)2660_storage)"
      },
      {
        "astId": 2683,
        "contract": "contracts/SBT.sol:STCDao",
        "label": "soulProfiles",
        "offset": 0,
        "slot": "9",
        "type": "t_mapping(t_address,t_mapping(t_address,t_struct(Soul)2660_storage))"
      },
      {
        "astId": 2688,
        "contract": "contracts/SBT.sol:STCDao",
        "label": "profiles",
        "offset": 0,
        "slot": "10",
        "type": "t_mapping(t_address,t_array(t_address)dyn_storage)"
      },
      {
        "astId": 2690,
        "contract": "contracts/SBT.sol:STCDao",
        "label": "operator",
        "offset": 0,
        "slot": "11",
        "type": "t_address"
      },
      {
        "astId": 2693,
        "contract": "contracts/SBT.sol:STCDao",
        "label": "zeroHash",
        "offset": 0,
        "slot": "12",
        "type": "t_bytes32"
      },
      {
        "astId": 2754,
        "contract": "contracts/SBT.sol:STCDao",
        "label": "_tokenIdCounter",
        "offset": 0,
        "slot": "13",
        "type": "t_struct(Counter)1499_storage"
      },
      {
        "astId": 2757,
        "contract": "contracts/SBT.sol:STCDao",
        "label": "_eventIdCounter",
        "offset": 0,
        "slot": "14",
        "type": "t_struct(Counter)1499_storage"
      },
      {
        "astId": 2762,
        "contract": "contracts/SBT.sol:STCDao",
        "label": "tokenIds",
        "offset": 0,
        "slot": "15",
        "type": "t_mapping(t_uint256,t_array(t_uint256)dyn_storage)"
      }
    ],
    "types": {
      "t_address": {
        "encoding": "inplace",
        "label": "address",
        "numberOfBytes": "20"
      },
      "t_array(t_address)dyn_storage": {
        "base": "t_address",
        "encoding": "dynamic_array",
        "label": "address[]",
        "numberOfBytes": "32"
      },
      "t_array(t_struct(Dao)2667_storage)dyn_storage": {
        "base": "t_struct(Dao)2667_storage",
        "encoding": "dynamic_array",
        "label": "struct STCDao.Dao[]",
        "numberOfBytes": "32"
      },
      "t_array(t_uint256)dyn_storage": {
        "base": "t_uint256",
        "encoding": "dynamic_array",
        "label": "uint256[]",
        "numberOfBytes": "32"
      },
      "t_bool": {
        "encoding": "inplace",
        "label": "bool",
        "numberOfBytes": "1"
      },
      "t_bytes32": {
        "encoding": "inplace",
        "label": "bytes32",
        "numberOfBytes": "32"
      },
      "t_mapping(t_address,t_array(t_address)dyn_storage)": {
        "encoding": "mapping",
        "key": "t_address",
        "label": "mapping(address => address[])",
        "numberOfBytes": "32",
        "value": "t_array(t_address)dyn_storage"
      },
      "t_mapping(t_address,t_bool)": {
        "encoding": "mapping",
        "key": "t_address",
        "label": "mapping(address => bool)",
        "numberOfBytes": "32",
        "value": "t_bool"
      },
      "t_mapping(t_address,t_mapping(t_address,t_bool))": {
        "encoding": "mapping",
        "key": "t_address",
        "label": "mapping(address => mapping(address => bool))",
        "numberOfBytes": "32",
        "value": "t_mapping(t_address,t_bool)"
      },
      "t_mapping(t_address,t_mapping(t_address,t_struct(Soul)2660_storage))": {
        "encoding": "mapping",
        "key": "t_address",
        "label": "mapping(address => mapping(address => struct STCDao.Soul))",
        "numberOfBytes": "32",
        "value": "t_mapping(t_address,t_struct(Soul)2660_storage)"
      },
      "t_mapping(t_address,t_struct(Soul)2660_storage)": {
        "encoding": "mapping",
        "key": "t_address",
        "label": "mapping(address => struct STCDao.Soul)",
        "numberOfBytes": "32",
        "value": "t_struct(Soul)2660_storage"
      },
      "t_mapping(t_address,t_uint256)": {
        "encoding": "mapping",
        "key": "t_address",
        "label": "mapping(address => uint256)",
        "numberOfBytes": "32",
        "value": "t_uint256"
      },
      "t_mapping(t_uint256,t_address)": {
        "encoding": "mapping",
        "key": "t_uint256",
        "label": "mapping(uint256 => address)",
        "numberOfBytes": "32",
        "value": "t_address"
      },
      "t_mapping(t_uint256,t_array(t_uint256)dyn_storage)": {
        "encoding": "mapping",
        "key": "t_uint256",
        "label": "mapping(uint256 => uint256[])",
        "numberOfBytes": "32",
        "value": "t_array(t_uint256)dyn_storage"
      },
      "t_mapping(t_uint256,t_string_storage)": {
        "encoding": "mapping",
        "key": "t_uint256",
        "label": "mapping(uint256 => string)",
        "numberOfBytes": "32",
        "value": "t_string_storage"
      },
      "t_string_storage": {
        "encoding": "bytes",
        "label": "string",
        "numberOfBytes": "32"
      },
      "t_struct(Counter)1499_storage": {
        "encoding": "inplace",
        "label": "struct Counters.Counter",
        "members": [
          {
            "astId": 1498,
            "contract": "contracts/SBT.sol:STCDao",
            "label": "_value",
            "offset": 0,
            "slot": "0",
            "type": "t_uint256"
          }
        ],
        "numberOfBytes": "32"
      },
      "t_struct(Dao)2667_storage": {
        "encoding": "inplace",
        "label": "struct STCDao.Dao",
        "members": [
          {
            "astId": 2662,
            "contract": "contracts/SBT.sol:STCDao",
            "label": "name",
            "offset": 0,
            "slot": "0",
            "type": "t_string_storage"
          },
          {
            "astId": 2664,
            "contract": "contracts/SBT.sol:STCDao",
            "label": "description",
            "offset": 0,
            "slot": "1",
            "type": "t_string_storage"
          },
          {
            "astId": 2666,
            "contract": "contracts/SBT.sol:STCDao",
            "label": "jsoninfo",
            "offset": 0,
            "slot": "2",
            "type": "t_string_storage"
          }
        ],
        "numberOfBytes": "96"
      },
      "t_struct(Soul)2660_storage": {
        "encoding": "inplace",
        "label": "struct STCDao.Soul",
        "members": [
          {
            "astId": 2653,
            "contract": "contracts/SBT.sol:STCDao",
            "label": "identity",
            "offset": 0,
            "slot": "0",
            "type": "t_string_storage"
          },
          {
            "astId": 2655,
            "contract": "contracts/SBT.sol:STCDao",
            "label": "url",
            "offset": 0,
            "slot": "1",
            "type": "t_string_storage"
          },
          {
            "astId": 2657,
            "contract": "contracts/SBT.sol:STCDao",
            "label": "score",
            "offset": 0,
            "slot": "2",
            "type": "t_uint256"
          },
          {
            "astId": 2659,
            "contract": "contracts/SBT.sol:STCDao",
            "label": "timestamp",
            "offset": 0,
            "slot": "3",
            "type": "t_uint256"
          }
        ],
        "numberOfBytes": "128"
      },
      "t_uint256": {
        "encoding": "inplace",
        "label": "uint256",
        "numberOfBytes": "32"
      }
    }
  }
}