{
  "_format": "hh-sol-artifact-1",
  "contractName": "STCDaoToken",
  "sourceName": "contracts/STCMarketToken.sol",
  "abi": [
    {
      "inputs": [],
      "stateMutability": "nonpayable",
      "type": "constructor"
    },
    {
      "anonymous": false,
      "inputs": [
        {
          "indexed": true,
          "internalType": "address",
          "name": "owner",
          "type": "address"
        },
        {
          "indexed": true,
          "internalType": "address",
          "name": "spender",
          "type": "address"
        },
        {
          "indexed": false,
          "internalType": "uint256",
          "name": "value",
          "type": "uint256"
        }
      ],
      "name": "Approval",
      "type": "event"
    },
    {
      "anonymous": false,
      "inputs": [
        {
          "indexed": true,
          "internalType": "address",
          "name": "from",
          "type": "address"
        },
        {
          "indexed": true,
          "internalType": "address",
          "name": "to",
          "type": "address"
        },
        {
          "indexed": false,
          "internalType": "uint256",
          "name": "value",
          "type": "uint256"
        }
      ],
      "name": "Transfer",
      "type": "event"
    },
    {
      "inputs": [
        {
          "internalType": "uint256",
          "name": "",
          "type": "uint256"
        }
      ],
      "name": "_idToApiOrder",
      "outputs": [
        {
          "internalType": "uint256",
          "name": "orderId",
          "type": "uint256"
        },
        {
          "internalType": "uint256",
          "name": "daoId",
          "type": "uint256"
        },
        {
          "internalType": "uint256",
          "name": "marketId",
          "type": "uint256"
        },
        {
          "internalType": "uint256",
          "name": "totalCalls",
          "type": "uint256"
        },
        {
          "internalType": "uint256",
          "name": "remainingCalls",
          "type": "uint256"
        },
        {
          "internalType": "uint256",
          "name": "orderPrice",
          "type": "uint256"
        },
        {
          "internalType": "address",
          "name": "buyerAddress",
          "type": "address"
        }
      ],
      "stateMutability": "view",
      "type": "function"
    },
    {
      "inputs": [
        {
          "internalType": "uint256",
          "name": "",
          "type": "uint256"
        }
      ],
      "name": "_remainingCalls",
      "outputs": [
        {
          "internalType": "uint256",
          "name": "",
          "type": "uint256"
        }
      ],
      "stateMutability": "view",
      "type": "function"
    },
    {
      "inputs": [
        {
          "internalType": "address",
          "name": "",
          "type": "address"
        },
        {
          "internalType": "uint256",
          "name": "",
          "type": "uint256"
        }
      ],
      "name": "_userOrderIds",
      "outputs": [
        {
          "internalType": "uint256",
          "name": "",
          "type": "uint256"
        }
      ],
      "stateMutability": "view",
      "type": "function"
    },
    {
      "inputs": [
        {
          "internalType": "address",
          "name": "owner",
          "type": "address"
        },
        {
          "internalType": "address",
          "name": "spender",
          "type": "address"
        }
      ],
      "name": "allowance",
      "outputs": [
        {
          "internalType": "uint256",
          "name": "",
          "type": "uint256"
        }
      ],
      "stateMutability": "view",
      "type": "function"
    },
    {
      "inputs": [
        {
          "internalType": "address",
          "name": "spender",
          "type": "address"
        },
        {
          "internalType": "uint256",
          "name": "amount",
          "type": "uint256"
        }
      ],
      "name": "approve",
      "outputs": [
        {
          "internalType": "bool",
          "name": "",
          "type": "bool"
        }
      ],
      "stateMutability": "nonpayable",
      "type": "function"
    },
    {
      "inputs": [
        {
          "internalType": "address",
          "name": "account",
          "type": "address"
        }
      ],
      "name": "balanceOf",
      "outputs": [
        {
          "internalType": "uint256",
          "name": "",
          "type": "uint256"
        }
      ],
      "stateMutability": "view",
      "type": "function"
    },
    {
      "inputs": [
        {
          "internalType": "uint256",
          "name": "daoId",
          "type": "uint256"
        },
        {
          "internalType": "uint256",
          "name": "marketId",
          "type": "uint256"
        },
        {
          "internalType": "uint256",
          "name": "totalCalls",
          "type": "uint256"
        },
        {
          "internalType": "uint256",
          "name": "orderPrice",
          "type": "uint256"
        }
      ],
      "name": "createOrder",
      "outputs": [],
      "stateMutability": "nonpayable",
      "type": "function"
    },
    {
      "inputs": [],
      "name": "decimals",
      "outputs": [
        {
          "internalType": "uint8",
          "name": "",
          "type": "uint8"
        }
      ],
      "stateMutability": "view",
      "type": "function"
    },
    {
      "inputs": [
        {
          "internalType": "address",
          "name": "spender",
          "type": "address"
        },
        {
          "internalType": "uint256",
          "name": "subtractedValue",
          "type": "uint256"
        }
      ],
      "name": "decreaseAllowance",
      "outputs": [
        {
          "internalType": "bool",
          "name": "",
          "type": "bool"
        }
      ],
      "stateMutability": "nonpayable",
      "type": "function"
    },
    {
      "inputs": [],
      "name": "getUserAllOrders",
      "outputs": [
        {
          "components": [
            {
              "internalType": "uint256",
              "name": "orderId",
              "type": "uint256"
            },
            {
              "internalType": "uint256",
              "name": "daoId",
              "type": "uint256"
            },
            {
              "internalType": "uint256",
              "name": "marketId",
              "type": "uint256"
            },
            {
              "internalType": "uint256",
              "name": "totalCalls",
              "type": "uint256"
            },
            {
              "internalType": "uint256",
              "name": "remainingCalls",
              "type": "uint256"
            },
            {
              "internalType": "uint256",
              "name": "orderPrice",
              "type": "uint256"
            },
            {
              "internalType": "address",
              "name": "buyerAddress",
              "type": "address"
            }
          ],
          "internalType": "struct STCDaoToken.ApiOrder[]",
          "name": "",
          "type": "tuple[]"
        }
      ],
      "stateMutability": "view",
      "type": "function"
    },
    {
      "inputs": [
        {
          "internalType": "uint256",
          "name": "daoId",
          "type": "uint256"
        }
      ],
      "name": "getUserAllOrdersOnDao",
      "outputs": [
        {
          "components": [
            {
              "internalType": "uint256",
              "name": "orderId",
              "type": "uint256"
            },
            {
              "internalType": "uint256",
              "name": "daoId",
              "type": "uint256"
            },
            {
              "internalType": "uint256",
              "name": "marketId",
              "type": "uint256"
            },
            {
              "internalType": "uint256",
              "name": "totalCalls",
              "type": "uint256"
            },
            {
              "internalType": "uint256",
              "name": "remainingCalls",
              "type": "uint256"
            },
            {
              "internalType": "uint256",
              "name": "orderPrice",
              "type": "uint256"
            },
            {
              "internalType": "address",
              "name": "buyerAddress",
              "type": "address"
            }
          ],
          "internalType": "struct STCDaoToken.ApiOrder[]",
          "name": "",
          "type": "tuple[]"
        }
      ],
      "stateMutability": "view",
      "type": "function"
    },
    {
      "inputs": [
        {
          "internalType": "address",
          "name": "spender",
          "type": "address"
        },
        {
          "internalType": "uint256",
          "name": "addedValue",
          "type": "uint256"
        }
      ],
      "name": "increaseAllowance",
      "outputs": [
        {
          "internalType": "bool",
          "name": "",
          "type": "bool"
        }
      ],
      "stateMutability": "nonpayable",
      "type": "function"
    },
    {
      "inputs": [],
      "name": "name",
      "outputs": [
        {
          "internalType": "string",
          "name": "",
          "type": "string"
        }
      ],
      "stateMutability": "view",
      "type": "function"
    },
    {
      "inputs": [],
      "name": "symbol",
      "outputs": [
        {
          "internalType": "string",
          "name": "",
          "type": "string"
        }
      ],
      "stateMutability": "view",
      "type": "function"
    },
    {
      "inputs": [],
      "name": "totalSupply",
      "outputs": [
        {
          "internalType": "uint256",
          "name": "",
          "type": "uint256"
        }
      ],
      "stateMutability": "view",
      "type": "function"
    },
    {
      "inputs": [
        {
          "internalType": "address",
          "name": "to",
          "type": "address"
        },
        {
          "internalType": "uint256",
          "name": "amount",
          "type": "uint256"
        }
      ],
      "name": "transfer",
      "outputs": [
        {
          "internalType": "bool",
          "name": "",
          "type": "bool"
        }
      ],
      "stateMutability": "nonpayable",
      "type": "function"
    },
    {
      "inputs": [
        {
          "internalType": "address",
          "name": "from",
          "type": "address"
        },
        {
          "internalType": "address",
          "name": "to",
          "type": "address"
        },
        {
          "internalType": "uint256",
          "name": "amount",
          "type": "uint256"
        }
      ],
      "name": "transferFrom",
      "outputs": [
        {
          "internalType": "bool",
          "name": "",
          "type": "bool"
        }
      ],
      "stateMutability": "nonpayable",
      "type": "function"
    }
  ],
  "bytecode": "0x60806040523480156200001157600080fd5b506040518060400160405280600681526020017f53544344616f00000000000000000000000000000000000000000000000000008152506040518060400160405280600481526020017f535443540000000000000000000000000000000000000000000000000000000081525081600390816200008f919062000511565b508060049081620000a1919062000511565b505050620000e433620000b96200010160201b60201c565b600a620000c7919062000788565b6305f5e100620000d89190620007d9565b6200010a60201b60201c565b620000fb60056200027760201b62000ded1760201c565b62000910565b60006012905090565b600073ffffffffffffffffffffffffffffffffffffffff168273ffffffffffffffffffffffffffffffffffffffff16036200017c576040517f08c379a0000000000000000000000000000000000000000000000000000000008152600401620001739062000885565b60405180910390fd5b62000190600083836200028d60201b60201c565b8060026000828254620001a49190620008a7565b92505081905550806000808473ffffffffffffffffffffffffffffffffffffffff1673ffffffffffffffffffffffffffffffffffffffff168152602001908152602001600020600082825401925050819055508173ffffffffffffffffffffffffffffffffffffffff16600073ffffffffffffffffffffffffffffffffffffffff167fddf252ad1be2c89b69c2b068fc378daa952ba7f163c4a11628f55a4df523b3ef83604051620002579190620008f3565b60405180910390a362000273600083836200029260201b60201c565b5050565b6001816000016000828254019250508190555050565b505050565b505050565b600081519050919050565b7f4e487b7100000000000000000000000000000000000000000000000000000000600052604160045260246000fd5b7f4e487b7100000000000000000000000000000000000000000000000000000000600052602260045260246000fd5b600060028204905060018216806200031957607f821691505b6020821081036200032f576200032e620002d1565b5b50919050565b60008190508160005260206000209050919050565b60006020601f8301049050919050565b600082821b905092915050565b600060088302620003997fffffffffffffffffffffffffffffffffffffffffffffffffffffffffffffffff826200035a565b620003a586836200035a565b95508019841693508086168417925050509392505050565b6000819050919050565b6000819050919050565b6000620003f2620003ec620003e684620003bd565b620003c7565b620003bd565b9050919050565b6000819050919050565b6200040e83620003d1565b620004266200041d82620003f9565b84845462000367565b825550505050565b600090565b6200043d6200042e565b6200044a81848462000403565b505050565b5b8181101562000472576200046660008262000433565b60018101905062000450565b5050565b601f821115620004c1576200048b8162000335565b62000496846200034a565b81016020851015620004a6578190505b620004be620004b5856200034a565b8301826200044f565b50505b505050565b600082821c905092915050565b6000620004e660001984600802620004c6565b1980831691505092915050565b6000620005018383620004d3565b9150826002028217905092915050565b6200051c8262000297565b67ffffffffffffffff811115620005385762000537620002a2565b5b62000544825462000300565b6200055182828562000476565b600060209050601f83116001811462000589576000841562000574578287015190505b620005808582620004f3565b865550620005f0565b601f198416620005998662000335565b60005b82811015620005c3578489015182556001820191506020850194506020810190506200059c565b86831015620005e35784890151620005df601f891682620004d3565b8355505b6001600288020188555050505b505050505050565b7f4e487b7100000000000000000000000000000000000000000000000000000000600052601160045260246000fd5b60008160011c9050919050565b6000808291508390505b600185111562000686578086048111156200065e576200065d620005f8565b5b60018516156200066e5780820291505b80810290506200067e8562000627565b94506200063e565b94509492505050565b600082620006a1576001905062000774565b81620006b1576000905062000774565b8160018114620006ca5760028114620006d5576200070b565b600191505062000774565b60ff841115620006ea57620006e9620005f8565b5b8360020a915084821115620007045762000703620005f8565b5b5062000774565b5060208310610133831016604e8410600b8410161715620007455782820a9050838111156200073f576200073e620005f8565b5b62000774565b62000754848484600162000634565b925090508184048111156200076e576200076d620005f8565b5b81810290505b9392505050565b600060ff82169050919050565b60006200079582620003bd565b9150620007a2836200077b565b9250620007d17fffffffffffffffffffffffffffffffffffffffffffffffffffffffffffffffff84846200068f565b905092915050565b6000620007e682620003bd565b9150620007f383620003bd565b92508282026200080381620003bd565b915082820484148315176200081d576200081c620005f8565b5b5092915050565b600082825260208201905092915050565b7f45524332303a206d696e7420746f20746865207a65726f206164647265737300600082015250565b60006200086d601f8362000824565b91506200087a8262000835565b602082019050919050565b60006020820190508181036000830152620008a0816200085e565b9050919050565b6000620008b482620003bd565b9150620008c183620003bd565b9250828201905080821115620008dc57620008db620005f8565b5b92915050565b620008ed81620003bd565b82525050565b60006020820190506200090a6000830184620008e2565b92915050565b611e2980620009206000396000f3fe608060405234801561001057600080fd5b506004361061010b5760003560e01c806370a08231116100a2578063a457c2d711610071578063a457c2d7146102fa578063a557c4dc1461032a578063a9059cbb1461035a578063ce26651c1461038a578063dd62ed3e146103a85761010b565b806370a082311461026057806372b252cd1461029057806380148f96146102c057806395d89b41146102dc5761010b565b8063313ce567116100de578063313ce567146101ac57806339509351146101ca578063411c6d28146101fa578063684d0118146102305761010b565b806306fdde0314610110578063095ea7b31461012e57806318160ddd1461015e57806323b872dd1461017c575b600080fd5b6101186103d8565b60405161012591906113d1565b60405180910390f35b6101486004803603810190610143919061148c565b61046a565b60405161015591906114e7565b60405180910390f35b61016661048d565b6040516101739190611511565b60405180910390f35b6101966004803603810190610191919061152c565b610497565b6040516101a391906114e7565b60405180910390f35b6101b46104c6565b6040516101c1919061159b565b60405180910390f35b6101e460048036038101906101df919061148c565b6104cf565b6040516101f191906114e7565b60405180910390f35b610214600480360381019061020f91906115b6565b610506565b60405161022797969594939291906115f2565b60405180910390f35b61024a6004803603810190610245919061148c565b610568565b6040516102579190611511565b60405180910390f35b61027a60048036038101906102759190611661565b610599565b6040516102879190611511565b60405180910390f35b6102aa60048036038101906102a591906115b6565b6105e1565b6040516102b791906117e9565b60405180910390f35b6102da60048036038101906102d5919061180b565b61085d565b005b6102e46109dc565b6040516102f191906113d1565b60405180910390f35b610314600480360381019061030f919061148c565b610a6e565b60405161032191906114e7565b60405180910390f35b610344600480360381019061033f91906115b6565b610ae5565b6040516103519190611511565b60405180910390f35b610374600480360381019061036f919061148c565b610afd565b60405161038191906114e7565b60405180910390f35b610392610b20565b60405161039f91906117e9565b60405180910390f35b6103c260048036038101906103bd9190611872565b610d66565b6040516103cf9190611511565b60405180910390f35b6060600380546103e7906118e1565b80601f0160208091040260200160405190810160405280929190818152602001828054610413906118e1565b80156104605780601f1061043557610100808354040283529160200191610460565b820191906000526020600020905b81548152906001019060200180831161044357829003601f168201915b5050505050905090565b600080610475610e03565b9050610482818585610e0b565b600191505092915050565b6000600254905090565b6000806104a2610e03565b90506104af858285610fd4565b6104ba858585611060565b60019150509392505050565b60006012905090565b6000806104da610e03565b90506104fb8185856104ec8589610d66565b6104f69190611941565b610e0b565b600191505092915050565b60066020528060005260406000206000915090508060000154908060010154908060020154908060030154908060040154908060050154908060060160009054906101000a900473ffffffffffffffffffffffffffffffffffffffff16905087565b6007602052816000526040600020818154811061058457600080fd5b90600052602060002001600091509150505481565b60008060008373ffffffffffffffffffffffffffffffffffffffff1673ffffffffffffffffffffffffffffffffffffffff168152602001908152602001600020549050919050565b60606000600760003373ffffffffffffffffffffffffffffffffffffffff1673ffffffffffffffffffffffffffffffffffffffff1681526020019081526020016000208054905090506000808267ffffffffffffffff81111561064757610646611975565b5b60405190808252806020026020018201604052801561068057816020015b61066d6112ee565b8152602001906001900390816106655790505b5090506000805b8481101561085057600760003373ffffffffffffffffffffffffffffffffffffffff1673ffffffffffffffffffffffffffffffffffffffff16815260200190815260200160002081815481106106e0576106df6119a4565b5b906000526020600020015493508660066000868152602001908152602001600020600101540361083d57600660008581526020019081526020016000206040518060e00160405290816000820154815260200160018201548152602001600282015481526020016003820154815260200160048201548152602001600582015481526020016006820160009054906101000a900473ffffffffffffffffffffffffffffffffffffffff1673ffffffffffffffffffffffffffffffffffffffff1673ffffffffffffffffffffffffffffffffffffffff16815250508383815181106107cd576107cc6119a4565b5b6020026020010181905250600860008483815181106107ef576107ee6119a4565b5b60200260200101516000015181526020019081526020016000205483838151811061081d5761081c6119a4565b5b6020026020010151608001818152505060018261083a9190611941565b91505b8080610848906119d3565b915050610687565b5081945050505050919050565b600061086960056112d6565b90506108756005610ded565b6040518060e001604052808281526020018681526020018581526020018481526020018481526020018381526020013373ffffffffffffffffffffffffffffffffffffffff1681525060066000878152602001908152602001600020600082015181600001556020820151816001015560408201518160020155606082015181600301556080820151816004015560a0820151816005015560c08201518160060160006101000a81548173ffffffffffffffffffffffffffffffffffffffff021916908373ffffffffffffffffffffffffffffffffffffffff160217905550905050826008600086815260200190815260200160002081905550600760003373ffffffffffffffffffffffffffffffffffffffff1673ffffffffffffffffffffffffffffffffffffffff1681526020019081526020016000208190806001815401808255809150506001900390600052602060002001600090919091909150555050505050565b6060600480546109eb906118e1565b80601f0160208091040260200160405190810160405280929190818152602001828054610a17906118e1565b8015610a645780601f10610a3957610100808354040283529160200191610a64565b820191906000526020600020905b815481529060010190602001808311610a4757829003601f168201915b5050505050905090565b600080610a79610e03565b90506000610a878286610d66565b905083811015610acc576040517f08c379a0000000000000000000000000000000000000000000000000000000008152600401610ac390611a8d565b60405180910390fd5b610ad98286868403610e0b565b60019250505092915050565b60086020528060005260406000206000915090505481565b600080610b08610e03565b9050610b15818585611060565b600191505092915050565b60606000600760003373ffffffffffffffffffffffffffffffffffffffff1673ffffffffffffffffffffffffffffffffffffffff16815260200190815260200160002080549050905060008167ffffffffffffffff811115610b8557610b84611975565b5b604051908082528060200260200182016040528015610bbe57816020015b610bab6112ee565b815260200190600190039081610ba35790505b50905060005b82811015610d5d5760066000600760003373ffffffffffffffffffffffffffffffffffffffff1673ffffffffffffffffffffffffffffffffffffffff1681526020019081526020016000208381548110610c2157610c206119a4565b5b906000526020600020015481526020019081526020016000206040518060e00160405290816000820154815260200160018201548152602001600282015481526020016003820154815260200160048201548152602001600582015481526020016006820160009054906101000a900473ffffffffffffffffffffffffffffffffffffffff1673ffffffffffffffffffffffffffffffffffffffff1673ffffffffffffffffffffffffffffffffffffffff1681525050828281518110610cea57610ce96119a4565b5b602002602001018190525060086000838381518110610d0c57610d0b6119a4565b5b602002602001015160000151815260200190815260200160002054828281518110610d3a57610d396119a4565b5b602002602001015160800181815250508080610d55906119d3565b915050610bc4565b50809250505090565b6000600160008473ffffffffffffffffffffffffffffffffffffffff1673ffffffffffffffffffffffffffffffffffffffff16815260200190815260200160002060008373ffffffffffffffffffffffffffffffffffffffff1673ffffffffffffffffffffffffffffffffffffffff16815260200190815260200160002054905092915050565b6001816000016000828254019250508190555050565b600033905090565b600073ffffffffffffffffffffffffffffffffffffffff168373ffffffffffffffffffffffffffffffffffffffff1603610e7a576040517f08c379a0000000000000000000000000000000000000000000000000000000008152600401610e7190611b1f565b60405180910390fd5b600073ffffffffffffffffffffffffffffffffffffffff168273ffffffffffffffffffffffffffffffffffffffff1603610ee9576040517f08c379a0000000000000000000000000000000000000000000000000000000008152600401610ee090611bb1565b60405180910390fd5b80600160008573ffffffffffffffffffffffffffffffffffffffff1673ffffffffffffffffffffffffffffffffffffffff16815260200190815260200160002060008473ffffffffffffffffffffffffffffffffffffffff1673ffffffffffffffffffffffffffffffffffffffff168152602001908152602001600020819055508173ffffffffffffffffffffffffffffffffffffffff168373ffffffffffffffffffffffffffffffffffffffff167f8c5be1e5ebec7d5bd14f71427d1e84f3dd0314c0f7b2291e5b200ac8c7c3b92583604051610fc79190611511565b60405180910390a3505050565b6000610fe08484610d66565b90507fffffffffffffffffffffffffffffffffffffffffffffffffffffffffffffffff811461105a578181101561104c576040517f08c379a000000000000000000000000000000000000000000000000000000000815260040161104390611c1d565b60405180910390fd5b6110598484848403610e0b565b5b50505050565b600073ffffffffffffffffffffffffffffffffffffffff168373ffffffffffffffffffffffffffffffffffffffff16036110cf576040517f08c379a00000000000000000000000000000000000000000000000000000000081526004016110c690611caf565b60405180910390fd5b600073ffffffffffffffffffffffffffffffffffffffff168273ffffffffffffffffffffffffffffffffffffffff160361113e576040517f08c379a000000000000000000000000000000000000000000000000000000000815260040161113590611d41565b60405180910390fd5b6111498383836112e4565b60008060008573ffffffffffffffffffffffffffffffffffffffff1673ffffffffffffffffffffffffffffffffffffffff168152602001908152602001600020549050818110156111cf576040517f08c379a00000000000000000000000000000000000000000000000000000000081526004016111c690611dd3565b60405180910390fd5b8181036000808673ffffffffffffffffffffffffffffffffffffffff1673ffffffffffffffffffffffffffffffffffffffff16815260200190815260200160002081905550816000808573ffffffffffffffffffffffffffffffffffffffff1673ffffffffffffffffffffffffffffffffffffffff168152602001908152602001600020600082825401925050819055508273ffffffffffffffffffffffffffffffffffffffff168473ffffffffffffffffffffffffffffffffffffffff167fddf252ad1be2c89b69c2b068fc378daa952ba7f163c4a11628f55a4df523b3ef846040516112bd9190611511565b60405180910390a36112d08484846112e9565b50505050565b600081600001549050919050565b505050565b505050565b6040518060e00160405280600081526020016000815260200160008152602001600081526020016000815260200160008152602001600073ffffffffffffffffffffffffffffffffffffffff1681525090565b600081519050919050565b600082825260208201905092915050565b60005b8381101561137b578082015181840152602081019050611360565b60008484015250505050565b6000601f19601f8301169050919050565b60006113a382611341565b6113ad818561134c565b93506113bd81856020860161135d565b6113c681611387565b840191505092915050565b600060208201905081810360008301526113eb8184611398565b905092915050565b600080fd5b600073ffffffffffffffffffffffffffffffffffffffff82169050919050565b6000611423826113f8565b9050919050565b61143381611418565b811461143e57600080fd5b50565b6000813590506114508161142a565b92915050565b6000819050919050565b61146981611456565b811461147457600080fd5b50565b60008135905061148681611460565b92915050565b600080604083850312156114a3576114a26113f3565b5b60006114b185828601611441565b92505060206114c285828601611477565b9150509250929050565b60008115159050919050565b6114e1816114cc565b82525050565b60006020820190506114fc60008301846114d8565b92915050565b61150b81611456565b82525050565b60006020820190506115266000830184611502565b92915050565b600080600060608486031215611545576115446113f3565b5b600061155386828701611441565b935050602061156486828701611441565b925050604061157586828701611477565b9150509250925092565b600060ff82169050919050565b6115958161157f565b82525050565b60006020820190506115b0600083018461158c565b92915050565b6000602082840312156115cc576115cb6113f3565b5b60006115da84828501611477565b91505092915050565b6115ec81611418565b82525050565b600060e082019050611607600083018a611502565b6116146020830189611502565b6116216040830188611502565b61162e6060830187611502565b61163b6080830186611502565b61164860a0830185611502565b61165560c08301846115e3565b98975050505050505050565b600060208284031215611677576116766113f3565b5b600061168584828501611441565b91505092915050565b600081519050919050565b600082825260208201905092915050565b6000819050602082019050919050565b6116c381611456565b82525050565b6116d281611418565b82525050565b60e0820160008201516116ee60008501826116ba565b50602082015161170160208501826116ba565b50604082015161171460408501826116ba565b50606082015161172760608501826116ba565b50608082015161173a60808501826116ba565b5060a082015161174d60a08501826116ba565b5060c082015161176060c08501826116c9565b50505050565b600061177283836116d8565b60e08301905092915050565b6000602082019050919050565b60006117968261168e565b6117a08185611699565b93506117ab836116aa565b8060005b838110156117dc5781516117c38882611766565b97506117ce8361177e565b9250506001810190506117af565b5085935050505092915050565b60006020820190508181036000830152611803818461178b565b905092915050565b60008060008060808587031215611825576118246113f3565b5b600061183387828801611477565b945050602061184487828801611477565b935050604061185587828801611477565b925050606061186687828801611477565b91505092959194509250565b60008060408385031215611889576118886113f3565b5b600061189785828601611441565b92505060206118a885828601611441565b9150509250929050565b7f4e487b7100000000000000000000000000000000000000000000000000000000600052602260045260246000fd5b600060028204905060018216806118f957607f821691505b60208210810361190c5761190b6118b2565b5b50919050565b7f4e487b7100000000000000000000000000000000000000000000000000000000600052601160045260246000fd5b600061194c82611456565b915061195783611456565b925082820190508082111561196f5761196e611912565b5b92915050565b7f4e487b7100000000000000000000000000000000000000000000000000000000600052604160045260246000fd5b7f4e487b7100000000000000000000000000000000000000000000000000000000600052603260045260246000fd5b60006119de82611456565b91507fffffffffffffffffffffffffffffffffffffffffffffffffffffffffffffffff8203611a1057611a0f611912565b5b600182019050919050565b7f45524332303a2064656372656173656420616c6c6f77616e63652062656c6f7760008201527f207a65726f000000000000000000000000000000000000000000000000000000602082015250565b6000611a7760258361134c565b9150611a8282611a1b565b604082019050919050565b60006020820190508181036000830152611aa681611a6a565b9050919050565b7f45524332303a20617070726f76652066726f6d20746865207a65726f2061646460008201527f7265737300000000000000000000000000000000000000000000000000000000602082015250565b6000611b0960248361134c565b9150611b1482611aad565b604082019050919050565b60006020820190508181036000830152611b3881611afc565b9050919050565b7f45524332303a20617070726f766520746f20746865207a65726f20616464726560008201527f7373000000000000000000000000000000000000000000000000000000000000602082015250565b6000611b9b60228361134c565b9150611ba682611b3f565b604082019050919050565b60006020820190508181036000830152611bca81611b8e565b9050919050565b7f45524332303a20696e73756666696369656e7420616c6c6f77616e6365000000600082015250565b6000611c07601d8361134c565b9150611c1282611bd1565b602082019050919050565b60006020820190508181036000830152611c3681611bfa565b9050919050565b7f45524332303a207472616e736665722066726f6d20746865207a65726f20616460008201527f6472657373000000000000000000000000000000000000000000000000000000602082015250565b6000611c9960258361134c565b9150611ca482611c3d565b604082019050919050565b60006020820190508181036000830152611cc881611c8c565b9050919050565b7f45524332303a207472616e7366657220746f20746865207a65726f206164647260008201527f6573730000000000000000000000000000000000000000000000000000000000602082015250565b6000611d2b60238361134c565b9150611d3682611ccf565b604082019050919050565b60006020820190508181036000830152611d5a81611d1e565b9050919050565b7f45524332303a207472616e7366657220616d6f756e742065786365656473206260008201527f616c616e63650000000000000000000000000000000000000000000000000000602082015250565b6000611dbd60268361134c565b9150611dc882611d61565b604082019050919050565b60006020820190508181036000830152611dec81611db0565b905091905056fea26469706673582212205a036372d04ebfb8933eee1cd9f33148dab55598afe676f1410b22283a45b67a64736f6c63430008110033",
  "linkReferences": {},
  "deployedLinkReferences": {}
}