{
  "_format": "hh-sol-artifact-1",
  "contractName": "STCMarketToken",
  "sourceName": "contracts/STCMarketToken.sol",
  "abi": [
    {
      "inputs": [],
      "stateMutability": "nonpayable",
      "type": "constructor"
    },
    {
      "anonymous": false,
      "inputs": [
        {
          "indexed": true,
          "internalType": "address",
          "name": "owner",
          "type": "address"
        },
        {
          "indexed": true,
          "internalType": "address",
          "name": "spender",
          "type": "address"
        },
        {
          "indexed": false,
          "internalType": "uint256",
          "name": "value",
          "type": "uint256"
        }
      ],
      "name": "Approval",
      "type": "event"
    },
    {
      "anonymous": false,
      "inputs": [
        {
          "indexed": true,
          "internalType": "address",
          "name": "previousOwner",
          "type": "address"
        },
        {
          "indexed": true,
          "internalType": "address",
          "name": "newOwner",
          "type": "address"
        }
      ],
      "name": "OwnershipTransferred",
      "type": "event"
    },
    {
      "anonymous": false,
      "inputs": [
        {
          "indexed": true,
          "internalType": "address",
          "name": "from",
          "type": "address"
        },
        {
          "indexed": true,
          "internalType": "address",
          "name": "to",
          "type": "address"
        },
        {
          "indexed": false,
          "internalType": "uint256",
          "name": "value",
          "type": "uint256"
        }
      ],
      "name": "Transfer",
      "type": "event"
    },
    {
      "inputs": [],
      "name": "MY_ROLE",
      "outputs": [
        {
          "internalType": "bytes32",
          "name": "",
          "type": "bytes32"
        }
      ],
      "stateMutability": "view",
      "type": "function"
    },
    {
      "inputs": [
        {
          "internalType": "uint256",
          "name": "",
          "type": "uint256"
        }
      ],
      "name": "_idToApiOrder",
      "outputs": [
        {
          "internalType": "uint256",
          "name": "orderId",
          "type": "uint256"
        },
        {
          "internalType": "uint256",
          "name": "daoId",
          "type": "uint256"
        },
        {
          "internalType": "uint256",
          "name": "marketId",
          "type": "uint256"
        },
        {
          "internalType": "uint256",
          "name": "totalCalls",
          "type": "uint256"
        },
        {
          "internalType": "uint256",
          "name": "remainingCalls",
          "type": "uint256"
        },
        {
          "internalType": "uint256",
          "name": "orderPrice",
          "type": "uint256"
        },
        {
          "internalType": "address",
          "name": "buyerAddress",
          "type": "address"
        }
      ],
      "stateMutability": "view",
      "type": "function"
    },
    {
      "inputs": [
        {
          "internalType": "uint256",
          "name": "",
          "type": "uint256"
        }
      ],
      "name": "_orderRemainingCalls",
      "outputs": [
        {
          "internalType": "uint256",
          "name": "",
          "type": "uint256"
        }
      ],
      "stateMutability": "view",
      "type": "function"
    },
    {
      "inputs": [
        {
          "internalType": "address",
          "name": "",
          "type": "address"
        },
        {
          "internalType": "uint256",
          "name": "",
          "type": "uint256"
        }
      ],
      "name": "_userOrderIds",
      "outputs": [
        {
          "internalType": "uint256",
          "name": "",
          "type": "uint256"
        }
      ],
      "stateMutability": "view",
      "type": "function"
    },
    {
      "inputs": [
        {
          "internalType": "address",
          "name": "",
          "type": "address"
        },
        {
          "internalType": "uint256",
          "name": "",
          "type": "uint256"
        }
      ],
      "name": "_userRemainingCalls",
      "outputs": [
        {
          "internalType": "uint256",
          "name": "",
          "type": "uint256"
        }
      ],
      "stateMutability": "view",
      "type": "function"
    },
    {
      "inputs": [
        {
          "internalType": "address",
          "name": "owner",
          "type": "address"
        },
        {
          "internalType": "address",
          "name": "spender",
          "type": "address"
        }
      ],
      "name": "allowance",
      "outputs": [
        {
          "internalType": "uint256",
          "name": "",
          "type": "uint256"
        }
      ],
      "stateMutability": "view",
      "type": "function"
    },
    {
      "inputs": [
        {
          "internalType": "address",
          "name": "spender",
          "type": "address"
        },
        {
          "internalType": "uint256",
          "name": "amount",
          "type": "uint256"
        }
      ],
      "name": "approve",
      "outputs": [
        {
          "internalType": "bool",
          "name": "",
          "type": "bool"
        }
      ],
      "stateMutability": "nonpayable",
      "type": "function"
    },
    {
      "inputs": [
        {
          "internalType": "address",
          "name": "account",
          "type": "address"
        }
      ],
      "name": "balanceOf",
      "outputs": [
        {
          "internalType": "uint256",
          "name": "",
          "type": "uint256"
        }
      ],
      "stateMutability": "view",
      "type": "function"
    },
    {
      "inputs": [
        {
          "internalType": "uint256",
          "name": "daoId",
          "type": "uint256"
        },
        {
          "internalType": "uint256",
          "name": "marketId",
          "type": "uint256"
        },
        {
          "internalType": "uint256",
          "name": "totalCalls",
          "type": "uint256"
        },
        {
          "internalType": "uint256",
          "name": "orderPrice",
          "type": "uint256"
        }
      ],
      "name": "createOrder",
      "outputs": [],
      "stateMutability": "nonpayable",
      "type": "function"
    },
    {
      "inputs": [],
      "name": "decimals",
      "outputs": [
        {
          "internalType": "uint8",
          "name": "",
          "type": "uint8"
        }
      ],
      "stateMutability": "view",
      "type": "function"
    },
    {
      "inputs": [
        {
          "internalType": "address",
          "name": "spender",
          "type": "address"
        },
        {
          "internalType": "uint256",
          "name": "subtractedValue",
          "type": "uint256"
        }
      ],
      "name": "decreaseAllowance",
      "outputs": [
        {
          "internalType": "bool",
          "name": "",
          "type": "bool"
        }
      ],
      "stateMutability": "nonpayable",
      "type": "function"
    },
    {
      "inputs": [],
      "name": "getStakeToken",
      "outputs": [
        {
          "internalType": "uint256",
          "name": "",
          "type": "uint256"
        }
      ],
      "stateMutability": "view",
      "type": "function"
    },
    {
      "inputs": [],
      "name": "getUserAllOrders",
      "outputs": [
        {
          "components": [
            {
              "internalType": "uint256",
              "name": "orderId",
              "type": "uint256"
            },
            {
              "internalType": "uint256",
              "name": "daoId",
              "type": "uint256"
            },
            {
              "internalType": "uint256",
              "name": "marketId",
              "type": "uint256"
            },
            {
              "internalType": "uint256",
              "name": "totalCalls",
              "type": "uint256"
            },
            {
              "internalType": "uint256",
              "name": "remainingCalls",
              "type": "uint256"
            },
            {
              "internalType": "uint256",
              "name": "orderPrice",
              "type": "uint256"
            },
            {
              "internalType": "address",
              "name": "buyerAddress",
              "type": "address"
            }
          ],
          "internalType": "struct STCMarketToken.ApiOrder[]",
          "name": "",
          "type": "tuple[]"
        }
      ],
      "stateMutability": "view",
      "type": "function"
    },
    {
      "inputs": [
        {
          "internalType": "uint256",
          "name": "daoId",
          "type": "uint256"
        }
      ],
      "name": "getUserAllOrdersOnDao",
      "outputs": [
        {
          "components": [
            {
              "internalType": "uint256",
              "name": "orderId",
              "type": "uint256"
            },
            {
              "internalType": "uint256",
              "name": "daoId",
              "type": "uint256"
            },
            {
              "internalType": "uint256",
              "name": "marketId",
              "type": "uint256"
            },
            {
              "internalType": "uint256",
              "name": "totalCalls",
              "type": "uint256"
            },
            {
              "internalType": "uint256",
              "name": "remainingCalls",
              "type": "uint256"
            },
            {
              "internalType": "uint256",
              "name": "orderPrice",
              "type": "uint256"
            },
            {
              "internalType": "address",
              "name": "buyerAddress",
              "type": "address"
            }
          ],
          "internalType": "struct STCMarketToken.ApiOrder[]",
          "name": "",
          "type": "tuple[]"
        }
      ],
      "stateMutability": "view",
      "type": "function"
    },
    {
      "inputs": [
        {
          "internalType": "address",
          "name": "spender",
          "type": "address"
        },
        {
          "internalType": "uint256",
          "name": "addedValue",
          "type": "uint256"
        }
      ],
      "name": "increaseAllowance",
      "outputs": [
        {
          "internalType": "bool",
          "name": "",
          "type": "bool"
        }
      ],
      "stateMutability": "nonpayable",
      "type": "function"
    },
    {
      "inputs": [],
      "name": "name",
      "outputs": [
        {
          "internalType": "string",
          "name": "",
          "type": "string"
        }
      ],
      "stateMutability": "view",
      "type": "function"
    },
    {
      "inputs": [],
      "name": "owner",
      "outputs": [
        {
          "internalType": "address",
          "name": "",
          "type": "address"
        }
      ],
      "stateMutability": "view",
      "type": "function"
    },
    {
      "inputs": [],
      "name": "refund",
      "outputs": [],
      "stateMutability": "nonpayable",
      "type": "function"
    },
    {
      "inputs": [],
      "name": "renounceOwnership",
      "outputs": [],
      "stateMutability": "nonpayable",
      "type": "function"
    },
    {
      "inputs": [
        {
          "internalType": "uint256",
          "name": "amount",
          "type": "uint256"
        }
      ],
      "name": "stake",
      "outputs": [],
      "stateMutability": "nonpayable",
      "type": "function"
    },
    {
      "inputs": [
        {
          "internalType": "address",
          "name": "user",
          "type": "address"
        }
      ],
      "name": "stakerExists",
      "outputs": [
        {
          "internalType": "bool",
          "name": "",
          "type": "bool"
        }
      ],
      "stateMutability": "view",
      "type": "function"
    },
    {
      "inputs": [
        {
          "internalType": "address",
          "name": "",
          "type": "address"
        }
      ],
      "name": "stakes",
      "outputs": [
        {
          "internalType": "uint256",
          "name": "",
          "type": "uint256"
        }
      ],
      "stateMutability": "view",
      "type": "function"
    },
    {
      "inputs": [],
      "name": "symbol",
      "outputs": [
        {
          "internalType": "string",
          "name": "",
          "type": "string"
        }
      ],
      "stateMutability": "view",
      "type": "function"
    },
    {
      "inputs": [],
      "name": "totalSupply",
      "outputs": [
        {
          "internalType": "uint256",
          "name": "",
          "type": "uint256"
        }
      ],
      "stateMutability": "view",
      "type": "function"
    },
    {
      "inputs": [
        {
          "internalType": "address",
          "name": "to",
          "type": "address"
        },
        {
          "internalType": "uint256",
          "name": "amount",
          "type": "uint256"
        }
      ],
      "name": "transfer",
      "outputs": [
        {
          "internalType": "bool",
          "name": "",
          "type": "bool"
        }
      ],
      "stateMutability": "nonpayable",
      "type": "function"
    },
    {
      "inputs": [
        {
          "internalType": "address",
          "name": "from",
          "type": "address"
        },
        {
          "internalType": "address",
          "name": "to",
          "type": "address"
        },
        {
          "internalType": "uint256",
          "name": "amount",
          "type": "uint256"
        }
      ],
      "name": "transferFrom",
      "outputs": [
        {
          "internalType": "bool",
          "name": "",
          "type": "bool"
        }
      ],
      "stateMutability": "nonpayable",
      "type": "function"
    },
    {
      "inputs": [
        {
          "internalType": "address",
          "name": "newOwner",
          "type": "address"
        }
      ],
      "name": "transferOwnership",
      "outputs": [],
      "stateMutability": "nonpayable",
      "type": "function"
    }
  ],
  "bytecode": "0x608060405268056bc75e2d631000006007553480156200001e57600080fd5b506040518060400160405280601281526020017f5354434150494d61726b657420546f6b656e00000000000000000000000000008152506040518060400160405280600481526020017f535443540000000000000000000000000000000000000000000000000000000081525081600390816200009c91906200060c565b508060049081620000ae91906200060c565b505050620000d1620000c56200012e60201b60201c565b6200013660201b60201c565b6200011133620000e6620001fc60201b60201c565b600a620000f4919062000883565b6305f5e100620001059190620008d4565b6200020560201b60201c565b6200012860066200037260201b62000fb41760201c565b62000a0b565b600033905090565b6000600560009054906101000a900473ffffffffffffffffffffffffffffffffffffffff16905081600560006101000a81548173ffffffffffffffffffffffffffffffffffffffff021916908373ffffffffffffffffffffffffffffffffffffffff1602179055508173ffffffffffffffffffffffffffffffffffffffff168173ffffffffffffffffffffffffffffffffffffffff167f8be0079c531659141344cd1fd0a4f28419497f9722a3daafe3b4186f6b6457e060405160405180910390a35050565b60006012905090565b600073ffffffffffffffffffffffffffffffffffffffff168273ffffffffffffffffffffffffffffffffffffffff160362000277576040517f08c379a00000000000000000000000000000000000000000000000000000000081526004016200026e9062000980565b60405180910390fd5b6200028b600083836200038860201b60201c565b80600260008282546200029f9190620009a2565b92505081905550806000808473ffffffffffffffffffffffffffffffffffffffff1673ffffffffffffffffffffffffffffffffffffffff168152602001908152602001600020600082825401925050819055508173ffffffffffffffffffffffffffffffffffffffff16600073ffffffffffffffffffffffffffffffffffffffff167fddf252ad1be2c89b69c2b068fc378daa952ba7f163c4a11628f55a4df523b3ef83604051620003529190620009ee565b60405180910390a36200036e600083836200038d60201b60201c565b5050565b6001816000016000828254019250508190555050565b505050565b505050565b600081519050919050565b7f4e487b7100000000000000000000000000000000000000000000000000000000600052604160045260246000fd5b7f4e487b7100000000000000000000000000000000000000000000000000000000600052602260045260246000fd5b600060028204905060018216806200041457607f821691505b6020821081036200042a5762000429620003cc565b5b50919050565b60008190508160005260206000209050919050565b60006020601f8301049050919050565b600082821b905092915050565b600060088302620004947fffffffffffffffffffffffffffffffffffffffffffffffffffffffffffffffff8262000455565b620004a0868362000455565b95508019841693508086168417925050509392505050565b6000819050919050565b6000819050919050565b6000620004ed620004e7620004e184620004b8565b620004c2565b620004b8565b9050919050565b6000819050919050565b6200050983620004cc565b620005216200051882620004f4565b84845462000462565b825550505050565b600090565b6200053862000529565b62000545818484620004fe565b505050565b5b818110156200056d57620005616000826200052e565b6001810190506200054b565b5050565b601f821115620005bc57620005868162000430565b620005918462000445565b81016020851015620005a1578190505b620005b9620005b08562000445565b8301826200054a565b50505b505050565b600082821c905092915050565b6000620005e160001984600802620005c1565b1980831691505092915050565b6000620005fc8383620005ce565b9150826002028217905092915050565b620006178262000392565b67ffffffffffffffff8111156200063357620006326200039d565b5b6200063f8254620003fb565b6200064c82828562000571565b600060209050601f8311600181146200068457600084156200066f578287015190505b6200067b8582620005ee565b865550620006eb565b601f198416620006948662000430565b60005b82811015620006be5784890151825560018201915060208501945060208101905062000697565b86831015620006de5784890151620006da601f891682620005ce565b8355505b6001600288020188555050505b505050505050565b7f4e487b7100000000000000000000000000000000000000000000000000000000600052601160045260246000fd5b60008160011c9050919050565b6000808291508390505b60018511156200078157808604811115620007595762000758620006f3565b5b6001851615620007695780820291505b8081029050620007798562000722565b945062000739565b94509492505050565b6000826200079c57600190506200086f565b81620007ac57600090506200086f565b8160018114620007c55760028114620007d05762000806565b60019150506200086f565b60ff841115620007e557620007e4620006f3565b5b8360020a915084821115620007ff57620007fe620006f3565b5b506200086f565b5060208310610133831016604e8410600b8410161715620008405782820a9050838111156200083a5762000839620006f3565b5b6200086f565b6200084f84848460016200072f565b92509050818404811115620008695762000868620006f3565b5b81810290505b9392505050565b600060ff82169050919050565b60006200089082620004b8565b91506200089d8362000876565b9250620008cc7fffffffffffffffffffffffffffffffffffffffffffffffffffffffffffffffff84846200078a565b905092915050565b6000620008e182620004b8565b9150620008ee83620004b8565b9250828202620008fe81620004b8565b91508282048414831517620009185762000917620006f3565b5b5092915050565b600082825260208201905092915050565b7f45524332303a206d696e7420746f20746865207a65726f206164647265737300600082015250565b600062000968601f836200091f565b9150620009758262000930565b602082019050919050565b600060208201905081810360008301526200099b8162000959565b9050919050565b6000620009af82620004b8565b9150620009bc83620004b8565b9250828201905080821115620009d757620009d6620006f3565b5b92915050565b620009e881620004b8565b82525050565b600060208201905062000a056000830184620009dd565b92915050565b6128ce8062000a1b6000396000f3fe608060405234801561001057600080fd5b50600436106101a95760003560e01c8063715018a6116100f9578063a694fc3a11610097578063cfa10ca011610071578063cfa10ca014610500578063dd62ed3e14610530578063e658a1db14610560578063f2fde38b14610590576101a9565b8063a694fc3a14610496578063a9059cbb146104b2578063ce26651c146104e2576101a9565b806383e47257116100d357806383e47257146103fa5780638da5cb5b1461042a57806395d89b4114610448578063a457c2d714610466576101a9565b8063715018a6146103a457806372b252cd146103ae57806380148f96146103de576101a9565b8063313ce56711610166578063500a156411610140578063500a15641461031c578063590e1ae31461033a578063684d01181461034457806370a0823114610374576101a9565b8063313ce5671461029857806339509351146102b6578063411c6d28146102e6576101a9565b806306fdde03146101ae578063095ea7b3146101cc57806316934fc4146101fc57806316f5f71b1461022c57806318160ddd1461024a57806323b872dd14610268575b600080fd5b6101b66105ac565b6040516101c39190611b99565b60405180910390f35b6101e660048036038101906101e19190611c54565b61063e565b6040516101f39190611caf565b60405180910390f35b61021660048036038101906102119190611cca565b610661565b6040516102239190611d06565b60405180910390f35b610234610679565b6040516102419190611d3a565b60405180910390f35b61025261069d565b60405161025f9190611d06565b60405180910390f35b610282600480360381019061027d9190611d55565b6106a7565b60405161028f9190611caf565b60405180910390f35b6102a06106d6565b6040516102ad9190611dc4565b60405180910390f35b6102d060048036038101906102cb9190611c54565b6106df565b6040516102dd9190611caf565b60405180910390f35b61030060048036038101906102fb9190611ddf565b610716565b6040516103139796959493929190611e1b565b60405180910390f35b610324610778565b6040516103319190611d06565b60405180910390f35b610342610782565b005b61035e60048036038101906103599190611c54565b610862565b60405161036b9190611d06565b60405180910390f35b61038e60048036038101906103899190611cca565b610893565b60405161039b9190611d06565b60405180910390f35b6103ac6108db565b005b6103c860048036038101906103c39190611ddf565b6108ef565b6040516103d59190611fe5565b60405180910390f35b6103f860048036038101906103f39190612007565b610902565b005b610414600480360381019061040f9190611ddf565b610b87565b6040516104219190611d06565b60405180910390f35b610432610b9f565b60405161043f919061206e565b60405180910390f35b610450610bc9565b60405161045d9190611b99565b60405180910390f35b610480600480360381019061047b9190611c54565b610c5b565b60405161048d9190611caf565b60405180910390f35b6104b060048036038101906104ab9190611ddf565b610cd2565b005b6104cc60048036038101906104c79190611c54565b610e04565b6040516104d99190611caf565b60405180910390f35b6104ea610e27565b6040516104f79190611fe5565b60405180910390f35b61051a60048036038101906105159190611cca565b610e39565b6040516105279190611caf565b60405180910390f35b61054a60048036038101906105459190612089565b610e85565b6040516105579190611d06565b60405180910390f35b61057a60048036038101906105759190611c54565b610f0c565b6040516105879190611d06565b60405180910390f35b6105aa60048036038101906105a59190611cca565b610f31565b005b6060600380546105bb906120f8565b80601f01602080910402602001604051908101604052809291908181526020018280546105e7906120f8565b80156106345780601f1061060957610100808354040283529160200191610634565b820191906000526020600020905b81548152906001019060200180831161061757829003601f168201915b5050505050905090565b600080610649610fca565b9050610656818585610fd2565b600191505092915050565b600c6020528060005260406000206000915090505481565b7f97c877e40edb41710f0baf588c878ee15a04499b06ae8c98cf488875d91a721381565b6000600254905090565b6000806106b2610fca565b90506106bf85828561119b565b6106ca858585611227565b60019150509392505050565b60006012905090565b6000806106ea610fca565b905061070b8185856106fc8589610e85565b6107069190612158565b610fd2565b600191505092915050565b60086020528060005260406000206000915090508060000154908060010154908060020154908060030154908060040154908060050154908060060160009054906101000a900473ffffffffffffffffffffffffffffffffffffffff16905087565b6000600754905090565b61078b33610e39565b6107ca576040517f08c379a00000000000000000000000000000000000000000000000000000000081526004016107c1906121fe565b60405180910390fd5b6000600c60003373ffffffffffffffffffffffffffffffffffffffff1673ffffffffffffffffffffffffffffffffffffffff1681526020019081526020016000205490506000600c60003373ffffffffffffffffffffffffffffffffffffffff1673ffffffffffffffffffffffffffffffffffffffff1681526020019081526020016000208190555061085e3033836106a7565b5050565b6009602052816000526040600020818154811061087e57600080fd5b90600052602060002001600091509150505481565b60008060008373ffffffffffffffffffffffffffffffffffffffff1673ffffffffffffffffffffffffffffffffffffffff168152602001908152602001600020549050919050565b6108e361149d565b6108ed600061151b565b565b60606108fb33836115e1565b9050919050565b8061090c33610893565b101561094d576040517f08c379a00000000000000000000000000000000000000000000000000000000081526004016109449061226a565b60405180910390fd5b6109573082610e04565b5060006109646006611a9e565b90506109706006610fb4565b6040518060e001604052808281526020018681526020018581526020018481526020018481526020018381526020013373ffffffffffffffffffffffffffffffffffffffff1681525060086000838152602001908152602001600020600082015181600001556020820151816001015560408201518160020155606082015181600301556080820151816004015560a0820151816005015560c08201518160060160006101000a81548173ffffffffffffffffffffffffffffffffffffffff021916908373ffffffffffffffffffffffffffffffffffffffff16021790555090505082600a60008381526020019081526020016000208190555082600b60003373ffffffffffffffffffffffffffffffffffffffff1673ffffffffffffffffffffffffffffffffffffffff168152602001908152602001600020600086815260200190815260200160002054610ac69190612158565b600b60003373ffffffffffffffffffffffffffffffffffffffff1673ffffffffffffffffffffffffffffffffffffffff168152602001908152602001600020600086815260200190815260200160002081905550600960003373ffffffffffffffffffffffffffffffffffffffff1673ffffffffffffffffffffffffffffffffffffffff1681526020019081526020016000208190806001815401808255809150506001900390600052602060002001600090919091909150555050505050565b600a6020528060005260406000206000915090505481565b6000600560009054906101000a900473ffffffffffffffffffffffffffffffffffffffff16905090565b606060048054610bd8906120f8565b80601f0160208091040260200160405190810160405280929190818152602001828054610c04906120f8565b8015610c515780601f10610c2657610100808354040283529160200191610c51565b820191906000526020600020905b815481529060010190602001808311610c3457829003601f168201915b5050505050905090565b600080610c66610fca565b90506000610c748286610e85565b905083811015610cb9576040517f08c379a0000000000000000000000000000000000000000000000000000000008152600401610cb0906122fc565b60405180910390fd5b610cc68286868403610fd2565b60019250505092915050565b610cdc3082610e04565b610d1b576040517f08c379a0000000000000000000000000000000000000000000000000000000008152600401610d129061238e565b60405180910390fd5b610d2433610e39565b15610dbc5780600c60003373ffffffffffffffffffffffffffffffffffffffff1673ffffffffffffffffffffffffffffffffffffffff16815260200190815260200160002054610d749190612158565b600c60003373ffffffffffffffffffffffffffffffffffffffff1673ffffffffffffffffffffffffffffffffffffffff16815260200190815260200160002081905550610e01565b80600c60003373ffffffffffffffffffffffffffffffffffffffff1673ffffffffffffffffffffffffffffffffffffffff168152602001908152602001600020819055505b50565b600080610e0f610fca565b9050610e1c818585611227565b600191505092915050565b6060610e343360006115e1565b905090565b600080600c60008473ffffffffffffffffffffffffffffffffffffffff1673ffffffffffffffffffffffffffffffffffffffff1681526020019081526020016000205414159050919050565b6000600160008473ffffffffffffffffffffffffffffffffffffffff1673ffffffffffffffffffffffffffffffffffffffff16815260200190815260200160002060008373ffffffffffffffffffffffffffffffffffffffff1673ffffffffffffffffffffffffffffffffffffffff16815260200190815260200160002054905092915050565b600b602052816000526040600020602052806000526040600020600091509150505481565b610f3961149d565b600073ffffffffffffffffffffffffffffffffffffffff168173ffffffffffffffffffffffffffffffffffffffff1603610fa8576040517f08c379a0000000000000000000000000000000000000000000000000000000008152600401610f9f90612420565b60405180910390fd5b610fb18161151b565b50565b6001816000016000828254019250508190555050565b600033905090565b600073ffffffffffffffffffffffffffffffffffffffff168373ffffffffffffffffffffffffffffffffffffffff1603611041576040517f08c379a0000000000000000000000000000000000000000000000000000000008152600401611038906124b2565b60405180910390fd5b600073ffffffffffffffffffffffffffffffffffffffff168273ffffffffffffffffffffffffffffffffffffffff16036110b0576040517f08c379a00000000000000000000000000000000000000000000000000000000081526004016110a790612544565b60405180910390fd5b80600160008573ffffffffffffffffffffffffffffffffffffffff1673ffffffffffffffffffffffffffffffffffffffff16815260200190815260200160002060008473ffffffffffffffffffffffffffffffffffffffff1673ffffffffffffffffffffffffffffffffffffffff168152602001908152602001600020819055508173ffffffffffffffffffffffffffffffffffffffff168373ffffffffffffffffffffffffffffffffffffffff167f8c5be1e5ebec7d5bd14f71427d1e84f3dd0314c0f7b2291e5b200ac8c7c3b9258360405161118e9190611d06565b60405180910390a3505050565b60006111a78484610e85565b90507fffffffffffffffffffffffffffffffffffffffffffffffffffffffffffffffff81146112215781811015611213576040517f08c379a000000000000000000000000000000000000000000000000000000000815260040161120a906125b0565b60405180910390fd5b6112208484848403610fd2565b5b50505050565b600073ffffffffffffffffffffffffffffffffffffffff168373ffffffffffffffffffffffffffffffffffffffff1603611296576040517f08c379a000000000000000000000000000000000000000000000000000000000815260040161128d90612642565b60405180910390fd5b600073ffffffffffffffffffffffffffffffffffffffff168273ffffffffffffffffffffffffffffffffffffffff1603611305576040517f08c379a00000000000000000000000000000000000000000000000000000000081526004016112fc906126d4565b60405180910390fd5b611310838383611aac565b60008060008573ffffffffffffffffffffffffffffffffffffffff1673ffffffffffffffffffffffffffffffffffffffff16815260200190815260200160002054905081811015611396576040517f08c379a000000000000000000000000000000000000000000000000000000000815260040161138d90612766565b60405180910390fd5b8181036000808673ffffffffffffffffffffffffffffffffffffffff1673ffffffffffffffffffffffffffffffffffffffff16815260200190815260200160002081905550816000808573ffffffffffffffffffffffffffffffffffffffff1673ffffffffffffffffffffffffffffffffffffffff168152602001908152602001600020600082825401925050819055508273ffffffffffffffffffffffffffffffffffffffff168473ffffffffffffffffffffffffffffffffffffffff167fddf252ad1be2c89b69c2b068fc378daa952ba7f163c4a11628f55a4df523b3ef846040516114849190611d06565b60405180910390a3611497848484611ab1565b50505050565b6114a5610fca565b73ffffffffffffffffffffffffffffffffffffffff166114c3610b9f565b73ffffffffffffffffffffffffffffffffffffffff1614611519576040517f08c379a0000000000000000000000000000000000000000000000000000000008152600401611510906127d2565b60405180910390fd5b565b6000600560009054906101000a900473ffffffffffffffffffffffffffffffffffffffff16905081600560006101000a81548173ffffffffffffffffffffffffffffffffffffffff021916908373ffffffffffffffffffffffffffffffffffffffff1602179055508173ffffffffffffffffffffffffffffffffffffffff168173ffffffffffffffffffffffffffffffffffffffff167f8be0079c531659141344cd1fd0a4f28419497f9722a3daafe3b4186f6b6457e060405160405180910390a35050565b60606000600960008573ffffffffffffffffffffffffffffffffffffffff1673ffffffffffffffffffffffffffffffffffffffff16815260200190815260200160002080549050905060008167ffffffffffffffff811115611646576116456127f2565b5b60405190808252806020026020018201604052801561167f57816020015b61166c611ab6565b8152602001906001900390816116645790505b509050600084036117d75760005b828110156117d15760086000600960003373ffffffffffffffffffffffffffffffffffffffff1673ffffffffffffffffffffffffffffffffffffffff16815260200190815260200160002083815481106116ea576116e9612821565b5b906000526020600020015481526020019081526020016000206040518060e00160405290816000820154815260200160018201548152602001600282015481526020016003820154815260200160048201548152602001600582015481526020016006820160009054906101000a900473ffffffffffffffffffffffffffffffffffffffff1673ffffffffffffffffffffffffffffffffffffffff1673ffffffffffffffffffffffffffffffffffffffff16815250508282815181106117b3576117b2612821565b5b602002602001018190525080806117c990612850565b91505061168d565b50611a93565b600080600090505b83811015611a90578560086000600960003373ffffffffffffffffffffffffffffffffffffffff1673ffffffffffffffffffffffffffffffffffffffff168152602001908152602001600020848154811061183d5761183c612821565b5b906000526020600020015481526020019081526020016000206001015403611a7d5760086000600960003373ffffffffffffffffffffffffffffffffffffffff1673ffffffffffffffffffffffffffffffffffffffff16815260200190815260200160002083815481106118b4576118b3612821565b5b906000526020600020015481526020019081526020016000206040518060e00160405290816000820154815260200160018201548152602001600282015481526020016003820154815260200160048201548152602001600582015481526020016006820160009054906101000a900473ffffffffffffffffffffffffffffffffffffffff1673ffffffffffffffffffffffffffffffffffffffff1673ffffffffffffffffffffffffffffffffffffffff168152505083838151811061197d5761197c612821565b5b6020026020010181905250600b60003373ffffffffffffffffffffffffffffffffffffffff1673ffffffffffffffffffffffffffffffffffffffff168152602001908152602001600020600060086000600960003373ffffffffffffffffffffffffffffffffffffffff1673ffffffffffffffffffffffffffffffffffffffff1681526020019081526020016000208581548110611a1e57611a1d612821565b5b9060005260206000200154815260200190815260200160002060020154815260200190815260200160002054838381518110611a5d57611a5c612821565b5b60200260200101516080018181525050600182611a7a9190612158565b91505b8080611a8890612850565b9150506117df565b50505b809250505092915050565b600081600001549050919050565b505050565b505050565b6040518060e00160405280600081526020016000815260200160008152602001600081526020016000815260200160008152602001600073ffffffffffffffffffffffffffffffffffffffff1681525090565b600081519050919050565b600082825260208201905092915050565b60005b83811015611b43578082015181840152602081019050611b28565b60008484015250505050565b6000601f19601f8301169050919050565b6000611b6b82611b09565b611b758185611b14565b9350611b85818560208601611b25565b611b8e81611b4f565b840191505092915050565b60006020820190508181036000830152611bb38184611b60565b905092915050565b600080fd5b600073ffffffffffffffffffffffffffffffffffffffff82169050919050565b6000611beb82611bc0565b9050919050565b611bfb81611be0565b8114611c0657600080fd5b50565b600081359050611c1881611bf2565b92915050565b6000819050919050565b611c3181611c1e565b8114611c3c57600080fd5b50565b600081359050611c4e81611c28565b92915050565b60008060408385031215611c6b57611c6a611bbb565b5b6000611c7985828601611c09565b9250506020611c8a85828601611c3f565b9150509250929050565b60008115159050919050565b611ca981611c94565b82525050565b6000602082019050611cc46000830184611ca0565b92915050565b600060208284031215611ce057611cdf611bbb565b5b6000611cee84828501611c09565b91505092915050565b611d0081611c1e565b82525050565b6000602082019050611d1b6000830184611cf7565b92915050565b6000819050919050565b611d3481611d21565b82525050565b6000602082019050611d4f6000830184611d2b565b92915050565b600080600060608486031215611d6e57611d6d611bbb565b5b6000611d7c86828701611c09565b9350506020611d8d86828701611c09565b9250506040611d9e86828701611c3f565b9150509250925092565b600060ff82169050919050565b611dbe81611da8565b82525050565b6000602082019050611dd96000830184611db5565b92915050565b600060208284031215611df557611df4611bbb565b5b6000611e0384828501611c3f565b91505092915050565b611e1581611be0565b82525050565b600060e082019050611e30600083018a611cf7565b611e3d6020830189611cf7565b611e4a6040830188611cf7565b611e576060830187611cf7565b611e646080830186611cf7565b611e7160a0830185611cf7565b611e7e60c0830184611e0c565b98975050505050505050565b600081519050919050565b600082825260208201905092915050565b6000819050602082019050919050565b611ebf81611c1e565b82525050565b611ece81611be0565b82525050565b60e082016000820151611eea6000850182611eb6565b506020820151611efd6020850182611eb6565b506040820151611f106040850182611eb6565b506060820151611f236060850182611eb6565b506080820151611f366080850182611eb6565b5060a0820151611f4960a0850182611eb6565b5060c0820151611f5c60c0850182611ec5565b50505050565b6000611f6e8383611ed4565b60e08301905092915050565b6000602082019050919050565b6000611f9282611e8a565b611f9c8185611e95565b9350611fa783611ea6565b8060005b83811015611fd8578151611fbf8882611f62565b9750611fca83611f7a565b925050600181019050611fab565b5085935050505092915050565b60006020820190508181036000830152611fff8184611f87565b905092915050565b6000806000806080858703121561202157612020611bbb565b5b600061202f87828801611c3f565b945050602061204087828801611c3f565b935050604061205187828801611c3f565b925050606061206287828801611c3f565b91505092959194509250565b60006020820190506120836000830184611e0c565b92915050565b600080604083850312156120a05761209f611bbb565b5b60006120ae85828601611c09565b92505060206120bf85828601611c09565b9150509250929050565b7f4e487b7100000000000000000000000000000000000000000000000000000000600052602260045260246000fd5b6000600282049050600182168061211057607f821691505b602082108103612123576121226120c9565b5b50919050565b7f4e487b7100000000000000000000000000000000000000000000000000000000600052601160045260246000fd5b600061216382611c1e565b915061216e83611c1e565b925082820190508082111561218657612185612129565b5b92915050565b7f54686973206164647265737320686173206e6576657220636f6e74726962757460008201527f656420546f6b656e7320746f207468652070726f746f636f6c00000000000000602082015250565b60006121e8603983611b14565b91506121f38261218c565b604082019050919050565b60006020820190508181036000830152612217816121db565b9050919050565b7f4e6f7420656e6f7567682053544320546f6b656e730000000000000000000000600082015250565b6000612254601583611b14565b915061225f8261221e565b602082019050919050565b6000602082019050818103600083015261228381612247565b9050919050565b7f45524332303a2064656372656173656420616c6c6f77616e63652062656c6f7760008201527f207a65726f000000000000000000000000000000000000000000000000000000602082015250565b60006122e6602583611b14565b91506122f18261228a565b604082019050919050565b60006020820190508181036000830152612315816122d9565b9050919050565b7f556e61626c6520746f207472616e7366657220796f757220746f6b656e73207460008201527f6f207468697320636f6e74726163740000000000000000000000000000000000602082015250565b6000612378602f83611b14565b91506123838261231c565b604082019050919050565b600060208201905081810360008301526123a78161236b565b9050919050565b7f4f776e61626c653a206e6577206f776e657220697320746865207a65726f206160008201527f6464726573730000000000000000000000000000000000000000000000000000602082015250565b600061240a602683611b14565b9150612415826123ae565b604082019050919050565b60006020820190508181036000830152612439816123fd565b9050919050565b7f45524332303a20617070726f76652066726f6d20746865207a65726f2061646460008201527f7265737300000000000000000000000000000000000000000000000000000000602082015250565b600061249c602483611b14565b91506124a782612440565b604082019050919050565b600060208201905081810360008301526124cb8161248f565b9050919050565b7f45524332303a20617070726f766520746f20746865207a65726f20616464726560008201527f7373000000000000000000000000000000000000000000000000000000000000602082015250565b600061252e602283611b14565b9150612539826124d2565b604082019050919050565b6000602082019050818103600083015261255d81612521565b9050919050565b7f45524332303a20696e73756666696369656e7420616c6c6f77616e6365000000600082015250565b600061259a601d83611b14565b91506125a582612564565b602082019050919050565b600060208201905081810360008301526125c98161258d565b9050919050565b7f45524332303a207472616e736665722066726f6d20746865207a65726f20616460008201527f6472657373000000000000000000000000000000000000000000000000000000602082015250565b600061262c602583611b14565b9150612637826125d0565b604082019050919050565b6000602082019050818103600083015261265b8161261f565b9050919050565b7f45524332303a207472616e7366657220746f20746865207a65726f206164647260008201527f6573730000000000000000000000000000000000000000000000000000000000602082015250565b60006126be602383611b14565b91506126c982612662565b604082019050919050565b600060208201905081810360008301526126ed816126b1565b9050919050565b7f45524332303a207472616e7366657220616d6f756e742065786365656473206260008201527f616c616e63650000000000000000000000000000000000000000000000000000602082015250565b6000612750602683611b14565b915061275b826126f4565b604082019050919050565b6000602082019050818103600083015261277f81612743565b9050919050565b7f4f776e61626c653a2063616c6c6572206973206e6f7420746865206f776e6572600082015250565b60006127bc602083611b14565b91506127c782612786565b602082019050919050565b600060208201905081810360008301526127eb816127af565b9050919050565b7f4e487b7100000000000000000000000000000000000000000000000000000000600052604160045260246000fd5b7f4e487b7100000000000000000000000000000000000000000000000000000000600052603260045260246000fd5b600061285b82611c1e565b91507fffffffffffffffffffffffffffffffffffffffffffffffffffffffffffffffff820361288d5761288c612129565b5b60018201905091905056fea2646970667358221220f8e0ea6d22ccb253a34555e277e91a40611971a52ad484630abcc245e3b93bb264736f6c63430008110033",
  "linkReferences": {},
  "deployedLinkReferences": {}
}