{
  "_format": "hh-sol-artifact-1",
  "contractName": "ContainerCluster",
  "sourceName": "contracts/oracle/Cluster.sol",
  "abi": [
    {
      "inputs": [
        {
          "internalType": "address",
          "name": "_link_token_address",
          "type": "address"
        }
      ],
      "stateMutability": "nonpayable",
      "type": "constructor"
    },
    {
      "anonymous": false,
      "inputs": [
        {
          "indexed": true,
          "internalType": "bytes32",
          "name": "id",
          "type": "bytes32"
        }
      ],
      "name": "ChainlinkCancelled",
      "type": "event"
    },
    {
      "anonymous": false,
      "inputs": [
        {
          "indexed": true,
          "internalType": "bytes32",
          "name": "id",
          "type": "bytes32"
        }
      ],
      "name": "ChainlinkFulfilled",
      "type": "event"
    },
    {
      "anonymous": false,
      "inputs": [
        {
          "indexed": true,
          "internalType": "bytes32",
          "name": "id",
          "type": "bytes32"
        }
      ],
      "name": "ChainlinkRequested",
      "type": "event"
    },
    {
      "anonymous": false,
      "inputs": [
        {
          "indexed": true,
          "internalType": "address",
          "name": "from",
          "type": "address"
        },
        {
          "indexed": true,
          "internalType": "address",
          "name": "to",
          "type": "address"
        }
      ],
      "name": "OwnershipTransferRequested",
      "type": "event"
    },
    {
      "anonymous": false,
      "inputs": [
        {
          "indexed": true,
          "internalType": "address",
          "name": "from",
          "type": "address"
        },
        {
          "indexed": true,
          "internalType": "address",
          "name": "to",
          "type": "address"
        }
      ],
      "name": "OwnershipTransferred",
      "type": "event"
    },
    {
      "anonymous": false,
      "inputs": [
        {
          "indexed": true,
          "internalType": "bytes32",
          "name": "requestId",
          "type": "bytes32"
        },
        {
          "indexed": true,
          "internalType": "string",
          "name": "clusterInfoCid",
          "type": "string"
        }
      ],
      "name": "RequestClusterInfoFulfilled",
      "type": "event"
    },
    {
      "inputs": [],
      "name": "ACCESS_CONTROL",
      "outputs": [
        {
          "internalType": "address",
          "name": "",
          "type": "address"
        }
      ],
      "stateMutability": "view",
      "type": "function"
    },
    {
      "inputs": [],
      "name": "acceptOwnership",
      "outputs": [],
      "stateMutability": "nonpayable",
      "type": "function"
    },
    {
      "inputs": [
        {
          "internalType": "bytes32",
          "name": "_requestId",
          "type": "bytes32"
        },
        {
          "internalType": "uint256",
          "name": "_payment",
          "type": "uint256"
        },
        {
          "internalType": "bytes4",
          "name": "_callbackFunctionId",
          "type": "bytes4"
        },
        {
          "internalType": "uint256",
          "name": "_expiration",
          "type": "uint256"
        }
      ],
      "name": "cancelRequest",
      "outputs": [],
      "stateMutability": "nonpayable",
      "type": "function"
    },
    {
      "inputs": [
        {
          "internalType": "string",
          "name": "",
          "type": "string"
        }
      ],
      "name": "currentClusterInfoMap",
      "outputs": [
        {
          "internalType": "string",
          "name": "",
          "type": "string"
        }
      ],
      "stateMutability": "view",
      "type": "function"
    },
    {
      "inputs": [
        {
          "internalType": "bytes32",
          "name": "_requestId",
          "type": "bytes32"
        },
        {
          "internalType": "string",
          "name": "_cluster_info_cid",
          "type": "string"
        },
        {
          "internalType": "string",
          "name": "_cid_update_timestamp",
          "type": "string"
        }
      ],
      "name": "fulfillClusterInfo",
      "outputs": [],
      "stateMutability": "nonpayable",
      "type": "function"
    },
    {
      "inputs": [],
      "name": "getChainlinkToken",
      "outputs": [
        {
          "internalType": "address",
          "name": "",
          "type": "address"
        }
      ],
      "stateMutability": "view",
      "type": "function"
    },
    {
      "inputs": [],
      "name": "owner",
      "outputs": [
        {
          "internalType": "address",
          "name": "",
          "type": "address"
        }
      ],
      "stateMutability": "view",
      "type": "function"
    },
    {
      "inputs": [
        {
          "internalType": "address",
          "name": "_oracle",
          "type": "address"
        },
        {
          "internalType": "string",
          "name": "_jobId",
          "type": "string"
        },
        {
          "internalType": "string",
          "name": "_request_url",
          "type": "string"
        }
      ],
      "name": "requestClusterInfo",
      "outputs": [],
      "stateMutability": "nonpayable",
      "type": "function"
    },
    {
      "inputs": [
        {
          "internalType": "address",
          "name": "to",
          "type": "address"
        }
      ],
      "name": "transferOwnership",
      "outputs": [],
      "stateMutability": "nonpayable",
      "type": "function"
    },
    {
      "inputs": [],
      "name": "withdrawLink",
      "outputs": [],
      "stateMutability": "nonpayable",
      "type": "function"
    }
  ],
  "bytecode": "0x60806040526001600455734d736e5c2b0c5c8e9ee88955964ead24c8d70469600860006101000a81548173ffffffffffffffffffffffffffffffffffffffff021916908373ffffffffffffffffffffffffffffffffffffffff1602179055503480156200006b57600080fd5b506040516200296738038062002967833981810160405281019062000091919062000388565b338060008073ffffffffffffffffffffffffffffffffffffffff168273ffffffffffffffffffffffffffffffffffffffff160362000106576040517f08c379a0000000000000000000000000000000000000000000000000000000008152600401620000fd906200041b565b60405180910390fd5b81600660006101000a81548173ffffffffffffffffffffffffffffffffffffffff021916908373ffffffffffffffffffffffffffffffffffffffff160217905550600073ffffffffffffffffffffffffffffffffffffffff168173ffffffffffffffffffffffffffffffffffffffff16146200018e576200018d81620001a960201b60201c565b5b505050620001a281620002da60201b60201c565b50620004af565b3373ffffffffffffffffffffffffffffffffffffffff168173ffffffffffffffffffffffffffffffffffffffff16036200021a576040517f08c379a000000000000000000000000000000000000000000000000000000000815260040162000211906200048d565b60405180910390fd5b80600760006101000a81548173ffffffffffffffffffffffffffffffffffffffff021916908373ffffffffffffffffffffffffffffffffffffffff1602179055508073ffffffffffffffffffffffffffffffffffffffff16600660009054906101000a900473ffffffffffffffffffffffffffffffffffffffff1673ffffffffffffffffffffffffffffffffffffffff167fed8889f560326eb138920d842192f0eb3dd22b4f139c87a2c57538e05bae127860405160405180910390a350565b80600260006101000a81548173ffffffffffffffffffffffffffffffffffffffff021916908373ffffffffffffffffffffffffffffffffffffffff16021790555050565b600080fd5b600073ffffffffffffffffffffffffffffffffffffffff82169050919050565b6000620003508262000323565b9050919050565b620003628162000343565b81146200036e57600080fd5b50565b600081519050620003828162000357565b92915050565b600060208284031215620003a157620003a06200031e565b5b6000620003b18482850162000371565b91505092915050565b600082825260208201905092915050565b7f43616e6e6f7420736574206f776e657220746f207a65726f0000000000000000600082015250565b600062000403601883620003ba565b91506200041082620003cb565b602082019050919050565b600060208201905081810360008301526200043681620003f4565b9050919050565b7f43616e6e6f74207472616e7366657220746f2073656c66000000000000000000600082015250565b600062000475601783620003ba565b915062000482826200043d565b602082019050919050565b60006020820190508181036000830152620004a88162000466565b9050919050565b6124a880620004bf6000396000f3fe608060405234801561001057600080fd5b506004361061009e5760003560e01c80638dc654a2116100665780638dc654a2146101215780639269db361461012b57806395a5e85914610149578063ec65d0f814610179578063f2fde38b146101955761009e565b8063165d35e1146100a357806339d06710146100c157806374544bc8146100dd57806379ba5097146100f95780638da5cb5b14610103575b600080fd5b6100ab6101b1565b6040516100b891906114c6565b60405180910390f35b6100db60048036038101906100d69190611667565b6101c0565b005b6100f760048036038101906100f29190611728565b610262565b005b61010161041d565b005b61010b6105b4565b60405161011891906114c6565b60405180910390f35b6101296105de565b005b61013361072b565b60405161014091906114c6565b60405180910390f35b610163600480360381019061015e91906117b3565b610751565b6040516101709190611884565b60405180910390f35b610193600480360381019061018e9190611934565b610807565b005b6101af60048036038101906101aa919061199b565b610821565b005b60006101bb610835565b905090565b6101c861085f565b60006101e46101d6846108f1565b306374544bc860e01b61091a565b90506102306040518060400160405280600381526020017f6170690000000000000000000000000000000000000000000000000000000000815250838361094b9092919063ffffffff16565b61025b8482600a670de0b6b3a7640000600161024c91906119f7565b6102569190611a80565b61097e565b5050505050565b826005600082815260200190815260200160002060009054906101000a900473ffffffffffffffffffffffffffffffffffffffff1673ffffffffffffffffffffffffffffffffffffffff163373ffffffffffffffffffffffffffffffffffffffff1614610304576040517f08c379a00000000000000000000000000000000000000000000000000000000081526004016102fb90611b23565b60405180910390fd5b6005600082815260200190815260200160002060006101000a81549073ffffffffffffffffffffffffffffffffffffffff0219169055807f7cc135e0cebb02c3480ae5d74d377283180a2601f8f644edf7987b009316c63a60405160405180910390a2826040516103759190611b7f565b6040518091039020847f4be939a6239881d51fad5260bf404284b11ace889c73561fa60d14c788715a0b60405160405180910390a3600083511115610417578260096040516103c390611be2565b908152602001604051809103902090805190602001906103e492919061135b565b508160096040516103f490611c43565b9081526020016040518091039020908051906020019061041592919061135b565b505b50505050565b600760009054906101000a900473ffffffffffffffffffffffffffffffffffffffff1673ffffffffffffffffffffffffffffffffffffffff163373ffffffffffffffffffffffffffffffffffffffff16146104ad576040517f08c379a00000000000000000000000000000000000000000000000000000000081526004016104a490611ca4565b60405180910390fd5b6000600660009054906101000a900473ffffffffffffffffffffffffffffffffffffffff16905033600660006101000a81548173ffffffffffffffffffffffffffffffffffffffff021916908373ffffffffffffffffffffffffffffffffffffffff1602179055506000600760006101000a81548173ffffffffffffffffffffffffffffffffffffffff021916908373ffffffffffffffffffffffffffffffffffffffff1602179055503373ffffffffffffffffffffffffffffffffffffffff168173ffffffffffffffffffffffffffffffffffffffff167f8be0079c531659141344cd1fd0a4f28419497f9722a3daafe3b4186f6b6457e060405160405180910390a350565b6000600660009054906101000a900473ffffffffffffffffffffffffffffffffffffffff16905090565b6105e661085f565b60006105f0610835565b90508073ffffffffffffffffffffffffffffffffffffffff1663a9059cbb338373ffffffffffffffffffffffffffffffffffffffff166370a08231306040518263ffffffff1660e01b815260040161064891906114c6565b602060405180830381865afa158015610665573d6000803e3d6000fd5b505050506040513d601f19601f820116820180604052508101906106899190611cd9565b6040518363ffffffff1660e01b81526004016106a6929190611d15565b6020604051808303816000875af11580156106c5573d6000803e3d6000fd5b505050506040513d601f19601f820116820180604052508101906106e99190611d76565b610728576040517f08c379a000000000000000000000000000000000000000000000000000000000815260040161071f90611def565b60405180910390fd5b50565b600860009054906101000a900473ffffffffffffffffffffffffffffffffffffffff1681565b600981805160208101820180518482526020830160208501208183528095505050505050600091509050805461078690611e3e565b80601f01602080910402602001604051908101604052809291908181526020018280546107b290611e3e565b80156107ff5780601f106107d4576101008083540402835291602001916107ff565b820191906000526020600020905b8154815290600101906020018083116107e257829003601f168201915b505050505081565b61080f61085f565b61081b84848484610a4a565b50505050565b61082961085f565b61083281610b5d565b50565b6000600260009054906101000a900473ffffffffffffffffffffffffffffffffffffffff16905090565b600660009054906101000a900473ffffffffffffffffffffffffffffffffffffffff1673ffffffffffffffffffffffffffffffffffffffff163373ffffffffffffffffffffffffffffffffffffffff16146108ef576040517f08c379a00000000000000000000000000000000000000000000000000000000081526004016108e690611ebb565b60405180910390fd5b565b600080829050600081510361090c576000801b915050610915565b60208301519150505b919050565b6109226113e1565b61092a6113e1565b61094185858584610c8b909392919063ffffffff16565b9150509392505050565b610962828460800151610d3b90919063ffffffff16565b610979818460800151610d3b90919063ffffffff16565b505050565b60008060045490506001816109939190611edb565b6004819055506000634042994660e01b60008087600001513089604001518760018c60800151600001516040516024016109d4989796959493929190611fa4565b604051602081830303815290604052907bffffffffffffffffffffffffffffffffffffffffffffffffffffffff19166020820180517bffffffffffffffffffffffffffffffffffffffffffffffffffffffff83818316178352505050509050610a3f86838684610d60565b925050509392505050565b60006005600086815260200190815260200160002060009054906101000a900473ffffffffffffffffffffffffffffffffffffffff1690506005600086815260200190815260200160002060006101000a81549073ffffffffffffffffffffffffffffffffffffffff0219169055847fe1fe3afa0f7f761ff0a8b89086790efd5140d2907ebd5b7ff6bfcb5e075fd4c560405160405180910390a28073ffffffffffffffffffffffffffffffffffffffff16636ee4d553868686866040518563ffffffff1660e01b8152600401610b249493929190612029565b600060405180830381600087803b158015610b3e57600080fd5b505af1158015610b52573d6000803e3d6000fd5b505050505050505050565b3373ffffffffffffffffffffffffffffffffffffffff168173ffffffffffffffffffffffffffffffffffffffff1603610bcb576040517f08c379a0000000000000000000000000000000000000000000000000000000008152600401610bc2906120ba565b60405180910390fd5b80600760006101000a81548173ffffffffffffffffffffffffffffffffffffffff021916908373ffffffffffffffffffffffffffffffffffffffff1602179055508073ffffffffffffffffffffffffffffffffffffffff16600660009054906101000a900473ffffffffffffffffffffffffffffffffffffffff1673ffffffffffffffffffffffffffffffffffffffff167fed8889f560326eb138920d842192f0eb3dd22b4f139c87a2c57538e05bae127860405160405180910390a350565b610c936113e1565b610ca38560800151610100610ef5565b508385600001818152505082856020019073ffffffffffffffffffffffffffffffffffffffff16908173ffffffffffffffffffffffffffffffffffffffff16815250508185604001907bffffffffffffffffffffffffffffffffffffffffffffffffffffffff191690817bffffffffffffffffffffffffffffffffffffffffffffffffffffffff191681525050849050949350505050565b610d488260038351610f5f565b610d5b81836110e490919063ffffffff16565b505050565b60003084604051602001610d75929190612193565b604051602081830303815290604052805190602001209050846005600083815260200190815260200160002060006101000a81548173ffffffffffffffffffffffffffffffffffffffff021916908373ffffffffffffffffffffffffffffffffffffffff160217905550807fb5e6e01e79f91267dc17b4e6314d5d4d03593d2ceee0fbb452b750bd70ea5af960405160405180910390a2600260009054906101000a900473ffffffffffffffffffffffffffffffffffffffff1673ffffffffffffffffffffffffffffffffffffffff16634000aea08685856040518463ffffffff1660e01b8152600401610e6b939291906121bf565b6020604051808303816000875af1158015610e8a573d6000803e3d6000fd5b505050506040513d601f19601f82011682018060405250810190610eae9190611d76565b610eed576040517f08c379a0000000000000000000000000000000000000000000000000000000008152600401610ee49061226f565b60405180910390fd5b949350505050565b610efd61144e565b6000602083610f0c919061228f565b14610f3857602082610f1e919061228f565b6020610f2a91906122c0565b82610f359190611edb565b91505b81836020018181525050604051808452600081528281016020016040525082905092915050565b60178167ffffffffffffffff1611610f9657610f908160058460ff16901b60ff16178461110690919063ffffffff16565b506110df565b60ff8167ffffffffffffffff1611610fec57610fc5601860058460ff16901b178461110690919063ffffffff16565b50610fe68167ffffffffffffffff166001856111269092919063ffffffff16565b506110de565b61ffff8167ffffffffffffffff16116110435761101c601960058460ff16901b178461110690919063ffffffff16565b5061103d8167ffffffffffffffff166002856111269092919063ffffffff16565b506110dd565b63ffffffff8167ffffffffffffffff161161109c57611075601a60058460ff16901b178461110690919063ffffffff16565b506110968167ffffffffffffffff166004856111269092919063ffffffff16565b506110dc565b6110b9601b60058460ff16901b178461110690919063ffffffff16565b506110da8167ffffffffffffffff166008856111269092919063ffffffff16565b505b5b5b5b505050565b6110ec61144e565b6110fe83846000015151848551611148565b905092915050565b61110e61144e565b61111e8384600001515184611237565b905092915050565b61112e61144e565b61113f84856000015151858561128d565b90509392505050565b61115061144e565b825182111561115e57600080fd5b8460200151828561116f9190611edb565b11156111a4576111a38560026111948860200151888761118f9190611edb565b61131b565b61119e91906119f7565b611337565b5b6000808651805187602083010193508088870111156111c35787860182525b60208701925050505b6020841061120a57805182526020826111e59190611edb565b91506020816111f49190611edb565b905060208461120391906122c0565b93506111cc565b60006001856020036101000a03905080198251168184511681811785525050508692505050949350505050565b61123f61144e565b8360200151831061126557611264846002866020015161125f91906119f7565b611337565b5b83518051602085830101848153818603611280576001820183525b5050508390509392505050565b61129561144e565b846020015184836112a69190611edb565b11156112ce576112cd85600286856112be9190611edb565b6112c891906119f7565b611337565b5b60006001836101006112e09190612427565b6112ea91906122c0565b9050855183868201018583198251161781528151858801111561130d5784870182525b505085915050949350505050565b60008183111561132d57829050611331565b8190505b92915050565b60008260000151905061134a8383610ef5565b5061135583826110e4565b50505050565b82805461136790611e3e565b90600052602060002090601f01602090048101928261138957600085556113d0565b82601f106113a257805160ff19168380011785556113d0565b828001600101855582156113d0579182015b828111156113cf5782518255916020019190600101906113b4565b5b5090506113dd9190611468565b5090565b6040518060a0016040528060008019168152602001600073ffffffffffffffffffffffffffffffffffffffff16815260200160007bffffffffffffffffffffffffffffffffffffffffffffffffffffffff191681526020016000815260200161144861144e565b81525090565b604051806040016040528060608152602001600081525090565b5b80821115611481576000816000905550600101611469565b5090565b600073ffffffffffffffffffffffffffffffffffffffff82169050919050565b60006114b082611485565b9050919050565b6114c0816114a5565b82525050565b60006020820190506114db60008301846114b7565b92915050565b6000604051905090565b600080fd5b600080fd5b6114fe816114a5565b811461150957600080fd5b50565b60008135905061151b816114f5565b92915050565b600080fd5b600080fd5b6000601f19601f8301169050919050565b7f4e487b7100000000000000000000000000000000000000000000000000000000600052604160045260246000fd5b6115748261152b565b810181811067ffffffffffffffff821117156115935761159261153c565b5b80604052505050565b60006115a66114e1565b90506115b2828261156b565b919050565b600067ffffffffffffffff8211156115d2576115d161153c565b5b6115db8261152b565b9050602081019050919050565b82818337600083830152505050565b600061160a611605846115b7565b61159c565b90508281526020810184848401111561162657611625611526565b5b6116318482856115e8565b509392505050565b600082601f83011261164e5761164d611521565b5b813561165e8482602086016115f7565b91505092915050565b6000806000606084860312156116805761167f6114eb565b5b600061168e8682870161150c565b935050602084013567ffffffffffffffff8111156116af576116ae6114f0565b5b6116bb86828701611639565b925050604084013567ffffffffffffffff8111156116dc576116db6114f0565b5b6116e886828701611639565b9150509250925092565b6000819050919050565b611705816116f2565b811461171057600080fd5b50565b600081359050611722816116fc565b92915050565b600080600060608486031215611741576117406114eb565b5b600061174f86828701611713565b935050602084013567ffffffffffffffff8111156117705761176f6114f0565b5b61177c86828701611639565b925050604084013567ffffffffffffffff81111561179d5761179c6114f0565b5b6117a986828701611639565b9150509250925092565b6000602082840312156117c9576117c86114eb565b5b600082013567ffffffffffffffff8111156117e7576117e66114f0565b5b6117f384828501611639565b91505092915050565b600081519050919050565b600082825260208201905092915050565b60005b8381101561183657808201518184015260208101905061181b565b83811115611845576000848401525b50505050565b6000611856826117fc565b6118608185611807565b9350611870818560208601611818565b6118798161152b565b840191505092915050565b6000602082019050818103600083015261189e818461184b565b905092915050565b6000819050919050565b6118b9816118a6565b81146118c457600080fd5b50565b6000813590506118d6816118b0565b92915050565b60007fffffffff0000000000000000000000000000000000000000000000000000000082169050919050565b611911816118dc565b811461191c57600080fd5b50565b60008135905061192e81611908565b92915050565b6000806000806080858703121561194e5761194d6114eb565b5b600061195c87828801611713565b945050602061196d878288016118c7565b935050604061197e8782880161191f565b925050606061198f878288016118c7565b91505092959194509250565b6000602082840312156119b1576119b06114eb565b5b60006119bf8482850161150c565b91505092915050565b7f4e487b7100000000000000000000000000000000000000000000000000000000600052601160045260246000fd5b6000611a02826118a6565b9150611a0d836118a6565b9250817fffffffffffffffffffffffffffffffffffffffffffffffffffffffffffffffff0483118215151615611a4657611a456119c8565b5b828202905092915050565b7f4e487b7100000000000000000000000000000000000000000000000000000000600052601260045260246000fd5b6000611a8b826118a6565b9150611a96836118a6565b925082611aa657611aa5611a51565b5b828204905092915050565b7f536f75726365206d75737420626520746865206f7261636c65206f662074686560008201527f2072657175657374000000000000000000000000000000000000000000000000602082015250565b6000611b0d602883611807565b9150611b1882611ab1565b604082019050919050565b60006020820190508181036000830152611b3c81611b00565b9050919050565b600081905092915050565b6000611b59826117fc565b611b638185611b43565b9350611b73818560208601611818565b80840191505092915050565b6000611b8b8284611b4e565b915081905092915050565b7f6369640000000000000000000000000000000000000000000000000000000000600082015250565b6000611bcc600383611b43565b9150611bd782611b96565b600382019050919050565b6000611bed82611bbf565b9150819050919050565b7f74696d657374616d700000000000000000000000000000000000000000000000600082015250565b6000611c2d600983611b43565b9150611c3882611bf7565b600982019050919050565b6000611c4e82611c20565b9150819050919050565b7f4d7573742062652070726f706f736564206f776e657200000000000000000000600082015250565b6000611c8e601683611807565b9150611c9982611c58565b602082019050919050565b60006020820190508181036000830152611cbd81611c81565b9050919050565b600081519050611cd3816118b0565b92915050565b600060208284031215611cef57611cee6114eb565b5b6000611cfd84828501611cc4565b91505092915050565b611d0f816118a6565b82525050565b6000604082019050611d2a60008301856114b7565b611d376020830184611d06565b9392505050565b60008115159050919050565b611d5381611d3e565b8114611d5e57600080fd5b50565b600081519050611d7081611d4a565b92915050565b600060208284031215611d8c57611d8b6114eb565b5b6000611d9a84828501611d61565b91505092915050565b7f556e61626c6520746f207472616e736665720000000000000000000000000000600082015250565b6000611dd9601283611807565b9150611de482611da3565b602082019050919050565b60006020820190508181036000830152611e0881611dcc565b9050919050565b7f4e487b7100000000000000000000000000000000000000000000000000000000600052602260045260246000fd5b60006002820490506001821680611e5657607f821691505b602082108103611e6957611e68611e0f565b5b50919050565b7f4f6e6c792063616c6c61626c65206279206f776e657200000000000000000000600082015250565b6000611ea5601683611807565b9150611eb082611e6f565b602082019050919050565b60006020820190508181036000830152611ed481611e98565b9050919050565b6000611ee6826118a6565b9150611ef1836118a6565b9250827fffffffffffffffffffffffffffffffffffffffffffffffffffffffffffffffff03821115611f2657611f256119c8565b5b828201905092915050565b611f3a816116f2565b82525050565b611f49816118dc565b82525050565b600081519050919050565b600082825260208201905092915050565b6000611f7682611f4f565b611f808185611f5a565b9350611f90818560208601611818565b611f998161152b565b840191505092915050565b600061010082019050611fba600083018b6114b7565b611fc7602083018a611d06565b611fd46040830189611f31565b611fe160608301886114b7565b611fee6080830187611f40565b611ffb60a0830186611d06565b61200860c0830185611d06565b81810360e083015261201a8184611f6b565b90509998505050505050505050565b600060808201905061203e6000830187611f31565b61204b6020830186611d06565b6120586040830185611f40565b6120656060830184611d06565b95945050505050565b7f43616e6e6f74207472616e7366657220746f2073656c66000000000000000000600082015250565b60006120a4601783611807565b91506120af8261206e565b602082019050919050565b600060208201905081810360008301526120d381612097565b9050919050565b6000819050919050565b60006120ff6120fa6120f584611485565b6120da565b611485565b9050919050565b6000612111826120e4565b9050919050565b600061212382612106565b9050919050565b60008160601b9050919050565b60006121428261212a565b9050919050565b600061215482612137565b9050919050565b61216c61216782612118565b612149565b82525050565b6000819050919050565b61218d612188826118a6565b612172565b82525050565b600061219f828561215b565b6014820191506121af828461217c565b6020820191508190509392505050565b60006060820190506121d460008301866114b7565b6121e16020830185611d06565b81810360408301526121f38184611f6b565b9050949350505050565b7f756e61626c6520746f207472616e73666572416e6443616c6c20746f206f726160008201527f636c650000000000000000000000000000000000000000000000000000000000602082015250565b6000612259602383611807565b9150612264826121fd565b604082019050919050565b600060208201905081810360008301526122888161224c565b9050919050565b600061229a826118a6565b91506122a5836118a6565b9250826122b5576122b4611a51565b5b828206905092915050565b60006122cb826118a6565b91506122d6836118a6565b9250828210156122e9576122e86119c8565b5b828203905092915050565b60008160011c9050919050565b6000808291508390505b600185111561234b57808604811115612327576123266119c8565b5b60018516156123365780820291505b8081029050612344856122f4565b945061230b565b94509492505050565b6000826123645760019050612420565b816123725760009050612420565b81600181146123885760028114612392576123c1565b6001915050612420565b60ff8411156123a4576123a36119c8565b5b8360020a9150848211156123bb576123ba6119c8565b5b50612420565b5060208310610133831016604e8410600b84101617156123f65782820a9050838111156123f1576123f06119c8565b5b612420565b6124038484846001612301565b9250905081840481111561241a576124196119c8565b5b81810290505b9392505050565b6000612432826118a6565b915061243d836118a6565b925061246a7fffffffffffffffffffffffffffffffffffffffffffffffffffffffffffffffff8484612354565b90509291505056fea26469706673582212201b078952715a8b6426edbdf803650178e1f653f2bbf8a2eb64a039ee6d5e6fab64736f6c634300080d0033",
  "linkReferences": {},
  "deployedLinkReferences": {}
}